{
	"Wallet.sol": {
		"Wallet": {
			"abi": [
				{
					"inputs": [
						{
							"internalType": "address[]",
							"name": "_approvers",
							"type": "address[]"
						},
						{
							"internalType": "uint256",
							"name": "_quorum",
							"type": "uint256"
						}
					],
					"stateMutability": "nonpayable",
					"type": "constructor"
				},
				{
					"inputs": [
						{
							"internalType": "uint256",
							"name": "",
							"type": "uint256"
						}
					],
					"name": "approvers",
					"outputs": [
						{
							"internalType": "address",
							"name": "",
							"type": "address"
						}
					],
					"stateMutability": "view",
					"type": "function"
				},
				{
					"inputs": [
						{
							"internalType": "uint256",
							"name": "amount",
							"type": "uint256"
						},
						{
							"internalType": "address payable",
							"name": "to",
							"type": "address"
						}
					],
					"name": "create_transfer",
					"outputs": [],
					"stateMutability": "nonpayable",
					"type": "function"
				},
				{
					"inputs": [],
					"name": "get_approvers",
					"outputs": [
						{
							"internalType": "address[]",
							"name": "",
							"type": "address[]"
						}
					],
					"stateMutability": "view",
					"type": "function"
				},
				{
					"inputs": [],
					"name": "next_id",
					"outputs": [
						{
							"internalType": "uint256",
							"name": "",
							"type": "uint256"
						}
					],
					"stateMutability": "view",
					"type": "function"
				},
				{
					"inputs": [],
					"name": "quorum",
					"outputs": [
						{
							"internalType": "uint256",
							"name": "",
							"type": "uint256"
						}
					],
					"stateMutability": "view",
					"type": "function"
				},
				{
					"inputs": [
						{
							"internalType": "uint256",
							"name": "",
							"type": "uint256"
						}
					],
					"name": "transfers",
					"outputs": [
						{
							"internalType": "uint256",
							"name": "id",
							"type": "uint256"
						},
						{
							"internalType": "uint256",
							"name": "amount",
							"type": "uint256"
						},
						{
							"internalType": "address payable",
							"name": "to",
							"type": "address"
						},
						{
							"internalType": "uint256",
							"name": "approvals",
							"type": "uint256"
						},
						{
							"internalType": "bool",
							"name": "sent",
							"type": "bool"
						}
					],
					"stateMutability": "view",
					"type": "function"
				}
			],
			"devdoc": {
				"kind": "dev",
				"methods": {},
				"version": 1
			},
			"evm": {
				"assembly": "    /* \"Wallet.sol\":57:1118  contract Wallet {... */\n  mstore(0x40, 0x80)\n    /* \"Wallet.sol\":637:767  constructor(address[] memory _approvers, uint256 _quorum) public {... */\n  callvalue\n  dup1\n  iszero\n  tag_1\n  jumpi\n  0x00\n  dup1\n  revert\ntag_1:\n  pop\n  mload(0x40)\n  sub(codesize, bytecodeSize)\n  dup1\n  bytecodeSize\n  dup4\n  codecopy\n  dup2\n  dup2\n  add\n  0x40\n  mstore\n  dup2\n  add\n  swap1\n  tag_2\n  swap2\n  swap1\n  tag_3\n  jump\t// in\ntag_2:\n    /* \"Wallet.sol\":724:734  _approvers */\n  dup2\n    /* \"Wallet.sol\":712:721  approvers */\n  0x00\n    /* \"Wallet.sol\":712:734  approvers = _approvers */\n  swap1\n  dup1\n  mload\n  swap1\n  0x20\n  add\n  swap1\n  tag_6\n  swap3\n  swap2\n  swap1\n  tag_7\n  jump\t// in\ntag_6:\n  pop\n    /* \"Wallet.sol\":753:760  _quorum */\n  dup1\n    /* \"Wallet.sol\":744:750  quorum */\n  0x01\n    /* \"Wallet.sol\":744:760  quorum = _quorum */\n  dup2\n  swap1\n  sstore\n  pop\n    /* \"Wallet.sol\":637:767  constructor(address[] memory _approvers, uint256 _quorum) public {... */\n  pop\n  pop\n    /* \"Wallet.sol\":57:1118  contract Wallet {... */\n  jump(tag_8)\ntag_7:\n  dup3\n  dup1\n  sload\n  dup3\n  dup3\n  sstore\n  swap1\n  0x00\n  mstore\n  keccak256(0x00, 0x20)\n  swap1\n  dup2\n  add\n  swap3\n  dup3\n  iszero\n  tag_9\n  jumpi\n  swap2\n  0x20\n  mul\n  dup3\n  add\ntag_10:\n  dup3\n  dup2\n  gt\n  iszero\n  tag_11\n  jumpi\n  dup3\n  mload\n  dup3\n  exp(0x0100, 0x00)\n  dup2\n  sload\n  dup2\n  0xffffffffffffffffffffffffffffffffffffffff\n  mul\n  not\n  and\n  swap1\n  dup4\n  0xffffffffffffffffffffffffffffffffffffffff\n  and\n  mul\n  or\n  swap1\n  sstore\n  pop\n  swap2\n  0x20\n  add\n  swap2\n  swap1\n  0x01\n  add\n  swap1\n  jump(tag_10)\ntag_11:\ntag_9:\n  pop\n  swap1\n  pop\n  tag_12\n  swap2\n  swap1\n  tag_13\n  jump\t// in\ntag_12:\n  pop\n  swap1\n  jump\t// out\ntag_13:\ntag_14:\n  dup1\n  dup3\n  gt\n  iszero\n  tag_15\n  jumpi\n  0x00\n  dup2\n  0x00\n  swap1\n  sstore\n  pop\n  0x01\n  add\n  jump(tag_14)\ntag_15:\n  pop\n  swap1\n  jump\t// out\n    /* \"#utility.yul\":24:668   */\ntag_17:\n  0x00\n    /* \"#utility.yul\":156:236   */\n  tag_19\n    /* \"#utility.yul\":171:235   */\n  tag_20\n    /* \"#utility.yul\":228:234   */\n  dup5\n    /* \"#utility.yul\":171:235   */\n  tag_21\n  jump\t// in\ntag_20:\n    /* \"#utility.yul\":156:236   */\n  tag_22\n  jump\t// in\ntag_19:\n    /* \"#utility.yul\":147:236   */\n  swap1\n  pop\n    /* \"#utility.yul\":256:261   */\n  dup1\n    /* \"#utility.yul\":284:290   */\n  dup4\n    /* \"#utility.yul\":277:282   */\n  dup3\n    /* \"#utility.yul\":270:291   */\n  mstore\n    /* \"#utility.yul\":310:314   */\n  0x20\n    /* \"#utility.yul\":303:308   */\n  dup3\n    /* \"#utility.yul\":299:315   */\n  add\n    /* \"#utility.yul\":292:315   */\n  swap1\n  pop\n    /* \"#utility.yul\":335:341   */\n  dup3\n    /* \"#utility.yul\":385:388   */\n  dup6\n    /* \"#utility.yul\":377:381   */\n  0x20\n    /* \"#utility.yul\":369:375   */\n  dup7\n    /* \"#utility.yul\":365:382   */\n  mul\n    /* \"#utility.yul\":360:363   */\n  dup3\n    /* \"#utility.yul\":356:383   */\n  add\n    /* \"#utility.yul\":353:389   */\n  gt\n    /* \"#utility.yul\":350:352   */\n  iszero\n  tag_23\n  jumpi\n    /* \"#utility.yul\":402:403   */\n  0x00\n    /* \"#utility.yul\":399:400   */\n  dup1\n    /* \"#utility.yul\":392:404   */\n  revert\n    /* \"#utility.yul\":350:352   */\ntag_23:\n    /* \"#utility.yul\":430:431   */\n  0x00\n    /* \"#utility.yul\":415:662   */\ntag_24:\n    /* \"#utility.yul\":440:446   */\n  dup6\n    /* \"#utility.yul\":437:438   */\n  dup2\n    /* \"#utility.yul\":434:447   */\n  lt\n    /* \"#utility.yul\":415:662   */\n  iszero\n  tag_26\n  jumpi\n    /* \"#utility.yul\":507:510   */\n  dup2\n    /* \"#utility.yul\":535:583   */\n  tag_27\n    /* \"#utility.yul\":579:582   */\n  dup9\n    /* \"#utility.yul\":567:577   */\n  dup3\n    /* \"#utility.yul\":535:583   */\n  tag_28\n  jump\t// in\ntag_27:\n    /* \"#utility.yul\":530:533   */\n  dup5\n    /* \"#utility.yul\":523:584   */\n  mstore\n    /* \"#utility.yul\":613:617   */\n  0x20\n    /* \"#utility.yul\":608:611   */\n  dup5\n    /* \"#utility.yul\":604:618   */\n  add\n    /* \"#utility.yul\":597:618   */\n  swap4\n  pop\n    /* \"#utility.yul\":647:651   */\n  0x20\n    /* \"#utility.yul\":642:645   */\n  dup4\n    /* \"#utility.yul\":638:652   */\n  add\n    /* \"#utility.yul\":631:652   */\n  swap3\n  pop\n    /* \"#utility.yul\":475:662   */\n  pop\n    /* \"#utility.yul\":462:463   */\n  0x01\n    /* \"#utility.yul\":459:460   */\n  dup2\n    /* \"#utility.yul\":455:464   */\n  add\n    /* \"#utility.yul\":450:464   */\n  swap1\n  pop\n    /* \"#utility.yul\":415:662   */\n  jump(tag_24)\ntag_26:\n    /* \"#utility.yul\":419:433   */\n  pop\n    /* \"#utility.yul\":137:668   */\n  pop\n  pop\n  swap4\n  swap3\n  pop\n  pop\n  pop\n  jump\t// out\n    /* \"#utility.yul\":674:817   */\ntag_28:\n  0x00\n    /* \"#utility.yul\":762:768   */\n  dup2\n    /* \"#utility.yul\":756:769   */\n  mload\n    /* \"#utility.yul\":747:769   */\n  swap1\n  pop\n    /* \"#utility.yul\":778:811   */\n  tag_30\n    /* \"#utility.yul\":805:810   */\n  dup2\n    /* \"#utility.yul\":778:811   */\n  tag_31\n  jump\t// in\ntag_30:\n    /* \"#utility.yul\":737:817   */\n  swap3\n  swap2\n  pop\n  pop\n  jump\t// out\n    /* \"#utility.yul\":840:1158   */\ntag_32:\n  0x00\n    /* \"#utility.yul\":971:974   */\n  dup3\n    /* \"#utility.yul\":964:968   */\n  0x1f\n    /* \"#utility.yul\":956:962   */\n  dup4\n    /* \"#utility.yul\":952:969   */\n  add\n    /* \"#utility.yul\":948:975   */\n  slt\n    /* \"#utility.yul\":938:940   */\n  tag_34\n  jumpi\n    /* \"#utility.yul\":989:990   */\n  0x00\n    /* \"#utility.yul\":986:987   */\n  dup1\n    /* \"#utility.yul\":979:991   */\n  revert\n    /* \"#utility.yul\":938:940   */\ntag_34:\n    /* \"#utility.yul\":1022:1028   */\n  dup2\n    /* \"#utility.yul\":1016:1029   */\n  mload\n    /* \"#utility.yul\":1047:1152   */\n  tag_35\n    /* \"#utility.yul\":1148:1151   */\n  dup5\n    /* \"#utility.yul\":1140:1146   */\n  dup3\n    /* \"#utility.yul\":1133:1137   */\n  0x20\n    /* \"#utility.yul\":1125:1131   */\n  dup7\n    /* \"#utility.yul\":1121:1138   */\n  add\n    /* \"#utility.yul\":1047:1152   */\n  tag_17\n  jump\t// in\ntag_35:\n    /* \"#utility.yul\":1038:1152   */\n  swap2\n  pop\n    /* \"#utility.yul\":928:1158   */\n  pop\n  swap3\n  swap2\n  pop\n  pop\n  jump\t// out\n    /* \"#utility.yul\":1164:1307   */\ntag_36:\n  0x00\n    /* \"#utility.yul\":1252:1258   */\n  dup2\n    /* \"#utility.yul\":1246:1259   */\n  mload\n    /* \"#utility.yul\":1237:1259   */\n  swap1\n  pop\n    /* \"#utility.yul\":1268:1301   */\n  tag_38\n    /* \"#utility.yul\":1295:1300   */\n  dup2\n    /* \"#utility.yul\":1268:1301   */\n  tag_39\n  jump\t// in\ntag_38:\n    /* \"#utility.yul\":1227:1307   */\n  swap3\n  swap2\n  pop\n  pop\n  jump\t// out\n    /* \"#utility.yul\":1313:1889   */\ntag_3:\n  0x00\n  dup1\n    /* \"#utility.yul\":1474:1476   */\n  0x40\n    /* \"#utility.yul\":1462:1471   */\n  dup4\n    /* \"#utility.yul\":1453:1460   */\n  dup6\n    /* \"#utility.yul\":1449:1472   */\n  sub\n    /* \"#utility.yul\":1445:1477   */\n  slt\n    /* \"#utility.yul\":1442:1444   */\n  iszero\n  tag_41\n  jumpi\n    /* \"#utility.yul\":1490:1491   */\n  0x00\n    /* \"#utility.yul\":1487:1488   */\n  dup1\n    /* \"#utility.yul\":1480:1492   */\n  revert\n    /* \"#utility.yul\":1442:1444   */\ntag_41:\n    /* \"#utility.yul\":1554:1555   */\n  0x00\n    /* \"#utility.yul\":1543:1552   */\n  dup4\n    /* \"#utility.yul\":1539:1556   */\n  add\n    /* \"#utility.yul\":1533:1557   */\n  mload\n    /* \"#utility.yul\":1584:1602   */\n  0xffffffffffffffff\n    /* \"#utility.yul\":1576:1582   */\n  dup2\n    /* \"#utility.yul\":1573:1603   */\n  gt\n    /* \"#utility.yul\":1570:1572   */\n  iszero\n  tag_42\n  jumpi\n    /* \"#utility.yul\":1616:1617   */\n  0x00\n    /* \"#utility.yul\":1613:1614   */\n  dup1\n    /* \"#utility.yul\":1606:1618   */\n  revert\n    /* \"#utility.yul\":1570:1572   */\ntag_42:\n    /* \"#utility.yul\":1644:1733   */\n  tag_43\n    /* \"#utility.yul\":1725:1732   */\n  dup6\n    /* \"#utility.yul\":1716:1722   */\n  dup3\n    /* \"#utility.yul\":1705:1714   */\n  dup7\n    /* \"#utility.yul\":1701:1723   */\n  add\n    /* \"#utility.yul\":1644:1733   */\n  tag_32\n  jump\t// in\ntag_43:\n    /* \"#utility.yul\":1634:1733   */\n  swap3\n  pop\n    /* \"#utility.yul\":1504:1743   */\n  pop\n    /* \"#utility.yul\":1782:1784   */\n  0x20\n    /* \"#utility.yul\":1808:1872   */\n  tag_44\n    /* \"#utility.yul\":1864:1871   */\n  dup6\n    /* \"#utility.yul\":1855:1861   */\n  dup3\n    /* \"#utility.yul\":1844:1853   */\n  dup7\n    /* \"#utility.yul\":1840:1862   */\n  add\n    /* \"#utility.yul\":1808:1872   */\n  tag_36\n  jump\t// in\ntag_44:\n    /* \"#utility.yul\":1798:1872   */\n  swap2\n  pop\n    /* \"#utility.yul\":1753:1882   */\n  pop\n    /* \"#utility.yul\":1432:1889   */\n  swap3\n  pop\n  swap3\n  swap1\n  pop\n  jump\t// out\n    /* \"#utility.yul\":1895:2178   */\ntag_22:\n  0x00\n    /* \"#utility.yul\":1961:1963   */\n  0x40\n    /* \"#utility.yul\":1955:1964   */\n  mload\n    /* \"#utility.yul\":1945:1964   */\n  swap1\n  pop\n    /* \"#utility.yul\":2003:2007   */\n  dup2\n    /* \"#utility.yul\":1995:2001   */\n  dup2\n    /* \"#utility.yul\":1991:2008   */\n  add\n    /* \"#utility.yul\":2110:2116   */\n  dup2\n    /* \"#utility.yul\":2098:2108   */\n  dup2\n    /* \"#utility.yul\":2095:2117   */\n  lt\n    /* \"#utility.yul\":2074:2092   */\n  0xffffffffffffffff\n    /* \"#utility.yul\":2062:2072   */\n  dup3\n    /* \"#utility.yul\":2059:2093   */\n  gt\n    /* \"#utility.yul\":2056:2118   */\n  or\n    /* \"#utility.yul\":2053:2055   */\n  iszero\n  tag_46\n  jumpi\n    /* \"#utility.yul\":2121:2139   */\n  tag_47\n  tag_48\n  jump\t// in\ntag_47:\n    /* \"#utility.yul\":2053:2055   */\ntag_46:\n    /* \"#utility.yul\":2161:2171   */\n  dup1\n    /* \"#utility.yul\":2157:2159   */\n  0x40\n    /* \"#utility.yul\":2150:2172   */\n  mstore\n    /* \"#utility.yul\":1935:2178   */\n  pop\n  swap2\n  swap1\n  pop\n  jump\t// out\n    /* \"#utility.yul\":2184:2495   */\ntag_21:\n  0x00\n    /* \"#utility.yul\":2351:2369   */\n  0xffffffffffffffff\n    /* \"#utility.yul\":2343:2349   */\n  dup3\n    /* \"#utility.yul\":2340:2370   */\n  gt\n    /* \"#utility.yul\":2337:2339   */\n  iszero\n  tag_50\n  jumpi\n    /* \"#utility.yul\":2373:2391   */\n  tag_51\n  tag_48\n  jump\t// in\ntag_51:\n    /* \"#utility.yul\":2337:2339   */\ntag_50:\n    /* \"#utility.yul\":2423:2427   */\n  0x20\n    /* \"#utility.yul\":2415:2421   */\n  dup3\n    /* \"#utility.yul\":2411:2428   */\n  mul\n    /* \"#utility.yul\":2403:2428   */\n  swap1\n  pop\n    /* \"#utility.yul\":2483:2487   */\n  0x20\n    /* \"#utility.yul\":2477:2481   */\n  dup2\n    /* \"#utility.yul\":2473:2488   */\n  add\n    /* \"#utility.yul\":2465:2488   */\n  swap1\n  pop\n    /* \"#utility.yul\":2266:2495   */\n  swap2\n  swap1\n  pop\n  jump\t// out\n    /* \"#utility.yul\":2501:2597   */\ntag_52:\n  0x00\n    /* \"#utility.yul\":2567:2591   */\n  tag_54\n    /* \"#utility.yul\":2585:2590   */\n  dup3\n    /* \"#utility.yul\":2567:2591   */\n  tag_55\n  jump\t// in\ntag_54:\n    /* \"#utility.yul\":2556:2591   */\n  swap1\n  pop\n    /* \"#utility.yul\":2546:2597   */\n  swap2\n  swap1\n  pop\n  jump\t// out\n    /* \"#utility.yul\":2603:2729   */\ntag_55:\n  0x00\n    /* \"#utility.yul\":2680:2722   */\n  0xffffffffffffffffffffffffffffffffffffffff\n    /* \"#utility.yul\":2673:2678   */\n  dup3\n    /* \"#utility.yul\":2669:2723   */\n  and\n    /* \"#utility.yul\":2658:2723   */\n  swap1\n  pop\n    /* \"#utility.yul\":2648:2729   */\n  swap2\n  swap1\n  pop\n  jump\t// out\n    /* \"#utility.yul\":2735:2812   */\ntag_57:\n  0x00\n    /* \"#utility.yul\":2801:2806   */\n  dup2\n    /* \"#utility.yul\":2790:2806   */\n  swap1\n  pop\n    /* \"#utility.yul\":2780:2812   */\n  swap2\n  swap1\n  pop\n  jump\t// out\n    /* \"#utility.yul\":2818:2998   */\ntag_48:\n    /* \"#utility.yul\":2866:2943   */\n  0x4e487b7100000000000000000000000000000000000000000000000000000000\n    /* \"#utility.yul\":2863:2864   */\n  0x00\n    /* \"#utility.yul\":2856:2944   */\n  mstore\n    /* \"#utility.yul\":2963:2967   */\n  0x41\n    /* \"#utility.yul\":2960:2961   */\n  0x04\n    /* \"#utility.yul\":2953:2968   */\n  mstore\n    /* \"#utility.yul\":2987:2991   */\n  0x24\n    /* \"#utility.yul\":2984:2985   */\n  0x00\n    /* \"#utility.yul\":2977:2992   */\n  revert\n    /* \"#utility.yul\":3004:3126   */\ntag_31:\n    /* \"#utility.yul\":3077:3101   */\n  tag_61\n    /* \"#utility.yul\":3095:3100   */\n  dup2\n    /* \"#utility.yul\":3077:3101   */\n  tag_52\n  jump\t// in\ntag_61:\n    /* \"#utility.yul\":3070:3075   */\n  dup2\n    /* \"#utility.yul\":3067:3102   */\n  eq\n    /* \"#utility.yul\":3057:3059   */\n  tag_62\n  jumpi\n    /* \"#utility.yul\":3116:3117   */\n  0x00\n    /* \"#utility.yul\":3113:3114   */\n  dup1\n    /* \"#utility.yul\":3106:3118   */\n  revert\n    /* \"#utility.yul\":3057:3059   */\ntag_62:\n    /* \"#utility.yul\":3047:3126   */\n  pop\n  jump\t// out\n    /* \"#utility.yul\":3132:3254   */\ntag_39:\n    /* \"#utility.yul\":3205:3229   */\n  tag_64\n    /* \"#utility.yul\":3223:3228   */\n  dup2\n    /* \"#utility.yul\":3205:3229   */\n  tag_57\n  jump\t// in\ntag_64:\n    /* \"#utility.yul\":3198:3203   */\n  dup2\n    /* \"#utility.yul\":3195:3230   */\n  eq\n    /* \"#utility.yul\":3185:3187   */\n  tag_65\n  jumpi\n    /* \"#utility.yul\":3244:3245   */\n  0x00\n    /* \"#utility.yul\":3241:3242   */\n  dup1\n    /* \"#utility.yul\":3234:3246   */\n  revert\n    /* \"#utility.yul\":3185:3187   */\ntag_65:\n    /* \"#utility.yul\":3175:3254   */\n  pop\n  jump\t// out\n    /* \"Wallet.sol\":57:1118  contract Wallet {... */\ntag_8:\n  dataSize(sub_0)\n  dup1\n  dataOffset(sub_0)\n  0x00\n  codecopy\n  0x00\n  return\nstop\n\nsub_0: assembly {\n        /* \"Wallet.sol\":57:1118  contract Wallet {... */\n      mstore(0x40, 0x80)\n      callvalue\n      dup1\n      iszero\n      tag_1\n      jumpi\n      0x00\n      dup1\n      revert\n    tag_1:\n      pop\n      jumpi(tag_2, lt(calldatasize, 0x04))\n      shr(0xe0, calldataload(0x00))\n      dup1\n      0x01d9c112\n      eq\n      tag_3\n      jumpi\n      dup1\n      0x1703a018\n      eq\n      tag_4\n      jumpi\n      dup1\n      0x9377d711\n      eq\n      tag_5\n      jumpi\n      dup1\n      0xd3650fb8\n      eq\n      tag_6\n      jumpi\n      dup1\n      0xe31bfa00\n      eq\n      tag_7\n      jumpi\n      dup1\n      0xe90af376\n      eq\n      tag_8\n      jumpi\n    tag_2:\n      0x00\n      dup1\n      revert\n        /* \"Wallet.sol\":969:1116  function create_transfer(uint256 amount, address payable to) external {... */\n    tag_3:\n      tag_9\n      0x04\n      dup1\n      calldatasize\n      sub\n      dup2\n      add\n      swap1\n      tag_10\n      swap2\n      swap1\n      tag_11\n      jump\t// in\n    tag_10:\n      tag_12\n      jump\t// in\n    tag_9:\n      stop\n        /* \"Wallet.sol\":280:301  uint256 public quorum */\n    tag_4:\n      tag_13\n      tag_14\n      jump\t// in\n    tag_13:\n      mload(0x40)\n      tag_15\n      swap2\n      swap1\n      tag_16\n      jump\t// in\n    tag_15:\n      mload(0x40)\n      dup1\n      swap2\n      sub\n      swap1\n      return\n        /* \"Wallet.sol\":557:602  mapping(uint256 => Transfer) public transfers */\n    tag_5:\n      tag_17\n      0x04\n      dup1\n      calldatasize\n      sub\n      dup2\n      add\n      swap1\n      tag_18\n      swap2\n      swap1\n      tag_19\n      jump\t// in\n    tag_18:\n      tag_20\n      jump\t// in\n    tag_17:\n      mload(0x40)\n      tag_21\n      swap6\n      swap5\n      swap4\n      swap3\n      swap2\n      swap1\n      tag_22\n      jump\t// in\n    tag_21:\n      mload(0x40)\n      dup1\n      swap2\n      sub\n      swap1\n      return\n        /* \"Wallet.sol\":165:191  address[] public approvers */\n    tag_6:\n      tag_23\n      0x04\n      dup1\n      calldatasize\n      sub\n      dup2\n      add\n      swap1\n      tag_24\n      swap2\n      swap1\n      tag_19\n      jump\t// in\n    tag_24:\n      tag_25\n      jump\t// in\n    tag_23:\n      mload(0x40)\n      tag_26\n      swap2\n      swap1\n      tag_27\n      jump\t// in\n    tag_26:\n      mload(0x40)\n      dup1\n      swap2\n      sub\n      swap1\n      return\n        /* \"Wallet.sol\":608:630  uint256 public next_id */\n    tag_7:\n      tag_28\n      tag_29\n      jump\t// in\n    tag_28:\n      mload(0x40)\n      tag_30\n      swap2\n      swap1\n      tag_16\n      jump\t// in\n    tag_30:\n      mload(0x40)\n      dup1\n      swap2\n      sub\n      swap1\n      return\n        /* \"Wallet.sol\":828:927  function get_approvers() external view returns (address[] memory) {... */\n    tag_8:\n      tag_31\n      tag_32\n      jump\t// in\n    tag_31:\n      mload(0x40)\n      tag_33\n      swap2\n      swap1\n      tag_34\n      jump\t// in\n    tag_33:\n      mload(0x40)\n      dup1\n      swap2\n      sub\n      swap1\n      return\n        /* \"Wallet.sol\":969:1116  function create_transfer(uint256 amount, address payable to) external {... */\n    tag_12:\n        /* \"Wallet.sol\":1070:1109  Transfer(next_id, amount, to, 0, false) */\n      mload(0x40)\n      dup1\n      0xa0\n      add\n      0x40\n      mstore\n      dup1\n        /* \"Wallet.sol\":1079:1086  next_id */\n      sload(0x03)\n        /* \"Wallet.sol\":1070:1109  Transfer(next_id, amount, to, 0, false) */\n      dup2\n      mstore\n      0x20\n      add\n        /* \"Wallet.sol\":1088:1094  amount */\n      dup4\n        /* \"Wallet.sol\":1070:1109  Transfer(next_id, amount, to, 0, false) */\n      dup2\n      mstore\n      0x20\n      add\n        /* \"Wallet.sol\":1096:1098  to */\n      dup3\n        /* \"Wallet.sol\":1070:1109  Transfer(next_id, amount, to, 0, false) */\n      0xffffffffffffffffffffffffffffffffffffffff\n      and\n      dup2\n      mstore\n      0x20\n      add\n        /* \"Wallet.sol\":1100:1101  0 */\n      0x00\n        /* \"Wallet.sol\":1070:1109  Transfer(next_id, amount, to, 0, false) */\n      dup2\n      mstore\n      0x20\n      add\n        /* \"Wallet.sol\":1103:1108  false */\n      0x00\n        /* \"Wallet.sol\":1070:1109  Transfer(next_id, amount, to, 0, false) */\n      iszero\n      iszero\n      dup2\n      mstore\n      pop\n        /* \"Wallet.sol\":1049:1058  transfers */\n      0x02\n        /* \"Wallet.sol\":1049:1067  transfers[next_id] */\n      0x00\n        /* \"Wallet.sol\":1059:1066  next_id */\n      sload(0x03)\n        /* \"Wallet.sol\":1049:1067  transfers[next_id] */\n      dup2\n      mstore\n      0x20\n      add\n      swap1\n      dup2\n      mstore\n      0x20\n      add\n      0x00\n      keccak256\n        /* \"Wallet.sol\":1049:1109  transfers[next_id] = Transfer(next_id, amount, to, 0, false) */\n      0x00\n      dup3\n      add\n      mload\n      dup2\n      0x00\n      add\n      sstore\n      0x20\n      dup3\n      add\n      mload\n      dup2\n      0x01\n      add\n      sstore\n      0x40\n      dup3\n      add\n      mload\n      dup2\n      0x02\n      add\n      exp(0x0100, 0x00)\n      dup2\n      sload\n      dup2\n      0xffffffffffffffffffffffffffffffffffffffff\n      mul\n      not\n      and\n      swap1\n      dup4\n      0xffffffffffffffffffffffffffffffffffffffff\n      and\n      mul\n      or\n      swap1\n      sstore\n      pop\n      0x60\n      dup3\n      add\n      mload\n      dup2\n      0x03\n      add\n      sstore\n      0x80\n      dup3\n      add\n      mload\n      dup2\n      0x04\n      add\n      exp(0x0100, 0x00)\n      dup2\n      sload\n      dup2\n      0xff\n      mul\n      not\n      and\n      swap1\n      dup4\n      iszero\n      iszero\n      mul\n      or\n      swap1\n      sstore\n      pop\n      swap1\n      pop\n      pop\n        /* \"Wallet.sol\":969:1116  function create_transfer(uint256 amount, address payable to) external {... */\n      pop\n      pop\n      jump\t// out\n        /* \"Wallet.sol\":280:301  uint256 public quorum */\n    tag_14:\n      sload(0x01)\n      dup2\n      jump\t// out\n        /* \"Wallet.sol\":557:602  mapping(uint256 => Transfer) public transfers */\n    tag_20:\n      mstore(0x20, 0x02)\n      dup1\n      0x00\n      mstore\n      keccak256(0x00, 0x40)\n      0x00\n      swap2\n      pop\n      swap1\n      pop\n      dup1\n      0x00\n      add\n      sload\n      swap1\n      dup1\n      0x01\n      add\n      sload\n      swap1\n      dup1\n      0x02\n      add\n      0x00\n      swap1\n      sload\n      swap1\n      0x0100\n      exp\n      swap1\n      div\n      0xffffffffffffffffffffffffffffffffffffffff\n      and\n      swap1\n      dup1\n      0x03\n      add\n      sload\n      swap1\n      dup1\n      0x04\n      add\n      0x00\n      swap1\n      sload\n      swap1\n      0x0100\n      exp\n      swap1\n      div\n      0xff\n      and\n      swap1\n      pop\n      dup6\n      jump\t// out\n        /* \"Wallet.sol\":165:191  address[] public approvers */\n    tag_25:\n      0x00\n      dup2\n      dup2\n      sload\n      dup2\n      lt\n      tag_36\n      jumpi\n      0x00\n      dup1\n      revert\n    tag_36:\n      swap1\n      0x00\n      mstore\n      keccak256(0x00, 0x20)\n      add\n      0x00\n      swap2\n      pop\n      sload\n      swap1\n      0x0100\n      exp\n      swap1\n      div\n      0xffffffffffffffffffffffffffffffffffffffff\n      and\n      dup2\n      jump\t// out\n        /* \"Wallet.sol\":608:630  uint256 public next_id */\n    tag_29:\n      sload(0x03)\n      dup2\n      jump\t// out\n        /* \"Wallet.sol\":828:927  function get_approvers() external view returns (address[] memory) {... */\n    tag_32:\n        /* \"Wallet.sol\":876:892  address[] memory */\n      0x60\n        /* \"Wallet.sol\":911:920  approvers */\n      0x00\n        /* \"Wallet.sol\":904:920  return approvers */\n      dup1\n      sload\n      dup1\n      0x20\n      mul\n      0x20\n      add\n      mload(0x40)\n      swap1\n      dup2\n      add\n      0x40\n      mstore\n      dup1\n      swap3\n      swap2\n      swap1\n      dup2\n      dup2\n      mstore\n      0x20\n      add\n      dup3\n      dup1\n      sload\n      dup1\n      iszero\n      tag_39\n      jumpi\n      0x20\n      mul\n      dup3\n      add\n      swap2\n      swap1\n      0x00\n      mstore\n      keccak256(0x00, 0x20)\n      swap1\n    tag_40:\n      dup2\n      0x00\n      swap1\n      sload\n      swap1\n      0x0100\n      exp\n      swap1\n      div\n      0xffffffffffffffffffffffffffffffffffffffff\n      and\n      0xffffffffffffffffffffffffffffffffffffffff\n      and\n      dup2\n      mstore\n      0x20\n      add\n      swap1\n      0x01\n      add\n      swap1\n      dup1\n      dup4\n      gt\n      tag_40\n      jumpi\n    tag_39:\n      pop\n      pop\n      pop\n      pop\n      pop\n      swap1\n      pop\n        /* \"Wallet.sol\":828:927  function get_approvers() external view returns (address[] memory) {... */\n      swap1\n      jump\t// out\n        /* \"#utility.yul\":7:162   */\n    tag_42:\n      0x00\n        /* \"#utility.yul\":99:105   */\n      dup2\n        /* \"#utility.yul\":86:106   */\n      calldataload\n        /* \"#utility.yul\":77:106   */\n      swap1\n      pop\n        /* \"#utility.yul\":115:156   */\n      tag_44\n        /* \"#utility.yul\":150:155   */\n      dup2\n        /* \"#utility.yul\":115:156   */\n      tag_45\n      jump\t// in\n    tag_44:\n        /* \"#utility.yul\":67:162   */\n      swap3\n      swap2\n      pop\n      pop\n      jump\t// out\n        /* \"#utility.yul\":168:307   */\n    tag_46:\n      0x00\n        /* \"#utility.yul\":252:258   */\n      dup2\n        /* \"#utility.yul\":239:259   */\n      calldataload\n        /* \"#utility.yul\":230:259   */\n      swap1\n      pop\n        /* \"#utility.yul\":268:301   */\n      tag_48\n        /* \"#utility.yul\":295:300   */\n      dup2\n        /* \"#utility.yul\":268:301   */\n      tag_49\n      jump\t// in\n    tag_48:\n        /* \"#utility.yul\":220:307   */\n      swap3\n      swap2\n      pop\n      pop\n      jump\t// out\n        /* \"#utility.yul\":313:575   */\n    tag_19:\n      0x00\n        /* \"#utility.yul\":421:423   */\n      0x20\n        /* \"#utility.yul\":409:418   */\n      dup3\n        /* \"#utility.yul\":400:407   */\n      dup5\n        /* \"#utility.yul\":396:419   */\n      sub\n        /* \"#utility.yul\":392:424   */\n      slt\n        /* \"#utility.yul\":389:391   */\n      iszero\n      tag_51\n      jumpi\n        /* \"#utility.yul\":437:438   */\n      0x00\n        /* \"#utility.yul\":434:435   */\n      dup1\n        /* \"#utility.yul\":427:439   */\n      revert\n        /* \"#utility.yul\":389:391   */\n    tag_51:\n        /* \"#utility.yul\":480:481   */\n      0x00\n        /* \"#utility.yul\":505:558   */\n      tag_52\n        /* \"#utility.yul\":550:557   */\n      dup5\n        /* \"#utility.yul\":541:547   */\n      dup3\n        /* \"#utility.yul\":530:539   */\n      dup6\n        /* \"#utility.yul\":526:548   */\n      add\n        /* \"#utility.yul\":505:558   */\n      tag_46\n      jump\t// in\n    tag_52:\n        /* \"#utility.yul\":495:558   */\n      swap2\n      pop\n        /* \"#utility.yul\":451:568   */\n      pop\n        /* \"#utility.yul\":379:575   */\n      swap3\n      swap2\n      pop\n      pop\n      jump\t// out\n        /* \"#utility.yul\":581:1004   */\n    tag_11:\n      0x00\n      dup1\n        /* \"#utility.yul\":714:716   */\n      0x40\n        /* \"#utility.yul\":702:711   */\n      dup4\n        /* \"#utility.yul\":693:700   */\n      dup6\n        /* \"#utility.yul\":689:712   */\n      sub\n        /* \"#utility.yul\":685:717   */\n      slt\n        /* \"#utility.yul\":682:684   */\n      iszero\n      tag_54\n      jumpi\n        /* \"#utility.yul\":730:731   */\n      0x00\n        /* \"#utility.yul\":727:728   */\n      dup1\n        /* \"#utility.yul\":720:732   */\n      revert\n        /* \"#utility.yul\":682:684   */\n    tag_54:\n        /* \"#utility.yul\":773:774   */\n      0x00\n        /* \"#utility.yul\":798:851   */\n      tag_55\n        /* \"#utility.yul\":843:850   */\n      dup6\n        /* \"#utility.yul\":834:840   */\n      dup3\n        /* \"#utility.yul\":823:832   */\n      dup7\n        /* \"#utility.yul\":819:841   */\n      add\n        /* \"#utility.yul\":798:851   */\n      tag_46\n      jump\t// in\n    tag_55:\n        /* \"#utility.yul\":788:851   */\n      swap3\n      pop\n        /* \"#utility.yul\":744:861   */\n      pop\n        /* \"#utility.yul\":900:902   */\n      0x20\n        /* \"#utility.yul\":926:987   */\n      tag_56\n        /* \"#utility.yul\":979:986   */\n      dup6\n        /* \"#utility.yul\":970:976   */\n      dup3\n        /* \"#utility.yul\":959:968   */\n      dup7\n        /* \"#utility.yul\":955:977   */\n      add\n        /* \"#utility.yul\":926:987   */\n      tag_42\n      jump\t// in\n    tag_56:\n        /* \"#utility.yul\":916:987   */\n      swap2\n      pop\n        /* \"#utility.yul\":871:997   */\n      pop\n        /* \"#utility.yul\":672:1004   */\n      swap3\n      pop\n      swap3\n      swap1\n      pop\n      jump\t// out\n        /* \"#utility.yul\":1010:1189   */\n    tag_57:\n      0x00\n        /* \"#utility.yul\":1100:1146   */\n      tag_59\n        /* \"#utility.yul\":1142:1145   */\n      dup4\n        /* \"#utility.yul\":1134:1140   */\n      dup4\n        /* \"#utility.yul\":1100:1146   */\n      tag_60\n      jump\t// in\n    tag_59:\n        /* \"#utility.yul\":1178:1182   */\n      0x20\n        /* \"#utility.yul\":1173:1176   */\n      dup4\n        /* \"#utility.yul\":1169:1183   */\n      add\n        /* \"#utility.yul\":1155:1183   */\n      swap1\n      pop\n        /* \"#utility.yul\":1090:1189   */\n      swap3\n      swap2\n      pop\n      pop\n      jump\t// out\n        /* \"#utility.yul\":1195:1337   */\n    tag_61:\n        /* \"#utility.yul\":1298:1330   */\n      tag_63\n        /* \"#utility.yul\":1324:1329   */\n      dup2\n        /* \"#utility.yul\":1298:1330   */\n      tag_64\n      jump\t// in\n    tag_63:\n        /* \"#utility.yul\":1293:1296   */\n      dup3\n        /* \"#utility.yul\":1286:1331   */\n      mstore\n        /* \"#utility.yul\":1276:1337   */\n      pop\n      pop\n      jump\t// out\n        /* \"#utility.yul\":1343:1451   */\n    tag_60:\n        /* \"#utility.yul\":1420:1444   */\n      tag_66\n        /* \"#utility.yul\":1438:1443   */\n      dup2\n        /* \"#utility.yul\":1420:1444   */\n      tag_67\n      jump\t// in\n    tag_66:\n        /* \"#utility.yul\":1415:1418   */\n      dup3\n        /* \"#utility.yul\":1408:1445   */\n      mstore\n        /* \"#utility.yul\":1398:1451   */\n      pop\n      pop\n      jump\t// out\n        /* \"#utility.yul\":1457:1575   */\n    tag_68:\n        /* \"#utility.yul\":1544:1568   */\n      tag_70\n        /* \"#utility.yul\":1562:1567   */\n      dup2\n        /* \"#utility.yul\":1544:1568   */\n      tag_67\n      jump\t// in\n    tag_70:\n        /* \"#utility.yul\":1539:1542   */\n      dup3\n        /* \"#utility.yul\":1532:1569   */\n      mstore\n        /* \"#utility.yul\":1522:1575   */\n      pop\n      pop\n      jump\t// out\n        /* \"#utility.yul\":1611:2343   */\n    tag_71:\n      0x00\n        /* \"#utility.yul\":1759:1813   */\n      tag_73\n        /* \"#utility.yul\":1807:1812   */\n      dup3\n        /* \"#utility.yul\":1759:1813   */\n      tag_74\n      jump\t// in\n    tag_73:\n        /* \"#utility.yul\":1829:1915   */\n      tag_75\n        /* \"#utility.yul\":1908:1914   */\n      dup2\n        /* \"#utility.yul\":1903:1906   */\n      dup6\n        /* \"#utility.yul\":1829:1915   */\n      tag_76\n      jump\t// in\n    tag_75:\n        /* \"#utility.yul\":1822:1915   */\n      swap4\n      pop\n        /* \"#utility.yul\":1939:1995   */\n      tag_77\n        /* \"#utility.yul\":1989:1994   */\n      dup4\n        /* \"#utility.yul\":1939:1995   */\n      tag_78\n      jump\t// in\n    tag_77:\n        /* \"#utility.yul\":2018:2025   */\n      dup1\n        /* \"#utility.yul\":2049:2050   */\n      0x00\n        /* \"#utility.yul\":2034:2318   */\n    tag_79:\n        /* \"#utility.yul\":2059:2065   */\n      dup4\n        /* \"#utility.yul\":2056:2057   */\n      dup2\n        /* \"#utility.yul\":2053:2066   */\n      lt\n        /* \"#utility.yul\":2034:2318   */\n      iszero\n      tag_81\n      jumpi\n        /* \"#utility.yul\":2135:2141   */\n      dup2\n        /* \"#utility.yul\":2129:2142   */\n      mload\n        /* \"#utility.yul\":2162:2225   */\n      tag_82\n        /* \"#utility.yul\":2221:2224   */\n      dup9\n        /* \"#utility.yul\":2206:2219   */\n      dup3\n        /* \"#utility.yul\":2162:2225   */\n      tag_57\n      jump\t// in\n    tag_82:\n        /* \"#utility.yul\":2155:2225   */\n      swap8\n      pop\n        /* \"#utility.yul\":2248:2308   */\n      tag_83\n        /* \"#utility.yul\":2301:2307   */\n      dup4\n        /* \"#utility.yul\":2248:2308   */\n      tag_84\n      jump\t// in\n    tag_83:\n        /* \"#utility.yul\":2238:2308   */\n      swap3\n      pop\n        /* \"#utility.yul\":2094:2318   */\n      pop\n        /* \"#utility.yul\":2081:2082   */\n      0x01\n        /* \"#utility.yul\":2078:2079   */\n      dup2\n        /* \"#utility.yul\":2074:2083   */\n      add\n        /* \"#utility.yul\":2069:2083   */\n      swap1\n      pop\n        /* \"#utility.yul\":2034:2318   */\n      jump(tag_79)\n    tag_81:\n        /* \"#utility.yul\":2038:2052   */\n      pop\n        /* \"#utility.yul\":2334:2337   */\n      dup6\n        /* \"#utility.yul\":2327:2337   */\n      swap4\n      pop\n        /* \"#utility.yul\":1735:2343   */\n      pop\n      pop\n      pop\n      swap3\n      swap2\n      pop\n      pop\n      jump\t// out\n        /* \"#utility.yul\":2349:2458   */\n    tag_85:\n        /* \"#utility.yul\":2430:2451   */\n      tag_87\n        /* \"#utility.yul\":2445:2450   */\n      dup2\n        /* \"#utility.yul\":2430:2451   */\n      tag_88\n      jump\t// in\n    tag_87:\n        /* \"#utility.yul\":2425:2428   */\n      dup3\n        /* \"#utility.yul\":2418:2452   */\n      mstore\n        /* \"#utility.yul\":2408:2458   */\n      pop\n      pop\n      jump\t// out\n        /* \"#utility.yul\":2464:2582   */\n    tag_89:\n        /* \"#utility.yul\":2551:2575   */\n      tag_91\n        /* \"#utility.yul\":2569:2574   */\n      dup2\n        /* \"#utility.yul\":2551:2575   */\n      tag_92\n      jump\t// in\n    tag_91:\n        /* \"#utility.yul\":2546:2549   */\n      dup3\n        /* \"#utility.yul\":2539:2576   */\n      mstore\n        /* \"#utility.yul\":2529:2582   */\n      pop\n      pop\n      jump\t// out\n        /* \"#utility.yul\":2588:2810   */\n    tag_27:\n      0x00\n        /* \"#utility.yul\":2719:2721   */\n      0x20\n        /* \"#utility.yul\":2708:2717   */\n      dup3\n        /* \"#utility.yul\":2704:2722   */\n      add\n        /* \"#utility.yul\":2696:2722   */\n      swap1\n      pop\n        /* \"#utility.yul\":2732:2803   */\n      tag_94\n        /* \"#utility.yul\":2800:2801   */\n      0x00\n        /* \"#utility.yul\":2789:2798   */\n      dup4\n        /* \"#utility.yul\":2785:2802   */\n      add\n        /* \"#utility.yul\":2776:2782   */\n      dup5\n        /* \"#utility.yul\":2732:2803   */\n      tag_68\n      jump\t// in\n    tag_94:\n        /* \"#utility.yul\":2686:2810   */\n      swap3\n      swap2\n      pop\n      pop\n      jump\t// out\n        /* \"#utility.yul\":2816:3189   */\n    tag_34:\n      0x00\n        /* \"#utility.yul\":2997:2999   */\n      0x20\n        /* \"#utility.yul\":2986:2995   */\n      dup3\n        /* \"#utility.yul\":2982:3000   */\n      add\n        /* \"#utility.yul\":2974:3000   */\n      swap1\n      pop\n        /* \"#utility.yul\":3046:3055   */\n      dup2\n        /* \"#utility.yul\":3040:3044   */\n      dup2\n        /* \"#utility.yul\":3036:3056   */\n      sub\n        /* \"#utility.yul\":3032:3033   */\n      0x00\n        /* \"#utility.yul\":3021:3030   */\n      dup4\n        /* \"#utility.yul\":3017:3034   */\n      add\n        /* \"#utility.yul\":3010:3057   */\n      mstore\n        /* \"#utility.yul\":3074:3182   */\n      tag_96\n        /* \"#utility.yul\":3177:3181   */\n      dup2\n        /* \"#utility.yul\":3168:3174   */\n      dup5\n        /* \"#utility.yul\":3074:3182   */\n      tag_71\n      jump\t// in\n    tag_96:\n        /* \"#utility.yul\":3066:3182   */\n      swap1\n      pop\n        /* \"#utility.yul\":2964:3189   */\n      swap3\n      swap2\n      pop\n      pop\n      jump\t// out\n        /* \"#utility.yul\":3195:3417   */\n    tag_16:\n      0x00\n        /* \"#utility.yul\":3326:3328   */\n      0x20\n        /* \"#utility.yul\":3315:3324   */\n      dup3\n        /* \"#utility.yul\":3311:3329   */\n      add\n        /* \"#utility.yul\":3303:3329   */\n      swap1\n      pop\n        /* \"#utility.yul\":3339:3410   */\n      tag_98\n        /* \"#utility.yul\":3407:3408   */\n      0x00\n        /* \"#utility.yul\":3396:3405   */\n      dup4\n        /* \"#utility.yul\":3392:3409   */\n      add\n        /* \"#utility.yul\":3383:3389   */\n      dup5\n        /* \"#utility.yul\":3339:3410   */\n      tag_89\n      jump\t// in\n    tag_98:\n        /* \"#utility.yul\":3293:3417   */\n      swap3\n      swap2\n      pop\n      pop\n      jump\t// out\n        /* \"#utility.yul\":3423:4107   */\n    tag_22:\n      0x00\n        /* \"#utility.yul\":3676:3679   */\n      0xa0\n        /* \"#utility.yul\":3665:3674   */\n      dup3\n        /* \"#utility.yul\":3661:3680   */\n      add\n        /* \"#utility.yul\":3653:3680   */\n      swap1\n      pop\n        /* \"#utility.yul\":3690:3761   */\n      tag_100\n        /* \"#utility.yul\":3758:3759   */\n      0x00\n        /* \"#utility.yul\":3747:3756   */\n      dup4\n        /* \"#utility.yul\":3743:3760   */\n      add\n        /* \"#utility.yul\":3734:3740   */\n      dup9\n        /* \"#utility.yul\":3690:3761   */\n      tag_89\n      jump\t// in\n    tag_100:\n        /* \"#utility.yul\":3771:3843   */\n      tag_101\n        /* \"#utility.yul\":3839:3841   */\n      0x20\n        /* \"#utility.yul\":3828:3837   */\n      dup4\n        /* \"#utility.yul\":3824:3842   */\n      add\n        /* \"#utility.yul\":3815:3821   */\n      dup8\n        /* \"#utility.yul\":3771:3843   */\n      tag_89\n      jump\t// in\n    tag_101:\n        /* \"#utility.yul\":3853:3941   */\n      tag_102\n        /* \"#utility.yul\":3937:3939   */\n      0x40\n        /* \"#utility.yul\":3926:3935   */\n      dup4\n        /* \"#utility.yul\":3922:3940   */\n      add\n        /* \"#utility.yul\":3913:3919   */\n      dup7\n        /* \"#utility.yul\":3853:3941   */\n      tag_61\n      jump\t// in\n    tag_102:\n        /* \"#utility.yul\":3951:4023   */\n      tag_103\n        /* \"#utility.yul\":4019:4021   */\n      0x60\n        /* \"#utility.yul\":4008:4017   */\n      dup4\n        /* \"#utility.yul\":4004:4022   */\n      add\n        /* \"#utility.yul\":3995:4001   */\n      dup6\n        /* \"#utility.yul\":3951:4023   */\n      tag_89\n      jump\t// in\n    tag_103:\n        /* \"#utility.yul\":4033:4100   */\n      tag_104\n        /* \"#utility.yul\":4095:4098   */\n      0x80\n        /* \"#utility.yul\":4084:4093   */\n      dup4\n        /* \"#utility.yul\":4080:4099   */\n      add\n        /* \"#utility.yul\":4071:4077   */\n      dup5\n        /* \"#utility.yul\":4033:4100   */\n      tag_85\n      jump\t// in\n    tag_104:\n        /* \"#utility.yul\":3643:4107   */\n      swap7\n      swap6\n      pop\n      pop\n      pop\n      pop\n      pop\n      pop\n      jump\t// out\n        /* \"#utility.yul\":4113:4245   */\n    tag_78:\n      0x00\n        /* \"#utility.yul\":4203:4206   */\n      dup2\n        /* \"#utility.yul\":4195:4206   */\n      swap1\n      pop\n        /* \"#utility.yul\":4233:4237   */\n      0x20\n        /* \"#utility.yul\":4228:4231   */\n      dup3\n        /* \"#utility.yul\":4224:4238   */\n      add\n        /* \"#utility.yul\":4216:4238   */\n      swap1\n      pop\n        /* \"#utility.yul\":4185:4245   */\n      swap2\n      swap1\n      pop\n      jump\t// out\n        /* \"#utility.yul\":4251:4365   */\n    tag_74:\n      0x00\n        /* \"#utility.yul\":4352:4357   */\n      dup2\n        /* \"#utility.yul\":4346:4358   */\n      mload\n        /* \"#utility.yul\":4336:4358   */\n      swap1\n      pop\n        /* \"#utility.yul\":4325:4365   */\n      swap2\n      swap1\n      pop\n      jump\t// out\n        /* \"#utility.yul\":4371:4484   */\n    tag_84:\n      0x00\n        /* \"#utility.yul\":4473:4477   */\n      0x20\n        /* \"#utility.yul\":4468:4471   */\n      dup3\n        /* \"#utility.yul\":4464:4478   */\n      add\n        /* \"#utility.yul\":4456:4478   */\n      swap1\n      pop\n        /* \"#utility.yul\":4446:4484   */\n      swap2\n      swap1\n      pop\n      jump\t// out\n        /* \"#utility.yul\":4490:4674   */\n    tag_76:\n      0x00\n        /* \"#utility.yul\":4623:4629   */\n      dup3\n        /* \"#utility.yul\":4618:4621   */\n      dup3\n        /* \"#utility.yul\":4611:4630   */\n      mstore\n        /* \"#utility.yul\":4663:4667   */\n      0x20\n        /* \"#utility.yul\":4658:4661   */\n      dup3\n        /* \"#utility.yul\":4654:4668   */\n      add\n        /* \"#utility.yul\":4639:4668   */\n      swap1\n      pop\n        /* \"#utility.yul\":4601:4674   */\n      swap3\n      swap2\n      pop\n      pop\n      jump\t// out\n        /* \"#utility.yul\":4680:4776   */\n    tag_67:\n      0x00\n        /* \"#utility.yul\":4746:4770   */\n      tag_110\n        /* \"#utility.yul\":4764:4769   */\n      dup3\n        /* \"#utility.yul\":4746:4770   */\n      tag_111\n      jump\t// in\n    tag_110:\n        /* \"#utility.yul\":4735:4770   */\n      swap1\n      pop\n        /* \"#utility.yul\":4725:4776   */\n      swap2\n      swap1\n      pop\n      jump\t// out\n        /* \"#utility.yul\":4782:4886   */\n    tag_64:\n      0x00\n        /* \"#utility.yul\":4856:4880   */\n      tag_113\n        /* \"#utility.yul\":4874:4879   */\n      dup3\n        /* \"#utility.yul\":4856:4880   */\n      tag_111\n      jump\t// in\n    tag_113:\n        /* \"#utility.yul\":4845:4880   */\n      swap1\n      pop\n        /* \"#utility.yul\":4835:4886   */\n      swap2\n      swap1\n      pop\n      jump\t// out\n        /* \"#utility.yul\":4892:4982   */\n    tag_88:\n      0x00\n        /* \"#utility.yul\":4969:4974   */\n      dup2\n        /* \"#utility.yul\":4962:4975   */\n      iszero\n        /* \"#utility.yul\":4955:4976   */\n      iszero\n        /* \"#utility.yul\":4944:4976   */\n      swap1\n      pop\n        /* \"#utility.yul\":4934:4982   */\n      swap2\n      swap1\n      pop\n      jump\t// out\n        /* \"#utility.yul\":4988:5114   */\n    tag_111:\n      0x00\n        /* \"#utility.yul\":5065:5107   */\n      0xffffffffffffffffffffffffffffffffffffffff\n        /* \"#utility.yul\":5058:5063   */\n      dup3\n        /* \"#utility.yul\":5054:5108   */\n      and\n        /* \"#utility.yul\":5043:5108   */\n      swap1\n      pop\n        /* \"#utility.yul\":5033:5114   */\n      swap2\n      swap1\n      pop\n      jump\t// out\n        /* \"#utility.yul\":5120:5197   */\n    tag_92:\n      0x00\n        /* \"#utility.yul\":5186:5191   */\n      dup2\n        /* \"#utility.yul\":5175:5191   */\n      swap1\n      pop\n        /* \"#utility.yul\":5165:5197   */\n      swap2\n      swap1\n      pop\n      jump\t// out\n        /* \"#utility.yul\":5203:5341   */\n    tag_45:\n        /* \"#utility.yul\":5284:5316   */\n      tag_118\n        /* \"#utility.yul\":5310:5315   */\n      dup2\n        /* \"#utility.yul\":5284:5316   */\n      tag_64\n      jump\t// in\n    tag_118:\n        /* \"#utility.yul\":5277:5282   */\n      dup2\n        /* \"#utility.yul\":5274:5317   */\n      eq\n        /* \"#utility.yul\":5264:5266   */\n      tag_119\n      jumpi\n        /* \"#utility.yul\":5331:5332   */\n      0x00\n        /* \"#utility.yul\":5328:5329   */\n      dup1\n        /* \"#utility.yul\":5321:5333   */\n      revert\n        /* \"#utility.yul\":5264:5266   */\n    tag_119:\n        /* \"#utility.yul\":5254:5341   */\n      pop\n      jump\t// out\n        /* \"#utility.yul\":5347:5469   */\n    tag_49:\n        /* \"#utility.yul\":5420:5444   */\n      tag_121\n        /* \"#utility.yul\":5438:5443   */\n      dup2\n        /* \"#utility.yul\":5420:5444   */\n      tag_92\n      jump\t// in\n    tag_121:\n        /* \"#utility.yul\":5413:5418   */\n      dup2\n        /* \"#utility.yul\":5410:5445   */\n      eq\n        /* \"#utility.yul\":5400:5402   */\n      tag_122\n      jumpi\n        /* \"#utility.yul\":5459:5460   */\n      0x00\n        /* \"#utility.yul\":5456:5457   */\n      dup1\n        /* \"#utility.yul\":5449:5461   */\n      revert\n        /* \"#utility.yul\":5400:5402   */\n    tag_122:\n        /* \"#utility.yul\":5390:5469   */\n      pop\n      jump\t// out\n\n    auxdata: 0xa264697066735822122004c9f4e32074b87c640885677db2a61b9863a33ab18f6fc10ccd4927d5bc7a7764736f6c63430008000033\n}\n",
				"bytecode": {
					"linkReferences": {},
					"object": "60806040523480156200001157600080fd5b506040516200099e3803806200099e8339818101604052810190620000379190620001dd565b81600090805190602001906200004f9291906200005f565b508060018190555050506200033b565b828054828255906000526020600020908101928215620000db579160200282015b82811115620000da5782518260006101000a81548173ffffffffffffffffffffffffffffffffffffffff021916908373ffffffffffffffffffffffffffffffffffffffff1602179055509160200191906001019062000080565b5b509050620000ea9190620000ee565b5090565b5b8082111562000109576000816000905550600101620000ef565b5090565b6000620001246200011e846200026b565b62000237565b905080838252602082019050828560208602820111156200014457600080fd5b60005b858110156200017857816200015d888262000182565b84526020840193506020830192505060018101905062000147565b5050509392505050565b600081519050620001938162000307565b92915050565b600082601f830112620001ab57600080fd5b8151620001bd8482602086016200010d565b91505092915050565b600081519050620001d78162000321565b92915050565b60008060408385031215620001f157600080fd5b600083015167ffffffffffffffff8111156200020c57600080fd5b6200021a8582860162000199565b92505060206200022d85828601620001c6565b9150509250929050565b6000604051905081810181811067ffffffffffffffff82111715620002615762000260620002d8565b5b8060405250919050565b600067ffffffffffffffff821115620002895762000288620002d8565b5b602082029050602081019050919050565b6000620002a782620002ae565b9050919050565b600073ffffffffffffffffffffffffffffffffffffffff82169050919050565b6000819050919050565b7f4e487b7100000000000000000000000000000000000000000000000000000000600052604160045260246000fd5b62000312816200029a565b81146200031e57600080fd5b50565b6200032c81620002ce565b81146200033857600080fd5b50565b610653806200034b6000396000f3fe608060405234801561001057600080fd5b50600436106100625760003560e01c806301d9c112146100675780631703a018146100835780639377d711146100a1578063d3650fb8146100d5578063e31bfa0014610105578063e90af37614610123575b600080fd5b610081600480360381019061007c91906103b4565b610141565b005b61008b610225565b60405161009891906104ee565b60405180910390f35b6100bb60048036038101906100b6919061038b565b61022b565b6040516100cc959493929190610509565b60405180910390f35b6100ef60048036038101906100ea919061038b565b61028e565b6040516100fc91906104b1565b60405180910390f35b61010d6102cd565b60405161011a91906104ee565b60405180910390f35b61012b6102d3565b60405161013891906104cc565b60405180910390f35b6040518060a0016040528060035481526020018381526020018273ffffffffffffffffffffffffffffffffffffffff1681526020016000815260200160001515815250600260006003548152602001908152602001600020600082015181600001556020820151816001015560408201518160020160006101000a81548173ffffffffffffffffffffffffffffffffffffffff021916908373ffffffffffffffffffffffffffffffffffffffff1602179055506060820151816003015560808201518160040160006101000a81548160ff0219169083151502179055509050505050565b60015481565b60026020528060005260406000206000915090508060000154908060010154908060020160009054906101000a900473ffffffffffffffffffffffffffffffffffffffff16908060030154908060040160009054906101000a900460ff16905085565b6000818154811061029e57600080fd5b906000526020600020016000915054906101000a900473ffffffffffffffffffffffffffffffffffffffff1681565b60035481565b6060600080548060200260200160405190810160405280929190818152602001828054801561035757602002820191906000526020600020905b8160009054906101000a900473ffffffffffffffffffffffffffffffffffffffff1673ffffffffffffffffffffffffffffffffffffffff168152602001906001019080831161030d575b5050505050905090565b600081359050610370816105ef565b92915050565b60008135905061038581610606565b92915050565b60006020828403121561039d57600080fd5b60006103ab84828501610376565b91505092915050565b600080604083850312156103c757600080fd5b60006103d585828601610376565b92505060206103e685828601610361565b9150509250929050565b60006103fc8383610417565b60208301905092915050565b610411816105a7565b82525050565b61042081610595565b82525050565b61042f81610595565b82525050565b60006104408261056c565b61044a8185610584565b93506104558361055c565b8060005b8381101561048657815161046d88826103f0565b975061047883610577565b925050600181019050610459565b5085935050505092915050565b61049c816105b9565b82525050565b6104ab816105e5565b82525050565b60006020820190506104c66000830184610426565b92915050565b600060208201905081810360008301526104e68184610435565b905092915050565b600060208201905061050360008301846104a2565b92915050565b600060a08201905061051e60008301886104a2565b61052b60208301876104a2565b6105386040830186610408565b61054560608301856104a2565b6105526080830184610493565b9695505050505050565b6000819050602082019050919050565b600081519050919050565b6000602082019050919050565b600082825260208201905092915050565b60006105a0826105c5565b9050919050565b60006105b2826105c5565b9050919050565b60008115159050919050565b600073ffffffffffffffffffffffffffffffffffffffff82169050919050565b6000819050919050565b6105f8816105a7565b811461060357600080fd5b50565b61060f816105e5565b811461061a57600080fd5b5056fea264697066735822122004c9f4e32074b87c640885677db2a61b9863a33ab18f6fc10ccd4927d5bc7a7764736f6c63430008000033",
					"opcodes": "PUSH1 0x80 PUSH1 0x40 MSTORE CALLVALUE DUP1 ISZERO PUSH3 0x11 JUMPI PUSH1 0x0 DUP1 REVERT JUMPDEST POP PUSH1 0x40 MLOAD PUSH3 0x99E CODESIZE SUB DUP1 PUSH3 0x99E DUP4 CODECOPY DUP2 DUP2 ADD PUSH1 0x40 MSTORE DUP2 ADD SWAP1 PUSH3 0x37 SWAP2 SWAP1 PUSH3 0x1DD JUMP JUMPDEST DUP2 PUSH1 0x0 SWAP1 DUP1 MLOAD SWAP1 PUSH1 0x20 ADD SWAP1 PUSH3 0x4F SWAP3 SWAP2 SWAP1 PUSH3 0x5F JUMP JUMPDEST POP DUP1 PUSH1 0x1 DUP2 SWAP1 SSTORE POP POP POP PUSH3 0x33B JUMP JUMPDEST DUP3 DUP1 SLOAD DUP3 DUP3 SSTORE SWAP1 PUSH1 0x0 MSTORE PUSH1 0x20 PUSH1 0x0 KECCAK256 SWAP1 DUP2 ADD SWAP3 DUP3 ISZERO PUSH3 0xDB JUMPI SWAP2 PUSH1 0x20 MUL DUP3 ADD JUMPDEST DUP3 DUP2 GT ISZERO PUSH3 0xDA JUMPI DUP3 MLOAD DUP3 PUSH1 0x0 PUSH2 0x100 EXP DUP2 SLOAD DUP2 PUSH20 0xFFFFFFFFFFFFFFFFFFFFFFFFFFFFFFFFFFFFFFFF MUL NOT AND SWAP1 DUP4 PUSH20 0xFFFFFFFFFFFFFFFFFFFFFFFFFFFFFFFFFFFFFFFF AND MUL OR SWAP1 SSTORE POP SWAP2 PUSH1 0x20 ADD SWAP2 SWAP1 PUSH1 0x1 ADD SWAP1 PUSH3 0x80 JUMP JUMPDEST JUMPDEST POP SWAP1 POP PUSH3 0xEA SWAP2 SWAP1 PUSH3 0xEE JUMP JUMPDEST POP SWAP1 JUMP JUMPDEST JUMPDEST DUP1 DUP3 GT ISZERO PUSH3 0x109 JUMPI PUSH1 0x0 DUP2 PUSH1 0x0 SWAP1 SSTORE POP PUSH1 0x1 ADD PUSH3 0xEF JUMP JUMPDEST POP SWAP1 JUMP JUMPDEST PUSH1 0x0 PUSH3 0x124 PUSH3 0x11E DUP5 PUSH3 0x26B JUMP JUMPDEST PUSH3 0x237 JUMP JUMPDEST SWAP1 POP DUP1 DUP4 DUP3 MSTORE PUSH1 0x20 DUP3 ADD SWAP1 POP DUP3 DUP6 PUSH1 0x20 DUP7 MUL DUP3 ADD GT ISZERO PUSH3 0x144 JUMPI PUSH1 0x0 DUP1 REVERT JUMPDEST PUSH1 0x0 JUMPDEST DUP6 DUP2 LT ISZERO PUSH3 0x178 JUMPI DUP2 PUSH3 0x15D DUP9 DUP3 PUSH3 0x182 JUMP JUMPDEST DUP5 MSTORE PUSH1 0x20 DUP5 ADD SWAP4 POP PUSH1 0x20 DUP4 ADD SWAP3 POP POP PUSH1 0x1 DUP2 ADD SWAP1 POP PUSH3 0x147 JUMP JUMPDEST POP POP POP SWAP4 SWAP3 POP POP POP JUMP JUMPDEST PUSH1 0x0 DUP2 MLOAD SWAP1 POP PUSH3 0x193 DUP2 PUSH3 0x307 JUMP JUMPDEST SWAP3 SWAP2 POP POP JUMP JUMPDEST PUSH1 0x0 DUP3 PUSH1 0x1F DUP4 ADD SLT PUSH3 0x1AB JUMPI PUSH1 0x0 DUP1 REVERT JUMPDEST DUP2 MLOAD PUSH3 0x1BD DUP5 DUP3 PUSH1 0x20 DUP7 ADD PUSH3 0x10D JUMP JUMPDEST SWAP2 POP POP SWAP3 SWAP2 POP POP JUMP JUMPDEST PUSH1 0x0 DUP2 MLOAD SWAP1 POP PUSH3 0x1D7 DUP2 PUSH3 0x321 JUMP JUMPDEST SWAP3 SWAP2 POP POP JUMP JUMPDEST PUSH1 0x0 DUP1 PUSH1 0x40 DUP4 DUP6 SUB SLT ISZERO PUSH3 0x1F1 JUMPI PUSH1 0x0 DUP1 REVERT JUMPDEST PUSH1 0x0 DUP4 ADD MLOAD PUSH8 0xFFFFFFFFFFFFFFFF DUP2 GT ISZERO PUSH3 0x20C JUMPI PUSH1 0x0 DUP1 REVERT JUMPDEST PUSH3 0x21A DUP6 DUP3 DUP7 ADD PUSH3 0x199 JUMP JUMPDEST SWAP3 POP POP PUSH1 0x20 PUSH3 0x22D DUP6 DUP3 DUP7 ADD PUSH3 0x1C6 JUMP JUMPDEST SWAP2 POP POP SWAP3 POP SWAP3 SWAP1 POP JUMP JUMPDEST PUSH1 0x0 PUSH1 0x40 MLOAD SWAP1 POP DUP2 DUP2 ADD DUP2 DUP2 LT PUSH8 0xFFFFFFFFFFFFFFFF DUP3 GT OR ISZERO PUSH3 0x261 JUMPI PUSH3 0x260 PUSH3 0x2D8 JUMP JUMPDEST JUMPDEST DUP1 PUSH1 0x40 MSTORE POP SWAP2 SWAP1 POP JUMP JUMPDEST PUSH1 0x0 PUSH8 0xFFFFFFFFFFFFFFFF DUP3 GT ISZERO PUSH3 0x289 JUMPI PUSH3 0x288 PUSH3 0x2D8 JUMP JUMPDEST JUMPDEST PUSH1 0x20 DUP3 MUL SWAP1 POP PUSH1 0x20 DUP2 ADD SWAP1 POP SWAP2 SWAP1 POP JUMP JUMPDEST PUSH1 0x0 PUSH3 0x2A7 DUP3 PUSH3 0x2AE JUMP JUMPDEST SWAP1 POP SWAP2 SWAP1 POP JUMP JUMPDEST PUSH1 0x0 PUSH20 0xFFFFFFFFFFFFFFFFFFFFFFFFFFFFFFFFFFFFFFFF DUP3 AND SWAP1 POP SWAP2 SWAP1 POP JUMP JUMPDEST PUSH1 0x0 DUP2 SWAP1 POP SWAP2 SWAP1 POP JUMP JUMPDEST PUSH32 0x4E487B7100000000000000000000000000000000000000000000000000000000 PUSH1 0x0 MSTORE PUSH1 0x41 PUSH1 0x4 MSTORE PUSH1 0x24 PUSH1 0x0 REVERT JUMPDEST PUSH3 0x312 DUP2 PUSH3 0x29A JUMP JUMPDEST DUP2 EQ PUSH3 0x31E JUMPI PUSH1 0x0 DUP1 REVERT JUMPDEST POP JUMP JUMPDEST PUSH3 0x32C DUP2 PUSH3 0x2CE JUMP JUMPDEST DUP2 EQ PUSH3 0x338 JUMPI PUSH1 0x0 DUP1 REVERT JUMPDEST POP JUMP JUMPDEST PUSH2 0x653 DUP1 PUSH3 0x34B PUSH1 0x0 CODECOPY PUSH1 0x0 RETURN INVALID PUSH1 0x80 PUSH1 0x40 MSTORE CALLVALUE DUP1 ISZERO PUSH2 0x10 JUMPI PUSH1 0x0 DUP1 REVERT JUMPDEST POP PUSH1 0x4 CALLDATASIZE LT PUSH2 0x62 JUMPI PUSH1 0x0 CALLDATALOAD PUSH1 0xE0 SHR DUP1 PUSH4 0x1D9C112 EQ PUSH2 0x67 JUMPI DUP1 PUSH4 0x1703A018 EQ PUSH2 0x83 JUMPI DUP1 PUSH4 0x9377D711 EQ PUSH2 0xA1 JUMPI DUP1 PUSH4 0xD3650FB8 EQ PUSH2 0xD5 JUMPI DUP1 PUSH4 0xE31BFA00 EQ PUSH2 0x105 JUMPI DUP1 PUSH4 0xE90AF376 EQ PUSH2 0x123 JUMPI JUMPDEST PUSH1 0x0 DUP1 REVERT JUMPDEST PUSH2 0x81 PUSH1 0x4 DUP1 CALLDATASIZE SUB DUP2 ADD SWAP1 PUSH2 0x7C SWAP2 SWAP1 PUSH2 0x3B4 JUMP JUMPDEST PUSH2 0x141 JUMP JUMPDEST STOP JUMPDEST PUSH2 0x8B PUSH2 0x225 JUMP JUMPDEST PUSH1 0x40 MLOAD PUSH2 0x98 SWAP2 SWAP1 PUSH2 0x4EE JUMP JUMPDEST PUSH1 0x40 MLOAD DUP1 SWAP2 SUB SWAP1 RETURN JUMPDEST PUSH2 0xBB PUSH1 0x4 DUP1 CALLDATASIZE SUB DUP2 ADD SWAP1 PUSH2 0xB6 SWAP2 SWAP1 PUSH2 0x38B JUMP JUMPDEST PUSH2 0x22B JUMP JUMPDEST PUSH1 0x40 MLOAD PUSH2 0xCC SWAP6 SWAP5 SWAP4 SWAP3 SWAP2 SWAP1 PUSH2 0x509 JUMP JUMPDEST PUSH1 0x40 MLOAD DUP1 SWAP2 SUB SWAP1 RETURN JUMPDEST PUSH2 0xEF PUSH1 0x4 DUP1 CALLDATASIZE SUB DUP2 ADD SWAP1 PUSH2 0xEA SWAP2 SWAP1 PUSH2 0x38B JUMP JUMPDEST PUSH2 0x28E JUMP JUMPDEST PUSH1 0x40 MLOAD PUSH2 0xFC SWAP2 SWAP1 PUSH2 0x4B1 JUMP JUMPDEST PUSH1 0x40 MLOAD DUP1 SWAP2 SUB SWAP1 RETURN JUMPDEST PUSH2 0x10D PUSH2 0x2CD JUMP JUMPDEST PUSH1 0x40 MLOAD PUSH2 0x11A SWAP2 SWAP1 PUSH2 0x4EE JUMP JUMPDEST PUSH1 0x40 MLOAD DUP1 SWAP2 SUB SWAP1 RETURN JUMPDEST PUSH2 0x12B PUSH2 0x2D3 JUMP JUMPDEST PUSH1 0x40 MLOAD PUSH2 0x138 SWAP2 SWAP1 PUSH2 0x4CC JUMP JUMPDEST PUSH1 0x40 MLOAD DUP1 SWAP2 SUB SWAP1 RETURN JUMPDEST PUSH1 0x40 MLOAD DUP1 PUSH1 0xA0 ADD PUSH1 0x40 MSTORE DUP1 PUSH1 0x3 SLOAD DUP2 MSTORE PUSH1 0x20 ADD DUP4 DUP2 MSTORE PUSH1 0x20 ADD DUP3 PUSH20 0xFFFFFFFFFFFFFFFFFFFFFFFFFFFFFFFFFFFFFFFF AND DUP2 MSTORE PUSH1 0x20 ADD PUSH1 0x0 DUP2 MSTORE PUSH1 0x20 ADD PUSH1 0x0 ISZERO ISZERO DUP2 MSTORE POP PUSH1 0x2 PUSH1 0x0 PUSH1 0x3 SLOAD DUP2 MSTORE PUSH1 0x20 ADD SWAP1 DUP2 MSTORE PUSH1 0x20 ADD PUSH1 0x0 KECCAK256 PUSH1 0x0 DUP3 ADD MLOAD DUP2 PUSH1 0x0 ADD SSTORE PUSH1 0x20 DUP3 ADD MLOAD DUP2 PUSH1 0x1 ADD SSTORE PUSH1 0x40 DUP3 ADD MLOAD DUP2 PUSH1 0x2 ADD PUSH1 0x0 PUSH2 0x100 EXP DUP2 SLOAD DUP2 PUSH20 0xFFFFFFFFFFFFFFFFFFFFFFFFFFFFFFFFFFFFFFFF MUL NOT AND SWAP1 DUP4 PUSH20 0xFFFFFFFFFFFFFFFFFFFFFFFFFFFFFFFFFFFFFFFF AND MUL OR SWAP1 SSTORE POP PUSH1 0x60 DUP3 ADD MLOAD DUP2 PUSH1 0x3 ADD SSTORE PUSH1 0x80 DUP3 ADD MLOAD DUP2 PUSH1 0x4 ADD PUSH1 0x0 PUSH2 0x100 EXP DUP2 SLOAD DUP2 PUSH1 0xFF MUL NOT AND SWAP1 DUP4 ISZERO ISZERO MUL OR SWAP1 SSTORE POP SWAP1 POP POP POP POP JUMP JUMPDEST PUSH1 0x1 SLOAD DUP2 JUMP JUMPDEST PUSH1 0x2 PUSH1 0x20 MSTORE DUP1 PUSH1 0x0 MSTORE PUSH1 0x40 PUSH1 0x0 KECCAK256 PUSH1 0x0 SWAP2 POP SWAP1 POP DUP1 PUSH1 0x0 ADD SLOAD SWAP1 DUP1 PUSH1 0x1 ADD SLOAD SWAP1 DUP1 PUSH1 0x2 ADD PUSH1 0x0 SWAP1 SLOAD SWAP1 PUSH2 0x100 EXP SWAP1 DIV PUSH20 0xFFFFFFFFFFFFFFFFFFFFFFFFFFFFFFFFFFFFFFFF AND SWAP1 DUP1 PUSH1 0x3 ADD SLOAD SWAP1 DUP1 PUSH1 0x4 ADD PUSH1 0x0 SWAP1 SLOAD SWAP1 PUSH2 0x100 EXP SWAP1 DIV PUSH1 0xFF AND SWAP1 POP DUP6 JUMP JUMPDEST PUSH1 0x0 DUP2 DUP2 SLOAD DUP2 LT PUSH2 0x29E JUMPI PUSH1 0x0 DUP1 REVERT JUMPDEST SWAP1 PUSH1 0x0 MSTORE PUSH1 0x20 PUSH1 0x0 KECCAK256 ADD PUSH1 0x0 SWAP2 POP SLOAD SWAP1 PUSH2 0x100 EXP SWAP1 DIV PUSH20 0xFFFFFFFFFFFFFFFFFFFFFFFFFFFFFFFFFFFFFFFF AND DUP2 JUMP JUMPDEST PUSH1 0x3 SLOAD DUP2 JUMP JUMPDEST PUSH1 0x60 PUSH1 0x0 DUP1 SLOAD DUP1 PUSH1 0x20 MUL PUSH1 0x20 ADD PUSH1 0x40 MLOAD SWAP1 DUP2 ADD PUSH1 0x40 MSTORE DUP1 SWAP3 SWAP2 SWAP1 DUP2 DUP2 MSTORE PUSH1 0x20 ADD DUP3 DUP1 SLOAD DUP1 ISZERO PUSH2 0x357 JUMPI PUSH1 0x20 MUL DUP3 ADD SWAP2 SWAP1 PUSH1 0x0 MSTORE PUSH1 0x20 PUSH1 0x0 KECCAK256 SWAP1 JUMPDEST DUP2 PUSH1 0x0 SWAP1 SLOAD SWAP1 PUSH2 0x100 EXP SWAP1 DIV PUSH20 0xFFFFFFFFFFFFFFFFFFFFFFFFFFFFFFFFFFFFFFFF AND PUSH20 0xFFFFFFFFFFFFFFFFFFFFFFFFFFFFFFFFFFFFFFFF AND DUP2 MSTORE PUSH1 0x20 ADD SWAP1 PUSH1 0x1 ADD SWAP1 DUP1 DUP4 GT PUSH2 0x30D JUMPI JUMPDEST POP POP POP POP POP SWAP1 POP SWAP1 JUMP JUMPDEST PUSH1 0x0 DUP2 CALLDATALOAD SWAP1 POP PUSH2 0x370 DUP2 PUSH2 0x5EF JUMP JUMPDEST SWAP3 SWAP2 POP POP JUMP JUMPDEST PUSH1 0x0 DUP2 CALLDATALOAD SWAP1 POP PUSH2 0x385 DUP2 PUSH2 0x606 JUMP JUMPDEST SWAP3 SWAP2 POP POP JUMP JUMPDEST PUSH1 0x0 PUSH1 0x20 DUP3 DUP5 SUB SLT ISZERO PUSH2 0x39D JUMPI PUSH1 0x0 DUP1 REVERT JUMPDEST PUSH1 0x0 PUSH2 0x3AB DUP5 DUP3 DUP6 ADD PUSH2 0x376 JUMP JUMPDEST SWAP2 POP POP SWAP3 SWAP2 POP POP JUMP JUMPDEST PUSH1 0x0 DUP1 PUSH1 0x40 DUP4 DUP6 SUB SLT ISZERO PUSH2 0x3C7 JUMPI PUSH1 0x0 DUP1 REVERT JUMPDEST PUSH1 0x0 PUSH2 0x3D5 DUP6 DUP3 DUP7 ADD PUSH2 0x376 JUMP JUMPDEST SWAP3 POP POP PUSH1 0x20 PUSH2 0x3E6 DUP6 DUP3 DUP7 ADD PUSH2 0x361 JUMP JUMPDEST SWAP2 POP POP SWAP3 POP SWAP3 SWAP1 POP JUMP JUMPDEST PUSH1 0x0 PUSH2 0x3FC DUP4 DUP4 PUSH2 0x417 JUMP JUMPDEST PUSH1 0x20 DUP4 ADD SWAP1 POP SWAP3 SWAP2 POP POP JUMP JUMPDEST PUSH2 0x411 DUP2 PUSH2 0x5A7 JUMP JUMPDEST DUP3 MSTORE POP POP JUMP JUMPDEST PUSH2 0x420 DUP2 PUSH2 0x595 JUMP JUMPDEST DUP3 MSTORE POP POP JUMP JUMPDEST PUSH2 0x42F DUP2 PUSH2 0x595 JUMP JUMPDEST DUP3 MSTORE POP POP JUMP JUMPDEST PUSH1 0x0 PUSH2 0x440 DUP3 PUSH2 0x56C JUMP JUMPDEST PUSH2 0x44A DUP2 DUP6 PUSH2 0x584 JUMP JUMPDEST SWAP4 POP PUSH2 0x455 DUP4 PUSH2 0x55C JUMP JUMPDEST DUP1 PUSH1 0x0 JUMPDEST DUP4 DUP2 LT ISZERO PUSH2 0x486 JUMPI DUP2 MLOAD PUSH2 0x46D DUP9 DUP3 PUSH2 0x3F0 JUMP JUMPDEST SWAP8 POP PUSH2 0x478 DUP4 PUSH2 0x577 JUMP JUMPDEST SWAP3 POP POP PUSH1 0x1 DUP2 ADD SWAP1 POP PUSH2 0x459 JUMP JUMPDEST POP DUP6 SWAP4 POP POP POP POP SWAP3 SWAP2 POP POP JUMP JUMPDEST PUSH2 0x49C DUP2 PUSH2 0x5B9 JUMP JUMPDEST DUP3 MSTORE POP POP JUMP JUMPDEST PUSH2 0x4AB DUP2 PUSH2 0x5E5 JUMP JUMPDEST DUP3 MSTORE POP POP JUMP JUMPDEST PUSH1 0x0 PUSH1 0x20 DUP3 ADD SWAP1 POP PUSH2 0x4C6 PUSH1 0x0 DUP4 ADD DUP5 PUSH2 0x426 JUMP JUMPDEST SWAP3 SWAP2 POP POP JUMP JUMPDEST PUSH1 0x0 PUSH1 0x20 DUP3 ADD SWAP1 POP DUP2 DUP2 SUB PUSH1 0x0 DUP4 ADD MSTORE PUSH2 0x4E6 DUP2 DUP5 PUSH2 0x435 JUMP JUMPDEST SWAP1 POP SWAP3 SWAP2 POP POP JUMP JUMPDEST PUSH1 0x0 PUSH1 0x20 DUP3 ADD SWAP1 POP PUSH2 0x503 PUSH1 0x0 DUP4 ADD DUP5 PUSH2 0x4A2 JUMP JUMPDEST SWAP3 SWAP2 POP POP JUMP JUMPDEST PUSH1 0x0 PUSH1 0xA0 DUP3 ADD SWAP1 POP PUSH2 0x51E PUSH1 0x0 DUP4 ADD DUP9 PUSH2 0x4A2 JUMP JUMPDEST PUSH2 0x52B PUSH1 0x20 DUP4 ADD DUP8 PUSH2 0x4A2 JUMP JUMPDEST PUSH2 0x538 PUSH1 0x40 DUP4 ADD DUP7 PUSH2 0x408 JUMP JUMPDEST PUSH2 0x545 PUSH1 0x60 DUP4 ADD DUP6 PUSH2 0x4A2 JUMP JUMPDEST PUSH2 0x552 PUSH1 0x80 DUP4 ADD DUP5 PUSH2 0x493 JUMP JUMPDEST SWAP7 SWAP6 POP POP POP POP POP POP JUMP JUMPDEST PUSH1 0x0 DUP2 SWAP1 POP PUSH1 0x20 DUP3 ADD SWAP1 POP SWAP2 SWAP1 POP JUMP JUMPDEST PUSH1 0x0 DUP2 MLOAD SWAP1 POP SWAP2 SWAP1 POP JUMP JUMPDEST PUSH1 0x0 PUSH1 0x20 DUP3 ADD SWAP1 POP SWAP2 SWAP1 POP JUMP JUMPDEST PUSH1 0x0 DUP3 DUP3 MSTORE PUSH1 0x20 DUP3 ADD SWAP1 POP SWAP3 SWAP2 POP POP JUMP JUMPDEST PUSH1 0x0 PUSH2 0x5A0 DUP3 PUSH2 0x5C5 JUMP JUMPDEST SWAP1 POP SWAP2 SWAP1 POP JUMP JUMPDEST PUSH1 0x0 PUSH2 0x5B2 DUP3 PUSH2 0x5C5 JUMP JUMPDEST SWAP1 POP SWAP2 SWAP1 POP JUMP JUMPDEST PUSH1 0x0 DUP2 ISZERO ISZERO SWAP1 POP SWAP2 SWAP1 POP JUMP JUMPDEST PUSH1 0x0 PUSH20 0xFFFFFFFFFFFFFFFFFFFFFFFFFFFFFFFFFFFFFFFF DUP3 AND SWAP1 POP SWAP2 SWAP1 POP JUMP JUMPDEST PUSH1 0x0 DUP2 SWAP1 POP SWAP2 SWAP1 POP JUMP JUMPDEST PUSH2 0x5F8 DUP2 PUSH2 0x5A7 JUMP JUMPDEST DUP2 EQ PUSH2 0x603 JUMPI PUSH1 0x0 DUP1 REVERT JUMPDEST POP JUMP JUMPDEST PUSH2 0x60F DUP2 PUSH2 0x5E5 JUMP JUMPDEST DUP2 EQ PUSH2 0x61A JUMPI PUSH1 0x0 DUP1 REVERT JUMPDEST POP JUMP INVALID LOG2 PUSH5 0x6970667358 0x22 SLT KECCAK256 DIV 0xC9 DELEGATECALL 0xE3 KECCAK256 PUSH21 0xB87C640885677DB2A61B9863A33AB18F6FC10CCD49 0x27 0xD5 0xBC PUSH27 0x7764736F6C63430008000033000000000000000000000000000000 "
				},
				"gasEstimates": {
					"creation": {
						"codeDepositCost": "323800",
						"executionCost": "infinite",
						"totalCost": "infinite"
					},
					"external": {
						"approvers(uint256)": "2400",
						"create_transfer(uint256,address)": "89246",
						"get_approvers()": "infinite",
						"next_id()": "1195",
						"quorum()": "1129",
						"transfers(uint256)": "infinite"
					}
				},
				"methodIdentifiers": {
					"approvers(uint256)": "d3650fb8",
					"create_transfer(uint256,address)": "01d9c112",
					"get_approvers()": "e90af376",
					"next_id()": "e31bfa00",
					"quorum()": "1703a018",
					"transfers(uint256)": "9377d711"
				}
			},
			"storageLayout": {
				"storage": [
					{
						"astId": 4,
						"contract": "Wallet.sol:Wallet",
						"label": "approvers",
						"offset": 0,
						"slot": "0",
						"type": "t_array(t_address)dyn_storage"
					},
					{
						"astId": 6,
						"contract": "Wallet.sol:Wallet",
						"label": "quorum",
						"offset": 0,
						"slot": "1",
						"type": "t_uint256"
					},
					{
						"astId": 22,
						"contract": "Wallet.sol:Wallet",
						"label": "transfers",
						"offset": 0,
						"slot": "2",
						"type": "t_mapping(t_uint256,t_struct(Transfer)17_storage)"
					},
					{
						"astId": 24,
						"contract": "Wallet.sol:Wallet",
						"label": "next_id",
						"offset": 0,
						"slot": "3",
						"type": "t_uint256"
					}
				],
				"types": {
					"t_address": {
						"encoding": "inplace",
						"label": "address",
						"numberOfBytes": "20"
					},
					"t_address_payable": {
						"encoding": "inplace",
						"label": "address payable",
						"numberOfBytes": "20"
					},
					"t_array(t_address)dyn_storage": {
						"base": "t_address",
						"encoding": "dynamic_array",
						"label": "address[]",
						"numberOfBytes": "32"
					},
					"t_bool": {
						"encoding": "inplace",
						"label": "bool",
						"numberOfBytes": "1"
					},
					"t_mapping(t_uint256,t_struct(Transfer)17_storage)": {
						"encoding": "mapping",
						"key": "t_uint256",
						"label": "mapping(uint256 => struct Wallet.Transfer)",
						"numberOfBytes": "32",
						"value": "t_struct(Transfer)17_storage"
					},
					"t_struct(Transfer)17_storage": {
						"encoding": "inplace",
						"label": "struct Wallet.Transfer",
						"members": [
							{
								"astId": 8,
								"contract": "Wallet.sol:Wallet",
								"label": "id",
								"offset": 0,
								"slot": "0",
								"type": "t_uint256"
							},
							{
								"astId": 10,
								"contract": "Wallet.sol:Wallet",
								"label": "amount",
								"offset": 0,
								"slot": "1",
								"type": "t_uint256"
							},
							{
								"astId": 12,
								"contract": "Wallet.sol:Wallet",
								"label": "to",
								"offset": 0,
								"slot": "2",
								"type": "t_address_payable"
							},
							{
								"astId": 14,
								"contract": "Wallet.sol:Wallet",
								"label": "approvals",
								"offset": 0,
								"slot": "3",
								"type": "t_uint256"
							},
							{
								"astId": 16,
								"contract": "Wallet.sol:Wallet",
								"label": "sent",
								"offset": 0,
								"slot": "4",
								"type": "t_bool"
							}
						],
						"numberOfBytes": "160"
					},
					"t_uint256": {
						"encoding": "inplace",
						"label": "uint256",
						"numberOfBytes": "32"
					}
				}
			},
			"userdoc": {
				"kind": "user",
				"methods": {},
				"version": 1
			}
		}
	}
}