{
	"Wallet.sol": {
		"Wallet": {
			"abi": [
				{
					"inputs": [
						{
							"internalType": "address[]",
							"name": "_approvers",
							"type": "address[]"
						},
						{
							"internalType": "uint256",
							"name": "_quorum",
							"type": "uint256"
						}
					],
					"stateMutability": "nonpayable",
					"type": "constructor"
				},
				{
					"inputs": [
						{
							"internalType": "uint256",
							"name": "",
							"type": "uint256"
						}
					],
					"name": "approvers",
					"outputs": [
						{
							"internalType": "address",
							"name": "",
							"type": "address"
						}
					],
					"stateMutability": "view",
					"type": "function"
				},
				{
					"inputs": [
						{
							"internalType": "uint256",
							"name": "amount",
							"type": "uint256"
						},
						{
							"internalType": "address payable",
							"name": "to",
							"type": "address"
						}
					],
					"name": "create_transfer",
					"outputs": [],
					"stateMutability": "nonpayable",
					"type": "function"
				},
				{
					"inputs": [],
					"name": "get_approvers",
					"outputs": [
						{
							"internalType": "address[]",
							"name": "",
							"type": "address[]"
						}
					],
					"stateMutability": "view",
					"type": "function"
				},
				{
					"inputs": [],
					"name": "get_transfers",
					"outputs": [
						{
							"components": [
								{
									"internalType": "uint256",
									"name": "id",
									"type": "uint256"
								},
								{
									"internalType": "uint256",
									"name": "amount",
									"type": "uint256"
								},
								{
									"internalType": "address payable",
									"name": "to",
									"type": "address"
								},
								{
									"internalType": "uint256",
									"name": "approvals",
									"type": "uint256"
								},
								{
									"internalType": "bool",
									"name": "sent",
									"type": "bool"
								}
							],
							"internalType": "struct Wallet.Transfer[]",
							"name": "",
							"type": "tuple[]"
						}
					],
					"stateMutability": "view",
					"type": "function"
				},
				{
					"inputs": [],
					"name": "quorum",
					"outputs": [
						{
							"internalType": "uint256",
							"name": "",
							"type": "uint256"
						}
					],
					"stateMutability": "view",
					"type": "function"
				},
				{
					"inputs": [
						{
							"internalType": "uint256",
							"name": "",
							"type": "uint256"
						}
					],
					"name": "transfers",
					"outputs": [
						{
							"internalType": "uint256",
							"name": "id",
							"type": "uint256"
						},
						{
							"internalType": "uint256",
							"name": "amount",
							"type": "uint256"
						},
						{
							"internalType": "address payable",
							"name": "to",
							"type": "address"
						},
						{
							"internalType": "uint256",
							"name": "approvals",
							"type": "uint256"
						},
						{
							"internalType": "bool",
							"name": "sent",
							"type": "bool"
						}
					],
					"stateMutability": "view",
					"type": "function"
				}
			],
			"devdoc": {
				"kind": "dev",
				"methods": {},
				"version": 1
			},
			"evm": {
				"assembly": "    /* \"Wallet.sol\":57:1151  contract Wallet {... */\n  mstore(0x40, 0x80)\n    /* \"Wallet.sol\":591:721  constructor(address[] memory _approvers, uint256 _quorum) public {... */\n  callvalue\n  dup1\n  iszero\n  tag_1\n  jumpi\n  0x00\n  dup1\n  revert\ntag_1:\n  pop\n  mload(0x40)\n  sub(codesize, bytecodeSize)\n  dup1\n  bytecodeSize\n  dup4\n  codecopy\n  dup2\n  dup2\n  add\n  0x40\n  mstore\n  dup2\n  add\n  swap1\n  tag_2\n  swap2\n  swap1\n  tag_3\n  jump\t// in\ntag_2:\n    /* \"Wallet.sol\":678:688  _approvers */\n  dup2\n    /* \"Wallet.sol\":666:675  approvers */\n  0x00\n    /* \"Wallet.sol\":666:688  approvers = _approvers */\n  swap1\n  dup1\n  mload\n  swap1\n  0x20\n  add\n  swap1\n  tag_6\n  swap3\n  swap2\n  swap1\n  tag_7\n  jump\t// in\ntag_6:\n  pop\n    /* \"Wallet.sol\":707:714  _quorum */\n  dup1\n    /* \"Wallet.sol\":698:704  quorum */\n  0x01\n    /* \"Wallet.sol\":698:714  quorum = _quorum */\n  dup2\n  swap1\n  sstore\n  pop\n    /* \"Wallet.sol\":591:721  constructor(address[] memory _approvers, uint256 _quorum) public {... */\n  pop\n  pop\n    /* \"Wallet.sol\":57:1151  contract Wallet {... */\n  jump(tag_8)\ntag_7:\n  dup3\n  dup1\n  sload\n  dup3\n  dup3\n  sstore\n  swap1\n  0x00\n  mstore\n  keccak256(0x00, 0x20)\n  swap1\n  dup2\n  add\n  swap3\n  dup3\n  iszero\n  tag_9\n  jumpi\n  swap2\n  0x20\n  mul\n  dup3\n  add\ntag_10:\n  dup3\n  dup2\n  gt\n  iszero\n  tag_11\n  jumpi\n  dup3\n  mload\n  dup3\n  exp(0x0100, 0x00)\n  dup2\n  sload\n  dup2\n  0xffffffffffffffffffffffffffffffffffffffff\n  mul\n  not\n  and\n  swap1\n  dup4\n  0xffffffffffffffffffffffffffffffffffffffff\n  and\n  mul\n  or\n  swap1\n  sstore\n  pop\n  swap2\n  0x20\n  add\n  swap2\n  swap1\n  0x01\n  add\n  swap1\n  jump(tag_10)\ntag_11:\ntag_9:\n  pop\n  swap1\n  pop\n  tag_12\n  swap2\n  swap1\n  tag_13\n  jump\t// in\ntag_12:\n  pop\n  swap1\n  jump\t// out\ntag_13:\ntag_14:\n  dup1\n  dup3\n  gt\n  iszero\n  tag_15\n  jumpi\n  0x00\n  dup2\n  0x00\n  swap1\n  sstore\n  pop\n  0x01\n  add\n  jump(tag_14)\ntag_15:\n  pop\n  swap1\n  jump\t// out\n    /* \"#utility.yul\":24:668   */\ntag_17:\n  0x00\n    /* \"#utility.yul\":156:236   */\n  tag_19\n    /* \"#utility.yul\":171:235   */\n  tag_20\n    /* \"#utility.yul\":228:234   */\n  dup5\n    /* \"#utility.yul\":171:235   */\n  tag_21\n  jump\t// in\ntag_20:\n    /* \"#utility.yul\":156:236   */\n  tag_22\n  jump\t// in\ntag_19:\n    /* \"#utility.yul\":147:236   */\n  swap1\n  pop\n    /* \"#utility.yul\":256:261   */\n  dup1\n    /* \"#utility.yul\":284:290   */\n  dup4\n    /* \"#utility.yul\":277:282   */\n  dup3\n    /* \"#utility.yul\":270:291   */\n  mstore\n    /* \"#utility.yul\":310:314   */\n  0x20\n    /* \"#utility.yul\":303:308   */\n  dup3\n    /* \"#utility.yul\":299:315   */\n  add\n    /* \"#utility.yul\":292:315   */\n  swap1\n  pop\n    /* \"#utility.yul\":335:341   */\n  dup3\n    /* \"#utility.yul\":385:388   */\n  dup6\n    /* \"#utility.yul\":377:381   */\n  0x20\n    /* \"#utility.yul\":369:375   */\n  dup7\n    /* \"#utility.yul\":365:382   */\n  mul\n    /* \"#utility.yul\":360:363   */\n  dup3\n    /* \"#utility.yul\":356:383   */\n  add\n    /* \"#utility.yul\":353:389   */\n  gt\n    /* \"#utility.yul\":350:352   */\n  iszero\n  tag_23\n  jumpi\n    /* \"#utility.yul\":402:403   */\n  0x00\n    /* \"#utility.yul\":399:400   */\n  dup1\n    /* \"#utility.yul\":392:404   */\n  revert\n    /* \"#utility.yul\":350:352   */\ntag_23:\n    /* \"#utility.yul\":430:431   */\n  0x00\n    /* \"#utility.yul\":415:662   */\ntag_24:\n    /* \"#utility.yul\":440:446   */\n  dup6\n    /* \"#utility.yul\":437:438   */\n  dup2\n    /* \"#utility.yul\":434:447   */\n  lt\n    /* \"#utility.yul\":415:662   */\n  iszero\n  tag_26\n  jumpi\n    /* \"#utility.yul\":507:510   */\n  dup2\n    /* \"#utility.yul\":535:583   */\n  tag_27\n    /* \"#utility.yul\":579:582   */\n  dup9\n    /* \"#utility.yul\":567:577   */\n  dup3\n    /* \"#utility.yul\":535:583   */\n  tag_28\n  jump\t// in\ntag_27:\n    /* \"#utility.yul\":530:533   */\n  dup5\n    /* \"#utility.yul\":523:584   */\n  mstore\n    /* \"#utility.yul\":613:617   */\n  0x20\n    /* \"#utility.yul\":608:611   */\n  dup5\n    /* \"#utility.yul\":604:618   */\n  add\n    /* \"#utility.yul\":597:618   */\n  swap4\n  pop\n    /* \"#utility.yul\":647:651   */\n  0x20\n    /* \"#utility.yul\":642:645   */\n  dup4\n    /* \"#utility.yul\":638:652   */\n  add\n    /* \"#utility.yul\":631:652   */\n  swap3\n  pop\n    /* \"#utility.yul\":475:662   */\n  pop\n    /* \"#utility.yul\":462:463   */\n  0x01\n    /* \"#utility.yul\":459:460   */\n  dup2\n    /* \"#utility.yul\":455:464   */\n  add\n    /* \"#utility.yul\":450:464   */\n  swap1\n  pop\n    /* \"#utility.yul\":415:662   */\n  jump(tag_24)\ntag_26:\n    /* \"#utility.yul\":419:433   */\n  pop\n    /* \"#utility.yul\":137:668   */\n  pop\n  pop\n  swap4\n  swap3\n  pop\n  pop\n  pop\n  jump\t// out\n    /* \"#utility.yul\":674:817   */\ntag_28:\n  0x00\n    /* \"#utility.yul\":762:768   */\n  dup2\n    /* \"#utility.yul\":756:769   */\n  mload\n    /* \"#utility.yul\":747:769   */\n  swap1\n  pop\n    /* \"#utility.yul\":778:811   */\n  tag_30\n    /* \"#utility.yul\":805:810   */\n  dup2\n    /* \"#utility.yul\":778:811   */\n  tag_31\n  jump\t// in\ntag_30:\n    /* \"#utility.yul\":737:817   */\n  swap3\n  swap2\n  pop\n  pop\n  jump\t// out\n    /* \"#utility.yul\":840:1158   */\ntag_32:\n  0x00\n    /* \"#utility.yul\":971:974   */\n  dup3\n    /* \"#utility.yul\":964:968   */\n  0x1f\n    /* \"#utility.yul\":956:962   */\n  dup4\n    /* \"#utility.yul\":952:969   */\n  add\n    /* \"#utility.yul\":948:975   */\n  slt\n    /* \"#utility.yul\":938:940   */\n  tag_34\n  jumpi\n    /* \"#utility.yul\":989:990   */\n  0x00\n    /* \"#utility.yul\":986:987   */\n  dup1\n    /* \"#utility.yul\":979:991   */\n  revert\n    /* \"#utility.yul\":938:940   */\ntag_34:\n    /* \"#utility.yul\":1022:1028   */\n  dup2\n    /* \"#utility.yul\":1016:1029   */\n  mload\n    /* \"#utility.yul\":1047:1152   */\n  tag_35\n    /* \"#utility.yul\":1148:1151   */\n  dup5\n    /* \"#utility.yul\":1140:1146   */\n  dup3\n    /* \"#utility.yul\":1133:1137   */\n  0x20\n    /* \"#utility.yul\":1125:1131   */\n  dup7\n    /* \"#utility.yul\":1121:1138   */\n  add\n    /* \"#utility.yul\":1047:1152   */\n  tag_17\n  jump\t// in\ntag_35:\n    /* \"#utility.yul\":1038:1152   */\n  swap2\n  pop\n    /* \"#utility.yul\":928:1158   */\n  pop\n  swap3\n  swap2\n  pop\n  pop\n  jump\t// out\n    /* \"#utility.yul\":1164:1307   */\ntag_36:\n  0x00\n    /* \"#utility.yul\":1252:1258   */\n  dup2\n    /* \"#utility.yul\":1246:1259   */\n  mload\n    /* \"#utility.yul\":1237:1259   */\n  swap1\n  pop\n    /* \"#utility.yul\":1268:1301   */\n  tag_38\n    /* \"#utility.yul\":1295:1300   */\n  dup2\n    /* \"#utility.yul\":1268:1301   */\n  tag_39\n  jump\t// in\ntag_38:\n    /* \"#utility.yul\":1227:1307   */\n  swap3\n  swap2\n  pop\n  pop\n  jump\t// out\n    /* \"#utility.yul\":1313:1889   */\ntag_3:\n  0x00\n  dup1\n    /* \"#utility.yul\":1474:1476   */\n  0x40\n    /* \"#utility.yul\":1462:1471   */\n  dup4\n    /* \"#utility.yul\":1453:1460   */\n  dup6\n    /* \"#utility.yul\":1449:1472   */\n  sub\n    /* \"#utility.yul\":1445:1477   */\n  slt\n    /* \"#utility.yul\":1442:1444   */\n  iszero\n  tag_41\n  jumpi\n    /* \"#utility.yul\":1490:1491   */\n  0x00\n    /* \"#utility.yul\":1487:1488   */\n  dup1\n    /* \"#utility.yul\":1480:1492   */\n  revert\n    /* \"#utility.yul\":1442:1444   */\ntag_41:\n    /* \"#utility.yul\":1554:1555   */\n  0x00\n    /* \"#utility.yul\":1543:1552   */\n  dup4\n    /* \"#utility.yul\":1539:1556   */\n  add\n    /* \"#utility.yul\":1533:1557   */\n  mload\n    /* \"#utility.yul\":1584:1602   */\n  0xffffffffffffffff\n    /* \"#utility.yul\":1576:1582   */\n  dup2\n    /* \"#utility.yul\":1573:1603   */\n  gt\n    /* \"#utility.yul\":1570:1572   */\n  iszero\n  tag_42\n  jumpi\n    /* \"#utility.yul\":1616:1617   */\n  0x00\n    /* \"#utility.yul\":1613:1614   */\n  dup1\n    /* \"#utility.yul\":1606:1618   */\n  revert\n    /* \"#utility.yul\":1570:1572   */\ntag_42:\n    /* \"#utility.yul\":1644:1733   */\n  tag_43\n    /* \"#utility.yul\":1725:1732   */\n  dup6\n    /* \"#utility.yul\":1716:1722   */\n  dup3\n    /* \"#utility.yul\":1705:1714   */\n  dup7\n    /* \"#utility.yul\":1701:1723   */\n  add\n    /* \"#utility.yul\":1644:1733   */\n  tag_32\n  jump\t// in\ntag_43:\n    /* \"#utility.yul\":1634:1733   */\n  swap3\n  pop\n    /* \"#utility.yul\":1504:1743   */\n  pop\n    /* \"#utility.yul\":1782:1784   */\n  0x20\n    /* \"#utility.yul\":1808:1872   */\n  tag_44\n    /* \"#utility.yul\":1864:1871   */\n  dup6\n    /* \"#utility.yul\":1855:1861   */\n  dup3\n    /* \"#utility.yul\":1844:1853   */\n  dup7\n    /* \"#utility.yul\":1840:1862   */\n  add\n    /* \"#utility.yul\":1808:1872   */\n  tag_36\n  jump\t// in\ntag_44:\n    /* \"#utility.yul\":1798:1872   */\n  swap2\n  pop\n    /* \"#utility.yul\":1753:1882   */\n  pop\n    /* \"#utility.yul\":1432:1889   */\n  swap3\n  pop\n  swap3\n  swap1\n  pop\n  jump\t// out\n    /* \"#utility.yul\":1895:2178   */\ntag_22:\n  0x00\n    /* \"#utility.yul\":1961:1963   */\n  0x40\n    /* \"#utility.yul\":1955:1964   */\n  mload\n    /* \"#utility.yul\":1945:1964   */\n  swap1\n  pop\n    /* \"#utility.yul\":2003:2007   */\n  dup2\n    /* \"#utility.yul\":1995:2001   */\n  dup2\n    /* \"#utility.yul\":1991:2008   */\n  add\n    /* \"#utility.yul\":2110:2116   */\n  dup2\n    /* \"#utility.yul\":2098:2108   */\n  dup2\n    /* \"#utility.yul\":2095:2117   */\n  lt\n    /* \"#utility.yul\":2074:2092   */\n  0xffffffffffffffff\n    /* \"#utility.yul\":2062:2072   */\n  dup3\n    /* \"#utility.yul\":2059:2093   */\n  gt\n    /* \"#utility.yul\":2056:2118   */\n  or\n    /* \"#utility.yul\":2053:2055   */\n  iszero\n  tag_46\n  jumpi\n    /* \"#utility.yul\":2121:2139   */\n  tag_47\n  tag_48\n  jump\t// in\ntag_47:\n    /* \"#utility.yul\":2053:2055   */\ntag_46:\n    /* \"#utility.yul\":2161:2171   */\n  dup1\n    /* \"#utility.yul\":2157:2159   */\n  0x40\n    /* \"#utility.yul\":2150:2172   */\n  mstore\n    /* \"#utility.yul\":1935:2178   */\n  pop\n  swap2\n  swap1\n  pop\n  jump\t// out\n    /* \"#utility.yul\":2184:2495   */\ntag_21:\n  0x00\n    /* \"#utility.yul\":2351:2369   */\n  0xffffffffffffffff\n    /* \"#utility.yul\":2343:2349   */\n  dup3\n    /* \"#utility.yul\":2340:2370   */\n  gt\n    /* \"#utility.yul\":2337:2339   */\n  iszero\n  tag_50\n  jumpi\n    /* \"#utility.yul\":2373:2391   */\n  tag_51\n  tag_48\n  jump\t// in\ntag_51:\n    /* \"#utility.yul\":2337:2339   */\ntag_50:\n    /* \"#utility.yul\":2423:2427   */\n  0x20\n    /* \"#utility.yul\":2415:2421   */\n  dup3\n    /* \"#utility.yul\":2411:2428   */\n  mul\n    /* \"#utility.yul\":2403:2428   */\n  swap1\n  pop\n    /* \"#utility.yul\":2483:2487   */\n  0x20\n    /* \"#utility.yul\":2477:2481   */\n  dup2\n    /* \"#utility.yul\":2473:2488   */\n  add\n    /* \"#utility.yul\":2465:2488   */\n  swap1\n  pop\n    /* \"#utility.yul\":2266:2495   */\n  swap2\n  swap1\n  pop\n  jump\t// out\n    /* \"#utility.yul\":2501:2597   */\ntag_52:\n  0x00\n    /* \"#utility.yul\":2567:2591   */\n  tag_54\n    /* \"#utility.yul\":2585:2590   */\n  dup3\n    /* \"#utility.yul\":2567:2591   */\n  tag_55\n  jump\t// in\ntag_54:\n    /* \"#utility.yul\":2556:2591   */\n  swap1\n  pop\n    /* \"#utility.yul\":2546:2597   */\n  swap2\n  swap1\n  pop\n  jump\t// out\n    /* \"#utility.yul\":2603:2729   */\ntag_55:\n  0x00\n    /* \"#utility.yul\":2680:2722   */\n  0xffffffffffffffffffffffffffffffffffffffff\n    /* \"#utility.yul\":2673:2678   */\n  dup3\n    /* \"#utility.yul\":2669:2723   */\n  and\n    /* \"#utility.yul\":2658:2723   */\n  swap1\n  pop\n    /* \"#utility.yul\":2648:2729   */\n  swap2\n  swap1\n  pop\n  jump\t// out\n    /* \"#utility.yul\":2735:2812   */\ntag_57:\n  0x00\n    /* \"#utility.yul\":2801:2806   */\n  dup2\n    /* \"#utility.yul\":2790:2806   */\n  swap1\n  pop\n    /* \"#utility.yul\":2780:2812   */\n  swap2\n  swap1\n  pop\n  jump\t// out\n    /* \"#utility.yul\":2818:2998   */\ntag_48:\n    /* \"#utility.yul\":2866:2943   */\n  0x4e487b7100000000000000000000000000000000000000000000000000000000\n    /* \"#utility.yul\":2863:2864   */\n  0x00\n    /* \"#utility.yul\":2856:2944   */\n  mstore\n    /* \"#utility.yul\":2963:2967   */\n  0x41\n    /* \"#utility.yul\":2960:2961   */\n  0x04\n    /* \"#utility.yul\":2953:2968   */\n  mstore\n    /* \"#utility.yul\":2987:2991   */\n  0x24\n    /* \"#utility.yul\":2984:2985   */\n  0x00\n    /* \"#utility.yul\":2977:2992   */\n  revert\n    /* \"#utility.yul\":3004:3126   */\ntag_31:\n    /* \"#utility.yul\":3077:3101   */\n  tag_61\n    /* \"#utility.yul\":3095:3100   */\n  dup2\n    /* \"#utility.yul\":3077:3101   */\n  tag_52\n  jump\t// in\ntag_61:\n    /* \"#utility.yul\":3070:3075   */\n  dup2\n    /* \"#utility.yul\":3067:3102   */\n  eq\n    /* \"#utility.yul\":3057:3059   */\n  tag_62\n  jumpi\n    /* \"#utility.yul\":3116:3117   */\n  0x00\n    /* \"#utility.yul\":3113:3114   */\n  dup1\n    /* \"#utility.yul\":3106:3118   */\n  revert\n    /* \"#utility.yul\":3057:3059   */\ntag_62:\n    /* \"#utility.yul\":3047:3126   */\n  pop\n  jump\t// out\n    /* \"#utility.yul\":3132:3254   */\ntag_39:\n    /* \"#utility.yul\":3205:3229   */\n  tag_64\n    /* \"#utility.yul\":3223:3228   */\n  dup2\n    /* \"#utility.yul\":3205:3229   */\n  tag_57\n  jump\t// in\ntag_64:\n    /* \"#utility.yul\":3198:3203   */\n  dup2\n    /* \"#utility.yul\":3195:3230   */\n  eq\n    /* \"#utility.yul\":3185:3187   */\n  tag_65\n  jumpi\n    /* \"#utility.yul\":3244:3245   */\n  0x00\n    /* \"#utility.yul\":3241:3242   */\n  dup1\n    /* \"#utility.yul\":3234:3246   */\n  revert\n    /* \"#utility.yul\":3185:3187   */\ntag_65:\n    /* \"#utility.yul\":3175:3254   */\n  pop\n  jump\t// out\n    /* \"Wallet.sol\":57:1151  contract Wallet {... */\ntag_8:\n  dataSize(sub_0)\n  dup1\n  dataOffset(sub_0)\n  0x00\n  codecopy\n  0x00\n  return\nstop\n\nsub_0: assembly {\n        /* \"Wallet.sol\":57:1151  contract Wallet {... */\n      mstore(0x40, 0x80)\n      callvalue\n      dup1\n      iszero\n      tag_1\n      jumpi\n      0x00\n      dup1\n      revert\n    tag_1:\n      pop\n      jumpi(tag_2, lt(calldatasize, 0x04))\n      shr(0xe0, calldataload(0x00))\n      dup1\n      0x01d9c112\n      eq\n      tag_3\n      jumpi\n      dup1\n      0x1703a018\n      eq\n      tag_4\n      jumpi\n      dup1\n      0x8607d56d\n      eq\n      tag_5\n      jumpi\n      dup1\n      0x9377d711\n      eq\n      tag_6\n      jumpi\n      dup1\n      0xd3650fb8\n      eq\n      tag_7\n      jumpi\n      dup1\n      0xe90af376\n      eq\n      tag_8\n      jumpi\n    tag_2:\n      0x00\n      dup1\n      revert\n        /* \"Wallet.sol\":998:1149  function create_transfer(uint256 amount, address payable to) external {... */\n    tag_3:\n      tag_9\n      0x04\n      dup1\n      calldatasize\n      sub\n      dup2\n      add\n      swap1\n      tag_10\n      swap2\n      swap1\n      tag_11\n      jump\t// in\n    tag_10:\n      tag_12\n      jump\t// in\n    tag_9:\n      stop\n        /* \"Wallet.sol\":280:301  uint256 public quorum */\n    tag_4:\n      tag_13\n      tag_14\n      jump\t// in\n    tag_13:\n      mload(0x40)\n      tag_15\n      swap2\n      swap1\n      tag_16\n      jump\t// in\n    tag_15:\n      mload(0x40)\n      dup1\n      swap2\n      sub\n      swap1\n      return\n        /* \"Wallet.sol\":887:956  function get_transfers() external view returns (Transfer[] memory) {} */\n    tag_5:\n      tag_17\n      tag_18\n      jump\t// in\n    tag_17:\n      mload(0x40)\n      tag_19\n      swap2\n      swap1\n      tag_20\n      jump\t// in\n    tag_19:\n      mload(0x40)\n      dup1\n      swap2\n      sub\n      swap1\n      return\n        /* \"Wallet.sol\":557:584  Transfer[] public transfers */\n    tag_6:\n      tag_21\n      0x04\n      dup1\n      calldatasize\n      sub\n      dup2\n      add\n      swap1\n      tag_22\n      swap2\n      swap1\n      tag_23\n      jump\t// in\n    tag_22:\n      tag_24\n      jump\t// in\n    tag_21:\n      mload(0x40)\n      tag_25\n      swap6\n      swap5\n      swap4\n      swap3\n      swap2\n      swap1\n      tag_26\n      jump\t// in\n    tag_25:\n      mload(0x40)\n      dup1\n      swap2\n      sub\n      swap1\n      return\n        /* \"Wallet.sol\":165:191  address[] public approvers */\n    tag_7:\n      tag_27\n      0x04\n      dup1\n      calldatasize\n      sub\n      dup2\n      add\n      swap1\n      tag_28\n      swap2\n      swap1\n      tag_23\n      jump\t// in\n    tag_28:\n      tag_29\n      jump\t// in\n    tag_27:\n      mload(0x40)\n      tag_30\n      swap2\n      swap1\n      tag_31\n      jump\t// in\n    tag_30:\n      mload(0x40)\n      dup1\n      swap2\n      sub\n      swap1\n      return\n        /* \"Wallet.sol\":782:881  function get_approvers() external view returns (address[] memory) {... */\n    tag_8:\n      tag_32\n      tag_33\n      jump\t// in\n    tag_32:\n      mload(0x40)\n      tag_34\n      swap2\n      swap1\n      tag_35\n      jump\t// in\n    tag_34:\n      mload(0x40)\n      dup1\n      swap2\n      sub\n      swap1\n      return\n        /* \"Wallet.sol\":998:1149  function create_transfer(uint256 amount, address payable to) external {... */\n    tag_12:\n        /* \"Wallet.sol\":1078:1087  transfers */\n      0x02\n        /* \"Wallet.sol\":1093:1141  Transfer(transfers.length, amount, to, 0, false) */\n      mload(0x40)\n      dup1\n      0xa0\n      add\n      0x40\n      mstore\n      dup1\n        /* \"Wallet.sol\":1102:1111  transfers */\n      0x02\n        /* \"Wallet.sol\":1102:1118  transfers.length */\n      dup1\n      sload\n      swap1\n      pop\n        /* \"Wallet.sol\":1093:1141  Transfer(transfers.length, amount, to, 0, false) */\n      dup2\n      mstore\n      0x20\n      add\n        /* \"Wallet.sol\":1120:1126  amount */\n      dup5\n        /* \"Wallet.sol\":1093:1141  Transfer(transfers.length, amount, to, 0, false) */\n      dup2\n      mstore\n      0x20\n      add\n        /* \"Wallet.sol\":1128:1130  to */\n      dup4\n        /* \"Wallet.sol\":1093:1141  Transfer(transfers.length, amount, to, 0, false) */\n      0xffffffffffffffffffffffffffffffffffffffff\n      and\n      dup2\n      mstore\n      0x20\n      add\n        /* \"Wallet.sol\":1132:1133  0 */\n      0x00\n        /* \"Wallet.sol\":1093:1141  Transfer(transfers.length, amount, to, 0, false) */\n      dup2\n      mstore\n      0x20\n      add\n        /* \"Wallet.sol\":1135:1140  false */\n      0x00\n        /* \"Wallet.sol\":1093:1141  Transfer(transfers.length, amount, to, 0, false) */\n      iszero\n      iszero\n      dup2\n      mstore\n      pop\n        /* \"Wallet.sol\":1078:1142  transfers.push(Transfer(transfers.length, amount, to, 0, false)) */\n      swap1\n      dup1\n      0x01\n      dup2\n      sload\n      add\n      dup1\n      dup3\n      sstore\n      dup1\n      swap2\n      pop\n      pop\n      0x01\n      swap1\n      sub\n      swap1\n      0x00\n      mstore\n      keccak256(0x00, 0x20)\n      swap1\n      0x05\n      mul\n      add\n      0x00\n      swap1\n      swap2\n      swap1\n      swap2\n      swap1\n      swap2\n      pop\n      0x00\n      dup3\n      add\n      mload\n      dup2\n      0x00\n      add\n      sstore\n      0x20\n      dup3\n      add\n      mload\n      dup2\n      0x01\n      add\n      sstore\n      0x40\n      dup3\n      add\n      mload\n      dup2\n      0x02\n      add\n      exp(0x0100, 0x00)\n      dup2\n      sload\n      dup2\n      0xffffffffffffffffffffffffffffffffffffffff\n      mul\n      not\n      and\n      swap1\n      dup4\n      0xffffffffffffffffffffffffffffffffffffffff\n      and\n      mul\n      or\n      swap1\n      sstore\n      pop\n      0x60\n      dup3\n      add\n      mload\n      dup2\n      0x03\n      add\n      sstore\n      0x80\n      dup3\n      add\n      mload\n      dup2\n      0x04\n      add\n      exp(0x0100, 0x00)\n      dup2\n      sload\n      dup2\n      0xff\n      mul\n      not\n      and\n      swap1\n      dup4\n      iszero\n      iszero\n      mul\n      or\n      swap1\n      sstore\n      pop\n      pop\n      pop\n        /* \"Wallet.sol\":998:1149  function create_transfer(uint256 amount, address payable to) external {... */\n      pop\n      pop\n      jump\t// out\n        /* \"Wallet.sol\":280:301  uint256 public quorum */\n    tag_14:\n      sload(0x01)\n      dup2\n      jump\t// out\n        /* \"Wallet.sol\":887:956  function get_transfers() external view returns (Transfer[] memory) {} */\n    tag_18:\n        /* \"Wallet.sol\":935:952  Transfer[] memory */\n      0x60\n        /* \"Wallet.sol\":887:956  function get_transfers() external view returns (Transfer[] memory) {} */\n      swap1\n      jump\t// out\n        /* \"Wallet.sol\":557:584  Transfer[] public transfers */\n    tag_24:\n      0x02\n      dup2\n      dup2\n      sload\n      dup2\n      lt\n      tag_39\n      jumpi\n      0x00\n      dup1\n      revert\n    tag_39:\n      swap1\n      0x00\n      mstore\n      keccak256(0x00, 0x20)\n      swap1\n      0x05\n      mul\n      add\n      0x00\n      swap2\n      pop\n      swap1\n      pop\n      dup1\n      0x00\n      add\n      sload\n      swap1\n      dup1\n      0x01\n      add\n      sload\n      swap1\n      dup1\n      0x02\n      add\n      0x00\n      swap1\n      sload\n      swap1\n      0x0100\n      exp\n      swap1\n      div\n      0xffffffffffffffffffffffffffffffffffffffff\n      and\n      swap1\n      dup1\n      0x03\n      add\n      sload\n      swap1\n      dup1\n      0x04\n      add\n      0x00\n      swap1\n      sload\n      swap1\n      0x0100\n      exp\n      swap1\n      div\n      0xff\n      and\n      swap1\n      pop\n      dup6\n      jump\t// out\n        /* \"Wallet.sol\":165:191  address[] public approvers */\n    tag_29:\n      0x00\n      dup2\n      dup2\n      sload\n      dup2\n      lt\n      tag_41\n      jumpi\n      0x00\n      dup1\n      revert\n    tag_41:\n      swap1\n      0x00\n      mstore\n      keccak256(0x00, 0x20)\n      add\n      0x00\n      swap2\n      pop\n      sload\n      swap1\n      0x0100\n      exp\n      swap1\n      div\n      0xffffffffffffffffffffffffffffffffffffffff\n      and\n      dup2\n      jump\t// out\n        /* \"Wallet.sol\":782:881  function get_approvers() external view returns (address[] memory) {... */\n    tag_33:\n        /* \"Wallet.sol\":830:846  address[] memory */\n      0x60\n        /* \"Wallet.sol\":865:874  approvers */\n      0x00\n        /* \"Wallet.sol\":858:874  return approvers */\n      dup1\n      sload\n      dup1\n      0x20\n      mul\n      0x20\n      add\n      mload(0x40)\n      swap1\n      dup2\n      add\n      0x40\n      mstore\n      dup1\n      swap3\n      swap2\n      swap1\n      dup2\n      dup2\n      mstore\n      0x20\n      add\n      dup3\n      dup1\n      sload\n      dup1\n      iszero\n      tag_44\n      jumpi\n      0x20\n      mul\n      dup3\n      add\n      swap2\n      swap1\n      0x00\n      mstore\n      keccak256(0x00, 0x20)\n      swap1\n    tag_45:\n      dup2\n      0x00\n      swap1\n      sload\n      swap1\n      0x0100\n      exp\n      swap1\n      div\n      0xffffffffffffffffffffffffffffffffffffffff\n      and\n      0xffffffffffffffffffffffffffffffffffffffff\n      and\n      dup2\n      mstore\n      0x20\n      add\n      swap1\n      0x01\n      add\n      swap1\n      dup1\n      dup4\n      gt\n      tag_45\n      jumpi\n    tag_44:\n      pop\n      pop\n      pop\n      pop\n      pop\n      swap1\n      pop\n        /* \"Wallet.sol\":782:881  function get_approvers() external view returns (address[] memory) {... */\n      swap1\n      jump\t// out\n        /* \"#utility.yul\":7:162   */\n    tag_47:\n      0x00\n        /* \"#utility.yul\":99:105   */\n      dup2\n        /* \"#utility.yul\":86:106   */\n      calldataload\n        /* \"#utility.yul\":77:106   */\n      swap1\n      pop\n        /* \"#utility.yul\":115:156   */\n      tag_49\n        /* \"#utility.yul\":150:155   */\n      dup2\n        /* \"#utility.yul\":115:156   */\n      tag_50\n      jump\t// in\n    tag_49:\n        /* \"#utility.yul\":67:162   */\n      swap3\n      swap2\n      pop\n      pop\n      jump\t// out\n        /* \"#utility.yul\":168:307   */\n    tag_51:\n      0x00\n        /* \"#utility.yul\":252:258   */\n      dup2\n        /* \"#utility.yul\":239:259   */\n      calldataload\n        /* \"#utility.yul\":230:259   */\n      swap1\n      pop\n        /* \"#utility.yul\":268:301   */\n      tag_53\n        /* \"#utility.yul\":295:300   */\n      dup2\n        /* \"#utility.yul\":268:301   */\n      tag_54\n      jump\t// in\n    tag_53:\n        /* \"#utility.yul\":220:307   */\n      swap3\n      swap2\n      pop\n      pop\n      jump\t// out\n        /* \"#utility.yul\":313:575   */\n    tag_23:\n      0x00\n        /* \"#utility.yul\":421:423   */\n      0x20\n        /* \"#utility.yul\":409:418   */\n      dup3\n        /* \"#utility.yul\":400:407   */\n      dup5\n        /* \"#utility.yul\":396:419   */\n      sub\n        /* \"#utility.yul\":392:424   */\n      slt\n        /* \"#utility.yul\":389:391   */\n      iszero\n      tag_56\n      jumpi\n        /* \"#utility.yul\":437:438   */\n      0x00\n        /* \"#utility.yul\":434:435   */\n      dup1\n        /* \"#utility.yul\":427:439   */\n      revert\n        /* \"#utility.yul\":389:391   */\n    tag_56:\n        /* \"#utility.yul\":480:481   */\n      0x00\n        /* \"#utility.yul\":505:558   */\n      tag_57\n        /* \"#utility.yul\":550:557   */\n      dup5\n        /* \"#utility.yul\":541:547   */\n      dup3\n        /* \"#utility.yul\":530:539   */\n      dup6\n        /* \"#utility.yul\":526:548   */\n      add\n        /* \"#utility.yul\":505:558   */\n      tag_51\n      jump\t// in\n    tag_57:\n        /* \"#utility.yul\":495:558   */\n      swap2\n      pop\n        /* \"#utility.yul\":451:568   */\n      pop\n        /* \"#utility.yul\":379:575   */\n      swap3\n      swap2\n      pop\n      pop\n      jump\t// out\n        /* \"#utility.yul\":581:1004   */\n    tag_11:\n      0x00\n      dup1\n        /* \"#utility.yul\":714:716   */\n      0x40\n        /* \"#utility.yul\":702:711   */\n      dup4\n        /* \"#utility.yul\":693:700   */\n      dup6\n        /* \"#utility.yul\":689:712   */\n      sub\n        /* \"#utility.yul\":685:717   */\n      slt\n        /* \"#utility.yul\":682:684   */\n      iszero\n      tag_59\n      jumpi\n        /* \"#utility.yul\":730:731   */\n      0x00\n        /* \"#utility.yul\":727:728   */\n      dup1\n        /* \"#utility.yul\":720:732   */\n      revert\n        /* \"#utility.yul\":682:684   */\n    tag_59:\n        /* \"#utility.yul\":773:774   */\n      0x00\n        /* \"#utility.yul\":798:851   */\n      tag_60\n        /* \"#utility.yul\":843:850   */\n      dup6\n        /* \"#utility.yul\":834:840   */\n      dup3\n        /* \"#utility.yul\":823:832   */\n      dup7\n        /* \"#utility.yul\":819:841   */\n      add\n        /* \"#utility.yul\":798:851   */\n      tag_51\n      jump\t// in\n    tag_60:\n        /* \"#utility.yul\":788:851   */\n      swap3\n      pop\n        /* \"#utility.yul\":744:861   */\n      pop\n        /* \"#utility.yul\":900:902   */\n      0x20\n        /* \"#utility.yul\":926:987   */\n      tag_61\n        /* \"#utility.yul\":979:986   */\n      dup6\n        /* \"#utility.yul\":970:976   */\n      dup3\n        /* \"#utility.yul\":959:968   */\n      dup7\n        /* \"#utility.yul\":955:977   */\n      add\n        /* \"#utility.yul\":926:987   */\n      tag_47\n      jump\t// in\n    tag_61:\n        /* \"#utility.yul\":916:987   */\n      swap2\n      pop\n        /* \"#utility.yul\":871:997   */\n      pop\n        /* \"#utility.yul\":672:1004   */\n      swap3\n      pop\n      swap3\n      swap1\n      pop\n      jump\t// out\n        /* \"#utility.yul\":1010:1189   */\n    tag_62:\n      0x00\n        /* \"#utility.yul\":1100:1146   */\n      tag_64\n        /* \"#utility.yul\":1142:1145   */\n      dup4\n        /* \"#utility.yul\":1134:1140   */\n      dup4\n        /* \"#utility.yul\":1100:1146   */\n      tag_65\n      jump\t// in\n    tag_64:\n        /* \"#utility.yul\":1178:1182   */\n      0x20\n        /* \"#utility.yul\":1173:1176   */\n      dup4\n        /* \"#utility.yul\":1169:1183   */\n      add\n        /* \"#utility.yul\":1155:1183   */\n      swap1\n      pop\n        /* \"#utility.yul\":1090:1189   */\n      swap3\n      swap2\n      pop\n      pop\n      jump\t// out\n        /* \"#utility.yul\":1195:1470   */\n    tag_66:\n      0x00\n        /* \"#utility.yul\":1333:1427   */\n      tag_68\n        /* \"#utility.yul\":1423:1426   */\n      dup4\n        /* \"#utility.yul\":1415:1421   */\n      dup4\n        /* \"#utility.yul\":1333:1427   */\n      tag_69\n      jump\t// in\n    tag_68:\n        /* \"#utility.yul\":1459:1463   */\n      0xa0\n        /* \"#utility.yul\":1454:1457   */\n      dup4\n        /* \"#utility.yul\":1450:1464   */\n      add\n        /* \"#utility.yul\":1436:1464   */\n      swap1\n      pop\n        /* \"#utility.yul\":1323:1470   */\n      swap3\n      swap2\n      pop\n      pop\n      jump\t// out\n        /* \"#utility.yul\":1476:1608   */\n    tag_70:\n        /* \"#utility.yul\":1569:1601   */\n      tag_72\n        /* \"#utility.yul\":1595:1600   */\n      dup2\n        /* \"#utility.yul\":1569:1601   */\n      tag_73\n      jump\t// in\n    tag_72:\n        /* \"#utility.yul\":1564:1567   */\n      dup3\n        /* \"#utility.yul\":1557:1602   */\n      mstore\n        /* \"#utility.yul\":1547:1608   */\n      pop\n      pop\n      jump\t// out\n        /* \"#utility.yul\":1614:1756   */\n    tag_74:\n        /* \"#utility.yul\":1717:1749   */\n      tag_76\n        /* \"#utility.yul\":1743:1748   */\n      dup2\n        /* \"#utility.yul\":1717:1749   */\n      tag_73\n      jump\t// in\n    tag_76:\n        /* \"#utility.yul\":1712:1715   */\n      dup3\n        /* \"#utility.yul\":1705:1750   */\n      mstore\n        /* \"#utility.yul\":1695:1756   */\n      pop\n      pop\n      jump\t// out\n        /* \"#utility.yul\":1762:1870   */\n    tag_65:\n        /* \"#utility.yul\":1839:1863   */\n      tag_78\n        /* \"#utility.yul\":1857:1862   */\n      dup2\n        /* \"#utility.yul\":1839:1863   */\n      tag_79\n      jump\t// in\n    tag_78:\n        /* \"#utility.yul\":1834:1837   */\n      dup3\n        /* \"#utility.yul\":1827:1864   */\n      mstore\n        /* \"#utility.yul\":1817:1870   */\n      pop\n      pop\n      jump\t// out\n        /* \"#utility.yul\":1876:1994   */\n    tag_80:\n        /* \"#utility.yul\":1963:1987   */\n      tag_82\n        /* \"#utility.yul\":1981:1986   */\n      dup2\n        /* \"#utility.yul\":1963:1987   */\n      tag_79\n      jump\t// in\n    tag_82:\n        /* \"#utility.yul\":1958:1961   */\n      dup3\n        /* \"#utility.yul\":1951:1988   */\n      mstore\n        /* \"#utility.yul\":1941:1994   */\n      pop\n      pop\n      jump\t// out\n        /* \"#utility.yul\":2030:2762   */\n    tag_83:\n      0x00\n        /* \"#utility.yul\":2178:2232   */\n      tag_85\n        /* \"#utility.yul\":2226:2231   */\n      dup3\n        /* \"#utility.yul\":2178:2232   */\n      tag_86\n      jump\t// in\n    tag_85:\n        /* \"#utility.yul\":2248:2334   */\n      tag_87\n        /* \"#utility.yul\":2327:2333   */\n      dup2\n        /* \"#utility.yul\":2322:2325   */\n      dup6\n        /* \"#utility.yul\":2248:2334   */\n      tag_88\n      jump\t// in\n    tag_87:\n        /* \"#utility.yul\":2241:2334   */\n      swap4\n      pop\n        /* \"#utility.yul\":2358:2414   */\n      tag_89\n        /* \"#utility.yul\":2408:2413   */\n      dup4\n        /* \"#utility.yul\":2358:2414   */\n      tag_90\n      jump\t// in\n    tag_89:\n        /* \"#utility.yul\":2437:2444   */\n      dup1\n        /* \"#utility.yul\":2468:2469   */\n      0x00\n        /* \"#utility.yul\":2453:2737   */\n    tag_91:\n        /* \"#utility.yul\":2478:2484   */\n      dup4\n        /* \"#utility.yul\":2475:2476   */\n      dup2\n        /* \"#utility.yul\":2472:2485   */\n      lt\n        /* \"#utility.yul\":2453:2737   */\n      iszero\n      tag_93\n      jumpi\n        /* \"#utility.yul\":2554:2560   */\n      dup2\n        /* \"#utility.yul\":2548:2561   */\n      mload\n        /* \"#utility.yul\":2581:2644   */\n      tag_94\n        /* \"#utility.yul\":2640:2643   */\n      dup9\n        /* \"#utility.yul\":2625:2638   */\n      dup3\n        /* \"#utility.yul\":2581:2644   */\n      tag_62\n      jump\t// in\n    tag_94:\n        /* \"#utility.yul\":2574:2644   */\n      swap8\n      pop\n        /* \"#utility.yul\":2667:2727   */\n      tag_95\n        /* \"#utility.yul\":2720:2726   */\n      dup4\n        /* \"#utility.yul\":2667:2727   */\n      tag_96\n      jump\t// in\n    tag_95:\n        /* \"#utility.yul\":2657:2727   */\n      swap3\n      pop\n        /* \"#utility.yul\":2513:2737   */\n      pop\n        /* \"#utility.yul\":2500:2501   */\n      0x01\n        /* \"#utility.yul\":2497:2498   */\n      dup2\n        /* \"#utility.yul\":2493:2502   */\n      add\n        /* \"#utility.yul\":2488:2502   */\n      swap1\n      pop\n        /* \"#utility.yul\":2453:2737   */\n      jump(tag_91)\n    tag_93:\n        /* \"#utility.yul\":2457:2471   */\n      pop\n        /* \"#utility.yul\":2753:2756   */\n      dup6\n        /* \"#utility.yul\":2746:2756   */\n      swap4\n      pop\n        /* \"#utility.yul\":2154:2762   */\n      pop\n      pop\n      pop\n      swap3\n      swap2\n      pop\n      pop\n      jump\t// out\n        /* \"#utility.yul\":2828:3752   */\n    tag_97:\n      0x00\n        /* \"#utility.yul\":3024:3102   */\n      tag_99\n        /* \"#utility.yul\":3096:3101   */\n      dup3\n        /* \"#utility.yul\":3024:3102   */\n      tag_100\n      jump\t// in\n    tag_99:\n        /* \"#utility.yul\":3118:3228   */\n      tag_101\n        /* \"#utility.yul\":3221:3227   */\n      dup2\n        /* \"#utility.yul\":3216:3219   */\n      dup6\n        /* \"#utility.yul\":3118:3228   */\n      tag_102\n      jump\t// in\n    tag_101:\n        /* \"#utility.yul\":3111:3228   */\n      swap4\n      pop\n        /* \"#utility.yul\":3252:3332   */\n      tag_103\n        /* \"#utility.yul\":3326:3331   */\n      dup4\n        /* \"#utility.yul\":3252:3332   */\n      tag_104\n      jump\t// in\n    tag_103:\n        /* \"#utility.yul\":3355:3362   */\n      dup1\n        /* \"#utility.yul\":3386:3387   */\n      0x00\n        /* \"#utility.yul\":3371:3727   */\n    tag_105:\n        /* \"#utility.yul\":3396:3402   */\n      dup4\n        /* \"#utility.yul\":3393:3394   */\n      dup2\n        /* \"#utility.yul\":3390:3403   */\n      lt\n        /* \"#utility.yul\":3371:3727   */\n      iszero\n      tag_107\n      jumpi\n        /* \"#utility.yul\":3472:3478   */\n      dup2\n        /* \"#utility.yul\":3466:3479   */\n      mload\n        /* \"#utility.yul\":3499:3610   */\n      tag_108\n        /* \"#utility.yul\":3606:3609   */\n      dup9\n        /* \"#utility.yul\":3591:3604   */\n      dup3\n        /* \"#utility.yul\":3499:3610   */\n      tag_66\n      jump\t// in\n    tag_108:\n        /* \"#utility.yul\":3492:3610   */\n      swap8\n      pop\n        /* \"#utility.yul\":3633:3717   */\n      tag_109\n        /* \"#utility.yul\":3710:3716   */\n      dup4\n        /* \"#utility.yul\":3633:3717   */\n      tag_110\n      jump\t// in\n    tag_109:\n        /* \"#utility.yul\":3623:3717   */\n      swap3\n      pop\n        /* \"#utility.yul\":3431:3727   */\n      pop\n        /* \"#utility.yul\":3418:3419   */\n      0x01\n        /* \"#utility.yul\":3415:3416   */\n      dup2\n        /* \"#utility.yul\":3411:3420   */\n      add\n        /* \"#utility.yul\":3406:3420   */\n      swap1\n      pop\n        /* \"#utility.yul\":3371:3727   */\n      jump(tag_105)\n    tag_107:\n        /* \"#utility.yul\":3375:3389   */\n      pop\n        /* \"#utility.yul\":3743:3746   */\n      dup6\n        /* \"#utility.yul\":3736:3746   */\n      swap4\n      pop\n        /* \"#utility.yul\":3000:3752   */\n      pop\n      pop\n      pop\n      swap3\n      swap2\n      pop\n      pop\n      jump\t// out\n        /* \"#utility.yul\":3758:3857   */\n    tag_111:\n        /* \"#utility.yul\":3829:3850   */\n      tag_113\n        /* \"#utility.yul\":3844:3849   */\n      dup2\n        /* \"#utility.yul\":3829:3850   */\n      tag_114\n      jump\t// in\n    tag_113:\n        /* \"#utility.yul\":3824:3827   */\n      dup3\n        /* \"#utility.yul\":3817:3851   */\n      mstore\n        /* \"#utility.yul\":3807:3857   */\n      pop\n      pop\n      jump\t// out\n        /* \"#utility.yul\":3863:3972   */\n    tag_115:\n        /* \"#utility.yul\":3944:3965   */\n      tag_117\n        /* \"#utility.yul\":3959:3964   */\n      dup2\n        /* \"#utility.yul\":3944:3965   */\n      tag_114\n      jump\t// in\n    tag_117:\n        /* \"#utility.yul\":3939:3942   */\n      dup3\n        /* \"#utility.yul\":3932:3966   */\n      mstore\n        /* \"#utility.yul\":3922:3972   */\n      pop\n      pop\n      jump\t// out\n        /* \"#utility.yul\":4034:5064   */\n    tag_69:\n        /* \"#utility.yul\":4169:4173   */\n      0xa0\n        /* \"#utility.yul\":4164:4167   */\n      dup3\n        /* \"#utility.yul\":4160:4174   */\n      add\n        /* \"#utility.yul\":4254:4258   */\n      0x00\n        /* \"#utility.yul\":4247:4252   */\n      dup3\n        /* \"#utility.yul\":4243:4259   */\n      add\n        /* \"#utility.yul\":4237:4260   */\n      mload\n        /* \"#utility.yul\":4273:4336   */\n      tag_119\n        /* \"#utility.yul\":4330:4334   */\n      0x00\n        /* \"#utility.yul\":4325:4328   */\n      dup6\n        /* \"#utility.yul\":4321:4335   */\n      add\n        /* \"#utility.yul\":4307:4319   */\n      dup3\n        /* \"#utility.yul\":4273:4336   */\n      tag_120\n      jump\t// in\n    tag_119:\n        /* \"#utility.yul\":4184:4346   */\n      pop\n        /* \"#utility.yul\":4430:4434   */\n      0x20\n        /* \"#utility.yul\":4423:4428   */\n      dup3\n        /* \"#utility.yul\":4419:4435   */\n      add\n        /* \"#utility.yul\":4413:4436   */\n      mload\n        /* \"#utility.yul\":4449:4512   */\n      tag_121\n        /* \"#utility.yul\":4506:4510   */\n      0x20\n        /* \"#utility.yul\":4501:4504   */\n      dup6\n        /* \"#utility.yul\":4497:4511   */\n      add\n        /* \"#utility.yul\":4483:4495   */\n      dup3\n        /* \"#utility.yul\":4449:4512   */\n      tag_120\n      jump\t// in\n    tag_121:\n        /* \"#utility.yul\":4356:4522   */\n      pop\n        /* \"#utility.yul\":4602:4606   */\n      0x40\n        /* \"#utility.yul\":4595:4600   */\n      dup3\n        /* \"#utility.yul\":4591:4607   */\n      add\n        /* \"#utility.yul\":4585:4608   */\n      mload\n        /* \"#utility.yul\":4621:4700   */\n      tag_122\n        /* \"#utility.yul\":4694:4698   */\n      0x40\n        /* \"#utility.yul\":4689:4692   */\n      dup6\n        /* \"#utility.yul\":4685:4699   */\n      add\n        /* \"#utility.yul\":4671:4683   */\n      dup3\n        /* \"#utility.yul\":4621:4700   */\n      tag_70\n      jump\t// in\n    tag_122:\n        /* \"#utility.yul\":4532:4710   */\n      pop\n        /* \"#utility.yul\":4797:4801   */\n      0x60\n        /* \"#utility.yul\":4790:4795   */\n      dup3\n        /* \"#utility.yul\":4786:4802   */\n      add\n        /* \"#utility.yul\":4780:4803   */\n      mload\n        /* \"#utility.yul\":4816:4879   */\n      tag_123\n        /* \"#utility.yul\":4873:4877   */\n      0x60\n        /* \"#utility.yul\":4868:4871   */\n      dup6\n        /* \"#utility.yul\":4864:4878   */\n      add\n        /* \"#utility.yul\":4850:4862   */\n      dup3\n        /* \"#utility.yul\":4816:4879   */\n      tag_120\n      jump\t// in\n    tag_123:\n        /* \"#utility.yul\":4720:4889   */\n      pop\n        /* \"#utility.yul\":4971:4975   */\n      0x80\n        /* \"#utility.yul\":4964:4969   */\n      dup3\n        /* \"#utility.yul\":4960:4976   */\n      add\n        /* \"#utility.yul\":4954:4977   */\n      mload\n        /* \"#utility.yul\":4990:5047   */\n      tag_124\n        /* \"#utility.yul\":5041:5045   */\n      0x80\n        /* \"#utility.yul\":5036:5039   */\n      dup6\n        /* \"#utility.yul\":5032:5046   */\n      add\n        /* \"#utility.yul\":5018:5030   */\n      dup3\n        /* \"#utility.yul\":4990:5047   */\n      tag_111\n      jump\t// in\n    tag_124:\n        /* \"#utility.yul\":4899:5057   */\n      pop\n        /* \"#utility.yul\":4138:5064   */\n      pop\n      pop\n      pop\n      jump\t// out\n        /* \"#utility.yul\":5070:5178   */\n    tag_120:\n        /* \"#utility.yul\":5147:5171   */\n      tag_126\n        /* \"#utility.yul\":5165:5170   */\n      dup2\n        /* \"#utility.yul\":5147:5171   */\n      tag_127\n      jump\t// in\n    tag_126:\n        /* \"#utility.yul\":5142:5145   */\n      dup3\n        /* \"#utility.yul\":5135:5172   */\n      mstore\n        /* \"#utility.yul\":5125:5178   */\n      pop\n      pop\n      jump\t// out\n        /* \"#utility.yul\":5184:5302   */\n    tag_128:\n        /* \"#utility.yul\":5271:5295   */\n      tag_130\n        /* \"#utility.yul\":5289:5294   */\n      dup2\n        /* \"#utility.yul\":5271:5295   */\n      tag_127\n      jump\t// in\n    tag_130:\n        /* \"#utility.yul\":5266:5269   */\n      dup3\n        /* \"#utility.yul\":5259:5296   */\n      mstore\n        /* \"#utility.yul\":5249:5302   */\n      pop\n      pop\n      jump\t// out\n        /* \"#utility.yul\":5308:5530   */\n    tag_31:\n      0x00\n        /* \"#utility.yul\":5439:5441   */\n      0x20\n        /* \"#utility.yul\":5428:5437   */\n      dup3\n        /* \"#utility.yul\":5424:5442   */\n      add\n        /* \"#utility.yul\":5416:5442   */\n      swap1\n      pop\n        /* \"#utility.yul\":5452:5523   */\n      tag_132\n        /* \"#utility.yul\":5520:5521   */\n      0x00\n        /* \"#utility.yul\":5509:5518   */\n      dup4\n        /* \"#utility.yul\":5505:5522   */\n      add\n        /* \"#utility.yul\":5496:5502   */\n      dup5\n        /* \"#utility.yul\":5452:5523   */\n      tag_80\n      jump\t// in\n    tag_132:\n        /* \"#utility.yul\":5406:5530   */\n      swap3\n      swap2\n      pop\n      pop\n      jump\t// out\n        /* \"#utility.yul\":5536:5909   */\n    tag_35:\n      0x00\n        /* \"#utility.yul\":5717:5719   */\n      0x20\n        /* \"#utility.yul\":5706:5715   */\n      dup3\n        /* \"#utility.yul\":5702:5720   */\n      add\n        /* \"#utility.yul\":5694:5720   */\n      swap1\n      pop\n        /* \"#utility.yul\":5766:5775   */\n      dup2\n        /* \"#utility.yul\":5760:5764   */\n      dup2\n        /* \"#utility.yul\":5756:5776   */\n      sub\n        /* \"#utility.yul\":5752:5753   */\n      0x00\n        /* \"#utility.yul\":5741:5750   */\n      dup4\n        /* \"#utility.yul\":5737:5754   */\n      add\n        /* \"#utility.yul\":5730:5777   */\n      mstore\n        /* \"#utility.yul\":5794:5902   */\n      tag_134\n        /* \"#utility.yul\":5897:5901   */\n      dup2\n        /* \"#utility.yul\":5888:5894   */\n      dup5\n        /* \"#utility.yul\":5794:5902   */\n      tag_83\n      jump\t// in\n    tag_134:\n        /* \"#utility.yul\":5786:5902   */\n      swap1\n      pop\n        /* \"#utility.yul\":5684:5909   */\n      swap3\n      swap2\n      pop\n      pop\n      jump\t// out\n        /* \"#utility.yul\":5915:6384   */\n    tag_20:\n      0x00\n        /* \"#utility.yul\":6144:6146   */\n      0x20\n        /* \"#utility.yul\":6133:6142   */\n      dup3\n        /* \"#utility.yul\":6129:6147   */\n      add\n        /* \"#utility.yul\":6121:6147   */\n      swap1\n      pop\n        /* \"#utility.yul\":6193:6202   */\n      dup2\n        /* \"#utility.yul\":6187:6191   */\n      dup2\n        /* \"#utility.yul\":6183:6203   */\n      sub\n        /* \"#utility.yul\":6179:6180   */\n      0x00\n        /* \"#utility.yul\":6168:6177   */\n      dup4\n        /* \"#utility.yul\":6164:6181   */\n      add\n        /* \"#utility.yul\":6157:6204   */\n      mstore\n        /* \"#utility.yul\":6221:6377   */\n      tag_136\n        /* \"#utility.yul\":6372:6376   */\n      dup2\n        /* \"#utility.yul\":6363:6369   */\n      dup5\n        /* \"#utility.yul\":6221:6377   */\n      tag_97\n      jump\t// in\n    tag_136:\n        /* \"#utility.yul\":6213:6377   */\n      swap1\n      pop\n        /* \"#utility.yul\":6111:6384   */\n      swap3\n      swap2\n      pop\n      pop\n      jump\t// out\n        /* \"#utility.yul\":6390:6612   */\n    tag_16:\n      0x00\n        /* \"#utility.yul\":6521:6523   */\n      0x20\n        /* \"#utility.yul\":6510:6519   */\n      dup3\n        /* \"#utility.yul\":6506:6524   */\n      add\n        /* \"#utility.yul\":6498:6524   */\n      swap1\n      pop\n        /* \"#utility.yul\":6534:6605   */\n      tag_138\n        /* \"#utility.yul\":6602:6603   */\n      0x00\n        /* \"#utility.yul\":6591:6600   */\n      dup4\n        /* \"#utility.yul\":6587:6604   */\n      add\n        /* \"#utility.yul\":6578:6584   */\n      dup5\n        /* \"#utility.yul\":6534:6605   */\n      tag_128\n      jump\t// in\n    tag_138:\n        /* \"#utility.yul\":6488:6612   */\n      swap3\n      swap2\n      pop\n      pop\n      jump\t// out\n        /* \"#utility.yul\":6618:7302   */\n    tag_26:\n      0x00\n        /* \"#utility.yul\":6871:6874   */\n      0xa0\n        /* \"#utility.yul\":6860:6869   */\n      dup3\n        /* \"#utility.yul\":6856:6875   */\n      add\n        /* \"#utility.yul\":6848:6875   */\n      swap1\n      pop\n        /* \"#utility.yul\":6885:6956   */\n      tag_140\n        /* \"#utility.yul\":6953:6954   */\n      0x00\n        /* \"#utility.yul\":6942:6951   */\n      dup4\n        /* \"#utility.yul\":6938:6955   */\n      add\n        /* \"#utility.yul\":6929:6935   */\n      dup9\n        /* \"#utility.yul\":6885:6956   */\n      tag_128\n      jump\t// in\n    tag_140:\n        /* \"#utility.yul\":6966:7038   */\n      tag_141\n        /* \"#utility.yul\":7034:7036   */\n      0x20\n        /* \"#utility.yul\":7023:7032   */\n      dup4\n        /* \"#utility.yul\":7019:7037   */\n      add\n        /* \"#utility.yul\":7010:7016   */\n      dup8\n        /* \"#utility.yul\":6966:7038   */\n      tag_128\n      jump\t// in\n    tag_141:\n        /* \"#utility.yul\":7048:7136   */\n      tag_142\n        /* \"#utility.yul\":7132:7134   */\n      0x40\n        /* \"#utility.yul\":7121:7130   */\n      dup4\n        /* \"#utility.yul\":7117:7135   */\n      add\n        /* \"#utility.yul\":7108:7114   */\n      dup7\n        /* \"#utility.yul\":7048:7136   */\n      tag_74\n      jump\t// in\n    tag_142:\n        /* \"#utility.yul\":7146:7218   */\n      tag_143\n        /* \"#utility.yul\":7214:7216   */\n      0x60\n        /* \"#utility.yul\":7203:7212   */\n      dup4\n        /* \"#utility.yul\":7199:7217   */\n      add\n        /* \"#utility.yul\":7190:7196   */\n      dup6\n        /* \"#utility.yul\":7146:7218   */\n      tag_128\n      jump\t// in\n    tag_143:\n        /* \"#utility.yul\":7228:7295   */\n      tag_144\n        /* \"#utility.yul\":7290:7293   */\n      0x80\n        /* \"#utility.yul\":7279:7288   */\n      dup4\n        /* \"#utility.yul\":7275:7294   */\n      add\n        /* \"#utility.yul\":7266:7272   */\n      dup5\n        /* \"#utility.yul\":7228:7295   */\n      tag_115\n      jump\t// in\n    tag_144:\n        /* \"#utility.yul\":6838:7302   */\n      swap7\n      swap6\n      pop\n      pop\n      pop\n      pop\n      pop\n      pop\n      jump\t// out\n        /* \"#utility.yul\":7308:7440   */\n    tag_90:\n      0x00\n        /* \"#utility.yul\":7398:7401   */\n      dup2\n        /* \"#utility.yul\":7390:7401   */\n      swap1\n      pop\n        /* \"#utility.yul\":7428:7432   */\n      0x20\n        /* \"#utility.yul\":7423:7426   */\n      dup3\n        /* \"#utility.yul\":7419:7433   */\n      add\n        /* \"#utility.yul\":7411:7433   */\n      swap1\n      pop\n        /* \"#utility.yul\":7380:7440   */\n      swap2\n      swap1\n      pop\n      jump\t// out\n        /* \"#utility.yul\":7446:7602   */\n    tag_104:\n      0x00\n        /* \"#utility.yul\":7560:7563   */\n      dup2\n        /* \"#utility.yul\":7552:7563   */\n      swap1\n      pop\n        /* \"#utility.yul\":7590:7594   */\n      0x20\n        /* \"#utility.yul\":7585:7588   */\n      dup3\n        /* \"#utility.yul\":7581:7595   */\n      add\n        /* \"#utility.yul\":7573:7595   */\n      swap1\n      pop\n        /* \"#utility.yul\":7542:7602   */\n      swap2\n      swap1\n      pop\n      jump\t// out\n        /* \"#utility.yul\":7608:7722   */\n    tag_86:\n      0x00\n        /* \"#utility.yul\":7709:7714   */\n      dup2\n        /* \"#utility.yul\":7703:7715   */\n      mload\n        /* \"#utility.yul\":7693:7715   */\n      swap1\n      pop\n        /* \"#utility.yul\":7682:7722   */\n      swap2\n      swap1\n      pop\n      jump\t// out\n        /* \"#utility.yul\":7728:7866   */\n    tag_100:\n      0x00\n        /* \"#utility.yul\":7853:7858   */\n      dup2\n        /* \"#utility.yul\":7847:7859   */\n      mload\n        /* \"#utility.yul\":7837:7859   */\n      swap1\n      pop\n        /* \"#utility.yul\":7826:7866   */\n      swap2\n      swap1\n      pop\n      jump\t// out\n        /* \"#utility.yul\":7872:7985   */\n    tag_96:\n      0x00\n        /* \"#utility.yul\":7974:7978   */\n      0x20\n        /* \"#utility.yul\":7969:7972   */\n      dup3\n        /* \"#utility.yul\":7965:7979   */\n      add\n        /* \"#utility.yul\":7957:7979   */\n      swap1\n      pop\n        /* \"#utility.yul\":7947:7985   */\n      swap2\n      swap1\n      pop\n      jump\t// out\n        /* \"#utility.yul\":7991:8128   */\n    tag_110:\n      0x00\n        /* \"#utility.yul\":8117:8121   */\n      0x20\n        /* \"#utility.yul\":8112:8115   */\n      dup3\n        /* \"#utility.yul\":8108:8122   */\n      add\n        /* \"#utility.yul\":8100:8122   */\n      swap1\n      pop\n        /* \"#utility.yul\":8090:8128   */\n      swap2\n      swap1\n      pop\n      jump\t// out\n        /* \"#utility.yul\":8134:8318   */\n    tag_88:\n      0x00\n        /* \"#utility.yul\":8267:8273   */\n      dup3\n        /* \"#utility.yul\":8262:8265   */\n      dup3\n        /* \"#utility.yul\":8255:8274   */\n      mstore\n        /* \"#utility.yul\":8307:8311   */\n      0x20\n        /* \"#utility.yul\":8302:8305   */\n      dup3\n        /* \"#utility.yul\":8298:8312   */\n      add\n        /* \"#utility.yul\":8283:8312   */\n      swap1\n      pop\n        /* \"#utility.yul\":8245:8318   */\n      swap3\n      swap2\n      pop\n      pop\n      jump\t// out\n        /* \"#utility.yul\":8324:8532   */\n    tag_102:\n      0x00\n        /* \"#utility.yul\":8481:8487   */\n      dup3\n        /* \"#utility.yul\":8476:8479   */\n      dup3\n        /* \"#utility.yul\":8469:8488   */\n      mstore\n        /* \"#utility.yul\":8521:8525   */\n      0x20\n        /* \"#utility.yul\":8516:8519   */\n      dup3\n        /* \"#utility.yul\":8512:8526   */\n      add\n        /* \"#utility.yul\":8497:8526   */\n      swap1\n      pop\n        /* \"#utility.yul\":8459:8532   */\n      swap3\n      swap2\n      pop\n      pop\n      jump\t// out\n        /* \"#utility.yul\":8538:8634   */\n    tag_79:\n      0x00\n        /* \"#utility.yul\":8604:8628   */\n      tag_154\n        /* \"#utility.yul\":8622:8627   */\n      dup3\n        /* \"#utility.yul\":8604:8628   */\n      tag_155\n      jump\t// in\n    tag_154:\n        /* \"#utility.yul\":8593:8628   */\n      swap1\n      pop\n        /* \"#utility.yul\":8583:8634   */\n      swap2\n      swap1\n      pop\n      jump\t// out\n        /* \"#utility.yul\":8640:8744   */\n    tag_73:\n      0x00\n        /* \"#utility.yul\":8714:8738   */\n      tag_157\n        /* \"#utility.yul\":8732:8737   */\n      dup3\n        /* \"#utility.yul\":8714:8738   */\n      tag_155\n      jump\t// in\n    tag_157:\n        /* \"#utility.yul\":8703:8738   */\n      swap1\n      pop\n        /* \"#utility.yul\":8693:8744   */\n      swap2\n      swap1\n      pop\n      jump\t// out\n        /* \"#utility.yul\":8750:8840   */\n    tag_114:\n      0x00\n        /* \"#utility.yul\":8827:8832   */\n      dup2\n        /* \"#utility.yul\":8820:8833   */\n      iszero\n        /* \"#utility.yul\":8813:8834   */\n      iszero\n        /* \"#utility.yul\":8802:8834   */\n      swap1\n      pop\n        /* \"#utility.yul\":8792:8840   */\n      swap2\n      swap1\n      pop\n      jump\t// out\n        /* \"#utility.yul\":8846:8972   */\n    tag_155:\n      0x00\n        /* \"#utility.yul\":8923:8965   */\n      0xffffffffffffffffffffffffffffffffffffffff\n        /* \"#utility.yul\":8916:8921   */\n      dup3\n        /* \"#utility.yul\":8912:8966   */\n      and\n        /* \"#utility.yul\":8901:8966   */\n      swap1\n      pop\n        /* \"#utility.yul\":8891:8972   */\n      swap2\n      swap1\n      pop\n      jump\t// out\n        /* \"#utility.yul\":8978:9055   */\n    tag_127:\n      0x00\n        /* \"#utility.yul\":9044:9049   */\n      dup2\n        /* \"#utility.yul\":9033:9049   */\n      swap1\n      pop\n        /* \"#utility.yul\":9023:9055   */\n      swap2\n      swap1\n      pop\n      jump\t// out\n        /* \"#utility.yul\":9061:9199   */\n    tag_50:\n        /* \"#utility.yul\":9142:9174   */\n      tag_162\n        /* \"#utility.yul\":9168:9173   */\n      dup2\n        /* \"#utility.yul\":9142:9174   */\n      tag_73\n      jump\t// in\n    tag_162:\n        /* \"#utility.yul\":9135:9140   */\n      dup2\n        /* \"#utility.yul\":9132:9175   */\n      eq\n        /* \"#utility.yul\":9122:9124   */\n      tag_163\n      jumpi\n        /* \"#utility.yul\":9189:9190   */\n      0x00\n        /* \"#utility.yul\":9186:9187   */\n      dup1\n        /* \"#utility.yul\":9179:9191   */\n      revert\n        /* \"#utility.yul\":9122:9124   */\n    tag_163:\n        /* \"#utility.yul\":9112:9199   */\n      pop\n      jump\t// out\n        /* \"#utility.yul\":9205:9327   */\n    tag_54:\n        /* \"#utility.yul\":9278:9302   */\n      tag_165\n        /* \"#utility.yul\":9296:9301   */\n      dup2\n        /* \"#utility.yul\":9278:9302   */\n      tag_127\n      jump\t// in\n    tag_165:\n        /* \"#utility.yul\":9271:9276   */\n      dup2\n        /* \"#utility.yul\":9268:9303   */\n      eq\n        /* \"#utility.yul\":9258:9260   */\n      tag_166\n      jumpi\n        /* \"#utility.yul\":9317:9318   */\n      0x00\n        /* \"#utility.yul\":9314:9315   */\n      dup1\n        /* \"#utility.yul\":9307:9319   */\n      revert\n        /* \"#utility.yul\":9258:9260   */\n    tag_166:\n        /* \"#utility.yul\":9248:9327   */\n      pop\n      jump\t// out\n\n    auxdata: 0xa2646970667358221220e98896fa2d9221a5b93c5861edf29aa87995822d0432973ed322e7cb941c0d7764736f6c63430008000033\n}\n",
				"bytecode": {
					"linkReferences": {},
					"object": "60806040523480156200001157600080fd5b5060405162000b2b38038062000b2b8339818101604052810190620000379190620001dd565b81600090805190602001906200004f9291906200005f565b508060018190555050506200033b565b828054828255906000526020600020908101928215620000db579160200282015b82811115620000da5782518260006101000a81548173ffffffffffffffffffffffffffffffffffffffff021916908373ffffffffffffffffffffffffffffffffffffffff1602179055509160200191906001019062000080565b5b509050620000ea9190620000ee565b5090565b5b8082111562000109576000816000905550600101620000ef565b5090565b6000620001246200011e846200026b565b62000237565b905080838252602082019050828560208602820111156200014457600080fd5b60005b858110156200017857816200015d888262000182565b84526020840193506020830192505060018101905062000147565b5050509392505050565b600081519050620001938162000307565b92915050565b600082601f830112620001ab57600080fd5b8151620001bd8482602086016200010d565b91505092915050565b600081519050620001d78162000321565b92915050565b60008060408385031215620001f157600080fd5b600083015167ffffffffffffffff8111156200020c57600080fd5b6200021a8582860162000199565b92505060206200022d85828601620001c6565b9150509250929050565b6000604051905081810181811067ffffffffffffffff82111715620002615762000260620002d8565b5b8060405250919050565b600067ffffffffffffffff821115620002895762000288620002d8565b5b602082029050602081019050919050565b6000620002a782620002ae565b9050919050565b600073ffffffffffffffffffffffffffffffffffffffff82169050919050565b6000819050919050565b7f4e487b7100000000000000000000000000000000000000000000000000000000600052604160045260246000fd5b62000312816200029a565b81146200031e57600080fd5b50565b6200032c81620002ce565b81146200033857600080fd5b50565b6107e0806200034b6000396000f3fe608060405234801561001057600080fd5b50600436106100625760003560e01c806301d9c112146100675780631703a018146100835780638607d56d146100a15780639377d711146100bf578063d3650fb8146100f3578063e90af37614610123575b600080fd5b610081600480360381019061007c91906103db565b610141565b005b61008b61023d565b6040516100989190610642565b60405180910390f35b6100a9610243565b6040516100b69190610620565b60405180910390f35b6100d960048036038101906100d491906103b2565b610248565b6040516100ea95949392919061065d565b60405180910390f35b61010d600480360381019061010891906103b2565b6102bb565b60405161011a91906105e3565b60405180910390f35b61012b6102fa565b60405161013891906105fe565b60405180910390f35b60026040518060a0016040528060028054905081526020018481526020018373ffffffffffffffffffffffffffffffffffffffff16815260200160008152602001600015158152509080600181540180825580915050600190039060005260206000209060050201600090919091909150600082015181600001556020820151816001015560408201518160020160006101000a81548173ffffffffffffffffffffffffffffffffffffffff021916908373ffffffffffffffffffffffffffffffffffffffff1602179055506060820151816003015560808201518160040160006101000a81548160ff02191690831515021790555050505050565b60015481565b606090565b6002818154811061025857600080fd5b90600052602060002090600502016000915090508060000154908060010154908060020160009054906101000a900473ffffffffffffffffffffffffffffffffffffffff16908060030154908060040160009054906101000a900460ff16905085565b600081815481106102cb57600080fd5b906000526020600020016000915054906101000a900473ffffffffffffffffffffffffffffffffffffffff1681565b6060600080548060200260200160405190810160405280929190818152602001828054801561037e57602002820191906000526020600020905b8160009054906101000a900473ffffffffffffffffffffffffffffffffffffffff1673ffffffffffffffffffffffffffffffffffffffff1681526020019060010190808311610334575b5050505050905090565b6000813590506103978161077c565b92915050565b6000813590506103ac81610793565b92915050565b6000602082840312156103c457600080fd5b60006103d28482850161039d565b91505092915050565b600080604083850312156103ee57600080fd5b60006103fc8582860161039d565b925050602061040d85828601610388565b9150509250929050565b60006104238383610465565b60208301905092915050565b600061043b838361055d565b60a08301905092915050565b61045081610734565b82525050565b61045f81610734565b82525050565b61046e81610722565b82525050565b61047d81610722565b82525050565b600061048e826106d0565b6104988185610700565b93506104a3836106b0565b8060005b838110156104d45781516104bb8882610417565b97506104c6836106e6565b9250506001810190506104a7565b5085935050505092915050565b60006104ec826106db565b6104f68185610711565b9350610501836106c0565b8060005b83811015610532578151610519888261042f565b9750610524836106f3565b925050600181019050610505565b5085935050505092915050565b61054881610746565b82525050565b61055781610746565b82525050565b60a08201600082015161057360008501826105c5565b50602082015161058660208501826105c5565b5060408201516105996040850182610447565b5060608201516105ac60608501826105c5565b5060808201516105bf608085018261053f565b50505050565b6105ce81610772565b82525050565b6105dd81610772565b82525050565b60006020820190506105f86000830184610474565b92915050565b600060208201905081810360008301526106188184610483565b905092915050565b6000602082019050818103600083015261063a81846104e1565b905092915050565b600060208201905061065760008301846105d4565b92915050565b600060a08201905061067260008301886105d4565b61067f60208301876105d4565b61068c6040830186610456565b61069960608301856105d4565b6106a6608083018461054e565b9695505050505050565b6000819050602082019050919050565b6000819050602082019050919050565b600081519050919050565b600081519050919050565b6000602082019050919050565b6000602082019050919050565b600082825260208201905092915050565b600082825260208201905092915050565b600061072d82610752565b9050919050565b600061073f82610752565b9050919050565b60008115159050919050565b600073ffffffffffffffffffffffffffffffffffffffff82169050919050565b6000819050919050565b61078581610734565b811461079057600080fd5b50565b61079c81610772565b81146107a757600080fd5b5056fea2646970667358221220e98896fa2d9221a5b93c5861edf29aa87995822d0432973ed322e7cb941c0d7764736f6c63430008000033",
					"opcodes": "PUSH1 0x80 PUSH1 0x40 MSTORE CALLVALUE DUP1 ISZERO PUSH3 0x11 JUMPI PUSH1 0x0 DUP1 REVERT JUMPDEST POP PUSH1 0x40 MLOAD PUSH3 0xB2B CODESIZE SUB DUP1 PUSH3 0xB2B DUP4 CODECOPY DUP2 DUP2 ADD PUSH1 0x40 MSTORE DUP2 ADD SWAP1 PUSH3 0x37 SWAP2 SWAP1 PUSH3 0x1DD JUMP JUMPDEST DUP2 PUSH1 0x0 SWAP1 DUP1 MLOAD SWAP1 PUSH1 0x20 ADD SWAP1 PUSH3 0x4F SWAP3 SWAP2 SWAP1 PUSH3 0x5F JUMP JUMPDEST POP DUP1 PUSH1 0x1 DUP2 SWAP1 SSTORE POP POP POP PUSH3 0x33B JUMP JUMPDEST DUP3 DUP1 SLOAD DUP3 DUP3 SSTORE SWAP1 PUSH1 0x0 MSTORE PUSH1 0x20 PUSH1 0x0 KECCAK256 SWAP1 DUP2 ADD SWAP3 DUP3 ISZERO PUSH3 0xDB JUMPI SWAP2 PUSH1 0x20 MUL DUP3 ADD JUMPDEST DUP3 DUP2 GT ISZERO PUSH3 0xDA JUMPI DUP3 MLOAD DUP3 PUSH1 0x0 PUSH2 0x100 EXP DUP2 SLOAD DUP2 PUSH20 0xFFFFFFFFFFFFFFFFFFFFFFFFFFFFFFFFFFFFFFFF MUL NOT AND SWAP1 DUP4 PUSH20 0xFFFFFFFFFFFFFFFFFFFFFFFFFFFFFFFFFFFFFFFF AND MUL OR SWAP1 SSTORE POP SWAP2 PUSH1 0x20 ADD SWAP2 SWAP1 PUSH1 0x1 ADD SWAP1 PUSH3 0x80 JUMP JUMPDEST JUMPDEST POP SWAP1 POP PUSH3 0xEA SWAP2 SWAP1 PUSH3 0xEE JUMP JUMPDEST POP SWAP1 JUMP JUMPDEST JUMPDEST DUP1 DUP3 GT ISZERO PUSH3 0x109 JUMPI PUSH1 0x0 DUP2 PUSH1 0x0 SWAP1 SSTORE POP PUSH1 0x1 ADD PUSH3 0xEF JUMP JUMPDEST POP SWAP1 JUMP JUMPDEST PUSH1 0x0 PUSH3 0x124 PUSH3 0x11E DUP5 PUSH3 0x26B JUMP JUMPDEST PUSH3 0x237 JUMP JUMPDEST SWAP1 POP DUP1 DUP4 DUP3 MSTORE PUSH1 0x20 DUP3 ADD SWAP1 POP DUP3 DUP6 PUSH1 0x20 DUP7 MUL DUP3 ADD GT ISZERO PUSH3 0x144 JUMPI PUSH1 0x0 DUP1 REVERT JUMPDEST PUSH1 0x0 JUMPDEST DUP6 DUP2 LT ISZERO PUSH3 0x178 JUMPI DUP2 PUSH3 0x15D DUP9 DUP3 PUSH3 0x182 JUMP JUMPDEST DUP5 MSTORE PUSH1 0x20 DUP5 ADD SWAP4 POP PUSH1 0x20 DUP4 ADD SWAP3 POP POP PUSH1 0x1 DUP2 ADD SWAP1 POP PUSH3 0x147 JUMP JUMPDEST POP POP POP SWAP4 SWAP3 POP POP POP JUMP JUMPDEST PUSH1 0x0 DUP2 MLOAD SWAP1 POP PUSH3 0x193 DUP2 PUSH3 0x307 JUMP JUMPDEST SWAP3 SWAP2 POP POP JUMP JUMPDEST PUSH1 0x0 DUP3 PUSH1 0x1F DUP4 ADD SLT PUSH3 0x1AB JUMPI PUSH1 0x0 DUP1 REVERT JUMPDEST DUP2 MLOAD PUSH3 0x1BD DUP5 DUP3 PUSH1 0x20 DUP7 ADD PUSH3 0x10D JUMP JUMPDEST SWAP2 POP POP SWAP3 SWAP2 POP POP JUMP JUMPDEST PUSH1 0x0 DUP2 MLOAD SWAP1 POP PUSH3 0x1D7 DUP2 PUSH3 0x321 JUMP JUMPDEST SWAP3 SWAP2 POP POP JUMP JUMPDEST PUSH1 0x0 DUP1 PUSH1 0x40 DUP4 DUP6 SUB SLT ISZERO PUSH3 0x1F1 JUMPI PUSH1 0x0 DUP1 REVERT JUMPDEST PUSH1 0x0 DUP4 ADD MLOAD PUSH8 0xFFFFFFFFFFFFFFFF DUP2 GT ISZERO PUSH3 0x20C JUMPI PUSH1 0x0 DUP1 REVERT JUMPDEST PUSH3 0x21A DUP6 DUP3 DUP7 ADD PUSH3 0x199 JUMP JUMPDEST SWAP3 POP POP PUSH1 0x20 PUSH3 0x22D DUP6 DUP3 DUP7 ADD PUSH3 0x1C6 JUMP JUMPDEST SWAP2 POP POP SWAP3 POP SWAP3 SWAP1 POP JUMP JUMPDEST PUSH1 0x0 PUSH1 0x40 MLOAD SWAP1 POP DUP2 DUP2 ADD DUP2 DUP2 LT PUSH8 0xFFFFFFFFFFFFFFFF DUP3 GT OR ISZERO PUSH3 0x261 JUMPI PUSH3 0x260 PUSH3 0x2D8 JUMP JUMPDEST JUMPDEST DUP1 PUSH1 0x40 MSTORE POP SWAP2 SWAP1 POP JUMP JUMPDEST PUSH1 0x0 PUSH8 0xFFFFFFFFFFFFFFFF DUP3 GT ISZERO PUSH3 0x289 JUMPI PUSH3 0x288 PUSH3 0x2D8 JUMP JUMPDEST JUMPDEST PUSH1 0x20 DUP3 MUL SWAP1 POP PUSH1 0x20 DUP2 ADD SWAP1 POP SWAP2 SWAP1 POP JUMP JUMPDEST PUSH1 0x0 PUSH3 0x2A7 DUP3 PUSH3 0x2AE JUMP JUMPDEST SWAP1 POP SWAP2 SWAP1 POP JUMP JUMPDEST PUSH1 0x0 PUSH20 0xFFFFFFFFFFFFFFFFFFFFFFFFFFFFFFFFFFFFFFFF DUP3 AND SWAP1 POP SWAP2 SWAP1 POP JUMP JUMPDEST PUSH1 0x0 DUP2 SWAP1 POP SWAP2 SWAP1 POP JUMP JUMPDEST PUSH32 0x4E487B7100000000000000000000000000000000000000000000000000000000 PUSH1 0x0 MSTORE PUSH1 0x41 PUSH1 0x4 MSTORE PUSH1 0x24 PUSH1 0x0 REVERT JUMPDEST PUSH3 0x312 DUP2 PUSH3 0x29A JUMP JUMPDEST DUP2 EQ PUSH3 0x31E JUMPI PUSH1 0x0 DUP1 REVERT JUMPDEST POP JUMP JUMPDEST PUSH3 0x32C DUP2 PUSH3 0x2CE JUMP JUMPDEST DUP2 EQ PUSH3 0x338 JUMPI PUSH1 0x0 DUP1 REVERT JUMPDEST POP JUMP JUMPDEST PUSH2 0x7E0 DUP1 PUSH3 0x34B PUSH1 0x0 CODECOPY PUSH1 0x0 RETURN INVALID PUSH1 0x80 PUSH1 0x40 MSTORE CALLVALUE DUP1 ISZERO PUSH2 0x10 JUMPI PUSH1 0x0 DUP1 REVERT JUMPDEST POP PUSH1 0x4 CALLDATASIZE LT PUSH2 0x62 JUMPI PUSH1 0x0 CALLDATALOAD PUSH1 0xE0 SHR DUP1 PUSH4 0x1D9C112 EQ PUSH2 0x67 JUMPI DUP1 PUSH4 0x1703A018 EQ PUSH2 0x83 JUMPI DUP1 PUSH4 0x8607D56D EQ PUSH2 0xA1 JUMPI DUP1 PUSH4 0x9377D711 EQ PUSH2 0xBF JUMPI DUP1 PUSH4 0xD3650FB8 EQ PUSH2 0xF3 JUMPI DUP1 PUSH4 0xE90AF376 EQ PUSH2 0x123 JUMPI JUMPDEST PUSH1 0x0 DUP1 REVERT JUMPDEST PUSH2 0x81 PUSH1 0x4 DUP1 CALLDATASIZE SUB DUP2 ADD SWAP1 PUSH2 0x7C SWAP2 SWAP1 PUSH2 0x3DB JUMP JUMPDEST PUSH2 0x141 JUMP JUMPDEST STOP JUMPDEST PUSH2 0x8B PUSH2 0x23D JUMP JUMPDEST PUSH1 0x40 MLOAD PUSH2 0x98 SWAP2 SWAP1 PUSH2 0x642 JUMP JUMPDEST PUSH1 0x40 MLOAD DUP1 SWAP2 SUB SWAP1 RETURN JUMPDEST PUSH2 0xA9 PUSH2 0x243 JUMP JUMPDEST PUSH1 0x40 MLOAD PUSH2 0xB6 SWAP2 SWAP1 PUSH2 0x620 JUMP JUMPDEST PUSH1 0x40 MLOAD DUP1 SWAP2 SUB SWAP1 RETURN JUMPDEST PUSH2 0xD9 PUSH1 0x4 DUP1 CALLDATASIZE SUB DUP2 ADD SWAP1 PUSH2 0xD4 SWAP2 SWAP1 PUSH2 0x3B2 JUMP JUMPDEST PUSH2 0x248 JUMP JUMPDEST PUSH1 0x40 MLOAD PUSH2 0xEA SWAP6 SWAP5 SWAP4 SWAP3 SWAP2 SWAP1 PUSH2 0x65D JUMP JUMPDEST PUSH1 0x40 MLOAD DUP1 SWAP2 SUB SWAP1 RETURN JUMPDEST PUSH2 0x10D PUSH1 0x4 DUP1 CALLDATASIZE SUB DUP2 ADD SWAP1 PUSH2 0x108 SWAP2 SWAP1 PUSH2 0x3B2 JUMP JUMPDEST PUSH2 0x2BB JUMP JUMPDEST PUSH1 0x40 MLOAD PUSH2 0x11A SWAP2 SWAP1 PUSH2 0x5E3 JUMP JUMPDEST PUSH1 0x40 MLOAD DUP1 SWAP2 SUB SWAP1 RETURN JUMPDEST PUSH2 0x12B PUSH2 0x2FA JUMP JUMPDEST PUSH1 0x40 MLOAD PUSH2 0x138 SWAP2 SWAP1 PUSH2 0x5FE JUMP JUMPDEST PUSH1 0x40 MLOAD DUP1 SWAP2 SUB SWAP1 RETURN JUMPDEST PUSH1 0x2 PUSH1 0x40 MLOAD DUP1 PUSH1 0xA0 ADD PUSH1 0x40 MSTORE DUP1 PUSH1 0x2 DUP1 SLOAD SWAP1 POP DUP2 MSTORE PUSH1 0x20 ADD DUP5 DUP2 MSTORE PUSH1 0x20 ADD DUP4 PUSH20 0xFFFFFFFFFFFFFFFFFFFFFFFFFFFFFFFFFFFFFFFF AND DUP2 MSTORE PUSH1 0x20 ADD PUSH1 0x0 DUP2 MSTORE PUSH1 0x20 ADD PUSH1 0x0 ISZERO ISZERO DUP2 MSTORE POP SWAP1 DUP1 PUSH1 0x1 DUP2 SLOAD ADD DUP1 DUP3 SSTORE DUP1 SWAP2 POP POP PUSH1 0x1 SWAP1 SUB SWAP1 PUSH1 0x0 MSTORE PUSH1 0x20 PUSH1 0x0 KECCAK256 SWAP1 PUSH1 0x5 MUL ADD PUSH1 0x0 SWAP1 SWAP2 SWAP1 SWAP2 SWAP1 SWAP2 POP PUSH1 0x0 DUP3 ADD MLOAD DUP2 PUSH1 0x0 ADD SSTORE PUSH1 0x20 DUP3 ADD MLOAD DUP2 PUSH1 0x1 ADD SSTORE PUSH1 0x40 DUP3 ADD MLOAD DUP2 PUSH1 0x2 ADD PUSH1 0x0 PUSH2 0x100 EXP DUP2 SLOAD DUP2 PUSH20 0xFFFFFFFFFFFFFFFFFFFFFFFFFFFFFFFFFFFFFFFF MUL NOT AND SWAP1 DUP4 PUSH20 0xFFFFFFFFFFFFFFFFFFFFFFFFFFFFFFFFFFFFFFFF AND MUL OR SWAP1 SSTORE POP PUSH1 0x60 DUP3 ADD MLOAD DUP2 PUSH1 0x3 ADD SSTORE PUSH1 0x80 DUP3 ADD MLOAD DUP2 PUSH1 0x4 ADD PUSH1 0x0 PUSH2 0x100 EXP DUP2 SLOAD DUP2 PUSH1 0xFF MUL NOT AND SWAP1 DUP4 ISZERO ISZERO MUL OR SWAP1 SSTORE POP POP POP POP POP JUMP JUMPDEST PUSH1 0x1 SLOAD DUP2 JUMP JUMPDEST PUSH1 0x60 SWAP1 JUMP JUMPDEST PUSH1 0x2 DUP2 DUP2 SLOAD DUP2 LT PUSH2 0x258 JUMPI PUSH1 0x0 DUP1 REVERT JUMPDEST SWAP1 PUSH1 0x0 MSTORE PUSH1 0x20 PUSH1 0x0 KECCAK256 SWAP1 PUSH1 0x5 MUL ADD PUSH1 0x0 SWAP2 POP SWAP1 POP DUP1 PUSH1 0x0 ADD SLOAD SWAP1 DUP1 PUSH1 0x1 ADD SLOAD SWAP1 DUP1 PUSH1 0x2 ADD PUSH1 0x0 SWAP1 SLOAD SWAP1 PUSH2 0x100 EXP SWAP1 DIV PUSH20 0xFFFFFFFFFFFFFFFFFFFFFFFFFFFFFFFFFFFFFFFF AND SWAP1 DUP1 PUSH1 0x3 ADD SLOAD SWAP1 DUP1 PUSH1 0x4 ADD PUSH1 0x0 SWAP1 SLOAD SWAP1 PUSH2 0x100 EXP SWAP1 DIV PUSH1 0xFF AND SWAP1 POP DUP6 JUMP JUMPDEST PUSH1 0x0 DUP2 DUP2 SLOAD DUP2 LT PUSH2 0x2CB JUMPI PUSH1 0x0 DUP1 REVERT JUMPDEST SWAP1 PUSH1 0x0 MSTORE PUSH1 0x20 PUSH1 0x0 KECCAK256 ADD PUSH1 0x0 SWAP2 POP SLOAD SWAP1 PUSH2 0x100 EXP SWAP1 DIV PUSH20 0xFFFFFFFFFFFFFFFFFFFFFFFFFFFFFFFFFFFFFFFF AND DUP2 JUMP JUMPDEST PUSH1 0x60 PUSH1 0x0 DUP1 SLOAD DUP1 PUSH1 0x20 MUL PUSH1 0x20 ADD PUSH1 0x40 MLOAD SWAP1 DUP2 ADD PUSH1 0x40 MSTORE DUP1 SWAP3 SWAP2 SWAP1 DUP2 DUP2 MSTORE PUSH1 0x20 ADD DUP3 DUP1 SLOAD DUP1 ISZERO PUSH2 0x37E JUMPI PUSH1 0x20 MUL DUP3 ADD SWAP2 SWAP1 PUSH1 0x0 MSTORE PUSH1 0x20 PUSH1 0x0 KECCAK256 SWAP1 JUMPDEST DUP2 PUSH1 0x0 SWAP1 SLOAD SWAP1 PUSH2 0x100 EXP SWAP1 DIV PUSH20 0xFFFFFFFFFFFFFFFFFFFFFFFFFFFFFFFFFFFFFFFF AND PUSH20 0xFFFFFFFFFFFFFFFFFFFFFFFFFFFFFFFFFFFFFFFF AND DUP2 MSTORE PUSH1 0x20 ADD SWAP1 PUSH1 0x1 ADD SWAP1 DUP1 DUP4 GT PUSH2 0x334 JUMPI JUMPDEST POP POP POP POP POP SWAP1 POP SWAP1 JUMP JUMPDEST PUSH1 0x0 DUP2 CALLDATALOAD SWAP1 POP PUSH2 0x397 DUP2 PUSH2 0x77C JUMP JUMPDEST SWAP3 SWAP2 POP POP JUMP JUMPDEST PUSH1 0x0 DUP2 CALLDATALOAD SWAP1 POP PUSH2 0x3AC DUP2 PUSH2 0x793 JUMP JUMPDEST SWAP3 SWAP2 POP POP JUMP JUMPDEST PUSH1 0x0 PUSH1 0x20 DUP3 DUP5 SUB SLT ISZERO PUSH2 0x3C4 JUMPI PUSH1 0x0 DUP1 REVERT JUMPDEST PUSH1 0x0 PUSH2 0x3D2 DUP5 DUP3 DUP6 ADD PUSH2 0x39D JUMP JUMPDEST SWAP2 POP POP SWAP3 SWAP2 POP POP JUMP JUMPDEST PUSH1 0x0 DUP1 PUSH1 0x40 DUP4 DUP6 SUB SLT ISZERO PUSH2 0x3EE JUMPI PUSH1 0x0 DUP1 REVERT JUMPDEST PUSH1 0x0 PUSH2 0x3FC DUP6 DUP3 DUP7 ADD PUSH2 0x39D JUMP JUMPDEST SWAP3 POP POP PUSH1 0x20 PUSH2 0x40D DUP6 DUP3 DUP7 ADD PUSH2 0x388 JUMP JUMPDEST SWAP2 POP POP SWAP3 POP SWAP3 SWAP1 POP JUMP JUMPDEST PUSH1 0x0 PUSH2 0x423 DUP4 DUP4 PUSH2 0x465 JUMP JUMPDEST PUSH1 0x20 DUP4 ADD SWAP1 POP SWAP3 SWAP2 POP POP JUMP JUMPDEST PUSH1 0x0 PUSH2 0x43B DUP4 DUP4 PUSH2 0x55D JUMP JUMPDEST PUSH1 0xA0 DUP4 ADD SWAP1 POP SWAP3 SWAP2 POP POP JUMP JUMPDEST PUSH2 0x450 DUP2 PUSH2 0x734 JUMP JUMPDEST DUP3 MSTORE POP POP JUMP JUMPDEST PUSH2 0x45F DUP2 PUSH2 0x734 JUMP JUMPDEST DUP3 MSTORE POP POP JUMP JUMPDEST PUSH2 0x46E DUP2 PUSH2 0x722 JUMP JUMPDEST DUP3 MSTORE POP POP JUMP JUMPDEST PUSH2 0x47D DUP2 PUSH2 0x722 JUMP JUMPDEST DUP3 MSTORE POP POP JUMP JUMPDEST PUSH1 0x0 PUSH2 0x48E DUP3 PUSH2 0x6D0 JUMP JUMPDEST PUSH2 0x498 DUP2 DUP6 PUSH2 0x700 JUMP JUMPDEST SWAP4 POP PUSH2 0x4A3 DUP4 PUSH2 0x6B0 JUMP JUMPDEST DUP1 PUSH1 0x0 JUMPDEST DUP4 DUP2 LT ISZERO PUSH2 0x4D4 JUMPI DUP2 MLOAD PUSH2 0x4BB DUP9 DUP3 PUSH2 0x417 JUMP JUMPDEST SWAP8 POP PUSH2 0x4C6 DUP4 PUSH2 0x6E6 JUMP JUMPDEST SWAP3 POP POP PUSH1 0x1 DUP2 ADD SWAP1 POP PUSH2 0x4A7 JUMP JUMPDEST POP DUP6 SWAP4 POP POP POP POP SWAP3 SWAP2 POP POP JUMP JUMPDEST PUSH1 0x0 PUSH2 0x4EC DUP3 PUSH2 0x6DB JUMP JUMPDEST PUSH2 0x4F6 DUP2 DUP6 PUSH2 0x711 JUMP JUMPDEST SWAP4 POP PUSH2 0x501 DUP4 PUSH2 0x6C0 JUMP JUMPDEST DUP1 PUSH1 0x0 JUMPDEST DUP4 DUP2 LT ISZERO PUSH2 0x532 JUMPI DUP2 MLOAD PUSH2 0x519 DUP9 DUP3 PUSH2 0x42F JUMP JUMPDEST SWAP8 POP PUSH2 0x524 DUP4 PUSH2 0x6F3 JUMP JUMPDEST SWAP3 POP POP PUSH1 0x1 DUP2 ADD SWAP1 POP PUSH2 0x505 JUMP JUMPDEST POP DUP6 SWAP4 POP POP POP POP SWAP3 SWAP2 POP POP JUMP JUMPDEST PUSH2 0x548 DUP2 PUSH2 0x746 JUMP JUMPDEST DUP3 MSTORE POP POP JUMP JUMPDEST PUSH2 0x557 DUP2 PUSH2 0x746 JUMP JUMPDEST DUP3 MSTORE POP POP JUMP JUMPDEST PUSH1 0xA0 DUP3 ADD PUSH1 0x0 DUP3 ADD MLOAD PUSH2 0x573 PUSH1 0x0 DUP6 ADD DUP3 PUSH2 0x5C5 JUMP JUMPDEST POP PUSH1 0x20 DUP3 ADD MLOAD PUSH2 0x586 PUSH1 0x20 DUP6 ADD DUP3 PUSH2 0x5C5 JUMP JUMPDEST POP PUSH1 0x40 DUP3 ADD MLOAD PUSH2 0x599 PUSH1 0x40 DUP6 ADD DUP3 PUSH2 0x447 JUMP JUMPDEST POP PUSH1 0x60 DUP3 ADD MLOAD PUSH2 0x5AC PUSH1 0x60 DUP6 ADD DUP3 PUSH2 0x5C5 JUMP JUMPDEST POP PUSH1 0x80 DUP3 ADD MLOAD PUSH2 0x5BF PUSH1 0x80 DUP6 ADD DUP3 PUSH2 0x53F JUMP JUMPDEST POP POP POP POP JUMP JUMPDEST PUSH2 0x5CE DUP2 PUSH2 0x772 JUMP JUMPDEST DUP3 MSTORE POP POP JUMP JUMPDEST PUSH2 0x5DD DUP2 PUSH2 0x772 JUMP JUMPDEST DUP3 MSTORE POP POP JUMP JUMPDEST PUSH1 0x0 PUSH1 0x20 DUP3 ADD SWAP1 POP PUSH2 0x5F8 PUSH1 0x0 DUP4 ADD DUP5 PUSH2 0x474 JUMP JUMPDEST SWAP3 SWAP2 POP POP JUMP JUMPDEST PUSH1 0x0 PUSH1 0x20 DUP3 ADD SWAP1 POP DUP2 DUP2 SUB PUSH1 0x0 DUP4 ADD MSTORE PUSH2 0x618 DUP2 DUP5 PUSH2 0x483 JUMP JUMPDEST SWAP1 POP SWAP3 SWAP2 POP POP JUMP JUMPDEST PUSH1 0x0 PUSH1 0x20 DUP3 ADD SWAP1 POP DUP2 DUP2 SUB PUSH1 0x0 DUP4 ADD MSTORE PUSH2 0x63A DUP2 DUP5 PUSH2 0x4E1 JUMP JUMPDEST SWAP1 POP SWAP3 SWAP2 POP POP JUMP JUMPDEST PUSH1 0x0 PUSH1 0x20 DUP3 ADD SWAP1 POP PUSH2 0x657 PUSH1 0x0 DUP4 ADD DUP5 PUSH2 0x5D4 JUMP JUMPDEST SWAP3 SWAP2 POP POP JUMP JUMPDEST PUSH1 0x0 PUSH1 0xA0 DUP3 ADD SWAP1 POP PUSH2 0x672 PUSH1 0x0 DUP4 ADD DUP9 PUSH2 0x5D4 JUMP JUMPDEST PUSH2 0x67F PUSH1 0x20 DUP4 ADD DUP8 PUSH2 0x5D4 JUMP JUMPDEST PUSH2 0x68C PUSH1 0x40 DUP4 ADD DUP7 PUSH2 0x456 JUMP JUMPDEST PUSH2 0x699 PUSH1 0x60 DUP4 ADD DUP6 PUSH2 0x5D4 JUMP JUMPDEST PUSH2 0x6A6 PUSH1 0x80 DUP4 ADD DUP5 PUSH2 0x54E JUMP JUMPDEST SWAP7 SWAP6 POP POP POP POP POP POP JUMP JUMPDEST PUSH1 0x0 DUP2 SWAP1 POP PUSH1 0x20 DUP3 ADD SWAP1 POP SWAP2 SWAP1 POP JUMP JUMPDEST PUSH1 0x0 DUP2 SWAP1 POP PUSH1 0x20 DUP3 ADD SWAP1 POP SWAP2 SWAP1 POP JUMP JUMPDEST PUSH1 0x0 DUP2 MLOAD SWAP1 POP SWAP2 SWAP1 POP JUMP JUMPDEST PUSH1 0x0 DUP2 MLOAD SWAP1 POP SWAP2 SWAP1 POP JUMP JUMPDEST PUSH1 0x0 PUSH1 0x20 DUP3 ADD SWAP1 POP SWAP2 SWAP1 POP JUMP JUMPDEST PUSH1 0x0 PUSH1 0x20 DUP3 ADD SWAP1 POP SWAP2 SWAP1 POP JUMP JUMPDEST PUSH1 0x0 DUP3 DUP3 MSTORE PUSH1 0x20 DUP3 ADD SWAP1 POP SWAP3 SWAP2 POP POP JUMP JUMPDEST PUSH1 0x0 DUP3 DUP3 MSTORE PUSH1 0x20 DUP3 ADD SWAP1 POP SWAP3 SWAP2 POP POP JUMP JUMPDEST PUSH1 0x0 PUSH2 0x72D DUP3 PUSH2 0x752 JUMP JUMPDEST SWAP1 POP SWAP2 SWAP1 POP JUMP JUMPDEST PUSH1 0x0 PUSH2 0x73F DUP3 PUSH2 0x752 JUMP JUMPDEST SWAP1 POP SWAP2 SWAP1 POP JUMP JUMPDEST PUSH1 0x0 DUP2 ISZERO ISZERO SWAP1 POP SWAP2 SWAP1 POP JUMP JUMPDEST PUSH1 0x0 PUSH20 0xFFFFFFFFFFFFFFFFFFFFFFFFFFFFFFFFFFFFFFFF DUP3 AND SWAP1 POP SWAP2 SWAP1 POP JUMP JUMPDEST PUSH1 0x0 DUP2 SWAP1 POP SWAP2 SWAP1 POP JUMP JUMPDEST PUSH2 0x785 DUP2 PUSH2 0x734 JUMP JUMPDEST DUP2 EQ PUSH2 0x790 JUMPI PUSH1 0x0 DUP1 REVERT JUMPDEST POP JUMP JUMPDEST PUSH2 0x79C DUP2 PUSH2 0x772 JUMP JUMPDEST DUP2 EQ PUSH2 0x7A7 JUMPI PUSH1 0x0 DUP1 REVERT JUMPDEST POP JUMP INVALID LOG2 PUSH5 0x6970667358 0x22 SLT KECCAK256 0xE9 DUP9 SWAP7 STATICCALL 0x2D SWAP3 0x21 0xA5 0xB9 EXTCODECOPY PC PUSH2 0xEDF2 SWAP11 0xA8 PUSH26 0x95822D0432973ED322E7CB941C0D7764736F6C63430008000033 "
				},
				"gasEstimates": {
					"creation": {
						"codeDepositCost": "403200",
						"executionCost": "infinite",
						"totalCost": "infinite"
					},
					"external": {
						"approvers(uint256)": "2422",
						"create_transfer(uint256,address)": "109301",
						"get_approvers()": "infinite",
						"get_transfers()": "infinite",
						"quorum()": "1129",
						"transfers(uint256)": "infinite"
					}
				},
				"methodIdentifiers": {
					"approvers(uint256)": "d3650fb8",
					"create_transfer(uint256,address)": "01d9c112",
					"get_approvers()": "e90af376",
					"get_transfers()": "8607d56d",
					"quorum()": "1703a018",
					"transfers(uint256)": "9377d711"
				}
			},
			"storageLayout": {
				"storage": [
					{
						"astId": 4,
						"contract": "Wallet.sol:Wallet",
						"label": "approvers",
						"offset": 0,
						"slot": "0",
						"type": "t_array(t_address)dyn_storage"
					},
					{
						"astId": 6,
						"contract": "Wallet.sol:Wallet",
						"label": "quorum",
						"offset": 0,
						"slot": "1",
						"type": "t_uint256"
					},
					{
						"astId": 21,
						"contract": "Wallet.sol:Wallet",
						"label": "transfers",
						"offset": 0,
						"slot": "2",
						"type": "t_array(t_struct(Transfer)17_storage)dyn_storage"
					}
				],
				"types": {
					"t_address": {
						"encoding": "inplace",
						"label": "address",
						"numberOfBytes": "20"
					},
					"t_address_payable": {
						"encoding": "inplace",
						"label": "address payable",
						"numberOfBytes": "20"
					},
					"t_array(t_address)dyn_storage": {
						"base": "t_address",
						"encoding": "dynamic_array",
						"label": "address[]",
						"numberOfBytes": "32"
					},
					"t_array(t_struct(Transfer)17_storage)dyn_storage": {
						"base": "t_struct(Transfer)17_storage",
						"encoding": "dynamic_array",
						"label": "struct Wallet.Transfer[]",
						"numberOfBytes": "32"
					},
					"t_bool": {
						"encoding": "inplace",
						"label": "bool",
						"numberOfBytes": "1"
					},
					"t_struct(Transfer)17_storage": {
						"encoding": "inplace",
						"label": "struct Wallet.Transfer",
						"members": [
							{
								"astId": 8,
								"contract": "Wallet.sol:Wallet",
								"label": "id",
								"offset": 0,
								"slot": "0",
								"type": "t_uint256"
							},
							{
								"astId": 10,
								"contract": "Wallet.sol:Wallet",
								"label": "amount",
								"offset": 0,
								"slot": "1",
								"type": "t_uint256"
							},
							{
								"astId": 12,
								"contract": "Wallet.sol:Wallet",
								"label": "to",
								"offset": 0,
								"slot": "2",
								"type": "t_address_payable"
							},
							{
								"astId": 14,
								"contract": "Wallet.sol:Wallet",
								"label": "approvals",
								"offset": 0,
								"slot": "3",
								"type": "t_uint256"
							},
							{
								"astId": 16,
								"contract": "Wallet.sol:Wallet",
								"label": "sent",
								"offset": 0,
								"slot": "4",
								"type": "t_bool"
							}
						],
						"numberOfBytes": "160"
					},
					"t_uint256": {
						"encoding": "inplace",
						"label": "uint256",
						"numberOfBytes": "32"
					}
				}
			},
			"userdoc": {
				"kind": "user",
				"methods": {},
				"version": 1
			}
		}
	}
}