{
	"Dex.sol": {
		"Dex": {
			"abi": [
				{
					"inputs": [],
					"stateMutability": "nonpayable",
					"type": "constructor"
				},
				{
					"inputs": [
						{
							"internalType": "bytes32",
							"name": "ticker",
							"type": "bytes32"
						},
						{
							"internalType": "address",
							"name": "token_address",
							"type": "address"
						}
					],
					"name": "add_token",
					"outputs": [],
					"stateMutability": "nonpayable",
					"type": "function"
				},
				{
					"inputs": [],
					"name": "admin",
					"outputs": [
						{
							"internalType": "address",
							"name": "",
							"type": "address"
						}
					],
					"stateMutability": "view",
					"type": "function"
				},
				{
					"inputs": [
						{
							"internalType": "uint256",
							"name": "amount",
							"type": "uint256"
						},
						{
							"internalType": "bytes32",
							"name": "ticker",
							"type": "bytes32"
						}
					],
					"name": "deposit",
					"outputs": [],
					"stateMutability": "nonpayable",
					"type": "function"
				},
				{
					"inputs": [
						{
							"internalType": "uint256",
							"name": "",
							"type": "uint256"
						}
					],
					"name": "token_list",
					"outputs": [
						{
							"internalType": "bytes32",
							"name": "",
							"type": "bytes32"
						}
					],
					"stateMutability": "view",
					"type": "function"
				},
				{
					"inputs": [
						{
							"internalType": "bytes32",
							"name": "",
							"type": "bytes32"
						}
					],
					"name": "tokens",
					"outputs": [
						{
							"internalType": "bytes32",
							"name": "ticker",
							"type": "bytes32"
						},
						{
							"internalType": "address",
							"name": "token_address",
							"type": "address"
						}
					],
					"stateMutability": "view",
					"type": "function"
				},
				{
					"inputs": [
						{
							"internalType": "address",
							"name": "",
							"type": "address"
						},
						{
							"internalType": "bytes32",
							"name": "",
							"type": "bytes32"
						}
					],
					"name": "trader_balances",
					"outputs": [
						{
							"internalType": "uint256",
							"name": "",
							"type": "uint256"
						}
					],
					"stateMutability": "view",
					"type": "function"
				},
				{
					"inputs": [
						{
							"internalType": "uint256",
							"name": "amount",
							"type": "uint256"
						},
						{
							"internalType": "bytes32",
							"name": "ticker",
							"type": "bytes32"
						}
					],
					"name": "withdraw",
					"outputs": [],
					"stateMutability": "nonpayable",
					"type": "function"
				}
			],
			"devdoc": {
				"kind": "dev",
				"methods": {},
				"version": 1
			},
			"evm": {
				"assembly": "    /* \"Dex.sol\":167:2563  contract Dex {... */\n  mstore(0x40, 0x80)\n    /* \"Dex.sol\":771:858  constructor() public {... */\n  callvalue\n  dup1\n  iszero\n  tag_1\n  jumpi\n  0x00\n  dup1\n  revert\ntag_1:\n  pop\n    /* \"Dex.sol\":841:851  msg.sender */\n  caller\n    /* \"Dex.sol\":833:838  admin */\n  0x02\n  0x00\n    /* \"Dex.sol\":833:851  admin = msg.sender */\n  0x0100\n  exp\n  dup2\n  sload\n  dup2\n  0xffffffffffffffffffffffffffffffffffffffff\n  mul\n  not\n  and\n  swap1\n  dup4\n  0xffffffffffffffffffffffffffffffffffffffff\n  and\n  mul\n  or\n  swap1\n  sstore\n  pop\n    /* \"Dex.sol\":167:2563  contract Dex {... */\n  dataSize(sub_0)\n  dup1\n  dataOffset(sub_0)\n  0x00\n  codecopy\n  0x00\n  return\nstop\n\nsub_0: assembly {\n        /* \"Dex.sol\":167:2563  contract Dex {... */\n      mstore(0x40, 0x80)\n      callvalue\n      dup1\n      iszero\n      tag_1\n      jumpi\n      0x00\n      dup1\n      revert\n    tag_1:\n      pop\n      jumpi(tag_2, lt(calldatasize, 0x04))\n      shr(0xe0, calldataload(0x00))\n      dup1\n      0xa8d2021a\n      gt\n      tag_10\n      jumpi\n      dup1\n      0xa8d2021a\n      eq\n      tag_6\n      jumpi\n      dup1\n      0xa962846a\n      eq\n      tag_7\n      jumpi\n      dup1\n      0xc9630cb0\n      eq\n      tag_8\n      jumpi\n      dup1\n      0xf851a440\n      eq\n      tag_9\n      jumpi\n      jump(tag_2)\n    tag_10:\n      dup1\n      0x1b66807d\n      eq\n      tag_3\n      jumpi\n      dup1\n      0x538cad00\n      eq\n      tag_4\n      jumpi\n      dup1\n      0x904194a3\n      eq\n      tag_5\n      jumpi\n    tag_2:\n      0x00\n      dup1\n      revert\n        /* \"Dex.sol\":905:1097  function add_token(bytes32 ticker, address token_address)... */\n    tag_3:\n      tag_11\n      0x04\n      dup1\n      calldatasize\n      sub\n      dup2\n      add\n      swap1\n      tag_12\n      swap2\n      swap1\n      tag_13\n      jump\t// in\n    tag_12:\n      tag_14\n      jump\t// in\n    tag_11:\n      stop\n        /* \"Dex.sol\":593:620  bytes32[] public token_list */\n    tag_4:\n      tag_15\n      0x04\n      dup1\n      calldatasize\n      sub\n      dup2\n      add\n      swap1\n      tag_16\n      swap2\n      swap1\n      tag_17\n      jump\t// in\n    tag_16:\n      tag_18\n      jump\t// in\n    tag_15:\n      mload(0x40)\n      tag_19\n      swap2\n      swap1\n      tag_20\n      jump\t// in\n    tag_19:\n      mload(0x40)\n      dup1\n      swap2\n      sub\n      swap1\n      return\n        /* \"Dex.sol\":518:557  mapping(bytes32 => Token) public tokens */\n    tag_5:\n      tag_21\n      0x04\n      dup1\n      calldatasize\n      sub\n      dup2\n      add\n      swap1\n      tag_22\n      swap2\n      swap1\n      tag_23\n      jump\t// in\n    tag_22:\n      tag_24\n      jump\t// in\n    tag_21:\n      mload(0x40)\n      tag_25\n      swap3\n      swap2\n      swap1\n      tag_26\n      jump\t// in\n    tag_25:\n      mload(0x40)\n      dup1\n      swap2\n      sub\n      swap1\n      return\n        /* \"Dex.sol\":1637:2286  function withdraw(uint256 amount, bytes32 ticker)... */\n    tag_6:\n      tag_27\n      0x04\n      dup1\n      calldatasize\n      sub\n      dup2\n      add\n      swap1\n      tag_28\n      swap2\n      swap1\n      tag_29\n      jump\t// in\n    tag_28:\n      tag_30\n      jump\t// in\n    tag_27:\n      stop\n        /* \"Dex.sol\":694:764  mapping(address => mapping(bytes32 => uint256)) public trader_balances */\n    tag_7:\n      tag_31\n      0x04\n      dup1\n      calldatasize\n      sub\n      dup2\n      add\n      swap1\n      tag_32\n      swap2\n      swap1\n      tag_33\n      jump\t// in\n    tag_32:\n      tag_34\n      jump\t// in\n    tag_31:\n      mload(0x40)\n      tag_35\n      swap2\n      swap1\n      tag_36\n      jump\t// in\n    tag_35:\n      mload(0x40)\n      dup1\n      swap2\n      sub\n      swap1\n      return\n        /* \"Dex.sol\":1144:1592  function deposit(uint256 amount, bytes32 ticker)... */\n    tag_8:\n      tag_37\n      0x04\n      dup1\n      calldatasize\n      sub\n      dup2\n      add\n      swap1\n      tag_38\n      swap2\n      swap1\n      tag_29\n      jump\t// in\n    tag_38:\n      tag_39\n      jump\t// in\n    tag_37:\n      stop\n        /* \"Dex.sol\":668:688  address public admin */\n    tag_9:\n      tag_40\n      tag_41\n      jump\t// in\n    tag_40:\n      mload(0x40)\n      tag_42\n      swap2\n      swap1\n      tag_43\n      jump\t// in\n    tag_42:\n      mload(0x40)\n      dup1\n      swap2\n      sub\n      swap1\n      return\n        /* \"Dex.sol\":905:1097  function add_token(bytes32 ticker, address token_address)... */\n    tag_14:\n        /* \"Dex.sol\":2523:2528  admin */\n      0x02\n      0x00\n      swap1\n      sload\n      swap1\n      0x0100\n      exp\n      swap1\n      div\n      0xffffffffffffffffffffffffffffffffffffffff\n      and\n        /* \"Dex.sol\":2509:2528  msg.sender == admin */\n      0xffffffffffffffffffffffffffffffffffffffff\n      and\n        /* \"Dex.sol\":2509:2519  msg.sender */\n      caller\n        /* \"Dex.sol\":2509:2528  msg.sender == admin */\n      0xffffffffffffffffffffffffffffffffffffffff\n      and\n      eq\n        /* \"Dex.sol\":2501:2543  require(msg.sender == admin, \"Only Admin\") */\n      tag_45\n      jumpi\n      mload(0x40)\n      0x08c379a000000000000000000000000000000000000000000000000000000000\n      dup2\n      mstore\n      0x04\n      add\n      tag_46\n      swap1\n      tag_47\n      jump\t// in\n    tag_46:\n      mload(0x40)\n      dup1\n      swap2\n      sub\n      swap1\n      revert\n    tag_45:\n        /* \"Dex.sol\":1029:1057  Token(ticker, token_address) */\n      mload(0x40)\n      dup1\n      0x40\n      add\n      0x40\n      mstore\n      dup1\n        /* \"Dex.sol\":1035:1041  ticker */\n      dup4\n        /* \"Dex.sol\":1029:1057  Token(ticker, token_address) */\n      dup2\n      mstore\n      0x20\n      add\n        /* \"Dex.sol\":1043:1056  token_address */\n      dup3\n        /* \"Dex.sol\":1029:1057  Token(ticker, token_address) */\n      0xffffffffffffffffffffffffffffffffffffffff\n      and\n      dup2\n      mstore\n      pop\n        /* \"Dex.sol\":1012:1018  tokens */\n      0x00\n        /* \"Dex.sol\":1012:1026  tokens[ticker] */\n      dup1\n        /* \"Dex.sol\":1019:1025  ticker */\n      dup5\n        /* \"Dex.sol\":1012:1026  tokens[ticker] */\n      dup2\n      mstore\n      0x20\n      add\n      swap1\n      dup2\n      mstore\n      0x20\n      add\n      0x00\n      keccak256\n        /* \"Dex.sol\":1012:1057  tokens[ticker] = Token(ticker, token_address) */\n      0x00\n      dup3\n      add\n      mload\n      dup2\n      0x00\n      add\n      sstore\n      0x20\n      dup3\n      add\n      mload\n      dup2\n      0x01\n      add\n      exp(0x0100, 0x00)\n      dup2\n      sload\n      dup2\n      0xffffffffffffffffffffffffffffffffffffffff\n      mul\n      not\n      and\n      swap1\n      dup4\n      0xffffffffffffffffffffffffffffffffffffffff\n      and\n      mul\n      or\n      swap1\n      sstore\n      pop\n      swap1\n      pop\n      pop\n        /* \"Dex.sol\":1067:1077  token_list */\n      0x01\n        /* \"Dex.sol\":1083:1089  ticker */\n      dup3\n        /* \"Dex.sol\":1067:1090  token_list.push(ticker) */\n      swap1\n      dup1\n      0x01\n      dup2\n      sload\n      add\n      dup1\n      dup3\n      sstore\n      dup1\n      swap2\n      pop\n      pop\n      0x01\n      swap1\n      sub\n      swap1\n      0x00\n      mstore\n      keccak256(0x00, 0x20)\n      add\n      0x00\n      swap1\n      swap2\n      swap1\n      swap2\n      swap1\n      swap2\n      pop\n      sstore\n        /* \"Dex.sol\":905:1097  function add_token(bytes32 ticker, address token_address)... */\n      pop\n      pop\n      jump\t// out\n        /* \"Dex.sol\":593:620  bytes32[] public token_list */\n    tag_18:\n      0x01\n      dup2\n      dup2\n      sload\n      dup2\n      lt\n      tag_50\n      jumpi\n      0x00\n      dup1\n      revert\n    tag_50:\n      swap1\n      0x00\n      mstore\n      keccak256(0x00, 0x20)\n      add\n      0x00\n      swap2\n      pop\n      swap1\n      pop\n      sload\n      dup2\n      jump\t// out\n        /* \"Dex.sol\":518:557  mapping(bytes32 => Token) public tokens */\n    tag_24:\n      mstore(0x20, 0x00)\n      dup1\n      0x00\n      mstore\n      keccak256(0x00, 0x40)\n      0x00\n      swap2\n      pop\n      swap1\n      pop\n      dup1\n      0x00\n      add\n      sload\n      swap1\n      dup1\n      0x01\n      add\n      0x00\n      swap1\n      sload\n      swap1\n      0x0100\n      exp\n      swap1\n      div\n      0xffffffffffffffffffffffffffffffffffffffff\n      and\n      swap1\n      pop\n      dup3\n      jump\t// out\n        /* \"Dex.sol\":1637:2286  function withdraw(uint256 amount, bytes32 ticker)... */\n    tag_30:\n        /* \"Dex.sol\":1723:1729  ticker */\n      dup1\n        /* \"Dex.sol\":2399:2400  0 */\n      0x00\n        /* \"Dex.sol\":2359:2401  tokens[ticker].token_address != address(0) */\n      0xffffffffffffffffffffffffffffffffffffffff\n      and\n        /* \"Dex.sol\":2359:2365  tokens */\n      0x00\n        /* \"Dex.sol\":2359:2373  tokens[ticker] */\n      dup1\n        /* \"Dex.sol\":2366:2372  ticker */\n      dup4\n        /* \"Dex.sol\":2359:2373  tokens[ticker] */\n      dup2\n      mstore\n      0x20\n      add\n      swap1\n      dup2\n      mstore\n      0x20\n      add\n      0x00\n      keccak256\n        /* \"Dex.sol\":2359:2387  tokens[ticker].token_address */\n      0x01\n      add\n      0x00\n      swap1\n      sload\n      swap1\n      0x0100\n      exp\n      swap1\n      div\n      0xffffffffffffffffffffffffffffffffffffffff\n      and\n        /* \"Dex.sol\":2359:2401  tokens[ticker].token_address != address(0) */\n      0xffffffffffffffffffffffffffffffffffffffff\n      and\n      eq\n      iszero\n        /* \"Dex.sol\":2338:2446  require(... */\n      tag_53\n      jumpi\n      mload(0x40)\n      0x08c379a000000000000000000000000000000000000000000000000000000000\n      dup2\n      mstore\n      0x04\n      add\n      tag_54\n      swap1\n      tag_55\n      jump\t// in\n    tag_54:\n      mload(0x40)\n      dup1\n      swap2\n      sub\n      swap1\n      revert\n    tag_53:\n        /* \"Dex.sol\":1850:1856  amount */\n      dup3\n        /* \"Dex.sol\":1811:1826  trader_balances */\n      0x03\n        /* \"Dex.sol\":1811:1838  trader_balances[msg.sender] */\n      0x00\n        /* \"Dex.sol\":1827:1837  msg.sender */\n      caller\n        /* \"Dex.sol\":1811:1838  trader_balances[msg.sender] */\n      0xffffffffffffffffffffffffffffffffffffffff\n      and\n      0xffffffffffffffffffffffffffffffffffffffff\n      and\n      dup2\n      mstore\n      0x20\n      add\n      swap1\n      dup2\n      mstore\n      0x20\n      add\n      0x00\n      keccak256\n        /* \"Dex.sol\":1811:1846  trader_balances[msg.sender][ticker] */\n      0x00\n        /* \"Dex.sol\":1839:1845  ticker */\n      dup5\n        /* \"Dex.sol\":1811:1846  trader_balances[msg.sender][ticker] */\n      dup2\n      mstore\n      0x20\n      add\n      swap1\n      dup2\n      mstore\n      0x20\n      add\n      0x00\n      keccak256\n      sload\n        /* \"Dex.sol\":1811:1856  trader_balances[msg.sender][ticker] >= amount */\n      lt\n      iszero\n        /* \"Dex.sol\":1790:1902  require(... */\n      tag_57\n      jumpi\n      mload(0x40)\n      0x08c379a000000000000000000000000000000000000000000000000000000000\n      dup2\n      mstore\n      0x04\n      add\n      tag_58\n      swap1\n      tag_59\n      jump\t// in\n    tag_58:\n      mload(0x40)\n      dup1\n      swap2\n      sub\n      swap1\n      revert\n    tag_57:\n        /* \"Dex.sol\":2065:2071  amount */\n      dup3\n        /* \"Dex.sol\":2026:2041  trader_balances */\n      0x03\n        /* \"Dex.sol\":2026:2053  trader_balances[msg.sender] */\n      0x00\n        /* \"Dex.sol\":2042:2052  msg.sender */\n      caller\n        /* \"Dex.sol\":2026:2053  trader_balances[msg.sender] */\n      0xffffffffffffffffffffffffffffffffffffffff\n      and\n      0xffffffffffffffffffffffffffffffffffffffff\n      and\n      dup2\n      mstore\n      0x20\n      add\n      swap1\n      dup2\n      mstore\n      0x20\n      add\n      0x00\n      keccak256\n        /* \"Dex.sol\":2026:2061  trader_balances[msg.sender][ticker] */\n      0x00\n        /* \"Dex.sol\":2054:2060  ticker */\n      dup5\n        /* \"Dex.sol\":2026:2061  trader_balances[msg.sender][ticker] */\n      dup2\n      mstore\n      0x20\n      add\n      swap1\n      dup2\n      mstore\n      0x20\n      add\n      0x00\n      keccak256\n      0x00\n        /* \"Dex.sol\":2026:2071  trader_balances[msg.sender][ticker] -= amount */\n      dup3\n      dup3\n      sload\n      tag_60\n      swap2\n      swap1\n      tag_61\n      jump\t// in\n    tag_60:\n      swap3\n      pop\n      pop\n      dup2\n      swap1\n      sstore\n      pop\n        /* \"Dex.sol\":2221:2227  tokens */\n      0x00\n        /* \"Dex.sol\":2221:2235  tokens[ticker] */\n      dup1\n        /* \"Dex.sol\":2228:2234  ticker */\n      dup4\n        /* \"Dex.sol\":2221:2235  tokens[ticker] */\n      dup2\n      mstore\n      0x20\n      add\n      swap1\n      dup2\n      mstore\n      0x20\n      add\n      0x00\n      keccak256\n        /* \"Dex.sol\":2221:2249  tokens[ticker].token_address */\n      0x01\n      add\n      0x00\n      swap1\n      sload\n      swap1\n      0x0100\n      exp\n      swap1\n      div\n      0xffffffffffffffffffffffffffffffffffffffff\n      and\n        /* \"Dex.sol\":2214:2259  IERC20(tokens[ticker].token_address).transfer */\n      0xffffffffffffffffffffffffffffffffffffffff\n      and\n      0xa9059cbb\n        /* \"Dex.sol\":2260:2270  msg.sender */\n      caller\n        /* \"Dex.sol\":2272:2278  amount */\n      dup6\n        /* \"Dex.sol\":2214:2279  IERC20(tokens[ticker].token_address).transfer(msg.sender, amount) */\n      mload(0x40)\n      dup4\n      0xffffffff\n      and\n      0xe0\n      shl\n      dup2\n      mstore\n      0x04\n      add\n      tag_62\n      swap3\n      swap2\n      swap1\n      tag_63\n      jump\t// in\n    tag_62:\n      0x20\n      mload(0x40)\n      dup1\n      dup4\n      sub\n      dup2\n      0x00\n      dup8\n      dup1\n      extcodesize\n      iszero\n      dup1\n      iszero\n      tag_64\n      jumpi\n      0x00\n      dup1\n      revert\n    tag_64:\n      pop\n      gas\n      call\n      iszero\n      dup1\n      iszero\n      tag_66\n      jumpi\n      returndatasize\n      0x00\n      dup1\n      returndatacopy\n      revert(0x00, returndatasize)\n    tag_66:\n      pop\n      pop\n      pop\n      pop\n      mload(0x40)\n      returndatasize\n      not(0x1f)\n      0x1f\n      dup3\n      add\n      and\n      dup3\n      add\n      dup1\n      0x40\n      mstore\n      pop\n      dup2\n      add\n      swap1\n      tag_67\n      swap2\n      swap1\n      tag_68\n      jump\t// in\n    tag_67:\n      pop\n        /* \"Dex.sol\":1637:2286  function withdraw(uint256 amount, bytes32 ticker)... */\n      pop\n      pop\n      pop\n      jump\t// out\n        /* \"Dex.sol\":694:764  mapping(address => mapping(bytes32 => uint256)) public trader_balances */\n    tag_34:\n      mstore(0x20, 0x03)\n      dup2\n      0x00\n      mstore\n      mstore(0x20, keccak256(0x00, 0x40))\n      dup1\n      0x00\n      mstore\n      keccak256(0x00, 0x40)\n      0x00\n      swap2\n      pop\n      swap2\n      pop\n      pop\n      sload\n      dup2\n      jump\t// out\n        /* \"Dex.sol\":1144:1592  function deposit(uint256 amount, bytes32 ticker)... */\n    tag_39:\n        /* \"Dex.sol\":1229:1235  ticker */\n      dup1\n        /* \"Dex.sol\":2399:2400  0 */\n      0x00\n        /* \"Dex.sol\":2359:2401  tokens[ticker].token_address != address(0) */\n      0xffffffffffffffffffffffffffffffffffffffff\n      and\n        /* \"Dex.sol\":2359:2365  tokens */\n      0x00\n        /* \"Dex.sol\":2359:2373  tokens[ticker] */\n      dup1\n        /* \"Dex.sol\":2366:2372  ticker */\n      dup4\n        /* \"Dex.sol\":2359:2373  tokens[ticker] */\n      dup2\n      mstore\n      0x20\n      add\n      swap1\n      dup2\n      mstore\n      0x20\n      add\n      0x00\n      keccak256\n        /* \"Dex.sol\":2359:2387  tokens[ticker].token_address */\n      0x01\n      add\n      0x00\n      swap1\n      sload\n      swap1\n      0x0100\n      exp\n      swap1\n      div\n      0xffffffffffffffffffffffffffffffffffffffff\n      and\n        /* \"Dex.sol\":2359:2401  tokens[ticker].token_address != address(0) */\n      0xffffffffffffffffffffffffffffffffffffffff\n      and\n      eq\n      iszero\n        /* \"Dex.sol\":2338:2446  require(... */\n      tag_70\n      jumpi\n      mload(0x40)\n      0x08c379a000000000000000000000000000000000000000000000000000000000\n      dup2\n      mstore\n      0x04\n      add\n      tag_71\n      swap1\n      tag_55\n      jump\t// in\n    tag_71:\n      mload(0x40)\n      dup1\n      swap2\n      sub\n      swap1\n      revert\n    tag_70:\n        /* \"Dex.sol\":1339:1345  tokens */\n      0x00\n        /* \"Dex.sol\":1339:1353  tokens[ticker] */\n      dup1\n        /* \"Dex.sol\":1346:1352  ticker */\n      dup4\n        /* \"Dex.sol\":1339:1353  tokens[ticker] */\n      dup2\n      mstore\n      0x20\n      add\n      swap1\n      dup2\n      mstore\n      0x20\n      add\n      0x00\n      keccak256\n        /* \"Dex.sol\":1339:1367  tokens[ticker].token_address */\n      0x01\n      add\n      0x00\n      swap1\n      sload\n      swap1\n      0x0100\n      exp\n      swap1\n      div\n      0xffffffffffffffffffffffffffffffffffffffff\n      and\n        /* \"Dex.sol\":1332:1381  IERC20(tokens[ticker].token_address).transferFrom */\n      0xffffffffffffffffffffffffffffffffffffffff\n      and\n      0x23b872dd\n        /* \"Dex.sol\":1395:1405  msg.sender */\n      caller\n        /* \"Dex.sol\":1427:1431  this */\n      address\n        /* \"Dex.sol\":1446:1452  amount */\n      dup7\n        /* \"Dex.sol\":1332:1462  IERC20(tokens[ticker].token_address).transferFrom(... */\n      mload(0x40)\n      dup5\n      0xffffffff\n      and\n      0xe0\n      shl\n      dup2\n      mstore\n      0x04\n      add\n      tag_73\n      swap4\n      swap3\n      swap2\n      swap1\n      tag_74\n      jump\t// in\n    tag_73:\n      0x20\n      mload(0x40)\n      dup1\n      dup4\n      sub\n      dup2\n      0x00\n      dup8\n      dup1\n      extcodesize\n      iszero\n      dup1\n      iszero\n      tag_75\n      jumpi\n      0x00\n      dup1\n      revert\n    tag_75:\n      pop\n      gas\n      call\n      iszero\n      dup1\n      iszero\n      tag_77\n      jumpi\n      returndatasize\n      0x00\n      dup1\n      returndatacopy\n      revert(0x00, returndatasize)\n    tag_77:\n      pop\n      pop\n      pop\n      pop\n      mload(0x40)\n      returndatasize\n      not(0x1f)\n      0x1f\n      dup3\n      add\n      and\n      dup3\n      add\n      dup1\n      0x40\n      mstore\n      pop\n      dup2\n      add\n      swap1\n      tag_78\n      swap2\n      swap1\n      tag_68\n      jump\t// in\n    tag_78:\n      pop\n        /* \"Dex.sol\":1579:1585  amount */\n      dup3\n        /* \"Dex.sol\":1540:1555  trader_balances */\n      0x03\n        /* \"Dex.sol\":1540:1567  trader_balances[msg.sender] */\n      0x00\n        /* \"Dex.sol\":1556:1566  msg.sender */\n      caller\n        /* \"Dex.sol\":1540:1567  trader_balances[msg.sender] */\n      0xffffffffffffffffffffffffffffffffffffffff\n      and\n      0xffffffffffffffffffffffffffffffffffffffff\n      and\n      dup2\n      mstore\n      0x20\n      add\n      swap1\n      dup2\n      mstore\n      0x20\n      add\n      0x00\n      keccak256\n        /* \"Dex.sol\":1540:1575  trader_balances[msg.sender][ticker] */\n      0x00\n        /* \"Dex.sol\":1568:1574  ticker */\n      dup5\n        /* \"Dex.sol\":1540:1575  trader_balances[msg.sender][ticker] */\n      dup2\n      mstore\n      0x20\n      add\n      swap1\n      dup2\n      mstore\n      0x20\n      add\n      0x00\n      keccak256\n      0x00\n        /* \"Dex.sol\":1540:1585  trader_balances[msg.sender][ticker] += amount */\n      dup3\n      dup3\n      sload\n      tag_79\n      swap2\n      swap1\n      tag_80\n      jump\t// in\n    tag_79:\n      swap3\n      pop\n      pop\n      dup2\n      swap1\n      sstore\n      pop\n        /* \"Dex.sol\":1144:1592  function deposit(uint256 amount, bytes32 ticker)... */\n      pop\n      pop\n      pop\n      jump\t// out\n        /* \"Dex.sol\":668:688  address public admin */\n    tag_41:\n      0x02\n      0x00\n      swap1\n      sload\n      swap1\n      0x0100\n      exp\n      swap1\n      div\n      0xffffffffffffffffffffffffffffffffffffffff\n      and\n      dup2\n      jump\t// out\n        /* \"#utility.yul\":7:146   */\n    tag_82:\n      0x00\n        /* \"#utility.yul\":91:97   */\n      dup2\n        /* \"#utility.yul\":78:98   */\n      calldataload\n        /* \"#utility.yul\":69:98   */\n      swap1\n      pop\n        /* \"#utility.yul\":107:140   */\n      tag_84\n        /* \"#utility.yul\":134:139   */\n      dup2\n        /* \"#utility.yul\":107:140   */\n      tag_85\n      jump\t// in\n    tag_84:\n        /* \"#utility.yul\":59:146   */\n      swap3\n      swap2\n      pop\n      pop\n      jump\t// out\n        /* \"#utility.yul\":152:289   */\n    tag_86:\n      0x00\n        /* \"#utility.yul\":237:243   */\n      dup2\n        /* \"#utility.yul\":231:244   */\n      mload\n        /* \"#utility.yul\":222:244   */\n      swap1\n      pop\n        /* \"#utility.yul\":253:283   */\n      tag_88\n        /* \"#utility.yul\":277:282   */\n      dup2\n        /* \"#utility.yul\":253:283   */\n      tag_89\n      jump\t// in\n    tag_88:\n        /* \"#utility.yul\":212:289   */\n      swap3\n      swap2\n      pop\n      pop\n      jump\t// out\n        /* \"#utility.yul\":295:434   */\n    tag_90:\n      0x00\n        /* \"#utility.yul\":379:385   */\n      dup2\n        /* \"#utility.yul\":366:386   */\n      calldataload\n        /* \"#utility.yul\":357:386   */\n      swap1\n      pop\n        /* \"#utility.yul\":395:428   */\n      tag_92\n        /* \"#utility.yul\":422:427   */\n      dup2\n        /* \"#utility.yul\":395:428   */\n      tag_93\n      jump\t// in\n    tag_92:\n        /* \"#utility.yul\":347:434   */\n      swap3\n      swap2\n      pop\n      pop\n      jump\t// out\n        /* \"#utility.yul\":440:579   */\n    tag_94:\n      0x00\n        /* \"#utility.yul\":524:530   */\n      dup2\n        /* \"#utility.yul\":511:531   */\n      calldataload\n        /* \"#utility.yul\":502:531   */\n      swap1\n      pop\n        /* \"#utility.yul\":540:573   */\n      tag_96\n        /* \"#utility.yul\":567:572   */\n      dup2\n        /* \"#utility.yul\":540:573   */\n      tag_97\n      jump\t// in\n    tag_96:\n        /* \"#utility.yul\":492:579   */\n      swap3\n      swap2\n      pop\n      pop\n      jump\t// out\n        /* \"#utility.yul\":585:992   */\n    tag_33:\n      0x00\n      dup1\n        /* \"#utility.yul\":710:712   */\n      0x40\n        /* \"#utility.yul\":698:707   */\n      dup4\n        /* \"#utility.yul\":689:696   */\n      dup6\n        /* \"#utility.yul\":685:708   */\n      sub\n        /* \"#utility.yul\":681:713   */\n      slt\n        /* \"#utility.yul\":678:680   */\n      iszero\n      tag_99\n      jumpi\n        /* \"#utility.yul\":726:727   */\n      0x00\n        /* \"#utility.yul\":723:724   */\n      dup1\n        /* \"#utility.yul\":716:728   */\n      revert\n        /* \"#utility.yul\":678:680   */\n    tag_99:\n        /* \"#utility.yul\":769:770   */\n      0x00\n        /* \"#utility.yul\":794:847   */\n      tag_100\n        /* \"#utility.yul\":839:846   */\n      dup6\n        /* \"#utility.yul\":830:836   */\n      dup3\n        /* \"#utility.yul\":819:828   */\n      dup7\n        /* \"#utility.yul\":815:837   */\n      add\n        /* \"#utility.yul\":794:847   */\n      tag_82\n      jump\t// in\n    tag_100:\n        /* \"#utility.yul\":784:847   */\n      swap3\n      pop\n        /* \"#utility.yul\":740:857   */\n      pop\n        /* \"#utility.yul\":896:898   */\n      0x20\n        /* \"#utility.yul\":922:975   */\n      tag_101\n        /* \"#utility.yul\":967:974   */\n      dup6\n        /* \"#utility.yul\":958:964   */\n      dup3\n        /* \"#utility.yul\":947:956   */\n      dup7\n        /* \"#utility.yul\":943:965   */\n      add\n        /* \"#utility.yul\":922:975   */\n      tag_90\n      jump\t// in\n    tag_101:\n        /* \"#utility.yul\":912:975   */\n      swap2\n      pop\n        /* \"#utility.yul\":867:985   */\n      pop\n        /* \"#utility.yul\":668:992   */\n      swap3\n      pop\n      swap3\n      swap1\n      pop\n      jump\t// out\n        /* \"#utility.yul\":998:1276   */\n    tag_68:\n      0x00\n        /* \"#utility.yul\":1114:1116   */\n      0x20\n        /* \"#utility.yul\":1102:1111   */\n      dup3\n        /* \"#utility.yul\":1093:1100   */\n      dup5\n        /* \"#utility.yul\":1089:1112   */\n      sub\n        /* \"#utility.yul\":1085:1117   */\n      slt\n        /* \"#utility.yul\":1082:1084   */\n      iszero\n      tag_103\n      jumpi\n        /* \"#utility.yul\":1130:1131   */\n      0x00\n        /* \"#utility.yul\":1127:1128   */\n      dup1\n        /* \"#utility.yul\":1120:1132   */\n      revert\n        /* \"#utility.yul\":1082:1084   */\n    tag_103:\n        /* \"#utility.yul\":1173:1174   */\n      0x00\n        /* \"#utility.yul\":1198:1259   */\n      tag_104\n        /* \"#utility.yul\":1251:1258   */\n      dup5\n        /* \"#utility.yul\":1242:1248   */\n      dup3\n        /* \"#utility.yul\":1231:1240   */\n      dup6\n        /* \"#utility.yul\":1227:1249   */\n      add\n        /* \"#utility.yul\":1198:1259   */\n      tag_86\n      jump\t// in\n    tag_104:\n        /* \"#utility.yul\":1188:1259   */\n      swap2\n      pop\n        /* \"#utility.yul\":1144:1269   */\n      pop\n        /* \"#utility.yul\":1072:1276   */\n      swap3\n      swap2\n      pop\n      pop\n      jump\t// out\n        /* \"#utility.yul\":1282:1544   */\n    tag_23:\n      0x00\n        /* \"#utility.yul\":1390:1392   */\n      0x20\n        /* \"#utility.yul\":1378:1387   */\n      dup3\n        /* \"#utility.yul\":1369:1376   */\n      dup5\n        /* \"#utility.yul\":1365:1388   */\n      sub\n        /* \"#utility.yul\":1361:1393   */\n      slt\n        /* \"#utility.yul\":1358:1360   */\n      iszero\n      tag_106\n      jumpi\n        /* \"#utility.yul\":1406:1407   */\n      0x00\n        /* \"#utility.yul\":1403:1404   */\n      dup1\n        /* \"#utility.yul\":1396:1408   */\n      revert\n        /* \"#utility.yul\":1358:1360   */\n    tag_106:\n        /* \"#utility.yul\":1449:1450   */\n      0x00\n        /* \"#utility.yul\":1474:1527   */\n      tag_107\n        /* \"#utility.yul\":1519:1526   */\n      dup5\n        /* \"#utility.yul\":1510:1516   */\n      dup3\n        /* \"#utility.yul\":1499:1508   */\n      dup6\n        /* \"#utility.yul\":1495:1517   */\n      add\n        /* \"#utility.yul\":1474:1527   */\n      tag_90\n      jump\t// in\n    tag_107:\n        /* \"#utility.yul\":1464:1527   */\n      swap2\n      pop\n        /* \"#utility.yul\":1420:1537   */\n      pop\n        /* \"#utility.yul\":1348:1544   */\n      swap3\n      swap2\n      pop\n      pop\n      jump\t// out\n        /* \"#utility.yul\":1550:1957   */\n    tag_13:\n      0x00\n      dup1\n        /* \"#utility.yul\":1675:1677   */\n      0x40\n        /* \"#utility.yul\":1663:1672   */\n      dup4\n        /* \"#utility.yul\":1654:1661   */\n      dup6\n        /* \"#utility.yul\":1650:1673   */\n      sub\n        /* \"#utility.yul\":1646:1678   */\n      slt\n        /* \"#utility.yul\":1643:1645   */\n      iszero\n      tag_109\n      jumpi\n        /* \"#utility.yul\":1691:1692   */\n      0x00\n        /* \"#utility.yul\":1688:1689   */\n      dup1\n        /* \"#utility.yul\":1681:1693   */\n      revert\n        /* \"#utility.yul\":1643:1645   */\n    tag_109:\n        /* \"#utility.yul\":1734:1735   */\n      0x00\n        /* \"#utility.yul\":1759:1812   */\n      tag_110\n        /* \"#utility.yul\":1804:1811   */\n      dup6\n        /* \"#utility.yul\":1795:1801   */\n      dup3\n        /* \"#utility.yul\":1784:1793   */\n      dup7\n        /* \"#utility.yul\":1780:1802   */\n      add\n        /* \"#utility.yul\":1759:1812   */\n      tag_90\n      jump\t// in\n    tag_110:\n        /* \"#utility.yul\":1749:1812   */\n      swap3\n      pop\n        /* \"#utility.yul\":1705:1822   */\n      pop\n        /* \"#utility.yul\":1861:1863   */\n      0x20\n        /* \"#utility.yul\":1887:1940   */\n      tag_111\n        /* \"#utility.yul\":1932:1939   */\n      dup6\n        /* \"#utility.yul\":1923:1929   */\n      dup3\n        /* \"#utility.yul\":1912:1921   */\n      dup7\n        /* \"#utility.yul\":1908:1930   */\n      add\n        /* \"#utility.yul\":1887:1940   */\n      tag_82\n      jump\t// in\n    tag_111:\n        /* \"#utility.yul\":1877:1940   */\n      swap2\n      pop\n        /* \"#utility.yul\":1832:1950   */\n      pop\n        /* \"#utility.yul\":1633:1957   */\n      swap3\n      pop\n      swap3\n      swap1\n      pop\n      jump\t// out\n        /* \"#utility.yul\":1963:2225   */\n    tag_17:\n      0x00\n        /* \"#utility.yul\":2071:2073   */\n      0x20\n        /* \"#utility.yul\":2059:2068   */\n      dup3\n        /* \"#utility.yul\":2050:2057   */\n      dup5\n        /* \"#utility.yul\":2046:2069   */\n      sub\n        /* \"#utility.yul\":2042:2074   */\n      slt\n        /* \"#utility.yul\":2039:2041   */\n      iszero\n      tag_113\n      jumpi\n        /* \"#utility.yul\":2087:2088   */\n      0x00\n        /* \"#utility.yul\":2084:2085   */\n      dup1\n        /* \"#utility.yul\":2077:2089   */\n      revert\n        /* \"#utility.yul\":2039:2041   */\n    tag_113:\n        /* \"#utility.yul\":2130:2131   */\n      0x00\n        /* \"#utility.yul\":2155:2208   */\n      tag_114\n        /* \"#utility.yul\":2200:2207   */\n      dup5\n        /* \"#utility.yul\":2191:2197   */\n      dup3\n        /* \"#utility.yul\":2180:2189   */\n      dup6\n        /* \"#utility.yul\":2176:2198   */\n      add\n        /* \"#utility.yul\":2155:2208   */\n      tag_94\n      jump\t// in\n    tag_114:\n        /* \"#utility.yul\":2145:2208   */\n      swap2\n      pop\n        /* \"#utility.yul\":2101:2218   */\n      pop\n        /* \"#utility.yul\":2029:2225   */\n      swap3\n      swap2\n      pop\n      pop\n      jump\t// out\n        /* \"#utility.yul\":2231:2638   */\n    tag_29:\n      0x00\n      dup1\n        /* \"#utility.yul\":2356:2358   */\n      0x40\n        /* \"#utility.yul\":2344:2353   */\n      dup4\n        /* \"#utility.yul\":2335:2342   */\n      dup6\n        /* \"#utility.yul\":2331:2354   */\n      sub\n        /* \"#utility.yul\":2327:2359   */\n      slt\n        /* \"#utility.yul\":2324:2326   */\n      iszero\n      tag_116\n      jumpi\n        /* \"#utility.yul\":2372:2373   */\n      0x00\n        /* \"#utility.yul\":2369:2370   */\n      dup1\n        /* \"#utility.yul\":2362:2374   */\n      revert\n        /* \"#utility.yul\":2324:2326   */\n    tag_116:\n        /* \"#utility.yul\":2415:2416   */\n      0x00\n        /* \"#utility.yul\":2440:2493   */\n      tag_117\n        /* \"#utility.yul\":2485:2492   */\n      dup6\n        /* \"#utility.yul\":2476:2482   */\n      dup3\n        /* \"#utility.yul\":2465:2474   */\n      dup7\n        /* \"#utility.yul\":2461:2483   */\n      add\n        /* \"#utility.yul\":2440:2493   */\n      tag_94\n      jump\t// in\n    tag_117:\n        /* \"#utility.yul\":2430:2493   */\n      swap3\n      pop\n        /* \"#utility.yul\":2386:2503   */\n      pop\n        /* \"#utility.yul\":2542:2544   */\n      0x20\n        /* \"#utility.yul\":2568:2621   */\n      tag_118\n        /* \"#utility.yul\":2613:2620   */\n      dup6\n        /* \"#utility.yul\":2604:2610   */\n      dup3\n        /* \"#utility.yul\":2593:2602   */\n      dup7\n        /* \"#utility.yul\":2589:2611   */\n      add\n        /* \"#utility.yul\":2568:2621   */\n      tag_90\n      jump\t// in\n    tag_118:\n        /* \"#utility.yul\":2558:2621   */\n      swap2\n      pop\n        /* \"#utility.yul\":2513:2631   */\n      pop\n        /* \"#utility.yul\":2314:2638   */\n      swap3\n      pop\n      swap3\n      swap1\n      pop\n      jump\t// out\n        /* \"#utility.yul\":2644:2762   */\n    tag_119:\n        /* \"#utility.yul\":2731:2755   */\n      tag_121\n        /* \"#utility.yul\":2749:2754   */\n      dup2\n        /* \"#utility.yul\":2731:2755   */\n      tag_122\n      jump\t// in\n    tag_121:\n        /* \"#utility.yul\":2726:2729   */\n      dup3\n        /* \"#utility.yul\":2719:2756   */\n      mstore\n        /* \"#utility.yul\":2709:2762   */\n      pop\n      pop\n      jump\t// out\n        /* \"#utility.yul\":2768:2886   */\n    tag_123:\n        /* \"#utility.yul\":2855:2879   */\n      tag_125\n        /* \"#utility.yul\":2873:2878   */\n      dup2\n        /* \"#utility.yul\":2855:2879   */\n      tag_126\n      jump\t// in\n    tag_125:\n        /* \"#utility.yul\":2850:2853   */\n      dup3\n        /* \"#utility.yul\":2843:2880   */\n      mstore\n        /* \"#utility.yul\":2833:2886   */\n      pop\n      pop\n      jump\t// out\n        /* \"#utility.yul\":2892:3209   */\n    tag_127:\n      0x00\n        /* \"#utility.yul\":3055:3122   */\n      tag_129\n        /* \"#utility.yul\":3119:3121   */\n      0x13\n        /* \"#utility.yul\":3114:3117   */\n      dup4\n        /* \"#utility.yul\":3055:3122   */\n      tag_130\n      jump\t// in\n    tag_129:\n        /* \"#utility.yul\":3048:3122   */\n      swap2\n      pop\n        /* \"#utility.yul\":3152:3173   */\n      0x546f6b656e20646f65736e6f7420657869737400000000000000000000000000\n        /* \"#utility.yul\":3148:3149   */\n      0x00\n        /* \"#utility.yul\":3143:3146   */\n      dup4\n        /* \"#utility.yul\":3139:3150   */\n      add\n        /* \"#utility.yul\":3132:3174   */\n      mstore\n        /* \"#utility.yul\":3200:3202   */\n      0x20\n        /* \"#utility.yul\":3195:3198   */\n      dup3\n        /* \"#utility.yul\":3191:3203   */\n      add\n        /* \"#utility.yul\":3184:3203   */\n      swap1\n      pop\n        /* \"#utility.yul\":3038:3209   */\n      swap2\n      swap1\n      pop\n      jump\t// out\n        /* \"#utility.yul\":3215:3533   */\n    tag_131:\n      0x00\n        /* \"#utility.yul\":3378:3445   */\n      tag_133\n        /* \"#utility.yul\":3442:3444   */\n      0x14\n        /* \"#utility.yul\":3437:3440   */\n      dup4\n        /* \"#utility.yul\":3378:3445   */\n      tag_130\n      jump\t// in\n    tag_133:\n        /* \"#utility.yul\":3371:3445   */\n      swap2\n      pop\n        /* \"#utility.yul\":3475:3497   */\n      0x496e73756666696369656e742042616c616e6365000000000000000000000000\n        /* \"#utility.yul\":3471:3472   */\n      0x00\n        /* \"#utility.yul\":3466:3469   */\n      dup4\n        /* \"#utility.yul\":3462:3473   */\n      add\n        /* \"#utility.yul\":3455:3498   */\n      mstore\n        /* \"#utility.yul\":3524:3526   */\n      0x20\n        /* \"#utility.yul\":3519:3522   */\n      dup3\n        /* \"#utility.yul\":3515:3527   */\n      add\n        /* \"#utility.yul\":3508:3527   */\n      swap1\n      pop\n        /* \"#utility.yul\":3361:3533   */\n      swap2\n      swap1\n      pop\n      jump\t// out\n        /* \"#utility.yul\":3539:3847   */\n    tag_134:\n      0x00\n        /* \"#utility.yul\":3702:3769   */\n      tag_136\n        /* \"#utility.yul\":3766:3768   */\n      0x0a\n        /* \"#utility.yul\":3761:3764   */\n      dup4\n        /* \"#utility.yul\":3702:3769   */\n      tag_130\n      jump\t// in\n    tag_136:\n        /* \"#utility.yul\":3695:3769   */\n      swap2\n      pop\n        /* \"#utility.yul\":3799:3811   */\n      0x4f6e6c792041646d696e00000000000000000000000000000000000000000000\n        /* \"#utility.yul\":3795:3796   */\n      0x00\n        /* \"#utility.yul\":3790:3793   */\n      dup4\n        /* \"#utility.yul\":3786:3797   */\n      add\n        /* \"#utility.yul\":3779:3812   */\n      mstore\n        /* \"#utility.yul\":3838:3840   */\n      0x20\n        /* \"#utility.yul\":3833:3836   */\n      dup3\n        /* \"#utility.yul\":3829:3841   */\n      add\n        /* \"#utility.yul\":3822:3841   */\n      swap1\n      pop\n        /* \"#utility.yul\":3685:3847   */\n      swap2\n      swap1\n      pop\n      jump\t// out\n        /* \"#utility.yul\":3853:3971   */\n    tag_137:\n        /* \"#utility.yul\":3940:3964   */\n      tag_139\n        /* \"#utility.yul\":3958:3963   */\n      dup2\n        /* \"#utility.yul\":3940:3964   */\n      tag_140\n      jump\t// in\n    tag_139:\n        /* \"#utility.yul\":3935:3938   */\n      dup3\n        /* \"#utility.yul\":3928:3965   */\n      mstore\n        /* \"#utility.yul\":3918:3971   */\n      pop\n      pop\n      jump\t// out\n        /* \"#utility.yul\":3977:4199   */\n    tag_43:\n      0x00\n        /* \"#utility.yul\":4108:4110   */\n      0x20\n        /* \"#utility.yul\":4097:4106   */\n      dup3\n        /* \"#utility.yul\":4093:4111   */\n      add\n        /* \"#utility.yul\":4085:4111   */\n      swap1\n      pop\n        /* \"#utility.yul\":4121:4192   */\n      tag_142\n        /* \"#utility.yul\":4189:4190   */\n      0x00\n        /* \"#utility.yul\":4178:4187   */\n      dup4\n        /* \"#utility.yul\":4174:4191   */\n      add\n        /* \"#utility.yul\":4165:4171   */\n      dup5\n        /* \"#utility.yul\":4121:4192   */\n      tag_119\n      jump\t// in\n    tag_142:\n        /* \"#utility.yul\":4075:4199   */\n      swap3\n      swap2\n      pop\n      pop\n      jump\t// out\n        /* \"#utility.yul\":4205:4647   */\n    tag_74:\n      0x00\n        /* \"#utility.yul\":4392:4394   */\n      0x60\n        /* \"#utility.yul\":4381:4390   */\n      dup3\n        /* \"#utility.yul\":4377:4395   */\n      add\n        /* \"#utility.yul\":4369:4395   */\n      swap1\n      pop\n        /* \"#utility.yul\":4405:4476   */\n      tag_144\n        /* \"#utility.yul\":4473:4474   */\n      0x00\n        /* \"#utility.yul\":4462:4471   */\n      dup4\n        /* \"#utility.yul\":4458:4475   */\n      add\n        /* \"#utility.yul\":4449:4455   */\n      dup7\n        /* \"#utility.yul\":4405:4476   */\n      tag_119\n      jump\t// in\n    tag_144:\n        /* \"#utility.yul\":4486:4558   */\n      tag_145\n        /* \"#utility.yul\":4554:4556   */\n      0x20\n        /* \"#utility.yul\":4543:4552   */\n      dup4\n        /* \"#utility.yul\":4539:4557   */\n      add\n        /* \"#utility.yul\":4530:4536   */\n      dup6\n        /* \"#utility.yul\":4486:4558   */\n      tag_119\n      jump\t// in\n    tag_145:\n        /* \"#utility.yul\":4568:4640   */\n      tag_146\n        /* \"#utility.yul\":4636:4638   */\n      0x40\n        /* \"#utility.yul\":4625:4634   */\n      dup4\n        /* \"#utility.yul\":4621:4639   */\n      add\n        /* \"#utility.yul\":4612:4618   */\n      dup5\n        /* \"#utility.yul\":4568:4640   */\n      tag_137\n      jump\t// in\n    tag_146:\n        /* \"#utility.yul\":4359:4647   */\n      swap5\n      swap4\n      pop\n      pop\n      pop\n      pop\n      jump\t// out\n        /* \"#utility.yul\":4653:4985   */\n    tag_63:\n      0x00\n        /* \"#utility.yul\":4812:4814   */\n      0x40\n        /* \"#utility.yul\":4801:4810   */\n      dup3\n        /* \"#utility.yul\":4797:4815   */\n      add\n        /* \"#utility.yul\":4789:4815   */\n      swap1\n      pop\n        /* \"#utility.yul\":4825:4896   */\n      tag_148\n        /* \"#utility.yul\":4893:4894   */\n      0x00\n        /* \"#utility.yul\":4882:4891   */\n      dup4\n        /* \"#utility.yul\":4878:4895   */\n      add\n        /* \"#utility.yul\":4869:4875   */\n      dup6\n        /* \"#utility.yul\":4825:4896   */\n      tag_119\n      jump\t// in\n    tag_148:\n        /* \"#utility.yul\":4906:4978   */\n      tag_149\n        /* \"#utility.yul\":4974:4976   */\n      0x20\n        /* \"#utility.yul\":4963:4972   */\n      dup4\n        /* \"#utility.yul\":4959:4977   */\n      add\n        /* \"#utility.yul\":4950:4956   */\n      dup5\n        /* \"#utility.yul\":4906:4978   */\n      tag_137\n      jump\t// in\n    tag_149:\n        /* \"#utility.yul\":4779:4985   */\n      swap4\n      swap3\n      pop\n      pop\n      pop\n      jump\t// out\n        /* \"#utility.yul\":4991:5213   */\n    tag_20:\n      0x00\n        /* \"#utility.yul\":5122:5124   */\n      0x20\n        /* \"#utility.yul\":5111:5120   */\n      dup3\n        /* \"#utility.yul\":5107:5125   */\n      add\n        /* \"#utility.yul\":5099:5125   */\n      swap1\n      pop\n        /* \"#utility.yul\":5135:5206   */\n      tag_151\n        /* \"#utility.yul\":5203:5204   */\n      0x00\n        /* \"#utility.yul\":5192:5201   */\n      dup4\n        /* \"#utility.yul\":5188:5205   */\n      add\n        /* \"#utility.yul\":5179:5185   */\n      dup5\n        /* \"#utility.yul\":5135:5206   */\n      tag_123\n      jump\t// in\n    tag_151:\n        /* \"#utility.yul\":5089:5213   */\n      swap3\n      swap2\n      pop\n      pop\n      jump\t// out\n        /* \"#utility.yul\":5219:5551   */\n    tag_26:\n      0x00\n        /* \"#utility.yul\":5378:5380   */\n      0x40\n        /* \"#utility.yul\":5367:5376   */\n      dup3\n        /* \"#utility.yul\":5363:5381   */\n      add\n        /* \"#utility.yul\":5355:5381   */\n      swap1\n      pop\n        /* \"#utility.yul\":5391:5462   */\n      tag_153\n        /* \"#utility.yul\":5459:5460   */\n      0x00\n        /* \"#utility.yul\":5448:5457   */\n      dup4\n        /* \"#utility.yul\":5444:5461   */\n      add\n        /* \"#utility.yul\":5435:5441   */\n      dup6\n        /* \"#utility.yul\":5391:5462   */\n      tag_123\n      jump\t// in\n    tag_153:\n        /* \"#utility.yul\":5472:5544   */\n      tag_154\n        /* \"#utility.yul\":5540:5542   */\n      0x20\n        /* \"#utility.yul\":5529:5538   */\n      dup4\n        /* \"#utility.yul\":5525:5543   */\n      add\n        /* \"#utility.yul\":5516:5522   */\n      dup5\n        /* \"#utility.yul\":5472:5544   */\n      tag_119\n      jump\t// in\n    tag_154:\n        /* \"#utility.yul\":5345:5551   */\n      swap4\n      swap3\n      pop\n      pop\n      pop\n      jump\t// out\n        /* \"#utility.yul\":5557:5976   */\n    tag_55:\n      0x00\n        /* \"#utility.yul\":5761:5763   */\n      0x20\n        /* \"#utility.yul\":5750:5759   */\n      dup3\n        /* \"#utility.yul\":5746:5764   */\n      add\n        /* \"#utility.yul\":5738:5764   */\n      swap1\n      pop\n        /* \"#utility.yul\":5810:5819   */\n      dup2\n        /* \"#utility.yul\":5804:5808   */\n      dup2\n        /* \"#utility.yul\":5800:5820   */\n      sub\n        /* \"#utility.yul\":5796:5797   */\n      0x00\n        /* \"#utility.yul\":5785:5794   */\n      dup4\n        /* \"#utility.yul\":5781:5798   */\n      add\n        /* \"#utility.yul\":5774:5821   */\n      mstore\n        /* \"#utility.yul\":5838:5969   */\n      tag_156\n        /* \"#utility.yul\":5964:5968   */\n      dup2\n        /* \"#utility.yul\":5838:5969   */\n      tag_127\n      jump\t// in\n    tag_156:\n        /* \"#utility.yul\":5830:5969   */\n      swap1\n      pop\n        /* \"#utility.yul\":5728:5976   */\n      swap2\n      swap1\n      pop\n      jump\t// out\n        /* \"#utility.yul\":5982:6401   */\n    tag_59:\n      0x00\n        /* \"#utility.yul\":6186:6188   */\n      0x20\n        /* \"#utility.yul\":6175:6184   */\n      dup3\n        /* \"#utility.yul\":6171:6189   */\n      add\n        /* \"#utility.yul\":6163:6189   */\n      swap1\n      pop\n        /* \"#utility.yul\":6235:6244   */\n      dup2\n        /* \"#utility.yul\":6229:6233   */\n      dup2\n        /* \"#utility.yul\":6225:6245   */\n      sub\n        /* \"#utility.yul\":6221:6222   */\n      0x00\n        /* \"#utility.yul\":6210:6219   */\n      dup4\n        /* \"#utility.yul\":6206:6223   */\n      add\n        /* \"#utility.yul\":6199:6246   */\n      mstore\n        /* \"#utility.yul\":6263:6394   */\n      tag_158\n        /* \"#utility.yul\":6389:6393   */\n      dup2\n        /* \"#utility.yul\":6263:6394   */\n      tag_131\n      jump\t// in\n    tag_158:\n        /* \"#utility.yul\":6255:6394   */\n      swap1\n      pop\n        /* \"#utility.yul\":6153:6401   */\n      swap2\n      swap1\n      pop\n      jump\t// out\n        /* \"#utility.yul\":6407:6826   */\n    tag_47:\n      0x00\n        /* \"#utility.yul\":6611:6613   */\n      0x20\n        /* \"#utility.yul\":6600:6609   */\n      dup3\n        /* \"#utility.yul\":6596:6614   */\n      add\n        /* \"#utility.yul\":6588:6614   */\n      swap1\n      pop\n        /* \"#utility.yul\":6660:6669   */\n      dup2\n        /* \"#utility.yul\":6654:6658   */\n      dup2\n        /* \"#utility.yul\":6650:6670   */\n      sub\n        /* \"#utility.yul\":6646:6647   */\n      0x00\n        /* \"#utility.yul\":6635:6644   */\n      dup4\n        /* \"#utility.yul\":6631:6648   */\n      add\n        /* \"#utility.yul\":6624:6671   */\n      mstore\n        /* \"#utility.yul\":6688:6819   */\n      tag_160\n        /* \"#utility.yul\":6814:6818   */\n      dup2\n        /* \"#utility.yul\":6688:6819   */\n      tag_134\n      jump\t// in\n    tag_160:\n        /* \"#utility.yul\":6680:6819   */\n      swap1\n      pop\n        /* \"#utility.yul\":6578:6826   */\n      swap2\n      swap1\n      pop\n      jump\t// out\n        /* \"#utility.yul\":6832:7054   */\n    tag_36:\n      0x00\n        /* \"#utility.yul\":6963:6965   */\n      0x20\n        /* \"#utility.yul\":6952:6961   */\n      dup3\n        /* \"#utility.yul\":6948:6966   */\n      add\n        /* \"#utility.yul\":6940:6966   */\n      swap1\n      pop\n        /* \"#utility.yul\":6976:7047   */\n      tag_162\n        /* \"#utility.yul\":7044:7045   */\n      0x00\n        /* \"#utility.yul\":7033:7042   */\n      dup4\n        /* \"#utility.yul\":7029:7046   */\n      add\n        /* \"#utility.yul\":7020:7026   */\n      dup5\n        /* \"#utility.yul\":6976:7047   */\n      tag_137\n      jump\t// in\n    tag_162:\n        /* \"#utility.yul\":6930:7054   */\n      swap3\n      swap2\n      pop\n      pop\n      jump\t// out\n        /* \"#utility.yul\":7060:7229   */\n    tag_130:\n      0x00\n        /* \"#utility.yul\":7178:7184   */\n      dup3\n        /* \"#utility.yul\":7173:7176   */\n      dup3\n        /* \"#utility.yul\":7166:7185   */\n      mstore\n        /* \"#utility.yul\":7218:7222   */\n      0x20\n        /* \"#utility.yul\":7213:7216   */\n      dup3\n        /* \"#utility.yul\":7209:7223   */\n      add\n        /* \"#utility.yul\":7194:7223   */\n      swap1\n      pop\n        /* \"#utility.yul\":7156:7229   */\n      swap3\n      swap2\n      pop\n      pop\n      jump\t// out\n        /* \"#utility.yul\":7235:7540   */\n    tag_80:\n      0x00\n        /* \"#utility.yul\":7294:7314   */\n      tag_165\n        /* \"#utility.yul\":7312:7313   */\n      dup3\n        /* \"#utility.yul\":7294:7314   */\n      tag_140\n      jump\t// in\n    tag_165:\n        /* \"#utility.yul\":7289:7314   */\n      swap2\n      pop\n        /* \"#utility.yul\":7328:7348   */\n      tag_166\n        /* \"#utility.yul\":7346:7347   */\n      dup4\n        /* \"#utility.yul\":7328:7348   */\n      tag_140\n      jump\t// in\n    tag_166:\n        /* \"#utility.yul\":7323:7348   */\n      swap3\n      pop\n        /* \"#utility.yul\":7482:7483   */\n      dup3\n        /* \"#utility.yul\":7414:7480   */\n      0xffffffffffffffffffffffffffffffffffffffffffffffffffffffffffffffff\n        /* \"#utility.yul\":7410:7484   */\n      sub\n        /* \"#utility.yul\":7407:7408   */\n      dup3\n        /* \"#utility.yul\":7404:7485   */\n      gt\n        /* \"#utility.yul\":7401:7403   */\n      iszero\n      tag_167\n      jumpi\n        /* \"#utility.yul\":7488:7506   */\n      tag_168\n      tag_169\n      jump\t// in\n    tag_168:\n        /* \"#utility.yul\":7401:7403   */\n    tag_167:\n        /* \"#utility.yul\":7532:7533   */\n      dup3\n        /* \"#utility.yul\":7529:7530   */\n      dup3\n        /* \"#utility.yul\":7525:7534   */\n      add\n        /* \"#utility.yul\":7518:7534   */\n      swap1\n      pop\n        /* \"#utility.yul\":7279:7540   */\n      swap3\n      swap2\n      pop\n      pop\n      jump\t// out\n        /* \"#utility.yul\":7546:7737   */\n    tag_61:\n      0x00\n        /* \"#utility.yul\":7606:7626   */\n      tag_171\n        /* \"#utility.yul\":7624:7625   */\n      dup3\n        /* \"#utility.yul\":7606:7626   */\n      tag_140\n      jump\t// in\n    tag_171:\n        /* \"#utility.yul\":7601:7626   */\n      swap2\n      pop\n        /* \"#utility.yul\":7640:7660   */\n      tag_172\n        /* \"#utility.yul\":7658:7659   */\n      dup4\n        /* \"#utility.yul\":7640:7660   */\n      tag_140\n      jump\t// in\n    tag_172:\n        /* \"#utility.yul\":7635:7660   */\n      swap3\n      pop\n        /* \"#utility.yul\":7679:7680   */\n      dup3\n        /* \"#utility.yul\":7676:7677   */\n      dup3\n        /* \"#utility.yul\":7673:7681   */\n      lt\n        /* \"#utility.yul\":7670:7672   */\n      iszero\n      tag_173\n      jumpi\n        /* \"#utility.yul\":7684:7702   */\n      tag_174\n      tag_169\n      jump\t// in\n    tag_174:\n        /* \"#utility.yul\":7670:7672   */\n    tag_173:\n        /* \"#utility.yul\":7729:7730   */\n      dup3\n        /* \"#utility.yul\":7726:7727   */\n      dup3\n        /* \"#utility.yul\":7722:7731   */\n      sub\n        /* \"#utility.yul\":7714:7731   */\n      swap1\n      pop\n        /* \"#utility.yul\":7591:7737   */\n      swap3\n      swap2\n      pop\n      pop\n      jump\t// out\n        /* \"#utility.yul\":7743:7839   */\n    tag_122:\n      0x00\n        /* \"#utility.yul\":7809:7833   */\n      tag_176\n        /* \"#utility.yul\":7827:7832   */\n      dup3\n        /* \"#utility.yul\":7809:7833   */\n      tag_177\n      jump\t// in\n    tag_176:\n        /* \"#utility.yul\":7798:7833   */\n      swap1\n      pop\n        /* \"#utility.yul\":7788:7839   */\n      swap2\n      swap1\n      pop\n      jump\t// out\n        /* \"#utility.yul\":7845:7935   */\n    tag_178:\n      0x00\n        /* \"#utility.yul\":7922:7927   */\n      dup2\n        /* \"#utility.yul\":7915:7928   */\n      iszero\n        /* \"#utility.yul\":7908:7929   */\n      iszero\n        /* \"#utility.yul\":7897:7929   */\n      swap1\n      pop\n        /* \"#utility.yul\":7887:7935   */\n      swap2\n      swap1\n      pop\n      jump\t// out\n        /* \"#utility.yul\":7941:8018   */\n    tag_126:\n      0x00\n        /* \"#utility.yul\":8007:8012   */\n      dup2\n        /* \"#utility.yul\":7996:8012   */\n      swap1\n      pop\n        /* \"#utility.yul\":7986:8018   */\n      swap2\n      swap1\n      pop\n      jump\t// out\n        /* \"#utility.yul\":8024:8150   */\n    tag_177:\n      0x00\n        /* \"#utility.yul\":8101:8143   */\n      0xffffffffffffffffffffffffffffffffffffffff\n        /* \"#utility.yul\":8094:8099   */\n      dup3\n        /* \"#utility.yul\":8090:8144   */\n      and\n        /* \"#utility.yul\":8079:8144   */\n      swap1\n      pop\n        /* \"#utility.yul\":8069:8150   */\n      swap2\n      swap1\n      pop\n      jump\t// out\n        /* \"#utility.yul\":8156:8233   */\n    tag_140:\n      0x00\n        /* \"#utility.yul\":8222:8227   */\n      dup2\n        /* \"#utility.yul\":8211:8227   */\n      swap1\n      pop\n        /* \"#utility.yul\":8201:8233   */\n      swap2\n      swap1\n      pop\n      jump\t// out\n        /* \"#utility.yul\":8239:8419   */\n    tag_169:\n        /* \"#utility.yul\":8287:8364   */\n      0x4e487b7100000000000000000000000000000000000000000000000000000000\n        /* \"#utility.yul\":8284:8285   */\n      0x00\n        /* \"#utility.yul\":8277:8365   */\n      mstore\n        /* \"#utility.yul\":8384:8388   */\n      0x11\n        /* \"#utility.yul\":8381:8382   */\n      0x04\n        /* \"#utility.yul\":8374:8389   */\n      mstore\n        /* \"#utility.yul\":8408:8412   */\n      0x24\n        /* \"#utility.yul\":8405:8406   */\n      0x00\n        /* \"#utility.yul\":8398:8413   */\n      revert\n        /* \"#utility.yul\":8425:8547   */\n    tag_85:\n        /* \"#utility.yul\":8498:8522   */\n      tag_185\n        /* \"#utility.yul\":8516:8521   */\n      dup2\n        /* \"#utility.yul\":8498:8522   */\n      tag_122\n      jump\t// in\n    tag_185:\n        /* \"#utility.yul\":8491:8496   */\n      dup2\n        /* \"#utility.yul\":8488:8523   */\n      eq\n        /* \"#utility.yul\":8478:8480   */\n      tag_186\n      jumpi\n        /* \"#utility.yul\":8537:8538   */\n      0x00\n        /* \"#utility.yul\":8534:8535   */\n      dup1\n        /* \"#utility.yul\":8527:8539   */\n      revert\n        /* \"#utility.yul\":8478:8480   */\n    tag_186:\n        /* \"#utility.yul\":8468:8547   */\n      pop\n      jump\t// out\n        /* \"#utility.yul\":8553:8669   */\n    tag_89:\n        /* \"#utility.yul\":8623:8644   */\n      tag_188\n        /* \"#utility.yul\":8638:8643   */\n      dup2\n        /* \"#utility.yul\":8623:8644   */\n      tag_178\n      jump\t// in\n    tag_188:\n        /* \"#utility.yul\":8616:8621   */\n      dup2\n        /* \"#utility.yul\":8613:8645   */\n      eq\n        /* \"#utility.yul\":8603:8605   */\n      tag_189\n      jumpi\n        /* \"#utility.yul\":8659:8660   */\n      0x00\n        /* \"#utility.yul\":8656:8657   */\n      dup1\n        /* \"#utility.yul\":8649:8661   */\n      revert\n        /* \"#utility.yul\":8603:8605   */\n    tag_189:\n        /* \"#utility.yul\":8593:8669   */\n      pop\n      jump\t// out\n        /* \"#utility.yul\":8675:8797   */\n    tag_93:\n        /* \"#utility.yul\":8748:8772   */\n      tag_191\n        /* \"#utility.yul\":8766:8771   */\n      dup2\n        /* \"#utility.yul\":8748:8772   */\n      tag_126\n      jump\t// in\n    tag_191:\n        /* \"#utility.yul\":8741:8746   */\n      dup2\n        /* \"#utility.yul\":8738:8773   */\n      eq\n        /* \"#utility.yul\":8728:8730   */\n      tag_192\n      jumpi\n        /* \"#utility.yul\":8787:8788   */\n      0x00\n        /* \"#utility.yul\":8784:8785   */\n      dup1\n        /* \"#utility.yul\":8777:8789   */\n      revert\n        /* \"#utility.yul\":8728:8730   */\n    tag_192:\n        /* \"#utility.yul\":8718:8797   */\n      pop\n      jump\t// out\n        /* \"#utility.yul\":8803:8925   */\n    tag_97:\n        /* \"#utility.yul\":8876:8900   */\n      tag_194\n        /* \"#utility.yul\":8894:8899   */\n      dup2\n        /* \"#utility.yul\":8876:8900   */\n      tag_140\n      jump\t// in\n    tag_194:\n        /* \"#utility.yul\":8869:8874   */\n      dup2\n        /* \"#utility.yul\":8866:8901   */\n      eq\n        /* \"#utility.yul\":8856:8858   */\n      tag_195\n      jumpi\n        /* \"#utility.yul\":8915:8916   */\n      0x00\n        /* \"#utility.yul\":8912:8913   */\n      dup1\n        /* \"#utility.yul\":8905:8917   */\n      revert\n        /* \"#utility.yul\":8856:8858   */\n    tag_195:\n        /* \"#utility.yul\":8846:8925   */\n      pop\n      jump\t// out\n\n    auxdata: 0xa26469706673582212204659537a549bff4055b3cee5ce3e74fb17824f42225771d4930b121c8ca9dca564736f6c63430008000033\n}\n",
				"bytecode": {
					"linkReferences": {},
					"object": "608060405234801561001057600080fd5b5033600260006101000a81548173ffffffffffffffffffffffffffffffffffffffff021916908373ffffffffffffffffffffffffffffffffffffffff160217905550610d1d806100616000396000f3fe608060405234801561001057600080fd5b506004361061007d5760003560e01c8063a8d2021a1161005b578063a8d2021a146100ff578063a962846a1461011b578063c9630cb01461014b578063f851a440146101675761007d565b80631b66807d14610082578063538cad001461009e578063904194a3146100ce575b600080fd5b61009c600480360381019061009791906108a7565b610185565b005b6100b860048036038101906100b391906108e3565b6102d3565b6040516100c59190610ab0565b60405180910390f35b6100e860048036038101906100e3919061087e565b6102f7565b6040516100f6929190610acb565b60405180910390f35b6101196004803603810190610114919061090c565b61033b565b005b61013560048036038101906101309190610819565b6105a3565b6040516101429190610b54565b60405180910390f35b6101656004803603810190610160919061090c565b6105c8565b005b61016f61079f565b60405161017c9190610a35565b60405180910390f35b600260009054906101000a900473ffffffffffffffffffffffffffffffffffffffff1673ffffffffffffffffffffffffffffffffffffffff163373ffffffffffffffffffffffffffffffffffffffff1614610215576040517f08c379a000000000000000000000000000000000000000000000000000000000815260040161020c90610b34565b60405180910390fd5b60405180604001604052808381526020018273ffffffffffffffffffffffffffffffffffffffff168152506000808481526020019081526020016000206000820151816000015560208201518160010160006101000a81548173ffffffffffffffffffffffffffffffffffffffff021916908373ffffffffffffffffffffffffffffffffffffffff16021790555090505060018290806001815401808255809150506001900390600052602060002001600090919091909150555050565b600181815481106102e357600080fd5b906000526020600020016000915090505481565b60006020528060005260406000206000915090508060000154908060010160009054906101000a900473ffffffffffffffffffffffffffffffffffffffff16905082565b80600073ffffffffffffffffffffffffffffffffffffffff1660008083815260200190815260200160002060010160009054906101000a900473ffffffffffffffffffffffffffffffffffffffff1673ffffffffffffffffffffffffffffffffffffffff1614156103e1576040517f08c379a00000000000000000000000000000000000000000000000000000000081526004016103d890610af4565b60405180910390fd5b82600360003373ffffffffffffffffffffffffffffffffffffffff1673ffffffffffffffffffffffffffffffffffffffff1681526020019081526020016000206000848152602001908152602001600020541015610474576040517f08c379a000000000000000000000000000000000000000000000000000000000815260040161046b90610b14565b60405180910390fd5b82600360003373ffffffffffffffffffffffffffffffffffffffff1673ffffffffffffffffffffffffffffffffffffffff168152602001908152602001600020600084815260200190815260200160002060008282546104d49190610bd6565b9250508190555060008083815260200190815260200160002060010160009054906101000a900473ffffffffffffffffffffffffffffffffffffffff1673ffffffffffffffffffffffffffffffffffffffff1663a9059cbb33856040518363ffffffff1660e01b815260040161054b929190610a87565b602060405180830381600087803b15801561056557600080fd5b505af1158015610579573d6000803e3d6000fd5b505050506040513d601f19601f8201168201806040525081019061059d9190610855565b50505050565b6003602052816000526040600020602052806000526040600020600091509150505481565b80600073ffffffffffffffffffffffffffffffffffffffff1660008083815260200190815260200160002060010160009054906101000a900473ffffffffffffffffffffffffffffffffffffffff1673ffffffffffffffffffffffffffffffffffffffff16141561066e576040517f08c379a000000000000000000000000000000000000000000000000000000000815260040161066590610af4565b60405180910390fd5b60008083815260200190815260200160002060010160009054906101000a900473ffffffffffffffffffffffffffffffffffffffff1673ffffffffffffffffffffffffffffffffffffffff166323b872dd3330866040518463ffffffff1660e01b81526004016106e093929190610a50565b602060405180830381600087803b1580156106fa57600080fd5b505af115801561070e573d6000803e3d6000fd5b505050506040513d601f19601f820116820180604052508101906107329190610855565b5082600360003373ffffffffffffffffffffffffffffffffffffffff1673ffffffffffffffffffffffffffffffffffffffff168152602001908152602001600020600084815260200190815260200160002060008282546107939190610b80565b92505081905550505050565b600260009054906101000a900473ffffffffffffffffffffffffffffffffffffffff1681565b6000813590506107d481610c8b565b92915050565b6000815190506107e981610ca2565b92915050565b6000813590506107fe81610cb9565b92915050565b60008135905061081381610cd0565b92915050565b6000806040838503121561082c57600080fd5b600061083a858286016107c5565b925050602061084b858286016107ef565b9150509250929050565b60006020828403121561086757600080fd5b6000610875848285016107da565b91505092915050565b60006020828403121561089057600080fd5b600061089e848285016107ef565b91505092915050565b600080604083850312156108ba57600080fd5b60006108c8858286016107ef565b92505060206108d9858286016107c5565b9150509250929050565b6000602082840312156108f557600080fd5b600061090384828501610804565b91505092915050565b6000806040838503121561091f57600080fd5b600061092d85828601610804565b925050602061093e858286016107ef565b9150509250929050565b61095181610c0a565b82525050565b61096081610c28565b82525050565b6000610973601383610b6f565b91507f546f6b656e20646f65736e6f74206578697374000000000000000000000000006000830152602082019050919050565b60006109b3601483610b6f565b91507f496e73756666696369656e742042616c616e63650000000000000000000000006000830152602082019050919050565b60006109f3600a83610b6f565b91507f4f6e6c792041646d696e000000000000000000000000000000000000000000006000830152602082019050919050565b610a2f81610c52565b82525050565b6000602082019050610a4a6000830184610948565b92915050565b6000606082019050610a656000830186610948565b610a726020830185610948565b610a7f6040830184610a26565b949350505050565b6000604082019050610a9c6000830185610948565b610aa96020830184610a26565b9392505050565b6000602082019050610ac56000830184610957565b92915050565b6000604082019050610ae06000830185610957565b610aed6020830184610948565b9392505050565b60006020820190508181036000830152610b0d81610966565b9050919050565b60006020820190508181036000830152610b2d816109a6565b9050919050565b60006020820190508181036000830152610b4d816109e6565b9050919050565b6000602082019050610b696000830184610a26565b92915050565b600082825260208201905092915050565b6000610b8b82610c52565b9150610b9683610c52565b9250827fffffffffffffffffffffffffffffffffffffffffffffffffffffffffffffffff03821115610bcb57610bca610c5c565b5b828201905092915050565b6000610be182610c52565b9150610bec83610c52565b925082821015610bff57610bfe610c5c565b5b828203905092915050565b6000610c1582610c32565b9050919050565b60008115159050919050565b6000819050919050565b600073ffffffffffffffffffffffffffffffffffffffff82169050919050565b6000819050919050565b7f4e487b7100000000000000000000000000000000000000000000000000000000600052601160045260246000fd5b610c9481610c0a565b8114610c9f57600080fd5b50565b610cab81610c1c565b8114610cb657600080fd5b50565b610cc281610c28565b8114610ccd57600080fd5b50565b610cd981610c52565b8114610ce457600080fd5b5056fea26469706673582212204659537a549bff4055b3cee5ce3e74fb17824f42225771d4930b121c8ca9dca564736f6c63430008000033",
					"opcodes": "PUSH1 0x80 PUSH1 0x40 MSTORE CALLVALUE DUP1 ISZERO PUSH2 0x10 JUMPI PUSH1 0x0 DUP1 REVERT JUMPDEST POP CALLER PUSH1 0x2 PUSH1 0x0 PUSH2 0x100 EXP DUP2 SLOAD DUP2 PUSH20 0xFFFFFFFFFFFFFFFFFFFFFFFFFFFFFFFFFFFFFFFF MUL NOT AND SWAP1 DUP4 PUSH20 0xFFFFFFFFFFFFFFFFFFFFFFFFFFFFFFFFFFFFFFFF AND MUL OR SWAP1 SSTORE POP PUSH2 0xD1D DUP1 PUSH2 0x61 PUSH1 0x0 CODECOPY PUSH1 0x0 RETURN INVALID PUSH1 0x80 PUSH1 0x40 MSTORE CALLVALUE DUP1 ISZERO PUSH2 0x10 JUMPI PUSH1 0x0 DUP1 REVERT JUMPDEST POP PUSH1 0x4 CALLDATASIZE LT PUSH2 0x7D JUMPI PUSH1 0x0 CALLDATALOAD PUSH1 0xE0 SHR DUP1 PUSH4 0xA8D2021A GT PUSH2 0x5B JUMPI DUP1 PUSH4 0xA8D2021A EQ PUSH2 0xFF JUMPI DUP1 PUSH4 0xA962846A EQ PUSH2 0x11B JUMPI DUP1 PUSH4 0xC9630CB0 EQ PUSH2 0x14B JUMPI DUP1 PUSH4 0xF851A440 EQ PUSH2 0x167 JUMPI PUSH2 0x7D JUMP JUMPDEST DUP1 PUSH4 0x1B66807D EQ PUSH2 0x82 JUMPI DUP1 PUSH4 0x538CAD00 EQ PUSH2 0x9E JUMPI DUP1 PUSH4 0x904194A3 EQ PUSH2 0xCE JUMPI JUMPDEST PUSH1 0x0 DUP1 REVERT JUMPDEST PUSH2 0x9C PUSH1 0x4 DUP1 CALLDATASIZE SUB DUP2 ADD SWAP1 PUSH2 0x97 SWAP2 SWAP1 PUSH2 0x8A7 JUMP JUMPDEST PUSH2 0x185 JUMP JUMPDEST STOP JUMPDEST PUSH2 0xB8 PUSH1 0x4 DUP1 CALLDATASIZE SUB DUP2 ADD SWAP1 PUSH2 0xB3 SWAP2 SWAP1 PUSH2 0x8E3 JUMP JUMPDEST PUSH2 0x2D3 JUMP JUMPDEST PUSH1 0x40 MLOAD PUSH2 0xC5 SWAP2 SWAP1 PUSH2 0xAB0 JUMP JUMPDEST PUSH1 0x40 MLOAD DUP1 SWAP2 SUB SWAP1 RETURN JUMPDEST PUSH2 0xE8 PUSH1 0x4 DUP1 CALLDATASIZE SUB DUP2 ADD SWAP1 PUSH2 0xE3 SWAP2 SWAP1 PUSH2 0x87E JUMP JUMPDEST PUSH2 0x2F7 JUMP JUMPDEST PUSH1 0x40 MLOAD PUSH2 0xF6 SWAP3 SWAP2 SWAP1 PUSH2 0xACB JUMP JUMPDEST PUSH1 0x40 MLOAD DUP1 SWAP2 SUB SWAP1 RETURN JUMPDEST PUSH2 0x119 PUSH1 0x4 DUP1 CALLDATASIZE SUB DUP2 ADD SWAP1 PUSH2 0x114 SWAP2 SWAP1 PUSH2 0x90C JUMP JUMPDEST PUSH2 0x33B JUMP JUMPDEST STOP JUMPDEST PUSH2 0x135 PUSH1 0x4 DUP1 CALLDATASIZE SUB DUP2 ADD SWAP1 PUSH2 0x130 SWAP2 SWAP1 PUSH2 0x819 JUMP JUMPDEST PUSH2 0x5A3 JUMP JUMPDEST PUSH1 0x40 MLOAD PUSH2 0x142 SWAP2 SWAP1 PUSH2 0xB54 JUMP JUMPDEST PUSH1 0x40 MLOAD DUP1 SWAP2 SUB SWAP1 RETURN JUMPDEST PUSH2 0x165 PUSH1 0x4 DUP1 CALLDATASIZE SUB DUP2 ADD SWAP1 PUSH2 0x160 SWAP2 SWAP1 PUSH2 0x90C JUMP JUMPDEST PUSH2 0x5C8 JUMP JUMPDEST STOP JUMPDEST PUSH2 0x16F PUSH2 0x79F JUMP JUMPDEST PUSH1 0x40 MLOAD PUSH2 0x17C SWAP2 SWAP1 PUSH2 0xA35 JUMP JUMPDEST PUSH1 0x40 MLOAD DUP1 SWAP2 SUB SWAP1 RETURN JUMPDEST PUSH1 0x2 PUSH1 0x0 SWAP1 SLOAD SWAP1 PUSH2 0x100 EXP SWAP1 DIV PUSH20 0xFFFFFFFFFFFFFFFFFFFFFFFFFFFFFFFFFFFFFFFF AND PUSH20 0xFFFFFFFFFFFFFFFFFFFFFFFFFFFFFFFFFFFFFFFF AND CALLER PUSH20 0xFFFFFFFFFFFFFFFFFFFFFFFFFFFFFFFFFFFFFFFF AND EQ PUSH2 0x215 JUMPI PUSH1 0x40 MLOAD PUSH32 0x8C379A000000000000000000000000000000000000000000000000000000000 DUP2 MSTORE PUSH1 0x4 ADD PUSH2 0x20C SWAP1 PUSH2 0xB34 JUMP JUMPDEST PUSH1 0x40 MLOAD DUP1 SWAP2 SUB SWAP1 REVERT JUMPDEST PUSH1 0x40 MLOAD DUP1 PUSH1 0x40 ADD PUSH1 0x40 MSTORE DUP1 DUP4 DUP2 MSTORE PUSH1 0x20 ADD DUP3 PUSH20 0xFFFFFFFFFFFFFFFFFFFFFFFFFFFFFFFFFFFFFFFF AND DUP2 MSTORE POP PUSH1 0x0 DUP1 DUP5 DUP2 MSTORE PUSH1 0x20 ADD SWAP1 DUP2 MSTORE PUSH1 0x20 ADD PUSH1 0x0 KECCAK256 PUSH1 0x0 DUP3 ADD MLOAD DUP2 PUSH1 0x0 ADD SSTORE PUSH1 0x20 DUP3 ADD MLOAD DUP2 PUSH1 0x1 ADD PUSH1 0x0 PUSH2 0x100 EXP DUP2 SLOAD DUP2 PUSH20 0xFFFFFFFFFFFFFFFFFFFFFFFFFFFFFFFFFFFFFFFF MUL NOT AND SWAP1 DUP4 PUSH20 0xFFFFFFFFFFFFFFFFFFFFFFFFFFFFFFFFFFFFFFFF AND MUL OR SWAP1 SSTORE POP SWAP1 POP POP PUSH1 0x1 DUP3 SWAP1 DUP1 PUSH1 0x1 DUP2 SLOAD ADD DUP1 DUP3 SSTORE DUP1 SWAP2 POP POP PUSH1 0x1 SWAP1 SUB SWAP1 PUSH1 0x0 MSTORE PUSH1 0x20 PUSH1 0x0 KECCAK256 ADD PUSH1 0x0 SWAP1 SWAP2 SWAP1 SWAP2 SWAP1 SWAP2 POP SSTORE POP POP JUMP JUMPDEST PUSH1 0x1 DUP2 DUP2 SLOAD DUP2 LT PUSH2 0x2E3 JUMPI PUSH1 0x0 DUP1 REVERT JUMPDEST SWAP1 PUSH1 0x0 MSTORE PUSH1 0x20 PUSH1 0x0 KECCAK256 ADD PUSH1 0x0 SWAP2 POP SWAP1 POP SLOAD DUP2 JUMP JUMPDEST PUSH1 0x0 PUSH1 0x20 MSTORE DUP1 PUSH1 0x0 MSTORE PUSH1 0x40 PUSH1 0x0 KECCAK256 PUSH1 0x0 SWAP2 POP SWAP1 POP DUP1 PUSH1 0x0 ADD SLOAD SWAP1 DUP1 PUSH1 0x1 ADD PUSH1 0x0 SWAP1 SLOAD SWAP1 PUSH2 0x100 EXP SWAP1 DIV PUSH20 0xFFFFFFFFFFFFFFFFFFFFFFFFFFFFFFFFFFFFFFFF AND SWAP1 POP DUP3 JUMP JUMPDEST DUP1 PUSH1 0x0 PUSH20 0xFFFFFFFFFFFFFFFFFFFFFFFFFFFFFFFFFFFFFFFF AND PUSH1 0x0 DUP1 DUP4 DUP2 MSTORE PUSH1 0x20 ADD SWAP1 DUP2 MSTORE PUSH1 0x20 ADD PUSH1 0x0 KECCAK256 PUSH1 0x1 ADD PUSH1 0x0 SWAP1 SLOAD SWAP1 PUSH2 0x100 EXP SWAP1 DIV PUSH20 0xFFFFFFFFFFFFFFFFFFFFFFFFFFFFFFFFFFFFFFFF AND PUSH20 0xFFFFFFFFFFFFFFFFFFFFFFFFFFFFFFFFFFFFFFFF AND EQ ISZERO PUSH2 0x3E1 JUMPI PUSH1 0x40 MLOAD PUSH32 0x8C379A000000000000000000000000000000000000000000000000000000000 DUP2 MSTORE PUSH1 0x4 ADD PUSH2 0x3D8 SWAP1 PUSH2 0xAF4 JUMP JUMPDEST PUSH1 0x40 MLOAD DUP1 SWAP2 SUB SWAP1 REVERT JUMPDEST DUP3 PUSH1 0x3 PUSH1 0x0 CALLER PUSH20 0xFFFFFFFFFFFFFFFFFFFFFFFFFFFFFFFFFFFFFFFF AND PUSH20 0xFFFFFFFFFFFFFFFFFFFFFFFFFFFFFFFFFFFFFFFF AND DUP2 MSTORE PUSH1 0x20 ADD SWAP1 DUP2 MSTORE PUSH1 0x20 ADD PUSH1 0x0 KECCAK256 PUSH1 0x0 DUP5 DUP2 MSTORE PUSH1 0x20 ADD SWAP1 DUP2 MSTORE PUSH1 0x20 ADD PUSH1 0x0 KECCAK256 SLOAD LT ISZERO PUSH2 0x474 JUMPI PUSH1 0x40 MLOAD PUSH32 0x8C379A000000000000000000000000000000000000000000000000000000000 DUP2 MSTORE PUSH1 0x4 ADD PUSH2 0x46B SWAP1 PUSH2 0xB14 JUMP JUMPDEST PUSH1 0x40 MLOAD DUP1 SWAP2 SUB SWAP1 REVERT JUMPDEST DUP3 PUSH1 0x3 PUSH1 0x0 CALLER PUSH20 0xFFFFFFFFFFFFFFFFFFFFFFFFFFFFFFFFFFFFFFFF AND PUSH20 0xFFFFFFFFFFFFFFFFFFFFFFFFFFFFFFFFFFFFFFFF AND DUP2 MSTORE PUSH1 0x20 ADD SWAP1 DUP2 MSTORE PUSH1 0x20 ADD PUSH1 0x0 KECCAK256 PUSH1 0x0 DUP5 DUP2 MSTORE PUSH1 0x20 ADD SWAP1 DUP2 MSTORE PUSH1 0x20 ADD PUSH1 0x0 KECCAK256 PUSH1 0x0 DUP3 DUP3 SLOAD PUSH2 0x4D4 SWAP2 SWAP1 PUSH2 0xBD6 JUMP JUMPDEST SWAP3 POP POP DUP2 SWAP1 SSTORE POP PUSH1 0x0 DUP1 DUP4 DUP2 MSTORE PUSH1 0x20 ADD SWAP1 DUP2 MSTORE PUSH1 0x20 ADD PUSH1 0x0 KECCAK256 PUSH1 0x1 ADD PUSH1 0x0 SWAP1 SLOAD SWAP1 PUSH2 0x100 EXP SWAP1 DIV PUSH20 0xFFFFFFFFFFFFFFFFFFFFFFFFFFFFFFFFFFFFFFFF AND PUSH20 0xFFFFFFFFFFFFFFFFFFFFFFFFFFFFFFFFFFFFFFFF AND PUSH4 0xA9059CBB CALLER DUP6 PUSH1 0x40 MLOAD DUP4 PUSH4 0xFFFFFFFF AND PUSH1 0xE0 SHL DUP2 MSTORE PUSH1 0x4 ADD PUSH2 0x54B SWAP3 SWAP2 SWAP1 PUSH2 0xA87 JUMP JUMPDEST PUSH1 0x20 PUSH1 0x40 MLOAD DUP1 DUP4 SUB DUP2 PUSH1 0x0 DUP8 DUP1 EXTCODESIZE ISZERO DUP1 ISZERO PUSH2 0x565 JUMPI PUSH1 0x0 DUP1 REVERT JUMPDEST POP GAS CALL ISZERO DUP1 ISZERO PUSH2 0x579 JUMPI RETURNDATASIZE PUSH1 0x0 DUP1 RETURNDATACOPY RETURNDATASIZE PUSH1 0x0 REVERT JUMPDEST POP POP POP POP PUSH1 0x40 MLOAD RETURNDATASIZE PUSH1 0x1F NOT PUSH1 0x1F DUP3 ADD AND DUP3 ADD DUP1 PUSH1 0x40 MSTORE POP DUP2 ADD SWAP1 PUSH2 0x59D SWAP2 SWAP1 PUSH2 0x855 JUMP JUMPDEST POP POP POP POP JUMP JUMPDEST PUSH1 0x3 PUSH1 0x20 MSTORE DUP2 PUSH1 0x0 MSTORE PUSH1 0x40 PUSH1 0x0 KECCAK256 PUSH1 0x20 MSTORE DUP1 PUSH1 0x0 MSTORE PUSH1 0x40 PUSH1 0x0 KECCAK256 PUSH1 0x0 SWAP2 POP SWAP2 POP POP SLOAD DUP2 JUMP JUMPDEST DUP1 PUSH1 0x0 PUSH20 0xFFFFFFFFFFFFFFFFFFFFFFFFFFFFFFFFFFFFFFFF AND PUSH1 0x0 DUP1 DUP4 DUP2 MSTORE PUSH1 0x20 ADD SWAP1 DUP2 MSTORE PUSH1 0x20 ADD PUSH1 0x0 KECCAK256 PUSH1 0x1 ADD PUSH1 0x0 SWAP1 SLOAD SWAP1 PUSH2 0x100 EXP SWAP1 DIV PUSH20 0xFFFFFFFFFFFFFFFFFFFFFFFFFFFFFFFFFFFFFFFF AND PUSH20 0xFFFFFFFFFFFFFFFFFFFFFFFFFFFFFFFFFFFFFFFF AND EQ ISZERO PUSH2 0x66E JUMPI PUSH1 0x40 MLOAD PUSH32 0x8C379A000000000000000000000000000000000000000000000000000000000 DUP2 MSTORE PUSH1 0x4 ADD PUSH2 0x665 SWAP1 PUSH2 0xAF4 JUMP JUMPDEST PUSH1 0x40 MLOAD DUP1 SWAP2 SUB SWAP1 REVERT JUMPDEST PUSH1 0x0 DUP1 DUP4 DUP2 MSTORE PUSH1 0x20 ADD SWAP1 DUP2 MSTORE PUSH1 0x20 ADD PUSH1 0x0 KECCAK256 PUSH1 0x1 ADD PUSH1 0x0 SWAP1 SLOAD SWAP1 PUSH2 0x100 EXP SWAP1 DIV PUSH20 0xFFFFFFFFFFFFFFFFFFFFFFFFFFFFFFFFFFFFFFFF AND PUSH20 0xFFFFFFFFFFFFFFFFFFFFFFFFFFFFFFFFFFFFFFFF AND PUSH4 0x23B872DD CALLER ADDRESS DUP7 PUSH1 0x40 MLOAD DUP5 PUSH4 0xFFFFFFFF AND PUSH1 0xE0 SHL DUP2 MSTORE PUSH1 0x4 ADD PUSH2 0x6E0 SWAP4 SWAP3 SWAP2 SWAP1 PUSH2 0xA50 JUMP JUMPDEST PUSH1 0x20 PUSH1 0x40 MLOAD DUP1 DUP4 SUB DUP2 PUSH1 0x0 DUP8 DUP1 EXTCODESIZE ISZERO DUP1 ISZERO PUSH2 0x6FA JUMPI PUSH1 0x0 DUP1 REVERT JUMPDEST POP GAS CALL ISZERO DUP1 ISZERO PUSH2 0x70E JUMPI RETURNDATASIZE PUSH1 0x0 DUP1 RETURNDATACOPY RETURNDATASIZE PUSH1 0x0 REVERT JUMPDEST POP POP POP POP PUSH1 0x40 MLOAD RETURNDATASIZE PUSH1 0x1F NOT PUSH1 0x1F DUP3 ADD AND DUP3 ADD DUP1 PUSH1 0x40 MSTORE POP DUP2 ADD SWAP1 PUSH2 0x732 SWAP2 SWAP1 PUSH2 0x855 JUMP JUMPDEST POP DUP3 PUSH1 0x3 PUSH1 0x0 CALLER PUSH20 0xFFFFFFFFFFFFFFFFFFFFFFFFFFFFFFFFFFFFFFFF AND PUSH20 0xFFFFFFFFFFFFFFFFFFFFFFFFFFFFFFFFFFFFFFFF AND DUP2 MSTORE PUSH1 0x20 ADD SWAP1 DUP2 MSTORE PUSH1 0x20 ADD PUSH1 0x0 KECCAK256 PUSH1 0x0 DUP5 DUP2 MSTORE PUSH1 0x20 ADD SWAP1 DUP2 MSTORE PUSH1 0x20 ADD PUSH1 0x0 KECCAK256 PUSH1 0x0 DUP3 DUP3 SLOAD PUSH2 0x793 SWAP2 SWAP1 PUSH2 0xB80 JUMP JUMPDEST SWAP3 POP POP DUP2 SWAP1 SSTORE POP POP POP POP JUMP JUMPDEST PUSH1 0x2 PUSH1 0x0 SWAP1 SLOAD SWAP1 PUSH2 0x100 EXP SWAP1 DIV PUSH20 0xFFFFFFFFFFFFFFFFFFFFFFFFFFFFFFFFFFFFFFFF AND DUP2 JUMP JUMPDEST PUSH1 0x0 DUP2 CALLDATALOAD SWAP1 POP PUSH2 0x7D4 DUP2 PUSH2 0xC8B JUMP JUMPDEST SWAP3 SWAP2 POP POP JUMP JUMPDEST PUSH1 0x0 DUP2 MLOAD SWAP1 POP PUSH2 0x7E9 DUP2 PUSH2 0xCA2 JUMP JUMPDEST SWAP3 SWAP2 POP POP JUMP JUMPDEST PUSH1 0x0 DUP2 CALLDATALOAD SWAP1 POP PUSH2 0x7FE DUP2 PUSH2 0xCB9 JUMP JUMPDEST SWAP3 SWAP2 POP POP JUMP JUMPDEST PUSH1 0x0 DUP2 CALLDATALOAD SWAP1 POP PUSH2 0x813 DUP2 PUSH2 0xCD0 JUMP JUMPDEST SWAP3 SWAP2 POP POP JUMP JUMPDEST PUSH1 0x0 DUP1 PUSH1 0x40 DUP4 DUP6 SUB SLT ISZERO PUSH2 0x82C JUMPI PUSH1 0x0 DUP1 REVERT JUMPDEST PUSH1 0x0 PUSH2 0x83A DUP6 DUP3 DUP7 ADD PUSH2 0x7C5 JUMP JUMPDEST SWAP3 POP POP PUSH1 0x20 PUSH2 0x84B DUP6 DUP3 DUP7 ADD PUSH2 0x7EF JUMP JUMPDEST SWAP2 POP POP SWAP3 POP SWAP3 SWAP1 POP JUMP JUMPDEST PUSH1 0x0 PUSH1 0x20 DUP3 DUP5 SUB SLT ISZERO PUSH2 0x867 JUMPI PUSH1 0x0 DUP1 REVERT JUMPDEST PUSH1 0x0 PUSH2 0x875 DUP5 DUP3 DUP6 ADD PUSH2 0x7DA JUMP JUMPDEST SWAP2 POP POP SWAP3 SWAP2 POP POP JUMP JUMPDEST PUSH1 0x0 PUSH1 0x20 DUP3 DUP5 SUB SLT ISZERO PUSH2 0x890 JUMPI PUSH1 0x0 DUP1 REVERT JUMPDEST PUSH1 0x0 PUSH2 0x89E DUP5 DUP3 DUP6 ADD PUSH2 0x7EF JUMP JUMPDEST SWAP2 POP POP SWAP3 SWAP2 POP POP JUMP JUMPDEST PUSH1 0x0 DUP1 PUSH1 0x40 DUP4 DUP6 SUB SLT ISZERO PUSH2 0x8BA JUMPI PUSH1 0x0 DUP1 REVERT JUMPDEST PUSH1 0x0 PUSH2 0x8C8 DUP6 DUP3 DUP7 ADD PUSH2 0x7EF JUMP JUMPDEST SWAP3 POP POP PUSH1 0x20 PUSH2 0x8D9 DUP6 DUP3 DUP7 ADD PUSH2 0x7C5 JUMP JUMPDEST SWAP2 POP POP SWAP3 POP SWAP3 SWAP1 POP JUMP JUMPDEST PUSH1 0x0 PUSH1 0x20 DUP3 DUP5 SUB SLT ISZERO PUSH2 0x8F5 JUMPI PUSH1 0x0 DUP1 REVERT JUMPDEST PUSH1 0x0 PUSH2 0x903 DUP5 DUP3 DUP6 ADD PUSH2 0x804 JUMP JUMPDEST SWAP2 POP POP SWAP3 SWAP2 POP POP JUMP JUMPDEST PUSH1 0x0 DUP1 PUSH1 0x40 DUP4 DUP6 SUB SLT ISZERO PUSH2 0x91F JUMPI PUSH1 0x0 DUP1 REVERT JUMPDEST PUSH1 0x0 PUSH2 0x92D DUP6 DUP3 DUP7 ADD PUSH2 0x804 JUMP JUMPDEST SWAP3 POP POP PUSH1 0x20 PUSH2 0x93E DUP6 DUP3 DUP7 ADD PUSH2 0x7EF JUMP JUMPDEST SWAP2 POP POP SWAP3 POP SWAP3 SWAP1 POP JUMP JUMPDEST PUSH2 0x951 DUP2 PUSH2 0xC0A JUMP JUMPDEST DUP3 MSTORE POP POP JUMP JUMPDEST PUSH2 0x960 DUP2 PUSH2 0xC28 JUMP JUMPDEST DUP3 MSTORE POP POP JUMP JUMPDEST PUSH1 0x0 PUSH2 0x973 PUSH1 0x13 DUP4 PUSH2 0xB6F JUMP JUMPDEST SWAP2 POP PUSH32 0x546F6B656E20646F65736E6F7420657869737400000000000000000000000000 PUSH1 0x0 DUP4 ADD MSTORE PUSH1 0x20 DUP3 ADD SWAP1 POP SWAP2 SWAP1 POP JUMP JUMPDEST PUSH1 0x0 PUSH2 0x9B3 PUSH1 0x14 DUP4 PUSH2 0xB6F JUMP JUMPDEST SWAP2 POP PUSH32 0x496E73756666696369656E742042616C616E6365000000000000000000000000 PUSH1 0x0 DUP4 ADD MSTORE PUSH1 0x20 DUP3 ADD SWAP1 POP SWAP2 SWAP1 POP JUMP JUMPDEST PUSH1 0x0 PUSH2 0x9F3 PUSH1 0xA DUP4 PUSH2 0xB6F JUMP JUMPDEST SWAP2 POP PUSH32 0x4F6E6C792041646D696E00000000000000000000000000000000000000000000 PUSH1 0x0 DUP4 ADD MSTORE PUSH1 0x20 DUP3 ADD SWAP1 POP SWAP2 SWAP1 POP JUMP JUMPDEST PUSH2 0xA2F DUP2 PUSH2 0xC52 JUMP JUMPDEST DUP3 MSTORE POP POP JUMP JUMPDEST PUSH1 0x0 PUSH1 0x20 DUP3 ADD SWAP1 POP PUSH2 0xA4A PUSH1 0x0 DUP4 ADD DUP5 PUSH2 0x948 JUMP JUMPDEST SWAP3 SWAP2 POP POP JUMP JUMPDEST PUSH1 0x0 PUSH1 0x60 DUP3 ADD SWAP1 POP PUSH2 0xA65 PUSH1 0x0 DUP4 ADD DUP7 PUSH2 0x948 JUMP JUMPDEST PUSH2 0xA72 PUSH1 0x20 DUP4 ADD DUP6 PUSH2 0x948 JUMP JUMPDEST PUSH2 0xA7F PUSH1 0x40 DUP4 ADD DUP5 PUSH2 0xA26 JUMP JUMPDEST SWAP5 SWAP4 POP POP POP POP JUMP JUMPDEST PUSH1 0x0 PUSH1 0x40 DUP3 ADD SWAP1 POP PUSH2 0xA9C PUSH1 0x0 DUP4 ADD DUP6 PUSH2 0x948 JUMP JUMPDEST PUSH2 0xAA9 PUSH1 0x20 DUP4 ADD DUP5 PUSH2 0xA26 JUMP JUMPDEST SWAP4 SWAP3 POP POP POP JUMP JUMPDEST PUSH1 0x0 PUSH1 0x20 DUP3 ADD SWAP1 POP PUSH2 0xAC5 PUSH1 0x0 DUP4 ADD DUP5 PUSH2 0x957 JUMP JUMPDEST SWAP3 SWAP2 POP POP JUMP JUMPDEST PUSH1 0x0 PUSH1 0x40 DUP3 ADD SWAP1 POP PUSH2 0xAE0 PUSH1 0x0 DUP4 ADD DUP6 PUSH2 0x957 JUMP JUMPDEST PUSH2 0xAED PUSH1 0x20 DUP4 ADD DUP5 PUSH2 0x948 JUMP JUMPDEST SWAP4 SWAP3 POP POP POP JUMP JUMPDEST PUSH1 0x0 PUSH1 0x20 DUP3 ADD SWAP1 POP DUP2 DUP2 SUB PUSH1 0x0 DUP4 ADD MSTORE PUSH2 0xB0D DUP2 PUSH2 0x966 JUMP JUMPDEST SWAP1 POP SWAP2 SWAP1 POP JUMP JUMPDEST PUSH1 0x0 PUSH1 0x20 DUP3 ADD SWAP1 POP DUP2 DUP2 SUB PUSH1 0x0 DUP4 ADD MSTORE PUSH2 0xB2D DUP2 PUSH2 0x9A6 JUMP JUMPDEST SWAP1 POP SWAP2 SWAP1 POP JUMP JUMPDEST PUSH1 0x0 PUSH1 0x20 DUP3 ADD SWAP1 POP DUP2 DUP2 SUB PUSH1 0x0 DUP4 ADD MSTORE PUSH2 0xB4D DUP2 PUSH2 0x9E6 JUMP JUMPDEST SWAP1 POP SWAP2 SWAP1 POP JUMP JUMPDEST PUSH1 0x0 PUSH1 0x20 DUP3 ADD SWAP1 POP PUSH2 0xB69 PUSH1 0x0 DUP4 ADD DUP5 PUSH2 0xA26 JUMP JUMPDEST SWAP3 SWAP2 POP POP JUMP JUMPDEST PUSH1 0x0 DUP3 DUP3 MSTORE PUSH1 0x20 DUP3 ADD SWAP1 POP SWAP3 SWAP2 POP POP JUMP JUMPDEST PUSH1 0x0 PUSH2 0xB8B DUP3 PUSH2 0xC52 JUMP JUMPDEST SWAP2 POP PUSH2 0xB96 DUP4 PUSH2 0xC52 JUMP JUMPDEST SWAP3 POP DUP3 PUSH32 0xFFFFFFFFFFFFFFFFFFFFFFFFFFFFFFFFFFFFFFFFFFFFFFFFFFFFFFFFFFFFFFFF SUB DUP3 GT ISZERO PUSH2 0xBCB JUMPI PUSH2 0xBCA PUSH2 0xC5C JUMP JUMPDEST JUMPDEST DUP3 DUP3 ADD SWAP1 POP SWAP3 SWAP2 POP POP JUMP JUMPDEST PUSH1 0x0 PUSH2 0xBE1 DUP3 PUSH2 0xC52 JUMP JUMPDEST SWAP2 POP PUSH2 0xBEC DUP4 PUSH2 0xC52 JUMP JUMPDEST SWAP3 POP DUP3 DUP3 LT ISZERO PUSH2 0xBFF JUMPI PUSH2 0xBFE PUSH2 0xC5C JUMP JUMPDEST JUMPDEST DUP3 DUP3 SUB SWAP1 POP SWAP3 SWAP2 POP POP JUMP JUMPDEST PUSH1 0x0 PUSH2 0xC15 DUP3 PUSH2 0xC32 JUMP JUMPDEST SWAP1 POP SWAP2 SWAP1 POP JUMP JUMPDEST PUSH1 0x0 DUP2 ISZERO ISZERO SWAP1 POP SWAP2 SWAP1 POP JUMP JUMPDEST PUSH1 0x0 DUP2 SWAP1 POP SWAP2 SWAP1 POP JUMP JUMPDEST PUSH1 0x0 PUSH20 0xFFFFFFFFFFFFFFFFFFFFFFFFFFFFFFFFFFFFFFFF DUP3 AND SWAP1 POP SWAP2 SWAP1 POP JUMP JUMPDEST PUSH1 0x0 DUP2 SWAP1 POP SWAP2 SWAP1 POP JUMP JUMPDEST PUSH32 0x4E487B7100000000000000000000000000000000000000000000000000000000 PUSH1 0x0 MSTORE PUSH1 0x11 PUSH1 0x4 MSTORE PUSH1 0x24 PUSH1 0x0 REVERT JUMPDEST PUSH2 0xC94 DUP2 PUSH2 0xC0A JUMP JUMPDEST DUP2 EQ PUSH2 0xC9F JUMPI PUSH1 0x0 DUP1 REVERT JUMPDEST POP JUMP JUMPDEST PUSH2 0xCAB DUP2 PUSH2 0xC1C JUMP JUMPDEST DUP2 EQ PUSH2 0xCB6 JUMPI PUSH1 0x0 DUP1 REVERT JUMPDEST POP JUMP JUMPDEST PUSH2 0xCC2 DUP2 PUSH2 0xC28 JUMP JUMPDEST DUP2 EQ PUSH2 0xCCD JUMPI PUSH1 0x0 DUP1 REVERT JUMPDEST POP JUMP JUMPDEST PUSH2 0xCD9 DUP2 PUSH2 0xC52 JUMP JUMPDEST DUP2 EQ PUSH2 0xCE4 JUMPI PUSH1 0x0 DUP1 REVERT JUMPDEST POP JUMP INVALID LOG2 PUSH5 0x6970667358 0x22 SLT KECCAK256 CHAINID MSIZE MSTORE8 PUSH27 0x549BFF4055B3CEE5CE3E74FB17824F42225771D4930B121C8CA9DC 0xA5 PUSH5 0x736F6C6343 STOP ADDMOD STOP STOP CALLER "
				},
				"gasEstimates": {
					"creation": {
						"codeDepositCost": "671400",
						"executionCost": "21568",
						"totalCost": "692968"
					},
					"external": {
						"add_token(bytes32,address)": "83478",
						"admin()": "1280",
						"deposit(uint256,bytes32)": "infinite",
						"token_list(uint256)": "2305",
						"tokens(bytes32)": "infinite",
						"trader_balances(address,bytes32)": "1772",
						"withdraw(uint256,bytes32)": "infinite"
					}
				},
				"methodIdentifiers": {
					"add_token(bytes32,address)": "1b66807d",
					"admin()": "f851a440",
					"deposit(uint256,bytes32)": "c9630cb0",
					"token_list(uint256)": "538cad00",
					"tokens(bytes32)": "904194a3",
					"trader_balances(address,bytes32)": "a962846a",
					"withdraw(uint256,bytes32)": "a8d2021a"
				}
			},
			"storageLayout": {
				"storage": [
					{
						"astId": 27,
						"contract": "Dex.sol:Dex",
						"label": "tokens",
						"offset": 0,
						"slot": "0",
						"type": "t_mapping(t_bytes32,t_struct(Token)7_storage)"
					},
					{
						"astId": 30,
						"contract": "Dex.sol:Dex",
						"label": "token_list",
						"offset": 0,
						"slot": "1",
						"type": "t_array(t_bytes32)dyn_storage"
					},
					{
						"astId": 32,
						"contract": "Dex.sol:Dex",
						"label": "admin",
						"offset": 0,
						"slot": "2",
						"type": "t_address"
					},
					{
						"astId": 38,
						"contract": "Dex.sol:Dex",
						"label": "trader_balances",
						"offset": 0,
						"slot": "3",
						"type": "t_mapping(t_address,t_mapping(t_bytes32,t_uint256))"
					}
				],
				"types": {
					"t_address": {
						"encoding": "inplace",
						"label": "address",
						"numberOfBytes": "20"
					},
					"t_array(t_bytes32)dyn_storage": {
						"base": "t_bytes32",
						"encoding": "dynamic_array",
						"label": "bytes32[]",
						"numberOfBytes": "32"
					},
					"t_bytes32": {
						"encoding": "inplace",
						"label": "bytes32",
						"numberOfBytes": "32"
					},
					"t_mapping(t_address,t_mapping(t_bytes32,t_uint256))": {
						"encoding": "mapping",
						"key": "t_address",
						"label": "mapping(address => mapping(bytes32 => uint256))",
						"numberOfBytes": "32",
						"value": "t_mapping(t_bytes32,t_uint256)"
					},
					"t_mapping(t_bytes32,t_struct(Token)7_storage)": {
						"encoding": "mapping",
						"key": "t_bytes32",
						"label": "mapping(bytes32 => struct Dex.Token)",
						"numberOfBytes": "32",
						"value": "t_struct(Token)7_storage"
					},
					"t_mapping(t_bytes32,t_uint256)": {
						"encoding": "mapping",
						"key": "t_bytes32",
						"label": "mapping(bytes32 => uint256)",
						"numberOfBytes": "32",
						"value": "t_uint256"
					},
					"t_struct(Token)7_storage": {
						"encoding": "inplace",
						"label": "struct Dex.Token",
						"members": [
							{
								"astId": 4,
								"contract": "Dex.sol:Dex",
								"label": "ticker",
								"offset": 0,
								"slot": "0",
								"type": "t_bytes32"
							},
							{
								"astId": 6,
								"contract": "Dex.sol:Dex",
								"label": "token_address",
								"offset": 0,
								"slot": "1",
								"type": "t_address"
							}
						],
						"numberOfBytes": "64"
					},
					"t_uint256": {
						"encoding": "inplace",
						"label": "uint256",
						"numberOfBytes": "32"
					}
				}
			},
			"userdoc": {
				"kind": "user",
				"methods": {},
				"version": 1
			}
		}
	}
}