{
	"Dex.sol": {
		"Dex": {
			"abi": [
				{
					"inputs": [],
					"stateMutability": "nonpayable",
					"type": "constructor"
				},
				{
					"inputs": [
						{
							"internalType": "bytes32",
							"name": "ticker",
							"type": "bytes32"
						},
						{
							"internalType": "address",
							"name": "token_address",
							"type": "address"
						}
					],
					"name": "add_token",
					"outputs": [],
					"stateMutability": "nonpayable",
					"type": "function"
				},
				{
					"inputs": [],
					"name": "admin",
					"outputs": [
						{
							"internalType": "address",
							"name": "",
							"type": "address"
						}
					],
					"stateMutability": "view",
					"type": "function"
				},
				{
					"inputs": [
						{
							"internalType": "bytes32",
							"name": "ticker",
							"type": "bytes32"
						},
						{
							"internalType": "uint256",
							"name": "amount",
							"type": "uint256"
						},
						{
							"internalType": "uint256",
							"name": "price",
							"type": "uint256"
						},
						{
							"internalType": "enum Dex.Side",
							"name": "side",
							"type": "uint8"
						}
					],
					"name": "create_limit_order",
					"outputs": [],
					"stateMutability": "nonpayable",
					"type": "function"
				},
				{
					"inputs": [
						{
							"internalType": "uint256",
							"name": "amount",
							"type": "uint256"
						},
						{
							"internalType": "bytes32",
							"name": "ticker",
							"type": "bytes32"
						}
					],
					"name": "deposit",
					"outputs": [],
					"stateMutability": "nonpayable",
					"type": "function"
				},
				{
					"inputs": [],
					"name": "next_order_id",
					"outputs": [
						{
							"internalType": "uint256",
							"name": "",
							"type": "uint256"
						}
					],
					"stateMutability": "view",
					"type": "function"
				},
				{
					"inputs": [
						{
							"internalType": "bytes32",
							"name": "",
							"type": "bytes32"
						},
						{
							"internalType": "uint256",
							"name": "",
							"type": "uint256"
						},
						{
							"internalType": "uint256",
							"name": "",
							"type": "uint256"
						}
					],
					"name": "order_book",
					"outputs": [
						{
							"internalType": "uint256",
							"name": "id",
							"type": "uint256"
						},
						{
							"internalType": "enum Dex.Side",
							"name": "side",
							"type": "uint8"
						},
						{
							"internalType": "bytes32",
							"name": "ticker",
							"type": "bytes32"
						},
						{
							"internalType": "uint256",
							"name": "amount",
							"type": "uint256"
						},
						{
							"internalType": "uint256",
							"name": "filled",
							"type": "uint256"
						},
						{
							"internalType": "uint256",
							"name": "price",
							"type": "uint256"
						},
						{
							"internalType": "uint256",
							"name": "date",
							"type": "uint256"
						}
					],
					"stateMutability": "view",
					"type": "function"
				},
				{
					"inputs": [
						{
							"internalType": "uint256",
							"name": "",
							"type": "uint256"
						}
					],
					"name": "token_list",
					"outputs": [
						{
							"internalType": "bytes32",
							"name": "",
							"type": "bytes32"
						}
					],
					"stateMutability": "view",
					"type": "function"
				},
				{
					"inputs": [
						{
							"internalType": "bytes32",
							"name": "",
							"type": "bytes32"
						}
					],
					"name": "tokens",
					"outputs": [
						{
							"internalType": "bytes32",
							"name": "ticker",
							"type": "bytes32"
						},
						{
							"internalType": "address",
							"name": "token_address",
							"type": "address"
						}
					],
					"stateMutability": "view",
					"type": "function"
				},
				{
					"inputs": [
						{
							"internalType": "address",
							"name": "",
							"type": "address"
						},
						{
							"internalType": "bytes32",
							"name": "",
							"type": "bytes32"
						}
					],
					"name": "trader_balances",
					"outputs": [
						{
							"internalType": "uint256",
							"name": "",
							"type": "uint256"
						}
					],
					"stateMutability": "view",
					"type": "function"
				},
				{
					"inputs": [
						{
							"internalType": "uint256",
							"name": "amount",
							"type": "uint256"
						},
						{
							"internalType": "bytes32",
							"name": "ticker",
							"type": "bytes32"
						}
					],
					"name": "withdraw",
					"outputs": [],
					"stateMutability": "nonpayable",
					"type": "function"
				}
			],
			"devdoc": {
				"kind": "dev",
				"methods": {},
				"version": 1
			},
			"evm": {
				"assembly": "    /* \"Dex.sol\":167:3841  contract Dex {... */\n  mstore(0x40, 0x80)\n    /* \"Dex.sol\":1265:1352  constructor() public {... */\n  callvalue\n  dup1\n  iszero\n  tag_1\n  jumpi\n  0x00\n  dup1\n  revert\ntag_1:\n  pop\n    /* \"Dex.sol\":1335:1345  msg.sender */\n  caller\n    /* \"Dex.sol\":1327:1332  admin */\n  0x02\n  0x00\n    /* \"Dex.sol\":1327:1345  admin = msg.sender */\n  0x0100\n  exp\n  dup2\n  sload\n  dup2\n  0xffffffffffffffffffffffffffffffffffffffff\n  mul\n  not\n  and\n  swap1\n  dup4\n  0xffffffffffffffffffffffffffffffffffffffff\n  and\n  mul\n  or\n  swap1\n  sstore\n  pop\n    /* \"Dex.sol\":167:3841  contract Dex {... */\n  dataSize(sub_0)\n  dup1\n  dataOffset(sub_0)\n  0x00\n  codecopy\n  0x00\n  return\nstop\n\nsub_0: assembly {\n        /* \"Dex.sol\":167:3841  contract Dex {... */\n      mstore(0x40, 0x80)\n      callvalue\n      dup1\n      iszero\n      tag_1\n      jumpi\n      0x00\n      dup1\n      revert\n    tag_1:\n      pop\n      jumpi(tag_2, lt(calldatasize, 0x04))\n      shr(0xe0, calldataload(0x00))\n      dup1\n      0xa8d2021a\n      gt\n      tag_13\n      jumpi\n      dup1\n      0xa8d2021a\n      eq\n      tag_8\n      jumpi\n      dup1\n      0xa962846a\n      eq\n      tag_9\n      jumpi\n      dup1\n      0xb3a7e99a\n      eq\n      tag_10\n      jumpi\n      dup1\n      0xc9630cb0\n      eq\n      tag_11\n      jumpi\n      dup1\n      0xf851a440\n      eq\n      tag_12\n      jumpi\n      jump(tag_2)\n    tag_13:\n      dup1\n      0x0baaacd2\n      eq\n      tag_3\n      jumpi\n      dup1\n      0x1b66807d\n      eq\n      tag_4\n      jumpi\n      dup1\n      0x538cad00\n      eq\n      tag_5\n      jumpi\n      dup1\n      0x904194a3\n      eq\n      tag_6\n      jumpi\n      dup1\n      0x9dd4d0c3\n      eq\n      tag_7\n      jumpi\n    tag_2:\n      0x00\n      dup1\n      revert\n        /* \"Dex.sol\":1116:1181  mapping(bytes32 => mapping(uint256 => Order[])) public order_book */\n    tag_3:\n      tag_14\n      0x04\n      dup1\n      calldatasize\n      sub\n      dup2\n      add\n      swap1\n      tag_15\n      swap2\n      swap1\n      tag_16\n      jump\t// in\n    tag_15:\n      tag_17\n      jump\t// in\n    tag_14:\n      mload(0x40)\n      tag_18\n      swap8\n      swap7\n      swap6\n      swap5\n      swap4\n      swap3\n      swap2\n      swap1\n      tag_19\n      jump\t// in\n    tag_18:\n      mload(0x40)\n      dup1\n      swap2\n      sub\n      swap1\n      return\n        /* \"Dex.sol\":1399:1591  function add_token(bytes32 ticker, address token_address)... */\n    tag_4:\n      tag_20\n      0x04\n      dup1\n      calldatasize\n      sub\n      dup2\n      add\n      swap1\n      tag_21\n      swap2\n      swap1\n      tag_22\n      jump\t// in\n    tag_21:\n      tag_23\n      jump\t// in\n    tag_20:\n      stop\n        /* \"Dex.sol\":736:763  bytes32[] public token_list */\n    tag_5:\n      tag_24\n      0x04\n      dup1\n      calldatasize\n      sub\n      dup2\n      add\n      swap1\n      tag_25\n      swap2\n      swap1\n      tag_26\n      jump\t// in\n    tag_25:\n      tag_27\n      jump\t// in\n    tag_24:\n      mload(0x40)\n      tag_28\n      swap2\n      swap1\n      tag_29\n      jump\t// in\n    tag_28:\n      mload(0x40)\n      dup1\n      swap2\n      sub\n      swap1\n      return\n        /* \"Dex.sol\":661:700  mapping(bytes32 => Token) public tokens */\n    tag_6:\n      tag_30\n      0x04\n      dup1\n      calldatasize\n      sub\n      dup2\n      add\n      swap1\n      tag_31\n      swap2\n      swap1\n      tag_32\n      jump\t// in\n    tag_31:\n      tag_33\n      jump\t// in\n    tag_30:\n      mload(0x40)\n      tag_34\n      swap3\n      swap2\n      swap1\n      tag_35\n      jump\t// in\n    tag_34:\n      mload(0x40)\n      dup1\n      swap2\n      sub\n      swap1\n      return\n        /* \"Dex.sol\":1187:1215  uint256 public next_order_id */\n    tag_7:\n      tag_36\n      tag_37\n      jump\t// in\n    tag_36:\n      mload(0x40)\n      tag_38\n      swap2\n      swap1\n      tag_39\n      jump\t// in\n    tag_38:\n      mload(0x40)\n      dup1\n      swap2\n      sub\n      swap1\n      return\n        /* \"Dex.sol\":2131:2780  function withdraw(uint256 amount, bytes32 ticker)... */\n    tag_8:\n      tag_40\n      0x04\n      dup1\n      calldatasize\n      sub\n      dup2\n      add\n      swap1\n      tag_41\n      swap2\n      swap1\n      tag_42\n      jump\t// in\n    tag_41:\n      tag_43\n      jump\t// in\n    tag_40:\n      stop\n        /* \"Dex.sol\":837:907  mapping(address => mapping(bytes32 => uint256)) public trader_balances */\n    tag_9:\n      tag_44\n      0x04\n      dup1\n      calldatasize\n      sub\n      dup2\n      add\n      swap1\n      tag_45\n      swap2\n      swap1\n      tag_46\n      jump\t// in\n    tag_45:\n      tag_47\n      jump\t// in\n    tag_44:\n      mload(0x40)\n      tag_48\n      swap2\n      swap1\n      tag_39\n      jump\t// in\n    tag_48:\n      mload(0x40)\n      dup1\n      swap2\n      sub\n      swap1\n      return\n        /* \"Dex.sol\":2822:3564  function create_limit_order(... */\n    tag_10:\n      tag_49\n      0x04\n      dup1\n      calldatasize\n      sub\n      dup2\n      add\n      swap1\n      tag_50\n      swap2\n      swap1\n      tag_51\n      jump\t// in\n    tag_50:\n      tag_52\n      jump\t// in\n    tag_49:\n      stop\n        /* \"Dex.sol\":1638:2086  function deposit(uint256 amount, bytes32 ticker)... */\n    tag_11:\n      tag_53\n      0x04\n      dup1\n      calldatasize\n      sub\n      dup2\n      add\n      swap1\n      tag_54\n      swap2\n      swap1\n      tag_42\n      jump\t// in\n    tag_54:\n      tag_55\n      jump\t// in\n    tag_53:\n      stop\n        /* \"Dex.sol\":811:831  address public admin */\n    tag_12:\n      tag_56\n      tag_57\n      jump\t// in\n    tag_56:\n      mload(0x40)\n      tag_58\n      swap2\n      swap1\n      tag_59\n      jump\t// in\n    tag_58:\n      mload(0x40)\n      dup1\n      swap2\n      sub\n      swap1\n      return\n        /* \"Dex.sol\":1116:1181  mapping(bytes32 => mapping(uint256 => Order[])) public order_book */\n    tag_17:\n      mstore(0x20, 0x04)\n      dup3\n      0x00\n      mstore\n      mstore(0x20, keccak256(0x00, 0x40))\n      dup2\n      0x00\n      mstore\n      keccak256(0x00, 0x40)\n      dup2\n      dup2\n      sload\n      dup2\n      lt\n      tag_60\n      jumpi\n      0x00\n      dup1\n      revert\n    tag_60:\n      swap1\n      0x00\n      mstore\n      keccak256(0x00, 0x20)\n      swap1\n      0x07\n      mul\n      add\n      0x00\n      swap3\n      pop\n      swap3\n      pop\n      pop\n      pop\n      dup1\n      0x00\n      add\n      sload\n      swap1\n      dup1\n      0x01\n      add\n      0x00\n      swap1\n      sload\n      swap1\n      0x0100\n      exp\n      swap1\n      div\n      0xff\n      and\n      swap1\n      dup1\n      0x02\n      add\n      sload\n      swap1\n      dup1\n      0x03\n      add\n      sload\n      swap1\n      dup1\n      0x04\n      add\n      sload\n      swap1\n      dup1\n      0x05\n      add\n      sload\n      swap1\n      dup1\n      0x06\n      add\n      sload\n      swap1\n      pop\n      dup8\n      jump\t// out\n        /* \"Dex.sol\":1399:1591  function add_token(bytes32 ticker, address token_address)... */\n    tag_23:\n        /* \"Dex.sol\":3801:3806  admin */\n      0x02\n      0x00\n      swap1\n      sload\n      swap1\n      0x0100\n      exp\n      swap1\n      div\n      0xffffffffffffffffffffffffffffffffffffffff\n      and\n        /* \"Dex.sol\":3787:3806  msg.sender == admin */\n      0xffffffffffffffffffffffffffffffffffffffff\n      and\n        /* \"Dex.sol\":3787:3797  msg.sender */\n      caller\n        /* \"Dex.sol\":3787:3806  msg.sender == admin */\n      0xffffffffffffffffffffffffffffffffffffffff\n      and\n      eq\n        /* \"Dex.sol\":3779:3821  require(msg.sender == admin, \"Only Admin\") */\n      tag_63\n      jumpi\n      mload(0x40)\n      0x08c379a000000000000000000000000000000000000000000000000000000000\n      dup2\n      mstore\n      0x04\n      add\n      tag_64\n      swap1\n      tag_65\n      jump\t// in\n    tag_64:\n      mload(0x40)\n      dup1\n      swap2\n      sub\n      swap1\n      revert\n    tag_63:\n        /* \"Dex.sol\":1523:1551  Token(ticker, token_address) */\n      mload(0x40)\n      dup1\n      0x40\n      add\n      0x40\n      mstore\n      dup1\n        /* \"Dex.sol\":1529:1535  ticker */\n      dup4\n        /* \"Dex.sol\":1523:1551  Token(ticker, token_address) */\n      dup2\n      mstore\n      0x20\n      add\n        /* \"Dex.sol\":1537:1550  token_address */\n      dup3\n        /* \"Dex.sol\":1523:1551  Token(ticker, token_address) */\n      0xffffffffffffffffffffffffffffffffffffffff\n      and\n      dup2\n      mstore\n      pop\n        /* \"Dex.sol\":1506:1512  tokens */\n      0x00\n        /* \"Dex.sol\":1506:1520  tokens[ticker] */\n      dup1\n        /* \"Dex.sol\":1513:1519  ticker */\n      dup5\n        /* \"Dex.sol\":1506:1520  tokens[ticker] */\n      dup2\n      mstore\n      0x20\n      add\n      swap1\n      dup2\n      mstore\n      0x20\n      add\n      0x00\n      keccak256\n        /* \"Dex.sol\":1506:1551  tokens[ticker] = Token(ticker, token_address) */\n      0x00\n      dup3\n      add\n      mload\n      dup2\n      0x00\n      add\n      sstore\n      0x20\n      dup3\n      add\n      mload\n      dup2\n      0x01\n      add\n      exp(0x0100, 0x00)\n      dup2\n      sload\n      dup2\n      0xffffffffffffffffffffffffffffffffffffffff\n      mul\n      not\n      and\n      swap1\n      dup4\n      0xffffffffffffffffffffffffffffffffffffffff\n      and\n      mul\n      or\n      swap1\n      sstore\n      pop\n      swap1\n      pop\n      pop\n        /* \"Dex.sol\":1561:1571  token_list */\n      0x01\n        /* \"Dex.sol\":1577:1583  ticker */\n      dup3\n        /* \"Dex.sol\":1561:1584  token_list.push(ticker) */\n      swap1\n      dup1\n      0x01\n      dup2\n      sload\n      add\n      dup1\n      dup3\n      sstore\n      dup1\n      swap2\n      pop\n      pop\n      0x01\n      swap1\n      sub\n      swap1\n      0x00\n      mstore\n      keccak256(0x00, 0x20)\n      add\n      0x00\n      swap1\n      swap2\n      swap1\n      swap2\n      swap1\n      swap2\n      pop\n      sstore\n        /* \"Dex.sol\":1399:1591  function add_token(bytes32 ticker, address token_address)... */\n      pop\n      pop\n      jump\t// out\n        /* \"Dex.sol\":736:763  bytes32[] public token_list */\n    tag_27:\n      0x01\n      dup2\n      dup2\n      sload\n      dup2\n      lt\n      tag_68\n      jumpi\n      0x00\n      dup1\n      revert\n    tag_68:\n      swap1\n      0x00\n      mstore\n      keccak256(0x00, 0x20)\n      add\n      0x00\n      swap2\n      pop\n      swap1\n      pop\n      sload\n      dup2\n      jump\t// out\n        /* \"Dex.sol\":661:700  mapping(bytes32 => Token) public tokens */\n    tag_33:\n      mstore(0x20, 0x00)\n      dup1\n      0x00\n      mstore\n      keccak256(0x00, 0x40)\n      0x00\n      swap2\n      pop\n      swap1\n      pop\n      dup1\n      0x00\n      add\n      sload\n      swap1\n      dup1\n      0x01\n      add\n      0x00\n      swap1\n      sload\n      swap1\n      0x0100\n      exp\n      swap1\n      div\n      0xffffffffffffffffffffffffffffffffffffffff\n      and\n      swap1\n      pop\n      dup3\n      jump\t// out\n        /* \"Dex.sol\":1187:1215  uint256 public next_order_id */\n    tag_37:\n      sload(0x05)\n      dup2\n      jump\t// out\n        /* \"Dex.sol\":2131:2780  function withdraw(uint256 amount, bytes32 ticker)... */\n    tag_43:\n        /* \"Dex.sol\":2217:2223  ticker */\n      dup1\n        /* \"Dex.sol\":3677:3678  0 */\n      0x00\n        /* \"Dex.sol\":3637:3679  tokens[ticker].token_address != address(0) */\n      0xffffffffffffffffffffffffffffffffffffffff\n      and\n        /* \"Dex.sol\":3637:3643  tokens */\n      0x00\n        /* \"Dex.sol\":3637:3651  tokens[ticker] */\n      dup1\n        /* \"Dex.sol\":3644:3650  ticker */\n      dup4\n        /* \"Dex.sol\":3637:3651  tokens[ticker] */\n      dup2\n      mstore\n      0x20\n      add\n      swap1\n      dup2\n      mstore\n      0x20\n      add\n      0x00\n      keccak256\n        /* \"Dex.sol\":3637:3665  tokens[ticker].token_address */\n      0x01\n      add\n      0x00\n      swap1\n      sload\n      swap1\n      0x0100\n      exp\n      swap1\n      div\n      0xffffffffffffffffffffffffffffffffffffffff\n      and\n        /* \"Dex.sol\":3637:3679  tokens[ticker].token_address != address(0) */\n      0xffffffffffffffffffffffffffffffffffffffff\n      and\n      eq\n      iszero\n        /* \"Dex.sol\":3616:3724  require(... */\n      tag_71\n      jumpi\n      mload(0x40)\n      0x08c379a000000000000000000000000000000000000000000000000000000000\n      dup2\n      mstore\n      0x04\n      add\n      tag_72\n      swap1\n      tag_73\n      jump\t// in\n    tag_72:\n      mload(0x40)\n      dup1\n      swap2\n      sub\n      swap1\n      revert\n    tag_71:\n        /* \"Dex.sol\":2344:2350  amount */\n      dup3\n        /* \"Dex.sol\":2305:2320  trader_balances */\n      0x03\n        /* \"Dex.sol\":2305:2332  trader_balances[msg.sender] */\n      0x00\n        /* \"Dex.sol\":2321:2331  msg.sender */\n      caller\n        /* \"Dex.sol\":2305:2332  trader_balances[msg.sender] */\n      0xffffffffffffffffffffffffffffffffffffffff\n      and\n      0xffffffffffffffffffffffffffffffffffffffff\n      and\n      dup2\n      mstore\n      0x20\n      add\n      swap1\n      dup2\n      mstore\n      0x20\n      add\n      0x00\n      keccak256\n        /* \"Dex.sol\":2305:2340  trader_balances[msg.sender][ticker] */\n      0x00\n        /* \"Dex.sol\":2333:2339  ticker */\n      dup5\n        /* \"Dex.sol\":2305:2340  trader_balances[msg.sender][ticker] */\n      dup2\n      mstore\n      0x20\n      add\n      swap1\n      dup2\n      mstore\n      0x20\n      add\n      0x00\n      keccak256\n      sload\n        /* \"Dex.sol\":2305:2350  trader_balances[msg.sender][ticker] >= amount */\n      lt\n      iszero\n        /* \"Dex.sol\":2284:2396  require(... */\n      tag_75\n      jumpi\n      mload(0x40)\n      0x08c379a000000000000000000000000000000000000000000000000000000000\n      dup2\n      mstore\n      0x04\n      add\n      tag_76\n      swap1\n      tag_77\n      jump\t// in\n    tag_76:\n      mload(0x40)\n      dup1\n      swap2\n      sub\n      swap1\n      revert\n    tag_75:\n        /* \"Dex.sol\":2559:2565  amount */\n      dup3\n        /* \"Dex.sol\":2520:2535  trader_balances */\n      0x03\n        /* \"Dex.sol\":2520:2547  trader_balances[msg.sender] */\n      0x00\n        /* \"Dex.sol\":2536:2546  msg.sender */\n      caller\n        /* \"Dex.sol\":2520:2547  trader_balances[msg.sender] */\n      0xffffffffffffffffffffffffffffffffffffffff\n      and\n      0xffffffffffffffffffffffffffffffffffffffff\n      and\n      dup2\n      mstore\n      0x20\n      add\n      swap1\n      dup2\n      mstore\n      0x20\n      add\n      0x00\n      keccak256\n        /* \"Dex.sol\":2520:2555  trader_balances[msg.sender][ticker] */\n      0x00\n        /* \"Dex.sol\":2548:2554  ticker */\n      dup5\n        /* \"Dex.sol\":2520:2555  trader_balances[msg.sender][ticker] */\n      dup2\n      mstore\n      0x20\n      add\n      swap1\n      dup2\n      mstore\n      0x20\n      add\n      0x00\n      keccak256\n      0x00\n        /* \"Dex.sol\":2520:2565  trader_balances[msg.sender][ticker] -= amount */\n      dup3\n      dup3\n      sload\n      tag_78\n      swap2\n      swap1\n      tag_79\n      jump\t// in\n    tag_78:\n      swap3\n      pop\n      pop\n      dup2\n      swap1\n      sstore\n      pop\n        /* \"Dex.sol\":2715:2721  tokens */\n      0x00\n        /* \"Dex.sol\":2715:2729  tokens[ticker] */\n      dup1\n        /* \"Dex.sol\":2722:2728  ticker */\n      dup4\n        /* \"Dex.sol\":2715:2729  tokens[ticker] */\n      dup2\n      mstore\n      0x20\n      add\n      swap1\n      dup2\n      mstore\n      0x20\n      add\n      0x00\n      keccak256\n        /* \"Dex.sol\":2715:2743  tokens[ticker].token_address */\n      0x01\n      add\n      0x00\n      swap1\n      sload\n      swap1\n      0x0100\n      exp\n      swap1\n      div\n      0xffffffffffffffffffffffffffffffffffffffff\n      and\n        /* \"Dex.sol\":2708:2753  IERC20(tokens[ticker].token_address).transfer */\n      0xffffffffffffffffffffffffffffffffffffffff\n      and\n      0xa9059cbb\n        /* \"Dex.sol\":2754:2764  msg.sender */\n      caller\n        /* \"Dex.sol\":2766:2772  amount */\n      dup6\n        /* \"Dex.sol\":2708:2773  IERC20(tokens[ticker].token_address).transfer(msg.sender, amount) */\n      mload(0x40)\n      dup4\n      0xffffffff\n      and\n      0xe0\n      shl\n      dup2\n      mstore\n      0x04\n      add\n      tag_80\n      swap3\n      swap2\n      swap1\n      tag_81\n      jump\t// in\n    tag_80:\n      0x20\n      mload(0x40)\n      dup1\n      dup4\n      sub\n      dup2\n      0x00\n      dup8\n      dup1\n      extcodesize\n      iszero\n      dup1\n      iszero\n      tag_82\n      jumpi\n      0x00\n      dup1\n      revert\n    tag_82:\n      pop\n      gas\n      call\n      iszero\n      dup1\n      iszero\n      tag_84\n      jumpi\n      returndatasize\n      0x00\n      dup1\n      returndatacopy\n      revert(0x00, returndatasize)\n    tag_84:\n      pop\n      pop\n      pop\n      pop\n      mload(0x40)\n      returndatasize\n      not(0x1f)\n      0x1f\n      dup3\n      add\n      and\n      dup3\n      add\n      dup1\n      0x40\n      mstore\n      pop\n      dup2\n      add\n      swap1\n      tag_85\n      swap2\n      swap1\n      tag_86\n      jump\t// in\n    tag_85:\n      pop\n        /* \"Dex.sol\":2131:2780  function withdraw(uint256 amount, bytes32 ticker)... */\n      pop\n      pop\n      pop\n      jump\t// out\n        /* \"Dex.sol\":837:907  mapping(address => mapping(bytes32 => uint256)) public trader_balances */\n    tag_47:\n      mstore(0x20, 0x03)\n      dup2\n      0x00\n      mstore\n      mstore(0x20, keccak256(0x00, 0x40))\n      dup1\n      0x00\n      mstore\n      keccak256(0x00, 0x40)\n      0x00\n      swap2\n      pop\n      swap2\n      pop\n      pop\n      sload\n      dup2\n      jump\t// out\n        /* \"Dex.sol\":2822:3564  function create_limit_order(... */\n    tag_52:\n        /* \"Dex.sol\":2966:2972  ticker */\n      dup4\n        /* \"Dex.sol\":3677:3678  0 */\n      0x00\n        /* \"Dex.sol\":3637:3679  tokens[ticker].token_address != address(0) */\n      0xffffffffffffffffffffffffffffffffffffffff\n      and\n        /* \"Dex.sol\":3637:3643  tokens */\n      0x00\n        /* \"Dex.sol\":3637:3651  tokens[ticker] */\n      dup1\n        /* \"Dex.sol\":3644:3650  ticker */\n      dup4\n        /* \"Dex.sol\":3637:3651  tokens[ticker] */\n      dup2\n      mstore\n      0x20\n      add\n      swap1\n      dup2\n      mstore\n      0x20\n      add\n      0x00\n      keccak256\n        /* \"Dex.sol\":3637:3665  tokens[ticker].token_address */\n      0x01\n      add\n      0x00\n      swap1\n      sload\n      swap1\n      0x0100\n      exp\n      swap1\n      div\n      0xffffffffffffffffffffffffffffffffffffffff\n      and\n        /* \"Dex.sol\":3637:3679  tokens[ticker].token_address != address(0) */\n      0xffffffffffffffffffffffffffffffffffffffff\n      and\n      eq\n      iszero\n        /* \"Dex.sol\":3616:3724  require(... */\n      tag_88\n      jumpi\n      mload(0x40)\n      0x08c379a000000000000000000000000000000000000000000000000000000000\n      dup2\n      mstore\n      0x04\n      add\n      tag_89\n      swap1\n      tag_73\n      jump\t// in\n    tag_89:\n      mload(0x40)\n      dup1\n      swap2\n      sub\n      swap1\n      revert\n    tag_88:\n        /* \"Dex.sol\":1244:1258  bytes32(\"DAI\") */\n      0x4441490000000000000000000000000000000000000000000000000000000000\n        /* \"Dex.sol\":3063:3069  ticker */\n      dup6\n        /* \"Dex.sol\":3063:3076  ticker != DAI */\n      eq\n      iszero\n        /* \"Dex.sol\":3055:3097  require(ticker != DAI, \"Cannot trade DAI\") */\n      tag_91\n      jumpi\n      mload(0x40)\n      0x08c379a000000000000000000000000000000000000000000000000000000000\n      dup2\n      mstore\n      0x04\n      add\n      tag_92\n      swap1\n      tag_93\n      jump\t// in\n    tag_92:\n      mload(0x40)\n      dup1\n      swap2\n      sub\n      swap1\n      revert\n    tag_91:\n        /* \"Dex.sol\":3165:3174  Side.SELL */\n      0x01\n        /* \"Dex.sol\":3157:3174  side == Side.SELL */\n      dup1\n      dup2\n      gt\n      iszero\n      tag_94\n      jumpi\n      mstore(0x00, 0x4e487b7100000000000000000000000000000000000000000000000000000000)\n      mstore(0x04, 0x21)\n      revert(0x00, 0x24)\n    tag_94:\n        /* \"Dex.sol\":3157:3161  side */\n      dup3\n        /* \"Dex.sol\":3157:3174  side == Side.SELL */\n      0x01\n      dup2\n      gt\n      iszero\n      tag_95\n      jumpi\n      mstore(0x00, 0x4e487b7100000000000000000000000000000000000000000000000000000000)\n      mstore(0x04, 0x21)\n      revert(0x00, 0x24)\n    tag_95:\n      eq\n        /* \"Dex.sol\":3153:3558  if (side == Side.SELL) {... */\n      iszero\n      tag_96\n      jumpi\n        /* \"Dex.sol\":3254:3260  amount */\n      dup4\n        /* \"Dex.sol\":3215:3230  trader_balances */\n      0x03\n        /* \"Dex.sol\":3215:3242  trader_balances[msg.sender] */\n      0x00\n        /* \"Dex.sol\":3231:3241  msg.sender */\n      caller\n        /* \"Dex.sol\":3215:3242  trader_balances[msg.sender] */\n      0xffffffffffffffffffffffffffffffffffffffff\n      and\n      0xffffffffffffffffffffffffffffffffffffffff\n      and\n      dup2\n      mstore\n      0x20\n      add\n      swap1\n      dup2\n      mstore\n      0x20\n      add\n      0x00\n      keccak256\n        /* \"Dex.sol\":3215:3250  trader_balances[msg.sender][ticker] */\n      0x00\n        /* \"Dex.sol\":3243:3249  ticker */\n      dup8\n        /* \"Dex.sol\":3215:3250  trader_balances[msg.sender][ticker] */\n      dup2\n      mstore\n      0x20\n      add\n      swap1\n      dup2\n      mstore\n      0x20\n      add\n      0x00\n      keccak256\n      sload\n        /* \"Dex.sol\":3215:3260  trader_balances[msg.sender][ticker] >= amount */\n      lt\n      iszero\n        /* \"Dex.sol\":3190:3314  require(... */\n      tag_97\n      jumpi\n      mload(0x40)\n      0x08c379a000000000000000000000000000000000000000000000000000000000\n      dup2\n      mstore\n      0x04\n      add\n      tag_98\n      swap1\n      tag_77\n      jump\t// in\n    tag_98:\n      mload(0x40)\n      dup1\n      swap2\n      sub\n      swap1\n      revert\n    tag_97:\n        /* \"Dex.sol\":3153:3558  if (side == Side.SELL) {... */\n      jump(tag_99)\n    tag_96:\n        /* \"Dex.sol\":3489:3494  price */\n      dup3\n        /* \"Dex.sol\":3480:3486  amount */\n      dup5\n        /* \"Dex.sol\":3480:3494  amount * price */\n      tag_100\n      swap2\n      swap1\n      tag_101\n      jump\t// in\n    tag_100:\n        /* \"Dex.sol\":3444:3459  trader_balances */\n      0x03\n        /* \"Dex.sol\":3444:3471  trader_balances[msg.sender] */\n      0x00\n        /* \"Dex.sol\":3460:3470  msg.sender */\n      caller\n        /* \"Dex.sol\":3444:3471  trader_balances[msg.sender] */\n      0xffffffffffffffffffffffffffffffffffffffff\n      and\n      0xffffffffffffffffffffffffffffffffffffffff\n      and\n      dup2\n      mstore\n      0x20\n      add\n      swap1\n      dup2\n      mstore\n      0x20\n      add\n      0x00\n      keccak256\n        /* \"Dex.sol\":3444:3476  trader_balances[msg.sender][DAI] */\n      0x00\n        /* \"Dex.sol\":1244:1258  bytes32(\"DAI\") */\n      0x4441490000000000000000000000000000000000000000000000000000000000\n        /* \"Dex.sol\":3444:3476  trader_balances[msg.sender][DAI] */\n      dup2\n      mstore\n      0x20\n      add\n      swap1\n      dup2\n      mstore\n      0x20\n      add\n      0x00\n      keccak256\n      sload\n        /* \"Dex.sol\":3444:3494  trader_balances[msg.sender][DAI] >= amount * price */\n      lt\n      iszero\n        /* \"Dex.sol\":3419:3547  require(... */\n      tag_102\n      jumpi\n      mload(0x40)\n      0x08c379a000000000000000000000000000000000000000000000000000000000\n      dup2\n      mstore\n      0x04\n      add\n      tag_103\n      swap1\n      tag_104\n      jump\t// in\n    tag_103:\n      mload(0x40)\n      dup1\n      swap2\n      sub\n      swap1\n      revert\n    tag_102:\n        /* \"Dex.sol\":3153:3558  if (side == Side.SELL) {... */\n    tag_99:\n        /* \"Dex.sol\":2822:3564  function create_limit_order(... */\n      pop\n      pop\n      pop\n      pop\n      pop\n      jump\t// out\n        /* \"Dex.sol\":1638:2086  function deposit(uint256 amount, bytes32 ticker)... */\n    tag_55:\n        /* \"Dex.sol\":1723:1729  ticker */\n      dup1\n        /* \"Dex.sol\":3677:3678  0 */\n      0x00\n        /* \"Dex.sol\":3637:3679  tokens[ticker].token_address != address(0) */\n      0xffffffffffffffffffffffffffffffffffffffff\n      and\n        /* \"Dex.sol\":3637:3643  tokens */\n      0x00\n        /* \"Dex.sol\":3637:3651  tokens[ticker] */\n      dup1\n        /* \"Dex.sol\":3644:3650  ticker */\n      dup4\n        /* \"Dex.sol\":3637:3651  tokens[ticker] */\n      dup2\n      mstore\n      0x20\n      add\n      swap1\n      dup2\n      mstore\n      0x20\n      add\n      0x00\n      keccak256\n        /* \"Dex.sol\":3637:3665  tokens[ticker].token_address */\n      0x01\n      add\n      0x00\n      swap1\n      sload\n      swap1\n      0x0100\n      exp\n      swap1\n      div\n      0xffffffffffffffffffffffffffffffffffffffff\n      and\n        /* \"Dex.sol\":3637:3679  tokens[ticker].token_address != address(0) */\n      0xffffffffffffffffffffffffffffffffffffffff\n      and\n      eq\n      iszero\n        /* \"Dex.sol\":3616:3724  require(... */\n      tag_106\n      jumpi\n      mload(0x40)\n      0x08c379a000000000000000000000000000000000000000000000000000000000\n      dup2\n      mstore\n      0x04\n      add\n      tag_107\n      swap1\n      tag_73\n      jump\t// in\n    tag_107:\n      mload(0x40)\n      dup1\n      swap2\n      sub\n      swap1\n      revert\n    tag_106:\n        /* \"Dex.sol\":1833:1839  tokens */\n      0x00\n        /* \"Dex.sol\":1833:1847  tokens[ticker] */\n      dup1\n        /* \"Dex.sol\":1840:1846  ticker */\n      dup4\n        /* \"Dex.sol\":1833:1847  tokens[ticker] */\n      dup2\n      mstore\n      0x20\n      add\n      swap1\n      dup2\n      mstore\n      0x20\n      add\n      0x00\n      keccak256\n        /* \"Dex.sol\":1833:1861  tokens[ticker].token_address */\n      0x01\n      add\n      0x00\n      swap1\n      sload\n      swap1\n      0x0100\n      exp\n      swap1\n      div\n      0xffffffffffffffffffffffffffffffffffffffff\n      and\n        /* \"Dex.sol\":1826:1875  IERC20(tokens[ticker].token_address).transferFrom */\n      0xffffffffffffffffffffffffffffffffffffffff\n      and\n      0x23b872dd\n        /* \"Dex.sol\":1889:1899  msg.sender */\n      caller\n        /* \"Dex.sol\":1921:1925  this */\n      address\n        /* \"Dex.sol\":1940:1946  amount */\n      dup7\n        /* \"Dex.sol\":1826:1956  IERC20(tokens[ticker].token_address).transferFrom(... */\n      mload(0x40)\n      dup5\n      0xffffffff\n      and\n      0xe0\n      shl\n      dup2\n      mstore\n      0x04\n      add\n      tag_109\n      swap4\n      swap3\n      swap2\n      swap1\n      tag_110\n      jump\t// in\n    tag_109:\n      0x20\n      mload(0x40)\n      dup1\n      dup4\n      sub\n      dup2\n      0x00\n      dup8\n      dup1\n      extcodesize\n      iszero\n      dup1\n      iszero\n      tag_111\n      jumpi\n      0x00\n      dup1\n      revert\n    tag_111:\n      pop\n      gas\n      call\n      iszero\n      dup1\n      iszero\n      tag_113\n      jumpi\n      returndatasize\n      0x00\n      dup1\n      returndatacopy\n      revert(0x00, returndatasize)\n    tag_113:\n      pop\n      pop\n      pop\n      pop\n      mload(0x40)\n      returndatasize\n      not(0x1f)\n      0x1f\n      dup3\n      add\n      and\n      dup3\n      add\n      dup1\n      0x40\n      mstore\n      pop\n      dup2\n      add\n      swap1\n      tag_114\n      swap2\n      swap1\n      tag_86\n      jump\t// in\n    tag_114:\n      pop\n        /* \"Dex.sol\":2073:2079  amount */\n      dup3\n        /* \"Dex.sol\":2034:2049  trader_balances */\n      0x03\n        /* \"Dex.sol\":2034:2061  trader_balances[msg.sender] */\n      0x00\n        /* \"Dex.sol\":2050:2060  msg.sender */\n      caller\n        /* \"Dex.sol\":2034:2061  trader_balances[msg.sender] */\n      0xffffffffffffffffffffffffffffffffffffffff\n      and\n      0xffffffffffffffffffffffffffffffffffffffff\n      and\n      dup2\n      mstore\n      0x20\n      add\n      swap1\n      dup2\n      mstore\n      0x20\n      add\n      0x00\n      keccak256\n        /* \"Dex.sol\":2034:2069  trader_balances[msg.sender][ticker] */\n      0x00\n        /* \"Dex.sol\":2062:2068  ticker */\n      dup5\n        /* \"Dex.sol\":2034:2069  trader_balances[msg.sender][ticker] */\n      dup2\n      mstore\n      0x20\n      add\n      swap1\n      dup2\n      mstore\n      0x20\n      add\n      0x00\n      keccak256\n      0x00\n        /* \"Dex.sol\":2034:2079  trader_balances[msg.sender][ticker] += amount */\n      dup3\n      dup3\n      sload\n      tag_115\n      swap2\n      swap1\n      tag_116\n      jump\t// in\n    tag_115:\n      swap3\n      pop\n      pop\n      dup2\n      swap1\n      sstore\n      pop\n        /* \"Dex.sol\":1638:2086  function deposit(uint256 amount, bytes32 ticker)... */\n      pop\n      pop\n      pop\n      jump\t// out\n        /* \"Dex.sol\":811:831  address public admin */\n    tag_57:\n      0x02\n      0x00\n      swap1\n      sload\n      swap1\n      0x0100\n      exp\n      swap1\n      div\n      0xffffffffffffffffffffffffffffffffffffffff\n      and\n      dup2\n      jump\t// out\n        /* \"#utility.yul\":7:146   */\n    tag_118:\n      0x00\n        /* \"#utility.yul\":91:97   */\n      dup2\n        /* \"#utility.yul\":78:98   */\n      calldataload\n        /* \"#utility.yul\":69:98   */\n      swap1\n      pop\n        /* \"#utility.yul\":107:140   */\n      tag_120\n        /* \"#utility.yul\":134:139   */\n      dup2\n        /* \"#utility.yul\":107:140   */\n      tag_121\n      jump\t// in\n    tag_120:\n        /* \"#utility.yul\":59:146   */\n      swap3\n      swap2\n      pop\n      pop\n      jump\t// out\n        /* \"#utility.yul\":152:289   */\n    tag_122:\n      0x00\n        /* \"#utility.yul\":237:243   */\n      dup2\n        /* \"#utility.yul\":231:244   */\n      mload\n        /* \"#utility.yul\":222:244   */\n      swap1\n      pop\n        /* \"#utility.yul\":253:283   */\n      tag_124\n        /* \"#utility.yul\":277:282   */\n      dup2\n        /* \"#utility.yul\":253:283   */\n      tag_125\n      jump\t// in\n    tag_124:\n        /* \"#utility.yul\":212:289   */\n      swap3\n      swap2\n      pop\n      pop\n      jump\t// out\n        /* \"#utility.yul\":295:434   */\n    tag_126:\n      0x00\n        /* \"#utility.yul\":379:385   */\n      dup2\n        /* \"#utility.yul\":366:386   */\n      calldataload\n        /* \"#utility.yul\":357:386   */\n      swap1\n      pop\n        /* \"#utility.yul\":395:428   */\n      tag_128\n        /* \"#utility.yul\":422:427   */\n      dup2\n        /* \"#utility.yul\":395:428   */\n      tag_129\n      jump\t// in\n    tag_128:\n        /* \"#utility.yul\":347:434   */\n      swap3\n      swap2\n      pop\n      pop\n      jump\t// out\n        /* \"#utility.yul\":440:591   */\n    tag_130:\n      0x00\n        /* \"#utility.yul\":530:536   */\n      dup2\n        /* \"#utility.yul\":517:537   */\n      calldataload\n        /* \"#utility.yul\":508:537   */\n      swap1\n      pop\n        /* \"#utility.yul\":546:585   */\n      tag_132\n        /* \"#utility.yul\":579:584   */\n      dup2\n        /* \"#utility.yul\":546:585   */\n      tag_133\n      jump\t// in\n    tag_132:\n        /* \"#utility.yul\":498:591   */\n      swap3\n      swap2\n      pop\n      pop\n      jump\t// out\n        /* \"#utility.yul\":597:736   */\n    tag_134:\n      0x00\n        /* \"#utility.yul\":681:687   */\n      dup2\n        /* \"#utility.yul\":668:688   */\n      calldataload\n        /* \"#utility.yul\":659:688   */\n      swap1\n      pop\n        /* \"#utility.yul\":697:730   */\n      tag_136\n        /* \"#utility.yul\":724:729   */\n      dup2\n        /* \"#utility.yul\":697:730   */\n      tag_137\n      jump\t// in\n    tag_136:\n        /* \"#utility.yul\":649:736   */\n      swap3\n      swap2\n      pop\n      pop\n      jump\t// out\n        /* \"#utility.yul\":742:1149   */\n    tag_46:\n      0x00\n      dup1\n        /* \"#utility.yul\":867:869   */\n      0x40\n        /* \"#utility.yul\":855:864   */\n      dup4\n        /* \"#utility.yul\":846:853   */\n      dup6\n        /* \"#utility.yul\":842:865   */\n      sub\n        /* \"#utility.yul\":838:870   */\n      slt\n        /* \"#utility.yul\":835:837   */\n      iszero\n      tag_139\n      jumpi\n        /* \"#utility.yul\":883:884   */\n      0x00\n        /* \"#utility.yul\":880:881   */\n      dup1\n        /* \"#utility.yul\":873:885   */\n      revert\n        /* \"#utility.yul\":835:837   */\n    tag_139:\n        /* \"#utility.yul\":926:927   */\n      0x00\n        /* \"#utility.yul\":951:1004   */\n      tag_140\n        /* \"#utility.yul\":996:1003   */\n      dup6\n        /* \"#utility.yul\":987:993   */\n      dup3\n        /* \"#utility.yul\":976:985   */\n      dup7\n        /* \"#utility.yul\":972:994   */\n      add\n        /* \"#utility.yul\":951:1004   */\n      tag_118\n      jump\t// in\n    tag_140:\n        /* \"#utility.yul\":941:1004   */\n      swap3\n      pop\n        /* \"#utility.yul\":897:1014   */\n      pop\n        /* \"#utility.yul\":1053:1055   */\n      0x20\n        /* \"#utility.yul\":1079:1132   */\n      tag_141\n        /* \"#utility.yul\":1124:1131   */\n      dup6\n        /* \"#utility.yul\":1115:1121   */\n      dup3\n        /* \"#utility.yul\":1104:1113   */\n      dup7\n        /* \"#utility.yul\":1100:1122   */\n      add\n        /* \"#utility.yul\":1079:1132   */\n      tag_126\n      jump\t// in\n    tag_141:\n        /* \"#utility.yul\":1069:1132   */\n      swap2\n      pop\n        /* \"#utility.yul\":1024:1142   */\n      pop\n        /* \"#utility.yul\":825:1149   */\n      swap3\n      pop\n      swap3\n      swap1\n      pop\n      jump\t// out\n        /* \"#utility.yul\":1155:1433   */\n    tag_86:\n      0x00\n        /* \"#utility.yul\":1271:1273   */\n      0x20\n        /* \"#utility.yul\":1259:1268   */\n      dup3\n        /* \"#utility.yul\":1250:1257   */\n      dup5\n        /* \"#utility.yul\":1246:1269   */\n      sub\n        /* \"#utility.yul\":1242:1274   */\n      slt\n        /* \"#utility.yul\":1239:1241   */\n      iszero\n      tag_143\n      jumpi\n        /* \"#utility.yul\":1287:1288   */\n      0x00\n        /* \"#utility.yul\":1284:1285   */\n      dup1\n        /* \"#utility.yul\":1277:1289   */\n      revert\n        /* \"#utility.yul\":1239:1241   */\n    tag_143:\n        /* \"#utility.yul\":1330:1331   */\n      0x00\n        /* \"#utility.yul\":1355:1416   */\n      tag_144\n        /* \"#utility.yul\":1408:1415   */\n      dup5\n        /* \"#utility.yul\":1399:1405   */\n      dup3\n        /* \"#utility.yul\":1388:1397   */\n      dup6\n        /* \"#utility.yul\":1384:1406   */\n      add\n        /* \"#utility.yul\":1355:1416   */\n      tag_122\n      jump\t// in\n    tag_144:\n        /* \"#utility.yul\":1345:1416   */\n      swap2\n      pop\n        /* \"#utility.yul\":1301:1426   */\n      pop\n        /* \"#utility.yul\":1229:1433   */\n      swap3\n      swap2\n      pop\n      pop\n      jump\t// out\n        /* \"#utility.yul\":1439:1701   */\n    tag_32:\n      0x00\n        /* \"#utility.yul\":1547:1549   */\n      0x20\n        /* \"#utility.yul\":1535:1544   */\n      dup3\n        /* \"#utility.yul\":1526:1533   */\n      dup5\n        /* \"#utility.yul\":1522:1545   */\n      sub\n        /* \"#utility.yul\":1518:1550   */\n      slt\n        /* \"#utility.yul\":1515:1517   */\n      iszero\n      tag_146\n      jumpi\n        /* \"#utility.yul\":1563:1564   */\n      0x00\n        /* \"#utility.yul\":1560:1561   */\n      dup1\n        /* \"#utility.yul\":1553:1565   */\n      revert\n        /* \"#utility.yul\":1515:1517   */\n    tag_146:\n        /* \"#utility.yul\":1606:1607   */\n      0x00\n        /* \"#utility.yul\":1631:1684   */\n      tag_147\n        /* \"#utility.yul\":1676:1683   */\n      dup5\n        /* \"#utility.yul\":1667:1673   */\n      dup3\n        /* \"#utility.yul\":1656:1665   */\n      dup6\n        /* \"#utility.yul\":1652:1674   */\n      add\n        /* \"#utility.yul\":1631:1684   */\n      tag_126\n      jump\t// in\n    tag_147:\n        /* \"#utility.yul\":1621:1684   */\n      swap2\n      pop\n        /* \"#utility.yul\":1577:1694   */\n      pop\n        /* \"#utility.yul\":1505:1701   */\n      swap3\n      swap2\n      pop\n      pop\n      jump\t// out\n        /* \"#utility.yul\":1707:2114   */\n    tag_22:\n      0x00\n      dup1\n        /* \"#utility.yul\":1832:1834   */\n      0x40\n        /* \"#utility.yul\":1820:1829   */\n      dup4\n        /* \"#utility.yul\":1811:1818   */\n      dup6\n        /* \"#utility.yul\":1807:1830   */\n      sub\n        /* \"#utility.yul\":1803:1835   */\n      slt\n        /* \"#utility.yul\":1800:1802   */\n      iszero\n      tag_149\n      jumpi\n        /* \"#utility.yul\":1848:1849   */\n      0x00\n        /* \"#utility.yul\":1845:1846   */\n      dup1\n        /* \"#utility.yul\":1838:1850   */\n      revert\n        /* \"#utility.yul\":1800:1802   */\n    tag_149:\n        /* \"#utility.yul\":1891:1892   */\n      0x00\n        /* \"#utility.yul\":1916:1969   */\n      tag_150\n        /* \"#utility.yul\":1961:1968   */\n      dup6\n        /* \"#utility.yul\":1952:1958   */\n      dup3\n        /* \"#utility.yul\":1941:1950   */\n      dup7\n        /* \"#utility.yul\":1937:1959   */\n      add\n        /* \"#utility.yul\":1916:1969   */\n      tag_126\n      jump\t// in\n    tag_150:\n        /* \"#utility.yul\":1906:1969   */\n      swap3\n      pop\n        /* \"#utility.yul\":1862:1979   */\n      pop\n        /* \"#utility.yul\":2018:2020   */\n      0x20\n        /* \"#utility.yul\":2044:2097   */\n      tag_151\n        /* \"#utility.yul\":2089:2096   */\n      dup6\n        /* \"#utility.yul\":2080:2086   */\n      dup3\n        /* \"#utility.yul\":2069:2078   */\n      dup7\n        /* \"#utility.yul\":2065:2087   */\n      add\n        /* \"#utility.yul\":2044:2097   */\n      tag_118\n      jump\t// in\n    tag_151:\n        /* \"#utility.yul\":2034:2097   */\n      swap2\n      pop\n        /* \"#utility.yul\":1989:2107   */\n      pop\n        /* \"#utility.yul\":1790:2114   */\n      swap3\n      pop\n      swap3\n      swap1\n      pop\n      jump\t// out\n        /* \"#utility.yul\":2120:2672   */\n    tag_16:\n      0x00\n      dup1\n      0x00\n        /* \"#utility.yul\":2262:2264   */\n      0x60\n        /* \"#utility.yul\":2250:2259   */\n      dup5\n        /* \"#utility.yul\":2241:2248   */\n      dup7\n        /* \"#utility.yul\":2237:2260   */\n      sub\n        /* \"#utility.yul\":2233:2265   */\n      slt\n        /* \"#utility.yul\":2230:2232   */\n      iszero\n      tag_153\n      jumpi\n        /* \"#utility.yul\":2278:2279   */\n      0x00\n        /* \"#utility.yul\":2275:2276   */\n      dup1\n        /* \"#utility.yul\":2268:2280   */\n      revert\n        /* \"#utility.yul\":2230:2232   */\n    tag_153:\n        /* \"#utility.yul\":2321:2322   */\n      0x00\n        /* \"#utility.yul\":2346:2399   */\n      tag_154\n        /* \"#utility.yul\":2391:2398   */\n      dup7\n        /* \"#utility.yul\":2382:2388   */\n      dup3\n        /* \"#utility.yul\":2371:2380   */\n      dup8\n        /* \"#utility.yul\":2367:2389   */\n      add\n        /* \"#utility.yul\":2346:2399   */\n      tag_126\n      jump\t// in\n    tag_154:\n        /* \"#utility.yul\":2336:2399   */\n      swap4\n      pop\n        /* \"#utility.yul\":2292:2409   */\n      pop\n        /* \"#utility.yul\":2448:2450   */\n      0x20\n        /* \"#utility.yul\":2474:2527   */\n      tag_155\n        /* \"#utility.yul\":2519:2526   */\n      dup7\n        /* \"#utility.yul\":2510:2516   */\n      dup3\n        /* \"#utility.yul\":2499:2508   */\n      dup8\n        /* \"#utility.yul\":2495:2517   */\n      add\n        /* \"#utility.yul\":2474:2527   */\n      tag_134\n      jump\t// in\n    tag_155:\n        /* \"#utility.yul\":2464:2527   */\n      swap3\n      pop\n        /* \"#utility.yul\":2419:2537   */\n      pop\n        /* \"#utility.yul\":2576:2578   */\n      0x40\n        /* \"#utility.yul\":2602:2655   */\n      tag_156\n        /* \"#utility.yul\":2647:2654   */\n      dup7\n        /* \"#utility.yul\":2638:2644   */\n      dup3\n        /* \"#utility.yul\":2627:2636   */\n      dup8\n        /* \"#utility.yul\":2623:2645   */\n      add\n        /* \"#utility.yul\":2602:2655   */\n      tag_134\n      jump\t// in\n    tag_156:\n        /* \"#utility.yul\":2592:2655   */\n      swap2\n      pop\n        /* \"#utility.yul\":2547:2665   */\n      pop\n        /* \"#utility.yul\":2220:2672   */\n      swap3\n      pop\n      swap3\n      pop\n      swap3\n      jump\t// out\n        /* \"#utility.yul\":2678:3388   */\n    tag_51:\n      0x00\n      dup1\n      0x00\n      dup1\n        /* \"#utility.yul\":2843:2846   */\n      0x80\n        /* \"#utility.yul\":2831:2840   */\n      dup6\n        /* \"#utility.yul\":2822:2829   */\n      dup8\n        /* \"#utility.yul\":2818:2841   */\n      sub\n        /* \"#utility.yul\":2814:2847   */\n      slt\n        /* \"#utility.yul\":2811:2813   */\n      iszero\n      tag_158\n      jumpi\n        /* \"#utility.yul\":2860:2861   */\n      0x00\n        /* \"#utility.yul\":2857:2858   */\n      dup1\n        /* \"#utility.yul\":2850:2862   */\n      revert\n        /* \"#utility.yul\":2811:2813   */\n    tag_158:\n        /* \"#utility.yul\":2903:2904   */\n      0x00\n        /* \"#utility.yul\":2928:2981   */\n      tag_159\n        /* \"#utility.yul\":2973:2980   */\n      dup8\n        /* \"#utility.yul\":2964:2970   */\n      dup3\n        /* \"#utility.yul\":2953:2962   */\n      dup9\n        /* \"#utility.yul\":2949:2971   */\n      add\n        /* \"#utility.yul\":2928:2981   */\n      tag_126\n      jump\t// in\n    tag_159:\n        /* \"#utility.yul\":2918:2981   */\n      swap5\n      pop\n        /* \"#utility.yul\":2874:2991   */\n      pop\n        /* \"#utility.yul\":3030:3032   */\n      0x20\n        /* \"#utility.yul\":3056:3109   */\n      tag_160\n        /* \"#utility.yul\":3101:3108   */\n      dup8\n        /* \"#utility.yul\":3092:3098   */\n      dup3\n        /* \"#utility.yul\":3081:3090   */\n      dup9\n        /* \"#utility.yul\":3077:3099   */\n      add\n        /* \"#utility.yul\":3056:3109   */\n      tag_134\n      jump\t// in\n    tag_160:\n        /* \"#utility.yul\":3046:3109   */\n      swap4\n      pop\n        /* \"#utility.yul\":3001:3119   */\n      pop\n        /* \"#utility.yul\":3158:3160   */\n      0x40\n        /* \"#utility.yul\":3184:3237   */\n      tag_161\n        /* \"#utility.yul\":3229:3236   */\n      dup8\n        /* \"#utility.yul\":3220:3226   */\n      dup3\n        /* \"#utility.yul\":3209:3218   */\n      dup9\n        /* \"#utility.yul\":3205:3227   */\n      add\n        /* \"#utility.yul\":3184:3237   */\n      tag_134\n      jump\t// in\n    tag_161:\n        /* \"#utility.yul\":3174:3237   */\n      swap3\n      pop\n        /* \"#utility.yul\":3129:3247   */\n      pop\n        /* \"#utility.yul\":3286:3288   */\n      0x60\n        /* \"#utility.yul\":3312:3371   */\n      tag_162\n        /* \"#utility.yul\":3363:3370   */\n      dup8\n        /* \"#utility.yul\":3354:3360   */\n      dup3\n        /* \"#utility.yul\":3343:3352   */\n      dup9\n        /* \"#utility.yul\":3339:3361   */\n      add\n        /* \"#utility.yul\":3312:3371   */\n      tag_130\n      jump\t// in\n    tag_162:\n        /* \"#utility.yul\":3302:3371   */\n      swap2\n      pop\n        /* \"#utility.yul\":3257:3381   */\n      pop\n        /* \"#utility.yul\":2801:3388   */\n      swap3\n      swap6\n      swap2\n      swap5\n      pop\n      swap3\n      pop\n      jump\t// out\n        /* \"#utility.yul\":3394:3656   */\n    tag_26:\n      0x00\n        /* \"#utility.yul\":3502:3504   */\n      0x20\n        /* \"#utility.yul\":3490:3499   */\n      dup3\n        /* \"#utility.yul\":3481:3488   */\n      dup5\n        /* \"#utility.yul\":3477:3500   */\n      sub\n        /* \"#utility.yul\":3473:3505   */\n      slt\n        /* \"#utility.yul\":3470:3472   */\n      iszero\n      tag_164\n      jumpi\n        /* \"#utility.yul\":3518:3519   */\n      0x00\n        /* \"#utility.yul\":3515:3516   */\n      dup1\n        /* \"#utility.yul\":3508:3520   */\n      revert\n        /* \"#utility.yul\":3470:3472   */\n    tag_164:\n        /* \"#utility.yul\":3561:3562   */\n      0x00\n        /* \"#utility.yul\":3586:3639   */\n      tag_165\n        /* \"#utility.yul\":3631:3638   */\n      dup5\n        /* \"#utility.yul\":3622:3628   */\n      dup3\n        /* \"#utility.yul\":3611:3620   */\n      dup6\n        /* \"#utility.yul\":3607:3629   */\n      add\n        /* \"#utility.yul\":3586:3639   */\n      tag_134\n      jump\t// in\n    tag_165:\n        /* \"#utility.yul\":3576:3639   */\n      swap2\n      pop\n        /* \"#utility.yul\":3532:3649   */\n      pop\n        /* \"#utility.yul\":3460:3656   */\n      swap3\n      swap2\n      pop\n      pop\n      jump\t// out\n        /* \"#utility.yul\":3662:4069   */\n    tag_42:\n      0x00\n      dup1\n        /* \"#utility.yul\":3787:3789   */\n      0x40\n        /* \"#utility.yul\":3775:3784   */\n      dup4\n        /* \"#utility.yul\":3766:3773   */\n      dup6\n        /* \"#utility.yul\":3762:3785   */\n      sub\n        /* \"#utility.yul\":3758:3790   */\n      slt\n        /* \"#utility.yul\":3755:3757   */\n      iszero\n      tag_167\n      jumpi\n        /* \"#utility.yul\":3803:3804   */\n      0x00\n        /* \"#utility.yul\":3800:3801   */\n      dup1\n        /* \"#utility.yul\":3793:3805   */\n      revert\n        /* \"#utility.yul\":3755:3757   */\n    tag_167:\n        /* \"#utility.yul\":3846:3847   */\n      0x00\n        /* \"#utility.yul\":3871:3924   */\n      tag_168\n        /* \"#utility.yul\":3916:3923   */\n      dup6\n        /* \"#utility.yul\":3907:3913   */\n      dup3\n        /* \"#utility.yul\":3896:3905   */\n      dup7\n        /* \"#utility.yul\":3892:3914   */\n      add\n        /* \"#utility.yul\":3871:3924   */\n      tag_134\n      jump\t// in\n    tag_168:\n        /* \"#utility.yul\":3861:3924   */\n      swap3\n      pop\n        /* \"#utility.yul\":3817:3934   */\n      pop\n        /* \"#utility.yul\":3973:3975   */\n      0x20\n        /* \"#utility.yul\":3999:4052   */\n      tag_169\n        /* \"#utility.yul\":4044:4051   */\n      dup6\n        /* \"#utility.yul\":4035:4041   */\n      dup3\n        /* \"#utility.yul\":4024:4033   */\n      dup7\n        /* \"#utility.yul\":4020:4042   */\n      add\n        /* \"#utility.yul\":3999:4052   */\n      tag_126\n      jump\t// in\n    tag_169:\n        /* \"#utility.yul\":3989:4052   */\n      swap2\n      pop\n        /* \"#utility.yul\":3944:4062   */\n      pop\n        /* \"#utility.yul\":3745:4069   */\n      swap3\n      pop\n      swap3\n      swap1\n      pop\n      jump\t// out\n        /* \"#utility.yul\":4075:4193   */\n    tag_170:\n        /* \"#utility.yul\":4162:4186   */\n      tag_172\n        /* \"#utility.yul\":4180:4185   */\n      dup2\n        /* \"#utility.yul\":4162:4186   */\n      tag_173\n      jump\t// in\n    tag_172:\n        /* \"#utility.yul\":4157:4160   */\n      dup3\n        /* \"#utility.yul\":4150:4187   */\n      mstore\n        /* \"#utility.yul\":4140:4193   */\n      pop\n      pop\n      jump\t// out\n        /* \"#utility.yul\":4199:4317   */\n    tag_174:\n        /* \"#utility.yul\":4286:4310   */\n      tag_176\n        /* \"#utility.yul\":4304:4309   */\n      dup2\n        /* \"#utility.yul\":4286:4310   */\n      tag_177\n      jump\t// in\n    tag_176:\n        /* \"#utility.yul\":4281:4284   */\n      dup3\n        /* \"#utility.yul\":4274:4311   */\n      mstore\n        /* \"#utility.yul\":4264:4317   */\n      pop\n      pop\n      jump\t// out\n        /* \"#utility.yul\":4323:4462   */\n    tag_178:\n        /* \"#utility.yul\":4414:4455   */\n      tag_180\n        /* \"#utility.yul\":4449:4454   */\n      dup2\n        /* \"#utility.yul\":4414:4455   */\n      tag_181\n      jump\t// in\n    tag_180:\n        /* \"#utility.yul\":4409:4412   */\n      dup3\n        /* \"#utility.yul\":4402:4456   */\n      mstore\n        /* \"#utility.yul\":4392:4462   */\n      pop\n      pop\n      jump\t// out\n        /* \"#utility.yul\":4468:4785   */\n    tag_182:\n      0x00\n        /* \"#utility.yul\":4631:4698   */\n      tag_184\n        /* \"#utility.yul\":4695:4697   */\n      0x13\n        /* \"#utility.yul\":4690:4693   */\n      dup4\n        /* \"#utility.yul\":4631:4698   */\n      tag_185\n      jump\t// in\n    tag_184:\n        /* \"#utility.yul\":4624:4698   */\n      swap2\n      pop\n        /* \"#utility.yul\":4728:4749   */\n      0x546f6b656e20646f65736e6f7420657869737400000000000000000000000000\n        /* \"#utility.yul\":4724:4725   */\n      0x00\n        /* \"#utility.yul\":4719:4722   */\n      dup4\n        /* \"#utility.yul\":4715:4726   */\n      add\n        /* \"#utility.yul\":4708:4750   */\n      mstore\n        /* \"#utility.yul\":4776:4778   */\n      0x20\n        /* \"#utility.yul\":4771:4774   */\n      dup3\n        /* \"#utility.yul\":4767:4779   */\n      add\n        /* \"#utility.yul\":4760:4779   */\n      swap1\n      pop\n        /* \"#utility.yul\":4614:4785   */\n      swap2\n      swap1\n      pop\n      jump\t// out\n        /* \"#utility.yul\":4791:5109   */\n    tag_186:\n      0x00\n        /* \"#utility.yul\":4954:5021   */\n      tag_188\n        /* \"#utility.yul\":5018:5020   */\n      0x14\n        /* \"#utility.yul\":5013:5016   */\n      dup4\n        /* \"#utility.yul\":4954:5021   */\n      tag_185\n      jump\t// in\n    tag_188:\n        /* \"#utility.yul\":4947:5021   */\n      swap2\n      pop\n        /* \"#utility.yul\":5051:5073   */\n      0x496e73756666696369656e742042616c616e6365000000000000000000000000\n        /* \"#utility.yul\":5047:5048   */\n      0x00\n        /* \"#utility.yul\":5042:5045   */\n      dup4\n        /* \"#utility.yul\":5038:5049   */\n      add\n        /* \"#utility.yul\":5031:5074   */\n      mstore\n        /* \"#utility.yul\":5100:5102   */\n      0x20\n        /* \"#utility.yul\":5095:5098   */\n      dup3\n        /* \"#utility.yul\":5091:5103   */\n      add\n        /* \"#utility.yul\":5084:5103   */\n      swap1\n      pop\n        /* \"#utility.yul\":4937:5109   */\n      swap2\n      swap1\n      pop\n      jump\t// out\n        /* \"#utility.yul\":5115:5423   */\n    tag_189:\n      0x00\n        /* \"#utility.yul\":5278:5345   */\n      tag_191\n        /* \"#utility.yul\":5342:5344   */\n      0x0a\n        /* \"#utility.yul\":5337:5340   */\n      dup4\n        /* \"#utility.yul\":5278:5345   */\n      tag_185\n      jump\t// in\n    tag_191:\n        /* \"#utility.yul\":5271:5345   */\n      swap2\n      pop\n        /* \"#utility.yul\":5375:5387   */\n      0x4f6e6c792041646d696e00000000000000000000000000000000000000000000\n        /* \"#utility.yul\":5371:5372   */\n      0x00\n        /* \"#utility.yul\":5366:5369   */\n      dup4\n        /* \"#utility.yul\":5362:5373   */\n      add\n        /* \"#utility.yul\":5355:5388   */\n      mstore\n        /* \"#utility.yul\":5414:5416   */\n      0x20\n        /* \"#utility.yul\":5409:5412   */\n      dup3\n        /* \"#utility.yul\":5405:5417   */\n      add\n        /* \"#utility.yul\":5398:5417   */\n      swap1\n      pop\n        /* \"#utility.yul\":5261:5423   */\n      swap2\n      swap1\n      pop\n      jump\t// out\n        /* \"#utility.yul\":5429:5746   */\n    tag_192:\n      0x00\n        /* \"#utility.yul\":5592:5659   */\n      tag_194\n        /* \"#utility.yul\":5656:5658   */\n      0x13\n        /* \"#utility.yul\":5651:5654   */\n      dup4\n        /* \"#utility.yul\":5592:5659   */\n      tag_185\n      jump\t// in\n    tag_194:\n        /* \"#utility.yul\":5585:5659   */\n      swap2\n      pop\n        /* \"#utility.yul\":5689:5710   */\n      0x4441492042616c616e636520746f6f206c6f7700000000000000000000000000\n        /* \"#utility.yul\":5685:5686   */\n      0x00\n        /* \"#utility.yul\":5680:5683   */\n      dup4\n        /* \"#utility.yul\":5676:5687   */\n      add\n        /* \"#utility.yul\":5669:5711   */\n      mstore\n        /* \"#utility.yul\":5737:5739   */\n      0x20\n        /* \"#utility.yul\":5732:5735   */\n      dup3\n        /* \"#utility.yul\":5728:5740   */\n      add\n        /* \"#utility.yul\":5721:5740   */\n      swap1\n      pop\n        /* \"#utility.yul\":5575:5746   */\n      swap2\n      swap1\n      pop\n      jump\t// out\n        /* \"#utility.yul\":5752:6066   */\n    tag_195:\n      0x00\n        /* \"#utility.yul\":5915:5982   */\n      tag_197\n        /* \"#utility.yul\":5979:5981   */\n      0x10\n        /* \"#utility.yul\":5974:5977   */\n      dup4\n        /* \"#utility.yul\":5915:5982   */\n      tag_185\n      jump\t// in\n    tag_197:\n        /* \"#utility.yul\":5908:5982   */\n      swap2\n      pop\n        /* \"#utility.yul\":6012:6030   */\n      0x43616e6e6f742074726164652044414900000000000000000000000000000000\n        /* \"#utility.yul\":6008:6009   */\n      0x00\n        /* \"#utility.yul\":6003:6006   */\n      dup4\n        /* \"#utility.yul\":5999:6010   */\n      add\n        /* \"#utility.yul\":5992:6031   */\n      mstore\n        /* \"#utility.yul\":6057:6059   */\n      0x20\n        /* \"#utility.yul\":6052:6055   */\n      dup3\n        /* \"#utility.yul\":6048:6060   */\n      add\n        /* \"#utility.yul\":6041:6060   */\n      swap1\n      pop\n        /* \"#utility.yul\":5898:6066   */\n      swap2\n      swap1\n      pop\n      jump\t// out\n        /* \"#utility.yul\":6072:6190   */\n    tag_198:\n        /* \"#utility.yul\":6159:6183   */\n      tag_200\n        /* \"#utility.yul\":6177:6182   */\n      dup2\n        /* \"#utility.yul\":6159:6183   */\n      tag_201\n      jump\t// in\n    tag_200:\n        /* \"#utility.yul\":6154:6157   */\n      dup3\n        /* \"#utility.yul\":6147:6184   */\n      mstore\n        /* \"#utility.yul\":6137:6190   */\n      pop\n      pop\n      jump\t// out\n        /* \"#utility.yul\":6196:6418   */\n    tag_59:\n      0x00\n        /* \"#utility.yul\":6327:6329   */\n      0x20\n        /* \"#utility.yul\":6316:6325   */\n      dup3\n        /* \"#utility.yul\":6312:6330   */\n      add\n        /* \"#utility.yul\":6304:6330   */\n      swap1\n      pop\n        /* \"#utility.yul\":6340:6411   */\n      tag_203\n        /* \"#utility.yul\":6408:6409   */\n      0x00\n        /* \"#utility.yul\":6397:6406   */\n      dup4\n        /* \"#utility.yul\":6393:6410   */\n      add\n        /* \"#utility.yul\":6384:6390   */\n      dup5\n        /* \"#utility.yul\":6340:6411   */\n      tag_170\n      jump\t// in\n    tag_203:\n        /* \"#utility.yul\":6294:6418   */\n      swap3\n      swap2\n      pop\n      pop\n      jump\t// out\n        /* \"#utility.yul\":6424:6866   */\n    tag_110:\n      0x00\n        /* \"#utility.yul\":6611:6613   */\n      0x60\n        /* \"#utility.yul\":6600:6609   */\n      dup3\n        /* \"#utility.yul\":6596:6614   */\n      add\n        /* \"#utility.yul\":6588:6614   */\n      swap1\n      pop\n        /* \"#utility.yul\":6624:6695   */\n      tag_205\n        /* \"#utility.yul\":6692:6693   */\n      0x00\n        /* \"#utility.yul\":6681:6690   */\n      dup4\n        /* \"#utility.yul\":6677:6694   */\n      add\n        /* \"#utility.yul\":6668:6674   */\n      dup7\n        /* \"#utility.yul\":6624:6695   */\n      tag_170\n      jump\t// in\n    tag_205:\n        /* \"#utility.yul\":6705:6777   */\n      tag_206\n        /* \"#utility.yul\":6773:6775   */\n      0x20\n        /* \"#utility.yul\":6762:6771   */\n      dup4\n        /* \"#utility.yul\":6758:6776   */\n      add\n        /* \"#utility.yul\":6749:6755   */\n      dup6\n        /* \"#utility.yul\":6705:6777   */\n      tag_170\n      jump\t// in\n    tag_206:\n        /* \"#utility.yul\":6787:6859   */\n      tag_207\n        /* \"#utility.yul\":6855:6857   */\n      0x40\n        /* \"#utility.yul\":6844:6853   */\n      dup4\n        /* \"#utility.yul\":6840:6858   */\n      add\n        /* \"#utility.yul\":6831:6837   */\n      dup5\n        /* \"#utility.yul\":6787:6859   */\n      tag_198\n      jump\t// in\n    tag_207:\n        /* \"#utility.yul\":6578:6866   */\n      swap5\n      swap4\n      pop\n      pop\n      pop\n      pop\n      jump\t// out\n        /* \"#utility.yul\":6872:7204   */\n    tag_81:\n      0x00\n        /* \"#utility.yul\":7031:7033   */\n      0x40\n        /* \"#utility.yul\":7020:7029   */\n      dup3\n        /* \"#utility.yul\":7016:7034   */\n      add\n        /* \"#utility.yul\":7008:7034   */\n      swap1\n      pop\n        /* \"#utility.yul\":7044:7115   */\n      tag_209\n        /* \"#utility.yul\":7112:7113   */\n      0x00\n        /* \"#utility.yul\":7101:7110   */\n      dup4\n        /* \"#utility.yul\":7097:7114   */\n      add\n        /* \"#utility.yul\":7088:7094   */\n      dup6\n        /* \"#utility.yul\":7044:7115   */\n      tag_170\n      jump\t// in\n    tag_209:\n        /* \"#utility.yul\":7125:7197   */\n      tag_210\n        /* \"#utility.yul\":7193:7195   */\n      0x20\n        /* \"#utility.yul\":7182:7191   */\n      dup4\n        /* \"#utility.yul\":7178:7196   */\n      add\n        /* \"#utility.yul\":7169:7175   */\n      dup5\n        /* \"#utility.yul\":7125:7197   */\n      tag_198\n      jump\t// in\n    tag_210:\n        /* \"#utility.yul\":6998:7204   */\n      swap4\n      swap3\n      pop\n      pop\n      pop\n      jump\t// out\n        /* \"#utility.yul\":7210:7432   */\n    tag_29:\n      0x00\n        /* \"#utility.yul\":7341:7343   */\n      0x20\n        /* \"#utility.yul\":7330:7339   */\n      dup3\n        /* \"#utility.yul\":7326:7344   */\n      add\n        /* \"#utility.yul\":7318:7344   */\n      swap1\n      pop\n        /* \"#utility.yul\":7354:7425   */\n      tag_212\n        /* \"#utility.yul\":7422:7423   */\n      0x00\n        /* \"#utility.yul\":7411:7420   */\n      dup4\n        /* \"#utility.yul\":7407:7424   */\n      add\n        /* \"#utility.yul\":7398:7404   */\n      dup5\n        /* \"#utility.yul\":7354:7425   */\n      tag_174\n      jump\t// in\n    tag_212:\n        /* \"#utility.yul\":7308:7432   */\n      swap3\n      swap2\n      pop\n      pop\n      jump\t// out\n        /* \"#utility.yul\":7438:7770   */\n    tag_35:\n      0x00\n        /* \"#utility.yul\":7597:7599   */\n      0x40\n        /* \"#utility.yul\":7586:7595   */\n      dup3\n        /* \"#utility.yul\":7582:7600   */\n      add\n        /* \"#utility.yul\":7574:7600   */\n      swap1\n      pop\n        /* \"#utility.yul\":7610:7681   */\n      tag_214\n        /* \"#utility.yul\":7678:7679   */\n      0x00\n        /* \"#utility.yul\":7667:7676   */\n      dup4\n        /* \"#utility.yul\":7663:7680   */\n      add\n        /* \"#utility.yul\":7654:7660   */\n      dup6\n        /* \"#utility.yul\":7610:7681   */\n      tag_174\n      jump\t// in\n    tag_214:\n        /* \"#utility.yul\":7691:7763   */\n      tag_215\n        /* \"#utility.yul\":7759:7761   */\n      0x20\n        /* \"#utility.yul\":7748:7757   */\n      dup4\n        /* \"#utility.yul\":7744:7762   */\n      add\n        /* \"#utility.yul\":7735:7741   */\n      dup5\n        /* \"#utility.yul\":7691:7763   */\n      tag_170\n      jump\t// in\n    tag_215:\n        /* \"#utility.yul\":7564:7770   */\n      swap4\n      swap3\n      pop\n      pop\n      pop\n      jump\t// out\n        /* \"#utility.yul\":7776:8195   */\n    tag_73:\n      0x00\n        /* \"#utility.yul\":7980:7982   */\n      0x20\n        /* \"#utility.yul\":7969:7978   */\n      dup3\n        /* \"#utility.yul\":7965:7983   */\n      add\n        /* \"#utility.yul\":7957:7983   */\n      swap1\n      pop\n        /* \"#utility.yul\":8029:8038   */\n      dup2\n        /* \"#utility.yul\":8023:8027   */\n      dup2\n        /* \"#utility.yul\":8019:8039   */\n      sub\n        /* \"#utility.yul\":8015:8016   */\n      0x00\n        /* \"#utility.yul\":8004:8013   */\n      dup4\n        /* \"#utility.yul\":8000:8017   */\n      add\n        /* \"#utility.yul\":7993:8040   */\n      mstore\n        /* \"#utility.yul\":8057:8188   */\n      tag_217\n        /* \"#utility.yul\":8183:8187   */\n      dup2\n        /* \"#utility.yul\":8057:8188   */\n      tag_182\n      jump\t// in\n    tag_217:\n        /* \"#utility.yul\":8049:8188   */\n      swap1\n      pop\n        /* \"#utility.yul\":7947:8195   */\n      swap2\n      swap1\n      pop\n      jump\t// out\n        /* \"#utility.yul\":8201:8620   */\n    tag_77:\n      0x00\n        /* \"#utility.yul\":8405:8407   */\n      0x20\n        /* \"#utility.yul\":8394:8403   */\n      dup3\n        /* \"#utility.yul\":8390:8408   */\n      add\n        /* \"#utility.yul\":8382:8408   */\n      swap1\n      pop\n        /* \"#utility.yul\":8454:8463   */\n      dup2\n        /* \"#utility.yul\":8448:8452   */\n      dup2\n        /* \"#utility.yul\":8444:8464   */\n      sub\n        /* \"#utility.yul\":8440:8441   */\n      0x00\n        /* \"#utility.yul\":8429:8438   */\n      dup4\n        /* \"#utility.yul\":8425:8442   */\n      add\n        /* \"#utility.yul\":8418:8465   */\n      mstore\n        /* \"#utility.yul\":8482:8613   */\n      tag_219\n        /* \"#utility.yul\":8608:8612   */\n      dup2\n        /* \"#utility.yul\":8482:8613   */\n      tag_186\n      jump\t// in\n    tag_219:\n        /* \"#utility.yul\":8474:8613   */\n      swap1\n      pop\n        /* \"#utility.yul\":8372:8620   */\n      swap2\n      swap1\n      pop\n      jump\t// out\n        /* \"#utility.yul\":8626:9045   */\n    tag_65:\n      0x00\n        /* \"#utility.yul\":8830:8832   */\n      0x20\n        /* \"#utility.yul\":8819:8828   */\n      dup3\n        /* \"#utility.yul\":8815:8833   */\n      add\n        /* \"#utility.yul\":8807:8833   */\n      swap1\n      pop\n        /* \"#utility.yul\":8879:8888   */\n      dup2\n        /* \"#utility.yul\":8873:8877   */\n      dup2\n        /* \"#utility.yul\":8869:8889   */\n      sub\n        /* \"#utility.yul\":8865:8866   */\n      0x00\n        /* \"#utility.yul\":8854:8863   */\n      dup4\n        /* \"#utility.yul\":8850:8867   */\n      add\n        /* \"#utility.yul\":8843:8890   */\n      mstore\n        /* \"#utility.yul\":8907:9038   */\n      tag_221\n        /* \"#utility.yul\":9033:9037   */\n      dup2\n        /* \"#utility.yul\":8907:9038   */\n      tag_189\n      jump\t// in\n    tag_221:\n        /* \"#utility.yul\":8899:9038   */\n      swap1\n      pop\n        /* \"#utility.yul\":8797:9045   */\n      swap2\n      swap1\n      pop\n      jump\t// out\n        /* \"#utility.yul\":9051:9470   */\n    tag_104:\n      0x00\n        /* \"#utility.yul\":9255:9257   */\n      0x20\n        /* \"#utility.yul\":9244:9253   */\n      dup3\n        /* \"#utility.yul\":9240:9258   */\n      add\n        /* \"#utility.yul\":9232:9258   */\n      swap1\n      pop\n        /* \"#utility.yul\":9304:9313   */\n      dup2\n        /* \"#utility.yul\":9298:9302   */\n      dup2\n        /* \"#utility.yul\":9294:9314   */\n      sub\n        /* \"#utility.yul\":9290:9291   */\n      0x00\n        /* \"#utility.yul\":9279:9288   */\n      dup4\n        /* \"#utility.yul\":9275:9292   */\n      add\n        /* \"#utility.yul\":9268:9315   */\n      mstore\n        /* \"#utility.yul\":9332:9463   */\n      tag_223\n        /* \"#utility.yul\":9458:9462   */\n      dup2\n        /* \"#utility.yul\":9332:9463   */\n      tag_192\n      jump\t// in\n    tag_223:\n        /* \"#utility.yul\":9324:9463   */\n      swap1\n      pop\n        /* \"#utility.yul\":9222:9470   */\n      swap2\n      swap1\n      pop\n      jump\t// out\n        /* \"#utility.yul\":9476:9895   */\n    tag_93:\n      0x00\n        /* \"#utility.yul\":9680:9682   */\n      0x20\n        /* \"#utility.yul\":9669:9678   */\n      dup3\n        /* \"#utility.yul\":9665:9683   */\n      add\n        /* \"#utility.yul\":9657:9683   */\n      swap1\n      pop\n        /* \"#utility.yul\":9729:9738   */\n      dup2\n        /* \"#utility.yul\":9723:9727   */\n      dup2\n        /* \"#utility.yul\":9719:9739   */\n      sub\n        /* \"#utility.yul\":9715:9716   */\n      0x00\n        /* \"#utility.yul\":9704:9713   */\n      dup4\n        /* \"#utility.yul\":9700:9717   */\n      add\n        /* \"#utility.yul\":9693:9740   */\n      mstore\n        /* \"#utility.yul\":9757:9888   */\n      tag_225\n        /* \"#utility.yul\":9883:9887   */\n      dup2\n        /* \"#utility.yul\":9757:9888   */\n      tag_195\n      jump\t// in\n    tag_225:\n        /* \"#utility.yul\":9749:9888   */\n      swap1\n      pop\n        /* \"#utility.yul\":9647:9895   */\n      swap2\n      swap1\n      pop\n      jump\t// out\n        /* \"#utility.yul\":9901:10123   */\n    tag_39:\n      0x00\n        /* \"#utility.yul\":10032:10034   */\n      0x20\n        /* \"#utility.yul\":10021:10030   */\n      dup3\n        /* \"#utility.yul\":10017:10035   */\n      add\n        /* \"#utility.yul\":10009:10035   */\n      swap1\n      pop\n        /* \"#utility.yul\":10045:10116   */\n      tag_227\n        /* \"#utility.yul\":10113:10114   */\n      0x00\n        /* \"#utility.yul\":10102:10111   */\n      dup4\n        /* \"#utility.yul\":10098:10115   */\n      add\n        /* \"#utility.yul\":10089:10095   */\n      dup5\n        /* \"#utility.yul\":10045:10116   */\n      tag_198\n      jump\t// in\n    tag_227:\n        /* \"#utility.yul\":9999:10123   */\n      swap3\n      swap2\n      pop\n      pop\n      jump\t// out\n        /* \"#utility.yul\":10129:11023   */\n    tag_19:\n      0x00\n        /* \"#utility.yul\":10432:10435   */\n      0xe0\n        /* \"#utility.yul\":10421:10430   */\n      dup3\n        /* \"#utility.yul\":10417:10436   */\n      add\n        /* \"#utility.yul\":10409:10436   */\n      swap1\n      pop\n        /* \"#utility.yul\":10446:10517   */\n      tag_229\n        /* \"#utility.yul\":10514:10515   */\n      0x00\n        /* \"#utility.yul\":10503:10512   */\n      dup4\n        /* \"#utility.yul\":10499:10516   */\n      add\n        /* \"#utility.yul\":10490:10496   */\n      dup11\n        /* \"#utility.yul\":10446:10517   */\n      tag_198\n      jump\t// in\n    tag_229:\n        /* \"#utility.yul\":10527:10603   */\n      tag_230\n        /* \"#utility.yul\":10599:10601   */\n      0x20\n        /* \"#utility.yul\":10588:10597   */\n      dup4\n        /* \"#utility.yul\":10584:10602   */\n      add\n        /* \"#utility.yul\":10575:10581   */\n      dup10\n        /* \"#utility.yul\":10527:10603   */\n      tag_178\n      jump\t// in\n    tag_230:\n        /* \"#utility.yul\":10613:10685   */\n      tag_231\n        /* \"#utility.yul\":10681:10683   */\n      0x40\n        /* \"#utility.yul\":10670:10679   */\n      dup4\n        /* \"#utility.yul\":10666:10684   */\n      add\n        /* \"#utility.yul\":10657:10663   */\n      dup9\n        /* \"#utility.yul\":10613:10685   */\n      tag_174\n      jump\t// in\n    tag_231:\n        /* \"#utility.yul\":10695:10767   */\n      tag_232\n        /* \"#utility.yul\":10763:10765   */\n      0x60\n        /* \"#utility.yul\":10752:10761   */\n      dup4\n        /* \"#utility.yul\":10748:10766   */\n      add\n        /* \"#utility.yul\":10739:10745   */\n      dup8\n        /* \"#utility.yul\":10695:10767   */\n      tag_198\n      jump\t// in\n    tag_232:\n        /* \"#utility.yul\":10777:10850   */\n      tag_233\n        /* \"#utility.yul\":10845:10848   */\n      0x80\n        /* \"#utility.yul\":10834:10843   */\n      dup4\n        /* \"#utility.yul\":10830:10849   */\n      add\n        /* \"#utility.yul\":10821:10827   */\n      dup7\n        /* \"#utility.yul\":10777:10850   */\n      tag_198\n      jump\t// in\n    tag_233:\n        /* \"#utility.yul\":10860:10933   */\n      tag_234\n        /* \"#utility.yul\":10928:10931   */\n      0xa0\n        /* \"#utility.yul\":10917:10926   */\n      dup4\n        /* \"#utility.yul\":10913:10932   */\n      add\n        /* \"#utility.yul\":10904:10910   */\n      dup6\n        /* \"#utility.yul\":10860:10933   */\n      tag_198\n      jump\t// in\n    tag_234:\n        /* \"#utility.yul\":10943:11016   */\n      tag_235\n        /* \"#utility.yul\":11011:11014   */\n      0xc0\n        /* \"#utility.yul\":11000:11009   */\n      dup4\n        /* \"#utility.yul\":10996:11015   */\n      add\n        /* \"#utility.yul\":10987:10993   */\n      dup5\n        /* \"#utility.yul\":10943:11016   */\n      tag_198\n      jump\t// in\n    tag_235:\n        /* \"#utility.yul\":10399:11023   */\n      swap9\n      swap8\n      pop\n      pop\n      pop\n      pop\n      pop\n      pop\n      pop\n      pop\n      jump\t// out\n        /* \"#utility.yul\":11029:11198   */\n    tag_185:\n      0x00\n        /* \"#utility.yul\":11147:11153   */\n      dup3\n        /* \"#utility.yul\":11142:11145   */\n      dup3\n        /* \"#utility.yul\":11135:11154   */\n      mstore\n        /* \"#utility.yul\":11187:11191   */\n      0x20\n        /* \"#utility.yul\":11182:11185   */\n      dup3\n        /* \"#utility.yul\":11178:11192   */\n      add\n        /* \"#utility.yul\":11163:11192   */\n      swap1\n      pop\n        /* \"#utility.yul\":11125:11198   */\n      swap3\n      swap2\n      pop\n      pop\n      jump\t// out\n        /* \"#utility.yul\":11204:11509   */\n    tag_116:\n      0x00\n        /* \"#utility.yul\":11263:11283   */\n      tag_238\n        /* \"#utility.yul\":11281:11282   */\n      dup3\n        /* \"#utility.yul\":11263:11283   */\n      tag_201\n      jump\t// in\n    tag_238:\n        /* \"#utility.yul\":11258:11283   */\n      swap2\n      pop\n        /* \"#utility.yul\":11297:11317   */\n      tag_239\n        /* \"#utility.yul\":11315:11316   */\n      dup4\n        /* \"#utility.yul\":11297:11317   */\n      tag_201\n      jump\t// in\n    tag_239:\n        /* \"#utility.yul\":11292:11317   */\n      swap3\n      pop\n        /* \"#utility.yul\":11451:11452   */\n      dup3\n        /* \"#utility.yul\":11383:11449   */\n      0xffffffffffffffffffffffffffffffffffffffffffffffffffffffffffffffff\n        /* \"#utility.yul\":11379:11453   */\n      sub\n        /* \"#utility.yul\":11376:11377   */\n      dup3\n        /* \"#utility.yul\":11373:11454   */\n      gt\n        /* \"#utility.yul\":11370:11372   */\n      iszero\n      tag_240\n      jumpi\n        /* \"#utility.yul\":11457:11475   */\n      tag_241\n      tag_242\n      jump\t// in\n    tag_241:\n        /* \"#utility.yul\":11370:11372   */\n    tag_240:\n        /* \"#utility.yul\":11501:11502   */\n      dup3\n        /* \"#utility.yul\":11498:11499   */\n      dup3\n        /* \"#utility.yul\":11494:11503   */\n      add\n        /* \"#utility.yul\":11487:11503   */\n      swap1\n      pop\n        /* \"#utility.yul\":11248:11509   */\n      swap3\n      swap2\n      pop\n      pop\n      jump\t// out\n        /* \"#utility.yul\":11515:11863   */\n    tag_101:\n      0x00\n        /* \"#utility.yul\":11578:11598   */\n      tag_244\n        /* \"#utility.yul\":11596:11597   */\n      dup3\n        /* \"#utility.yul\":11578:11598   */\n      tag_201\n      jump\t// in\n    tag_244:\n        /* \"#utility.yul\":11573:11598   */\n      swap2\n      pop\n        /* \"#utility.yul\":11612:11632   */\n      tag_245\n        /* \"#utility.yul\":11630:11631   */\n      dup4\n        /* \"#utility.yul\":11612:11632   */\n      tag_201\n      jump\t// in\n    tag_245:\n        /* \"#utility.yul\":11607:11632   */\n      swap3\n      pop\n        /* \"#utility.yul\":11800:11801   */\n      dup2\n        /* \"#utility.yul\":11732:11798   */\n      0xffffffffffffffffffffffffffffffffffffffffffffffffffffffffffffffff\n        /* \"#utility.yul\":11728:11802   */\n      div\n        /* \"#utility.yul\":11725:11726   */\n      dup4\n        /* \"#utility.yul\":11722:11803   */\n      gt\n        /* \"#utility.yul\":11717:11718   */\n      dup3\n        /* \"#utility.yul\":11710:11719   */\n      iszero\n        /* \"#utility.yul\":11703:11720   */\n      iszero\n        /* \"#utility.yul\":11699:11804   */\n      and\n        /* \"#utility.yul\":11696:11698   */\n      iszero\n      tag_246\n      jumpi\n        /* \"#utility.yul\":11807:11825   */\n      tag_247\n      tag_242\n      jump\t// in\n    tag_247:\n        /* \"#utility.yul\":11696:11698   */\n    tag_246:\n        /* \"#utility.yul\":11855:11856   */\n      dup3\n        /* \"#utility.yul\":11852:11853   */\n      dup3\n        /* \"#utility.yul\":11848:11857   */\n      mul\n        /* \"#utility.yul\":11837:11857   */\n      swap1\n      pop\n        /* \"#utility.yul\":11563:11863   */\n      swap3\n      swap2\n      pop\n      pop\n      jump\t// out\n        /* \"#utility.yul\":11869:12060   */\n    tag_79:\n      0x00\n        /* \"#utility.yul\":11929:11949   */\n      tag_249\n        /* \"#utility.yul\":11947:11948   */\n      dup3\n        /* \"#utility.yul\":11929:11949   */\n      tag_201\n      jump\t// in\n    tag_249:\n        /* \"#utility.yul\":11924:11949   */\n      swap2\n      pop\n        /* \"#utility.yul\":11963:11983   */\n      tag_250\n        /* \"#utility.yul\":11981:11982   */\n      dup4\n        /* \"#utility.yul\":11963:11983   */\n      tag_201\n      jump\t// in\n    tag_250:\n        /* \"#utility.yul\":11958:11983   */\n      swap3\n      pop\n        /* \"#utility.yul\":12002:12003   */\n      dup3\n        /* \"#utility.yul\":11999:12000   */\n      dup3\n        /* \"#utility.yul\":11996:12004   */\n      lt\n        /* \"#utility.yul\":11993:11995   */\n      iszero\n      tag_251\n      jumpi\n        /* \"#utility.yul\":12007:12025   */\n      tag_252\n      tag_242\n      jump\t// in\n    tag_252:\n        /* \"#utility.yul\":11993:11995   */\n    tag_251:\n        /* \"#utility.yul\":12052:12053   */\n      dup3\n        /* \"#utility.yul\":12049:12050   */\n      dup3\n        /* \"#utility.yul\":12045:12054   */\n      sub\n        /* \"#utility.yul\":12037:12054   */\n      swap1\n      pop\n        /* \"#utility.yul\":11914:12060   */\n      swap3\n      swap2\n      pop\n      pop\n      jump\t// out\n        /* \"#utility.yul\":12066:12162   */\n    tag_173:\n      0x00\n        /* \"#utility.yul\":12132:12156   */\n      tag_254\n        /* \"#utility.yul\":12150:12155   */\n      dup3\n        /* \"#utility.yul\":12132:12156   */\n      tag_255\n      jump\t// in\n    tag_254:\n        /* \"#utility.yul\":12121:12156   */\n      swap1\n      pop\n        /* \"#utility.yul\":12111:12162   */\n      swap2\n      swap1\n      pop\n      jump\t// out\n        /* \"#utility.yul\":12168:12258   */\n    tag_256:\n      0x00\n        /* \"#utility.yul\":12245:12250   */\n      dup2\n        /* \"#utility.yul\":12238:12251   */\n      iszero\n        /* \"#utility.yul\":12231:12252   */\n      iszero\n        /* \"#utility.yul\":12220:12252   */\n      swap1\n      pop\n        /* \"#utility.yul\":12210:12258   */\n      swap2\n      swap1\n      pop\n      jump\t// out\n        /* \"#utility.yul\":12264:12341   */\n    tag_177:\n      0x00\n        /* \"#utility.yul\":12330:12335   */\n      dup2\n        /* \"#utility.yul\":12319:12335   */\n      swap1\n      pop\n        /* \"#utility.yul\":12309:12341   */\n      swap2\n      swap1\n      pop\n      jump\t// out\n        /* \"#utility.yul\":12347:12470   */\n    tag_259:\n      0x00\n        /* \"#utility.yul\":12419:12424   */\n      dup2\n        /* \"#utility.yul\":12408:12424   */\n      swap1\n      pop\n        /* \"#utility.yul\":12425:12464   */\n      tag_261\n        /* \"#utility.yul\":12458:12463   */\n      dup3\n        /* \"#utility.yul\":12425:12464   */\n      tag_262\n      jump\t// in\n    tag_261:\n        /* \"#utility.yul\":12398:12470   */\n      swap2\n      swap1\n      pop\n      jump\t// out\n        /* \"#utility.yul\":12476:12602   */\n    tag_255:\n      0x00\n        /* \"#utility.yul\":12553:12595   */\n      0xffffffffffffffffffffffffffffffffffffffff\n        /* \"#utility.yul\":12546:12551   */\n      dup3\n        /* \"#utility.yul\":12542:12596   */\n      and\n        /* \"#utility.yul\":12531:12596   */\n      swap1\n      pop\n        /* \"#utility.yul\":12521:12602   */\n      swap2\n      swap1\n      pop\n      jump\t// out\n        /* \"#utility.yul\":12608:12685   */\n    tag_201:\n      0x00\n        /* \"#utility.yul\":12674:12679   */\n      dup2\n        /* \"#utility.yul\":12663:12679   */\n      swap1\n      pop\n        /* \"#utility.yul\":12653:12685   */\n      swap2\n      swap1\n      pop\n      jump\t// out\n        /* \"#utility.yul\":12691:12814   */\n    tag_181:\n      0x00\n        /* \"#utility.yul\":12778:12808   */\n      tag_266\n        /* \"#utility.yul\":12802:12807   */\n      dup3\n        /* \"#utility.yul\":12778:12808   */\n      tag_259\n      jump\t// in\n    tag_266:\n        /* \"#utility.yul\":12765:12808   */\n      swap1\n      pop\n        /* \"#utility.yul\":12755:12814   */\n      swap2\n      swap1\n      pop\n      jump\t// out\n        /* \"#utility.yul\":12820:13000   */\n    tag_242:\n        /* \"#utility.yul\":12868:12945   */\n      0x4e487b7100000000000000000000000000000000000000000000000000000000\n        /* \"#utility.yul\":12865:12866   */\n      0x00\n        /* \"#utility.yul\":12858:12946   */\n      mstore\n        /* \"#utility.yul\":12965:12969   */\n      0x11\n        /* \"#utility.yul\":12962:12963   */\n      0x04\n        /* \"#utility.yul\":12955:12970   */\n      mstore\n        /* \"#utility.yul\":12989:12993   */\n      0x24\n        /* \"#utility.yul\":12986:12987   */\n      0x00\n        /* \"#utility.yul\":12979:12994   */\n      revert\n        /* \"#utility.yul\":13006:13186   */\n    tag_268:\n        /* \"#utility.yul\":13054:13131   */\n      0x4e487b7100000000000000000000000000000000000000000000000000000000\n        /* \"#utility.yul\":13051:13052   */\n      0x00\n        /* \"#utility.yul\":13044:13132   */\n      mstore\n        /* \"#utility.yul\":13151:13155   */\n      0x21\n        /* \"#utility.yul\":13148:13149   */\n      0x04\n        /* \"#utility.yul\":13141:13156   */\n      mstore\n        /* \"#utility.yul\":13175:13179   */\n      0x24\n        /* \"#utility.yul\":13172:13173   */\n      0x00\n        /* \"#utility.yul\":13165:13180   */\n      revert\n        /* \"#utility.yul\":13192:13303   */\n    tag_262:\n        /* \"#utility.yul\":13271:13272   */\n      0x02\n        /* \"#utility.yul\":13264:13269   */\n      dup2\n        /* \"#utility.yul\":13261:13273   */\n      lt\n        /* \"#utility.yul\":13251:13253   */\n      tag_271\n      jumpi\n        /* \"#utility.yul\":13277:13295   */\n      tag_272\n      tag_268\n      jump\t// in\n    tag_272:\n        /* \"#utility.yul\":13251:13253   */\n    tag_271:\n        /* \"#utility.yul\":13241:13303   */\n      pop\n      jump\t// out\n        /* \"#utility.yul\":13309:13431   */\n    tag_121:\n        /* \"#utility.yul\":13382:13406   */\n      tag_274\n        /* \"#utility.yul\":13400:13405   */\n      dup2\n        /* \"#utility.yul\":13382:13406   */\n      tag_173\n      jump\t// in\n    tag_274:\n        /* \"#utility.yul\":13375:13380   */\n      dup2\n        /* \"#utility.yul\":13372:13407   */\n      eq\n        /* \"#utility.yul\":13362:13364   */\n      tag_275\n      jumpi\n        /* \"#utility.yul\":13421:13422   */\n      0x00\n        /* \"#utility.yul\":13418:13419   */\n      dup1\n        /* \"#utility.yul\":13411:13423   */\n      revert\n        /* \"#utility.yul\":13362:13364   */\n    tag_275:\n        /* \"#utility.yul\":13352:13431   */\n      pop\n      jump\t// out\n        /* \"#utility.yul\":13437:13553   */\n    tag_125:\n        /* \"#utility.yul\":13507:13528   */\n      tag_277\n        /* \"#utility.yul\":13522:13527   */\n      dup2\n        /* \"#utility.yul\":13507:13528   */\n      tag_256\n      jump\t// in\n    tag_277:\n        /* \"#utility.yul\":13500:13505   */\n      dup2\n        /* \"#utility.yul\":13497:13529   */\n      eq\n        /* \"#utility.yul\":13487:13489   */\n      tag_278\n      jumpi\n        /* \"#utility.yul\":13543:13544   */\n      0x00\n        /* \"#utility.yul\":13540:13541   */\n      dup1\n        /* \"#utility.yul\":13533:13545   */\n      revert\n        /* \"#utility.yul\":13487:13489   */\n    tag_278:\n        /* \"#utility.yul\":13477:13553   */\n      pop\n      jump\t// out\n        /* \"#utility.yul\":13559:13681   */\n    tag_129:\n        /* \"#utility.yul\":13632:13656   */\n      tag_280\n        /* \"#utility.yul\":13650:13655   */\n      dup2\n        /* \"#utility.yul\":13632:13656   */\n      tag_177\n      jump\t// in\n    tag_280:\n        /* \"#utility.yul\":13625:13630   */\n      dup2\n        /* \"#utility.yul\":13622:13657   */\n      eq\n        /* \"#utility.yul\":13612:13614   */\n      tag_281\n      jumpi\n        /* \"#utility.yul\":13671:13672   */\n      0x00\n        /* \"#utility.yul\":13668:13669   */\n      dup1\n        /* \"#utility.yul\":13661:13673   */\n      revert\n        /* \"#utility.yul\":13612:13614   */\n    tag_281:\n        /* \"#utility.yul\":13602:13681   */\n      pop\n      jump\t// out\n        /* \"#utility.yul\":13687:13792   */\n    tag_133:\n        /* \"#utility.yul\":13766:13767   */\n      0x02\n        /* \"#utility.yul\":13759:13764   */\n      dup2\n        /* \"#utility.yul\":13756:13768   */\n      lt\n        /* \"#utility.yul\":13746:13748   */\n      tag_283\n      jumpi\n        /* \"#utility.yul\":13782:13783   */\n      0x00\n        /* \"#utility.yul\":13779:13780   */\n      dup1\n        /* \"#utility.yul\":13772:13784   */\n      revert\n        /* \"#utility.yul\":13746:13748   */\n    tag_283:\n        /* \"#utility.yul\":13736:13792   */\n      pop\n      jump\t// out\n        /* \"#utility.yul\":13798:13920   */\n    tag_137:\n        /* \"#utility.yul\":13871:13895   */\n      tag_285\n        /* \"#utility.yul\":13889:13894   */\n      dup2\n        /* \"#utility.yul\":13871:13895   */\n      tag_201\n      jump\t// in\n    tag_285:\n        /* \"#utility.yul\":13864:13869   */\n      dup2\n        /* \"#utility.yul\":13861:13896   */\n      eq\n        /* \"#utility.yul\":13851:13853   */\n      tag_286\n      jumpi\n        /* \"#utility.yul\":13910:13911   */\n      0x00\n        /* \"#utility.yul\":13907:13908   */\n      dup1\n        /* \"#utility.yul\":13900:13912   */\n      revert\n        /* \"#utility.yul\":13851:13853   */\n    tag_286:\n        /* \"#utility.yul\":13841:13920   */\n      pop\n      jump\t// out\n\n    auxdata: 0xa2646970667358221220d83b6914449dba9b4d5a3a65c6c063641add20fa40bbd5cb743c52f2396d7b1b64736f6c63430008000033\n}\n",
				"bytecode": {
					"linkReferences": {},
					"object": "608060405234801561001057600080fd5b5033600260006101000a81548173ffffffffffffffffffffffffffffffffffffffff021916908373ffffffffffffffffffffffffffffffffffffffff1602179055506113e3806100616000396000f3fe608060405234801561001057600080fd5b506004361061009e5760003560e01c8063a8d2021a11610066578063a8d2021a14610174578063a962846a14610190578063b3a7e99a146101c0578063c9630cb0146101dc578063f851a440146101f85761009e565b80630baaacd2146100a35780631b66807d146100d9578063538cad00146100f5578063904194a3146101255780639dd4d0c314610156575b600080fd5b6100bd60048036038101906100b89190610ce7565b610216565b6040516100d097969594939291906110f4565b60405180910390f35b6100f360048036038101906100ee9190610cab565b61028f565b005b61010f600480360381019061010a9190610d99565b6103dd565b60405161011c9190610ff5565b60405180910390f35b61013f600480360381019061013a9190610c82565b610401565b60405161014d929190611010565b60405180910390f35b61015e610445565b60405161016b91906110d9565b60405180910390f35b61018e60048036038101906101899190610dc2565b61044b565b005b6101aa60048036038101906101a59190610c1d565b6106b3565b6040516101b791906110d9565b60405180910390f35b6101da60048036038101906101d59190610d36565b6106d8565b005b6101f660048036038101906101f19190610dc2565b6109b7565b005b610200610b8e565b60405161020d9190610f7a565b60405180910390f35b6004602052826000526040600020602052816000526040600020818154811061023e57600080fd5b906000526020600020906007020160009250925050508060000154908060010160009054906101000a900460ff16908060020154908060030154908060040154908060050154908060060154905087565b600260009054906101000a900473ffffffffffffffffffffffffffffffffffffffff1673ffffffffffffffffffffffffffffffffffffffff163373ffffffffffffffffffffffffffffffffffffffff161461031f576040517f08c379a000000000000000000000000000000000000000000000000000000000815260040161031690611079565b60405180910390fd5b60405180604001604052808381526020018273ffffffffffffffffffffffffffffffffffffffff168152506000808481526020019081526020016000206000820151816000015560208201518160010160006101000a81548173ffffffffffffffffffffffffffffffffffffffff021916908373ffffffffffffffffffffffffffffffffffffffff16021790555090505060018290806001815401808255809150506001900390600052602060002001600090919091909150555050565b600181815481106103ed57600080fd5b906000526020600020016000915090505481565b60006020528060005260406000206000915090508060000154908060010160009054906101000a900473ffffffffffffffffffffffffffffffffffffffff16905082565b60055481565b80600073ffffffffffffffffffffffffffffffffffffffff1660008083815260200190815260200160002060010160009054906101000a900473ffffffffffffffffffffffffffffffffffffffff1673ffffffffffffffffffffffffffffffffffffffff1614156104f1576040517f08c379a00000000000000000000000000000000000000000000000000000000081526004016104e890611039565b60405180910390fd5b82600360003373ffffffffffffffffffffffffffffffffffffffff1673ffffffffffffffffffffffffffffffffffffffff1681526020019081526020016000206000848152602001908152602001600020541015610584576040517f08c379a000000000000000000000000000000000000000000000000000000000815260040161057b90611059565b60405180910390fd5b82600360003373ffffffffffffffffffffffffffffffffffffffff1673ffffffffffffffffffffffffffffffffffffffff168152602001908152602001600020600084815260200190815260200160002060008282546105e49190611224565b9250508190555060008083815260200190815260200160002060010160009054906101000a900473ffffffffffffffffffffffffffffffffffffffff1673ffffffffffffffffffffffffffffffffffffffff1663a9059cbb33856040518363ffffffff1660e01b815260040161065b929190610fcc565b602060405180830381600087803b15801561067557600080fd5b505af1158015610689573d6000803e3d6000fd5b505050506040513d601f19601f820116820180604052508101906106ad9190610c59565b50505050565b6003602052816000526040600020602052806000526040600020600091509150505481565b83600073ffffffffffffffffffffffffffffffffffffffff1660008083815260200190815260200160002060010160009054906101000a900473ffffffffffffffffffffffffffffffffffffffff1673ffffffffffffffffffffffffffffffffffffffff16141561077e576040517f08c379a000000000000000000000000000000000000000000000000000000000815260040161077590611039565b60405180910390fd5b7f44414900000000000000000000000000000000000000000000000000000000008514156107e1576040517f08c379a00000000000000000000000000000000000000000000000000000000081526004016107d8906110b9565b60405180910390fd5b60018081111561081a577f4e487b7100000000000000000000000000000000000000000000000000000000600052602160045260246000fd5b826001811115610853577f4e487b7100000000000000000000000000000000000000000000000000000000600052602160045260246000fd5b14156108f15783600360003373ffffffffffffffffffffffffffffffffffffffff1673ffffffffffffffffffffffffffffffffffffffff16815260200190815260200160002060008781526020019081526020016000205410156108ec576040517f08c379a00000000000000000000000000000000000000000000000000000000081526004016108e390611059565b60405180910390fd5b6109b0565b82846108fd91906111ca565b600360003373ffffffffffffffffffffffffffffffffffffffff1673ffffffffffffffffffffffffffffffffffffffff16815260200190815260200160002060007f444149000000000000000000000000000000000000000000000000000000000081526020019081526020016000205410156109af576040517f08c379a00000000000000000000000000000000000000000000000000000000081526004016109a690611099565b60405180910390fd5b5b5050505050565b80600073ffffffffffffffffffffffffffffffffffffffff1660008083815260200190815260200160002060010160009054906101000a900473ffffffffffffffffffffffffffffffffffffffff1673ffffffffffffffffffffffffffffffffffffffff161415610a5d576040517f08c379a0000000000000000000000000000000000000000000000000000000008152600401610a5490611039565b60405180910390fd5b60008083815260200190815260200160002060010160009054906101000a900473ffffffffffffffffffffffffffffffffffffffff1673ffffffffffffffffffffffffffffffffffffffff166323b872dd3330866040518463ffffffff1660e01b8152600401610acf93929190610f95565b602060405180830381600087803b158015610ae957600080fd5b505af1158015610afd573d6000803e3d6000fd5b505050506040513d601f19601f82011682018060405250810190610b219190610c59565b5082600360003373ffffffffffffffffffffffffffffffffffffffff1673ffffffffffffffffffffffffffffffffffffffff16815260200190815260200160002060008481526020019081526020016000206000828254610b829190611174565b92505081905550505050565b600260009054906101000a900473ffffffffffffffffffffffffffffffffffffffff1681565b600081359050610bc381611341565b92915050565b600081519050610bd881611358565b92915050565b600081359050610bed8161136f565b92915050565b600081359050610c0281611386565b92915050565b600081359050610c1781611396565b92915050565b60008060408385031215610c3057600080fd5b6000610c3e85828601610bb4565b9250506020610c4f85828601610bde565b9150509250929050565b600060208284031215610c6b57600080fd5b6000610c7984828501610bc9565b91505092915050565b600060208284031215610c9457600080fd5b6000610ca284828501610bde565b91505092915050565b60008060408385031215610cbe57600080fd5b6000610ccc85828601610bde565b9250506020610cdd85828601610bb4565b9150509250929050565b600080600060608486031215610cfc57600080fd5b6000610d0a86828701610bde565b9350506020610d1b86828701610c08565b9250506040610d2c86828701610c08565b9150509250925092565b60008060008060808587031215610d4c57600080fd5b6000610d5a87828801610bde565b9450506020610d6b87828801610c08565b9350506040610d7c87828801610c08565b9250506060610d8d87828801610bf3565b91505092959194509250565b600060208284031215610dab57600080fd5b6000610db984828501610c08565b91505092915050565b60008060408385031215610dd557600080fd5b6000610de385828601610c08565b9250506020610df485828601610bde565b9150509250929050565b610e0781611258565b82525050565b610e1681611276565b82525050565b610e25816112bd565b82525050565b6000610e38601383611163565b91507f546f6b656e20646f65736e6f74206578697374000000000000000000000000006000830152602082019050919050565b6000610e78601483611163565b91507f496e73756666696369656e742042616c616e63650000000000000000000000006000830152602082019050919050565b6000610eb8600a83611163565b91507f4f6e6c792041646d696e000000000000000000000000000000000000000000006000830152602082019050919050565b6000610ef8601383611163565b91507f4441492042616c616e636520746f6f206c6f77000000000000000000000000006000830152602082019050919050565b6000610f38601083611163565b91507f43616e6e6f7420747261646520444149000000000000000000000000000000006000830152602082019050919050565b610f74816112b3565b82525050565b6000602082019050610f8f6000830184610dfe565b92915050565b6000606082019050610faa6000830186610dfe565b610fb76020830185610dfe565b610fc46040830184610f6b565b949350505050565b6000604082019050610fe16000830185610dfe565b610fee6020830184610f6b565b9392505050565b600060208201905061100a6000830184610e0d565b92915050565b60006040820190506110256000830185610e0d565b6110326020830184610dfe565b9392505050565b6000602082019050818103600083015261105281610e2b565b9050919050565b6000602082019050818103600083015261107281610e6b565b9050919050565b6000602082019050818103600083015261109281610eab565b9050919050565b600060208201905081810360008301526110b281610eeb565b9050919050565b600060208201905081810360008301526110d281610f2b565b9050919050565b60006020820190506110ee6000830184610f6b565b92915050565b600060e082019050611109600083018a610f6b565b6111166020830189610e1c565b6111236040830188610e0d565b6111306060830187610f6b565b61113d6080830186610f6b565b61114a60a0830185610f6b565b61115760c0830184610f6b565b98975050505050505050565b600082825260208201905092915050565b600061117f826112b3565b915061118a836112b3565b9250827fffffffffffffffffffffffffffffffffffffffffffffffffffffffffffffffff038211156111bf576111be6112cf565b5b828201905092915050565b60006111d5826112b3565b91506111e0836112b3565b9250817fffffffffffffffffffffffffffffffffffffffffffffffffffffffffffffffff0483118215151615611219576112186112cf565b5b828202905092915050565b600061122f826112b3565b915061123a836112b3565b92508282101561124d5761124c6112cf565b5b828203905092915050565b600061126382611293565b9050919050565b60008115159050919050565b6000819050919050565b600081905061128e8261132d565b919050565b600073ffffffffffffffffffffffffffffffffffffffff82169050919050565b6000819050919050565b60006112c882611280565b9050919050565b7f4e487b7100000000000000000000000000000000000000000000000000000000600052601160045260246000fd5b7f4e487b7100000000000000000000000000000000000000000000000000000000600052602160045260246000fd5b6002811061133e5761133d6112fe565b5b50565b61134a81611258565b811461135557600080fd5b50565b6113618161126a565b811461136c57600080fd5b50565b61137881611276565b811461138357600080fd5b50565b6002811061139357600080fd5b50565b61139f816112b3565b81146113aa57600080fd5b5056fea2646970667358221220d83b6914449dba9b4d5a3a65c6c063641add20fa40bbd5cb743c52f2396d7b1b64736f6c63430008000033",
					"opcodes": "PUSH1 0x80 PUSH1 0x40 MSTORE CALLVALUE DUP1 ISZERO PUSH2 0x10 JUMPI PUSH1 0x0 DUP1 REVERT JUMPDEST POP CALLER PUSH1 0x2 PUSH1 0x0 PUSH2 0x100 EXP DUP2 SLOAD DUP2 PUSH20 0xFFFFFFFFFFFFFFFFFFFFFFFFFFFFFFFFFFFFFFFF MUL NOT AND SWAP1 DUP4 PUSH20 0xFFFFFFFFFFFFFFFFFFFFFFFFFFFFFFFFFFFFFFFF AND MUL OR SWAP1 SSTORE POP PUSH2 0x13E3 DUP1 PUSH2 0x61 PUSH1 0x0 CODECOPY PUSH1 0x0 RETURN INVALID PUSH1 0x80 PUSH1 0x40 MSTORE CALLVALUE DUP1 ISZERO PUSH2 0x10 JUMPI PUSH1 0x0 DUP1 REVERT JUMPDEST POP PUSH1 0x4 CALLDATASIZE LT PUSH2 0x9E JUMPI PUSH1 0x0 CALLDATALOAD PUSH1 0xE0 SHR DUP1 PUSH4 0xA8D2021A GT PUSH2 0x66 JUMPI DUP1 PUSH4 0xA8D2021A EQ PUSH2 0x174 JUMPI DUP1 PUSH4 0xA962846A EQ PUSH2 0x190 JUMPI DUP1 PUSH4 0xB3A7E99A EQ PUSH2 0x1C0 JUMPI DUP1 PUSH4 0xC9630CB0 EQ PUSH2 0x1DC JUMPI DUP1 PUSH4 0xF851A440 EQ PUSH2 0x1F8 JUMPI PUSH2 0x9E JUMP JUMPDEST DUP1 PUSH4 0xBAAACD2 EQ PUSH2 0xA3 JUMPI DUP1 PUSH4 0x1B66807D EQ PUSH2 0xD9 JUMPI DUP1 PUSH4 0x538CAD00 EQ PUSH2 0xF5 JUMPI DUP1 PUSH4 0x904194A3 EQ PUSH2 0x125 JUMPI DUP1 PUSH4 0x9DD4D0C3 EQ PUSH2 0x156 JUMPI JUMPDEST PUSH1 0x0 DUP1 REVERT JUMPDEST PUSH2 0xBD PUSH1 0x4 DUP1 CALLDATASIZE SUB DUP2 ADD SWAP1 PUSH2 0xB8 SWAP2 SWAP1 PUSH2 0xCE7 JUMP JUMPDEST PUSH2 0x216 JUMP JUMPDEST PUSH1 0x40 MLOAD PUSH2 0xD0 SWAP8 SWAP7 SWAP6 SWAP5 SWAP4 SWAP3 SWAP2 SWAP1 PUSH2 0x10F4 JUMP JUMPDEST PUSH1 0x40 MLOAD DUP1 SWAP2 SUB SWAP1 RETURN JUMPDEST PUSH2 0xF3 PUSH1 0x4 DUP1 CALLDATASIZE SUB DUP2 ADD SWAP1 PUSH2 0xEE SWAP2 SWAP1 PUSH2 0xCAB JUMP JUMPDEST PUSH2 0x28F JUMP JUMPDEST STOP JUMPDEST PUSH2 0x10F PUSH1 0x4 DUP1 CALLDATASIZE SUB DUP2 ADD SWAP1 PUSH2 0x10A SWAP2 SWAP1 PUSH2 0xD99 JUMP JUMPDEST PUSH2 0x3DD JUMP JUMPDEST PUSH1 0x40 MLOAD PUSH2 0x11C SWAP2 SWAP1 PUSH2 0xFF5 JUMP JUMPDEST PUSH1 0x40 MLOAD DUP1 SWAP2 SUB SWAP1 RETURN JUMPDEST PUSH2 0x13F PUSH1 0x4 DUP1 CALLDATASIZE SUB DUP2 ADD SWAP1 PUSH2 0x13A SWAP2 SWAP1 PUSH2 0xC82 JUMP JUMPDEST PUSH2 0x401 JUMP JUMPDEST PUSH1 0x40 MLOAD PUSH2 0x14D SWAP3 SWAP2 SWAP1 PUSH2 0x1010 JUMP JUMPDEST PUSH1 0x40 MLOAD DUP1 SWAP2 SUB SWAP1 RETURN JUMPDEST PUSH2 0x15E PUSH2 0x445 JUMP JUMPDEST PUSH1 0x40 MLOAD PUSH2 0x16B SWAP2 SWAP1 PUSH2 0x10D9 JUMP JUMPDEST PUSH1 0x40 MLOAD DUP1 SWAP2 SUB SWAP1 RETURN JUMPDEST PUSH2 0x18E PUSH1 0x4 DUP1 CALLDATASIZE SUB DUP2 ADD SWAP1 PUSH2 0x189 SWAP2 SWAP1 PUSH2 0xDC2 JUMP JUMPDEST PUSH2 0x44B JUMP JUMPDEST STOP JUMPDEST PUSH2 0x1AA PUSH1 0x4 DUP1 CALLDATASIZE SUB DUP2 ADD SWAP1 PUSH2 0x1A5 SWAP2 SWAP1 PUSH2 0xC1D JUMP JUMPDEST PUSH2 0x6B3 JUMP JUMPDEST PUSH1 0x40 MLOAD PUSH2 0x1B7 SWAP2 SWAP1 PUSH2 0x10D9 JUMP JUMPDEST PUSH1 0x40 MLOAD DUP1 SWAP2 SUB SWAP1 RETURN JUMPDEST PUSH2 0x1DA PUSH1 0x4 DUP1 CALLDATASIZE SUB DUP2 ADD SWAP1 PUSH2 0x1D5 SWAP2 SWAP1 PUSH2 0xD36 JUMP JUMPDEST PUSH2 0x6D8 JUMP JUMPDEST STOP JUMPDEST PUSH2 0x1F6 PUSH1 0x4 DUP1 CALLDATASIZE SUB DUP2 ADD SWAP1 PUSH2 0x1F1 SWAP2 SWAP1 PUSH2 0xDC2 JUMP JUMPDEST PUSH2 0x9B7 JUMP JUMPDEST STOP JUMPDEST PUSH2 0x200 PUSH2 0xB8E JUMP JUMPDEST PUSH1 0x40 MLOAD PUSH2 0x20D SWAP2 SWAP1 PUSH2 0xF7A JUMP JUMPDEST PUSH1 0x40 MLOAD DUP1 SWAP2 SUB SWAP1 RETURN JUMPDEST PUSH1 0x4 PUSH1 0x20 MSTORE DUP3 PUSH1 0x0 MSTORE PUSH1 0x40 PUSH1 0x0 KECCAK256 PUSH1 0x20 MSTORE DUP2 PUSH1 0x0 MSTORE PUSH1 0x40 PUSH1 0x0 KECCAK256 DUP2 DUP2 SLOAD DUP2 LT PUSH2 0x23E JUMPI PUSH1 0x0 DUP1 REVERT JUMPDEST SWAP1 PUSH1 0x0 MSTORE PUSH1 0x20 PUSH1 0x0 KECCAK256 SWAP1 PUSH1 0x7 MUL ADD PUSH1 0x0 SWAP3 POP SWAP3 POP POP POP DUP1 PUSH1 0x0 ADD SLOAD SWAP1 DUP1 PUSH1 0x1 ADD PUSH1 0x0 SWAP1 SLOAD SWAP1 PUSH2 0x100 EXP SWAP1 DIV PUSH1 0xFF AND SWAP1 DUP1 PUSH1 0x2 ADD SLOAD SWAP1 DUP1 PUSH1 0x3 ADD SLOAD SWAP1 DUP1 PUSH1 0x4 ADD SLOAD SWAP1 DUP1 PUSH1 0x5 ADD SLOAD SWAP1 DUP1 PUSH1 0x6 ADD SLOAD SWAP1 POP DUP8 JUMP JUMPDEST PUSH1 0x2 PUSH1 0x0 SWAP1 SLOAD SWAP1 PUSH2 0x100 EXP SWAP1 DIV PUSH20 0xFFFFFFFFFFFFFFFFFFFFFFFFFFFFFFFFFFFFFFFF AND PUSH20 0xFFFFFFFFFFFFFFFFFFFFFFFFFFFFFFFFFFFFFFFF AND CALLER PUSH20 0xFFFFFFFFFFFFFFFFFFFFFFFFFFFFFFFFFFFFFFFF AND EQ PUSH2 0x31F JUMPI PUSH1 0x40 MLOAD PUSH32 0x8C379A000000000000000000000000000000000000000000000000000000000 DUP2 MSTORE PUSH1 0x4 ADD PUSH2 0x316 SWAP1 PUSH2 0x1079 JUMP JUMPDEST PUSH1 0x40 MLOAD DUP1 SWAP2 SUB SWAP1 REVERT JUMPDEST PUSH1 0x40 MLOAD DUP1 PUSH1 0x40 ADD PUSH1 0x40 MSTORE DUP1 DUP4 DUP2 MSTORE PUSH1 0x20 ADD DUP3 PUSH20 0xFFFFFFFFFFFFFFFFFFFFFFFFFFFFFFFFFFFFFFFF AND DUP2 MSTORE POP PUSH1 0x0 DUP1 DUP5 DUP2 MSTORE PUSH1 0x20 ADD SWAP1 DUP2 MSTORE PUSH1 0x20 ADD PUSH1 0x0 KECCAK256 PUSH1 0x0 DUP3 ADD MLOAD DUP2 PUSH1 0x0 ADD SSTORE PUSH1 0x20 DUP3 ADD MLOAD DUP2 PUSH1 0x1 ADD PUSH1 0x0 PUSH2 0x100 EXP DUP2 SLOAD DUP2 PUSH20 0xFFFFFFFFFFFFFFFFFFFFFFFFFFFFFFFFFFFFFFFF MUL NOT AND SWAP1 DUP4 PUSH20 0xFFFFFFFFFFFFFFFFFFFFFFFFFFFFFFFFFFFFFFFF AND MUL OR SWAP1 SSTORE POP SWAP1 POP POP PUSH1 0x1 DUP3 SWAP1 DUP1 PUSH1 0x1 DUP2 SLOAD ADD DUP1 DUP3 SSTORE DUP1 SWAP2 POP POP PUSH1 0x1 SWAP1 SUB SWAP1 PUSH1 0x0 MSTORE PUSH1 0x20 PUSH1 0x0 KECCAK256 ADD PUSH1 0x0 SWAP1 SWAP2 SWAP1 SWAP2 SWAP1 SWAP2 POP SSTORE POP POP JUMP JUMPDEST PUSH1 0x1 DUP2 DUP2 SLOAD DUP2 LT PUSH2 0x3ED JUMPI PUSH1 0x0 DUP1 REVERT JUMPDEST SWAP1 PUSH1 0x0 MSTORE PUSH1 0x20 PUSH1 0x0 KECCAK256 ADD PUSH1 0x0 SWAP2 POP SWAP1 POP SLOAD DUP2 JUMP JUMPDEST PUSH1 0x0 PUSH1 0x20 MSTORE DUP1 PUSH1 0x0 MSTORE PUSH1 0x40 PUSH1 0x0 KECCAK256 PUSH1 0x0 SWAP2 POP SWAP1 POP DUP1 PUSH1 0x0 ADD SLOAD SWAP1 DUP1 PUSH1 0x1 ADD PUSH1 0x0 SWAP1 SLOAD SWAP1 PUSH2 0x100 EXP SWAP1 DIV PUSH20 0xFFFFFFFFFFFFFFFFFFFFFFFFFFFFFFFFFFFFFFFF AND SWAP1 POP DUP3 JUMP JUMPDEST PUSH1 0x5 SLOAD DUP2 JUMP JUMPDEST DUP1 PUSH1 0x0 PUSH20 0xFFFFFFFFFFFFFFFFFFFFFFFFFFFFFFFFFFFFFFFF AND PUSH1 0x0 DUP1 DUP4 DUP2 MSTORE PUSH1 0x20 ADD SWAP1 DUP2 MSTORE PUSH1 0x20 ADD PUSH1 0x0 KECCAK256 PUSH1 0x1 ADD PUSH1 0x0 SWAP1 SLOAD SWAP1 PUSH2 0x100 EXP SWAP1 DIV PUSH20 0xFFFFFFFFFFFFFFFFFFFFFFFFFFFFFFFFFFFFFFFF AND PUSH20 0xFFFFFFFFFFFFFFFFFFFFFFFFFFFFFFFFFFFFFFFF AND EQ ISZERO PUSH2 0x4F1 JUMPI PUSH1 0x40 MLOAD PUSH32 0x8C379A000000000000000000000000000000000000000000000000000000000 DUP2 MSTORE PUSH1 0x4 ADD PUSH2 0x4E8 SWAP1 PUSH2 0x1039 JUMP JUMPDEST PUSH1 0x40 MLOAD DUP1 SWAP2 SUB SWAP1 REVERT JUMPDEST DUP3 PUSH1 0x3 PUSH1 0x0 CALLER PUSH20 0xFFFFFFFFFFFFFFFFFFFFFFFFFFFFFFFFFFFFFFFF AND PUSH20 0xFFFFFFFFFFFFFFFFFFFFFFFFFFFFFFFFFFFFFFFF AND DUP2 MSTORE PUSH1 0x20 ADD SWAP1 DUP2 MSTORE PUSH1 0x20 ADD PUSH1 0x0 KECCAK256 PUSH1 0x0 DUP5 DUP2 MSTORE PUSH1 0x20 ADD SWAP1 DUP2 MSTORE PUSH1 0x20 ADD PUSH1 0x0 KECCAK256 SLOAD LT ISZERO PUSH2 0x584 JUMPI PUSH1 0x40 MLOAD PUSH32 0x8C379A000000000000000000000000000000000000000000000000000000000 DUP2 MSTORE PUSH1 0x4 ADD PUSH2 0x57B SWAP1 PUSH2 0x1059 JUMP JUMPDEST PUSH1 0x40 MLOAD DUP1 SWAP2 SUB SWAP1 REVERT JUMPDEST DUP3 PUSH1 0x3 PUSH1 0x0 CALLER PUSH20 0xFFFFFFFFFFFFFFFFFFFFFFFFFFFFFFFFFFFFFFFF AND PUSH20 0xFFFFFFFFFFFFFFFFFFFFFFFFFFFFFFFFFFFFFFFF AND DUP2 MSTORE PUSH1 0x20 ADD SWAP1 DUP2 MSTORE PUSH1 0x20 ADD PUSH1 0x0 KECCAK256 PUSH1 0x0 DUP5 DUP2 MSTORE PUSH1 0x20 ADD SWAP1 DUP2 MSTORE PUSH1 0x20 ADD PUSH1 0x0 KECCAK256 PUSH1 0x0 DUP3 DUP3 SLOAD PUSH2 0x5E4 SWAP2 SWAP1 PUSH2 0x1224 JUMP JUMPDEST SWAP3 POP POP DUP2 SWAP1 SSTORE POP PUSH1 0x0 DUP1 DUP4 DUP2 MSTORE PUSH1 0x20 ADD SWAP1 DUP2 MSTORE PUSH1 0x20 ADD PUSH1 0x0 KECCAK256 PUSH1 0x1 ADD PUSH1 0x0 SWAP1 SLOAD SWAP1 PUSH2 0x100 EXP SWAP1 DIV PUSH20 0xFFFFFFFFFFFFFFFFFFFFFFFFFFFFFFFFFFFFFFFF AND PUSH20 0xFFFFFFFFFFFFFFFFFFFFFFFFFFFFFFFFFFFFFFFF AND PUSH4 0xA9059CBB CALLER DUP6 PUSH1 0x40 MLOAD DUP4 PUSH4 0xFFFFFFFF AND PUSH1 0xE0 SHL DUP2 MSTORE PUSH1 0x4 ADD PUSH2 0x65B SWAP3 SWAP2 SWAP1 PUSH2 0xFCC JUMP JUMPDEST PUSH1 0x20 PUSH1 0x40 MLOAD DUP1 DUP4 SUB DUP2 PUSH1 0x0 DUP8 DUP1 EXTCODESIZE ISZERO DUP1 ISZERO PUSH2 0x675 JUMPI PUSH1 0x0 DUP1 REVERT JUMPDEST POP GAS CALL ISZERO DUP1 ISZERO PUSH2 0x689 JUMPI RETURNDATASIZE PUSH1 0x0 DUP1 RETURNDATACOPY RETURNDATASIZE PUSH1 0x0 REVERT JUMPDEST POP POP POP POP PUSH1 0x40 MLOAD RETURNDATASIZE PUSH1 0x1F NOT PUSH1 0x1F DUP3 ADD AND DUP3 ADD DUP1 PUSH1 0x40 MSTORE POP DUP2 ADD SWAP1 PUSH2 0x6AD SWAP2 SWAP1 PUSH2 0xC59 JUMP JUMPDEST POP POP POP POP JUMP JUMPDEST PUSH1 0x3 PUSH1 0x20 MSTORE DUP2 PUSH1 0x0 MSTORE PUSH1 0x40 PUSH1 0x0 KECCAK256 PUSH1 0x20 MSTORE DUP1 PUSH1 0x0 MSTORE PUSH1 0x40 PUSH1 0x0 KECCAK256 PUSH1 0x0 SWAP2 POP SWAP2 POP POP SLOAD DUP2 JUMP JUMPDEST DUP4 PUSH1 0x0 PUSH20 0xFFFFFFFFFFFFFFFFFFFFFFFFFFFFFFFFFFFFFFFF AND PUSH1 0x0 DUP1 DUP4 DUP2 MSTORE PUSH1 0x20 ADD SWAP1 DUP2 MSTORE PUSH1 0x20 ADD PUSH1 0x0 KECCAK256 PUSH1 0x1 ADD PUSH1 0x0 SWAP1 SLOAD SWAP1 PUSH2 0x100 EXP SWAP1 DIV PUSH20 0xFFFFFFFFFFFFFFFFFFFFFFFFFFFFFFFFFFFFFFFF AND PUSH20 0xFFFFFFFFFFFFFFFFFFFFFFFFFFFFFFFFFFFFFFFF AND EQ ISZERO PUSH2 0x77E JUMPI PUSH1 0x40 MLOAD PUSH32 0x8C379A000000000000000000000000000000000000000000000000000000000 DUP2 MSTORE PUSH1 0x4 ADD PUSH2 0x775 SWAP1 PUSH2 0x1039 JUMP JUMPDEST PUSH1 0x40 MLOAD DUP1 SWAP2 SUB SWAP1 REVERT JUMPDEST PUSH32 0x4441490000000000000000000000000000000000000000000000000000000000 DUP6 EQ ISZERO PUSH2 0x7E1 JUMPI PUSH1 0x40 MLOAD PUSH32 0x8C379A000000000000000000000000000000000000000000000000000000000 DUP2 MSTORE PUSH1 0x4 ADD PUSH2 0x7D8 SWAP1 PUSH2 0x10B9 JUMP JUMPDEST PUSH1 0x40 MLOAD DUP1 SWAP2 SUB SWAP1 REVERT JUMPDEST PUSH1 0x1 DUP1 DUP2 GT ISZERO PUSH2 0x81A JUMPI PUSH32 0x4E487B7100000000000000000000000000000000000000000000000000000000 PUSH1 0x0 MSTORE PUSH1 0x21 PUSH1 0x4 MSTORE PUSH1 0x24 PUSH1 0x0 REVERT JUMPDEST DUP3 PUSH1 0x1 DUP2 GT ISZERO PUSH2 0x853 JUMPI PUSH32 0x4E487B7100000000000000000000000000000000000000000000000000000000 PUSH1 0x0 MSTORE PUSH1 0x21 PUSH1 0x4 MSTORE PUSH1 0x24 PUSH1 0x0 REVERT JUMPDEST EQ ISZERO PUSH2 0x8F1 JUMPI DUP4 PUSH1 0x3 PUSH1 0x0 CALLER PUSH20 0xFFFFFFFFFFFFFFFFFFFFFFFFFFFFFFFFFFFFFFFF AND PUSH20 0xFFFFFFFFFFFFFFFFFFFFFFFFFFFFFFFFFFFFFFFF AND DUP2 MSTORE PUSH1 0x20 ADD SWAP1 DUP2 MSTORE PUSH1 0x20 ADD PUSH1 0x0 KECCAK256 PUSH1 0x0 DUP8 DUP2 MSTORE PUSH1 0x20 ADD SWAP1 DUP2 MSTORE PUSH1 0x20 ADD PUSH1 0x0 KECCAK256 SLOAD LT ISZERO PUSH2 0x8EC JUMPI PUSH1 0x40 MLOAD PUSH32 0x8C379A000000000000000000000000000000000000000000000000000000000 DUP2 MSTORE PUSH1 0x4 ADD PUSH2 0x8E3 SWAP1 PUSH2 0x1059 JUMP JUMPDEST PUSH1 0x40 MLOAD DUP1 SWAP2 SUB SWAP1 REVERT JUMPDEST PUSH2 0x9B0 JUMP JUMPDEST DUP3 DUP5 PUSH2 0x8FD SWAP2 SWAP1 PUSH2 0x11CA JUMP JUMPDEST PUSH1 0x3 PUSH1 0x0 CALLER PUSH20 0xFFFFFFFFFFFFFFFFFFFFFFFFFFFFFFFFFFFFFFFF AND PUSH20 0xFFFFFFFFFFFFFFFFFFFFFFFFFFFFFFFFFFFFFFFF AND DUP2 MSTORE PUSH1 0x20 ADD SWAP1 DUP2 MSTORE PUSH1 0x20 ADD PUSH1 0x0 KECCAK256 PUSH1 0x0 PUSH32 0x4441490000000000000000000000000000000000000000000000000000000000 DUP2 MSTORE PUSH1 0x20 ADD SWAP1 DUP2 MSTORE PUSH1 0x20 ADD PUSH1 0x0 KECCAK256 SLOAD LT ISZERO PUSH2 0x9AF JUMPI PUSH1 0x40 MLOAD PUSH32 0x8C379A000000000000000000000000000000000000000000000000000000000 DUP2 MSTORE PUSH1 0x4 ADD PUSH2 0x9A6 SWAP1 PUSH2 0x1099 JUMP JUMPDEST PUSH1 0x40 MLOAD DUP1 SWAP2 SUB SWAP1 REVERT JUMPDEST JUMPDEST POP POP POP POP POP JUMP JUMPDEST DUP1 PUSH1 0x0 PUSH20 0xFFFFFFFFFFFFFFFFFFFFFFFFFFFFFFFFFFFFFFFF AND PUSH1 0x0 DUP1 DUP4 DUP2 MSTORE PUSH1 0x20 ADD SWAP1 DUP2 MSTORE PUSH1 0x20 ADD PUSH1 0x0 KECCAK256 PUSH1 0x1 ADD PUSH1 0x0 SWAP1 SLOAD SWAP1 PUSH2 0x100 EXP SWAP1 DIV PUSH20 0xFFFFFFFFFFFFFFFFFFFFFFFFFFFFFFFFFFFFFFFF AND PUSH20 0xFFFFFFFFFFFFFFFFFFFFFFFFFFFFFFFFFFFFFFFF AND EQ ISZERO PUSH2 0xA5D JUMPI PUSH1 0x40 MLOAD PUSH32 0x8C379A000000000000000000000000000000000000000000000000000000000 DUP2 MSTORE PUSH1 0x4 ADD PUSH2 0xA54 SWAP1 PUSH2 0x1039 JUMP JUMPDEST PUSH1 0x40 MLOAD DUP1 SWAP2 SUB SWAP1 REVERT JUMPDEST PUSH1 0x0 DUP1 DUP4 DUP2 MSTORE PUSH1 0x20 ADD SWAP1 DUP2 MSTORE PUSH1 0x20 ADD PUSH1 0x0 KECCAK256 PUSH1 0x1 ADD PUSH1 0x0 SWAP1 SLOAD SWAP1 PUSH2 0x100 EXP SWAP1 DIV PUSH20 0xFFFFFFFFFFFFFFFFFFFFFFFFFFFFFFFFFFFFFFFF AND PUSH20 0xFFFFFFFFFFFFFFFFFFFFFFFFFFFFFFFFFFFFFFFF AND PUSH4 0x23B872DD CALLER ADDRESS DUP7 PUSH1 0x40 MLOAD DUP5 PUSH4 0xFFFFFFFF AND PUSH1 0xE0 SHL DUP2 MSTORE PUSH1 0x4 ADD PUSH2 0xACF SWAP4 SWAP3 SWAP2 SWAP1 PUSH2 0xF95 JUMP JUMPDEST PUSH1 0x20 PUSH1 0x40 MLOAD DUP1 DUP4 SUB DUP2 PUSH1 0x0 DUP8 DUP1 EXTCODESIZE ISZERO DUP1 ISZERO PUSH2 0xAE9 JUMPI PUSH1 0x0 DUP1 REVERT JUMPDEST POP GAS CALL ISZERO DUP1 ISZERO PUSH2 0xAFD JUMPI RETURNDATASIZE PUSH1 0x0 DUP1 RETURNDATACOPY RETURNDATASIZE PUSH1 0x0 REVERT JUMPDEST POP POP POP POP PUSH1 0x40 MLOAD RETURNDATASIZE PUSH1 0x1F NOT PUSH1 0x1F DUP3 ADD AND DUP3 ADD DUP1 PUSH1 0x40 MSTORE POP DUP2 ADD SWAP1 PUSH2 0xB21 SWAP2 SWAP1 PUSH2 0xC59 JUMP JUMPDEST POP DUP3 PUSH1 0x3 PUSH1 0x0 CALLER PUSH20 0xFFFFFFFFFFFFFFFFFFFFFFFFFFFFFFFFFFFFFFFF AND PUSH20 0xFFFFFFFFFFFFFFFFFFFFFFFFFFFFFFFFFFFFFFFF AND DUP2 MSTORE PUSH1 0x20 ADD SWAP1 DUP2 MSTORE PUSH1 0x20 ADD PUSH1 0x0 KECCAK256 PUSH1 0x0 DUP5 DUP2 MSTORE PUSH1 0x20 ADD SWAP1 DUP2 MSTORE PUSH1 0x20 ADD PUSH1 0x0 KECCAK256 PUSH1 0x0 DUP3 DUP3 SLOAD PUSH2 0xB82 SWAP2 SWAP1 PUSH2 0x1174 JUMP JUMPDEST SWAP3 POP POP DUP2 SWAP1 SSTORE POP POP POP POP JUMP JUMPDEST PUSH1 0x2 PUSH1 0x0 SWAP1 SLOAD SWAP1 PUSH2 0x100 EXP SWAP1 DIV PUSH20 0xFFFFFFFFFFFFFFFFFFFFFFFFFFFFFFFFFFFFFFFF AND DUP2 JUMP JUMPDEST PUSH1 0x0 DUP2 CALLDATALOAD SWAP1 POP PUSH2 0xBC3 DUP2 PUSH2 0x1341 JUMP JUMPDEST SWAP3 SWAP2 POP POP JUMP JUMPDEST PUSH1 0x0 DUP2 MLOAD SWAP1 POP PUSH2 0xBD8 DUP2 PUSH2 0x1358 JUMP JUMPDEST SWAP3 SWAP2 POP POP JUMP JUMPDEST PUSH1 0x0 DUP2 CALLDATALOAD SWAP1 POP PUSH2 0xBED DUP2 PUSH2 0x136F JUMP JUMPDEST SWAP3 SWAP2 POP POP JUMP JUMPDEST PUSH1 0x0 DUP2 CALLDATALOAD SWAP1 POP PUSH2 0xC02 DUP2 PUSH2 0x1386 JUMP JUMPDEST SWAP3 SWAP2 POP POP JUMP JUMPDEST PUSH1 0x0 DUP2 CALLDATALOAD SWAP1 POP PUSH2 0xC17 DUP2 PUSH2 0x1396 JUMP JUMPDEST SWAP3 SWAP2 POP POP JUMP JUMPDEST PUSH1 0x0 DUP1 PUSH1 0x40 DUP4 DUP6 SUB SLT ISZERO PUSH2 0xC30 JUMPI PUSH1 0x0 DUP1 REVERT JUMPDEST PUSH1 0x0 PUSH2 0xC3E DUP6 DUP3 DUP7 ADD PUSH2 0xBB4 JUMP JUMPDEST SWAP3 POP POP PUSH1 0x20 PUSH2 0xC4F DUP6 DUP3 DUP7 ADD PUSH2 0xBDE JUMP JUMPDEST SWAP2 POP POP SWAP3 POP SWAP3 SWAP1 POP JUMP JUMPDEST PUSH1 0x0 PUSH1 0x20 DUP3 DUP5 SUB SLT ISZERO PUSH2 0xC6B JUMPI PUSH1 0x0 DUP1 REVERT JUMPDEST PUSH1 0x0 PUSH2 0xC79 DUP5 DUP3 DUP6 ADD PUSH2 0xBC9 JUMP JUMPDEST SWAP2 POP POP SWAP3 SWAP2 POP POP JUMP JUMPDEST PUSH1 0x0 PUSH1 0x20 DUP3 DUP5 SUB SLT ISZERO PUSH2 0xC94 JUMPI PUSH1 0x0 DUP1 REVERT JUMPDEST PUSH1 0x0 PUSH2 0xCA2 DUP5 DUP3 DUP6 ADD PUSH2 0xBDE JUMP JUMPDEST SWAP2 POP POP SWAP3 SWAP2 POP POP JUMP JUMPDEST PUSH1 0x0 DUP1 PUSH1 0x40 DUP4 DUP6 SUB SLT ISZERO PUSH2 0xCBE JUMPI PUSH1 0x0 DUP1 REVERT JUMPDEST PUSH1 0x0 PUSH2 0xCCC DUP6 DUP3 DUP7 ADD PUSH2 0xBDE JUMP JUMPDEST SWAP3 POP POP PUSH1 0x20 PUSH2 0xCDD DUP6 DUP3 DUP7 ADD PUSH2 0xBB4 JUMP JUMPDEST SWAP2 POP POP SWAP3 POP SWAP3 SWAP1 POP JUMP JUMPDEST PUSH1 0x0 DUP1 PUSH1 0x0 PUSH1 0x60 DUP5 DUP7 SUB SLT ISZERO PUSH2 0xCFC JUMPI PUSH1 0x0 DUP1 REVERT JUMPDEST PUSH1 0x0 PUSH2 0xD0A DUP7 DUP3 DUP8 ADD PUSH2 0xBDE JUMP JUMPDEST SWAP4 POP POP PUSH1 0x20 PUSH2 0xD1B DUP7 DUP3 DUP8 ADD PUSH2 0xC08 JUMP JUMPDEST SWAP3 POP POP PUSH1 0x40 PUSH2 0xD2C DUP7 DUP3 DUP8 ADD PUSH2 0xC08 JUMP JUMPDEST SWAP2 POP POP SWAP3 POP SWAP3 POP SWAP3 JUMP JUMPDEST PUSH1 0x0 DUP1 PUSH1 0x0 DUP1 PUSH1 0x80 DUP6 DUP8 SUB SLT ISZERO PUSH2 0xD4C JUMPI PUSH1 0x0 DUP1 REVERT JUMPDEST PUSH1 0x0 PUSH2 0xD5A DUP8 DUP3 DUP9 ADD PUSH2 0xBDE JUMP JUMPDEST SWAP5 POP POP PUSH1 0x20 PUSH2 0xD6B DUP8 DUP3 DUP9 ADD PUSH2 0xC08 JUMP JUMPDEST SWAP4 POP POP PUSH1 0x40 PUSH2 0xD7C DUP8 DUP3 DUP9 ADD PUSH2 0xC08 JUMP JUMPDEST SWAP3 POP POP PUSH1 0x60 PUSH2 0xD8D DUP8 DUP3 DUP9 ADD PUSH2 0xBF3 JUMP JUMPDEST SWAP2 POP POP SWAP3 SWAP6 SWAP2 SWAP5 POP SWAP3 POP JUMP JUMPDEST PUSH1 0x0 PUSH1 0x20 DUP3 DUP5 SUB SLT ISZERO PUSH2 0xDAB JUMPI PUSH1 0x0 DUP1 REVERT JUMPDEST PUSH1 0x0 PUSH2 0xDB9 DUP5 DUP3 DUP6 ADD PUSH2 0xC08 JUMP JUMPDEST SWAP2 POP POP SWAP3 SWAP2 POP POP JUMP JUMPDEST PUSH1 0x0 DUP1 PUSH1 0x40 DUP4 DUP6 SUB SLT ISZERO PUSH2 0xDD5 JUMPI PUSH1 0x0 DUP1 REVERT JUMPDEST PUSH1 0x0 PUSH2 0xDE3 DUP6 DUP3 DUP7 ADD PUSH2 0xC08 JUMP JUMPDEST SWAP3 POP POP PUSH1 0x20 PUSH2 0xDF4 DUP6 DUP3 DUP7 ADD PUSH2 0xBDE JUMP JUMPDEST SWAP2 POP POP SWAP3 POP SWAP3 SWAP1 POP JUMP JUMPDEST PUSH2 0xE07 DUP2 PUSH2 0x1258 JUMP JUMPDEST DUP3 MSTORE POP POP JUMP JUMPDEST PUSH2 0xE16 DUP2 PUSH2 0x1276 JUMP JUMPDEST DUP3 MSTORE POP POP JUMP JUMPDEST PUSH2 0xE25 DUP2 PUSH2 0x12BD JUMP JUMPDEST DUP3 MSTORE POP POP JUMP JUMPDEST PUSH1 0x0 PUSH2 0xE38 PUSH1 0x13 DUP4 PUSH2 0x1163 JUMP JUMPDEST SWAP2 POP PUSH32 0x546F6B656E20646F65736E6F7420657869737400000000000000000000000000 PUSH1 0x0 DUP4 ADD MSTORE PUSH1 0x20 DUP3 ADD SWAP1 POP SWAP2 SWAP1 POP JUMP JUMPDEST PUSH1 0x0 PUSH2 0xE78 PUSH1 0x14 DUP4 PUSH2 0x1163 JUMP JUMPDEST SWAP2 POP PUSH32 0x496E73756666696369656E742042616C616E6365000000000000000000000000 PUSH1 0x0 DUP4 ADD MSTORE PUSH1 0x20 DUP3 ADD SWAP1 POP SWAP2 SWAP1 POP JUMP JUMPDEST PUSH1 0x0 PUSH2 0xEB8 PUSH1 0xA DUP4 PUSH2 0x1163 JUMP JUMPDEST SWAP2 POP PUSH32 0x4F6E6C792041646D696E00000000000000000000000000000000000000000000 PUSH1 0x0 DUP4 ADD MSTORE PUSH1 0x20 DUP3 ADD SWAP1 POP SWAP2 SWAP1 POP JUMP JUMPDEST PUSH1 0x0 PUSH2 0xEF8 PUSH1 0x13 DUP4 PUSH2 0x1163 JUMP JUMPDEST SWAP2 POP PUSH32 0x4441492042616C616E636520746F6F206C6F7700000000000000000000000000 PUSH1 0x0 DUP4 ADD MSTORE PUSH1 0x20 DUP3 ADD SWAP1 POP SWAP2 SWAP1 POP JUMP JUMPDEST PUSH1 0x0 PUSH2 0xF38 PUSH1 0x10 DUP4 PUSH2 0x1163 JUMP JUMPDEST SWAP2 POP PUSH32 0x43616E6E6F742074726164652044414900000000000000000000000000000000 PUSH1 0x0 DUP4 ADD MSTORE PUSH1 0x20 DUP3 ADD SWAP1 POP SWAP2 SWAP1 POP JUMP JUMPDEST PUSH2 0xF74 DUP2 PUSH2 0x12B3 JUMP JUMPDEST DUP3 MSTORE POP POP JUMP JUMPDEST PUSH1 0x0 PUSH1 0x20 DUP3 ADD SWAP1 POP PUSH2 0xF8F PUSH1 0x0 DUP4 ADD DUP5 PUSH2 0xDFE JUMP JUMPDEST SWAP3 SWAP2 POP POP JUMP JUMPDEST PUSH1 0x0 PUSH1 0x60 DUP3 ADD SWAP1 POP PUSH2 0xFAA PUSH1 0x0 DUP4 ADD DUP7 PUSH2 0xDFE JUMP JUMPDEST PUSH2 0xFB7 PUSH1 0x20 DUP4 ADD DUP6 PUSH2 0xDFE JUMP JUMPDEST PUSH2 0xFC4 PUSH1 0x40 DUP4 ADD DUP5 PUSH2 0xF6B JUMP JUMPDEST SWAP5 SWAP4 POP POP POP POP JUMP JUMPDEST PUSH1 0x0 PUSH1 0x40 DUP3 ADD SWAP1 POP PUSH2 0xFE1 PUSH1 0x0 DUP4 ADD DUP6 PUSH2 0xDFE JUMP JUMPDEST PUSH2 0xFEE PUSH1 0x20 DUP4 ADD DUP5 PUSH2 0xF6B JUMP JUMPDEST SWAP4 SWAP3 POP POP POP JUMP JUMPDEST PUSH1 0x0 PUSH1 0x20 DUP3 ADD SWAP1 POP PUSH2 0x100A PUSH1 0x0 DUP4 ADD DUP5 PUSH2 0xE0D JUMP JUMPDEST SWAP3 SWAP2 POP POP JUMP JUMPDEST PUSH1 0x0 PUSH1 0x40 DUP3 ADD SWAP1 POP PUSH2 0x1025 PUSH1 0x0 DUP4 ADD DUP6 PUSH2 0xE0D JUMP JUMPDEST PUSH2 0x1032 PUSH1 0x20 DUP4 ADD DUP5 PUSH2 0xDFE JUMP JUMPDEST SWAP4 SWAP3 POP POP POP JUMP JUMPDEST PUSH1 0x0 PUSH1 0x20 DUP3 ADD SWAP1 POP DUP2 DUP2 SUB PUSH1 0x0 DUP4 ADD MSTORE PUSH2 0x1052 DUP2 PUSH2 0xE2B JUMP JUMPDEST SWAP1 POP SWAP2 SWAP1 POP JUMP JUMPDEST PUSH1 0x0 PUSH1 0x20 DUP3 ADD SWAP1 POP DUP2 DUP2 SUB PUSH1 0x0 DUP4 ADD MSTORE PUSH2 0x1072 DUP2 PUSH2 0xE6B JUMP JUMPDEST SWAP1 POP SWAP2 SWAP1 POP JUMP JUMPDEST PUSH1 0x0 PUSH1 0x20 DUP3 ADD SWAP1 POP DUP2 DUP2 SUB PUSH1 0x0 DUP4 ADD MSTORE PUSH2 0x1092 DUP2 PUSH2 0xEAB JUMP JUMPDEST SWAP1 POP SWAP2 SWAP1 POP JUMP JUMPDEST PUSH1 0x0 PUSH1 0x20 DUP3 ADD SWAP1 POP DUP2 DUP2 SUB PUSH1 0x0 DUP4 ADD MSTORE PUSH2 0x10B2 DUP2 PUSH2 0xEEB JUMP JUMPDEST SWAP1 POP SWAP2 SWAP1 POP JUMP JUMPDEST PUSH1 0x0 PUSH1 0x20 DUP3 ADD SWAP1 POP DUP2 DUP2 SUB PUSH1 0x0 DUP4 ADD MSTORE PUSH2 0x10D2 DUP2 PUSH2 0xF2B JUMP JUMPDEST SWAP1 POP SWAP2 SWAP1 POP JUMP JUMPDEST PUSH1 0x0 PUSH1 0x20 DUP3 ADD SWAP1 POP PUSH2 0x10EE PUSH1 0x0 DUP4 ADD DUP5 PUSH2 0xF6B JUMP JUMPDEST SWAP3 SWAP2 POP POP JUMP JUMPDEST PUSH1 0x0 PUSH1 0xE0 DUP3 ADD SWAP1 POP PUSH2 0x1109 PUSH1 0x0 DUP4 ADD DUP11 PUSH2 0xF6B JUMP JUMPDEST PUSH2 0x1116 PUSH1 0x20 DUP4 ADD DUP10 PUSH2 0xE1C JUMP JUMPDEST PUSH2 0x1123 PUSH1 0x40 DUP4 ADD DUP9 PUSH2 0xE0D JUMP JUMPDEST PUSH2 0x1130 PUSH1 0x60 DUP4 ADD DUP8 PUSH2 0xF6B JUMP JUMPDEST PUSH2 0x113D PUSH1 0x80 DUP4 ADD DUP7 PUSH2 0xF6B JUMP JUMPDEST PUSH2 0x114A PUSH1 0xA0 DUP4 ADD DUP6 PUSH2 0xF6B JUMP JUMPDEST PUSH2 0x1157 PUSH1 0xC0 DUP4 ADD DUP5 PUSH2 0xF6B JUMP JUMPDEST SWAP9 SWAP8 POP POP POP POP POP POP POP POP JUMP JUMPDEST PUSH1 0x0 DUP3 DUP3 MSTORE PUSH1 0x20 DUP3 ADD SWAP1 POP SWAP3 SWAP2 POP POP JUMP JUMPDEST PUSH1 0x0 PUSH2 0x117F DUP3 PUSH2 0x12B3 JUMP JUMPDEST SWAP2 POP PUSH2 0x118A DUP4 PUSH2 0x12B3 JUMP JUMPDEST SWAP3 POP DUP3 PUSH32 0xFFFFFFFFFFFFFFFFFFFFFFFFFFFFFFFFFFFFFFFFFFFFFFFFFFFFFFFFFFFFFFFF SUB DUP3 GT ISZERO PUSH2 0x11BF JUMPI PUSH2 0x11BE PUSH2 0x12CF JUMP JUMPDEST JUMPDEST DUP3 DUP3 ADD SWAP1 POP SWAP3 SWAP2 POP POP JUMP JUMPDEST PUSH1 0x0 PUSH2 0x11D5 DUP3 PUSH2 0x12B3 JUMP JUMPDEST SWAP2 POP PUSH2 0x11E0 DUP4 PUSH2 0x12B3 JUMP JUMPDEST SWAP3 POP DUP2 PUSH32 0xFFFFFFFFFFFFFFFFFFFFFFFFFFFFFFFFFFFFFFFFFFFFFFFFFFFFFFFFFFFFFFFF DIV DUP4 GT DUP3 ISZERO ISZERO AND ISZERO PUSH2 0x1219 JUMPI PUSH2 0x1218 PUSH2 0x12CF JUMP JUMPDEST JUMPDEST DUP3 DUP3 MUL SWAP1 POP SWAP3 SWAP2 POP POP JUMP JUMPDEST PUSH1 0x0 PUSH2 0x122F DUP3 PUSH2 0x12B3 JUMP JUMPDEST SWAP2 POP PUSH2 0x123A DUP4 PUSH2 0x12B3 JUMP JUMPDEST SWAP3 POP DUP3 DUP3 LT ISZERO PUSH2 0x124D JUMPI PUSH2 0x124C PUSH2 0x12CF JUMP JUMPDEST JUMPDEST DUP3 DUP3 SUB SWAP1 POP SWAP3 SWAP2 POP POP JUMP JUMPDEST PUSH1 0x0 PUSH2 0x1263 DUP3 PUSH2 0x1293 JUMP JUMPDEST SWAP1 POP SWAP2 SWAP1 POP JUMP JUMPDEST PUSH1 0x0 DUP2 ISZERO ISZERO SWAP1 POP SWAP2 SWAP1 POP JUMP JUMPDEST PUSH1 0x0 DUP2 SWAP1 POP SWAP2 SWAP1 POP JUMP JUMPDEST PUSH1 0x0 DUP2 SWAP1 POP PUSH2 0x128E DUP3 PUSH2 0x132D JUMP JUMPDEST SWAP2 SWAP1 POP JUMP JUMPDEST PUSH1 0x0 PUSH20 0xFFFFFFFFFFFFFFFFFFFFFFFFFFFFFFFFFFFFFFFF DUP3 AND SWAP1 POP SWAP2 SWAP1 POP JUMP JUMPDEST PUSH1 0x0 DUP2 SWAP1 POP SWAP2 SWAP1 POP JUMP JUMPDEST PUSH1 0x0 PUSH2 0x12C8 DUP3 PUSH2 0x1280 JUMP JUMPDEST SWAP1 POP SWAP2 SWAP1 POP JUMP JUMPDEST PUSH32 0x4E487B7100000000000000000000000000000000000000000000000000000000 PUSH1 0x0 MSTORE PUSH1 0x11 PUSH1 0x4 MSTORE PUSH1 0x24 PUSH1 0x0 REVERT JUMPDEST PUSH32 0x4E487B7100000000000000000000000000000000000000000000000000000000 PUSH1 0x0 MSTORE PUSH1 0x21 PUSH1 0x4 MSTORE PUSH1 0x24 PUSH1 0x0 REVERT JUMPDEST PUSH1 0x2 DUP2 LT PUSH2 0x133E JUMPI PUSH2 0x133D PUSH2 0x12FE JUMP JUMPDEST JUMPDEST POP JUMP JUMPDEST PUSH2 0x134A DUP2 PUSH2 0x1258 JUMP JUMPDEST DUP2 EQ PUSH2 0x1355 JUMPI PUSH1 0x0 DUP1 REVERT JUMPDEST POP JUMP JUMPDEST PUSH2 0x1361 DUP2 PUSH2 0x126A JUMP JUMPDEST DUP2 EQ PUSH2 0x136C JUMPI PUSH1 0x0 DUP1 REVERT JUMPDEST POP JUMP JUMPDEST PUSH2 0x1378 DUP2 PUSH2 0x1276 JUMP JUMPDEST DUP2 EQ PUSH2 0x1383 JUMPI PUSH1 0x0 DUP1 REVERT JUMPDEST POP JUMP JUMPDEST PUSH1 0x2 DUP2 LT PUSH2 0x1393 JUMPI PUSH1 0x0 DUP1 REVERT JUMPDEST POP JUMP JUMPDEST PUSH2 0x139F DUP2 PUSH2 0x12B3 JUMP JUMPDEST DUP2 EQ PUSH2 0x13AA JUMPI PUSH1 0x0 DUP1 REVERT JUMPDEST POP JUMP INVALID LOG2 PUSH5 0x6970667358 0x22 SLT KECCAK256 0xD8 EXTCODESIZE PUSH10 0x14449DBA9B4D5A3A65C6 0xC0 PUSH4 0x641ADD20 STATICCALL BLOCKHASH 0xBB 0xD5 0xCB PUSH21 0x3C52F2396D7B1B64736F6C63430008000033000000 "
				},
				"gasEstimates": {
					"creation": {
						"codeDepositCost": "1018200",
						"executionCost": "21927",
						"totalCost": "1040127"
					},
					"external": {
						"add_token(bytes32,address)": "83500",
						"admin()": "1302",
						"create_limit_order(bytes32,uint256,uint256,uint8)": "infinite",
						"deposit(uint256,bytes32)": "infinite",
						"next_order_id()": "1218",
						"order_book(bytes32,uint256,uint256)": "infinite",
						"token_list(uint256)": "2327",
						"tokens(bytes32)": "infinite",
						"trader_balances(address,bytes32)": "1772",
						"withdraw(uint256,bytes32)": "infinite"
					}
				},
				"methodIdentifiers": {
					"add_token(bytes32,address)": "1b66807d",
					"admin()": "f851a440",
					"create_limit_order(bytes32,uint256,uint256,uint8)": "b3a7e99a",
					"deposit(uint256,bytes32)": "c9630cb0",
					"next_order_id()": "9dd4d0c3",
					"order_book(bytes32,uint256,uint256)": "0baaacd2",
					"token_list(uint256)": "538cad00",
					"tokens(bytes32)": "904194a3",
					"trader_balances(address,bytes32)": "a962846a",
					"withdraw(uint256,bytes32)": "a8d2021a"
				}
			},
			"storageLayout": {
				"storage": [
					{
						"astId": 31,
						"contract": "Dex.sol:Dex",
						"label": "tokens",
						"offset": 0,
						"slot": "0",
						"type": "t_mapping(t_bytes32,t_struct(Token)10_storage)"
					},
					{
						"astId": 34,
						"contract": "Dex.sol:Dex",
						"label": "token_list",
						"offset": 0,
						"slot": "1",
						"type": "t_array(t_bytes32)dyn_storage"
					},
					{
						"astId": 36,
						"contract": "Dex.sol:Dex",
						"label": "admin",
						"offset": 0,
						"slot": "2",
						"type": "t_address"
					},
					{
						"astId": 42,
						"contract": "Dex.sol:Dex",
						"label": "trader_balances",
						"offset": 0,
						"slot": "3",
						"type": "t_mapping(t_address,t_mapping(t_bytes32,t_uint256))"
					},
					{
						"astId": 50,
						"contract": "Dex.sol:Dex",
						"label": "order_book",
						"offset": 0,
						"slot": "4",
						"type": "t_mapping(t_bytes32,t_mapping(t_uint256,t_array(t_struct(Order)26_storage)dyn_storage))"
					},
					{
						"astId": 52,
						"contract": "Dex.sol:Dex",
						"label": "next_order_id",
						"offset": 0,
						"slot": "5",
						"type": "t_uint256"
					}
				],
				"types": {
					"t_address": {
						"encoding": "inplace",
						"label": "address",
						"numberOfBytes": "20"
					},
					"t_array(t_bytes32)dyn_storage": {
						"base": "t_bytes32",
						"encoding": "dynamic_array",
						"label": "bytes32[]",
						"numberOfBytes": "32"
					},
					"t_array(t_struct(Order)26_storage)dyn_storage": {
						"base": "t_struct(Order)26_storage",
						"encoding": "dynamic_array",
						"label": "struct Dex.Order[]",
						"numberOfBytes": "32"
					},
					"t_bytes32": {
						"encoding": "inplace",
						"label": "bytes32",
						"numberOfBytes": "32"
					},
					"t_enum(Side)5": {
						"encoding": "inplace",
						"label": "enum Dex.Side",
						"numberOfBytes": "1"
					},
					"t_mapping(t_address,t_mapping(t_bytes32,t_uint256))": {
						"encoding": "mapping",
						"key": "t_address",
						"label": "mapping(address => mapping(bytes32 => uint256))",
						"numberOfBytes": "32",
						"value": "t_mapping(t_bytes32,t_uint256)"
					},
					"t_mapping(t_bytes32,t_mapping(t_uint256,t_array(t_struct(Order)26_storage)dyn_storage))": {
						"encoding": "mapping",
						"key": "t_bytes32",
						"label": "mapping(bytes32 => mapping(uint256 => struct Dex.Order[]))",
						"numberOfBytes": "32",
						"value": "t_mapping(t_uint256,t_array(t_struct(Order)26_storage)dyn_storage)"
					},
					"t_mapping(t_bytes32,t_struct(Token)10_storage)": {
						"encoding": "mapping",
						"key": "t_bytes32",
						"label": "mapping(bytes32 => struct Dex.Token)",
						"numberOfBytes": "32",
						"value": "t_struct(Token)10_storage"
					},
					"t_mapping(t_bytes32,t_uint256)": {
						"encoding": "mapping",
						"key": "t_bytes32",
						"label": "mapping(bytes32 => uint256)",
						"numberOfBytes": "32",
						"value": "t_uint256"
					},
					"t_mapping(t_uint256,t_array(t_struct(Order)26_storage)dyn_storage)": {
						"encoding": "mapping",
						"key": "t_uint256",
						"label": "mapping(uint256 => struct Dex.Order[])",
						"numberOfBytes": "32",
						"value": "t_array(t_struct(Order)26_storage)dyn_storage"
					},
					"t_struct(Order)26_storage": {
						"encoding": "inplace",
						"label": "struct Dex.Order",
						"members": [
							{
								"astId": 12,
								"contract": "Dex.sol:Dex",
								"label": "id",
								"offset": 0,
								"slot": "0",
								"type": "t_uint256"
							},
							{
								"astId": 15,
								"contract": "Dex.sol:Dex",
								"label": "side",
								"offset": 0,
								"slot": "1",
								"type": "t_enum(Side)5"
							},
							{
								"astId": 17,
								"contract": "Dex.sol:Dex",
								"label": "ticker",
								"offset": 0,
								"slot": "2",
								"type": "t_bytes32"
							},
							{
								"astId": 19,
								"contract": "Dex.sol:Dex",
								"label": "amount",
								"offset": 0,
								"slot": "3",
								"type": "t_uint256"
							},
							{
								"astId": 21,
								"contract": "Dex.sol:Dex",
								"label": "filled",
								"offset": 0,
								"slot": "4",
								"type": "t_uint256"
							},
							{
								"astId": 23,
								"contract": "Dex.sol:Dex",
								"label": "price",
								"offset": 0,
								"slot": "5",
								"type": "t_uint256"
							},
							{
								"astId": 25,
								"contract": "Dex.sol:Dex",
								"label": "date",
								"offset": 0,
								"slot": "6",
								"type": "t_uint256"
							}
						],
						"numberOfBytes": "224"
					},
					"t_struct(Token)10_storage": {
						"encoding": "inplace",
						"label": "struct Dex.Token",
						"members": [
							{
								"astId": 7,
								"contract": "Dex.sol:Dex",
								"label": "ticker",
								"offset": 0,
								"slot": "0",
								"type": "t_bytes32"
							},
							{
								"astId": 9,
								"contract": "Dex.sol:Dex",
								"label": "token_address",
								"offset": 0,
								"slot": "1",
								"type": "t_address"
							}
						],
						"numberOfBytes": "64"
					},
					"t_uint256": {
						"encoding": "inplace",
						"label": "uint256",
						"numberOfBytes": "32"
					}
				}
			},
			"userdoc": {
				"kind": "user",
				"methods": {},
				"version": 1
			}
		}
	}
}