{
	"Wallet.sol": {
		"Wallet": {
			"abi": [
				{
					"inputs": [
						{
							"internalType": "address[]",
							"name": "_approvers",
							"type": "address[]"
						},
						{
							"internalType": "uint256",
							"name": "_quorum",
							"type": "uint256"
						}
					],
					"stateMutability": "nonpayable",
					"type": "constructor"
				},
				{
					"inputs": [
						{
							"internalType": "uint256",
							"name": "",
							"type": "uint256"
						}
					],
					"name": "approvers",
					"outputs": [
						{
							"internalType": "address",
							"name": "",
							"type": "address"
						}
					],
					"stateMutability": "view",
					"type": "function"
				},
				{
					"inputs": [],
					"name": "get_approvers",
					"outputs": [
						{
							"internalType": "address[]",
							"name": "",
							"type": "address[]"
						}
					],
					"stateMutability": "view",
					"type": "function"
				},
				{
					"inputs": [],
					"name": "quorum",
					"outputs": [
						{
							"internalType": "uint256",
							"name": "",
							"type": "uint256"
						}
					],
					"stateMutability": "view",
					"type": "function"
				}
			],
			"devdoc": {
				"kind": "dev",
				"methods": {},
				"version": 1
			},
			"evm": {
				"assembly": "    /* \"Wallet.sol\":57:600  contract Wallet {... */\n  mstore(0x40, 0x80)\n    /* \"Wallet.sol\":308:438  constructor(address[] memory _approvers, uint256 _quorum) public {... */\n  callvalue\n  dup1\n  iszero\n  tag_1\n  jumpi\n  0x00\n  dup1\n  revert\ntag_1:\n  pop\n  mload(0x40)\n  sub(codesize, bytecodeSize)\n  dup1\n  bytecodeSize\n  dup4\n  codecopy\n  dup2\n  dup2\n  add\n  0x40\n  mstore\n  dup2\n  add\n  swap1\n  tag_2\n  swap2\n  swap1\n  tag_3\n  jump\t// in\ntag_2:\n    /* \"Wallet.sol\":395:405  _approvers */\n  dup2\n    /* \"Wallet.sol\":383:392  approvers */\n  0x00\n    /* \"Wallet.sol\":383:405  approvers = _approvers */\n  swap1\n  dup1\n  mload\n  swap1\n  0x20\n  add\n  swap1\n  tag_6\n  swap3\n  swap2\n  swap1\n  tag_7\n  jump\t// in\ntag_6:\n  pop\n    /* \"Wallet.sol\":424:431  _quorum */\n  dup1\n    /* \"Wallet.sol\":415:421  quorum */\n  0x01\n    /* \"Wallet.sol\":415:431  quorum = _quorum */\n  dup2\n  swap1\n  sstore\n  pop\n    /* \"Wallet.sol\":308:438  constructor(address[] memory _approvers, uint256 _quorum) public {... */\n  pop\n  pop\n    /* \"Wallet.sol\":57:600  contract Wallet {... */\n  jump(tag_8)\ntag_7:\n  dup3\n  dup1\n  sload\n  dup3\n  dup3\n  sstore\n  swap1\n  0x00\n  mstore\n  keccak256(0x00, 0x20)\n  swap1\n  dup2\n  add\n  swap3\n  dup3\n  iszero\n  tag_9\n  jumpi\n  swap2\n  0x20\n  mul\n  dup3\n  add\ntag_10:\n  dup3\n  dup2\n  gt\n  iszero\n  tag_11\n  jumpi\n  dup3\n  mload\n  dup3\n  exp(0x0100, 0x00)\n  dup2\n  sload\n  dup2\n  0xffffffffffffffffffffffffffffffffffffffff\n  mul\n  not\n  and\n  swap1\n  dup4\n  0xffffffffffffffffffffffffffffffffffffffff\n  and\n  mul\n  or\n  swap1\n  sstore\n  pop\n  swap2\n  0x20\n  add\n  swap2\n  swap1\n  0x01\n  add\n  swap1\n  jump(tag_10)\ntag_11:\ntag_9:\n  pop\n  swap1\n  pop\n  tag_12\n  swap2\n  swap1\n  tag_13\n  jump\t// in\ntag_12:\n  pop\n  swap1\n  jump\t// out\ntag_13:\ntag_14:\n  dup1\n  dup3\n  gt\n  iszero\n  tag_15\n  jumpi\n  0x00\n  dup2\n  0x00\n  swap1\n  sstore\n  pop\n  0x01\n  add\n  jump(tag_14)\ntag_15:\n  pop\n  swap1\n  jump\t// out\n    /* \"#utility.yul\":24:668   */\ntag_17:\n  0x00\n    /* \"#utility.yul\":156:236   */\n  tag_19\n    /* \"#utility.yul\":171:235   */\n  tag_20\n    /* \"#utility.yul\":228:234   */\n  dup5\n    /* \"#utility.yul\":171:235   */\n  tag_21\n  jump\t// in\ntag_20:\n    /* \"#utility.yul\":156:236   */\n  tag_22\n  jump\t// in\ntag_19:\n    /* \"#utility.yul\":147:236   */\n  swap1\n  pop\n    /* \"#utility.yul\":256:261   */\n  dup1\n    /* \"#utility.yul\":284:290   */\n  dup4\n    /* \"#utility.yul\":277:282   */\n  dup3\n    /* \"#utility.yul\":270:291   */\n  mstore\n    /* \"#utility.yul\":310:314   */\n  0x20\n    /* \"#utility.yul\":303:308   */\n  dup3\n    /* \"#utility.yul\":299:315   */\n  add\n    /* \"#utility.yul\":292:315   */\n  swap1\n  pop\n    /* \"#utility.yul\":335:341   */\n  dup3\n    /* \"#utility.yul\":385:388   */\n  dup6\n    /* \"#utility.yul\":377:381   */\n  0x20\n    /* \"#utility.yul\":369:375   */\n  dup7\n    /* \"#utility.yul\":365:382   */\n  mul\n    /* \"#utility.yul\":360:363   */\n  dup3\n    /* \"#utility.yul\":356:383   */\n  add\n    /* \"#utility.yul\":353:389   */\n  gt\n    /* \"#utility.yul\":350:352   */\n  iszero\n  tag_23\n  jumpi\n    /* \"#utility.yul\":402:403   */\n  0x00\n    /* \"#utility.yul\":399:400   */\n  dup1\n    /* \"#utility.yul\":392:404   */\n  revert\n    /* \"#utility.yul\":350:352   */\ntag_23:\n    /* \"#utility.yul\":430:431   */\n  0x00\n    /* \"#utility.yul\":415:662   */\ntag_24:\n    /* \"#utility.yul\":440:446   */\n  dup6\n    /* \"#utility.yul\":437:438   */\n  dup2\n    /* \"#utility.yul\":434:447   */\n  lt\n    /* \"#utility.yul\":415:662   */\n  iszero\n  tag_26\n  jumpi\n    /* \"#utility.yul\":507:510   */\n  dup2\n    /* \"#utility.yul\":535:583   */\n  tag_27\n    /* \"#utility.yul\":579:582   */\n  dup9\n    /* \"#utility.yul\":567:577   */\n  dup3\n    /* \"#utility.yul\":535:583   */\n  tag_28\n  jump\t// in\ntag_27:\n    /* \"#utility.yul\":530:533   */\n  dup5\n    /* \"#utility.yul\":523:584   */\n  mstore\n    /* \"#utility.yul\":613:617   */\n  0x20\n    /* \"#utility.yul\":608:611   */\n  dup5\n    /* \"#utility.yul\":604:618   */\n  add\n    /* \"#utility.yul\":597:618   */\n  swap4\n  pop\n    /* \"#utility.yul\":647:651   */\n  0x20\n    /* \"#utility.yul\":642:645   */\n  dup4\n    /* \"#utility.yul\":638:652   */\n  add\n    /* \"#utility.yul\":631:652   */\n  swap3\n  pop\n    /* \"#utility.yul\":475:662   */\n  pop\n    /* \"#utility.yul\":462:463   */\n  0x01\n    /* \"#utility.yul\":459:460   */\n  dup2\n    /* \"#utility.yul\":455:464   */\n  add\n    /* \"#utility.yul\":450:464   */\n  swap1\n  pop\n    /* \"#utility.yul\":415:662   */\n  jump(tag_24)\ntag_26:\n    /* \"#utility.yul\":419:433   */\n  pop\n    /* \"#utility.yul\":137:668   */\n  pop\n  pop\n  swap4\n  swap3\n  pop\n  pop\n  pop\n  jump\t// out\n    /* \"#utility.yul\":674:817   */\ntag_28:\n  0x00\n    /* \"#utility.yul\":762:768   */\n  dup2\n    /* \"#utility.yul\":756:769   */\n  mload\n    /* \"#utility.yul\":747:769   */\n  swap1\n  pop\n    /* \"#utility.yul\":778:811   */\n  tag_30\n    /* \"#utility.yul\":805:810   */\n  dup2\n    /* \"#utility.yul\":778:811   */\n  tag_31\n  jump\t// in\ntag_30:\n    /* \"#utility.yul\":737:817   */\n  swap3\n  swap2\n  pop\n  pop\n  jump\t// out\n    /* \"#utility.yul\":840:1158   */\ntag_32:\n  0x00\n    /* \"#utility.yul\":971:974   */\n  dup3\n    /* \"#utility.yul\":964:968   */\n  0x1f\n    /* \"#utility.yul\":956:962   */\n  dup4\n    /* \"#utility.yul\":952:969   */\n  add\n    /* \"#utility.yul\":948:975   */\n  slt\n    /* \"#utility.yul\":938:940   */\n  tag_34\n  jumpi\n    /* \"#utility.yul\":989:990   */\n  0x00\n    /* \"#utility.yul\":986:987   */\n  dup1\n    /* \"#utility.yul\":979:991   */\n  revert\n    /* \"#utility.yul\":938:940   */\ntag_34:\n    /* \"#utility.yul\":1022:1028   */\n  dup2\n    /* \"#utility.yul\":1016:1029   */\n  mload\n    /* \"#utility.yul\":1047:1152   */\n  tag_35\n    /* \"#utility.yul\":1148:1151   */\n  dup5\n    /* \"#utility.yul\":1140:1146   */\n  dup3\n    /* \"#utility.yul\":1133:1137   */\n  0x20\n    /* \"#utility.yul\":1125:1131   */\n  dup7\n    /* \"#utility.yul\":1121:1138   */\n  add\n    /* \"#utility.yul\":1047:1152   */\n  tag_17\n  jump\t// in\ntag_35:\n    /* \"#utility.yul\":1038:1152   */\n  swap2\n  pop\n    /* \"#utility.yul\":928:1158   */\n  pop\n  swap3\n  swap2\n  pop\n  pop\n  jump\t// out\n    /* \"#utility.yul\":1164:1307   */\ntag_36:\n  0x00\n    /* \"#utility.yul\":1252:1258   */\n  dup2\n    /* \"#utility.yul\":1246:1259   */\n  mload\n    /* \"#utility.yul\":1237:1259   */\n  swap1\n  pop\n    /* \"#utility.yul\":1268:1301   */\n  tag_38\n    /* \"#utility.yul\":1295:1300   */\n  dup2\n    /* \"#utility.yul\":1268:1301   */\n  tag_39\n  jump\t// in\ntag_38:\n    /* \"#utility.yul\":1227:1307   */\n  swap3\n  swap2\n  pop\n  pop\n  jump\t// out\n    /* \"#utility.yul\":1313:1889   */\ntag_3:\n  0x00\n  dup1\n    /* \"#utility.yul\":1474:1476   */\n  0x40\n    /* \"#utility.yul\":1462:1471   */\n  dup4\n    /* \"#utility.yul\":1453:1460   */\n  dup6\n    /* \"#utility.yul\":1449:1472   */\n  sub\n    /* \"#utility.yul\":1445:1477   */\n  slt\n    /* \"#utility.yul\":1442:1444   */\n  iszero\n  tag_41\n  jumpi\n    /* \"#utility.yul\":1490:1491   */\n  0x00\n    /* \"#utility.yul\":1487:1488   */\n  dup1\n    /* \"#utility.yul\":1480:1492   */\n  revert\n    /* \"#utility.yul\":1442:1444   */\ntag_41:\n    /* \"#utility.yul\":1554:1555   */\n  0x00\n    /* \"#utility.yul\":1543:1552   */\n  dup4\n    /* \"#utility.yul\":1539:1556   */\n  add\n    /* \"#utility.yul\":1533:1557   */\n  mload\n    /* \"#utility.yul\":1584:1602   */\n  0xffffffffffffffff\n    /* \"#utility.yul\":1576:1582   */\n  dup2\n    /* \"#utility.yul\":1573:1603   */\n  gt\n    /* \"#utility.yul\":1570:1572   */\n  iszero\n  tag_42\n  jumpi\n    /* \"#utility.yul\":1616:1617   */\n  0x00\n    /* \"#utility.yul\":1613:1614   */\n  dup1\n    /* \"#utility.yul\":1606:1618   */\n  revert\n    /* \"#utility.yul\":1570:1572   */\ntag_42:\n    /* \"#utility.yul\":1644:1733   */\n  tag_43\n    /* \"#utility.yul\":1725:1732   */\n  dup6\n    /* \"#utility.yul\":1716:1722   */\n  dup3\n    /* \"#utility.yul\":1705:1714   */\n  dup7\n    /* \"#utility.yul\":1701:1723   */\n  add\n    /* \"#utility.yul\":1644:1733   */\n  tag_32\n  jump\t// in\ntag_43:\n    /* \"#utility.yul\":1634:1733   */\n  swap3\n  pop\n    /* \"#utility.yul\":1504:1743   */\n  pop\n    /* \"#utility.yul\":1782:1784   */\n  0x20\n    /* \"#utility.yul\":1808:1872   */\n  tag_44\n    /* \"#utility.yul\":1864:1871   */\n  dup6\n    /* \"#utility.yul\":1855:1861   */\n  dup3\n    /* \"#utility.yul\":1844:1853   */\n  dup7\n    /* \"#utility.yul\":1840:1862   */\n  add\n    /* \"#utility.yul\":1808:1872   */\n  tag_36\n  jump\t// in\ntag_44:\n    /* \"#utility.yul\":1798:1872   */\n  swap2\n  pop\n    /* \"#utility.yul\":1753:1882   */\n  pop\n    /* \"#utility.yul\":1432:1889   */\n  swap3\n  pop\n  swap3\n  swap1\n  pop\n  jump\t// out\n    /* \"#utility.yul\":1895:2178   */\ntag_22:\n  0x00\n    /* \"#utility.yul\":1961:1963   */\n  0x40\n    /* \"#utility.yul\":1955:1964   */\n  mload\n    /* \"#utility.yul\":1945:1964   */\n  swap1\n  pop\n    /* \"#utility.yul\":2003:2007   */\n  dup2\n    /* \"#utility.yul\":1995:2001   */\n  dup2\n    /* \"#utility.yul\":1991:2008   */\n  add\n    /* \"#utility.yul\":2110:2116   */\n  dup2\n    /* \"#utility.yul\":2098:2108   */\n  dup2\n    /* \"#utility.yul\":2095:2117   */\n  lt\n    /* \"#utility.yul\":2074:2092   */\n  0xffffffffffffffff\n    /* \"#utility.yul\":2062:2072   */\n  dup3\n    /* \"#utility.yul\":2059:2093   */\n  gt\n    /* \"#utility.yul\":2056:2118   */\n  or\n    /* \"#utility.yul\":2053:2055   */\n  iszero\n  tag_46\n  jumpi\n    /* \"#utility.yul\":2121:2139   */\n  tag_47\n  tag_48\n  jump\t// in\ntag_47:\n    /* \"#utility.yul\":2053:2055   */\ntag_46:\n    /* \"#utility.yul\":2161:2171   */\n  dup1\n    /* \"#utility.yul\":2157:2159   */\n  0x40\n    /* \"#utility.yul\":2150:2172   */\n  mstore\n    /* \"#utility.yul\":1935:2178   */\n  pop\n  swap2\n  swap1\n  pop\n  jump\t// out\n    /* \"#utility.yul\":2184:2495   */\ntag_21:\n  0x00\n    /* \"#utility.yul\":2351:2369   */\n  0xffffffffffffffff\n    /* \"#utility.yul\":2343:2349   */\n  dup3\n    /* \"#utility.yul\":2340:2370   */\n  gt\n    /* \"#utility.yul\":2337:2339   */\n  iszero\n  tag_50\n  jumpi\n    /* \"#utility.yul\":2373:2391   */\n  tag_51\n  tag_48\n  jump\t// in\ntag_51:\n    /* \"#utility.yul\":2337:2339   */\ntag_50:\n    /* \"#utility.yul\":2423:2427   */\n  0x20\n    /* \"#utility.yul\":2415:2421   */\n  dup3\n    /* \"#utility.yul\":2411:2428   */\n  mul\n    /* \"#utility.yul\":2403:2428   */\n  swap1\n  pop\n    /* \"#utility.yul\":2483:2487   */\n  0x20\n    /* \"#utility.yul\":2477:2481   */\n  dup2\n    /* \"#utility.yul\":2473:2488   */\n  add\n    /* \"#utility.yul\":2465:2488   */\n  swap1\n  pop\n    /* \"#utility.yul\":2266:2495   */\n  swap2\n  swap1\n  pop\n  jump\t// out\n    /* \"#utility.yul\":2501:2597   */\ntag_52:\n  0x00\n    /* \"#utility.yul\":2567:2591   */\n  tag_54\n    /* \"#utility.yul\":2585:2590   */\n  dup3\n    /* \"#utility.yul\":2567:2591   */\n  tag_55\n  jump\t// in\ntag_54:\n    /* \"#utility.yul\":2556:2591   */\n  swap1\n  pop\n    /* \"#utility.yul\":2546:2597   */\n  swap2\n  swap1\n  pop\n  jump\t// out\n    /* \"#utility.yul\":2603:2729   */\ntag_55:\n  0x00\n    /* \"#utility.yul\":2680:2722   */\n  0xffffffffffffffffffffffffffffffffffffffff\n    /* \"#utility.yul\":2673:2678   */\n  dup3\n    /* \"#utility.yul\":2669:2723   */\n  and\n    /* \"#utility.yul\":2658:2723   */\n  swap1\n  pop\n    /* \"#utility.yul\":2648:2729   */\n  swap2\n  swap1\n  pop\n  jump\t// out\n    /* \"#utility.yul\":2735:2812   */\ntag_57:\n  0x00\n    /* \"#utility.yul\":2801:2806   */\n  dup2\n    /* \"#utility.yul\":2790:2806   */\n  swap1\n  pop\n    /* \"#utility.yul\":2780:2812   */\n  swap2\n  swap1\n  pop\n  jump\t// out\n    /* \"#utility.yul\":2818:2998   */\ntag_48:\n    /* \"#utility.yul\":2866:2943   */\n  0x4e487b7100000000000000000000000000000000000000000000000000000000\n    /* \"#utility.yul\":2863:2864   */\n  0x00\n    /* \"#utility.yul\":2856:2944   */\n  mstore\n    /* \"#utility.yul\":2963:2967   */\n  0x41\n    /* \"#utility.yul\":2960:2961   */\n  0x04\n    /* \"#utility.yul\":2953:2968   */\n  mstore\n    /* \"#utility.yul\":2987:2991   */\n  0x24\n    /* \"#utility.yul\":2984:2985   */\n  0x00\n    /* \"#utility.yul\":2977:2992   */\n  revert\n    /* \"#utility.yul\":3004:3126   */\ntag_31:\n    /* \"#utility.yul\":3077:3101   */\n  tag_61\n    /* \"#utility.yul\":3095:3100   */\n  dup2\n    /* \"#utility.yul\":3077:3101   */\n  tag_52\n  jump\t// in\ntag_61:\n    /* \"#utility.yul\":3070:3075   */\n  dup2\n    /* \"#utility.yul\":3067:3102   */\n  eq\n    /* \"#utility.yul\":3057:3059   */\n  tag_62\n  jumpi\n    /* \"#utility.yul\":3116:3117   */\n  0x00\n    /* \"#utility.yul\":3113:3114   */\n  dup1\n    /* \"#utility.yul\":3106:3118   */\n  revert\n    /* \"#utility.yul\":3057:3059   */\ntag_62:\n    /* \"#utility.yul\":3047:3126   */\n  pop\n  jump\t// out\n    /* \"#utility.yul\":3132:3254   */\ntag_39:\n    /* \"#utility.yul\":3205:3229   */\n  tag_64\n    /* \"#utility.yul\":3223:3228   */\n  dup2\n    /* \"#utility.yul\":3205:3229   */\n  tag_57\n  jump\t// in\ntag_64:\n    /* \"#utility.yul\":3198:3203   */\n  dup2\n    /* \"#utility.yul\":3195:3230   */\n  eq\n    /* \"#utility.yul\":3185:3187   */\n  tag_65\n  jumpi\n    /* \"#utility.yul\":3244:3245   */\n  0x00\n    /* \"#utility.yul\":3241:3242   */\n  dup1\n    /* \"#utility.yul\":3234:3246   */\n  revert\n    /* \"#utility.yul\":3185:3187   */\ntag_65:\n    /* \"#utility.yul\":3175:3254   */\n  pop\n  jump\t// out\n    /* \"Wallet.sol\":57:600  contract Wallet {... */\ntag_8:\n  dataSize(sub_0)\n  dup1\n  dataOffset(sub_0)\n  0x00\n  codecopy\n  0x00\n  return\nstop\n\nsub_0: assembly {\n        /* \"Wallet.sol\":57:600  contract Wallet {... */\n      mstore(0x40, 0x80)\n      callvalue\n      dup1\n      iszero\n      tag_1\n      jumpi\n      0x00\n      dup1\n      revert\n    tag_1:\n      pop\n      jumpi(tag_2, lt(calldatasize, 0x04))\n      shr(0xe0, calldataload(0x00))\n      dup1\n      0x1703a018\n      eq\n      tag_3\n      jumpi\n      dup1\n      0xd3650fb8\n      eq\n      tag_4\n      jumpi\n      dup1\n      0xe90af376\n      eq\n      tag_5\n      jumpi\n    tag_2:\n      0x00\n      dup1\n      revert\n        /* \"Wallet.sol\":280:301  uint256 public quorum */\n    tag_3:\n      tag_6\n      tag_7\n      jump\t// in\n    tag_6:\n      mload(0x40)\n      tag_8\n      swap2\n      swap1\n      tag_9\n      jump\t// in\n    tag_8:\n      mload(0x40)\n      dup1\n      swap2\n      sub\n      swap1\n      return\n        /* \"Wallet.sol\":165:191  address[] public approvers */\n    tag_4:\n      tag_10\n      0x04\n      dup1\n      calldatasize\n      sub\n      dup2\n      add\n      swap1\n      tag_11\n      swap2\n      swap1\n      tag_12\n      jump\t// in\n    tag_11:\n      tag_13\n      jump\t// in\n    tag_10:\n      mload(0x40)\n      tag_14\n      swap2\n      swap1\n      tag_15\n      jump\t// in\n    tag_14:\n      mload(0x40)\n      dup1\n      swap2\n      sub\n      swap1\n      return\n        /* \"Wallet.sol\":499:598  function get_approvers() external view returns (address[] memory) {... */\n    tag_5:\n      tag_16\n      tag_17\n      jump\t// in\n    tag_16:\n      mload(0x40)\n      tag_18\n      swap2\n      swap1\n      tag_19\n      jump\t// in\n    tag_18:\n      mload(0x40)\n      dup1\n      swap2\n      sub\n      swap1\n      return\n        /* \"Wallet.sol\":280:301  uint256 public quorum */\n    tag_7:\n      sload(0x01)\n      dup2\n      jump\t// out\n        /* \"Wallet.sol\":165:191  address[] public approvers */\n    tag_13:\n      0x00\n      dup2\n      dup2\n      sload\n      dup2\n      lt\n      tag_20\n      jumpi\n      0x00\n      dup1\n      revert\n    tag_20:\n      swap1\n      0x00\n      mstore\n      keccak256(0x00, 0x20)\n      add\n      0x00\n      swap2\n      pop\n      sload\n      swap1\n      0x0100\n      exp\n      swap1\n      div\n      0xffffffffffffffffffffffffffffffffffffffff\n      and\n      dup2\n      jump\t// out\n        /* \"Wallet.sol\":499:598  function get_approvers() external view returns (address[] memory) {... */\n    tag_17:\n        /* \"Wallet.sol\":547:563  address[] memory */\n      0x60\n        /* \"Wallet.sol\":582:591  approvers */\n      0x00\n        /* \"Wallet.sol\":575:591  return approvers */\n      dup1\n      sload\n      dup1\n      0x20\n      mul\n      0x20\n      add\n      mload(0x40)\n      swap1\n      dup2\n      add\n      0x40\n      mstore\n      dup1\n      swap3\n      swap2\n      swap1\n      dup2\n      dup2\n      mstore\n      0x20\n      add\n      dup3\n      dup1\n      sload\n      dup1\n      iszero\n      tag_23\n      jumpi\n      0x20\n      mul\n      dup3\n      add\n      swap2\n      swap1\n      0x00\n      mstore\n      keccak256(0x00, 0x20)\n      swap1\n    tag_24:\n      dup2\n      0x00\n      swap1\n      sload\n      swap1\n      0x0100\n      exp\n      swap1\n      div\n      0xffffffffffffffffffffffffffffffffffffffff\n      and\n      0xffffffffffffffffffffffffffffffffffffffff\n      and\n      dup2\n      mstore\n      0x20\n      add\n      swap1\n      0x01\n      add\n      swap1\n      dup1\n      dup4\n      gt\n      tag_24\n      jumpi\n    tag_23:\n      pop\n      pop\n      pop\n      pop\n      pop\n      swap1\n      pop\n        /* \"Wallet.sol\":499:598  function get_approvers() external view returns (address[] memory) {... */\n      swap1\n      jump\t// out\n        /* \"#utility.yul\":7:146   */\n    tag_26:\n      0x00\n        /* \"#utility.yul\":91:97   */\n      dup2\n        /* \"#utility.yul\":78:98   */\n      calldataload\n        /* \"#utility.yul\":69:98   */\n      swap1\n      pop\n        /* \"#utility.yul\":107:140   */\n      tag_28\n        /* \"#utility.yul\":134:139   */\n      dup2\n        /* \"#utility.yul\":107:140   */\n      tag_29\n      jump\t// in\n    tag_28:\n        /* \"#utility.yul\":59:146   */\n      swap3\n      swap2\n      pop\n      pop\n      jump\t// out\n        /* \"#utility.yul\":152:414   */\n    tag_12:\n      0x00\n        /* \"#utility.yul\":260:262   */\n      0x20\n        /* \"#utility.yul\":248:257   */\n      dup3\n        /* \"#utility.yul\":239:246   */\n      dup5\n        /* \"#utility.yul\":235:258   */\n      sub\n        /* \"#utility.yul\":231:263   */\n      slt\n        /* \"#utility.yul\":228:230   */\n      iszero\n      tag_31\n      jumpi\n        /* \"#utility.yul\":276:277   */\n      0x00\n        /* \"#utility.yul\":273:274   */\n      dup1\n        /* \"#utility.yul\":266:278   */\n      revert\n        /* \"#utility.yul\":228:230   */\n    tag_31:\n        /* \"#utility.yul\":319:320   */\n      0x00\n        /* \"#utility.yul\":344:397   */\n      tag_32\n        /* \"#utility.yul\":389:396   */\n      dup5\n        /* \"#utility.yul\":380:386   */\n      dup3\n        /* \"#utility.yul\":369:378   */\n      dup6\n        /* \"#utility.yul\":365:387   */\n      add\n        /* \"#utility.yul\":344:397   */\n      tag_26\n      jump\t// in\n    tag_32:\n        /* \"#utility.yul\":334:397   */\n      swap2\n      pop\n        /* \"#utility.yul\":290:407   */\n      pop\n        /* \"#utility.yul\":218:414   */\n      swap3\n      swap2\n      pop\n      pop\n      jump\t// out\n        /* \"#utility.yul\":420:599   */\n    tag_33:\n      0x00\n        /* \"#utility.yul\":510:556   */\n      tag_35\n        /* \"#utility.yul\":552:555   */\n      dup4\n        /* \"#utility.yul\":544:550   */\n      dup4\n        /* \"#utility.yul\":510:556   */\n      tag_36\n      jump\t// in\n    tag_35:\n        /* \"#utility.yul\":588:592   */\n      0x20\n        /* \"#utility.yul\":583:586   */\n      dup4\n        /* \"#utility.yul\":579:593   */\n      add\n        /* \"#utility.yul\":565:593   */\n      swap1\n      pop\n        /* \"#utility.yul\":500:599   */\n      swap3\n      swap2\n      pop\n      pop\n      jump\t// out\n        /* \"#utility.yul\":605:713   */\n    tag_36:\n        /* \"#utility.yul\":682:706   */\n      tag_38\n        /* \"#utility.yul\":700:705   */\n      dup2\n        /* \"#utility.yul\":682:706   */\n      tag_39\n      jump\t// in\n    tag_38:\n        /* \"#utility.yul\":677:680   */\n      dup3\n        /* \"#utility.yul\":670:707   */\n      mstore\n        /* \"#utility.yul\":660:713   */\n      pop\n      pop\n      jump\t// out\n        /* \"#utility.yul\":719:837   */\n    tag_40:\n        /* \"#utility.yul\":806:830   */\n      tag_42\n        /* \"#utility.yul\":824:829   */\n      dup2\n        /* \"#utility.yul\":806:830   */\n      tag_39\n      jump\t// in\n    tag_42:\n        /* \"#utility.yul\":801:804   */\n      dup3\n        /* \"#utility.yul\":794:831   */\n      mstore\n        /* \"#utility.yul\":784:837   */\n      pop\n      pop\n      jump\t// out\n        /* \"#utility.yul\":873:1605   */\n    tag_43:\n      0x00\n        /* \"#utility.yul\":1021:1075   */\n      tag_45\n        /* \"#utility.yul\":1069:1074   */\n      dup3\n        /* \"#utility.yul\":1021:1075   */\n      tag_46\n      jump\t// in\n    tag_45:\n        /* \"#utility.yul\":1091:1177   */\n      tag_47\n        /* \"#utility.yul\":1170:1176   */\n      dup2\n        /* \"#utility.yul\":1165:1168   */\n      dup6\n        /* \"#utility.yul\":1091:1177   */\n      tag_48\n      jump\t// in\n    tag_47:\n        /* \"#utility.yul\":1084:1177   */\n      swap4\n      pop\n        /* \"#utility.yul\":1201:1257   */\n      tag_49\n        /* \"#utility.yul\":1251:1256   */\n      dup4\n        /* \"#utility.yul\":1201:1257   */\n      tag_50\n      jump\t// in\n    tag_49:\n        /* \"#utility.yul\":1280:1287   */\n      dup1\n        /* \"#utility.yul\":1311:1312   */\n      0x00\n        /* \"#utility.yul\":1296:1580   */\n    tag_51:\n        /* \"#utility.yul\":1321:1327   */\n      dup4\n        /* \"#utility.yul\":1318:1319   */\n      dup2\n        /* \"#utility.yul\":1315:1328   */\n      lt\n        /* \"#utility.yul\":1296:1580   */\n      iszero\n      tag_53\n      jumpi\n        /* \"#utility.yul\":1397:1403   */\n      dup2\n        /* \"#utility.yul\":1391:1404   */\n      mload\n        /* \"#utility.yul\":1424:1487   */\n      tag_54\n        /* \"#utility.yul\":1483:1486   */\n      dup9\n        /* \"#utility.yul\":1468:1481   */\n      dup3\n        /* \"#utility.yul\":1424:1487   */\n      tag_33\n      jump\t// in\n    tag_54:\n        /* \"#utility.yul\":1417:1487   */\n      swap8\n      pop\n        /* \"#utility.yul\":1510:1570   */\n      tag_55\n        /* \"#utility.yul\":1563:1569   */\n      dup4\n        /* \"#utility.yul\":1510:1570   */\n      tag_56\n      jump\t// in\n    tag_55:\n        /* \"#utility.yul\":1500:1570   */\n      swap3\n      pop\n        /* \"#utility.yul\":1356:1580   */\n      pop\n        /* \"#utility.yul\":1343:1344   */\n      0x01\n        /* \"#utility.yul\":1340:1341   */\n      dup2\n        /* \"#utility.yul\":1336:1345   */\n      add\n        /* \"#utility.yul\":1331:1345   */\n      swap1\n      pop\n        /* \"#utility.yul\":1296:1580   */\n      jump(tag_51)\n    tag_53:\n        /* \"#utility.yul\":1300:1314   */\n      pop\n        /* \"#utility.yul\":1596:1599   */\n      dup6\n        /* \"#utility.yul\":1589:1599   */\n      swap4\n      pop\n        /* \"#utility.yul\":997:1605   */\n      pop\n      pop\n      pop\n      swap3\n      swap2\n      pop\n      pop\n      jump\t// out\n        /* \"#utility.yul\":1611:1729   */\n    tag_57:\n        /* \"#utility.yul\":1698:1722   */\n      tag_59\n        /* \"#utility.yul\":1716:1721   */\n      dup2\n        /* \"#utility.yul\":1698:1722   */\n      tag_60\n      jump\t// in\n    tag_59:\n        /* \"#utility.yul\":1693:1696   */\n      dup3\n        /* \"#utility.yul\":1686:1723   */\n      mstore\n        /* \"#utility.yul\":1676:1729   */\n      pop\n      pop\n      jump\t// out\n        /* \"#utility.yul\":1735:1957   */\n    tag_15:\n      0x00\n        /* \"#utility.yul\":1866:1868   */\n      0x20\n        /* \"#utility.yul\":1855:1864   */\n      dup3\n        /* \"#utility.yul\":1851:1869   */\n      add\n        /* \"#utility.yul\":1843:1869   */\n      swap1\n      pop\n        /* \"#utility.yul\":1879:1950   */\n      tag_62\n        /* \"#utility.yul\":1947:1948   */\n      0x00\n        /* \"#utility.yul\":1936:1945   */\n      dup4\n        /* \"#utility.yul\":1932:1949   */\n      add\n        /* \"#utility.yul\":1923:1929   */\n      dup5\n        /* \"#utility.yul\":1879:1950   */\n      tag_40\n      jump\t// in\n    tag_62:\n        /* \"#utility.yul\":1833:1957   */\n      swap3\n      swap2\n      pop\n      pop\n      jump\t// out\n        /* \"#utility.yul\":1963:2336   */\n    tag_19:\n      0x00\n        /* \"#utility.yul\":2144:2146   */\n      0x20\n        /* \"#utility.yul\":2133:2142   */\n      dup3\n        /* \"#utility.yul\":2129:2147   */\n      add\n        /* \"#utility.yul\":2121:2147   */\n      swap1\n      pop\n        /* \"#utility.yul\":2193:2202   */\n      dup2\n        /* \"#utility.yul\":2187:2191   */\n      dup2\n        /* \"#utility.yul\":2183:2203   */\n      sub\n        /* \"#utility.yul\":2179:2180   */\n      0x00\n        /* \"#utility.yul\":2168:2177   */\n      dup4\n        /* \"#utility.yul\":2164:2181   */\n      add\n        /* \"#utility.yul\":2157:2204   */\n      mstore\n        /* \"#utility.yul\":2221:2329   */\n      tag_64\n        /* \"#utility.yul\":2324:2328   */\n      dup2\n        /* \"#utility.yul\":2315:2321   */\n      dup5\n        /* \"#utility.yul\":2221:2329   */\n      tag_43\n      jump\t// in\n    tag_64:\n        /* \"#utility.yul\":2213:2329   */\n      swap1\n      pop\n        /* \"#utility.yul\":2111:2336   */\n      swap3\n      swap2\n      pop\n      pop\n      jump\t// out\n        /* \"#utility.yul\":2342:2564   */\n    tag_9:\n      0x00\n        /* \"#utility.yul\":2473:2475   */\n      0x20\n        /* \"#utility.yul\":2462:2471   */\n      dup3\n        /* \"#utility.yul\":2458:2476   */\n      add\n        /* \"#utility.yul\":2450:2476   */\n      swap1\n      pop\n        /* \"#utility.yul\":2486:2557   */\n      tag_66\n        /* \"#utility.yul\":2554:2555   */\n      0x00\n        /* \"#utility.yul\":2543:2552   */\n      dup4\n        /* \"#utility.yul\":2539:2556   */\n      add\n        /* \"#utility.yul\":2530:2536   */\n      dup5\n        /* \"#utility.yul\":2486:2557   */\n      tag_57\n      jump\t// in\n    tag_66:\n        /* \"#utility.yul\":2440:2564   */\n      swap3\n      swap2\n      pop\n      pop\n      jump\t// out\n        /* \"#utility.yul\":2570:2702   */\n    tag_50:\n      0x00\n        /* \"#utility.yul\":2660:2663   */\n      dup2\n        /* \"#utility.yul\":2652:2663   */\n      swap1\n      pop\n        /* \"#utility.yul\":2690:2694   */\n      0x20\n        /* \"#utility.yul\":2685:2688   */\n      dup3\n        /* \"#utility.yul\":2681:2695   */\n      add\n        /* \"#utility.yul\":2673:2695   */\n      swap1\n      pop\n        /* \"#utility.yul\":2642:2702   */\n      swap2\n      swap1\n      pop\n      jump\t// out\n        /* \"#utility.yul\":2708:2822   */\n    tag_46:\n      0x00\n        /* \"#utility.yul\":2809:2814   */\n      dup2\n        /* \"#utility.yul\":2803:2815   */\n      mload\n        /* \"#utility.yul\":2793:2815   */\n      swap1\n      pop\n        /* \"#utility.yul\":2782:2822   */\n      swap2\n      swap1\n      pop\n      jump\t// out\n        /* \"#utility.yul\":2828:2941   */\n    tag_56:\n      0x00\n        /* \"#utility.yul\":2930:2934   */\n      0x20\n        /* \"#utility.yul\":2925:2928   */\n      dup3\n        /* \"#utility.yul\":2921:2935   */\n      add\n        /* \"#utility.yul\":2913:2935   */\n      swap1\n      pop\n        /* \"#utility.yul\":2903:2941   */\n      swap2\n      swap1\n      pop\n      jump\t// out\n        /* \"#utility.yul\":2947:3131   */\n    tag_48:\n      0x00\n        /* \"#utility.yul\":3080:3086   */\n      dup3\n        /* \"#utility.yul\":3075:3078   */\n      dup3\n        /* \"#utility.yul\":3068:3087   */\n      mstore\n        /* \"#utility.yul\":3120:3124   */\n      0x20\n        /* \"#utility.yul\":3115:3118   */\n      dup3\n        /* \"#utility.yul\":3111:3125   */\n      add\n        /* \"#utility.yul\":3096:3125   */\n      swap1\n      pop\n        /* \"#utility.yul\":3058:3131   */\n      swap3\n      swap2\n      pop\n      pop\n      jump\t// out\n        /* \"#utility.yul\":3137:3233   */\n    tag_39:\n      0x00\n        /* \"#utility.yul\":3203:3227   */\n      tag_72\n        /* \"#utility.yul\":3221:3226   */\n      dup3\n        /* \"#utility.yul\":3203:3227   */\n      tag_73\n      jump\t// in\n    tag_72:\n        /* \"#utility.yul\":3192:3227   */\n      swap1\n      pop\n        /* \"#utility.yul\":3182:3233   */\n      swap2\n      swap1\n      pop\n      jump\t// out\n        /* \"#utility.yul\":3239:3365   */\n    tag_73:\n      0x00\n        /* \"#utility.yul\":3316:3358   */\n      0xffffffffffffffffffffffffffffffffffffffff\n        /* \"#utility.yul\":3309:3314   */\n      dup3\n        /* \"#utility.yul\":3305:3359   */\n      and\n        /* \"#utility.yul\":3294:3359   */\n      swap1\n      pop\n        /* \"#utility.yul\":3284:3365   */\n      swap2\n      swap1\n      pop\n      jump\t// out\n        /* \"#utility.yul\":3371:3448   */\n    tag_60:\n      0x00\n        /* \"#utility.yul\":3437:3442   */\n      dup2\n        /* \"#utility.yul\":3426:3442   */\n      swap1\n      pop\n        /* \"#utility.yul\":3416:3448   */\n      swap2\n      swap1\n      pop\n      jump\t// out\n        /* \"#utility.yul\":3454:3576   */\n    tag_29:\n        /* \"#utility.yul\":3527:3551   */\n      tag_77\n        /* \"#utility.yul\":3545:3550   */\n      dup2\n        /* \"#utility.yul\":3527:3551   */\n      tag_60\n      jump\t// in\n    tag_77:\n        /* \"#utility.yul\":3520:3525   */\n      dup2\n        /* \"#utility.yul\":3517:3552   */\n      eq\n        /* \"#utility.yul\":3507:3509   */\n      tag_78\n      jumpi\n        /* \"#utility.yul\":3566:3567   */\n      0x00\n        /* \"#utility.yul\":3563:3564   */\n      dup1\n        /* \"#utility.yul\":3556:3568   */\n      revert\n        /* \"#utility.yul\":3507:3509   */\n    tag_78:\n        /* \"#utility.yul\":3497:3576   */\n      pop\n      jump\t// out\n\n    auxdata: 0xa26469706673582212207ad65645c685cd976c5aca94c10d662a46eb042ed71e662ef5e2894ad3d8baf464736f6c63430008000033\n}\n",
				"bytecode": {
					"linkReferences": {},
					"object": "608060405234801561001057600080fd5b50604051610697380380610697833981810160405281019061003291906101be565b8160009080519060200190610048929190610057565b50806001819055505050610308565b8280548282559060005260206000209081019282156100d0579160200282015b828111156100cf5782518260006101000a81548173ffffffffffffffffffffffffffffffffffffffff021916908373ffffffffffffffffffffffffffffffffffffffff16021790555091602001919060010190610077565b5b5090506100dd91906100e1565b5090565b5b808211156100fa5760008160009055506001016100e2565b5090565b600061011161010c84610243565b610212565b9050808382526020820190508285602086028201111561013057600080fd5b60005b858110156101605781610146888261016a565b845260208401935060208301925050600181019050610133565b5050509392505050565b600081519050610179816102da565b92915050565b600082601f83011261019057600080fd5b81516101a08482602086016100fe565b91505092915050565b6000815190506101b8816102f1565b92915050565b600080604083850312156101d157600080fd5b600083015167ffffffffffffffff8111156101eb57600080fd5b6101f78582860161017f565b9250506020610208858286016101a9565b9150509250929050565b6000604051905081810181811067ffffffffffffffff82111715610239576102386102ab565b5b8060405250919050565b600067ffffffffffffffff82111561025e5761025d6102ab565b5b602082029050602081019050919050565b600061027a82610281565b9050919050565b600073ffffffffffffffffffffffffffffffffffffffff82169050919050565b6000819050919050565b7f4e487b7100000000000000000000000000000000000000000000000000000000600052604160045260246000fd5b6102e38161026f565b81146102ee57600080fd5b50565b6102fa816102a1565b811461030557600080fd5b50565b610380806103176000396000f3fe608060405234801561001057600080fd5b50600436106100415760003560e01c80631703a01814610046578063d3650fb814610064578063e90af37614610094575b600080fd5b61004e6100b2565b60405161005b91906102a3565b60405180910390f35b61007e6004803603810190610079919061019a565b6100b8565b60405161008b9190610266565b60405180910390f35b61009c6100f7565b6040516100a99190610281565b60405180910390f35b60015481565b600081815481106100c857600080fd5b906000526020600020016000915054906101000a900473ffffffffffffffffffffffffffffffffffffffff1681565b6060600080548060200260200160405190810160405280929190818152602001828054801561017b57602002820191906000526020600020905b8160009054906101000a900473ffffffffffffffffffffffffffffffffffffffff1673ffffffffffffffffffffffffffffffffffffffff1681526020019060010190808311610131575b5050505050905090565b60008135905061019481610333565b92915050565b6000602082840312156101ac57600080fd5b60006101ba84828501610185565b91505092915050565b60006101cf83836101db565b60208301905092915050565b6101e4816102f7565b82525050565b6101f3816102f7565b82525050565b6000610204826102ce565b61020e81856102e6565b9350610219836102be565b8060005b8381101561024a57815161023188826101c3565b975061023c836102d9565b92505060018101905061021d565b5085935050505092915050565b61026081610329565b82525050565b600060208201905061027b60008301846101ea565b92915050565b6000602082019050818103600083015261029b81846101f9565b905092915050565b60006020820190506102b86000830184610257565b92915050565b6000819050602082019050919050565b600081519050919050565b6000602082019050919050565b600082825260208201905092915050565b600061030282610309565b9050919050565b600073ffffffffffffffffffffffffffffffffffffffff82169050919050565b6000819050919050565b61033c81610329565b811461034757600080fd5b5056fea26469706673582212207ad65645c685cd976c5aca94c10d662a46eb042ed71e662ef5e2894ad3d8baf464736f6c63430008000033",
					"opcodes": "PUSH1 0x80 PUSH1 0x40 MSTORE CALLVALUE DUP1 ISZERO PUSH2 0x10 JUMPI PUSH1 0x0 DUP1 REVERT JUMPDEST POP PUSH1 0x40 MLOAD PUSH2 0x697 CODESIZE SUB DUP1 PUSH2 0x697 DUP4 CODECOPY DUP2 DUP2 ADD PUSH1 0x40 MSTORE DUP2 ADD SWAP1 PUSH2 0x32 SWAP2 SWAP1 PUSH2 0x1BE JUMP JUMPDEST DUP2 PUSH1 0x0 SWAP1 DUP1 MLOAD SWAP1 PUSH1 0x20 ADD SWAP1 PUSH2 0x48 SWAP3 SWAP2 SWAP1 PUSH2 0x57 JUMP JUMPDEST POP DUP1 PUSH1 0x1 DUP2 SWAP1 SSTORE POP POP POP PUSH2 0x308 JUMP JUMPDEST DUP3 DUP1 SLOAD DUP3 DUP3 SSTORE SWAP1 PUSH1 0x0 MSTORE PUSH1 0x20 PUSH1 0x0 KECCAK256 SWAP1 DUP2 ADD SWAP3 DUP3 ISZERO PUSH2 0xD0 JUMPI SWAP2 PUSH1 0x20 MUL DUP3 ADD JUMPDEST DUP3 DUP2 GT ISZERO PUSH2 0xCF JUMPI DUP3 MLOAD DUP3 PUSH1 0x0 PUSH2 0x100 EXP DUP2 SLOAD DUP2 PUSH20 0xFFFFFFFFFFFFFFFFFFFFFFFFFFFFFFFFFFFFFFFF MUL NOT AND SWAP1 DUP4 PUSH20 0xFFFFFFFFFFFFFFFFFFFFFFFFFFFFFFFFFFFFFFFF AND MUL OR SWAP1 SSTORE POP SWAP2 PUSH1 0x20 ADD SWAP2 SWAP1 PUSH1 0x1 ADD SWAP1 PUSH2 0x77 JUMP JUMPDEST JUMPDEST POP SWAP1 POP PUSH2 0xDD SWAP2 SWAP1 PUSH2 0xE1 JUMP JUMPDEST POP SWAP1 JUMP JUMPDEST JUMPDEST DUP1 DUP3 GT ISZERO PUSH2 0xFA JUMPI PUSH1 0x0 DUP2 PUSH1 0x0 SWAP1 SSTORE POP PUSH1 0x1 ADD PUSH2 0xE2 JUMP JUMPDEST POP SWAP1 JUMP JUMPDEST PUSH1 0x0 PUSH2 0x111 PUSH2 0x10C DUP5 PUSH2 0x243 JUMP JUMPDEST PUSH2 0x212 JUMP JUMPDEST SWAP1 POP DUP1 DUP4 DUP3 MSTORE PUSH1 0x20 DUP3 ADD SWAP1 POP DUP3 DUP6 PUSH1 0x20 DUP7 MUL DUP3 ADD GT ISZERO PUSH2 0x130 JUMPI PUSH1 0x0 DUP1 REVERT JUMPDEST PUSH1 0x0 JUMPDEST DUP6 DUP2 LT ISZERO PUSH2 0x160 JUMPI DUP2 PUSH2 0x146 DUP9 DUP3 PUSH2 0x16A JUMP JUMPDEST DUP5 MSTORE PUSH1 0x20 DUP5 ADD SWAP4 POP PUSH1 0x20 DUP4 ADD SWAP3 POP POP PUSH1 0x1 DUP2 ADD SWAP1 POP PUSH2 0x133 JUMP JUMPDEST POP POP POP SWAP4 SWAP3 POP POP POP JUMP JUMPDEST PUSH1 0x0 DUP2 MLOAD SWAP1 POP PUSH2 0x179 DUP2 PUSH2 0x2DA JUMP JUMPDEST SWAP3 SWAP2 POP POP JUMP JUMPDEST PUSH1 0x0 DUP3 PUSH1 0x1F DUP4 ADD SLT PUSH2 0x190 JUMPI PUSH1 0x0 DUP1 REVERT JUMPDEST DUP2 MLOAD PUSH2 0x1A0 DUP5 DUP3 PUSH1 0x20 DUP7 ADD PUSH2 0xFE JUMP JUMPDEST SWAP2 POP POP SWAP3 SWAP2 POP POP JUMP JUMPDEST PUSH1 0x0 DUP2 MLOAD SWAP1 POP PUSH2 0x1B8 DUP2 PUSH2 0x2F1 JUMP JUMPDEST SWAP3 SWAP2 POP POP JUMP JUMPDEST PUSH1 0x0 DUP1 PUSH1 0x40 DUP4 DUP6 SUB SLT ISZERO PUSH2 0x1D1 JUMPI PUSH1 0x0 DUP1 REVERT JUMPDEST PUSH1 0x0 DUP4 ADD MLOAD PUSH8 0xFFFFFFFFFFFFFFFF DUP2 GT ISZERO PUSH2 0x1EB JUMPI PUSH1 0x0 DUP1 REVERT JUMPDEST PUSH2 0x1F7 DUP6 DUP3 DUP7 ADD PUSH2 0x17F JUMP JUMPDEST SWAP3 POP POP PUSH1 0x20 PUSH2 0x208 DUP6 DUP3 DUP7 ADD PUSH2 0x1A9 JUMP JUMPDEST SWAP2 POP POP SWAP3 POP SWAP3 SWAP1 POP JUMP JUMPDEST PUSH1 0x0 PUSH1 0x40 MLOAD SWAP1 POP DUP2 DUP2 ADD DUP2 DUP2 LT PUSH8 0xFFFFFFFFFFFFFFFF DUP3 GT OR ISZERO PUSH2 0x239 JUMPI PUSH2 0x238 PUSH2 0x2AB JUMP JUMPDEST JUMPDEST DUP1 PUSH1 0x40 MSTORE POP SWAP2 SWAP1 POP JUMP JUMPDEST PUSH1 0x0 PUSH8 0xFFFFFFFFFFFFFFFF DUP3 GT ISZERO PUSH2 0x25E JUMPI PUSH2 0x25D PUSH2 0x2AB JUMP JUMPDEST JUMPDEST PUSH1 0x20 DUP3 MUL SWAP1 POP PUSH1 0x20 DUP2 ADD SWAP1 POP SWAP2 SWAP1 POP JUMP JUMPDEST PUSH1 0x0 PUSH2 0x27A DUP3 PUSH2 0x281 JUMP JUMPDEST SWAP1 POP SWAP2 SWAP1 POP JUMP JUMPDEST PUSH1 0x0 PUSH20 0xFFFFFFFFFFFFFFFFFFFFFFFFFFFFFFFFFFFFFFFF DUP3 AND SWAP1 POP SWAP2 SWAP1 POP JUMP JUMPDEST PUSH1 0x0 DUP2 SWAP1 POP SWAP2 SWAP1 POP JUMP JUMPDEST PUSH32 0x4E487B7100000000000000000000000000000000000000000000000000000000 PUSH1 0x0 MSTORE PUSH1 0x41 PUSH1 0x4 MSTORE PUSH1 0x24 PUSH1 0x0 REVERT JUMPDEST PUSH2 0x2E3 DUP2 PUSH2 0x26F JUMP JUMPDEST DUP2 EQ PUSH2 0x2EE JUMPI PUSH1 0x0 DUP1 REVERT JUMPDEST POP JUMP JUMPDEST PUSH2 0x2FA DUP2 PUSH2 0x2A1 JUMP JUMPDEST DUP2 EQ PUSH2 0x305 JUMPI PUSH1 0x0 DUP1 REVERT JUMPDEST POP JUMP JUMPDEST PUSH2 0x380 DUP1 PUSH2 0x317 PUSH1 0x0 CODECOPY PUSH1 0x0 RETURN INVALID PUSH1 0x80 PUSH1 0x40 MSTORE CALLVALUE DUP1 ISZERO PUSH2 0x10 JUMPI PUSH1 0x0 DUP1 REVERT JUMPDEST POP PUSH1 0x4 CALLDATASIZE LT PUSH2 0x41 JUMPI PUSH1 0x0 CALLDATALOAD PUSH1 0xE0 SHR DUP1 PUSH4 0x1703A018 EQ PUSH2 0x46 JUMPI DUP1 PUSH4 0xD3650FB8 EQ PUSH2 0x64 JUMPI DUP1 PUSH4 0xE90AF376 EQ PUSH2 0x94 JUMPI JUMPDEST PUSH1 0x0 DUP1 REVERT JUMPDEST PUSH2 0x4E PUSH2 0xB2 JUMP JUMPDEST PUSH1 0x40 MLOAD PUSH2 0x5B SWAP2 SWAP1 PUSH2 0x2A3 JUMP JUMPDEST PUSH1 0x40 MLOAD DUP1 SWAP2 SUB SWAP1 RETURN JUMPDEST PUSH2 0x7E PUSH1 0x4 DUP1 CALLDATASIZE SUB DUP2 ADD SWAP1 PUSH2 0x79 SWAP2 SWAP1 PUSH2 0x19A JUMP JUMPDEST PUSH2 0xB8 JUMP JUMPDEST PUSH1 0x40 MLOAD PUSH2 0x8B SWAP2 SWAP1 PUSH2 0x266 JUMP JUMPDEST PUSH1 0x40 MLOAD DUP1 SWAP2 SUB SWAP1 RETURN JUMPDEST PUSH2 0x9C PUSH2 0xF7 JUMP JUMPDEST PUSH1 0x40 MLOAD PUSH2 0xA9 SWAP2 SWAP1 PUSH2 0x281 JUMP JUMPDEST PUSH1 0x40 MLOAD DUP1 SWAP2 SUB SWAP1 RETURN JUMPDEST PUSH1 0x1 SLOAD DUP2 JUMP JUMPDEST PUSH1 0x0 DUP2 DUP2 SLOAD DUP2 LT PUSH2 0xC8 JUMPI PUSH1 0x0 DUP1 REVERT JUMPDEST SWAP1 PUSH1 0x0 MSTORE PUSH1 0x20 PUSH1 0x0 KECCAK256 ADD PUSH1 0x0 SWAP2 POP SLOAD SWAP1 PUSH2 0x100 EXP SWAP1 DIV PUSH20 0xFFFFFFFFFFFFFFFFFFFFFFFFFFFFFFFFFFFFFFFF AND DUP2 JUMP JUMPDEST PUSH1 0x60 PUSH1 0x0 DUP1 SLOAD DUP1 PUSH1 0x20 MUL PUSH1 0x20 ADD PUSH1 0x40 MLOAD SWAP1 DUP2 ADD PUSH1 0x40 MSTORE DUP1 SWAP3 SWAP2 SWAP1 DUP2 DUP2 MSTORE PUSH1 0x20 ADD DUP3 DUP1 SLOAD DUP1 ISZERO PUSH2 0x17B JUMPI PUSH1 0x20 MUL DUP3 ADD SWAP2 SWAP1 PUSH1 0x0 MSTORE PUSH1 0x20 PUSH1 0x0 KECCAK256 SWAP1 JUMPDEST DUP2 PUSH1 0x0 SWAP1 SLOAD SWAP1 PUSH2 0x100 EXP SWAP1 DIV PUSH20 0xFFFFFFFFFFFFFFFFFFFFFFFFFFFFFFFFFFFFFFFF AND PUSH20 0xFFFFFFFFFFFFFFFFFFFFFFFFFFFFFFFFFFFFFFFF AND DUP2 MSTORE PUSH1 0x20 ADD SWAP1 PUSH1 0x1 ADD SWAP1 DUP1 DUP4 GT PUSH2 0x131 JUMPI JUMPDEST POP POP POP POP POP SWAP1 POP SWAP1 JUMP JUMPDEST PUSH1 0x0 DUP2 CALLDATALOAD SWAP1 POP PUSH2 0x194 DUP2 PUSH2 0x333 JUMP JUMPDEST SWAP3 SWAP2 POP POP JUMP JUMPDEST PUSH1 0x0 PUSH1 0x20 DUP3 DUP5 SUB SLT ISZERO PUSH2 0x1AC JUMPI PUSH1 0x0 DUP1 REVERT JUMPDEST PUSH1 0x0 PUSH2 0x1BA DUP5 DUP3 DUP6 ADD PUSH2 0x185 JUMP JUMPDEST SWAP2 POP POP SWAP3 SWAP2 POP POP JUMP JUMPDEST PUSH1 0x0 PUSH2 0x1CF DUP4 DUP4 PUSH2 0x1DB JUMP JUMPDEST PUSH1 0x20 DUP4 ADD SWAP1 POP SWAP3 SWAP2 POP POP JUMP JUMPDEST PUSH2 0x1E4 DUP2 PUSH2 0x2F7 JUMP JUMPDEST DUP3 MSTORE POP POP JUMP JUMPDEST PUSH2 0x1F3 DUP2 PUSH2 0x2F7 JUMP JUMPDEST DUP3 MSTORE POP POP JUMP JUMPDEST PUSH1 0x0 PUSH2 0x204 DUP3 PUSH2 0x2CE JUMP JUMPDEST PUSH2 0x20E DUP2 DUP6 PUSH2 0x2E6 JUMP JUMPDEST SWAP4 POP PUSH2 0x219 DUP4 PUSH2 0x2BE JUMP JUMPDEST DUP1 PUSH1 0x0 JUMPDEST DUP4 DUP2 LT ISZERO PUSH2 0x24A JUMPI DUP2 MLOAD PUSH2 0x231 DUP9 DUP3 PUSH2 0x1C3 JUMP JUMPDEST SWAP8 POP PUSH2 0x23C DUP4 PUSH2 0x2D9 JUMP JUMPDEST SWAP3 POP POP PUSH1 0x1 DUP2 ADD SWAP1 POP PUSH2 0x21D JUMP JUMPDEST POP DUP6 SWAP4 POP POP POP POP SWAP3 SWAP2 POP POP JUMP JUMPDEST PUSH2 0x260 DUP2 PUSH2 0x329 JUMP JUMPDEST DUP3 MSTORE POP POP JUMP JUMPDEST PUSH1 0x0 PUSH1 0x20 DUP3 ADD SWAP1 POP PUSH2 0x27B PUSH1 0x0 DUP4 ADD DUP5 PUSH2 0x1EA JUMP JUMPDEST SWAP3 SWAP2 POP POP JUMP JUMPDEST PUSH1 0x0 PUSH1 0x20 DUP3 ADD SWAP1 POP DUP2 DUP2 SUB PUSH1 0x0 DUP4 ADD MSTORE PUSH2 0x29B DUP2 DUP5 PUSH2 0x1F9 JUMP JUMPDEST SWAP1 POP SWAP3 SWAP2 POP POP JUMP JUMPDEST PUSH1 0x0 PUSH1 0x20 DUP3 ADD SWAP1 POP PUSH2 0x2B8 PUSH1 0x0 DUP4 ADD DUP5 PUSH2 0x257 JUMP JUMPDEST SWAP3 SWAP2 POP POP JUMP JUMPDEST PUSH1 0x0 DUP2 SWAP1 POP PUSH1 0x20 DUP3 ADD SWAP1 POP SWAP2 SWAP1 POP JUMP JUMPDEST PUSH1 0x0 DUP2 MLOAD SWAP1 POP SWAP2 SWAP1 POP JUMP JUMPDEST PUSH1 0x0 PUSH1 0x20 DUP3 ADD SWAP1 POP SWAP2 SWAP1 POP JUMP JUMPDEST PUSH1 0x0 DUP3 DUP3 MSTORE PUSH1 0x20 DUP3 ADD SWAP1 POP SWAP3 SWAP2 POP POP JUMP JUMPDEST PUSH1 0x0 PUSH2 0x302 DUP3 PUSH2 0x309 JUMP JUMPDEST SWAP1 POP SWAP2 SWAP1 POP JUMP JUMPDEST PUSH1 0x0 PUSH20 0xFFFFFFFFFFFFFFFFFFFFFFFFFFFFFFFFFFFFFFFF DUP3 AND SWAP1 POP SWAP2 SWAP1 POP JUMP JUMPDEST PUSH1 0x0 DUP2 SWAP1 POP SWAP2 SWAP1 POP JUMP JUMPDEST PUSH2 0x33C DUP2 PUSH2 0x329 JUMP JUMPDEST DUP2 EQ PUSH2 0x347 JUMPI PUSH1 0x0 DUP1 REVERT JUMPDEST POP JUMP INVALID LOG2 PUSH5 0x6970667358 0x22 SLT KECCAK256 PUSH27 0xD65645C685CD976C5ACA94C10D662A46EB042ED71E662EF5E2894A 0xD3 0xD8 0xBA DELEGATECALL PUSH5 0x736F6C6343 STOP ADDMOD STOP STOP CALLER "
				},
				"gasEstimates": {
					"creation": {
						"codeDepositCost": "179200",
						"executionCost": "infinite",
						"totalCost": "infinite"
					},
					"external": {
						"approvers(uint256)": "2356",
						"get_approvers()": "infinite",
						"quorum()": "1107"
					}
				},
				"methodIdentifiers": {
					"approvers(uint256)": "d3650fb8",
					"get_approvers()": "e90af376",
					"quorum()": "1703a018"
				}
			},
			"storageLayout": {
				"storage": [
					{
						"astId": 4,
						"contract": "Wallet.sol:Wallet",
						"label": "approvers",
						"offset": 0,
						"slot": "0",
						"type": "t_array(t_address)dyn_storage"
					},
					{
						"astId": 6,
						"contract": "Wallet.sol:Wallet",
						"label": "quorum",
						"offset": 0,
						"slot": "1",
						"type": "t_uint256"
					}
				],
				"types": {
					"t_address": {
						"encoding": "inplace",
						"label": "address",
						"numberOfBytes": "20"
					},
					"t_array(t_address)dyn_storage": {
						"base": "t_address",
						"encoding": "dynamic_array",
						"label": "address[]",
						"numberOfBytes": "32"
					},
					"t_uint256": {
						"encoding": "inplace",
						"label": "uint256",
						"numberOfBytes": "32"
					}
				}
			},
			"userdoc": {
				"kind": "user",
				"methods": {},
				"version": 1
			}
		}
	}
}