{
	"contracts/Dex.sol": {
		"Dex": {
			"abi": [
				{
					"inputs": [],
					"stateMutability": "nonpayable",
					"type": "constructor"
				},
				{
					"anonymous": false,
					"inputs": [
						{
							"indexed": false,
							"internalType": "uint256",
							"name": "trade_id",
							"type": "uint256"
						},
						{
							"indexed": false,
							"internalType": "uint256",
							"name": "order_id",
							"type": "uint256"
						},
						{
							"indexed": true,
							"internalType": "bytes32",
							"name": "ticker",
							"type": "bytes32"
						},
						{
							"indexed": true,
							"internalType": "address",
							"name": "trader_1",
							"type": "address"
						},
						{
							"indexed": true,
							"internalType": "address",
							"name": "trader_2",
							"type": "address"
						},
						{
							"indexed": false,
							"internalType": "uint256",
							"name": "amount",
							"type": "uint256"
						},
						{
							"indexed": false,
							"internalType": "uint256",
							"name": "price",
							"type": "uint256"
						},
						{
							"indexed": false,
							"internalType": "uint256",
							"name": "date",
							"type": "uint256"
						}
					],
					"name": "New_Trade",
					"type": "event"
				},
				{
					"inputs": [
						{
							"internalType": "bytes32",
							"name": "ticker",
							"type": "bytes32"
						},
						{
							"internalType": "address",
							"name": "token_address",
							"type": "address"
						}
					],
					"name": "add_token",
					"outputs": [],
					"stateMutability": "nonpayable",
					"type": "function"
				},
				{
					"inputs": [],
					"name": "admin",
					"outputs": [
						{
							"internalType": "address",
							"name": "",
							"type": "address"
						}
					],
					"stateMutability": "view",
					"type": "function"
				},
				{
					"inputs": [
						{
							"internalType": "bytes32",
							"name": "ticker",
							"type": "bytes32"
						},
						{
							"internalType": "uint256",
							"name": "amount",
							"type": "uint256"
						},
						{
							"internalType": "uint256",
							"name": "price",
							"type": "uint256"
						},
						{
							"internalType": "enum Dex.Side",
							"name": "side",
							"type": "uint8"
						}
					],
					"name": "create_limit_order",
					"outputs": [],
					"stateMutability": "nonpayable",
					"type": "function"
				},
				{
					"inputs": [
						{
							"internalType": "bytes32",
							"name": "ticker",
							"type": "bytes32"
						},
						{
							"internalType": "uint256",
							"name": "amount",
							"type": "uint256"
						},
						{
							"internalType": "enum Dex.Side",
							"name": "side",
							"type": "uint8"
						}
					],
					"name": "create_market_order",
					"outputs": [],
					"stateMutability": "nonpayable",
					"type": "function"
				},
				{
					"inputs": [
						{
							"internalType": "uint256",
							"name": "amount",
							"type": "uint256"
						},
						{
							"internalType": "bytes32",
							"name": "ticker",
							"type": "bytes32"
						}
					],
					"name": "deposit",
					"outputs": [],
					"stateMutability": "nonpayable",
					"type": "function"
				},
				{
					"inputs": [],
					"name": "next_order_id",
					"outputs": [
						{
							"internalType": "uint256",
							"name": "",
							"type": "uint256"
						}
					],
					"stateMutability": "view",
					"type": "function"
				},
				{
					"inputs": [],
					"name": "next_trade_id",
					"outputs": [
						{
							"internalType": "uint256",
							"name": "",
							"type": "uint256"
						}
					],
					"stateMutability": "view",
					"type": "function"
				},
				{
					"inputs": [
						{
							"internalType": "bytes32",
							"name": "",
							"type": "bytes32"
						},
						{
							"internalType": "uint256",
							"name": "",
							"type": "uint256"
						},
						{
							"internalType": "uint256",
							"name": "",
							"type": "uint256"
						}
					],
					"name": "order_book",
					"outputs": [
						{
							"internalType": "uint256",
							"name": "id",
							"type": "uint256"
						},
						{
							"internalType": "address",
							"name": "trader",
							"type": "address"
						},
						{
							"internalType": "enum Dex.Side",
							"name": "side",
							"type": "uint8"
						},
						{
							"internalType": "bytes32",
							"name": "ticker",
							"type": "bytes32"
						},
						{
							"internalType": "uint256",
							"name": "amount",
							"type": "uint256"
						},
						{
							"internalType": "uint256",
							"name": "filled",
							"type": "uint256"
						},
						{
							"internalType": "uint256",
							"name": "price",
							"type": "uint256"
						},
						{
							"internalType": "uint256",
							"name": "date",
							"type": "uint256"
						}
					],
					"stateMutability": "view",
					"type": "function"
				},
				{
					"inputs": [
						{
							"internalType": "uint256",
							"name": "",
							"type": "uint256"
						}
					],
					"name": "token_list",
					"outputs": [
						{
							"internalType": "bytes32",
							"name": "",
							"type": "bytes32"
						}
					],
					"stateMutability": "view",
					"type": "function"
				},
				{
					"inputs": [
						{
							"internalType": "bytes32",
							"name": "",
							"type": "bytes32"
						}
					],
					"name": "tokens",
					"outputs": [
						{
							"internalType": "bytes32",
							"name": "ticker",
							"type": "bytes32"
						},
						{
							"internalType": "address",
							"name": "token_address",
							"type": "address"
						}
					],
					"stateMutability": "view",
					"type": "function"
				},
				{
					"inputs": [
						{
							"internalType": "address",
							"name": "",
							"type": "address"
						},
						{
							"internalType": "bytes32",
							"name": "",
							"type": "bytes32"
						}
					],
					"name": "trader_balances",
					"outputs": [
						{
							"internalType": "uint256",
							"name": "",
							"type": "uint256"
						}
					],
					"stateMutability": "view",
					"type": "function"
				},
				{
					"inputs": [
						{
							"internalType": "uint256",
							"name": "amount",
							"type": "uint256"
						},
						{
							"internalType": "bytes32",
							"name": "ticker",
							"type": "bytes32"
						}
					],
					"name": "withdraw",
					"outputs": [],
					"stateMutability": "nonpayable",
					"type": "function"
				}
			],
			"devdoc": {
				"kind": "dev",
				"methods": {},
				"version": 1
			},
			"evm": {
				"assembly": "    /* \"contracts/Dex.sol\":173:9433  contract Dex {... */\n  mstore(0x40, 0x80)\n    /* \"contracts/Dex.sol\":1701:1788  constructor() public {... */\n  callvalue\n  dup1\n  iszero\n  tag_1\n  jumpi\n  0x00\n  dup1\n  revert\ntag_1:\n  pop\n    /* \"contracts/Dex.sol\":1771:1781  msg.sender */\n  caller\n    /* \"contracts/Dex.sol\":1763:1768  admin */\n  0x02\n  0x00\n    /* \"contracts/Dex.sol\":1763:1781  admin = msg.sender */\n  0x0100\n  exp\n  dup2\n  sload\n  dup2\n  0xffffffffffffffffffffffffffffffffffffffff\n  mul\n  not\n  and\n  swap1\n  dup4\n  0xffffffffffffffffffffffffffffffffffffffff\n  and\n  mul\n  or\n  swap1\n  sstore\n  pop\n    /* \"contracts/Dex.sol\":173:9433  contract Dex {... */\n  dataSize(sub_0)\n  dup1\n  dataOffset(sub_0)\n  0x00\n  codecopy\n  0x00\n  return\nstop\n\nsub_0: assembly {\n        /* \"contracts/Dex.sol\":173:9433  contract Dex {... */\n      mstore(0x40, 0x80)\n      callvalue\n      dup1\n      iszero\n      tag_1\n      jumpi\n      0x00\n      dup1\n      revert\n    tag_1:\n      pop\n      jumpi(tag_2, lt(calldatasize, 0x04))\n      shr(0xe0, calldataload(0x00))\n      dup1\n      0x9dd4d0c3\n      gt\n      tag_15\n      jumpi\n      dup1\n      0x9dd4d0c3\n      eq\n      tag_9\n      jumpi\n      dup1\n      0xa8d2021a\n      eq\n      tag_10\n      jumpi\n      dup1\n      0xa962846a\n      eq\n      tag_11\n      jumpi\n      dup1\n      0xb3a7e99a\n      eq\n      tag_12\n      jumpi\n      dup1\n      0xc9630cb0\n      eq\n      tag_13\n      jumpi\n      dup1\n      0xf851a440\n      eq\n      tag_14\n      jumpi\n      jump(tag_2)\n    tag_15:\n      dup1\n      0x0baaacd2\n      eq\n      tag_3\n      jumpi\n      dup1\n      0x1b66807d\n      eq\n      tag_4\n      jumpi\n      dup1\n      0x43325777\n      eq\n      tag_5\n      jumpi\n      dup1\n      0x538cad00\n      eq\n      tag_6\n      jumpi\n      dup1\n      0x63c7d8b9\n      eq\n      tag_7\n      jumpi\n      dup1\n      0x904194a3\n      eq\n      tag_8\n      jumpi\n    tag_2:\n      0x00\n      dup1\n      revert\n        /* \"contracts/Dex.sol\":1191:1256  mapping(bytes32 => mapping(uint256 => Order[])) public order_book */\n    tag_3:\n      tag_16\n      0x04\n      dup1\n      calldatasize\n      sub\n      dup2\n      add\n      swap1\n      tag_17\n      swap2\n      swap1\n      tag_18\n      jump\t// in\n    tag_17:\n      tag_19\n      jump\t// in\n    tag_16:\n      mload(0x40)\n      tag_20\n      swap9\n      swap8\n      swap7\n      swap6\n      swap5\n      swap4\n      swap3\n      swap2\n      swap1\n      tag_21\n      jump\t// in\n    tag_20:\n      mload(0x40)\n      dup1\n      swap2\n      sub\n      swap1\n      return\n        /* \"contracts/Dex.sol\":1835:2027  function add_token(bytes32 ticker, address token_address)... */\n    tag_4:\n      tag_22\n      0x04\n      dup1\n      calldatasize\n      sub\n      dup2\n      add\n      swap1\n      tag_23\n      swap2\n      swap1\n      tag_24\n      jump\t// in\n    tag_23:\n      tag_25\n      jump\t// in\n    tag_22:\n      stop\n        /* \"contracts/Dex.sol\":1296:1324  uint256 public next_trade_id */\n    tag_5:\n      tag_26\n      tag_27\n      jump\t// in\n    tag_26:\n      mload(0x40)\n      tag_28\n      swap2\n      swap1\n      tag_29\n      jump\t// in\n    tag_28:\n      mload(0x40)\n      dup1\n      swap2\n      sub\n      swap1\n      return\n        /* \"contracts/Dex.sol\":811:838  bytes32[] public token_list */\n    tag_6:\n      tag_30\n      0x04\n      dup1\n      calldatasize\n      sub\n      dup2\n      add\n      swap1\n      tag_31\n      swap2\n      swap1\n      tag_32\n      jump\t// in\n    tag_31:\n      tag_33\n      jump\t// in\n    tag_30:\n      mload(0x40)\n      tag_34\n      swap2\n      swap1\n      tag_35\n      jump\t// in\n    tag_34:\n      mload(0x40)\n      dup1\n      swap2\n      sub\n      swap1\n      return\n        /* \"contracts/Dex.sol\":5103:9041  function create_market_order(... */\n    tag_7:\n      tag_36\n      0x04\n      dup1\n      calldatasize\n      sub\n      dup2\n      add\n      swap1\n      tag_37\n      swap2\n      swap1\n      tag_38\n      jump\t// in\n    tag_37:\n      tag_39\n      jump\t// in\n    tag_36:\n      stop\n        /* \"contracts/Dex.sol\":736:775  mapping(bytes32 => Token) public tokens */\n    tag_8:\n      tag_40\n      0x04\n      dup1\n      calldatasize\n      sub\n      dup2\n      add\n      swap1\n      tag_41\n      swap2\n      swap1\n      tag_42\n      jump\t// in\n    tag_41:\n      tag_43\n      jump\t// in\n    tag_40:\n      mload(0x40)\n      tag_44\n      swap3\n      swap2\n      swap1\n      tag_45\n      jump\t// in\n    tag_44:\n      mload(0x40)\n      dup1\n      swap2\n      sub\n      swap1\n      return\n        /* \"contracts/Dex.sol\":1262:1290  uint256 public next_order_id */\n    tag_9:\n      tag_46\n      tag_47\n      jump\t// in\n    tag_46:\n      mload(0x40)\n      tag_48\n      swap2\n      swap1\n      tag_29\n      jump\t// in\n    tag_48:\n      mload(0x40)\n      dup1\n      swap2\n      sub\n      swap1\n      return\n        /* \"contracts/Dex.sol\":2629:3343  function withdraw(uint256 amount, bytes32 ticker)... */\n    tag_10:\n      tag_49\n      0x04\n      dup1\n      calldatasize\n      sub\n      dup2\n      add\n      swap1\n      tag_50\n      swap2\n      swap1\n      tag_51\n      jump\t// in\n    tag_50:\n      tag_52\n      jump\t// in\n    tag_49:\n      stop\n        /* \"contracts/Dex.sol\":912:982  mapping(address => mapping(bytes32 => uint256)) public trader_balances */\n    tag_11:\n      tag_53\n      0x04\n      dup1\n      calldatasize\n      sub\n      dup2\n      add\n      swap1\n      tag_54\n      swap2\n      swap1\n      tag_55\n      jump\t// in\n    tag_54:\n      tag_56\n      jump\t// in\n    tag_53:\n      mload(0x40)\n      tag_57\n      swap2\n      swap1\n      tag_29\n      jump\t// in\n    tag_57:\n      mload(0x40)\n      dup1\n      swap2\n      sub\n      swap1\n      return\n        /* \"contracts/Dex.sol\":3385:4941  function create_limit_order(... */\n    tag_12:\n      tag_58\n      0x04\n      dup1\n      calldatasize\n      sub\n      dup2\n      add\n      swap1\n      tag_59\n      swap2\n      swap1\n      tag_60\n      jump\t// in\n    tag_59:\n      tag_61\n      jump\t// in\n    tag_58:\n      stop\n        /* \"contracts/Dex.sol\":2074:2584  function deposit(uint256 amount, bytes32 ticker)... */\n    tag_13:\n      tag_62\n      0x04\n      dup1\n      calldatasize\n      sub\n      dup2\n      add\n      swap1\n      tag_63\n      swap2\n      swap1\n      tag_51\n      jump\t// in\n    tag_63:\n      tag_64\n      jump\t// in\n    tag_62:\n      stop\n        /* \"contracts/Dex.sol\":886:906  address public admin */\n    tag_14:\n      tag_65\n      tag_66\n      jump\t// in\n    tag_65:\n      mload(0x40)\n      tag_67\n      swap2\n      swap1\n      tag_68\n      jump\t// in\n    tag_67:\n      mload(0x40)\n      dup1\n      swap2\n      sub\n      swap1\n      return\n        /* \"contracts/Dex.sol\":1191:1256  mapping(bytes32 => mapping(uint256 => Order[])) public order_book */\n    tag_19:\n      mstore(0x20, 0x04)\n      dup3\n      0x00\n      mstore\n      mstore(0x20, keccak256(0x00, 0x40))\n      dup2\n      0x00\n      mstore\n      keccak256(0x00, 0x40)\n      dup2\n      dup2\n      sload\n      dup2\n      lt\n      tag_69\n      jumpi\n      0x00\n      dup1\n      revert\n    tag_69:\n      swap1\n      0x00\n      mstore\n      keccak256(0x00, 0x20)\n      swap1\n      0x07\n      mul\n      add\n      0x00\n      swap3\n      pop\n      swap3\n      pop\n      pop\n      pop\n      dup1\n      0x00\n      add\n      sload\n      swap1\n      dup1\n      0x01\n      add\n      0x00\n      swap1\n      sload\n      swap1\n      0x0100\n      exp\n      swap1\n      div\n      0xffffffffffffffffffffffffffffffffffffffff\n      and\n      swap1\n      dup1\n      0x01\n      add\n      0x14\n      swap1\n      sload\n      swap1\n      0x0100\n      exp\n      swap1\n      div\n      0xff\n      and\n      swap1\n      dup1\n      0x02\n      add\n      sload\n      swap1\n      dup1\n      0x03\n      add\n      sload\n      swap1\n      dup1\n      0x04\n      add\n      sload\n      swap1\n      dup1\n      0x05\n      add\n      sload\n      swap1\n      dup1\n      0x06\n      add\n      sload\n      swap1\n      pop\n      dup9\n      jump\t// out\n        /* \"contracts/Dex.sol\":1835:2027  function add_token(bytes32 ticker, address token_address)... */\n    tag_25:\n        /* \"contracts/Dex.sol\":9393:9398  admin */\n      0x02\n      0x00\n      swap1\n      sload\n      swap1\n      0x0100\n      exp\n      swap1\n      div\n      0xffffffffffffffffffffffffffffffffffffffff\n      and\n        /* \"contracts/Dex.sol\":9379:9398  msg.sender == admin */\n      0xffffffffffffffffffffffffffffffffffffffff\n      and\n        /* \"contracts/Dex.sol\":9379:9389  msg.sender */\n      caller\n        /* \"contracts/Dex.sol\":9379:9398  msg.sender == admin */\n      0xffffffffffffffffffffffffffffffffffffffff\n      and\n      eq\n        /* \"contracts/Dex.sol\":9371:9413  require(msg.sender == admin, \"Only Admin\") */\n      tag_72\n      jumpi\n      mload(0x40)\n      0x08c379a000000000000000000000000000000000000000000000000000000000\n      dup2\n      mstore\n      0x04\n      add\n      tag_73\n      swap1\n      tag_74\n      jump\t// in\n    tag_73:\n      mload(0x40)\n      dup1\n      swap2\n      sub\n      swap1\n      revert\n    tag_72:\n        /* \"contracts/Dex.sol\":1959:1987  Token(ticker, token_address) */\n      mload(0x40)\n      dup1\n      0x40\n      add\n      0x40\n      mstore\n      dup1\n        /* \"contracts/Dex.sol\":1965:1971  ticker */\n      dup4\n        /* \"contracts/Dex.sol\":1959:1987  Token(ticker, token_address) */\n      dup2\n      mstore\n      0x20\n      add\n        /* \"contracts/Dex.sol\":1973:1986  token_address */\n      dup3\n        /* \"contracts/Dex.sol\":1959:1987  Token(ticker, token_address) */\n      0xffffffffffffffffffffffffffffffffffffffff\n      and\n      dup2\n      mstore\n      pop\n        /* \"contracts/Dex.sol\":1942:1948  tokens */\n      0x00\n        /* \"contracts/Dex.sol\":1942:1956  tokens[ticker] */\n      dup1\n        /* \"contracts/Dex.sol\":1949:1955  ticker */\n      dup5\n        /* \"contracts/Dex.sol\":1942:1956  tokens[ticker] */\n      dup2\n      mstore\n      0x20\n      add\n      swap1\n      dup2\n      mstore\n      0x20\n      add\n      0x00\n      keccak256\n        /* \"contracts/Dex.sol\":1942:1987  tokens[ticker] = Token(ticker, token_address) */\n      0x00\n      dup3\n      add\n      mload\n      dup2\n      0x00\n      add\n      sstore\n      0x20\n      dup3\n      add\n      mload\n      dup2\n      0x01\n      add\n      exp(0x0100, 0x00)\n      dup2\n      sload\n      dup2\n      0xffffffffffffffffffffffffffffffffffffffff\n      mul\n      not\n      and\n      swap1\n      dup4\n      0xffffffffffffffffffffffffffffffffffffffff\n      and\n      mul\n      or\n      swap1\n      sstore\n      pop\n      swap1\n      pop\n      pop\n        /* \"contracts/Dex.sol\":1997:2007  token_list */\n      0x01\n        /* \"contracts/Dex.sol\":2013:2019  ticker */\n      dup3\n        /* \"contracts/Dex.sol\":1997:2020  token_list.push(ticker) */\n      swap1\n      dup1\n      0x01\n      dup2\n      sload\n      add\n      dup1\n      dup3\n      sstore\n      dup1\n      swap2\n      pop\n      pop\n      0x01\n      swap1\n      sub\n      swap1\n      0x00\n      mstore\n      keccak256(0x00, 0x20)\n      add\n      0x00\n      swap1\n      swap2\n      swap1\n      swap2\n      swap1\n      swap2\n      pop\n      sstore\n        /* \"contracts/Dex.sol\":1835:2027  function add_token(bytes32 ticker, address token_address)... */\n      pop\n      pop\n      jump\t// out\n        /* \"contracts/Dex.sol\":1296:1324  uint256 public next_trade_id */\n    tag_27:\n      sload(0x06)\n      dup2\n      jump\t// out\n        /* \"contracts/Dex.sol\":811:838  bytes32[] public token_list */\n    tag_33:\n      0x01\n      dup2\n      dup2\n      sload\n      dup2\n      lt\n      tag_77\n      jumpi\n      0x00\n      dup1\n      revert\n    tag_77:\n      swap1\n      0x00\n      mstore\n      keccak256(0x00, 0x20)\n      add\n      0x00\n      swap2\n      pop\n      swap1\n      pop\n      sload\n      dup2\n      jump\t// out\n        /* \"contracts/Dex.sol\":5103:9041  function create_market_order(... */\n    tag_39:\n        /* \"contracts/Dex.sol\":5225:5231  ticker */\n      dup3\n        /* \"contracts/Dex.sol\":9269:9270  0 */\n      0x00\n        /* \"contracts/Dex.sol\":9229:9271  tokens[ticker].token_address != address(0) */\n      0xffffffffffffffffffffffffffffffffffffffff\n      and\n        /* \"contracts/Dex.sol\":9229:9235  tokens */\n      0x00\n        /* \"contracts/Dex.sol\":9229:9243  tokens[ticker] */\n      dup1\n        /* \"contracts/Dex.sol\":9236:9242  ticker */\n      dup4\n        /* \"contracts/Dex.sol\":9229:9243  tokens[ticker] */\n      dup2\n      mstore\n      0x20\n      add\n      swap1\n      dup2\n      mstore\n      0x20\n      add\n      0x00\n      keccak256\n        /* \"contracts/Dex.sol\":9229:9257  tokens[ticker].token_address */\n      0x01\n      add\n      0x00\n      swap1\n      sload\n      swap1\n      0x0100\n      exp\n      swap1\n      div\n      0xffffffffffffffffffffffffffffffffffffffff\n      and\n        /* \"contracts/Dex.sol\":9229:9271  tokens[ticker].token_address != address(0) */\n      0xffffffffffffffffffffffffffffffffffffffff\n      and\n      eq\n      iszero\n        /* \"contracts/Dex.sol\":9208:9316  require(... */\n      tag_80\n      jumpi\n      mload(0x40)\n      0x08c379a000000000000000000000000000000000000000000000000000000000\n      dup2\n      mstore\n      0x04\n      add\n      tag_81\n      swap1\n      tag_82\n      jump\t// in\n    tag_81:\n      mload(0x40)\n      dup1\n      swap2\n      sub\n      swap1\n      revert\n    tag_80:\n        /* \"contracts/Dex.sol\":5247:5253  ticker */\n      dup4\n        /* \"contracts/Dex.sol\":1353:1367  bytes32(\"DAI\") */\n      0x4441490000000000000000000000000000000000000000000000000000000000\n        /* \"contracts/Dex.sol\":9104:9110  ticker */\n      dup2\n        /* \"contracts/Dex.sol\":9104:9117  ticker != DAI */\n      eq\n      iszero\n        /* \"contracts/Dex.sol\":9096:9138  require(ticker != DAI, \"Cannot trade DAI\") */\n      tag_84\n      jumpi\n      mload(0x40)\n      0x08c379a000000000000000000000000000000000000000000000000000000000\n      dup2\n      mstore\n      0x04\n      add\n      tag_85\n      swap1\n      tag_86\n      jump\t// in\n    tag_85:\n      mload(0x40)\n      dup1\n      swap2\n      sub\n      swap1\n      revert\n    tag_84:\n        /* \"contracts/Dex.sol\":5322:5331  Side.SELL */\n      0x01\n        /* \"contracts/Dex.sol\":5314:5331  side == Side.SELL */\n      dup1\n      dup2\n      gt\n      iszero\n      tag_88\n      jumpi\n      mstore(0x00, 0x4e487b7100000000000000000000000000000000000000000000000000000000)\n      mstore(0x04, 0x21)\n      revert(0x00, 0x24)\n    tag_88:\n        /* \"contracts/Dex.sol\":5314:5318  side */\n      dup4\n        /* \"contracts/Dex.sol\":5314:5331  side == Side.SELL */\n      0x01\n      dup2\n      gt\n      iszero\n      tag_89\n      jumpi\n      mstore(0x00, 0x4e487b7100000000000000000000000000000000000000000000000000000000)\n      mstore(0x04, 0x21)\n      revert(0x00, 0x24)\n    tag_89:\n      eq\n        /* \"contracts/Dex.sol\":5310:5482  if (side == Side.SELL) {... */\n      iszero\n      tag_90\n      jumpi\n        /* \"contracts/Dex.sol\":5411:5417  amount */\n      dup4\n        /* \"contracts/Dex.sol\":5372:5387  trader_balances */\n      0x03\n        /* \"contracts/Dex.sol\":5372:5399  trader_balances[msg.sender] */\n      0x00\n        /* \"contracts/Dex.sol\":5388:5398  msg.sender */\n      caller\n        /* \"contracts/Dex.sol\":5372:5399  trader_balances[msg.sender] */\n      0xffffffffffffffffffffffffffffffffffffffff\n      and\n      0xffffffffffffffffffffffffffffffffffffffff\n      and\n      dup2\n      mstore\n      0x20\n      add\n      swap1\n      dup2\n      mstore\n      0x20\n      add\n      0x00\n      keccak256\n        /* \"contracts/Dex.sol\":5372:5407  trader_balances[msg.sender][ticker] */\n      0x00\n        /* \"contracts/Dex.sol\":5400:5406  ticker */\n      dup8\n        /* \"contracts/Dex.sol\":5372:5407  trader_balances[msg.sender][ticker] */\n      dup2\n      mstore\n      0x20\n      add\n      swap1\n      dup2\n      mstore\n      0x20\n      add\n      0x00\n      keccak256\n      sload\n        /* \"contracts/Dex.sol\":5372:5417  trader_balances[msg.sender][ticker] >= amount */\n      lt\n      iszero\n        /* \"contracts/Dex.sol\":5347:5471  require(... */\n      tag_91\n      jumpi\n      mload(0x40)\n      0x08c379a000000000000000000000000000000000000000000000000000000000\n      dup2\n      mstore\n      0x04\n      add\n      tag_92\n      swap1\n      tag_93\n      jump\t// in\n    tag_92:\n      mload(0x40)\n      dup1\n      swap2\n      sub\n      swap1\n      revert\n    tag_91:\n        /* \"contracts/Dex.sol\":5310:5482  if (side == Side.SELL) {... */\n    tag_90:\n        /* \"contracts/Dex.sol\":5567:5589  Order[] storage orders */\n      0x00\n        /* \"contracts/Dex.sol\":5592:5602  order_book */\n      0x04\n        /* \"contracts/Dex.sol\":5592:5610  order_book[ticker] */\n      0x00\n        /* \"contracts/Dex.sol\":5603:5609  ticker */\n      dup8\n        /* \"contracts/Dex.sol\":5592:5610  order_book[ticker] */\n      dup2\n      mstore\n      0x20\n      add\n      swap1\n      dup2\n      mstore\n      0x20\n      add\n      0x00\n      keccak256\n        /* \"contracts/Dex.sol\":5592:5682  order_book[ticker][... */\n      0x00\n        /* \"contracts/Dex.sol\":5640:5648  Side.BUY */\n      dup1\n        /* \"contracts/Dex.sol\":5632:5648  side == Side.BUY */\n      0x01\n      dup2\n      gt\n      iszero\n      tag_94\n      jumpi\n      mstore(0x00, 0x4e487b7100000000000000000000000000000000000000000000000000000000)\n      mstore(0x04, 0x21)\n      revert(0x00, 0x24)\n    tag_94:\n        /* \"contracts/Dex.sol\":5632:5636  side */\n      dup7\n        /* \"contracts/Dex.sol\":5632:5648  side == Side.BUY */\n      0x01\n      dup2\n      gt\n      iszero\n      tag_95\n      jumpi\n      mstore(0x00, 0x4e487b7100000000000000000000000000000000000000000000000000000000)\n      mstore(0x04, 0x21)\n      revert(0x00, 0x24)\n    tag_95:\n      eq\n        /* \"contracts/Dex.sol\":5632:5671  side == Side.BUY ? Side.SELL : Side.BUY */\n      tag_96\n      jumpi\n        /* \"contracts/Dex.sol\":5663:5671  Side.BUY */\n      0x00\n        /* \"contracts/Dex.sol\":5632:5671  side == Side.BUY ? Side.SELL : Side.BUY */\n      jump(tag_97)\n    tag_96:\n        /* \"contracts/Dex.sol\":5651:5660  Side.SELL */\n      0x01\n        /* \"contracts/Dex.sol\":5632:5671  side == Side.BUY ? Side.SELL : Side.BUY */\n    tag_97:\n        /* \"contracts/Dex.sol\":5624:5672  uint256(side == Side.BUY ? Side.SELL : Side.BUY) */\n      0x01\n      dup2\n      gt\n      iszero\n      tag_98\n      jumpi\n      mstore(0x00, 0x4e487b7100000000000000000000000000000000000000000000000000000000)\n      mstore(0x04, 0x21)\n      revert(0x00, 0x24)\n    tag_98:\n        /* \"contracts/Dex.sol\":5592:5682  order_book[ticker][... */\n      dup2\n      mstore\n      0x20\n      add\n      swap1\n      dup2\n      mstore\n      0x20\n      add\n      0x00\n      keccak256\n        /* \"contracts/Dex.sol\":5567:5682  Order[] storage orders = order_book[ticker][... */\n      swap1\n      pop\n        /* \"contracts/Dex.sol\":5692:5701  uint256 i */\n      0x00\n        /* \"contracts/Dex.sol\":5711:5728  uint256 remaining */\n      dup1\n        /* \"contracts/Dex.sol\":5731:5737  amount */\n      dup7\n        /* \"contracts/Dex.sol\":5711:5737  uint256 remaining = amount */\n      swap1\n      pop\n        /* \"contracts/Dex.sol\":5877:8691  while (i < orders.length && remaining > 0) {... */\n    tag_99:\n        /* \"contracts/Dex.sol\":5888:5894  orders */\n      dup3\n        /* \"contracts/Dex.sol\":5888:5901  orders.length */\n      dup1\n      sload\n      swap1\n      pop\n        /* \"contracts/Dex.sol\":5884:5885  i */\n      dup3\n        /* \"contracts/Dex.sol\":5884:5901  i < orders.length */\n      lt\n        /* \"contracts/Dex.sol\":5884:5918  i < orders.length && remaining > 0 */\n      dup1\n      iszero\n      tag_101\n      jumpi\n      pop\n        /* \"contracts/Dex.sol\":5917:5918  0 */\n      0x00\n        /* \"contracts/Dex.sol\":5905:5914  remaining */\n      dup2\n        /* \"contracts/Dex.sol\":5905:5918  remaining > 0 */\n      gt\n        /* \"contracts/Dex.sol\":5884:5918  i < orders.length && remaining > 0 */\n    tag_101:\n        /* \"contracts/Dex.sol\":5877:8691  while (i < orders.length && remaining > 0) {... */\n      iszero\n      tag_100\n      jumpi\n        /* \"contracts/Dex.sol\":6013:6030  uint256 available */\n      0x00\n        /* \"contracts/Dex.sol\":6033:6071  orders[i].amount.sub(orders[i].filled) */\n      tag_102\n        /* \"contracts/Dex.sol\":6054:6060  orders */\n      dup5\n        /* \"contracts/Dex.sol\":6061:6062  i */\n      dup5\n        /* \"contracts/Dex.sol\":6054:6063  orders[i] */\n      dup2\n      sload\n      dup2\n      lt\n      tag_103\n      jumpi\n      mstore(0x00, 0x4e487b7100000000000000000000000000000000000000000000000000000000)\n      mstore(0x04, 0x32)\n      revert(0x00, 0x24)\n    tag_103:\n      swap1\n      0x00\n      mstore\n      keccak256(0x00, 0x20)\n      swap1\n      0x07\n      mul\n      add\n        /* \"contracts/Dex.sol\":6054:6070  orders[i].filled */\n      0x04\n      add\n      sload\n        /* \"contracts/Dex.sol\":6033:6039  orders */\n      dup6\n        /* \"contracts/Dex.sol\":6040:6041  i */\n      dup6\n        /* \"contracts/Dex.sol\":6033:6042  orders[i] */\n      dup2\n      sload\n      dup2\n      lt\n      tag_105\n      jumpi\n      mstore(0x00, 0x4e487b7100000000000000000000000000000000000000000000000000000000)\n      mstore(0x04, 0x32)\n      revert(0x00, 0x24)\n    tag_105:\n      swap1\n      0x00\n      mstore\n      keccak256(0x00, 0x20)\n      swap1\n      0x07\n      mul\n      add\n        /* \"contracts/Dex.sol\":6033:6049  orders[i].amount */\n      0x03\n      add\n      sload\n        /* \"contracts/Dex.sol\":6033:6053  orders[i].amount.sub */\n      tag_107\n      swap1\n        /* \"contracts/Dex.sol\":6033:6071  orders[i].amount.sub(orders[i].filled) */\n      swap2\n      swap1\n      0xffffffff\n      and\n      jump\t// in\n    tag_102:\n        /* \"contracts/Dex.sol\":6013:6071  uint256 available = orders[i].amount.sub(orders[i].filled) */\n      swap1\n      pop\n        /* \"contracts/Dex.sol\":6385:6400  uint256 matched */\n      0x00\n        /* \"contracts/Dex.sol\":6416:6425  available */\n      dup2\n        /* \"contracts/Dex.sol\":6404:6413  remaining */\n      dup4\n        /* \"contracts/Dex.sol\":6404:6425  remaining > available */\n      gt\n        /* \"contracts/Dex.sol\":6403:6450  (remaining > available) ? available : remaining */\n      tag_108\n      jumpi\n        /* \"contracts/Dex.sol\":6441:6450  remaining */\n      dup3\n        /* \"contracts/Dex.sol\":6403:6450  (remaining > available) ? available : remaining */\n      jump(tag_109)\n    tag_108:\n        /* \"contracts/Dex.sol\":6429:6438  available */\n      dup2\n        /* \"contracts/Dex.sol\":6403:6450  (remaining > available) ? available : remaining */\n    tag_109:\n        /* \"contracts/Dex.sol\":6385:6450  uint256 matched = (remaining > available) ? available : remaining */\n      swap1\n      pop\n        /* \"contracts/Dex.sol\":6476:6498  remaining.sub(matched) */\n      tag_110\n        /* \"contracts/Dex.sol\":6490:6497  matched */\n      dup2\n        /* \"contracts/Dex.sol\":6476:6485  remaining */\n      dup5\n        /* \"contracts/Dex.sol\":6476:6489  remaining.sub */\n      tag_107\n      swap1\n        /* \"contracts/Dex.sol\":6476:6498  remaining.sub(matched) */\n      swap2\n      swap1\n      0xffffffff\n      and\n      jump\t// in\n    tag_110:\n        /* \"contracts/Dex.sol\":6464:6498  remaining = remaining.sub(matched) */\n      swap3\n      pop\n        /* \"contracts/Dex.sol\":6531:6560  orders[i].filled.add(matched) */\n      tag_111\n        /* \"contracts/Dex.sol\":6552:6559  matched */\n      dup2\n        /* \"contracts/Dex.sol\":6531:6537  orders */\n      dup7\n        /* \"contracts/Dex.sol\":6538:6539  i */\n      dup7\n        /* \"contracts/Dex.sol\":6531:6540  orders[i] */\n      dup2\n      sload\n      dup2\n      lt\n      tag_112\n      jumpi\n      mstore(0x00, 0x4e487b7100000000000000000000000000000000000000000000000000000000)\n      mstore(0x04, 0x32)\n      revert(0x00, 0x24)\n    tag_112:\n      swap1\n      0x00\n      mstore\n      keccak256(0x00, 0x20)\n      swap1\n      0x07\n      mul\n      add\n        /* \"contracts/Dex.sol\":6531:6547  orders[i].filled */\n      0x04\n      add\n      sload\n        /* \"contracts/Dex.sol\":6531:6551  orders[i].filled.add */\n      tag_114\n      swap1\n        /* \"contracts/Dex.sol\":6531:6560  orders[i].filled.add(matched) */\n      swap2\n      swap1\n      0xffffffff\n      and\n      jump\t// in\n    tag_111:\n        /* \"contracts/Dex.sol\":6512:6518  orders */\n      dup6\n        /* \"contracts/Dex.sol\":6519:6520  i */\n      dup6\n        /* \"contracts/Dex.sol\":6512:6521  orders[i] */\n      dup2\n      sload\n      dup2\n      lt\n      tag_115\n      jumpi\n      mstore(0x00, 0x4e487b7100000000000000000000000000000000000000000000000000000000)\n      mstore(0x04, 0x32)\n      revert(0x00, 0x24)\n    tag_115:\n      swap1\n      0x00\n      mstore\n      keccak256(0x00, 0x20)\n      swap1\n      0x07\n      mul\n      add\n        /* \"contracts/Dex.sol\":6512:6528  orders[i].filled */\n      0x04\n      add\n        /* \"contracts/Dex.sol\":6512:6560  orders[i].filled = orders[i].filled.add(matched) */\n      dup2\n      swap1\n      sstore\n      pop\n        /* \"contracts/Dex.sol\":6725:6735  msg.sender */\n      caller\n        /* \"contracts/Dex.sol\":6579:6840  New_Trade(... */\n      0xffffffffffffffffffffffffffffffffffffffff\n      and\n        /* \"contracts/Dex.sol\":6691:6697  orders */\n      dup6\n        /* \"contracts/Dex.sol\":6698:6699  i */\n      dup6\n        /* \"contracts/Dex.sol\":6691:6700  orders[i] */\n      dup2\n      sload\n      dup2\n      lt\n      tag_117\n      jumpi\n      mstore(0x00, 0x4e487b7100000000000000000000000000000000000000000000000000000000)\n      mstore(0x04, 0x32)\n      revert(0x00, 0x24)\n    tag_117:\n      swap1\n      0x00\n      mstore\n      keccak256(0x00, 0x20)\n      swap1\n      0x07\n      mul\n      add\n        /* \"contracts/Dex.sol\":6691:6707  orders[i].trader */\n      0x01\n      add\n      0x00\n      swap1\n      sload\n      swap1\n      0x0100\n      exp\n      swap1\n      div\n      0xffffffffffffffffffffffffffffffffffffffff\n      and\n        /* \"contracts/Dex.sol\":6579:6840  New_Trade(... */\n      0xffffffffffffffffffffffffffffffffffffffff\n      and\n        /* \"contracts/Dex.sol\":6667:6673  ticker */\n      dup12\n        /* \"contracts/Dex.sol\":6579:6840  New_Trade(... */\n      0x039b691695d8fd269061c85732e747f77e54b8a2ca27230e8d8b17141ef069e5\n        /* \"contracts/Dex.sol\":6606:6619  next_trade_id */\n      sload(0x06)\n        /* \"contracts/Dex.sol\":6637:6643  orders */\n      dup10\n        /* \"contracts/Dex.sol\":6644:6645  i */\n      dup10\n        /* \"contracts/Dex.sol\":6637:6646  orders[i] */\n      dup2\n      sload\n      dup2\n      lt\n      tag_119\n      jumpi\n      mstore(0x00, 0x4e487b7100000000000000000000000000000000000000000000000000000000)\n      mstore(0x04, 0x32)\n      revert(0x00, 0x24)\n    tag_119:\n      swap1\n      0x00\n      mstore\n      keccak256(0x00, 0x20)\n      swap1\n      0x07\n      mul\n      add\n        /* \"contracts/Dex.sol\":6637:6649  orders[i].id */\n      0x00\n      add\n      sload\n        /* \"contracts/Dex.sol\":6753:6760  matched */\n      dup7\n        /* \"contracts/Dex.sol\":6778:6784  orders */\n      dup12\n        /* \"contracts/Dex.sol\":6785:6786  i */\n      dup12\n        /* \"contracts/Dex.sol\":6778:6787  orders[i] */\n      dup2\n      sload\n      dup2\n      lt\n      tag_121\n      jumpi\n      mstore(0x00, 0x4e487b7100000000000000000000000000000000000000000000000000000000)\n      mstore(0x04, 0x32)\n      revert(0x00, 0x24)\n    tag_121:\n      swap1\n      0x00\n      mstore\n      keccak256(0x00, 0x20)\n      swap1\n      0x07\n      mul\n      add\n        /* \"contracts/Dex.sol\":6778:6793  orders[i].price */\n      0x05\n      add\n      sload\n        /* \"contracts/Dex.sol\":6811:6826  block.timestamp */\n      timestamp\n        /* \"contracts/Dex.sol\":6579:6840  New_Trade(... */\n      mload(0x40)\n      tag_123\n      swap6\n      swap5\n      swap4\n      swap3\n      swap2\n      swap1\n      tag_124\n      jump\t// in\n    tag_123:\n      mload(0x40)\n      dup1\n      swap2\n      sub\n      swap1\n      log4\n        /* \"contracts/Dex.sol\":6866:6875  Side.SELL */\n      0x01\n        /* \"contracts/Dex.sol\":6858:6875  side == Side.SELL */\n      dup1\n      dup2\n      gt\n      iszero\n      tag_125\n      jumpi\n      mstore(0x00, 0x4e487b7100000000000000000000000000000000000000000000000000000000)\n      mstore(0x04, 0x21)\n      revert(0x00, 0x24)\n    tag_125:\n        /* \"contracts/Dex.sol\":6858:6862  side */\n      dup9\n        /* \"contracts/Dex.sol\":6858:6875  side == Side.SELL */\n      0x01\n      dup2\n      gt\n      iszero\n      tag_126\n      jumpi\n      mstore(0x00, 0x4e487b7100000000000000000000000000000000000000000000000000000000)\n      mstore(0x04, 0x21)\n      revert(0x00, 0x24)\n    tag_126:\n      eq\n        /* \"contracts/Dex.sol\":6854:7735  if (side == Side.SELL) {... */\n      iszero\n      tag_127\n      jumpi\n        /* \"contracts/Dex.sol\":7011:7097  trader_balances[... */\n      tag_128\n        /* \"contracts/Dex.sol\":7089:7096  matched */\n      dup2\n        /* \"contracts/Dex.sol\":7011:7026  trader_balances */\n      0x03\n        /* \"contracts/Dex.sol\":7011:7076  trader_balances[... */\n      0x00\n        /* \"contracts/Dex.sol\":7048:7058  msg.sender */\n      caller\n        /* \"contracts/Dex.sol\":7011:7076  trader_balances[... */\n      0xffffffffffffffffffffffffffffffffffffffff\n      and\n      0xffffffffffffffffffffffffffffffffffffffff\n      and\n      dup2\n      mstore\n      0x20\n      add\n      swap1\n      dup2\n      mstore\n      0x20\n      add\n      0x00\n      keccak256\n        /* \"contracts/Dex.sol\":7011:7084  trader_balances[... */\n      0x00\n        /* \"contracts/Dex.sol\":7077:7083  ticker */\n      dup14\n        /* \"contracts/Dex.sol\":7011:7084  trader_balances[... */\n      dup2\n      mstore\n      0x20\n      add\n      swap1\n      dup2\n      mstore\n      0x20\n      add\n      0x00\n      keccak256\n      sload\n        /* \"contracts/Dex.sol\":7011:7088  trader_balances[... */\n      tag_107\n      swap1\n        /* \"contracts/Dex.sol\":7011:7097  trader_balances[... */\n      swap2\n      swap1\n      0xffffffff\n      and\n      jump\t// in\n    tag_128:\n        /* \"contracts/Dex.sol\":6973:6988  trader_balances */\n      0x03\n        /* \"contracts/Dex.sol\":6973:7000  trader_balances[msg.sender] */\n      0x00\n        /* \"contracts/Dex.sol\":6989:6999  msg.sender */\n      caller\n        /* \"contracts/Dex.sol\":6973:7000  trader_balances[msg.sender] */\n      0xffffffffffffffffffffffffffffffffffffffff\n      and\n      0xffffffffffffffffffffffffffffffffffffffff\n      and\n      dup2\n      mstore\n      0x20\n      add\n      swap1\n      dup2\n      mstore\n      0x20\n      add\n      0x00\n      keccak256\n        /* \"contracts/Dex.sol\":6973:7008  trader_balances[msg.sender][ticker] */\n      0x00\n        /* \"contracts/Dex.sol\":7001:7007  ticker */\n      dup13\n        /* \"contracts/Dex.sol\":6973:7008  trader_balances[msg.sender][ticker] */\n      dup2\n      mstore\n      0x20\n      add\n      swap1\n      dup2\n      mstore\n      0x20\n      add\n      0x00\n      keccak256\n        /* \"contracts/Dex.sol\":6973:7097  trader_balances[msg.sender][ticker] = trader_balances[... */\n      dup2\n      swap1\n      sstore\n      pop\n        /* \"contracts/Dex.sol\":7205:7309  trader_balances[msg.sender][... */\n      tag_129\n        /* \"contracts/Dex.sol\":7280:7308  matched.mul(orders[i].price) */\n      tag_130\n        /* \"contracts/Dex.sol\":7292:7298  orders */\n      dup7\n        /* \"contracts/Dex.sol\":7299:7300  i */\n      dup7\n        /* \"contracts/Dex.sol\":7292:7301  orders[i] */\n      dup2\n      sload\n      dup2\n      lt\n      tag_131\n      jumpi\n      mstore(0x00, 0x4e487b7100000000000000000000000000000000000000000000000000000000)\n      mstore(0x04, 0x32)\n      revert(0x00, 0x24)\n    tag_131:\n      swap1\n      0x00\n      mstore\n      keccak256(0x00, 0x20)\n      swap1\n      0x07\n      mul\n      add\n        /* \"contracts/Dex.sol\":7292:7307  orders[i].price */\n      0x05\n      add\n      sload\n        /* \"contracts/Dex.sol\":7280:7287  matched */\n      dup4\n        /* \"contracts/Dex.sol\":7280:7291  matched.mul */\n      tag_133\n      swap1\n        /* \"contracts/Dex.sol\":7280:7308  matched.mul(orders[i].price) */\n      swap2\n      swap1\n      0xffffffff\n      and\n      jump\t// in\n    tag_130:\n        /* \"contracts/Dex.sol\":7205:7220  trader_balances */\n      0x03\n        /* \"contracts/Dex.sol\":7205:7232  trader_balances[msg.sender] */\n      0x00\n        /* \"contracts/Dex.sol\":7221:7231  msg.sender */\n      caller\n        /* \"contracts/Dex.sol\":7205:7232  trader_balances[msg.sender] */\n      0xffffffffffffffffffffffffffffffffffffffff\n      and\n      0xffffffffffffffffffffffffffffffffffffffff\n      and\n      dup2\n      mstore\n      0x20\n      add\n      swap1\n      dup2\n      mstore\n      0x20\n      add\n      0x00\n      keccak256\n        /* \"contracts/Dex.sol\":7205:7275  trader_balances[msg.sender][... */\n      0x00\n        /* \"contracts/Dex.sol\":1353:1367  bytes32(\"DAI\") */\n      0x4441490000000000000000000000000000000000000000000000000000000000\n        /* \"contracts/Dex.sol\":7205:7275  trader_balances[msg.sender][... */\n      dup2\n      mstore\n      0x20\n      add\n      swap1\n      dup2\n      mstore\n      0x20\n      add\n      0x00\n      keccak256\n      sload\n        /* \"contracts/Dex.sol\":7205:7279  trader_balances[msg.sender][... */\n      tag_114\n      swap1\n        /* \"contracts/Dex.sol\":7205:7309  trader_balances[msg.sender][... */\n      swap2\n      swap1\n      0xffffffff\n      and\n      jump\t// in\n    tag_129:\n        /* \"contracts/Dex.sol\":7170:7185  trader_balances */\n      0x03\n        /* \"contracts/Dex.sol\":7170:7197  trader_balances[msg.sender] */\n      0x00\n        /* \"contracts/Dex.sol\":7186:7196  msg.sender */\n      caller\n        /* \"contracts/Dex.sol\":7170:7197  trader_balances[msg.sender] */\n      0xffffffffffffffffffffffffffffffffffffffff\n      and\n      0xffffffffffffffffffffffffffffffffffffffff\n      and\n      dup2\n      mstore\n      0x20\n      add\n      swap1\n      dup2\n      mstore\n      0x20\n      add\n      0x00\n      keccak256\n        /* \"contracts/Dex.sol\":7170:7202  trader_balances[msg.sender][DAI] */\n      0x00\n        /* \"contracts/Dex.sol\":1353:1367  bytes32(\"DAI\") */\n      0x4441490000000000000000000000000000000000000000000000000000000000\n        /* \"contracts/Dex.sol\":7170:7202  trader_balances[msg.sender][DAI] */\n      dup2\n      mstore\n      0x20\n      add\n      swap1\n      dup2\n      mstore\n      0x20\n      add\n      0x00\n      keccak256\n        /* \"contracts/Dex.sol\":7170:7309  trader_balances[msg.sender][DAI] = trader_balances[msg.sender][... */\n      dup2\n      swap1\n      sstore\n      pop\n        /* \"contracts/Dex.sol\":7459:7551  trader_balances[... */\n      tag_134\n        /* \"contracts/Dex.sol\":7543:7550  matched */\n      dup2\n        /* \"contracts/Dex.sol\":7459:7474  trader_balances */\n      0x03\n        /* \"contracts/Dex.sol\":7459:7530  trader_balances[... */\n      0x00\n        /* \"contracts/Dex.sol\":7496:7502  orders */\n      dup9\n        /* \"contracts/Dex.sol\":7503:7504  i */\n      dup9\n        /* \"contracts/Dex.sol\":7496:7505  orders[i] */\n      dup2\n      sload\n      dup2\n      lt\n      tag_135\n      jumpi\n      mstore(0x00, 0x4e487b7100000000000000000000000000000000000000000000000000000000)\n      mstore(0x04, 0x32)\n      revert(0x00, 0x24)\n    tag_135:\n      swap1\n      0x00\n      mstore\n      keccak256(0x00, 0x20)\n      swap1\n      0x07\n      mul\n      add\n        /* \"contracts/Dex.sol\":7496:7512  orders[i].trader */\n      0x01\n      add\n      0x00\n      swap1\n      sload\n      swap1\n      0x0100\n      exp\n      swap1\n      div\n      0xffffffffffffffffffffffffffffffffffffffff\n      and\n        /* \"contracts/Dex.sol\":7459:7530  trader_balances[... */\n      0xffffffffffffffffffffffffffffffffffffffff\n      and\n      0xffffffffffffffffffffffffffffffffffffffff\n      and\n      dup2\n      mstore\n      0x20\n      add\n      swap1\n      dup2\n      mstore\n      0x20\n      add\n      0x00\n      keccak256\n        /* \"contracts/Dex.sol\":7459:7538  trader_balances[... */\n      0x00\n        /* \"contracts/Dex.sol\":7531:7537  ticker */\n      dup14\n        /* \"contracts/Dex.sol\":7459:7538  trader_balances[... */\n      dup2\n      mstore\n      0x20\n      add\n      swap1\n      dup2\n      mstore\n      0x20\n      add\n      0x00\n      keccak256\n      sload\n        /* \"contracts/Dex.sol\":7459:7542  trader_balances[... */\n      tag_114\n      swap1\n        /* \"contracts/Dex.sol\":7459:7551  trader_balances[... */\n      swap2\n      swap1\n      0xffffffff\n      and\n      jump\t// in\n    tag_134:\n        /* \"contracts/Dex.sol\":7415:7430  trader_balances */\n      0x03\n        /* \"contracts/Dex.sol\":7415:7448  trader_balances[orders[i].trader] */\n      0x00\n        /* \"contracts/Dex.sol\":7431:7437  orders */\n      dup8\n        /* \"contracts/Dex.sol\":7438:7439  i */\n      dup8\n        /* \"contracts/Dex.sol\":7431:7440  orders[i] */\n      dup2\n      sload\n      dup2\n      lt\n      tag_137\n      jumpi\n      mstore(0x00, 0x4e487b7100000000000000000000000000000000000000000000000000000000)\n      mstore(0x04, 0x32)\n      revert(0x00, 0x24)\n    tag_137:\n      swap1\n      0x00\n      mstore\n      keccak256(0x00, 0x20)\n      swap1\n      0x07\n      mul\n      add\n        /* \"contracts/Dex.sol\":7431:7447  orders[i].trader */\n      0x01\n      add\n      0x00\n      swap1\n      sload\n      swap1\n      0x0100\n      exp\n      swap1\n      div\n      0xffffffffffffffffffffffffffffffffffffffff\n      and\n        /* \"contracts/Dex.sol\":7415:7448  trader_balances[orders[i].trader] */\n      0xffffffffffffffffffffffffffffffffffffffff\n      and\n      0xffffffffffffffffffffffffffffffffffffffff\n      and\n      dup2\n      mstore\n      0x20\n      add\n      swap1\n      dup2\n      mstore\n      0x20\n      add\n      0x00\n      keccak256\n        /* \"contracts/Dex.sol\":7415:7456  trader_balances[orders[i].trader][ticker] */\n      0x00\n        /* \"contracts/Dex.sol\":7449:7455  ticker */\n      dup13\n        /* \"contracts/Dex.sol\":7415:7456  trader_balances[orders[i].trader][ticker] */\n      dup2\n      mstore\n      0x20\n      add\n      swap1\n      dup2\n      mstore\n      0x20\n      add\n      0x00\n      keccak256\n        /* \"contracts/Dex.sol\":7415:7551  trader_balances[orders[i].trader][ticker] = trader_balances[... */\n      dup2\n      swap1\n      sstore\n      pop\n        /* \"contracts/Dex.sol\":7610:7720  trader_balances[... */\n      tag_139\n        /* \"contracts/Dex.sol\":7691:7719  matched.mul(orders[i].price) */\n      tag_140\n        /* \"contracts/Dex.sol\":7703:7709  orders */\n      dup7\n        /* \"contracts/Dex.sol\":7710:7711  i */\n      dup7\n        /* \"contracts/Dex.sol\":7703:7712  orders[i] */\n      dup2\n      sload\n      dup2\n      lt\n      tag_141\n      jumpi\n      mstore(0x00, 0x4e487b7100000000000000000000000000000000000000000000000000000000)\n      mstore(0x04, 0x32)\n      revert(0x00, 0x24)\n    tag_141:\n      swap1\n      0x00\n      mstore\n      keccak256(0x00, 0x20)\n      swap1\n      0x07\n      mul\n      add\n        /* \"contracts/Dex.sol\":7703:7718  orders[i].price */\n      0x05\n      add\n      sload\n        /* \"contracts/Dex.sol\":7691:7698  matched */\n      dup4\n        /* \"contracts/Dex.sol\":7691:7702  matched.mul */\n      tag_133\n      swap1\n        /* \"contracts/Dex.sol\":7691:7719  matched.mul(orders[i].price) */\n      swap2\n      swap1\n      0xffffffff\n      and\n      jump\t// in\n    tag_140:\n        /* \"contracts/Dex.sol\":7610:7625  trader_balances */\n      0x03\n        /* \"contracts/Dex.sol\":7610:7681  trader_balances[... */\n      0x00\n        /* \"contracts/Dex.sol\":7647:7653  orders */\n      dup9\n        /* \"contracts/Dex.sol\":7654:7655  i */\n      dup9\n        /* \"contracts/Dex.sol\":7647:7656  orders[i] */\n      dup2\n      sload\n      dup2\n      lt\n      tag_143\n      jumpi\n      mstore(0x00, 0x4e487b7100000000000000000000000000000000000000000000000000000000)\n      mstore(0x04, 0x32)\n      revert(0x00, 0x24)\n    tag_143:\n      swap1\n      0x00\n      mstore\n      keccak256(0x00, 0x20)\n      swap1\n      0x07\n      mul\n      add\n        /* \"contracts/Dex.sol\":7647:7663  orders[i].trader */\n      0x01\n      add\n      0x00\n      swap1\n      sload\n      swap1\n      0x0100\n      exp\n      swap1\n      div\n      0xffffffffffffffffffffffffffffffffffffffff\n      and\n        /* \"contracts/Dex.sol\":7610:7681  trader_balances[... */\n      0xffffffffffffffffffffffffffffffffffffffff\n      and\n      0xffffffffffffffffffffffffffffffffffffffff\n      and\n      dup2\n      mstore\n      0x20\n      add\n      swap1\n      dup2\n      mstore\n      0x20\n      add\n      0x00\n      keccak256\n        /* \"contracts/Dex.sol\":7610:7686  trader_balances[... */\n      0x00\n        /* \"contracts/Dex.sol\":1353:1367  bytes32(\"DAI\") */\n      0x4441490000000000000000000000000000000000000000000000000000000000\n        /* \"contracts/Dex.sol\":7610:7686  trader_balances[... */\n      dup2\n      mstore\n      0x20\n      add\n      swap1\n      dup2\n      mstore\n      0x20\n      add\n      0x00\n      keccak256\n      sload\n        /* \"contracts/Dex.sol\":7610:7690  trader_balances[... */\n      tag_107\n      swap1\n        /* \"contracts/Dex.sol\":7610:7720  trader_balances[... */\n      swap2\n      swap1\n      0xffffffff\n      and\n      jump\t// in\n    tag_139:\n        /* \"contracts/Dex.sol\":7569:7584  trader_balances */\n      0x03\n        /* \"contracts/Dex.sol\":7569:7602  trader_balances[orders[i].trader] */\n      0x00\n        /* \"contracts/Dex.sol\":7585:7591  orders */\n      dup8\n        /* \"contracts/Dex.sol\":7592:7593  i */\n      dup8\n        /* \"contracts/Dex.sol\":7585:7594  orders[i] */\n      dup2\n      sload\n      dup2\n      lt\n      tag_145\n      jumpi\n      mstore(0x00, 0x4e487b7100000000000000000000000000000000000000000000000000000000)\n      mstore(0x04, 0x32)\n      revert(0x00, 0x24)\n    tag_145:\n      swap1\n      0x00\n      mstore\n      keccak256(0x00, 0x20)\n      swap1\n      0x07\n      mul\n      add\n        /* \"contracts/Dex.sol\":7585:7601  orders[i].trader */\n      0x01\n      add\n      0x00\n      swap1\n      sload\n      swap1\n      0x0100\n      exp\n      swap1\n      div\n      0xffffffffffffffffffffffffffffffffffffffff\n      and\n        /* \"contracts/Dex.sol\":7569:7602  trader_balances[orders[i].trader] */\n      0xffffffffffffffffffffffffffffffffffffffff\n      and\n      0xffffffffffffffffffffffffffffffffffffffff\n      and\n      dup2\n      mstore\n      0x20\n      add\n      swap1\n      dup2\n      mstore\n      0x20\n      add\n      0x00\n      keccak256\n        /* \"contracts/Dex.sol\":7569:7607  trader_balances[orders[i].trader][DAI] */\n      0x00\n        /* \"contracts/Dex.sol\":1353:1367  bytes32(\"DAI\") */\n      0x4441490000000000000000000000000000000000000000000000000000000000\n        /* \"contracts/Dex.sol\":7569:7607  trader_balances[orders[i].trader][DAI] */\n      dup2\n      mstore\n      0x20\n      add\n      swap1\n      dup2\n      mstore\n      0x20\n      add\n      0x00\n      keccak256\n        /* \"contracts/Dex.sol\":7569:7720  trader_balances[orders[i].trader][DAI] = trader_balances[... */\n      dup2\n      swap1\n      sstore\n      pop\n        /* \"contracts/Dex.sol\":6854:7735  if (side == Side.SELL) {... */\n    tag_127:\n        /* \"contracts/Dex.sol\":7761:7769  Side.BUY */\n      0x00\n        /* \"contracts/Dex.sol\":7753:7769  side == Side.BUY */\n      0x01\n      dup2\n      gt\n      iszero\n      tag_147\n      jumpi\n      mstore(0x00, 0x4e487b7100000000000000000000000000000000000000000000000000000000)\n      mstore(0x04, 0x21)\n      revert(0x00, 0x24)\n    tag_147:\n        /* \"contracts/Dex.sol\":7753:7757  side */\n      dup9\n        /* \"contracts/Dex.sol\":7753:7769  side == Side.BUY */\n      0x01\n      dup2\n      gt\n      iszero\n      tag_148\n      jumpi\n      mstore(0x00, 0x4e487b7100000000000000000000000000000000000000000000000000000000)\n      mstore(0x04, 0x21)\n      revert(0x00, 0x24)\n    tag_148:\n      eq\n        /* \"contracts/Dex.sol\":7749:8605  if (side == Side.BUY) {... */\n      iszero\n      tag_149\n      jumpi\n        /* \"contracts/Dex.sol\":7888:7894  orders */\n      dup5\n        /* \"contracts/Dex.sol\":7895:7896  i */\n      dup5\n        /* \"contracts/Dex.sol\":7888:7897  orders[i] */\n      dup2\n      sload\n      dup2\n      lt\n      tag_150\n      jumpi\n      mstore(0x00, 0x4e487b7100000000000000000000000000000000000000000000000000000000)\n      mstore(0x04, 0x32)\n      revert(0x00, 0x24)\n    tag_150:\n      swap1\n      0x00\n      mstore\n      keccak256(0x00, 0x20)\n      swap1\n      0x07\n      mul\n      add\n        /* \"contracts/Dex.sol\":7888:7903  orders[i].price */\n      0x05\n      add\n      sload\n        /* \"contracts/Dex.sol\":7878:7885  matched */\n      dup2\n        /* \"contracts/Dex.sol\":7878:7903  matched * orders[i].price */\n      tag_152\n      swap2\n      swap1\n      tag_153\n      jump\t// in\n    tag_152:\n        /* \"contracts/Dex.sol\":7818:7833  trader_balances */\n      0x03\n        /* \"contracts/Dex.sol\":7818:7845  trader_balances[msg.sender] */\n      0x00\n        /* \"contracts/Dex.sol\":7834:7844  msg.sender */\n      caller\n        /* \"contracts/Dex.sol\":7818:7845  trader_balances[msg.sender] */\n      0xffffffffffffffffffffffffffffffffffffffff\n      and\n      0xffffffffffffffffffffffffffffffffffffffff\n      and\n      dup2\n      mstore\n      0x20\n      add\n      swap1\n      dup2\n      mstore\n      0x20\n      add\n      0x00\n      keccak256\n        /* \"contracts/Dex.sol\":7818:7850  trader_balances[msg.sender][DAI] */\n      0x00\n        /* \"contracts/Dex.sol\":1353:1367  bytes32(\"DAI\") */\n      0x4441490000000000000000000000000000000000000000000000000000000000\n        /* \"contracts/Dex.sol\":7818:7850  trader_balances[msg.sender][DAI] */\n      dup2\n      mstore\n      0x20\n      add\n      swap1\n      dup2\n      mstore\n      0x20\n      add\n      0x00\n      keccak256\n      sload\n        /* \"contracts/Dex.sol\":7818:7903  trader_balances[msg.sender][DAI] >=... */\n      lt\n      iszero\n        /* \"contracts/Dex.sol\":7789:7968  require(... */\n      tag_154\n      jumpi\n      mload(0x40)\n      0x08c379a000000000000000000000000000000000000000000000000000000000\n      dup2\n      mstore\n      0x04\n      add\n      tag_155\n      swap1\n      tag_156\n      jump\t// in\n    tag_155:\n      mload(0x40)\n      dup1\n      swap2\n      sub\n      swap1\n      revert\n    tag_154:\n        /* \"contracts/Dex.sol\":8024:8110  trader_balances[... */\n      tag_157\n        /* \"contracts/Dex.sol\":8102:8109  matched */\n      dup2\n        /* \"contracts/Dex.sol\":8024:8039  trader_balances */\n      0x03\n        /* \"contracts/Dex.sol\":8024:8089  trader_balances[... */\n      0x00\n        /* \"contracts/Dex.sol\":8061:8071  msg.sender */\n      caller\n        /* \"contracts/Dex.sol\":8024:8089  trader_balances[... */\n      0xffffffffffffffffffffffffffffffffffffffff\n      and\n      0xffffffffffffffffffffffffffffffffffffffff\n      and\n      dup2\n      mstore\n      0x20\n      add\n      swap1\n      dup2\n      mstore\n      0x20\n      add\n      0x00\n      keccak256\n        /* \"contracts/Dex.sol\":8024:8097  trader_balances[... */\n      0x00\n        /* \"contracts/Dex.sol\":8090:8096  ticker */\n      dup14\n        /* \"contracts/Dex.sol\":8024:8097  trader_balances[... */\n      dup2\n      mstore\n      0x20\n      add\n      swap1\n      dup2\n      mstore\n      0x20\n      add\n      0x00\n      keccak256\n      sload\n        /* \"contracts/Dex.sol\":8024:8101  trader_balances[... */\n      tag_114\n      swap1\n        /* \"contracts/Dex.sol\":8024:8110  trader_balances[... */\n      swap2\n      swap1\n      0xffffffff\n      and\n      jump\t// in\n    tag_157:\n        /* \"contracts/Dex.sol\":7986:8001  trader_balances */\n      0x03\n        /* \"contracts/Dex.sol\":7986:8013  trader_balances[msg.sender] */\n      0x00\n        /* \"contracts/Dex.sol\":8002:8012  msg.sender */\n      caller\n        /* \"contracts/Dex.sol\":7986:8013  trader_balances[msg.sender] */\n      0xffffffffffffffffffffffffffffffffffffffff\n      and\n      0xffffffffffffffffffffffffffffffffffffffff\n      and\n      dup2\n      mstore\n      0x20\n      add\n      swap1\n      dup2\n      mstore\n      0x20\n      add\n      0x00\n      keccak256\n        /* \"contracts/Dex.sol\":7986:8021  trader_balances[msg.sender][ticker] */\n      0x00\n        /* \"contracts/Dex.sol\":8014:8020  ticker */\n      dup13\n        /* \"contracts/Dex.sol\":7986:8021  trader_balances[msg.sender][ticker] */\n      dup2\n      mstore\n      0x20\n      add\n      swap1\n      dup2\n      mstore\n      0x20\n      add\n      0x00\n      keccak256\n        /* \"contracts/Dex.sol\":7986:8110  trader_balances[msg.sender][ticker] = trader_balances[... */\n      dup2\n      swap1\n      sstore\n      pop\n        /* \"contracts/Dex.sol\":8163:8267  trader_balances[msg.sender][... */\n      tag_158\n        /* \"contracts/Dex.sol\":8238:8266  matched.mul(orders[i].price) */\n      tag_159\n        /* \"contracts/Dex.sol\":8250:8256  orders */\n      dup7\n        /* \"contracts/Dex.sol\":8257:8258  i */\n      dup7\n        /* \"contracts/Dex.sol\":8250:8259  orders[i] */\n      dup2\n      sload\n      dup2\n      lt\n      tag_160\n      jumpi\n      mstore(0x00, 0x4e487b7100000000000000000000000000000000000000000000000000000000)\n      mstore(0x04, 0x32)\n      revert(0x00, 0x24)\n    tag_160:\n      swap1\n      0x00\n      mstore\n      keccak256(0x00, 0x20)\n      swap1\n      0x07\n      mul\n      add\n        /* \"contracts/Dex.sol\":8250:8265  orders[i].price */\n      0x05\n      add\n      sload\n        /* \"contracts/Dex.sol\":8238:8245  matched */\n      dup4\n        /* \"contracts/Dex.sol\":8238:8249  matched.mul */\n      tag_133\n      swap1\n        /* \"contracts/Dex.sol\":8238:8266  matched.mul(orders[i].price) */\n      swap2\n      swap1\n      0xffffffff\n      and\n      jump\t// in\n    tag_159:\n        /* \"contracts/Dex.sol\":8163:8178  trader_balances */\n      0x03\n        /* \"contracts/Dex.sol\":8163:8190  trader_balances[msg.sender] */\n      0x00\n        /* \"contracts/Dex.sol\":8179:8189  msg.sender */\n      caller\n        /* \"contracts/Dex.sol\":8163:8190  trader_balances[msg.sender] */\n      0xffffffffffffffffffffffffffffffffffffffff\n      and\n      0xffffffffffffffffffffffffffffffffffffffff\n      and\n      dup2\n      mstore\n      0x20\n      add\n      swap1\n      dup2\n      mstore\n      0x20\n      add\n      0x00\n      keccak256\n        /* \"contracts/Dex.sol\":8163:8233  trader_balances[msg.sender][... */\n      0x00\n        /* \"contracts/Dex.sol\":1353:1367  bytes32(\"DAI\") */\n      0x4441490000000000000000000000000000000000000000000000000000000000\n        /* \"contracts/Dex.sol\":8163:8233  trader_balances[msg.sender][... */\n      dup2\n      mstore\n      0x20\n      add\n      swap1\n      dup2\n      mstore\n      0x20\n      add\n      0x00\n      keccak256\n      sload\n        /* \"contracts/Dex.sol\":8163:8237  trader_balances[msg.sender][... */\n      tag_107\n      swap1\n        /* \"contracts/Dex.sol\":8163:8267  trader_balances[msg.sender][... */\n      swap2\n      swap1\n      0xffffffff\n      and\n      jump\t// in\n    tag_158:\n        /* \"contracts/Dex.sol\":8128:8143  trader_balances */\n      0x03\n        /* \"contracts/Dex.sol\":8128:8155  trader_balances[msg.sender] */\n      0x00\n        /* \"contracts/Dex.sol\":8144:8154  msg.sender */\n      caller\n        /* \"contracts/Dex.sol\":8128:8155  trader_balances[msg.sender] */\n      0xffffffffffffffffffffffffffffffffffffffff\n      and\n      0xffffffffffffffffffffffffffffffffffffffff\n      and\n      dup2\n      mstore\n      0x20\n      add\n      swap1\n      dup2\n      mstore\n      0x20\n      add\n      0x00\n      keccak256\n        /* \"contracts/Dex.sol\":8128:8160  trader_balances[msg.sender][DAI] */\n      0x00\n        /* \"contracts/Dex.sol\":1353:1367  bytes32(\"DAI\") */\n      0x4441490000000000000000000000000000000000000000000000000000000000\n        /* \"contracts/Dex.sol\":8128:8160  trader_balances[msg.sender][DAI] */\n      dup2\n      mstore\n      0x20\n      add\n      swap1\n      dup2\n      mstore\n      0x20\n      add\n      0x00\n      keccak256\n        /* \"contracts/Dex.sol\":8128:8267  trader_balances[msg.sender][DAI] = trader_balances[msg.sender][... */\n      dup2\n      swap1\n      sstore\n      pop\n        /* \"contracts/Dex.sol\":8329:8421  trader_balances[... */\n      tag_162\n        /* \"contracts/Dex.sol\":8413:8420  matched */\n      dup2\n        /* \"contracts/Dex.sol\":8329:8344  trader_balances */\n      0x03\n        /* \"contracts/Dex.sol\":8329:8400  trader_balances[... */\n      0x00\n        /* \"contracts/Dex.sol\":8366:8372  orders */\n      dup9\n        /* \"contracts/Dex.sol\":8373:8374  i */\n      dup9\n        /* \"contracts/Dex.sol\":8366:8375  orders[i] */\n      dup2\n      sload\n      dup2\n      lt\n      tag_163\n      jumpi\n      mstore(0x00, 0x4e487b7100000000000000000000000000000000000000000000000000000000)\n      mstore(0x04, 0x32)\n      revert(0x00, 0x24)\n    tag_163:\n      swap1\n      0x00\n      mstore\n      keccak256(0x00, 0x20)\n      swap1\n      0x07\n      mul\n      add\n        /* \"contracts/Dex.sol\":8366:8382  orders[i].trader */\n      0x01\n      add\n      0x00\n      swap1\n      sload\n      swap1\n      0x0100\n      exp\n      swap1\n      div\n      0xffffffffffffffffffffffffffffffffffffffff\n      and\n        /* \"contracts/Dex.sol\":8329:8400  trader_balances[... */\n      0xffffffffffffffffffffffffffffffffffffffff\n      and\n      0xffffffffffffffffffffffffffffffffffffffff\n      and\n      dup2\n      mstore\n      0x20\n      add\n      swap1\n      dup2\n      mstore\n      0x20\n      add\n      0x00\n      keccak256\n        /* \"contracts/Dex.sol\":8329:8408  trader_balances[... */\n      0x00\n        /* \"contracts/Dex.sol\":8401:8407  ticker */\n      dup14\n        /* \"contracts/Dex.sol\":8329:8408  trader_balances[... */\n      dup2\n      mstore\n      0x20\n      add\n      swap1\n      dup2\n      mstore\n      0x20\n      add\n      0x00\n      keccak256\n      sload\n        /* \"contracts/Dex.sol\":8329:8412  trader_balances[... */\n      tag_107\n      swap1\n        /* \"contracts/Dex.sol\":8329:8421  trader_balances[... */\n      swap2\n      swap1\n      0xffffffff\n      and\n      jump\t// in\n    tag_162:\n        /* \"contracts/Dex.sol\":8285:8300  trader_balances */\n      0x03\n        /* \"contracts/Dex.sol\":8285:8318  trader_balances[orders[i].trader] */\n      0x00\n        /* \"contracts/Dex.sol\":8301:8307  orders */\n      dup8\n        /* \"contracts/Dex.sol\":8308:8309  i */\n      dup8\n        /* \"contracts/Dex.sol\":8301:8310  orders[i] */\n      dup2\n      sload\n      dup2\n      lt\n      tag_165\n      jumpi\n      mstore(0x00, 0x4e487b7100000000000000000000000000000000000000000000000000000000)\n      mstore(0x04, 0x32)\n      revert(0x00, 0x24)\n    tag_165:\n      swap1\n      0x00\n      mstore\n      keccak256(0x00, 0x20)\n      swap1\n      0x07\n      mul\n      add\n        /* \"contracts/Dex.sol\":8301:8317  orders[i].trader */\n      0x01\n      add\n      0x00\n      swap1\n      sload\n      swap1\n      0x0100\n      exp\n      swap1\n      div\n      0xffffffffffffffffffffffffffffffffffffffff\n      and\n        /* \"contracts/Dex.sol\":8285:8318  trader_balances[orders[i].trader] */\n      0xffffffffffffffffffffffffffffffffffffffff\n      and\n      0xffffffffffffffffffffffffffffffffffffffff\n      and\n      dup2\n      mstore\n      0x20\n      add\n      swap1\n      dup2\n      mstore\n      0x20\n      add\n      0x00\n      keccak256\n        /* \"contracts/Dex.sol\":8285:8326  trader_balances[orders[i].trader][ticker] */\n      0x00\n        /* \"contracts/Dex.sol\":8319:8325  ticker */\n      dup13\n        /* \"contracts/Dex.sol\":8285:8326  trader_balances[orders[i].trader][ticker] */\n      dup2\n      mstore\n      0x20\n      add\n      swap1\n      dup2\n      mstore\n      0x20\n      add\n      0x00\n      keccak256\n        /* \"contracts/Dex.sol\":8285:8421  trader_balances[orders[i].trader][ticker] = trader_balances[... */\n      dup2\n      swap1\n      sstore\n      pop\n        /* \"contracts/Dex.sol\":8480:8590  trader_balances[... */\n      tag_167\n        /* \"contracts/Dex.sol\":8561:8589  matched.mul(orders[i].price) */\n      tag_168\n        /* \"contracts/Dex.sol\":8573:8579  orders */\n      dup7\n        /* \"contracts/Dex.sol\":8580:8581  i */\n      dup7\n        /* \"contracts/Dex.sol\":8573:8582  orders[i] */\n      dup2\n      sload\n      dup2\n      lt\n      tag_169\n      jumpi\n      mstore(0x00, 0x4e487b7100000000000000000000000000000000000000000000000000000000)\n      mstore(0x04, 0x32)\n      revert(0x00, 0x24)\n    tag_169:\n      swap1\n      0x00\n      mstore\n      keccak256(0x00, 0x20)\n      swap1\n      0x07\n      mul\n      add\n        /* \"contracts/Dex.sol\":8573:8588  orders[i].price */\n      0x05\n      add\n      sload\n        /* \"contracts/Dex.sol\":8561:8568  matched */\n      dup4\n        /* \"contracts/Dex.sol\":8561:8572  matched.mul */\n      tag_133\n      swap1\n        /* \"contracts/Dex.sol\":8561:8589  matched.mul(orders[i].price) */\n      swap2\n      swap1\n      0xffffffff\n      and\n      jump\t// in\n    tag_168:\n        /* \"contracts/Dex.sol\":8480:8495  trader_balances */\n      0x03\n        /* \"contracts/Dex.sol\":8480:8551  trader_balances[... */\n      0x00\n        /* \"contracts/Dex.sol\":8517:8523  orders */\n      dup9\n        /* \"contracts/Dex.sol\":8524:8525  i */\n      dup9\n        /* \"contracts/Dex.sol\":8517:8526  orders[i] */\n      dup2\n      sload\n      dup2\n      lt\n      tag_171\n      jumpi\n      mstore(0x00, 0x4e487b7100000000000000000000000000000000000000000000000000000000)\n      mstore(0x04, 0x32)\n      revert(0x00, 0x24)\n    tag_171:\n      swap1\n      0x00\n      mstore\n      keccak256(0x00, 0x20)\n      swap1\n      0x07\n      mul\n      add\n        /* \"contracts/Dex.sol\":8517:8533  orders[i].trader */\n      0x01\n      add\n      0x00\n      swap1\n      sload\n      swap1\n      0x0100\n      exp\n      swap1\n      div\n      0xffffffffffffffffffffffffffffffffffffffff\n      and\n        /* \"contracts/Dex.sol\":8480:8551  trader_balances[... */\n      0xffffffffffffffffffffffffffffffffffffffff\n      and\n      0xffffffffffffffffffffffffffffffffffffffff\n      and\n      dup2\n      mstore\n      0x20\n      add\n      swap1\n      dup2\n      mstore\n      0x20\n      add\n      0x00\n      keccak256\n        /* \"contracts/Dex.sol\":8480:8556  trader_balances[... */\n      0x00\n        /* \"contracts/Dex.sol\":1353:1367  bytes32(\"DAI\") */\n      0x4441490000000000000000000000000000000000000000000000000000000000\n        /* \"contracts/Dex.sol\":8480:8556  trader_balances[... */\n      dup2\n      mstore\n      0x20\n      add\n      swap1\n      dup2\n      mstore\n      0x20\n      add\n      0x00\n      keccak256\n      sload\n        /* \"contracts/Dex.sol\":8480:8560  trader_balances[... */\n      tag_114\n      swap1\n        /* \"contracts/Dex.sol\":8480:8590  trader_balances[... */\n      swap2\n      swap1\n      0xffffffff\n      and\n      jump\t// in\n    tag_167:\n        /* \"contracts/Dex.sol\":8439:8454  trader_balances */\n      0x03\n        /* \"contracts/Dex.sol\":8439:8472  trader_balances[orders[i].trader] */\n      0x00\n        /* \"contracts/Dex.sol\":8455:8461  orders */\n      dup8\n        /* \"contracts/Dex.sol\":8462:8463  i */\n      dup8\n        /* \"contracts/Dex.sol\":8455:8464  orders[i] */\n      dup2\n      sload\n      dup2\n      lt\n      tag_173\n      jumpi\n      mstore(0x00, 0x4e487b7100000000000000000000000000000000000000000000000000000000)\n      mstore(0x04, 0x32)\n      revert(0x00, 0x24)\n    tag_173:\n      swap1\n      0x00\n      mstore\n      keccak256(0x00, 0x20)\n      swap1\n      0x07\n      mul\n      add\n        /* \"contracts/Dex.sol\":8455:8471  orders[i].trader */\n      0x01\n      add\n      0x00\n      swap1\n      sload\n      swap1\n      0x0100\n      exp\n      swap1\n      div\n      0xffffffffffffffffffffffffffffffffffffffff\n      and\n        /* \"contracts/Dex.sol\":8439:8472  trader_balances[orders[i].trader] */\n      0xffffffffffffffffffffffffffffffffffffffff\n      and\n      0xffffffffffffffffffffffffffffffffffffffff\n      and\n      dup2\n      mstore\n      0x20\n      add\n      swap1\n      dup2\n      mstore\n      0x20\n      add\n      0x00\n      keccak256\n        /* \"contracts/Dex.sol\":8439:8477  trader_balances[orders[i].trader][DAI] */\n      0x00\n        /* \"contracts/Dex.sol\":1353:1367  bytes32(\"DAI\") */\n      0x4441490000000000000000000000000000000000000000000000000000000000\n        /* \"contracts/Dex.sol\":8439:8477  trader_balances[orders[i].trader][DAI] */\n      dup2\n      mstore\n      0x20\n      add\n      swap1\n      dup2\n      mstore\n      0x20\n      add\n      0x00\n      keccak256\n        /* \"contracts/Dex.sol\":8439:8590  trader_balances[orders[i].trader][DAI] = trader_balances[... */\n      dup2\n      swap1\n      sstore\n      pop\n        /* \"contracts/Dex.sol\":7749:8605  if (side == Side.BUY) {... */\n    tag_149:\n        /* \"contracts/Dex.sol\":8634:8654  next_trade_id.add(1) */\n      tag_175\n        /* \"contracts/Dex.sol\":8652:8653  1 */\n      0x01\n        /* \"contracts/Dex.sol\":8634:8647  next_trade_id */\n      sload(0x06)\n        /* \"contracts/Dex.sol\":8634:8651  next_trade_id.add */\n      tag_114\n      swap1\n        /* \"contracts/Dex.sol\":8634:8654  next_trade_id.add(1) */\n      swap2\n      swap1\n      0xffffffff\n      and\n      jump\t// in\n    tag_175:\n        /* \"contracts/Dex.sol\":8618:8631  next_trade_id */\n      0x06\n        /* \"contracts/Dex.sol\":8618:8654  next_trade_id = next_trade_id.add(1) */\n      dup2\n      swap1\n      sstore\n      pop\n        /* \"contracts/Dex.sol\":8672:8680  i.add(1) */\n      tag_176\n        /* \"contracts/Dex.sol\":8678:8679  1 */\n      0x01\n        /* \"contracts/Dex.sol\":8672:8673  i */\n      dup6\n        /* \"contracts/Dex.sol\":8672:8677  i.add */\n      tag_114\n      swap1\n        /* \"contracts/Dex.sol\":8672:8680  i.add(1) */\n      swap2\n      swap1\n      0xffffffff\n      and\n      jump\t// in\n    tag_176:\n        /* \"contracts/Dex.sol\":8668:8680  i = i.add(1) */\n      swap4\n      pop\n        /* \"contracts/Dex.sol\":5877:8691  while (i < orders.length && remaining > 0) {... */\n      pop\n      pop\n      jump(tag_99)\n    tag_100:\n        /* \"contracts/Dex.sol\":8704:8705  0 */\n      0x00\n        /* \"contracts/Dex.sol\":8700:8705  i = 0 */\n      swap2\n      pop\n        /* \"contracts/Dex.sol\":8787:9035  while (i < orders.length && orders[i].filled == orders[i].amount) {... */\n    tag_177:\n        /* \"contracts/Dex.sol\":8798:8804  orders */\n      dup3\n        /* \"contracts/Dex.sol\":8798:8811  orders.length */\n      dup1\n      sload\n      swap1\n      pop\n        /* \"contracts/Dex.sol\":8794:8795  i */\n      dup3\n        /* \"contracts/Dex.sol\":8794:8811  i < orders.length */\n      lt\n        /* \"contracts/Dex.sol\":8794:8851  i < orders.length && orders[i].filled == orders[i].amount */\n      dup1\n      iszero\n      tag_179\n      jumpi\n      pop\n        /* \"contracts/Dex.sol\":8835:8841  orders */\n      dup3\n        /* \"contracts/Dex.sol\":8842:8843  i */\n      dup3\n        /* \"contracts/Dex.sol\":8835:8844  orders[i] */\n      dup2\n      sload\n      dup2\n      lt\n      tag_180\n      jumpi\n      mstore(0x00, 0x4e487b7100000000000000000000000000000000000000000000000000000000)\n      mstore(0x04, 0x32)\n      revert(0x00, 0x24)\n    tag_180:\n      swap1\n      0x00\n      mstore\n      keccak256(0x00, 0x20)\n      swap1\n      0x07\n      mul\n      add\n        /* \"contracts/Dex.sol\":8835:8851  orders[i].amount */\n      0x03\n      add\n      sload\n        /* \"contracts/Dex.sol\":8815:8821  orders */\n      dup4\n        /* \"contracts/Dex.sol\":8822:8823  i */\n      dup4\n        /* \"contracts/Dex.sol\":8815:8824  orders[i] */\n      dup2\n      sload\n      dup2\n      lt\n      tag_182\n      jumpi\n      mstore(0x00, 0x4e487b7100000000000000000000000000000000000000000000000000000000)\n      mstore(0x04, 0x32)\n      revert(0x00, 0x24)\n    tag_182:\n      swap1\n      0x00\n      mstore\n      keccak256(0x00, 0x20)\n      swap1\n      0x07\n      mul\n      add\n        /* \"contracts/Dex.sol\":8815:8831  orders[i].filled */\n      0x04\n      add\n      sload\n        /* \"contracts/Dex.sol\":8815:8851  orders[i].filled == orders[i].amount */\n      eq\n        /* \"contracts/Dex.sol\":8794:8851  i < orders.length && orders[i].filled == orders[i].amount */\n    tag_179:\n        /* \"contracts/Dex.sol\":8787:9035  while (i < orders.length && orders[i].filled == orders[i].amount) {... */\n      iszero\n      tag_178\n      jumpi\n        /* \"contracts/Dex.sol\":8872:8881  uint256 j */\n      0x00\n        /* \"contracts/Dex.sol\":8884:8885  i */\n      dup3\n        /* \"contracts/Dex.sol\":8872:8885  uint256 j = i */\n      swap1\n      pop\n        /* \"contracts/Dex.sol\":8867:8973  for (uint256 j = i; j < orders.length - 1; j++) {... */\n    tag_184:\n        /* \"contracts/Dex.sol\":8907:8908  1 */\n      0x01\n        /* \"contracts/Dex.sol\":8891:8897  orders */\n      dup5\n        /* \"contracts/Dex.sol\":8891:8904  orders.length */\n      dup1\n      sload\n      swap1\n      pop\n        /* \"contracts/Dex.sol\":8891:8908  orders.length - 1 */\n      tag_187\n      swap2\n      swap1\n      tag_188\n      jump\t// in\n    tag_187:\n        /* \"contracts/Dex.sol\":8887:8888  j */\n      dup2\n        /* \"contracts/Dex.sol\":8887:8908  j < orders.length - 1 */\n      lt\n        /* \"contracts/Dex.sol\":8867:8973  for (uint256 j = i; j < orders.length - 1; j++) {... */\n      iszero\n      tag_185\n      jumpi\n        /* \"contracts/Dex.sol\":8945:8951  orders */\n      dup4\n        /* \"contracts/Dex.sol\":8956:8957  1 */\n      0x01\n        /* \"contracts/Dex.sol\":8952:8953  j */\n      dup3\n        /* \"contracts/Dex.sol\":8952:8957  j + 1 */\n      tag_189\n      swap2\n      swap1\n      tag_190\n      jump\t// in\n    tag_189:\n        /* \"contracts/Dex.sol\":8945:8958  orders[j + 1] */\n      dup2\n      sload\n      dup2\n      lt\n      tag_191\n      jumpi\n      mstore(0x00, 0x4e487b7100000000000000000000000000000000000000000000000000000000)\n      mstore(0x04, 0x32)\n      revert(0x00, 0x24)\n    tag_191:\n      swap1\n      0x00\n      mstore\n      keccak256(0x00, 0x20)\n      swap1\n      0x07\n      mul\n      add\n        /* \"contracts/Dex.sol\":8933:8939  orders */\n      dup5\n        /* \"contracts/Dex.sol\":8940:8941  j */\n      dup3\n        /* \"contracts/Dex.sol\":8933:8942  orders[j] */\n      dup2\n      sload\n      dup2\n      lt\n      tag_193\n      jumpi\n      mstore(0x00, 0x4e487b7100000000000000000000000000000000000000000000000000000000)\n      mstore(0x04, 0x32)\n      revert(0x00, 0x24)\n    tag_193:\n      swap1\n      0x00\n      mstore\n      keccak256(0x00, 0x20)\n      swap1\n      0x07\n      mul\n      add\n        /* \"contracts/Dex.sol\":8933:8958  orders[j] = orders[j + 1] */\n      0x00\n      dup3\n      add\n      sload\n      dup2\n      0x00\n      add\n      sstore\n      0x01\n      dup3\n      add\n      0x00\n      swap1\n      sload\n      swap1\n      0x0100\n      exp\n      swap1\n      div\n      0xffffffffffffffffffffffffffffffffffffffff\n      and\n      dup2\n      0x01\n      add\n      exp(0x0100, 0x00)\n      dup2\n      sload\n      dup2\n      0xffffffffffffffffffffffffffffffffffffffff\n      mul\n      not\n      and\n      swap1\n      dup4\n      0xffffffffffffffffffffffffffffffffffffffff\n      and\n      mul\n      or\n      swap1\n      sstore\n      pop\n      0x01\n      dup3\n      add\n      0x14\n      swap1\n      sload\n      swap1\n      0x0100\n      exp\n      swap1\n      div\n      0xff\n      and\n      dup2\n      0x01\n      add\n      exp(0x0100, 0x14)\n      dup2\n      sload\n      dup2\n      0xff\n      mul\n      not\n      and\n      swap1\n      dup4\n      0x01\n      dup2\n      gt\n      iszero\n      tag_195\n      jumpi\n      mstore(0x00, 0x4e487b7100000000000000000000000000000000000000000000000000000000)\n      mstore(0x04, 0x21)\n      revert(0x00, 0x24)\n    tag_195:\n      mul\n      or\n      swap1\n      sstore\n      pop\n      0x02\n      dup3\n      add\n      sload\n      dup2\n      0x02\n      add\n      sstore\n      0x03\n      dup3\n      add\n      sload\n      dup2\n      0x03\n      add\n      sstore\n      0x04\n      dup3\n      add\n      sload\n      dup2\n      0x04\n      add\n      sstore\n      0x05\n      dup3\n      add\n      sload\n      dup2\n      0x05\n      add\n      sstore\n      0x06\n      dup3\n      add\n      sload\n      dup2\n      0x06\n      add\n      sstore\n      swap1\n      pop\n      pop\n        /* \"contracts/Dex.sol\":8910:8913  j++ */\n      dup1\n      dup1\n      tag_196\n      swap1\n      tag_197\n      jump\t// in\n    tag_196:\n      swap2\n      pop\n      pop\n        /* \"contracts/Dex.sol\":8867:8973  for (uint256 j = i; j < orders.length - 1; j++) {... */\n      jump(tag_184)\n    tag_185:\n      pop\n        /* \"contracts/Dex.sol\":8986:8992  orders */\n      dup3\n        /* \"contracts/Dex.sol\":8986:8998  orders.pop() */\n      dup1\n      sload\n      dup1\n      tag_198\n      jumpi\n      mstore(0x00, 0x4e487b7100000000000000000000000000000000000000000000000000000000)\n      mstore(0x04, 0x31)\n      revert(0x00, 0x24)\n    tag_198:\n      0x01\n      swap1\n      sub\n      dup2\n      dup2\n      swap1\n      0x00\n      mstore\n      keccak256(0x00, 0x20)\n      swap1\n      0x07\n      mul\n      add\n      0x00\n      dup1\n      dup3\n      add\n      0x00\n      swap1\n      sstore\n      0x01\n      dup3\n      add\n      exp(0x0100, 0x00)\n      dup2\n      sload\n      swap1\n      0xffffffffffffffffffffffffffffffffffffffff\n      mul\n      not\n      and\n      swap1\n      sstore\n      0x01\n      dup3\n      add\n      exp(0x0100, 0x14)\n      dup2\n      sload\n      swap1\n      0xff\n      mul\n      not\n      and\n      swap1\n      sstore\n      0x02\n      dup3\n      add\n      0x00\n      swap1\n      sstore\n      0x03\n      dup3\n      add\n      0x00\n      swap1\n      sstore\n      0x04\n      dup3\n      add\n      0x00\n      swap1\n      sstore\n      0x05\n      dup3\n      add\n      0x00\n      swap1\n      sstore\n      0x06\n      dup3\n      add\n      0x00\n      swap1\n      sstore\n      pop\n      pop\n      swap1\n      sstore\n        /* \"contracts/Dex.sol\":9016:9024  i.add(1) */\n      tag_200\n        /* \"contracts/Dex.sol\":9022:9023  1 */\n      0x01\n        /* \"contracts/Dex.sol\":9016:9017  i */\n      dup4\n        /* \"contracts/Dex.sol\":9016:9021  i.add */\n      tag_114\n      swap1\n        /* \"contracts/Dex.sol\":9016:9024  i.add(1) */\n      swap2\n      swap1\n      0xffffffff\n      and\n      jump\t// in\n    tag_200:\n        /* \"contracts/Dex.sol\":9012:9024  i = i.add(1) */\n      swap2\n      pop\n        /* \"contracts/Dex.sol\":8787:9035  while (i < orders.length && orders[i].filled == orders[i].amount) {... */\n      jump(tag_177)\n    tag_178:\n        /* \"contracts/Dex.sol\":9148:9149  _ */\n      pop\n      pop\n      pop\n        /* \"contracts/Dex.sol\":9326:9327  _ */\n      pop\n        /* \"contracts/Dex.sol\":5103:9041  function create_market_order(... */\n      pop\n      pop\n      pop\n      pop\n      jump\t// out\n        /* \"contracts/Dex.sol\":736:775  mapping(bytes32 => Token) public tokens */\n    tag_43:\n      mstore(0x20, 0x00)\n      dup1\n      0x00\n      mstore\n      keccak256(0x00, 0x40)\n      0x00\n      swap2\n      pop\n      swap1\n      pop\n      dup1\n      0x00\n      add\n      sload\n      swap1\n      dup1\n      0x01\n      add\n      0x00\n      swap1\n      sload\n      swap1\n      0x0100\n      exp\n      swap1\n      div\n      0xffffffffffffffffffffffffffffffffffffffff\n      and\n      swap1\n      pop\n      dup3\n      jump\t// out\n        /* \"contracts/Dex.sol\":1262:1290  uint256 public next_order_id */\n    tag_47:\n      sload(0x05)\n      dup2\n      jump\t// out\n        /* \"contracts/Dex.sol\":2629:3343  function withdraw(uint256 amount, bytes32 ticker)... */\n    tag_52:\n        /* \"contracts/Dex.sol\":2715:2721  ticker */\n      dup1\n        /* \"contracts/Dex.sol\":9269:9270  0 */\n      0x00\n        /* \"contracts/Dex.sol\":9229:9271  tokens[ticker].token_address != address(0) */\n      0xffffffffffffffffffffffffffffffffffffffff\n      and\n        /* \"contracts/Dex.sol\":9229:9235  tokens */\n      0x00\n        /* \"contracts/Dex.sol\":9229:9243  tokens[ticker] */\n      dup1\n        /* \"contracts/Dex.sol\":9236:9242  ticker */\n      dup4\n        /* \"contracts/Dex.sol\":9229:9243  tokens[ticker] */\n      dup2\n      mstore\n      0x20\n      add\n      swap1\n      dup2\n      mstore\n      0x20\n      add\n      0x00\n      keccak256\n        /* \"contracts/Dex.sol\":9229:9257  tokens[ticker].token_address */\n      0x01\n      add\n      0x00\n      swap1\n      sload\n      swap1\n      0x0100\n      exp\n      swap1\n      div\n      0xffffffffffffffffffffffffffffffffffffffff\n      and\n        /* \"contracts/Dex.sol\":9229:9271  tokens[ticker].token_address != address(0) */\n      0xffffffffffffffffffffffffffffffffffffffff\n      and\n      eq\n      iszero\n        /* \"contracts/Dex.sol\":9208:9316  require(... */\n      tag_202\n      jumpi\n      mload(0x40)\n      0x08c379a000000000000000000000000000000000000000000000000000000000\n      dup2\n      mstore\n      0x04\n      add\n      tag_203\n      swap1\n      tag_82\n      jump\t// in\n    tag_203:\n      mload(0x40)\n      dup1\n      swap2\n      sub\n      swap1\n      revert\n    tag_202:\n        /* \"contracts/Dex.sol\":2843:2849  amount */\n      dup3\n        /* \"contracts/Dex.sol\":2804:2819  trader_balances */\n      0x03\n        /* \"contracts/Dex.sol\":2804:2831  trader_balances[msg.sender] */\n      0x00\n        /* \"contracts/Dex.sol\":2820:2830  msg.sender */\n      caller\n        /* \"contracts/Dex.sol\":2804:2831  trader_balances[msg.sender] */\n      0xffffffffffffffffffffffffffffffffffffffff\n      and\n      0xffffffffffffffffffffffffffffffffffffffff\n      and\n      dup2\n      mstore\n      0x20\n      add\n      swap1\n      dup2\n      mstore\n      0x20\n      add\n      0x00\n      keccak256\n        /* \"contracts/Dex.sol\":2804:2839  trader_balances[msg.sender][ticker] */\n      0x00\n        /* \"contracts/Dex.sol\":2832:2838  ticker */\n      dup5\n        /* \"contracts/Dex.sol\":2804:2839  trader_balances[msg.sender][ticker] */\n      dup2\n      mstore\n      0x20\n      add\n      swap1\n      dup2\n      mstore\n      0x20\n      add\n      0x00\n      keccak256\n      sload\n        /* \"contracts/Dex.sol\":2804:2849  trader_balances[msg.sender][ticker] >= amount */\n      lt\n      iszero\n        /* \"contracts/Dex.sol\":2783:2895  require(... */\n      tag_205\n      jumpi\n      mload(0x40)\n      0x08c379a000000000000000000000000000000000000000000000000000000000\n      dup2\n      mstore\n      0x04\n      add\n      tag_206\n      swap1\n      tag_93\n      jump\t// in\n    tag_206:\n      mload(0x40)\n      dup1\n      swap2\n      sub\n      swap1\n      revert\n    tag_205:\n        /* \"contracts/Dex.sol\":3057:3126  trader_balances[msg.sender][... */\n      tag_207\n        /* \"contracts/Dex.sol\":3119:3125  amount */\n      dup4\n        /* \"contracts/Dex.sol\":3057:3072  trader_balances */\n      0x03\n        /* \"contracts/Dex.sol\":3057:3084  trader_balances[msg.sender] */\n      0x00\n        /* \"contracts/Dex.sol\":3073:3083  msg.sender */\n      caller\n        /* \"contracts/Dex.sol\":3057:3084  trader_balances[msg.sender] */\n      0xffffffffffffffffffffffffffffffffffffffff\n      and\n      0xffffffffffffffffffffffffffffffffffffffff\n      and\n      dup2\n      mstore\n      0x20\n      add\n      swap1\n      dup2\n      mstore\n      0x20\n      add\n      0x00\n      keccak256\n        /* \"contracts/Dex.sol\":3057:3114  trader_balances[msg.sender][... */\n      0x00\n        /* \"contracts/Dex.sol\":3098:3104  ticker */\n      dup6\n        /* \"contracts/Dex.sol\":3057:3114  trader_balances[msg.sender][... */\n      dup2\n      mstore\n      0x20\n      add\n      swap1\n      dup2\n      mstore\n      0x20\n      add\n      0x00\n      keccak256\n      sload\n        /* \"contracts/Dex.sol\":3057:3118  trader_balances[msg.sender][... */\n      tag_107\n      swap1\n        /* \"contracts/Dex.sol\":3057:3126  trader_balances[msg.sender][... */\n      swap2\n      swap1\n      0xffffffff\n      and\n      jump\t// in\n    tag_207:\n        /* \"contracts/Dex.sol\":3019:3034  trader_balances */\n      0x03\n        /* \"contracts/Dex.sol\":3019:3046  trader_balances[msg.sender] */\n      0x00\n        /* \"contracts/Dex.sol\":3035:3045  msg.sender */\n      caller\n        /* \"contracts/Dex.sol\":3019:3046  trader_balances[msg.sender] */\n      0xffffffffffffffffffffffffffffffffffffffff\n      and\n      0xffffffffffffffffffffffffffffffffffffffff\n      and\n      dup2\n      mstore\n      0x20\n      add\n      swap1\n      dup2\n      mstore\n      0x20\n      add\n      0x00\n      keccak256\n        /* \"contracts/Dex.sol\":3019:3054  trader_balances[msg.sender][ticker] */\n      0x00\n        /* \"contracts/Dex.sol\":3047:3053  ticker */\n      dup5\n        /* \"contracts/Dex.sol\":3019:3054  trader_balances[msg.sender][ticker] */\n      dup2\n      mstore\n      0x20\n      add\n      swap1\n      dup2\n      mstore\n      0x20\n      add\n      0x00\n      keccak256\n        /* \"contracts/Dex.sol\":3019:3126  trader_balances[msg.sender][ticker] = trader_balances[msg.sender][... */\n      dup2\n      swap1\n      sstore\n      pop\n        /* \"contracts/Dex.sol\":3278:3284  tokens */\n      0x00\n        /* \"contracts/Dex.sol\":3278:3292  tokens[ticker] */\n      dup1\n        /* \"contracts/Dex.sol\":3285:3291  ticker */\n      dup4\n        /* \"contracts/Dex.sol\":3278:3292  tokens[ticker] */\n      dup2\n      mstore\n      0x20\n      add\n      swap1\n      dup2\n      mstore\n      0x20\n      add\n      0x00\n      keccak256\n        /* \"contracts/Dex.sol\":3278:3306  tokens[ticker].token_address */\n      0x01\n      add\n      0x00\n      swap1\n      sload\n      swap1\n      0x0100\n      exp\n      swap1\n      div\n      0xffffffffffffffffffffffffffffffffffffffff\n      and\n        /* \"contracts/Dex.sol\":3271:3316  IERC20(tokens[ticker].token_address).transfer */\n      0xffffffffffffffffffffffffffffffffffffffff\n      and\n      0xa9059cbb\n        /* \"contracts/Dex.sol\":3317:3327  msg.sender */\n      caller\n        /* \"contracts/Dex.sol\":3329:3335  amount */\n      dup6\n        /* \"contracts/Dex.sol\":3271:3336  IERC20(tokens[ticker].token_address).transfer(msg.sender, amount) */\n      mload(0x40)\n      dup4\n      0xffffffff\n      and\n      0xe0\n      shl\n      dup2\n      mstore\n      0x04\n      add\n      tag_208\n      swap3\n      swap2\n      swap1\n      tag_209\n      jump\t// in\n    tag_208:\n      0x20\n      mload(0x40)\n      dup1\n      dup4\n      sub\n      dup2\n      0x00\n      dup8\n      dup1\n      extcodesize\n      iszero\n      dup1\n      iszero\n      tag_210\n      jumpi\n      0x00\n      dup1\n      revert\n    tag_210:\n      pop\n      gas\n      call\n      iszero\n      dup1\n      iszero\n      tag_212\n      jumpi\n      returndatasize\n      0x00\n      dup1\n      returndatacopy\n      revert(0x00, returndatasize)\n    tag_212:\n      pop\n      pop\n      pop\n      pop\n      mload(0x40)\n      returndatasize\n      not(0x1f)\n      0x1f\n      dup3\n      add\n      and\n      dup3\n      add\n      dup1\n      0x40\n      mstore\n      pop\n      dup2\n      add\n      swap1\n      tag_213\n      swap2\n      swap1\n      tag_214\n      jump\t// in\n    tag_213:\n      pop\n        /* \"contracts/Dex.sol\":2629:3343  function withdraw(uint256 amount, bytes32 ticker)... */\n      pop\n      pop\n      pop\n      jump\t// out\n        /* \"contracts/Dex.sol\":912:982  mapping(address => mapping(bytes32 => uint256)) public trader_balances */\n    tag_56:\n      mstore(0x20, 0x03)\n      dup2\n      0x00\n      mstore\n      mstore(0x20, keccak256(0x00, 0x40))\n      dup1\n      0x00\n      mstore\n      keccak256(0x00, 0x40)\n      0x00\n      swap2\n      pop\n      swap2\n      pop\n      pop\n      sload\n      dup2\n      jump\t// out\n        /* \"contracts/Dex.sol\":3385:4941  function create_limit_order(... */\n    tag_61:\n        /* \"contracts/Dex.sol\":3529:3535  ticker */\n      dup4\n        /* \"contracts/Dex.sol\":9269:9270  0 */\n      0x00\n        /* \"contracts/Dex.sol\":9229:9271  tokens[ticker].token_address != address(0) */\n      0xffffffffffffffffffffffffffffffffffffffff\n      and\n        /* \"contracts/Dex.sol\":9229:9235  tokens */\n      0x00\n        /* \"contracts/Dex.sol\":9229:9243  tokens[ticker] */\n      dup1\n        /* \"contracts/Dex.sol\":9236:9242  ticker */\n      dup4\n        /* \"contracts/Dex.sol\":9229:9243  tokens[ticker] */\n      dup2\n      mstore\n      0x20\n      add\n      swap1\n      dup2\n      mstore\n      0x20\n      add\n      0x00\n      keccak256\n        /* \"contracts/Dex.sol\":9229:9257  tokens[ticker].token_address */\n      0x01\n      add\n      0x00\n      swap1\n      sload\n      swap1\n      0x0100\n      exp\n      swap1\n      div\n      0xffffffffffffffffffffffffffffffffffffffff\n      and\n        /* \"contracts/Dex.sol\":9229:9271  tokens[ticker].token_address != address(0) */\n      0xffffffffffffffffffffffffffffffffffffffff\n      and\n      eq\n      iszero\n        /* \"contracts/Dex.sol\":9208:9316  require(... */\n      tag_216\n      jumpi\n      mload(0x40)\n      0x08c379a000000000000000000000000000000000000000000000000000000000\n      dup2\n      mstore\n      0x04\n      add\n      tag_217\n      swap1\n      tag_82\n      jump\t// in\n    tag_217:\n      mload(0x40)\n      dup1\n      swap2\n      sub\n      swap1\n      revert\n    tag_216:\n        /* \"contracts/Dex.sol\":3551:3557  ticker */\n      dup5\n        /* \"contracts/Dex.sol\":1353:1367  bytes32(\"DAI\") */\n      0x4441490000000000000000000000000000000000000000000000000000000000\n        /* \"contracts/Dex.sol\":9104:9110  ticker */\n      dup2\n        /* \"contracts/Dex.sol\":9104:9117  ticker != DAI */\n      eq\n      iszero\n        /* \"contracts/Dex.sol\":9096:9138  require(ticker != DAI, \"Cannot trade DAI\") */\n      tag_219\n      jumpi\n      mload(0x40)\n      0x08c379a000000000000000000000000000000000000000000000000000000000\n      dup2\n      mstore\n      0x04\n      add\n      tag_220\n      swap1\n      tag_86\n      jump\t// in\n    tag_220:\n      mload(0x40)\n      dup1\n      swap2\n      sub\n      swap1\n      revert\n    tag_219:\n        /* \"contracts/Dex.sol\":3626:3635  Side.SELL */\n      0x01\n        /* \"contracts/Dex.sol\":3618:3635  side == Side.SELL */\n      dup1\n      dup2\n      gt\n      iszero\n      tag_222\n      jumpi\n      mstore(0x00, 0x4e487b7100000000000000000000000000000000000000000000000000000000)\n      mstore(0x04, 0x21)\n      revert(0x00, 0x24)\n    tag_222:\n        /* \"contracts/Dex.sol\":3618:3622  side */\n      dup4\n        /* \"contracts/Dex.sol\":3618:3635  side == Side.SELL */\n      0x01\n      dup2\n      gt\n      iszero\n      tag_223\n      jumpi\n      mstore(0x00, 0x4e487b7100000000000000000000000000000000000000000000000000000000)\n      mstore(0x04, 0x21)\n      revert(0x00, 0x24)\n    tag_223:\n      eq\n        /* \"contracts/Dex.sol\":3614:4022  if (side == Side.SELL) {... */\n      iszero\n      tag_224\n      jumpi\n        /* \"contracts/Dex.sol\":3715:3721  amount */\n      dup5\n        /* \"contracts/Dex.sol\":3676:3691  trader_balances */\n      0x03\n        /* \"contracts/Dex.sol\":3676:3703  trader_balances[msg.sender] */\n      0x00\n        /* \"contracts/Dex.sol\":3692:3702  msg.sender */\n      caller\n        /* \"contracts/Dex.sol\":3676:3703  trader_balances[msg.sender] */\n      0xffffffffffffffffffffffffffffffffffffffff\n      and\n      0xffffffffffffffffffffffffffffffffffffffff\n      and\n      dup2\n      mstore\n      0x20\n      add\n      swap1\n      dup2\n      mstore\n      0x20\n      add\n      0x00\n      keccak256\n        /* \"contracts/Dex.sol\":3676:3711  trader_balances[msg.sender][ticker] */\n      0x00\n        /* \"contracts/Dex.sol\":3704:3710  ticker */\n      dup9\n        /* \"contracts/Dex.sol\":3676:3711  trader_balances[msg.sender][ticker] */\n      dup2\n      mstore\n      0x20\n      add\n      swap1\n      dup2\n      mstore\n      0x20\n      add\n      0x00\n      keccak256\n      sload\n        /* \"contracts/Dex.sol\":3676:3721  trader_balances[msg.sender][ticker] >= amount */\n      lt\n      iszero\n        /* \"contracts/Dex.sol\":3651:3775  require(... */\n      tag_225\n      jumpi\n      mload(0x40)\n      0x08c379a000000000000000000000000000000000000000000000000000000000\n      dup2\n      mstore\n      0x04\n      add\n      tag_226\n      swap1\n      tag_93\n      jump\t// in\n    tag_226:\n      mload(0x40)\n      dup1\n      swap2\n      sub\n      swap1\n      revert\n    tag_225:\n        /* \"contracts/Dex.sol\":3614:4022  if (side == Side.SELL) {... */\n      jump(tag_227)\n    tag_224:\n        /* \"contracts/Dex.sol\":3941:3958  amount.mul(price) */\n      tag_228\n        /* \"contracts/Dex.sol\":3952:3957  price */\n      dup5\n        /* \"contracts/Dex.sol\":3941:3947  amount */\n      dup7\n        /* \"contracts/Dex.sol\":3941:3951  amount.mul */\n      tag_133\n      swap1\n        /* \"contracts/Dex.sol\":3941:3958  amount.mul(price) */\n      swap2\n      swap1\n      0xffffffff\n      and\n      jump\t// in\n    tag_228:\n        /* \"contracts/Dex.sol\":3905:3920  trader_balances */\n      0x03\n        /* \"contracts/Dex.sol\":3905:3932  trader_balances[msg.sender] */\n      0x00\n        /* \"contracts/Dex.sol\":3921:3931  msg.sender */\n      caller\n        /* \"contracts/Dex.sol\":3905:3932  trader_balances[msg.sender] */\n      0xffffffffffffffffffffffffffffffffffffffff\n      and\n      0xffffffffffffffffffffffffffffffffffffffff\n      and\n      dup2\n      mstore\n      0x20\n      add\n      swap1\n      dup2\n      mstore\n      0x20\n      add\n      0x00\n      keccak256\n        /* \"contracts/Dex.sol\":3905:3937  trader_balances[msg.sender][DAI] */\n      0x00\n        /* \"contracts/Dex.sol\":1353:1367  bytes32(\"DAI\") */\n      0x4441490000000000000000000000000000000000000000000000000000000000\n        /* \"contracts/Dex.sol\":3905:3937  trader_balances[msg.sender][DAI] */\n      dup2\n      mstore\n      0x20\n      add\n      swap1\n      dup2\n      mstore\n      0x20\n      add\n      0x00\n      keccak256\n      sload\n        /* \"contracts/Dex.sol\":3905:3958  trader_balances[msg.sender][DAI] >= amount.mul(price) */\n      lt\n      iszero\n        /* \"contracts/Dex.sol\":3880:4011  require(... */\n      tag_229\n      jumpi\n      mload(0x40)\n      0x08c379a000000000000000000000000000000000000000000000000000000000\n      dup2\n      mstore\n      0x04\n      add\n      tag_230\n      swap1\n      tag_231\n      jump\t// in\n    tag_230:\n      mload(0x40)\n      dup1\n      swap2\n      sub\n      swap1\n      revert\n    tag_229:\n        /* \"contracts/Dex.sol\":3614:4022  if (side == Side.SELL) {... */\n    tag_227:\n        /* \"contracts/Dex.sol\":4031:4053  Order[] storage orders */\n      0x00\n        /* \"contracts/Dex.sol\":4056:4066  order_book */\n      0x04\n        /* \"contracts/Dex.sol\":4056:4074  order_book[ticker] */\n      0x00\n        /* \"contracts/Dex.sol\":4067:4073  ticker */\n      dup9\n        /* \"contracts/Dex.sol\":4056:4074  order_book[ticker] */\n      dup2\n      mstore\n      0x20\n      add\n      swap1\n      dup2\n      mstore\n      0x20\n      add\n      0x00\n      keccak256\n        /* \"contracts/Dex.sol\":4056:4089  order_book[ticker][uint256(side)] */\n      0x00\n        /* \"contracts/Dex.sol\":4083:4087  side */\n      dup6\n        /* \"contracts/Dex.sol\":4075:4088  uint256(side) */\n      0x01\n      dup2\n      gt\n      iszero\n      tag_232\n      jumpi\n      mstore(0x00, 0x4e487b7100000000000000000000000000000000000000000000000000000000)\n      mstore(0x04, 0x21)\n      revert(0x00, 0x24)\n    tag_232:\n        /* \"contracts/Dex.sol\":4056:4089  order_book[ticker][uint256(side)] */\n      dup2\n      mstore\n      0x20\n      add\n      swap1\n      dup2\n      mstore\n      0x20\n      add\n      0x00\n      keccak256\n        /* \"contracts/Dex.sol\":4031:4089  Order[] storage orders = order_book[ticker][uint256(side)] */\n      swap1\n      pop\n        /* \"contracts/Dex.sol\":4099:4105  orders */\n      dup1\n        /* \"contracts/Dex.sol\":4124:4347  Order(... */\n      mload(0x40)\n      dup1\n      0x0100\n      add\n      0x40\n      mstore\n      dup1\n        /* \"contracts/Dex.sol\":4147:4160  next_order_id */\n      sload(0x05)\n        /* \"contracts/Dex.sol\":4124:4347  Order(... */\n      dup2\n      mstore\n      0x20\n      add\n        /* \"contracts/Dex.sol\":4178:4188  msg.sender */\n      caller\n        /* \"contracts/Dex.sol\":4124:4347  Order(... */\n      0xffffffffffffffffffffffffffffffffffffffff\n      and\n      dup2\n      mstore\n      0x20\n      add\n        /* \"contracts/Dex.sol\":4206:4210  side */\n      dup7\n        /* \"contracts/Dex.sol\":4124:4347  Order(... */\n      0x01\n      dup2\n      gt\n      iszero\n      tag_233\n      jumpi\n      mstore(0x00, 0x4e487b7100000000000000000000000000000000000000000000000000000000)\n      mstore(0x04, 0x21)\n      revert(0x00, 0x24)\n    tag_233:\n      dup2\n      mstore\n      0x20\n      add\n        /* \"contracts/Dex.sol\":4228:4234  ticker */\n      dup10\n        /* \"contracts/Dex.sol\":4124:4347  Order(... */\n      dup2\n      mstore\n      0x20\n      add\n        /* \"contracts/Dex.sol\":4252:4258  amount */\n      dup9\n        /* \"contracts/Dex.sol\":4124:4347  Order(... */\n      dup2\n      mstore\n      0x20\n      add\n        /* \"contracts/Dex.sol\":4276:4277  0 */\n      0x00\n        /* \"contracts/Dex.sol\":4124:4347  Order(... */\n      dup2\n      mstore\n      0x20\n      add\n        /* \"contracts/Dex.sol\":4295:4300  price */\n      dup8\n        /* \"contracts/Dex.sol\":4124:4347  Order(... */\n      dup2\n      mstore\n      0x20\n      add\n        /* \"contracts/Dex.sol\":4318:4333  block.timestamp */\n      timestamp\n        /* \"contracts/Dex.sol\":4124:4347  Order(... */\n      dup2\n      mstore\n      pop\n        /* \"contracts/Dex.sol\":4099:4357  orders.push(... */\n      swap1\n      dup1\n      0x01\n      dup2\n      sload\n      add\n      dup1\n      dup3\n      sstore\n      dup1\n      swap2\n      pop\n      pop\n      0x01\n      swap1\n      sub\n      swap1\n      0x00\n      mstore\n      keccak256(0x00, 0x20)\n      swap1\n      0x07\n      mul\n      add\n      0x00\n      swap1\n      swap2\n      swap1\n      swap2\n      swap1\n      swap2\n      pop\n      0x00\n      dup3\n      add\n      mload\n      dup2\n      0x00\n      add\n      sstore\n      0x20\n      dup3\n      add\n      mload\n      dup2\n      0x01\n      add\n      exp(0x0100, 0x00)\n      dup2\n      sload\n      dup2\n      0xffffffffffffffffffffffffffffffffffffffff\n      mul\n      not\n      and\n      swap1\n      dup4\n      0xffffffffffffffffffffffffffffffffffffffff\n      and\n      mul\n      or\n      swap1\n      sstore\n      pop\n      0x40\n      dup3\n      add\n      mload\n      dup2\n      0x01\n      add\n      exp(0x0100, 0x14)\n      dup2\n      sload\n      dup2\n      0xff\n      mul\n      not\n      and\n      swap1\n      dup4\n      0x01\n      dup2\n      gt\n      iszero\n      tag_235\n      jumpi\n      mstore(0x00, 0x4e487b7100000000000000000000000000000000000000000000000000000000)\n      mstore(0x04, 0x21)\n      revert(0x00, 0x24)\n    tag_235:\n      mul\n      or\n      swap1\n      sstore\n      pop\n      0x60\n      dup3\n      add\n      mload\n      dup2\n      0x02\n      add\n      sstore\n      0x80\n      dup3\n      add\n      mload\n      dup2\n      0x03\n      add\n      sstore\n      0xa0\n      dup3\n      add\n      mload\n      dup2\n      0x04\n      add\n      sstore\n      0xc0\n      dup3\n      add\n      mload\n      dup2\n      0x05\n      add\n      sstore\n      0xe0\n      dup3\n      add\n      mload\n      dup2\n      0x06\n      add\n      sstore\n      pop\n      pop\n        /* \"contracts/Dex.sol\":4368:4377  uint256 i */\n      0x00\n        /* \"contracts/Dex.sol\":4396:4397  0 */\n      dup1\n        /* \"contracts/Dex.sol\":4380:4386  orders */\n      dup3\n        /* \"contracts/Dex.sol\":4380:4393  orders.length */\n      dup1\n      sload\n      swap1\n      pop\n        /* \"contracts/Dex.sol\":4380:4397  orders.length > 0 */\n      gt\n        /* \"contracts/Dex.sol\":4380:4421  orders.length > 0 ? orders.length - 1 : 0 */\n      tag_236\n      jumpi\n        /* \"contracts/Dex.sol\":4420:4421  0 */\n      0x00\n        /* \"contracts/Dex.sol\":4380:4421  orders.length > 0 ? orders.length - 1 : 0 */\n      jump(tag_237)\n    tag_236:\n        /* \"contracts/Dex.sol\":4416:4417  1 */\n      0x01\n        /* \"contracts/Dex.sol\":4400:4406  orders */\n      dup3\n        /* \"contracts/Dex.sol\":4400:4413  orders.length */\n      dup1\n      sload\n      swap1\n      pop\n        /* \"contracts/Dex.sol\":4400:4417  orders.length - 1 */\n      tag_238\n      swap2\n      swap1\n      tag_188\n      jump\t// in\n    tag_238:\n        /* \"contracts/Dex.sol\":4380:4421  orders.length > 0 ? orders.length - 1 : 0 */\n    tag_237:\n        /* \"contracts/Dex.sol\":4368:4421  uint256 i = orders.length > 0 ? orders.length - 1 : 0 */\n      swap1\n      pop\n        /* \"contracts/Dex.sol\":4491:4889  while (i > 0) {... */\n    tag_239:\n        /* \"contracts/Dex.sol\":4502:4503  0 */\n      0x00\n        /* \"contracts/Dex.sol\":4498:4499  i */\n      dup2\n        /* \"contracts/Dex.sol\":4498:4503  i > 0 */\n      gt\n        /* \"contracts/Dex.sol\":4491:4889  while (i > 0) {... */\n      iszero\n      tag_240\n      jumpi\n        /* \"contracts/Dex.sol\":4531:4539  Side.BUY */\n      0x00\n        /* \"contracts/Dex.sol\":4523:4539  side == Side.BUY */\n      0x01\n      dup2\n      gt\n      iszero\n      tag_241\n      jumpi\n      mstore(0x00, 0x4e487b7100000000000000000000000000000000000000000000000000000000)\n      mstore(0x04, 0x21)\n      revert(0x00, 0x24)\n    tag_241:\n        /* \"contracts/Dex.sol\":4523:4527  side */\n      dup6\n        /* \"contracts/Dex.sol\":4523:4539  side == Side.BUY */\n      0x01\n      dup2\n      gt\n      iszero\n      tag_242\n      jumpi\n      mstore(0x00, 0x4e487b7100000000000000000000000000000000000000000000000000000000)\n      mstore(0x04, 0x21)\n      revert(0x00, 0x24)\n    tag_242:\n      eq\n        /* \"contracts/Dex.sol\":4523:4580  side == Side.BUY && orders[i - 1].price > orders[i].price */\n      dup1\n      iszero\n      tag_243\n      jumpi\n      pop\n        /* \"contracts/Dex.sol\":4565:4571  orders */\n      dup2\n        /* \"contracts/Dex.sol\":4572:4573  i */\n      dup2\n        /* \"contracts/Dex.sol\":4565:4574  orders[i] */\n      dup2\n      sload\n      dup2\n      lt\n      tag_244\n      jumpi\n      mstore(0x00, 0x4e487b7100000000000000000000000000000000000000000000000000000000)\n      mstore(0x04, 0x32)\n      revert(0x00, 0x24)\n    tag_244:\n      swap1\n      0x00\n      mstore\n      keccak256(0x00, 0x20)\n      swap1\n      0x07\n      mul\n      add\n        /* \"contracts/Dex.sol\":4565:4580  orders[i].price */\n      0x05\n      add\n      sload\n        /* \"contracts/Dex.sol\":4543:4549  orders */\n      dup3\n        /* \"contracts/Dex.sol\":4554:4555  1 */\n      0x01\n        /* \"contracts/Dex.sol\":4550:4551  i */\n      dup4\n        /* \"contracts/Dex.sol\":4550:4555  i - 1 */\n      tag_246\n      swap2\n      swap1\n      tag_188\n      jump\t// in\n    tag_246:\n        /* \"contracts/Dex.sol\":4543:4556  orders[i - 1] */\n      dup2\n      sload\n      dup2\n      lt\n      tag_247\n      jumpi\n      mstore(0x00, 0x4e487b7100000000000000000000000000000000000000000000000000000000)\n      mstore(0x04, 0x32)\n      revert(0x00, 0x24)\n    tag_247:\n      swap1\n      0x00\n      mstore\n      keccak256(0x00, 0x20)\n      swap1\n      0x07\n      mul\n      add\n        /* \"contracts/Dex.sol\":4543:4562  orders[i - 1].price */\n      0x05\n      add\n      sload\n        /* \"contracts/Dex.sol\":4543:4580  orders[i - 1].price > orders[i].price */\n      gt\n        /* \"contracts/Dex.sol\":4523:4580  side == Side.BUY && orders[i - 1].price > orders[i].price */\n    tag_243:\n        /* \"contracts/Dex.sol\":4519:4620  if (side == Side.BUY && orders[i - 1].price > orders[i].price) {... */\n      iszero\n      tag_249\n      jumpi\n        /* \"contracts/Dex.sol\":4600:4605  break */\n      jump(tag_240)\n        /* \"contracts/Dex.sol\":4519:4620  if (side == Side.BUY && orders[i - 1].price > orders[i].price) {... */\n    tag_249:\n        /* \"contracts/Dex.sol\":4645:4654  Side.SELL */\n      0x01\n        /* \"contracts/Dex.sol\":4637:4654  side == Side.SELL */\n      dup1\n      dup2\n      gt\n      iszero\n      tag_250\n      jumpi\n      mstore(0x00, 0x4e487b7100000000000000000000000000000000000000000000000000000000)\n      mstore(0x04, 0x21)\n      revert(0x00, 0x24)\n    tag_250:\n        /* \"contracts/Dex.sol\":4637:4641  side */\n      dup6\n        /* \"contracts/Dex.sol\":4637:4654  side == Side.SELL */\n      0x01\n      dup2\n      gt\n      iszero\n      tag_251\n      jumpi\n      mstore(0x00, 0x4e487b7100000000000000000000000000000000000000000000000000000000)\n      mstore(0x04, 0x21)\n      revert(0x00, 0x24)\n    tag_251:\n      eq\n        /* \"contracts/Dex.sol\":4637:4695  side == Side.SELL && orders[i - 1].price < orders[i].price */\n      dup1\n      iszero\n      tag_252\n      jumpi\n      pop\n        /* \"contracts/Dex.sol\":4680:4686  orders */\n      dup2\n        /* \"contracts/Dex.sol\":4687:4688  i */\n      dup2\n        /* \"contracts/Dex.sol\":4680:4689  orders[i] */\n      dup2\n      sload\n      dup2\n      lt\n      tag_253\n      jumpi\n      mstore(0x00, 0x4e487b7100000000000000000000000000000000000000000000000000000000)\n      mstore(0x04, 0x32)\n      revert(0x00, 0x24)\n    tag_253:\n      swap1\n      0x00\n      mstore\n      keccak256(0x00, 0x20)\n      swap1\n      0x07\n      mul\n      add\n        /* \"contracts/Dex.sol\":4680:4695  orders[i].price */\n      0x05\n      add\n      sload\n        /* \"contracts/Dex.sol\":4658:4664  orders */\n      dup3\n        /* \"contracts/Dex.sol\":4669:4670  1 */\n      0x01\n        /* \"contracts/Dex.sol\":4665:4666  i */\n      dup4\n        /* \"contracts/Dex.sol\":4665:4670  i - 1 */\n      tag_255\n      swap2\n      swap1\n      tag_188\n      jump\t// in\n    tag_255:\n        /* \"contracts/Dex.sol\":4658:4671  orders[i - 1] */\n      dup2\n      sload\n      dup2\n      lt\n      tag_256\n      jumpi\n      mstore(0x00, 0x4e487b7100000000000000000000000000000000000000000000000000000000)\n      mstore(0x04, 0x32)\n      revert(0x00, 0x24)\n    tag_256:\n      swap1\n      0x00\n      mstore\n      keccak256(0x00, 0x20)\n      swap1\n      0x07\n      mul\n      add\n        /* \"contracts/Dex.sol\":4658:4677  orders[i - 1].price */\n      0x05\n      add\n      sload\n        /* \"contracts/Dex.sol\":4658:4695  orders[i - 1].price < orders[i].price */\n      lt\n        /* \"contracts/Dex.sol\":4637:4695  side == Side.SELL && orders[i - 1].price < orders[i].price */\n    tag_252:\n        /* \"contracts/Dex.sol\":4633:4735  if (side == Side.SELL && orders[i - 1].price < orders[i].price) {... */\n      iszero\n      tag_258\n      jumpi\n        /* \"contracts/Dex.sol\":4715:4720  break */\n      jump(tag_240)\n        /* \"contracts/Dex.sol\":4633:4735  if (side == Side.SELL && orders[i - 1].price < orders[i].price) {... */\n    tag_258:\n        /* \"contracts/Dex.sol\":4748:4766  Order memory order */\n      0x00\n        /* \"contracts/Dex.sol\":4769:4775  orders */\n      dup3\n        /* \"contracts/Dex.sol\":4780:4781  1 */\n      0x01\n        /* \"contracts/Dex.sol\":4776:4777  i */\n      dup4\n        /* \"contracts/Dex.sol\":4776:4781  i - 1 */\n      tag_259\n      swap2\n      swap1\n      tag_188\n      jump\t// in\n    tag_259:\n        /* \"contracts/Dex.sol\":4769:4782  orders[i - 1] */\n      dup2\n      sload\n      dup2\n      lt\n      tag_260\n      jumpi\n      mstore(0x00, 0x4e487b7100000000000000000000000000000000000000000000000000000000)\n      mstore(0x04, 0x32)\n      revert(0x00, 0x24)\n    tag_260:\n      swap1\n      0x00\n      mstore\n      keccak256(0x00, 0x20)\n      swap1\n      0x07\n      mul\n      add\n        /* \"contracts/Dex.sol\":4748:4782  Order memory order = orders[i - 1] */\n      mload(0x40)\n      dup1\n      0x0100\n      add\n      0x40\n      mstore\n      swap1\n      dup2\n      0x00\n      dup3\n      add\n      sload\n      dup2\n      mstore\n      0x20\n      add\n      0x01\n      dup3\n      add\n      0x00\n      swap1\n      sload\n      swap1\n      0x0100\n      exp\n      swap1\n      div\n      0xffffffffffffffffffffffffffffffffffffffff\n      and\n      0xffffffffffffffffffffffffffffffffffffffff\n      and\n      0xffffffffffffffffffffffffffffffffffffffff\n      and\n      dup2\n      mstore\n      0x20\n      add\n      0x01\n      dup3\n      add\n      0x14\n      swap1\n      sload\n      swap1\n      0x0100\n      exp\n      swap1\n      div\n      0xff\n      and\n      0x01\n      dup2\n      gt\n      iszero\n      tag_262\n      jumpi\n      mstore(0x00, 0x4e487b7100000000000000000000000000000000000000000000000000000000)\n      mstore(0x04, 0x21)\n      revert(0x00, 0x24)\n    tag_262:\n      0x01\n      dup2\n      gt\n      iszero\n      tag_263\n      jumpi\n      mstore(0x00, 0x4e487b7100000000000000000000000000000000000000000000000000000000)\n      mstore(0x04, 0x21)\n      revert(0x00, 0x24)\n    tag_263:\n      dup2\n      mstore\n      0x20\n      add\n      0x02\n      dup3\n      add\n      sload\n      dup2\n      mstore\n      0x20\n      add\n      0x03\n      dup3\n      add\n      sload\n      dup2\n      mstore\n      0x20\n      add\n      0x04\n      dup3\n      add\n      sload\n      dup2\n      mstore\n      0x20\n      add\n      0x05\n      dup3\n      add\n      sload\n      dup2\n      mstore\n      0x20\n      add\n      0x06\n      dup3\n      add\n      sload\n      dup2\n      mstore\n      pop\n      pop\n      swap1\n      pop\n        /* \"contracts/Dex.sol\":4812:4818  orders */\n      dup3\n        /* \"contracts/Dex.sol\":4819:4820  i */\n      dup3\n        /* \"contracts/Dex.sol\":4812:4821  orders[i] */\n      dup2\n      sload\n      dup2\n      lt\n      tag_264\n      jumpi\n      mstore(0x00, 0x4e487b7100000000000000000000000000000000000000000000000000000000)\n      mstore(0x04, 0x32)\n      revert(0x00, 0x24)\n    tag_264:\n      swap1\n      0x00\n      mstore\n      keccak256(0x00, 0x20)\n      swap1\n      0x07\n      mul\n      add\n        /* \"contracts/Dex.sol\":4796:4802  orders */\n      dup4\n        /* \"contracts/Dex.sol\":4807:4808  1 */\n      0x01\n        /* \"contracts/Dex.sol\":4803:4804  i */\n      dup5\n        /* \"contracts/Dex.sol\":4803:4808  i - 1 */\n      tag_266\n      swap2\n      swap1\n      tag_188\n      jump\t// in\n    tag_266:\n        /* \"contracts/Dex.sol\":4796:4809  orders[i - 1] */\n      dup2\n      sload\n      dup2\n      lt\n      tag_267\n      jumpi\n      mstore(0x00, 0x4e487b7100000000000000000000000000000000000000000000000000000000)\n      mstore(0x04, 0x32)\n      revert(0x00, 0x24)\n    tag_267:\n      swap1\n      0x00\n      mstore\n      keccak256(0x00, 0x20)\n      swap1\n      0x07\n      mul\n      add\n        /* \"contracts/Dex.sol\":4796:4821  orders[i - 1] = orders[i] */\n      0x00\n      dup3\n      add\n      sload\n      dup2\n      0x00\n      add\n      sstore\n      0x01\n      dup3\n      add\n      0x00\n      swap1\n      sload\n      swap1\n      0x0100\n      exp\n      swap1\n      div\n      0xffffffffffffffffffffffffffffffffffffffff\n      and\n      dup2\n      0x01\n      add\n      exp(0x0100, 0x00)\n      dup2\n      sload\n      dup2\n      0xffffffffffffffffffffffffffffffffffffffff\n      mul\n      not\n      and\n      swap1\n      dup4\n      0xffffffffffffffffffffffffffffffffffffffff\n      and\n      mul\n      or\n      swap1\n      sstore\n      pop\n      0x01\n      dup3\n      add\n      0x14\n      swap1\n      sload\n      swap1\n      0x0100\n      exp\n      swap1\n      div\n      0xff\n      and\n      dup2\n      0x01\n      add\n      exp(0x0100, 0x14)\n      dup2\n      sload\n      dup2\n      0xff\n      mul\n      not\n      and\n      swap1\n      dup4\n      0x01\n      dup2\n      gt\n      iszero\n      tag_269\n      jumpi\n      mstore(0x00, 0x4e487b7100000000000000000000000000000000000000000000000000000000)\n      mstore(0x04, 0x21)\n      revert(0x00, 0x24)\n    tag_269:\n      mul\n      or\n      swap1\n      sstore\n      pop\n      0x02\n      dup3\n      add\n      sload\n      dup2\n      0x02\n      add\n      sstore\n      0x03\n      dup3\n      add\n      sload\n      dup2\n      0x03\n      add\n      sstore\n      0x04\n      dup3\n      add\n      sload\n      dup2\n      0x04\n      add\n      sstore\n      0x05\n      dup3\n      add\n      sload\n      dup2\n      0x05\n      add\n      sstore\n      0x06\n      dup3\n      add\n      sload\n      dup2\n      0x06\n      add\n      sstore\n      swap1\n      pop\n      pop\n        /* \"contracts/Dex.sol\":4847:4852  order */\n      dup1\n        /* \"contracts/Dex.sol\":4835:4841  orders */\n      dup4\n        /* \"contracts/Dex.sol\":4842:4843  i */\n      dup4\n        /* \"contracts/Dex.sol\":4835:4844  orders[i] */\n      dup2\n      sload\n      dup2\n      lt\n      tag_270\n      jumpi\n      mstore(0x00, 0x4e487b7100000000000000000000000000000000000000000000000000000000)\n      mstore(0x04, 0x32)\n      revert(0x00, 0x24)\n    tag_270:\n      swap1\n      0x00\n      mstore\n      keccak256(0x00, 0x20)\n      swap1\n      0x07\n      mul\n      add\n        /* \"contracts/Dex.sol\":4835:4852  orders[i] = order */\n      0x00\n      dup3\n      add\n      mload\n      dup2\n      0x00\n      add\n      sstore\n      0x20\n      dup3\n      add\n      mload\n      dup2\n      0x01\n      add\n      exp(0x0100, 0x00)\n      dup2\n      sload\n      dup2\n      0xffffffffffffffffffffffffffffffffffffffff\n      mul\n      not\n      and\n      swap1\n      dup4\n      0xffffffffffffffffffffffffffffffffffffffff\n      and\n      mul\n      or\n      swap1\n      sstore\n      pop\n      0x40\n      dup3\n      add\n      mload\n      dup2\n      0x01\n      add\n      exp(0x0100, 0x14)\n      dup2\n      sload\n      dup2\n      0xff\n      mul\n      not\n      and\n      swap1\n      dup4\n      0x01\n      dup2\n      gt\n      iszero\n      tag_272\n      jumpi\n      mstore(0x00, 0x4e487b7100000000000000000000000000000000000000000000000000000000)\n      mstore(0x04, 0x21)\n      revert(0x00, 0x24)\n    tag_272:\n      mul\n      or\n      swap1\n      sstore\n      pop\n      0x60\n      dup3\n      add\n      mload\n      dup2\n      0x02\n      add\n      sstore\n      0x80\n      dup3\n      add\n      mload\n      dup2\n      0x03\n      add\n      sstore\n      0xa0\n      dup3\n      add\n      mload\n      dup2\n      0x04\n      add\n      sstore\n      0xc0\n      dup3\n      add\n      mload\n      dup2\n      0x05\n      add\n      sstore\n      0xe0\n      dup3\n      add\n      mload\n      dup2\n      0x06\n      add\n      sstore\n      swap1\n      pop\n      pop\n        /* \"contracts/Dex.sol\":4870:4878  i.sub(1) */\n      tag_273\n        /* \"contracts/Dex.sol\":4876:4877  1 */\n      0x01\n        /* \"contracts/Dex.sol\":4870:4871  i */\n      dup4\n        /* \"contracts/Dex.sol\":4870:4875  i.sub */\n      tag_107\n      swap1\n        /* \"contracts/Dex.sol\":4870:4878  i.sub(1) */\n      swap2\n      swap1\n      0xffffffff\n      and\n      jump\t// in\n    tag_273:\n        /* \"contracts/Dex.sol\":4866:4878  i = i.sub(1) */\n      swap2\n      pop\n        /* \"contracts/Dex.sol\":4491:4889  while (i > 0) {... */\n      pop\n      jump(tag_239)\n    tag_240:\n        /* \"contracts/Dex.sol\":4914:4934  next_order_id.add(1) */\n      tag_274\n        /* \"contracts/Dex.sol\":4932:4933  1 */\n      0x01\n        /* \"contracts/Dex.sol\":4914:4927  next_order_id */\n      sload(0x05)\n        /* \"contracts/Dex.sol\":4914:4931  next_order_id.add */\n      tag_114\n      swap1\n        /* \"contracts/Dex.sol\":4914:4934  next_order_id.add(1) */\n      swap2\n      swap1\n      0xffffffff\n      and\n      jump\t// in\n    tag_274:\n        /* \"contracts/Dex.sol\":4898:4911  next_order_id */\n      0x05\n        /* \"contracts/Dex.sol\":4898:4934  next_order_id = next_order_id.add(1) */\n      dup2\n      swap1\n      sstore\n      pop\n        /* \"contracts/Dex.sol\":9148:9149  _ */\n      pop\n      pop\n        /* \"contracts/Dex.sol\":9326:9327  _ */\n      pop\n        /* \"contracts/Dex.sol\":3385:4941  function create_limit_order(... */\n      pop\n      pop\n      pop\n      pop\n      pop\n      jump\t// out\n        /* \"contracts/Dex.sol\":2074:2584  function deposit(uint256 amount, bytes32 ticker)... */\n    tag_64:\n        /* \"contracts/Dex.sol\":2159:2165  ticker */\n      dup1\n        /* \"contracts/Dex.sol\":9269:9270  0 */\n      0x00\n        /* \"contracts/Dex.sol\":9229:9271  tokens[ticker].token_address != address(0) */\n      0xffffffffffffffffffffffffffffffffffffffff\n      and\n        /* \"contracts/Dex.sol\":9229:9235  tokens */\n      0x00\n        /* \"contracts/Dex.sol\":9229:9243  tokens[ticker] */\n      dup1\n        /* \"contracts/Dex.sol\":9236:9242  ticker */\n      dup4\n        /* \"contracts/Dex.sol\":9229:9243  tokens[ticker] */\n      dup2\n      mstore\n      0x20\n      add\n      swap1\n      dup2\n      mstore\n      0x20\n      add\n      0x00\n      keccak256\n        /* \"contracts/Dex.sol\":9229:9257  tokens[ticker].token_address */\n      0x01\n      add\n      0x00\n      swap1\n      sload\n      swap1\n      0x0100\n      exp\n      swap1\n      div\n      0xffffffffffffffffffffffffffffffffffffffff\n      and\n        /* \"contracts/Dex.sol\":9229:9271  tokens[ticker].token_address != address(0) */\n      0xffffffffffffffffffffffffffffffffffffffff\n      and\n      eq\n      iszero\n        /* \"contracts/Dex.sol\":9208:9316  require(... */\n      tag_276\n      jumpi\n      mload(0x40)\n      0x08c379a000000000000000000000000000000000000000000000000000000000\n      dup2\n      mstore\n      0x04\n      add\n      tag_277\n      swap1\n      tag_82\n      jump\t// in\n    tag_277:\n      mload(0x40)\n      dup1\n      swap2\n      sub\n      swap1\n      revert\n    tag_276:\n        /* \"contracts/Dex.sol\":2269:2275  tokens */\n      0x00\n        /* \"contracts/Dex.sol\":2269:2283  tokens[ticker] */\n      dup1\n        /* \"contracts/Dex.sol\":2276:2282  ticker */\n      dup4\n        /* \"contracts/Dex.sol\":2269:2283  tokens[ticker] */\n      dup2\n      mstore\n      0x20\n      add\n      swap1\n      dup2\n      mstore\n      0x20\n      add\n      0x00\n      keccak256\n        /* \"contracts/Dex.sol\":2269:2297  tokens[ticker].token_address */\n      0x01\n      add\n      0x00\n      swap1\n      sload\n      swap1\n      0x0100\n      exp\n      swap1\n      div\n      0xffffffffffffffffffffffffffffffffffffffff\n      and\n        /* \"contracts/Dex.sol\":2262:2311  IERC20(tokens[ticker].token_address).transferFrom */\n      0xffffffffffffffffffffffffffffffffffffffff\n      and\n      0x23b872dd\n        /* \"contracts/Dex.sol\":2325:2335  msg.sender */\n      caller\n        /* \"contracts/Dex.sol\":2357:2361  this */\n      address\n        /* \"contracts/Dex.sol\":2376:2382  amount */\n      dup7\n        /* \"contracts/Dex.sol\":2262:2392  IERC20(tokens[ticker].token_address).transferFrom(... */\n      mload(0x40)\n      dup5\n      0xffffffff\n      and\n      0xe0\n      shl\n      dup2\n      mstore\n      0x04\n      add\n      tag_279\n      swap4\n      swap3\n      swap2\n      swap1\n      tag_280\n      jump\t// in\n    tag_279:\n      0x20\n      mload(0x40)\n      dup1\n      dup4\n      sub\n      dup2\n      0x00\n      dup8\n      dup1\n      extcodesize\n      iszero\n      dup1\n      iszero\n      tag_281\n      jumpi\n      0x00\n      dup1\n      revert\n    tag_281:\n      pop\n      gas\n      call\n      iszero\n      dup1\n      iszero\n      tag_283\n      jumpi\n      returndatasize\n      0x00\n      dup1\n      returndatacopy\n      revert(0x00, returndatasize)\n    tag_283:\n      pop\n      pop\n      pop\n      pop\n      mload(0x40)\n      returndatasize\n      not(0x1f)\n      0x1f\n      dup3\n      add\n      and\n      dup3\n      add\n      dup1\n      0x40\n      mstore\n      pop\n      dup2\n      add\n      swap1\n      tag_284\n      swap2\n      swap1\n      tag_214\n      jump\t// in\n    tag_284:\n      pop\n        /* \"contracts/Dex.sol\":2508:2577  trader_balances[msg.sender][... */\n      tag_285\n        /* \"contracts/Dex.sol\":2570:2576  amount */\n      dup4\n        /* \"contracts/Dex.sol\":2508:2523  trader_balances */\n      0x03\n        /* \"contracts/Dex.sol\":2508:2535  trader_balances[msg.sender] */\n      0x00\n        /* \"contracts/Dex.sol\":2524:2534  msg.sender */\n      caller\n        /* \"contracts/Dex.sol\":2508:2535  trader_balances[msg.sender] */\n      0xffffffffffffffffffffffffffffffffffffffff\n      and\n      0xffffffffffffffffffffffffffffffffffffffff\n      and\n      dup2\n      mstore\n      0x20\n      add\n      swap1\n      dup2\n      mstore\n      0x20\n      add\n      0x00\n      keccak256\n        /* \"contracts/Dex.sol\":2508:2565  trader_balances[msg.sender][... */\n      0x00\n        /* \"contracts/Dex.sol\":2549:2555  ticker */\n      dup6\n        /* \"contracts/Dex.sol\":2508:2565  trader_balances[msg.sender][... */\n      dup2\n      mstore\n      0x20\n      add\n      swap1\n      dup2\n      mstore\n      0x20\n      add\n      0x00\n      keccak256\n      sload\n        /* \"contracts/Dex.sol\":2508:2569  trader_balances[msg.sender][... */\n      tag_114\n      swap1\n        /* \"contracts/Dex.sol\":2508:2577  trader_balances[msg.sender][... */\n      swap2\n      swap1\n      0xffffffff\n      and\n      jump\t// in\n    tag_285:\n        /* \"contracts/Dex.sol\":2470:2485  trader_balances */\n      0x03\n        /* \"contracts/Dex.sol\":2470:2497  trader_balances[msg.sender] */\n      0x00\n        /* \"contracts/Dex.sol\":2486:2496  msg.sender */\n      caller\n        /* \"contracts/Dex.sol\":2470:2497  trader_balances[msg.sender] */\n      0xffffffffffffffffffffffffffffffffffffffff\n      and\n      0xffffffffffffffffffffffffffffffffffffffff\n      and\n      dup2\n      mstore\n      0x20\n      add\n      swap1\n      dup2\n      mstore\n      0x20\n      add\n      0x00\n      keccak256\n        /* \"contracts/Dex.sol\":2470:2505  trader_balances[msg.sender][ticker] */\n      0x00\n        /* \"contracts/Dex.sol\":2498:2504  ticker */\n      dup5\n        /* \"contracts/Dex.sol\":2470:2505  trader_balances[msg.sender][ticker] */\n      dup2\n      mstore\n      0x20\n      add\n      swap1\n      dup2\n      mstore\n      0x20\n      add\n      0x00\n      keccak256\n        /* \"contracts/Dex.sol\":2470:2577  trader_balances[msg.sender][ticker] = trader_balances[msg.sender][... */\n      dup2\n      swap1\n      sstore\n      pop\n        /* \"contracts/Dex.sol\":2074:2584  function deposit(uint256 amount, bytes32 ticker)... */\n      pop\n      pop\n      pop\n      jump\t// out\n        /* \"contracts/Dex.sol\":886:906  address public admin */\n    tag_66:\n      0x02\n      0x00\n      swap1\n      sload\n      swap1\n      0x0100\n      exp\n      swap1\n      div\n      0xffffffffffffffffffffffffffffffffffffffff\n      and\n      dup2\n      jump\t// out\n        /* \"@openzeppelin/contracts/utils/math/SafeMath.sol\":3122:3218  function sub(uint256 a, uint256 b) internal pure returns (uint256) {... */\n    tag_107:\n        /* \"@openzeppelin/contracts/utils/math/SafeMath.sol\":3180:3187  uint256 */\n      0x00\n        /* \"@openzeppelin/contracts/utils/math/SafeMath.sol\":3210:3211  b */\n      dup2\n        /* \"@openzeppelin/contracts/utils/math/SafeMath.sol\":3206:3207  a */\n      dup4\n        /* \"@openzeppelin/contracts/utils/math/SafeMath.sol\":3206:3211  a - b */\n      tag_287\n      swap2\n      swap1\n      tag_188\n      jump\t// in\n    tag_287:\n        /* \"@openzeppelin/contracts/utils/math/SafeMath.sol\":3199:3211  return a - b */\n      swap1\n      pop\n        /* \"@openzeppelin/contracts/utils/math/SafeMath.sol\":3122:3218  function sub(uint256 a, uint256 b) internal pure returns (uint256) {... */\n      swap3\n      swap2\n      pop\n      pop\n      jump\t// out\n        /* \"@openzeppelin/contracts/utils/math/SafeMath.sol\":2755:2851  function add(uint256 a, uint256 b) internal pure returns (uint256) {... */\n    tag_114:\n        /* \"@openzeppelin/contracts/utils/math/SafeMath.sol\":2813:2820  uint256 */\n      0x00\n        /* \"@openzeppelin/contracts/utils/math/SafeMath.sol\":2843:2844  b */\n      dup2\n        /* \"@openzeppelin/contracts/utils/math/SafeMath.sol\":2839:2840  a */\n      dup4\n        /* \"@openzeppelin/contracts/utils/math/SafeMath.sol\":2839:2844  a + b */\n      tag_289\n      swap2\n      swap1\n      tag_190\n      jump\t// in\n    tag_289:\n        /* \"@openzeppelin/contracts/utils/math/SafeMath.sol\":2832:2844  return a + b */\n      swap1\n      pop\n        /* \"@openzeppelin/contracts/utils/math/SafeMath.sol\":2755:2851  function add(uint256 a, uint256 b) internal pure returns (uint256) {... */\n      swap3\n      swap2\n      pop\n      pop\n      jump\t// out\n        /* \"@openzeppelin/contracts/utils/math/SafeMath.sol\":3465:3561  function mul(uint256 a, uint256 b) internal pure returns (uint256) {... */\n    tag_133:\n        /* \"@openzeppelin/contracts/utils/math/SafeMath.sol\":3523:3530  uint256 */\n      0x00\n        /* \"@openzeppelin/contracts/utils/math/SafeMath.sol\":3553:3554  b */\n      dup2\n        /* \"@openzeppelin/contracts/utils/math/SafeMath.sol\":3549:3550  a */\n      dup4\n        /* \"@openzeppelin/contracts/utils/math/SafeMath.sol\":3549:3554  a * b */\n      tag_291\n      swap2\n      swap1\n      tag_153\n      jump\t// in\n    tag_291:\n        /* \"@openzeppelin/contracts/utils/math/SafeMath.sol\":3542:3554  return a * b */\n      swap1\n      pop\n        /* \"@openzeppelin/contracts/utils/math/SafeMath.sol\":3465:3561  function mul(uint256 a, uint256 b) internal pure returns (uint256) {... */\n      swap3\n      swap2\n      pop\n      pop\n      jump\t// out\n        /* \"#utility.yul\":7:146   */\n    tag_293:\n      0x00\n        /* \"#utility.yul\":91:97   */\n      dup2\n        /* \"#utility.yul\":78:98   */\n      calldataload\n        /* \"#utility.yul\":69:98   */\n      swap1\n      pop\n        /* \"#utility.yul\":107:140   */\n      tag_295\n        /* \"#utility.yul\":134:139   */\n      dup2\n        /* \"#utility.yul\":107:140   */\n      tag_296\n      jump\t// in\n    tag_295:\n        /* \"#utility.yul\":59:146   */\n      swap3\n      swap2\n      pop\n      pop\n      jump\t// out\n        /* \"#utility.yul\":152:289   */\n    tag_297:\n      0x00\n        /* \"#utility.yul\":237:243   */\n      dup2\n        /* \"#utility.yul\":231:244   */\n      mload\n        /* \"#utility.yul\":222:244   */\n      swap1\n      pop\n        /* \"#utility.yul\":253:283   */\n      tag_299\n        /* \"#utility.yul\":277:282   */\n      dup2\n        /* \"#utility.yul\":253:283   */\n      tag_300\n      jump\t// in\n    tag_299:\n        /* \"#utility.yul\":212:289   */\n      swap3\n      swap2\n      pop\n      pop\n      jump\t// out\n        /* \"#utility.yul\":295:434   */\n    tag_301:\n      0x00\n        /* \"#utility.yul\":379:385   */\n      dup2\n        /* \"#utility.yul\":366:386   */\n      calldataload\n        /* \"#utility.yul\":357:386   */\n      swap1\n      pop\n        /* \"#utility.yul\":395:428   */\n      tag_303\n        /* \"#utility.yul\":422:427   */\n      dup2\n        /* \"#utility.yul\":395:428   */\n      tag_304\n      jump\t// in\n    tag_303:\n        /* \"#utility.yul\":347:434   */\n      swap3\n      swap2\n      pop\n      pop\n      jump\t// out\n        /* \"#utility.yul\":440:595   */\n    tag_305:\n      0x00\n        /* \"#utility.yul\":532:538   */\n      dup2\n        /* \"#utility.yul\":519:539   */\n      calldataload\n        /* \"#utility.yul\":510:539   */\n      swap1\n      pop\n        /* \"#utility.yul\":548:589   */\n      tag_307\n        /* \"#utility.yul\":583:588   */\n      dup2\n        /* \"#utility.yul\":548:589   */\n      tag_308\n      jump\t// in\n    tag_307:\n        /* \"#utility.yul\":500:595   */\n      swap3\n      swap2\n      pop\n      pop\n      jump\t// out\n        /* \"#utility.yul\":601:740   */\n    tag_309:\n      0x00\n        /* \"#utility.yul\":685:691   */\n      dup2\n        /* \"#utility.yul\":672:692   */\n      calldataload\n        /* \"#utility.yul\":663:692   */\n      swap1\n      pop\n        /* \"#utility.yul\":701:734   */\n      tag_311\n        /* \"#utility.yul\":728:733   */\n      dup2\n        /* \"#utility.yul\":701:734   */\n      tag_312\n      jump\t// in\n    tag_311:\n        /* \"#utility.yul\":653:740   */\n      swap3\n      swap2\n      pop\n      pop\n      jump\t// out\n        /* \"#utility.yul\":746:1153   */\n    tag_55:\n      0x00\n      dup1\n        /* \"#utility.yul\":871:873   */\n      0x40\n        /* \"#utility.yul\":859:868   */\n      dup4\n        /* \"#utility.yul\":850:857   */\n      dup6\n        /* \"#utility.yul\":846:869   */\n      sub\n        /* \"#utility.yul\":842:874   */\n      slt\n        /* \"#utility.yul\":839:841   */\n      iszero\n      tag_314\n      jumpi\n        /* \"#utility.yul\":887:888   */\n      0x00\n        /* \"#utility.yul\":884:885   */\n      dup1\n        /* \"#utility.yul\":877:889   */\n      revert\n        /* \"#utility.yul\":839:841   */\n    tag_314:\n        /* \"#utility.yul\":930:931   */\n      0x00\n        /* \"#utility.yul\":955:1008   */\n      tag_315\n        /* \"#utility.yul\":1000:1007   */\n      dup6\n        /* \"#utility.yul\":991:997   */\n      dup3\n        /* \"#utility.yul\":980:989   */\n      dup7\n        /* \"#utility.yul\":976:998   */\n      add\n        /* \"#utility.yul\":955:1008   */\n      tag_293\n      jump\t// in\n    tag_315:\n        /* \"#utility.yul\":945:1008   */\n      swap3\n      pop\n        /* \"#utility.yul\":901:1018   */\n      pop\n        /* \"#utility.yul\":1057:1059   */\n      0x20\n        /* \"#utility.yul\":1083:1136   */\n      tag_316\n        /* \"#utility.yul\":1128:1135   */\n      dup6\n        /* \"#utility.yul\":1119:1125   */\n      dup3\n        /* \"#utility.yul\":1108:1117   */\n      dup7\n        /* \"#utility.yul\":1104:1126   */\n      add\n        /* \"#utility.yul\":1083:1136   */\n      tag_301\n      jump\t// in\n    tag_316:\n        /* \"#utility.yul\":1073:1136   */\n      swap2\n      pop\n        /* \"#utility.yul\":1028:1146   */\n      pop\n        /* \"#utility.yul\":829:1153   */\n      swap3\n      pop\n      swap3\n      swap1\n      pop\n      jump\t// out\n        /* \"#utility.yul\":1159:1437   */\n    tag_214:\n      0x00\n        /* \"#utility.yul\":1275:1277   */\n      0x20\n        /* \"#utility.yul\":1263:1272   */\n      dup3\n        /* \"#utility.yul\":1254:1261   */\n      dup5\n        /* \"#utility.yul\":1250:1273   */\n      sub\n        /* \"#utility.yul\":1246:1278   */\n      slt\n        /* \"#utility.yul\":1243:1245   */\n      iszero\n      tag_318\n      jumpi\n        /* \"#utility.yul\":1291:1292   */\n      0x00\n        /* \"#utility.yul\":1288:1289   */\n      dup1\n        /* \"#utility.yul\":1281:1293   */\n      revert\n        /* \"#utility.yul\":1243:1245   */\n    tag_318:\n        /* \"#utility.yul\":1334:1335   */\n      0x00\n        /* \"#utility.yul\":1359:1420   */\n      tag_319\n        /* \"#utility.yul\":1412:1419   */\n      dup5\n        /* \"#utility.yul\":1403:1409   */\n      dup3\n        /* \"#utility.yul\":1392:1401   */\n      dup6\n        /* \"#utility.yul\":1388:1410   */\n      add\n        /* \"#utility.yul\":1359:1420   */\n      tag_297\n      jump\t// in\n    tag_319:\n        /* \"#utility.yul\":1349:1420   */\n      swap2\n      pop\n        /* \"#utility.yul\":1305:1430   */\n      pop\n        /* \"#utility.yul\":1233:1437   */\n      swap3\n      swap2\n      pop\n      pop\n      jump\t// out\n        /* \"#utility.yul\":1443:1705   */\n    tag_42:\n      0x00\n        /* \"#utility.yul\":1551:1553   */\n      0x20\n        /* \"#utility.yul\":1539:1548   */\n      dup3\n        /* \"#utility.yul\":1530:1537   */\n      dup5\n        /* \"#utility.yul\":1526:1549   */\n      sub\n        /* \"#utility.yul\":1522:1554   */\n      slt\n        /* \"#utility.yul\":1519:1521   */\n      iszero\n      tag_321\n      jumpi\n        /* \"#utility.yul\":1567:1568   */\n      0x00\n        /* \"#utility.yul\":1564:1565   */\n      dup1\n        /* \"#utility.yul\":1557:1569   */\n      revert\n        /* \"#utility.yul\":1519:1521   */\n    tag_321:\n        /* \"#utility.yul\":1610:1611   */\n      0x00\n        /* \"#utility.yul\":1635:1688   */\n      tag_322\n        /* \"#utility.yul\":1680:1687   */\n      dup5\n        /* \"#utility.yul\":1671:1677   */\n      dup3\n        /* \"#utility.yul\":1660:1669   */\n      dup6\n        /* \"#utility.yul\":1656:1678   */\n      add\n        /* \"#utility.yul\":1635:1688   */\n      tag_301\n      jump\t// in\n    tag_322:\n        /* \"#utility.yul\":1625:1688   */\n      swap2\n      pop\n        /* \"#utility.yul\":1581:1698   */\n      pop\n        /* \"#utility.yul\":1509:1705   */\n      swap3\n      swap2\n      pop\n      pop\n      jump\t// out\n        /* \"#utility.yul\":1711:2118   */\n    tag_24:\n      0x00\n      dup1\n        /* \"#utility.yul\":1836:1838   */\n      0x40\n        /* \"#utility.yul\":1824:1833   */\n      dup4\n        /* \"#utility.yul\":1815:1822   */\n      dup6\n        /* \"#utility.yul\":1811:1834   */\n      sub\n        /* \"#utility.yul\":1807:1839   */\n      slt\n        /* \"#utility.yul\":1804:1806   */\n      iszero\n      tag_324\n      jumpi\n        /* \"#utility.yul\":1852:1853   */\n      0x00\n        /* \"#utility.yul\":1849:1850   */\n      dup1\n        /* \"#utility.yul\":1842:1854   */\n      revert\n        /* \"#utility.yul\":1804:1806   */\n    tag_324:\n        /* \"#utility.yul\":1895:1896   */\n      0x00\n        /* \"#utility.yul\":1920:1973   */\n      tag_325\n        /* \"#utility.yul\":1965:1972   */\n      dup6\n        /* \"#utility.yul\":1956:1962   */\n      dup3\n        /* \"#utility.yul\":1945:1954   */\n      dup7\n        /* \"#utility.yul\":1941:1963   */\n      add\n        /* \"#utility.yul\":1920:1973   */\n      tag_301\n      jump\t// in\n    tag_325:\n        /* \"#utility.yul\":1910:1973   */\n      swap3\n      pop\n        /* \"#utility.yul\":1866:1983   */\n      pop\n        /* \"#utility.yul\":2022:2024   */\n      0x20\n        /* \"#utility.yul\":2048:2101   */\n      tag_326\n        /* \"#utility.yul\":2093:2100   */\n      dup6\n        /* \"#utility.yul\":2084:2090   */\n      dup3\n        /* \"#utility.yul\":2073:2082   */\n      dup7\n        /* \"#utility.yul\":2069:2091   */\n      add\n        /* \"#utility.yul\":2048:2101   */\n      tag_293\n      jump\t// in\n    tag_326:\n        /* \"#utility.yul\":2038:2101   */\n      swap2\n      pop\n        /* \"#utility.yul\":1993:2111   */\n      pop\n        /* \"#utility.yul\":1794:2118   */\n      swap3\n      pop\n      swap3\n      swap1\n      pop\n      jump\t// out\n        /* \"#utility.yul\":2124:2692   */\n    tag_38:\n      0x00\n      dup1\n      0x00\n        /* \"#utility.yul\":2274:2276   */\n      0x60\n        /* \"#utility.yul\":2262:2271   */\n      dup5\n        /* \"#utility.yul\":2253:2260   */\n      dup7\n        /* \"#utility.yul\":2249:2272   */\n      sub\n        /* \"#utility.yul\":2245:2277   */\n      slt\n        /* \"#utility.yul\":2242:2244   */\n      iszero\n      tag_328\n      jumpi\n        /* \"#utility.yul\":2290:2291   */\n      0x00\n        /* \"#utility.yul\":2287:2288   */\n      dup1\n        /* \"#utility.yul\":2280:2292   */\n      revert\n        /* \"#utility.yul\":2242:2244   */\n    tag_328:\n        /* \"#utility.yul\":2333:2334   */\n      0x00\n        /* \"#utility.yul\":2358:2411   */\n      tag_329\n        /* \"#utility.yul\":2403:2410   */\n      dup7\n        /* \"#utility.yul\":2394:2400   */\n      dup3\n        /* \"#utility.yul\":2383:2392   */\n      dup8\n        /* \"#utility.yul\":2379:2401   */\n      add\n        /* \"#utility.yul\":2358:2411   */\n      tag_301\n      jump\t// in\n    tag_329:\n        /* \"#utility.yul\":2348:2411   */\n      swap4\n      pop\n        /* \"#utility.yul\":2304:2421   */\n      pop\n        /* \"#utility.yul\":2460:2462   */\n      0x20\n        /* \"#utility.yul\":2486:2539   */\n      tag_330\n        /* \"#utility.yul\":2531:2538   */\n      dup7\n        /* \"#utility.yul\":2522:2528   */\n      dup3\n        /* \"#utility.yul\":2511:2520   */\n      dup8\n        /* \"#utility.yul\":2507:2529   */\n      add\n        /* \"#utility.yul\":2486:2539   */\n      tag_309\n      jump\t// in\n    tag_330:\n        /* \"#utility.yul\":2476:2539   */\n      swap3\n      pop\n        /* \"#utility.yul\":2431:2549   */\n      pop\n        /* \"#utility.yul\":2588:2590   */\n      0x40\n        /* \"#utility.yul\":2614:2675   */\n      tag_331\n        /* \"#utility.yul\":2667:2674   */\n      dup7\n        /* \"#utility.yul\":2658:2664   */\n      dup3\n        /* \"#utility.yul\":2647:2656   */\n      dup8\n        /* \"#utility.yul\":2643:2665   */\n      add\n        /* \"#utility.yul\":2614:2675   */\n      tag_305\n      jump\t// in\n    tag_331:\n        /* \"#utility.yul\":2604:2675   */\n      swap2\n      pop\n        /* \"#utility.yul\":2559:2685   */\n      pop\n        /* \"#utility.yul\":2232:2692   */\n      swap3\n      pop\n      swap3\n      pop\n      swap3\n      jump\t// out\n        /* \"#utility.yul\":2698:3250   */\n    tag_18:\n      0x00\n      dup1\n      0x00\n        /* \"#utility.yul\":2840:2842   */\n      0x60\n        /* \"#utility.yul\":2828:2837   */\n      dup5\n        /* \"#utility.yul\":2819:2826   */\n      dup7\n        /* \"#utility.yul\":2815:2838   */\n      sub\n        /* \"#utility.yul\":2811:2843   */\n      slt\n        /* \"#utility.yul\":2808:2810   */\n      iszero\n      tag_333\n      jumpi\n        /* \"#utility.yul\":2856:2857   */\n      0x00\n        /* \"#utility.yul\":2853:2854   */\n      dup1\n        /* \"#utility.yul\":2846:2858   */\n      revert\n        /* \"#utility.yul\":2808:2810   */\n    tag_333:\n        /* \"#utility.yul\":2899:2900   */\n      0x00\n        /* \"#utility.yul\":2924:2977   */\n      tag_334\n        /* \"#utility.yul\":2969:2976   */\n      dup7\n        /* \"#utility.yul\":2960:2966   */\n      dup3\n        /* \"#utility.yul\":2949:2958   */\n      dup8\n        /* \"#utility.yul\":2945:2967   */\n      add\n        /* \"#utility.yul\":2924:2977   */\n      tag_301\n      jump\t// in\n    tag_334:\n        /* \"#utility.yul\":2914:2977   */\n      swap4\n      pop\n        /* \"#utility.yul\":2870:2987   */\n      pop\n        /* \"#utility.yul\":3026:3028   */\n      0x20\n        /* \"#utility.yul\":3052:3105   */\n      tag_335\n        /* \"#utility.yul\":3097:3104   */\n      dup7\n        /* \"#utility.yul\":3088:3094   */\n      dup3\n        /* \"#utility.yul\":3077:3086   */\n      dup8\n        /* \"#utility.yul\":3073:3095   */\n      add\n        /* \"#utility.yul\":3052:3105   */\n      tag_309\n      jump\t// in\n    tag_335:\n        /* \"#utility.yul\":3042:3105   */\n      swap3\n      pop\n        /* \"#utility.yul\":2997:3115   */\n      pop\n        /* \"#utility.yul\":3154:3156   */\n      0x40\n        /* \"#utility.yul\":3180:3233   */\n      tag_336\n        /* \"#utility.yul\":3225:3232   */\n      dup7\n        /* \"#utility.yul\":3216:3222   */\n      dup3\n        /* \"#utility.yul\":3205:3214   */\n      dup8\n        /* \"#utility.yul\":3201:3223   */\n      add\n        /* \"#utility.yul\":3180:3233   */\n      tag_309\n      jump\t// in\n    tag_336:\n        /* \"#utility.yul\":3170:3233   */\n      swap2\n      pop\n        /* \"#utility.yul\":3125:3243   */\n      pop\n        /* \"#utility.yul\":2798:3250   */\n      swap3\n      pop\n      swap3\n      pop\n      swap3\n      jump\t// out\n        /* \"#utility.yul\":3256:3970   */\n    tag_60:\n      0x00\n      dup1\n      0x00\n      dup1\n        /* \"#utility.yul\":3423:3426   */\n      0x80\n        /* \"#utility.yul\":3411:3420   */\n      dup6\n        /* \"#utility.yul\":3402:3409   */\n      dup8\n        /* \"#utility.yul\":3398:3421   */\n      sub\n        /* \"#utility.yul\":3394:3427   */\n      slt\n        /* \"#utility.yul\":3391:3393   */\n      iszero\n      tag_338\n      jumpi\n        /* \"#utility.yul\":3440:3441   */\n      0x00\n        /* \"#utility.yul\":3437:3438   */\n      dup1\n        /* \"#utility.yul\":3430:3442   */\n      revert\n        /* \"#utility.yul\":3391:3393   */\n    tag_338:\n        /* \"#utility.yul\":3483:3484   */\n      0x00\n        /* \"#utility.yul\":3508:3561   */\n      tag_339\n        /* \"#utility.yul\":3553:3560   */\n      dup8\n        /* \"#utility.yul\":3544:3550   */\n      dup3\n        /* \"#utility.yul\":3533:3542   */\n      dup9\n        /* \"#utility.yul\":3529:3551   */\n      add\n        /* \"#utility.yul\":3508:3561   */\n      tag_301\n      jump\t// in\n    tag_339:\n        /* \"#utility.yul\":3498:3561   */\n      swap5\n      pop\n        /* \"#utility.yul\":3454:3571   */\n      pop\n        /* \"#utility.yul\":3610:3612   */\n      0x20\n        /* \"#utility.yul\":3636:3689   */\n      tag_340\n        /* \"#utility.yul\":3681:3688   */\n      dup8\n        /* \"#utility.yul\":3672:3678   */\n      dup3\n        /* \"#utility.yul\":3661:3670   */\n      dup9\n        /* \"#utility.yul\":3657:3679   */\n      add\n        /* \"#utility.yul\":3636:3689   */\n      tag_309\n      jump\t// in\n    tag_340:\n        /* \"#utility.yul\":3626:3689   */\n      swap4\n      pop\n        /* \"#utility.yul\":3581:3699   */\n      pop\n        /* \"#utility.yul\":3738:3740   */\n      0x40\n        /* \"#utility.yul\":3764:3817   */\n      tag_341\n        /* \"#utility.yul\":3809:3816   */\n      dup8\n        /* \"#utility.yul\":3800:3806   */\n      dup3\n        /* \"#utility.yul\":3789:3798   */\n      dup9\n        /* \"#utility.yul\":3785:3807   */\n      add\n        /* \"#utility.yul\":3764:3817   */\n      tag_309\n      jump\t// in\n    tag_341:\n        /* \"#utility.yul\":3754:3817   */\n      swap3\n      pop\n        /* \"#utility.yul\":3709:3827   */\n      pop\n        /* \"#utility.yul\":3866:3868   */\n      0x60\n        /* \"#utility.yul\":3892:3953   */\n      tag_342\n        /* \"#utility.yul\":3945:3952   */\n      dup8\n        /* \"#utility.yul\":3936:3942   */\n      dup3\n        /* \"#utility.yul\":3925:3934   */\n      dup9\n        /* \"#utility.yul\":3921:3943   */\n      add\n        /* \"#utility.yul\":3892:3953   */\n      tag_305\n      jump\t// in\n    tag_342:\n        /* \"#utility.yul\":3882:3953   */\n      swap2\n      pop\n        /* \"#utility.yul\":3837:3963   */\n      pop\n        /* \"#utility.yul\":3381:3970   */\n      swap3\n      swap6\n      swap2\n      swap5\n      pop\n      swap3\n      pop\n      jump\t// out\n        /* \"#utility.yul\":3976:4238   */\n    tag_32:\n      0x00\n        /* \"#utility.yul\":4084:4086   */\n      0x20\n        /* \"#utility.yul\":4072:4081   */\n      dup3\n        /* \"#utility.yul\":4063:4070   */\n      dup5\n        /* \"#utility.yul\":4059:4082   */\n      sub\n        /* \"#utility.yul\":4055:4087   */\n      slt\n        /* \"#utility.yul\":4052:4054   */\n      iszero\n      tag_344\n      jumpi\n        /* \"#utility.yul\":4100:4101   */\n      0x00\n        /* \"#utility.yul\":4097:4098   */\n      dup1\n        /* \"#utility.yul\":4090:4102   */\n      revert\n        /* \"#utility.yul\":4052:4054   */\n    tag_344:\n        /* \"#utility.yul\":4143:4144   */\n      0x00\n        /* \"#utility.yul\":4168:4221   */\n      tag_345\n        /* \"#utility.yul\":4213:4220   */\n      dup5\n        /* \"#utility.yul\":4204:4210   */\n      dup3\n        /* \"#utility.yul\":4193:4202   */\n      dup6\n        /* \"#utility.yul\":4189:4211   */\n      add\n        /* \"#utility.yul\":4168:4221   */\n      tag_309\n      jump\t// in\n    tag_345:\n        /* \"#utility.yul\":4158:4221   */\n      swap2\n      pop\n        /* \"#utility.yul\":4114:4231   */\n      pop\n        /* \"#utility.yul\":4042:4238   */\n      swap3\n      swap2\n      pop\n      pop\n      jump\t// out\n        /* \"#utility.yul\":4244:4651   */\n    tag_51:\n      0x00\n      dup1\n        /* \"#utility.yul\":4369:4371   */\n      0x40\n        /* \"#utility.yul\":4357:4366   */\n      dup4\n        /* \"#utility.yul\":4348:4355   */\n      dup6\n        /* \"#utility.yul\":4344:4367   */\n      sub\n        /* \"#utility.yul\":4340:4372   */\n      slt\n        /* \"#utility.yul\":4337:4339   */\n      iszero\n      tag_347\n      jumpi\n        /* \"#utility.yul\":4385:4386   */\n      0x00\n        /* \"#utility.yul\":4382:4383   */\n      dup1\n        /* \"#utility.yul\":4375:4387   */\n      revert\n        /* \"#utility.yul\":4337:4339   */\n    tag_347:\n        /* \"#utility.yul\":4428:4429   */\n      0x00\n        /* \"#utility.yul\":4453:4506   */\n      tag_348\n        /* \"#utility.yul\":4498:4505   */\n      dup6\n        /* \"#utility.yul\":4489:4495   */\n      dup3\n        /* \"#utility.yul\":4478:4487   */\n      dup7\n        /* \"#utility.yul\":4474:4496   */\n      add\n        /* \"#utility.yul\":4453:4506   */\n      tag_309\n      jump\t// in\n    tag_348:\n        /* \"#utility.yul\":4443:4506   */\n      swap3\n      pop\n        /* \"#utility.yul\":4399:4516   */\n      pop\n        /* \"#utility.yul\":4555:4557   */\n      0x20\n        /* \"#utility.yul\":4581:4634   */\n      tag_349\n        /* \"#utility.yul\":4626:4633   */\n      dup6\n        /* \"#utility.yul\":4617:4623   */\n      dup3\n        /* \"#utility.yul\":4606:4615   */\n      dup7\n        /* \"#utility.yul\":4602:4624   */\n      add\n        /* \"#utility.yul\":4581:4634   */\n      tag_301\n      jump\t// in\n    tag_349:\n        /* \"#utility.yul\":4571:4634   */\n      swap2\n      pop\n        /* \"#utility.yul\":4526:4644   */\n      pop\n        /* \"#utility.yul\":4327:4651   */\n      swap3\n      pop\n      swap3\n      swap1\n      pop\n      jump\t// out\n        /* \"#utility.yul\":4657:4775   */\n    tag_350:\n        /* \"#utility.yul\":4744:4768   */\n      tag_352\n        /* \"#utility.yul\":4762:4767   */\n      dup2\n        /* \"#utility.yul\":4744:4768   */\n      tag_353\n      jump\t// in\n    tag_352:\n        /* \"#utility.yul\":4739:4742   */\n      dup3\n        /* \"#utility.yul\":4732:4769   */\n      mstore\n        /* \"#utility.yul\":4722:4775   */\n      pop\n      pop\n      jump\t// out\n        /* \"#utility.yul\":4781:4899   */\n    tag_354:\n        /* \"#utility.yul\":4868:4892   */\n      tag_356\n        /* \"#utility.yul\":4886:4891   */\n      dup2\n        /* \"#utility.yul\":4868:4892   */\n      tag_357\n      jump\t// in\n    tag_356:\n        /* \"#utility.yul\":4863:4866   */\n      dup3\n        /* \"#utility.yul\":4856:4893   */\n      mstore\n        /* \"#utility.yul\":4846:4899   */\n      pop\n      pop\n      jump\t// out\n        /* \"#utility.yul\":4905:5048   */\n    tag_358:\n        /* \"#utility.yul\":4998:5041   */\n      tag_360\n        /* \"#utility.yul\":5035:5040   */\n      dup2\n        /* \"#utility.yul\":4998:5041   */\n      tag_361\n      jump\t// in\n    tag_360:\n        /* \"#utility.yul\":4993:4996   */\n      dup3\n        /* \"#utility.yul\":4986:5042   */\n      mstore\n        /* \"#utility.yul\":4976:5048   */\n      pop\n      pop\n      jump\t// out\n        /* \"#utility.yul\":5054:5371   */\n    tag_362:\n      0x00\n        /* \"#utility.yul\":5217:5284   */\n      tag_364\n        /* \"#utility.yul\":5281:5283   */\n      0x13\n        /* \"#utility.yul\":5276:5279   */\n      dup4\n        /* \"#utility.yul\":5217:5284   */\n      tag_365\n      jump\t// in\n    tag_364:\n        /* \"#utility.yul\":5210:5284   */\n      swap2\n      pop\n        /* \"#utility.yul\":5314:5335   */\n      0x546f6b656e20646f65736e6f7420657869737400000000000000000000000000\n        /* \"#utility.yul\":5310:5311   */\n      0x00\n        /* \"#utility.yul\":5305:5308   */\n      dup4\n        /* \"#utility.yul\":5301:5312   */\n      add\n        /* \"#utility.yul\":5294:5336   */\n      mstore\n        /* \"#utility.yul\":5362:5364   */\n      0x20\n        /* \"#utility.yul\":5357:5360   */\n      dup3\n        /* \"#utility.yul\":5353:5365   */\n      add\n        /* \"#utility.yul\":5346:5365   */\n      swap1\n      pop\n        /* \"#utility.yul\":5200:5371   */\n      swap2\n      swap1\n      pop\n      jump\t// out\n        /* \"#utility.yul\":5377:5695   */\n    tag_366:\n      0x00\n        /* \"#utility.yul\":5540:5607   */\n      tag_368\n        /* \"#utility.yul\":5604:5606   */\n      0x14\n        /* \"#utility.yul\":5599:5602   */\n      dup4\n        /* \"#utility.yul\":5540:5607   */\n      tag_365\n      jump\t// in\n    tag_368:\n        /* \"#utility.yul\":5533:5607   */\n      swap2\n      pop\n        /* \"#utility.yul\":5637:5659   */\n      0x496e73756666696369656e742042616c616e6365000000000000000000000000\n        /* \"#utility.yul\":5633:5634   */\n      0x00\n        /* \"#utility.yul\":5628:5631   */\n      dup4\n        /* \"#utility.yul\":5624:5635   */\n      add\n        /* \"#utility.yul\":5617:5660   */\n      mstore\n        /* \"#utility.yul\":5686:5688   */\n      0x20\n        /* \"#utility.yul\":5681:5684   */\n      dup3\n        /* \"#utility.yul\":5677:5689   */\n      add\n        /* \"#utility.yul\":5670:5689   */\n      swap1\n      pop\n        /* \"#utility.yul\":5523:5695   */\n      swap2\n      swap1\n      pop\n      jump\t// out\n        /* \"#utility.yul\":5701:6009   */\n    tag_369:\n      0x00\n        /* \"#utility.yul\":5864:5931   */\n      tag_371\n        /* \"#utility.yul\":5928:5930   */\n      0x0a\n        /* \"#utility.yul\":5923:5926   */\n      dup4\n        /* \"#utility.yul\":5864:5931   */\n      tag_365\n      jump\t// in\n    tag_371:\n        /* \"#utility.yul\":5857:5931   */\n      swap2\n      pop\n        /* \"#utility.yul\":5961:5973   */\n      0x4f6e6c792041646d696e00000000000000000000000000000000000000000000\n        /* \"#utility.yul\":5957:5958   */\n      0x00\n        /* \"#utility.yul\":5952:5955   */\n      dup4\n        /* \"#utility.yul\":5948:5959   */\n      add\n        /* \"#utility.yul\":5941:5974   */\n      mstore\n        /* \"#utility.yul\":6000:6002   */\n      0x20\n        /* \"#utility.yul\":5995:5998   */\n      dup3\n        /* \"#utility.yul\":5991:6003   */\n      add\n        /* \"#utility.yul\":5984:6003   */\n      swap1\n      pop\n        /* \"#utility.yul\":5847:6009   */\n      swap2\n      swap1\n      pop\n      jump\t// out\n        /* \"#utility.yul\":6015:6332   */\n    tag_372:\n      0x00\n        /* \"#utility.yul\":6178:6245   */\n      tag_374\n        /* \"#utility.yul\":6242:6244   */\n      0x13\n        /* \"#utility.yul\":6237:6240   */\n      dup4\n        /* \"#utility.yul\":6178:6245   */\n      tag_365\n      jump\t// in\n    tag_374:\n        /* \"#utility.yul\":6171:6245   */\n      swap2\n      pop\n        /* \"#utility.yul\":6275:6296   */\n      0x4441492042616c616e636520746f6f206c6f7700000000000000000000000000\n        /* \"#utility.yul\":6271:6272   */\n      0x00\n        /* \"#utility.yul\":6266:6269   */\n      dup4\n        /* \"#utility.yul\":6262:6273   */\n      add\n        /* \"#utility.yul\":6255:6297   */\n      mstore\n        /* \"#utility.yul\":6323:6325   */\n      0x20\n        /* \"#utility.yul\":6318:6321   */\n      dup3\n        /* \"#utility.yul\":6314:6326   */\n      add\n        /* \"#utility.yul\":6307:6326   */\n      swap1\n      pop\n        /* \"#utility.yul\":6161:6332   */\n      swap2\n      swap1\n      pop\n      jump\t// out\n        /* \"#utility.yul\":6338:6659   */\n    tag_375:\n      0x00\n        /* \"#utility.yul\":6501:6568   */\n      tag_377\n        /* \"#utility.yul\":6565:6567   */\n      0x17\n        /* \"#utility.yul\":6560:6563   */\n      dup4\n        /* \"#utility.yul\":6501:6568   */\n      tag_365\n      jump\t// in\n    tag_377:\n        /* \"#utility.yul\":6494:6568   */\n      swap2\n      pop\n        /* \"#utility.yul\":6598:6623   */\n      0x496e73756666696369656e742044414920546f6b656e73000000000000000000\n        /* \"#utility.yul\":6594:6595   */\n      0x00\n        /* \"#utility.yul\":6589:6592   */\n      dup4\n        /* \"#utility.yul\":6585:6596   */\n      add\n        /* \"#utility.yul\":6578:6624   */\n      mstore\n        /* \"#utility.yul\":6650:6652   */\n      0x20\n        /* \"#utility.yul\":6645:6648   */\n      dup3\n        /* \"#utility.yul\":6641:6653   */\n      add\n        /* \"#utility.yul\":6634:6653   */\n      swap1\n      pop\n        /* \"#utility.yul\":6484:6659   */\n      swap2\n      swap1\n      pop\n      jump\t// out\n        /* \"#utility.yul\":6665:6979   */\n    tag_378:\n      0x00\n        /* \"#utility.yul\":6828:6895   */\n      tag_380\n        /* \"#utility.yul\":6892:6894   */\n      0x10\n        /* \"#utility.yul\":6887:6890   */\n      dup4\n        /* \"#utility.yul\":6828:6895   */\n      tag_365\n      jump\t// in\n    tag_380:\n        /* \"#utility.yul\":6821:6895   */\n      swap2\n      pop\n        /* \"#utility.yul\":6925:6943   */\n      0x43616e6e6f742074726164652044414900000000000000000000000000000000\n        /* \"#utility.yul\":6921:6922   */\n      0x00\n        /* \"#utility.yul\":6916:6919   */\n      dup4\n        /* \"#utility.yul\":6912:6923   */\n      add\n        /* \"#utility.yul\":6905:6944   */\n      mstore\n        /* \"#utility.yul\":6970:6972   */\n      0x20\n        /* \"#utility.yul\":6965:6968   */\n      dup3\n        /* \"#utility.yul\":6961:6973   */\n      add\n        /* \"#utility.yul\":6954:6973   */\n      swap1\n      pop\n        /* \"#utility.yul\":6811:6979   */\n      swap2\n      swap1\n      pop\n      jump\t// out\n        /* \"#utility.yul\":6985:7103   */\n    tag_381:\n        /* \"#utility.yul\":7072:7096   */\n      tag_383\n        /* \"#utility.yul\":7090:7095   */\n      dup2\n        /* \"#utility.yul\":7072:7096   */\n      tag_384\n      jump\t// in\n    tag_383:\n        /* \"#utility.yul\":7067:7070   */\n      dup3\n        /* \"#utility.yul\":7060:7097   */\n      mstore\n        /* \"#utility.yul\":7050:7103   */\n      pop\n      pop\n      jump\t// out\n        /* \"#utility.yul\":7109:7331   */\n    tag_68:\n      0x00\n        /* \"#utility.yul\":7240:7242   */\n      0x20\n        /* \"#utility.yul\":7229:7238   */\n      dup3\n        /* \"#utility.yul\":7225:7243   */\n      add\n        /* \"#utility.yul\":7217:7243   */\n      swap1\n      pop\n        /* \"#utility.yul\":7253:7324   */\n      tag_386\n        /* \"#utility.yul\":7321:7322   */\n      0x00\n        /* \"#utility.yul\":7310:7319   */\n      dup4\n        /* \"#utility.yul\":7306:7323   */\n      add\n        /* \"#utility.yul\":7297:7303   */\n      dup5\n        /* \"#utility.yul\":7253:7324   */\n      tag_350\n      jump\t// in\n    tag_386:\n        /* \"#utility.yul\":7207:7331   */\n      swap3\n      swap2\n      pop\n      pop\n      jump\t// out\n        /* \"#utility.yul\":7337:7779   */\n    tag_280:\n      0x00\n        /* \"#utility.yul\":7524:7526   */\n      0x60\n        /* \"#utility.yul\":7513:7522   */\n      dup3\n        /* \"#utility.yul\":7509:7527   */\n      add\n        /* \"#utility.yul\":7501:7527   */\n      swap1\n      pop\n        /* \"#utility.yul\":7537:7608   */\n      tag_388\n        /* \"#utility.yul\":7605:7606   */\n      0x00\n        /* \"#utility.yul\":7594:7603   */\n      dup4\n        /* \"#utility.yul\":7590:7607   */\n      add\n        /* \"#utility.yul\":7581:7587   */\n      dup7\n        /* \"#utility.yul\":7537:7608   */\n      tag_350\n      jump\t// in\n    tag_388:\n        /* \"#utility.yul\":7618:7690   */\n      tag_389\n        /* \"#utility.yul\":7686:7688   */\n      0x20\n        /* \"#utility.yul\":7675:7684   */\n      dup4\n        /* \"#utility.yul\":7671:7689   */\n      add\n        /* \"#utility.yul\":7662:7668   */\n      dup6\n        /* \"#utility.yul\":7618:7690   */\n      tag_350\n      jump\t// in\n    tag_389:\n        /* \"#utility.yul\":7700:7772   */\n      tag_390\n        /* \"#utility.yul\":7768:7770   */\n      0x40\n        /* \"#utility.yul\":7757:7766   */\n      dup4\n        /* \"#utility.yul\":7753:7771   */\n      add\n        /* \"#utility.yul\":7744:7750   */\n      dup5\n        /* \"#utility.yul\":7700:7772   */\n      tag_381\n      jump\t// in\n    tag_390:\n        /* \"#utility.yul\":7491:7779   */\n      swap5\n      swap4\n      pop\n      pop\n      pop\n      pop\n      jump\t// out\n        /* \"#utility.yul\":7785:8117   */\n    tag_209:\n      0x00\n        /* \"#utility.yul\":7944:7946   */\n      0x40\n        /* \"#utility.yul\":7933:7942   */\n      dup3\n        /* \"#utility.yul\":7929:7947   */\n      add\n        /* \"#utility.yul\":7921:7947   */\n      swap1\n      pop\n        /* \"#utility.yul\":7957:8028   */\n      tag_392\n        /* \"#utility.yul\":8025:8026   */\n      0x00\n        /* \"#utility.yul\":8014:8023   */\n      dup4\n        /* \"#utility.yul\":8010:8027   */\n      add\n        /* \"#utility.yul\":8001:8007   */\n      dup6\n        /* \"#utility.yul\":7957:8028   */\n      tag_350\n      jump\t// in\n    tag_392:\n        /* \"#utility.yul\":8038:8110   */\n      tag_393\n        /* \"#utility.yul\":8106:8108   */\n      0x20\n        /* \"#utility.yul\":8095:8104   */\n      dup4\n        /* \"#utility.yul\":8091:8109   */\n      add\n        /* \"#utility.yul\":8082:8088   */\n      dup5\n        /* \"#utility.yul\":8038:8110   */\n      tag_381\n      jump\t// in\n    tag_393:\n        /* \"#utility.yul\":7911:8117   */\n      swap4\n      swap3\n      pop\n      pop\n      pop\n      jump\t// out\n        /* \"#utility.yul\":8123:8345   */\n    tag_35:\n      0x00\n        /* \"#utility.yul\":8254:8256   */\n      0x20\n        /* \"#utility.yul\":8243:8252   */\n      dup3\n        /* \"#utility.yul\":8239:8257   */\n      add\n        /* \"#utility.yul\":8231:8257   */\n      swap1\n      pop\n        /* \"#utility.yul\":8267:8338   */\n      tag_395\n        /* \"#utility.yul\":8335:8336   */\n      0x00\n        /* \"#utility.yul\":8324:8333   */\n      dup4\n        /* \"#utility.yul\":8320:8337   */\n      add\n        /* \"#utility.yul\":8311:8317   */\n      dup5\n        /* \"#utility.yul\":8267:8338   */\n      tag_354\n      jump\t// in\n    tag_395:\n        /* \"#utility.yul\":8221:8345   */\n      swap3\n      swap2\n      pop\n      pop\n      jump\t// out\n        /* \"#utility.yul\":8351:8683   */\n    tag_45:\n      0x00\n        /* \"#utility.yul\":8510:8512   */\n      0x40\n        /* \"#utility.yul\":8499:8508   */\n      dup3\n        /* \"#utility.yul\":8495:8513   */\n      add\n        /* \"#utility.yul\":8487:8513   */\n      swap1\n      pop\n        /* \"#utility.yul\":8523:8594   */\n      tag_397\n        /* \"#utility.yul\":8591:8592   */\n      0x00\n        /* \"#utility.yul\":8580:8589   */\n      dup4\n        /* \"#utility.yul\":8576:8593   */\n      add\n        /* \"#utility.yul\":8567:8573   */\n      dup6\n        /* \"#utility.yul\":8523:8594   */\n      tag_354\n      jump\t// in\n    tag_397:\n        /* \"#utility.yul\":8604:8676   */\n      tag_398\n        /* \"#utility.yul\":8672:8674   */\n      0x20\n        /* \"#utility.yul\":8661:8670   */\n      dup4\n        /* \"#utility.yul\":8657:8675   */\n      add\n        /* \"#utility.yul\":8648:8654   */\n      dup5\n        /* \"#utility.yul\":8604:8676   */\n      tag_350\n      jump\t// in\n    tag_398:\n        /* \"#utility.yul\":8477:8683   */\n      swap4\n      swap3\n      pop\n      pop\n      pop\n      jump\t// out\n        /* \"#utility.yul\":8689:9108   */\n    tag_82:\n      0x00\n        /* \"#utility.yul\":8893:8895   */\n      0x20\n        /* \"#utility.yul\":8882:8891   */\n      dup3\n        /* \"#utility.yul\":8878:8896   */\n      add\n        /* \"#utility.yul\":8870:8896   */\n      swap1\n      pop\n        /* \"#utility.yul\":8942:8951   */\n      dup2\n        /* \"#utility.yul\":8936:8940   */\n      dup2\n        /* \"#utility.yul\":8932:8952   */\n      sub\n        /* \"#utility.yul\":8928:8929   */\n      0x00\n        /* \"#utility.yul\":8917:8926   */\n      dup4\n        /* \"#utility.yul\":8913:8930   */\n      add\n        /* \"#utility.yul\":8906:8953   */\n      mstore\n        /* \"#utility.yul\":8970:9101   */\n      tag_400\n        /* \"#utility.yul\":9096:9100   */\n      dup2\n        /* \"#utility.yul\":8970:9101   */\n      tag_362\n      jump\t// in\n    tag_400:\n        /* \"#utility.yul\":8962:9101   */\n      swap1\n      pop\n        /* \"#utility.yul\":8860:9108   */\n      swap2\n      swap1\n      pop\n      jump\t// out\n        /* \"#utility.yul\":9114:9533   */\n    tag_93:\n      0x00\n        /* \"#utility.yul\":9318:9320   */\n      0x20\n        /* \"#utility.yul\":9307:9316   */\n      dup3\n        /* \"#utility.yul\":9303:9321   */\n      add\n        /* \"#utility.yul\":9295:9321   */\n      swap1\n      pop\n        /* \"#utility.yul\":9367:9376   */\n      dup2\n        /* \"#utility.yul\":9361:9365   */\n      dup2\n        /* \"#utility.yul\":9357:9377   */\n      sub\n        /* \"#utility.yul\":9353:9354   */\n      0x00\n        /* \"#utility.yul\":9342:9351   */\n      dup4\n        /* \"#utility.yul\":9338:9355   */\n      add\n        /* \"#utility.yul\":9331:9378   */\n      mstore\n        /* \"#utility.yul\":9395:9526   */\n      tag_402\n        /* \"#utility.yul\":9521:9525   */\n      dup2\n        /* \"#utility.yul\":9395:9526   */\n      tag_366\n      jump\t// in\n    tag_402:\n        /* \"#utility.yul\":9387:9526   */\n      swap1\n      pop\n        /* \"#utility.yul\":9285:9533   */\n      swap2\n      swap1\n      pop\n      jump\t// out\n        /* \"#utility.yul\":9539:9958   */\n    tag_74:\n      0x00\n        /* \"#utility.yul\":9743:9745   */\n      0x20\n        /* \"#utility.yul\":9732:9741   */\n      dup3\n        /* \"#utility.yul\":9728:9746   */\n      add\n        /* \"#utility.yul\":9720:9746   */\n      swap1\n      pop\n        /* \"#utility.yul\":9792:9801   */\n      dup2\n        /* \"#utility.yul\":9786:9790   */\n      dup2\n        /* \"#utility.yul\":9782:9802   */\n      sub\n        /* \"#utility.yul\":9778:9779   */\n      0x00\n        /* \"#utility.yul\":9767:9776   */\n      dup4\n        /* \"#utility.yul\":9763:9780   */\n      add\n        /* \"#utility.yul\":9756:9803   */\n      mstore\n        /* \"#utility.yul\":9820:9951   */\n      tag_404\n        /* \"#utility.yul\":9946:9950   */\n      dup2\n        /* \"#utility.yul\":9820:9951   */\n      tag_369\n      jump\t// in\n    tag_404:\n        /* \"#utility.yul\":9812:9951   */\n      swap1\n      pop\n        /* \"#utility.yul\":9710:9958   */\n      swap2\n      swap1\n      pop\n      jump\t// out\n        /* \"#utility.yul\":9964:10383   */\n    tag_231:\n      0x00\n        /* \"#utility.yul\":10168:10170   */\n      0x20\n        /* \"#utility.yul\":10157:10166   */\n      dup3\n        /* \"#utility.yul\":10153:10171   */\n      add\n        /* \"#utility.yul\":10145:10171   */\n      swap1\n      pop\n        /* \"#utility.yul\":10217:10226   */\n      dup2\n        /* \"#utility.yul\":10211:10215   */\n      dup2\n        /* \"#utility.yul\":10207:10227   */\n      sub\n        /* \"#utility.yul\":10203:10204   */\n      0x00\n        /* \"#utility.yul\":10192:10201   */\n      dup4\n        /* \"#utility.yul\":10188:10205   */\n      add\n        /* \"#utility.yul\":10181:10228   */\n      mstore\n        /* \"#utility.yul\":10245:10376   */\n      tag_406\n        /* \"#utility.yul\":10371:10375   */\n      dup2\n        /* \"#utility.yul\":10245:10376   */\n      tag_372\n      jump\t// in\n    tag_406:\n        /* \"#utility.yul\":10237:10376   */\n      swap1\n      pop\n        /* \"#utility.yul\":10135:10383   */\n      swap2\n      swap1\n      pop\n      jump\t// out\n        /* \"#utility.yul\":10389:10808   */\n    tag_156:\n      0x00\n        /* \"#utility.yul\":10593:10595   */\n      0x20\n        /* \"#utility.yul\":10582:10591   */\n      dup3\n        /* \"#utility.yul\":10578:10596   */\n      add\n        /* \"#utility.yul\":10570:10596   */\n      swap1\n      pop\n        /* \"#utility.yul\":10642:10651   */\n      dup2\n        /* \"#utility.yul\":10636:10640   */\n      dup2\n        /* \"#utility.yul\":10632:10652   */\n      sub\n        /* \"#utility.yul\":10628:10629   */\n      0x00\n        /* \"#utility.yul\":10617:10626   */\n      dup4\n        /* \"#utility.yul\":10613:10630   */\n      add\n        /* \"#utility.yul\":10606:10653   */\n      mstore\n        /* \"#utility.yul\":10670:10801   */\n      tag_408\n        /* \"#utility.yul\":10796:10800   */\n      dup2\n        /* \"#utility.yul\":10670:10801   */\n      tag_375\n      jump\t// in\n    tag_408:\n        /* \"#utility.yul\":10662:10801   */\n      swap1\n      pop\n        /* \"#utility.yul\":10560:10808   */\n      swap2\n      swap1\n      pop\n      jump\t// out\n        /* \"#utility.yul\":10814:11233   */\n    tag_86:\n      0x00\n        /* \"#utility.yul\":11018:11020   */\n      0x20\n        /* \"#utility.yul\":11007:11016   */\n      dup3\n        /* \"#utility.yul\":11003:11021   */\n      add\n        /* \"#utility.yul\":10995:11021   */\n      swap1\n      pop\n        /* \"#utility.yul\":11067:11076   */\n      dup2\n        /* \"#utility.yul\":11061:11065   */\n      dup2\n        /* \"#utility.yul\":11057:11077   */\n      sub\n        /* \"#utility.yul\":11053:11054   */\n      0x00\n        /* \"#utility.yul\":11042:11051   */\n      dup4\n        /* \"#utility.yul\":11038:11055   */\n      add\n        /* \"#utility.yul\":11031:11078   */\n      mstore\n        /* \"#utility.yul\":11095:11226   */\n      tag_410\n        /* \"#utility.yul\":11221:11225   */\n      dup2\n        /* \"#utility.yul\":11095:11226   */\n      tag_378\n      jump\t// in\n    tag_410:\n        /* \"#utility.yul\":11087:11226   */\n      swap1\n      pop\n        /* \"#utility.yul\":10985:11233   */\n      swap2\n      swap1\n      pop\n      jump\t// out\n        /* \"#utility.yul\":11239:11461   */\n    tag_29:\n      0x00\n        /* \"#utility.yul\":11370:11372   */\n      0x20\n        /* \"#utility.yul\":11359:11368   */\n      dup3\n        /* \"#utility.yul\":11355:11373   */\n      add\n        /* \"#utility.yul\":11347:11373   */\n      swap1\n      pop\n        /* \"#utility.yul\":11383:11454   */\n      tag_412\n        /* \"#utility.yul\":11451:11452   */\n      0x00\n        /* \"#utility.yul\":11440:11449   */\n      dup4\n        /* \"#utility.yul\":11436:11453   */\n      add\n        /* \"#utility.yul\":11427:11433   */\n      dup5\n        /* \"#utility.yul\":11383:11454   */\n      tag_381\n      jump\t// in\n    tag_412:\n        /* \"#utility.yul\":11337:11461   */\n      swap3\n      swap2\n      pop\n      pop\n      jump\t// out\n        /* \"#utility.yul\":11467:12476   */\n    tag_21:\n      0x00\n        /* \"#utility.yul\":11800:11803   */\n      0x0100\n        /* \"#utility.yul\":11789:11798   */\n      dup3\n        /* \"#utility.yul\":11785:11804   */\n      add\n        /* \"#utility.yul\":11777:11804   */\n      swap1\n      pop\n        /* \"#utility.yul\":11814:11885   */\n      tag_414\n        /* \"#utility.yul\":11882:11883   */\n      0x00\n        /* \"#utility.yul\":11871:11880   */\n      dup4\n        /* \"#utility.yul\":11867:11884   */\n      add\n        /* \"#utility.yul\":11858:11864   */\n      dup12\n        /* \"#utility.yul\":11814:11885   */\n      tag_381\n      jump\t// in\n    tag_414:\n        /* \"#utility.yul\":11895:11967   */\n      tag_415\n        /* \"#utility.yul\":11963:11965   */\n      0x20\n        /* \"#utility.yul\":11952:11961   */\n      dup4\n        /* \"#utility.yul\":11948:11966   */\n      add\n        /* \"#utility.yul\":11939:11945   */\n      dup11\n        /* \"#utility.yul\":11895:11967   */\n      tag_350\n      jump\t// in\n    tag_415:\n        /* \"#utility.yul\":11977:12055   */\n      tag_416\n        /* \"#utility.yul\":12051:12053   */\n      0x40\n        /* \"#utility.yul\":12040:12049   */\n      dup4\n        /* \"#utility.yul\":12036:12054   */\n      add\n        /* \"#utility.yul\":12027:12033   */\n      dup10\n        /* \"#utility.yul\":11977:12055   */\n      tag_358\n      jump\t// in\n    tag_416:\n        /* \"#utility.yul\":12065:12137   */\n      tag_417\n        /* \"#utility.yul\":12133:12135   */\n      0x60\n        /* \"#utility.yul\":12122:12131   */\n      dup4\n        /* \"#utility.yul\":12118:12136   */\n      add\n        /* \"#utility.yul\":12109:12115   */\n      dup9\n        /* \"#utility.yul\":12065:12137   */\n      tag_354\n      jump\t// in\n    tag_417:\n        /* \"#utility.yul\":12147:12220   */\n      tag_418\n        /* \"#utility.yul\":12215:12218   */\n      0x80\n        /* \"#utility.yul\":12204:12213   */\n      dup4\n        /* \"#utility.yul\":12200:12219   */\n      add\n        /* \"#utility.yul\":12191:12197   */\n      dup8\n        /* \"#utility.yul\":12147:12220   */\n      tag_381\n      jump\t// in\n    tag_418:\n        /* \"#utility.yul\":12230:12303   */\n      tag_419\n        /* \"#utility.yul\":12298:12301   */\n      0xa0\n        /* \"#utility.yul\":12287:12296   */\n      dup4\n        /* \"#utility.yul\":12283:12302   */\n      add\n        /* \"#utility.yul\":12274:12280   */\n      dup7\n        /* \"#utility.yul\":12230:12303   */\n      tag_381\n      jump\t// in\n    tag_419:\n        /* \"#utility.yul\":12313:12386   */\n      tag_420\n        /* \"#utility.yul\":12381:12384   */\n      0xc0\n        /* \"#utility.yul\":12370:12379   */\n      dup4\n        /* \"#utility.yul\":12366:12385   */\n      add\n        /* \"#utility.yul\":12357:12363   */\n      dup6\n        /* \"#utility.yul\":12313:12386   */\n      tag_381\n      jump\t// in\n    tag_420:\n        /* \"#utility.yul\":12396:12469   */\n      tag_421\n        /* \"#utility.yul\":12464:12467   */\n      0xe0\n        /* \"#utility.yul\":12453:12462   */\n      dup4\n        /* \"#utility.yul\":12449:12468   */\n      add\n        /* \"#utility.yul\":12440:12446   */\n      dup5\n        /* \"#utility.yul\":12396:12469   */\n      tag_381\n      jump\t// in\n    tag_421:\n        /* \"#utility.yul\":11767:12476   */\n      swap10\n      swap9\n      pop\n      pop\n      pop\n      pop\n      pop\n      pop\n      pop\n      pop\n      pop\n      jump\t// out\n        /* \"#utility.yul\":12482:13146   */\n    tag_124:\n      0x00\n        /* \"#utility.yul\":12725:12728   */\n      0xa0\n        /* \"#utility.yul\":12714:12723   */\n      dup3\n        /* \"#utility.yul\":12710:12729   */\n      add\n        /* \"#utility.yul\":12702:12729   */\n      swap1\n      pop\n        /* \"#utility.yul\":12739:12810   */\n      tag_423\n        /* \"#utility.yul\":12807:12808   */\n      0x00\n        /* \"#utility.yul\":12796:12805   */\n      dup4\n        /* \"#utility.yul\":12792:12809   */\n      add\n        /* \"#utility.yul\":12783:12789   */\n      dup9\n        /* \"#utility.yul\":12739:12810   */\n      tag_381\n      jump\t// in\n    tag_423:\n        /* \"#utility.yul\":12820:12892   */\n      tag_424\n        /* \"#utility.yul\":12888:12890   */\n      0x20\n        /* \"#utility.yul\":12877:12886   */\n      dup4\n        /* \"#utility.yul\":12873:12891   */\n      add\n        /* \"#utility.yul\":12864:12870   */\n      dup8\n        /* \"#utility.yul\":12820:12892   */\n      tag_381\n      jump\t// in\n    tag_424:\n        /* \"#utility.yul\":12902:12974   */\n      tag_425\n        /* \"#utility.yul\":12970:12972   */\n      0x40\n        /* \"#utility.yul\":12959:12968   */\n      dup4\n        /* \"#utility.yul\":12955:12973   */\n      add\n        /* \"#utility.yul\":12946:12952   */\n      dup7\n        /* \"#utility.yul\":12902:12974   */\n      tag_381\n      jump\t// in\n    tag_425:\n        /* \"#utility.yul\":12984:13056   */\n      tag_426\n        /* \"#utility.yul\":13052:13054   */\n      0x60\n        /* \"#utility.yul\":13041:13050   */\n      dup4\n        /* \"#utility.yul\":13037:13055   */\n      add\n        /* \"#utility.yul\":13028:13034   */\n      dup6\n        /* \"#utility.yul\":12984:13056   */\n      tag_381\n      jump\t// in\n    tag_426:\n        /* \"#utility.yul\":13066:13139   */\n      tag_427\n        /* \"#utility.yul\":13134:13137   */\n      0x80\n        /* \"#utility.yul\":13123:13132   */\n      dup4\n        /* \"#utility.yul\":13119:13138   */\n      add\n        /* \"#utility.yul\":13110:13116   */\n      dup5\n        /* \"#utility.yul\":13066:13139   */\n      tag_381\n      jump\t// in\n    tag_427:\n        /* \"#utility.yul\":12692:13146   */\n      swap7\n      swap6\n      pop\n      pop\n      pop\n      pop\n      pop\n      pop\n      jump\t// out\n        /* \"#utility.yul\":13152:13321   */\n    tag_365:\n      0x00\n        /* \"#utility.yul\":13270:13276   */\n      dup3\n        /* \"#utility.yul\":13265:13268   */\n      dup3\n        /* \"#utility.yul\":13258:13277   */\n      mstore\n        /* \"#utility.yul\":13310:13314   */\n      0x20\n        /* \"#utility.yul\":13305:13308   */\n      dup3\n        /* \"#utility.yul\":13301:13315   */\n      add\n        /* \"#utility.yul\":13286:13315   */\n      swap1\n      pop\n        /* \"#utility.yul\":13248:13321   */\n      swap3\n      swap2\n      pop\n      pop\n      jump\t// out\n        /* \"#utility.yul\":13327:13632   */\n    tag_190:\n      0x00\n        /* \"#utility.yul\":13386:13406   */\n      tag_430\n        /* \"#utility.yul\":13404:13405   */\n      dup3\n        /* \"#utility.yul\":13386:13406   */\n      tag_384\n      jump\t// in\n    tag_430:\n        /* \"#utility.yul\":13381:13406   */\n      swap2\n      pop\n        /* \"#utility.yul\":13420:13440   */\n      tag_431\n        /* \"#utility.yul\":13438:13439   */\n      dup4\n        /* \"#utility.yul\":13420:13440   */\n      tag_384\n      jump\t// in\n    tag_431:\n        /* \"#utility.yul\":13415:13440   */\n      swap3\n      pop\n        /* \"#utility.yul\":13574:13575   */\n      dup3\n        /* \"#utility.yul\":13506:13572   */\n      0xffffffffffffffffffffffffffffffffffffffffffffffffffffffffffffffff\n        /* \"#utility.yul\":13502:13576   */\n      sub\n        /* \"#utility.yul\":13499:13500   */\n      dup3\n        /* \"#utility.yul\":13496:13577   */\n      gt\n        /* \"#utility.yul\":13493:13495   */\n      iszero\n      tag_432\n      jumpi\n        /* \"#utility.yul\":13580:13598   */\n      tag_433\n      tag_434\n      jump\t// in\n    tag_433:\n        /* \"#utility.yul\":13493:13495   */\n    tag_432:\n        /* \"#utility.yul\":13624:13625   */\n      dup3\n        /* \"#utility.yul\":13621:13622   */\n      dup3\n        /* \"#utility.yul\":13617:13626   */\n      add\n        /* \"#utility.yul\":13610:13626   */\n      swap1\n      pop\n        /* \"#utility.yul\":13371:13632   */\n      swap3\n      swap2\n      pop\n      pop\n      jump\t// out\n        /* \"#utility.yul\":13638:13986   */\n    tag_153:\n      0x00\n        /* \"#utility.yul\":13701:13721   */\n      tag_436\n        /* \"#utility.yul\":13719:13720   */\n      dup3\n        /* \"#utility.yul\":13701:13721   */\n      tag_384\n      jump\t// in\n    tag_436:\n        /* \"#utility.yul\":13696:13721   */\n      swap2\n      pop\n        /* \"#utility.yul\":13735:13755   */\n      tag_437\n        /* \"#utility.yul\":13753:13754   */\n      dup4\n        /* \"#utility.yul\":13735:13755   */\n      tag_384\n      jump\t// in\n    tag_437:\n        /* \"#utility.yul\":13730:13755   */\n      swap3\n      pop\n        /* \"#utility.yul\":13923:13924   */\n      dup2\n        /* \"#utility.yul\":13855:13921   */\n      0xffffffffffffffffffffffffffffffffffffffffffffffffffffffffffffffff\n        /* \"#utility.yul\":13851:13925   */\n      div\n        /* \"#utility.yul\":13848:13849   */\n      dup4\n        /* \"#utility.yul\":13845:13926   */\n      gt\n        /* \"#utility.yul\":13840:13841   */\n      dup3\n        /* \"#utility.yul\":13833:13842   */\n      iszero\n        /* \"#utility.yul\":13826:13843   */\n      iszero\n        /* \"#utility.yul\":13822:13927   */\n      and\n        /* \"#utility.yul\":13819:13821   */\n      iszero\n      tag_438\n      jumpi\n        /* \"#utility.yul\":13930:13948   */\n      tag_439\n      tag_434\n      jump\t// in\n    tag_439:\n        /* \"#utility.yul\":13819:13821   */\n    tag_438:\n        /* \"#utility.yul\":13978:13979   */\n      dup3\n        /* \"#utility.yul\":13975:13976   */\n      dup3\n        /* \"#utility.yul\":13971:13980   */\n      mul\n        /* \"#utility.yul\":13960:13980   */\n      swap1\n      pop\n        /* \"#utility.yul\":13686:13986   */\n      swap3\n      swap2\n      pop\n      pop\n      jump\t// out\n        /* \"#utility.yul\":13992:14183   */\n    tag_188:\n      0x00\n        /* \"#utility.yul\":14052:14072   */\n      tag_441\n        /* \"#utility.yul\":14070:14071   */\n      dup3\n        /* \"#utility.yul\":14052:14072   */\n      tag_384\n      jump\t// in\n    tag_441:\n        /* \"#utility.yul\":14047:14072   */\n      swap2\n      pop\n        /* \"#utility.yul\":14086:14106   */\n      tag_442\n        /* \"#utility.yul\":14104:14105   */\n      dup4\n        /* \"#utility.yul\":14086:14106   */\n      tag_384\n      jump\t// in\n    tag_442:\n        /* \"#utility.yul\":14081:14106   */\n      swap3\n      pop\n        /* \"#utility.yul\":14125:14126   */\n      dup3\n        /* \"#utility.yul\":14122:14123   */\n      dup3\n        /* \"#utility.yul\":14119:14127   */\n      lt\n        /* \"#utility.yul\":14116:14118   */\n      iszero\n      tag_443\n      jumpi\n        /* \"#utility.yul\":14130:14148   */\n      tag_444\n      tag_434\n      jump\t// in\n    tag_444:\n        /* \"#utility.yul\":14116:14118   */\n    tag_443:\n        /* \"#utility.yul\":14175:14176   */\n      dup3\n        /* \"#utility.yul\":14172:14173   */\n      dup3\n        /* \"#utility.yul\":14168:14177   */\n      sub\n        /* \"#utility.yul\":14160:14177   */\n      swap1\n      pop\n        /* \"#utility.yul\":14037:14183   */\n      swap3\n      swap2\n      pop\n      pop\n      jump\t// out\n        /* \"#utility.yul\":14189:14285   */\n    tag_353:\n      0x00\n        /* \"#utility.yul\":14255:14279   */\n      tag_446\n        /* \"#utility.yul\":14273:14278   */\n      dup3\n        /* \"#utility.yul\":14255:14279   */\n      tag_447\n      jump\t// in\n    tag_446:\n        /* \"#utility.yul\":14244:14279   */\n      swap1\n      pop\n        /* \"#utility.yul\":14234:14285   */\n      swap2\n      swap1\n      pop\n      jump\t// out\n        /* \"#utility.yul\":14291:14381   */\n    tag_448:\n      0x00\n        /* \"#utility.yul\":14368:14373   */\n      dup2\n        /* \"#utility.yul\":14361:14374   */\n      iszero\n        /* \"#utility.yul\":14354:14375   */\n      iszero\n        /* \"#utility.yul\":14343:14375   */\n      swap1\n      pop\n        /* \"#utility.yul\":14333:14381   */\n      swap2\n      swap1\n      pop\n      jump\t// out\n        /* \"#utility.yul\":14387:14464   */\n    tag_357:\n      0x00\n        /* \"#utility.yul\":14453:14458   */\n      dup2\n        /* \"#utility.yul\":14442:14458   */\n      swap1\n      pop\n        /* \"#utility.yul\":14432:14464   */\n      swap2\n      swap1\n      pop\n      jump\t// out\n        /* \"#utility.yul\":14470:14597   */\n    tag_451:\n      0x00\n        /* \"#utility.yul\":14544:14549   */\n      dup2\n        /* \"#utility.yul\":14533:14549   */\n      swap1\n      pop\n        /* \"#utility.yul\":14550:14591   */\n      tag_453\n        /* \"#utility.yul\":14585:14590   */\n      dup3\n        /* \"#utility.yul\":14550:14591   */\n      tag_454\n      jump\t// in\n    tag_453:\n        /* \"#utility.yul\":14523:14597   */\n      swap2\n      swap1\n      pop\n      jump\t// out\n        /* \"#utility.yul\":14603:14729   */\n    tag_447:\n      0x00\n        /* \"#utility.yul\":14680:14722   */\n      0xffffffffffffffffffffffffffffffffffffffff\n        /* \"#utility.yul\":14673:14678   */\n      dup3\n        /* \"#utility.yul\":14669:14723   */\n      and\n        /* \"#utility.yul\":14658:14723   */\n      swap1\n      pop\n        /* \"#utility.yul\":14648:14729   */\n      swap2\n      swap1\n      pop\n      jump\t// out\n        /* \"#utility.yul\":14735:14812   */\n    tag_384:\n      0x00\n        /* \"#utility.yul\":14801:14806   */\n      dup2\n        /* \"#utility.yul\":14790:14806   */\n      swap1\n      pop\n        /* \"#utility.yul\":14780:14812   */\n      swap2\n      swap1\n      pop\n      jump\t// out\n        /* \"#utility.yul\":14818:14945   */\n    tag_361:\n      0x00\n        /* \"#utility.yul\":14907:14939   */\n      tag_458\n        /* \"#utility.yul\":14933:14938   */\n      dup3\n        /* \"#utility.yul\":14907:14939   */\n      tag_451\n      jump\t// in\n    tag_458:\n        /* \"#utility.yul\":14894:14939   */\n      swap1\n      pop\n        /* \"#utility.yul\":14884:14945   */\n      swap2\n      swap1\n      pop\n      jump\t// out\n        /* \"#utility.yul\":14951:15184   */\n    tag_197:\n      0x00\n        /* \"#utility.yul\":15013:15037   */\n      tag_460\n        /* \"#utility.yul\":15031:15036   */\n      dup3\n        /* \"#utility.yul\":15013:15037   */\n      tag_384\n      jump\t// in\n    tag_460:\n        /* \"#utility.yul\":15004:15037   */\n      swap2\n      pop\n        /* \"#utility.yul\":15059:15125   */\n      0xffffffffffffffffffffffffffffffffffffffffffffffffffffffffffffffff\n        /* \"#utility.yul\":15052:15057   */\n      dup3\n        /* \"#utility.yul\":15049:15126   */\n      eq\n        /* \"#utility.yul\":15046:15048   */\n      iszero\n      tag_461\n      jumpi\n        /* \"#utility.yul\":15129:15147   */\n      tag_462\n      tag_434\n      jump\t// in\n    tag_462:\n        /* \"#utility.yul\":15046:15048   */\n    tag_461:\n        /* \"#utility.yul\":15176:15177   */\n      0x01\n        /* \"#utility.yul\":15169:15174   */\n      dup3\n        /* \"#utility.yul\":15165:15178   */\n      add\n        /* \"#utility.yul\":15158:15178   */\n      swap1\n      pop\n        /* \"#utility.yul\":14994:15184   */\n      swap2\n      swap1\n      pop\n      jump\t// out\n        /* \"#utility.yul\":15190:15370   */\n    tag_434:\n        /* \"#utility.yul\":15238:15315   */\n      0x4e487b7100000000000000000000000000000000000000000000000000000000\n        /* \"#utility.yul\":15235:15236   */\n      0x00\n        /* \"#utility.yul\":15228:15316   */\n      mstore\n        /* \"#utility.yul\":15335:15339   */\n      0x11\n        /* \"#utility.yul\":15332:15333   */\n      0x04\n        /* \"#utility.yul\":15325:15340   */\n      mstore\n        /* \"#utility.yul\":15359:15363   */\n      0x24\n        /* \"#utility.yul\":15356:15357   */\n      0x00\n        /* \"#utility.yul\":15349:15364   */\n      revert\n        /* \"#utility.yul\":15376:15556   */\n    tag_464:\n        /* \"#utility.yul\":15424:15501   */\n      0x4e487b7100000000000000000000000000000000000000000000000000000000\n        /* \"#utility.yul\":15421:15422   */\n      0x00\n        /* \"#utility.yul\":15414:15502   */\n      mstore\n        /* \"#utility.yul\":15521:15525   */\n      0x21\n        /* \"#utility.yul\":15518:15519   */\n      0x04\n        /* \"#utility.yul\":15511:15526   */\n      mstore\n        /* \"#utility.yul\":15545:15549   */\n      0x24\n        /* \"#utility.yul\":15542:15543   */\n      0x00\n        /* \"#utility.yul\":15535:15550   */\n      revert\n        /* \"#utility.yul\":15562:15675   */\n    tag_454:\n        /* \"#utility.yul\":15643:15644   */\n      0x02\n        /* \"#utility.yul\":15636:15641   */\n      dup2\n        /* \"#utility.yul\":15633:15645   */\n      lt\n        /* \"#utility.yul\":15623:15625   */\n      tag_467\n      jumpi\n        /* \"#utility.yul\":15649:15667   */\n      tag_468\n      tag_464\n      jump\t// in\n    tag_468:\n        /* \"#utility.yul\":15623:15625   */\n    tag_467:\n        /* \"#utility.yul\":15613:15675   */\n      pop\n      jump\t// out\n        /* \"#utility.yul\":15681:15803   */\n    tag_296:\n        /* \"#utility.yul\":15754:15778   */\n      tag_470\n        /* \"#utility.yul\":15772:15777   */\n      dup2\n        /* \"#utility.yul\":15754:15778   */\n      tag_353\n      jump\t// in\n    tag_470:\n        /* \"#utility.yul\":15747:15752   */\n      dup2\n        /* \"#utility.yul\":15744:15779   */\n      eq\n        /* \"#utility.yul\":15734:15736   */\n      tag_471\n      jumpi\n        /* \"#utility.yul\":15793:15794   */\n      0x00\n        /* \"#utility.yul\":15790:15791   */\n      dup1\n        /* \"#utility.yul\":15783:15795   */\n      revert\n        /* \"#utility.yul\":15734:15736   */\n    tag_471:\n        /* \"#utility.yul\":15724:15803   */\n      pop\n      jump\t// out\n        /* \"#utility.yul\":15809:15925   */\n    tag_300:\n        /* \"#utility.yul\":15879:15900   */\n      tag_473\n        /* \"#utility.yul\":15894:15899   */\n      dup2\n        /* \"#utility.yul\":15879:15900   */\n      tag_448\n      jump\t// in\n    tag_473:\n        /* \"#utility.yul\":15872:15877   */\n      dup2\n        /* \"#utility.yul\":15869:15901   */\n      eq\n        /* \"#utility.yul\":15859:15861   */\n      tag_474\n      jumpi\n        /* \"#utility.yul\":15915:15916   */\n      0x00\n        /* \"#utility.yul\":15912:15913   */\n      dup1\n        /* \"#utility.yul\":15905:15917   */\n      revert\n        /* \"#utility.yul\":15859:15861   */\n    tag_474:\n        /* \"#utility.yul\":15849:15925   */\n      pop\n      jump\t// out\n        /* \"#utility.yul\":15931:16053   */\n    tag_304:\n        /* \"#utility.yul\":16004:16028   */\n      tag_476\n        /* \"#utility.yul\":16022:16027   */\n      dup2\n        /* \"#utility.yul\":16004:16028   */\n      tag_357\n      jump\t// in\n    tag_476:\n        /* \"#utility.yul\":15997:16002   */\n      dup2\n        /* \"#utility.yul\":15994:16029   */\n      eq\n        /* \"#utility.yul\":15984:15986   */\n      tag_477\n      jumpi\n        /* \"#utility.yul\":16043:16044   */\n      0x00\n        /* \"#utility.yul\":16040:16041   */\n      dup1\n        /* \"#utility.yul\":16033:16045   */\n      revert\n        /* \"#utility.yul\":15984:15986   */\n    tag_477:\n        /* \"#utility.yul\":15974:16053   */\n      pop\n      jump\t// out\n        /* \"#utility.yul\":16059:16166   */\n    tag_308:\n        /* \"#utility.yul\":16140:16141   */\n      0x02\n        /* \"#utility.yul\":16133:16138   */\n      dup2\n        /* \"#utility.yul\":16130:16142   */\n      lt\n        /* \"#utility.yul\":16120:16122   */\n      tag_479\n      jumpi\n        /* \"#utility.yul\":16156:16157   */\n      0x00\n        /* \"#utility.yul\":16153:16154   */\n      dup1\n        /* \"#utility.yul\":16146:16158   */\n      revert\n        /* \"#utility.yul\":16120:16122   */\n    tag_479:\n        /* \"#utility.yul\":16110:16166   */\n      pop\n      jump\t// out\n        /* \"#utility.yul\":16172:16294   */\n    tag_312:\n        /* \"#utility.yul\":16245:16269   */\n      tag_481\n        /* \"#utility.yul\":16263:16268   */\n      dup2\n        /* \"#utility.yul\":16245:16269   */\n      tag_384\n      jump\t// in\n    tag_481:\n        /* \"#utility.yul\":16238:16243   */\n      dup2\n        /* \"#utility.yul\":16235:16270   */\n      eq\n        /* \"#utility.yul\":16225:16227   */\n      tag_482\n      jumpi\n        /* \"#utility.yul\":16284:16285   */\n      0x00\n        /* \"#utility.yul\":16281:16282   */\n      dup1\n        /* \"#utility.yul\":16274:16286   */\n      revert\n        /* \"#utility.yul\":16225:16227   */\n    tag_482:\n        /* \"#utility.yul\":16215:16294   */\n      pop\n      jump\t// out\n\n    auxdata: 0xa2646970667358221220bb89eab90ed39e2b2c2fca57990b0606d95570d7a64519ee1df63f75083b585564736f6c63430008000033\n}\n",
				"bytecode": {
					"linkReferences": {},
					"object": "608060405234801561001057600080fd5b5033600260006101000a81548173ffffffffffffffffffffffffffffffffffffffff021916908373ffffffffffffffffffffffffffffffffffffffff1602179055506136a7806100616000396000f3fe608060405234801561001057600080fd5b50600436106100b45760003560e01c80639dd4d0c3116100715780639dd4d0c3146101a7578063a8d2021a146101c5578063a962846a146101e1578063b3a7e99a14610211578063c9630cb01461022d578063f851a44014610249576100b4565b80630baaacd2146100b95780631b66807d146100f0578063433257771461010c578063538cad001461012a57806363c7d8b91461015a578063904194a314610176575b600080fd5b6100d360048036038101906100ce9190612ea0565b610267565b6040516100e798979695949392919061330d565b60405180910390f35b61010a60048036038101906101059190612e15565b610306565b005b610114610454565b60405161012191906132f2565b60405180910390f35b610144600480360381019061013f9190612f52565b61045a565b60405161015191906131ee565b60405180910390f35b610174600480360381019061016f9190612e51565b61047e565b005b610190600480360381019061018b9190612dec565b611b90565b60405161019e929190613209565b60405180910390f35b6101af611bd4565b6040516101bc91906132f2565b60405180910390f35b6101df60048036038101906101da9190612f7b565b611bda565b005b6101fb60048036038101906101f69190612d87565b611e92565b60405161020891906132f2565b60405180910390f35b61022b60048036038101906102269190612eef565b611eb7565b005b61024760048036038101906102429190612f7b565b612a8f565b005b610251612cb6565b60405161025e9190613173565b60405180910390f35b6004602052826000526040600020602052816000526040600020818154811061028f57600080fd5b906000526020600020906007020160009250925050508060000154908060010160009054906101000a900473ffffffffffffffffffffffffffffffffffffffff16908060010160149054906101000a900460ff16908060020154908060030154908060040154908060050154908060060154905088565b600260009054906101000a900473ffffffffffffffffffffffffffffffffffffffff1673ffffffffffffffffffffffffffffffffffffffff163373ffffffffffffffffffffffffffffffffffffffff1614610396576040517f08c379a000000000000000000000000000000000000000000000000000000000815260040161038d90613272565b60405180910390fd5b60405180604001604052808381526020018273ffffffffffffffffffffffffffffffffffffffff168152506000808481526020019081526020016000206000820151816000015560208201518160010160006101000a81548173ffffffffffffffffffffffffffffffffffffffff021916908373ffffffffffffffffffffffffffffffffffffffff16021790555090505060018290806001815401808255809150506001900390600052602060002001600090919091909150555050565b60065481565b6001818154811061046a57600080fd5b906000526020600020016000915090505481565b82600073ffffffffffffffffffffffffffffffffffffffff1660008083815260200190815260200160002060010160009054906101000a900473ffffffffffffffffffffffffffffffffffffffff1673ffffffffffffffffffffffffffffffffffffffff161415610524576040517f08c379a000000000000000000000000000000000000000000000000000000000815260040161051b90613232565b60405180910390fd5b837f4441490000000000000000000000000000000000000000000000000000000000811415610588576040517f08c379a000000000000000000000000000000000000000000000000000000000815260040161057f906132d2565b60405180910390fd5b6001808111156105c1577f4e487b7100000000000000000000000000000000000000000000000000000000600052602160045260246000fd5b8360018111156105fa577f4e487b7100000000000000000000000000000000000000000000000000000000600052602160045260246000fd5b14156106945783600360003373ffffffffffffffffffffffffffffffffffffffff1673ffffffffffffffffffffffffffffffffffffffff1681526020019081526020016000206000878152602001908152602001600020541015610693576040517f08c379a000000000000000000000000000000000000000000000000000000000815260040161068a90613252565b60405180910390fd5b5b60006004600087815260200190815260200160002060008060018111156106e4577f4e487b7100000000000000000000000000000000000000000000000000000000600052602160045260246000fd5b86600181111561071d577f4e487b7100000000000000000000000000000000000000000000000000000000600052602160045260246000fd5b1461072957600061072c565b60015b6001811115610764577f4e487b7100000000000000000000000000000000000000000000000000000000600052602160045260246000fd5b815260200190815260200160002090506000808690505b82805490508210801561078e5750600081115b1561182b57600061083c8484815481106107d1577f4e487b7100000000000000000000000000000000000000000000000000000000600052603260045260246000fd5b90600052602060002090600702016004015485858154811061081c577f4e487b7100000000000000000000000000000000000000000000000000000000600052603260045260246000fd5b906000526020600020906007020160030154612cdc90919063ffffffff16565b9050600081831161084d578261084f565b815b90506108648184612cdc90919063ffffffff16565b92506108c3818686815481106108a3577f4e487b7100000000000000000000000000000000000000000000000000000000600052603260045260246000fd5b906000526020600020906007020160040154612cf290919063ffffffff16565b8585815481106108fc577f4e487b7100000000000000000000000000000000000000000000000000000000600052603260045260246000fd5b9060005260206000209060070201600401819055503373ffffffffffffffffffffffffffffffffffffffff16858581548110610961577f4e487b7100000000000000000000000000000000000000000000000000000000600052603260045260246000fd5b906000526020600020906007020160010160009054906101000a900473ffffffffffffffffffffffffffffffffffffffff1673ffffffffffffffffffffffffffffffffffffffff168b7f039b691695d8fd269061c85732e747f77e54b8a2ca27230e8d8b17141ef069e5600654898981548110610a07577f4e487b7100000000000000000000000000000000000000000000000000000000600052603260045260246000fd5b906000526020600020906007020160000154868b8b81548110610a53577f4e487b7100000000000000000000000000000000000000000000000000000000600052603260045260246000fd5b90600052602060002090600702016005015442604051610a7795949392919061338b565b60405180910390a4600180811115610ab8577f4e487b7100000000000000000000000000000000000000000000000000000000600052602160045260246000fd5b886001811115610af1577f4e487b7100000000000000000000000000000000000000000000000000000000600052602160045260246000fd5b14156110b457610b5a81600360003373ffffffffffffffffffffffffffffffffffffffff1673ffffffffffffffffffffffffffffffffffffffff16815260200190815260200160002060008d815260200190815260200160002054612cdc90919063ffffffff16565b600360003373ffffffffffffffffffffffffffffffffffffffff1673ffffffffffffffffffffffffffffffffffffffff16815260200190815260200160002060008c815260200190815260200160002081905550610c8d610c0e868681548110610bed577f4e487b7100000000000000000000000000000000000000000000000000000000600052603260045260246000fd5b90600052602060002090600702016005015483612d0890919063ffffffff16565b600360003373ffffffffffffffffffffffffffffffffffffffff1673ffffffffffffffffffffffffffffffffffffffff16815260200190815260200160002060007f4441490000000000000000000000000000000000000000000000000000000000815260200190815260200160002054612cf290919063ffffffff16565b600360003373ffffffffffffffffffffffffffffffffffffffff1673ffffffffffffffffffffffffffffffffffffffff16815260200190815260200160002060007f4441490000000000000000000000000000000000000000000000000000000000815260200190815260200160002081905550610dce8160036000888881548110610d42577f4e487b7100000000000000000000000000000000000000000000000000000000600052603260045260246000fd5b906000526020600020906007020160010160009054906101000a900473ffffffffffffffffffffffffffffffffffffffff1673ffffffffffffffffffffffffffffffffffffffff1673ffffffffffffffffffffffffffffffffffffffff16815260200190815260200160002060008d815260200190815260200160002054612cf290919063ffffffff16565b60036000878781548110610e0b577f4e487b7100000000000000000000000000000000000000000000000000000000600052603260045260246000fd5b906000526020600020906007020160010160009054906101000a900473ffffffffffffffffffffffffffffffffffffffff1673ffffffffffffffffffffffffffffffffffffffff1673ffffffffffffffffffffffffffffffffffffffff16815260200190815260200160002060008c815260200190815260200160002081905550610fd5610eec868681548110610ecb577f4e487b7100000000000000000000000000000000000000000000000000000000600052603260045260246000fd5b90600052602060002090600702016005015483612d0890919063ffffffff16565b60036000888881548110610f29577f4e487b7100000000000000000000000000000000000000000000000000000000600052603260045260246000fd5b906000526020600020906007020160010160009054906101000a900473ffffffffffffffffffffffffffffffffffffffff1673ffffffffffffffffffffffffffffffffffffffff1673ffffffffffffffffffffffffffffffffffffffff16815260200190815260200160002060007f4441490000000000000000000000000000000000000000000000000000000000815260200190815260200160002054612cdc90919063ffffffff16565b60036000878781548110611012577f4e487b7100000000000000000000000000000000000000000000000000000000600052603260045260246000fd5b906000526020600020906007020160010160009054906101000a900473ffffffffffffffffffffffffffffffffffffffff1673ffffffffffffffffffffffffffffffffffffffff1673ffffffffffffffffffffffffffffffffffffffff16815260200190815260200160002060007f44414900000000000000000000000000000000000000000000000000000000008152602001908152602001600020819055505b600060018111156110ee577f4e487b7100000000000000000000000000000000000000000000000000000000600052602160045260246000fd5b886001811115611127577f4e487b7100000000000000000000000000000000000000000000000000000000600052602160045260246000fd5b14156117f257848481548110611166577f4e487b7100000000000000000000000000000000000000000000000000000000600052603260045260246000fd5b906000526020600020906007020160050154816111839190613445565b600360003373ffffffffffffffffffffffffffffffffffffffff1673ffffffffffffffffffffffffffffffffffffffff16815260200190815260200160002060007f44414900000000000000000000000000000000000000000000000000000000008152602001908152602001600020541015611235576040517f08c379a000000000000000000000000000000000000000000000000000000000815260040161122c906132b2565b60405180910390fd5b61129881600360003373ffffffffffffffffffffffffffffffffffffffff1673ffffffffffffffffffffffffffffffffffffffff16815260200190815260200160002060008d815260200190815260200160002054612cf290919063ffffffff16565b600360003373ffffffffffffffffffffffffffffffffffffffff1673ffffffffffffffffffffffffffffffffffffffff16815260200190815260200160002060008c8152602001908152602001600020819055506113cb61134c86868154811061132b577f4e487b7100000000000000000000000000000000000000000000000000000000600052603260045260246000fd5b90600052602060002090600702016005015483612d0890919063ffffffff16565b600360003373ffffffffffffffffffffffffffffffffffffffff1673ffffffffffffffffffffffffffffffffffffffff16815260200190815260200160002060007f4441490000000000000000000000000000000000000000000000000000000000815260200190815260200160002054612cdc90919063ffffffff16565b600360003373ffffffffffffffffffffffffffffffffffffffff1673ffffffffffffffffffffffffffffffffffffffff16815260200190815260200160002060007f444149000000000000000000000000000000000000000000000000000000000081526020019081526020016000208190555061150c8160036000888881548110611480577f4e487b7100000000000000000000000000000000000000000000000000000000600052603260045260246000fd5b906000526020600020906007020160010160009054906101000a900473ffffffffffffffffffffffffffffffffffffffff1673ffffffffffffffffffffffffffffffffffffffff1673ffffffffffffffffffffffffffffffffffffffff16815260200190815260200160002060008d815260200190815260200160002054612cdc90919063ffffffff16565b60036000878781548110611549577f4e487b7100000000000000000000000000000000000000000000000000000000600052603260045260246000fd5b906000526020600020906007020160010160009054906101000a900473ffffffffffffffffffffffffffffffffffffffff1673ffffffffffffffffffffffffffffffffffffffff1673ffffffffffffffffffffffffffffffffffffffff16815260200190815260200160002060008c81526020019081526020016000208190555061171361162a868681548110611609577f4e487b7100000000000000000000000000000000000000000000000000000000600052603260045260246000fd5b90600052602060002090600702016005015483612d0890919063ffffffff16565b60036000888881548110611667577f4e487b7100000000000000000000000000000000000000000000000000000000600052603260045260246000fd5b906000526020600020906007020160010160009054906101000a900473ffffffffffffffffffffffffffffffffffffffff1673ffffffffffffffffffffffffffffffffffffffff1673ffffffffffffffffffffffffffffffffffffffff16815260200190815260200160002060007f4441490000000000000000000000000000000000000000000000000000000000815260200190815260200160002054612cf290919063ffffffff16565b60036000878781548110611750577f4e487b7100000000000000000000000000000000000000000000000000000000600052603260045260246000fd5b906000526020600020906007020160010160009054906101000a900473ffffffffffffffffffffffffffffffffffffffff1673ffffffffffffffffffffffffffffffffffffffff1673ffffffffffffffffffffffffffffffffffffffff16815260200190815260200160002060007f44414900000000000000000000000000000000000000000000000000000000008152602001908152602001600020819055505b6118086001600654612cf290919063ffffffff16565b600681905550611822600185612cf290919063ffffffff16565b9350505061077b565b600091505b8280549050821080156118d65750828281548110611877577f4e487b7100000000000000000000000000000000000000000000000000000000600052603260045260246000fd5b9060005260206000209060070201600301548383815481106118c2577f4e487b7100000000000000000000000000000000000000000000000000000000600052603260045260246000fd5b906000526020600020906007020160040154145b15611b865760008290505b600184805490506118f2919061349f565b811015611aaf578360018261190791906133ef565b8154811061193e577f4e487b7100000000000000000000000000000000000000000000000000000000600052603260045260246000fd5b9060005260206000209060070201848281548110611985577f4e487b7100000000000000000000000000000000000000000000000000000000600052603260045260246000fd5b9060005260206000209060070201600082015481600001556001820160009054906101000a900473ffffffffffffffffffffffffffffffffffffffff168160010160006101000a81548173ffffffffffffffffffffffffffffffffffffffff021916908373ffffffffffffffffffffffffffffffffffffffff1602179055506001820160149054906101000a900460ff168160010160146101000a81548160ff02191690836001811115611a62577f4e487b7100000000000000000000000000000000000000000000000000000000600052602160045260246000fd5b021790555060028201548160020155600382015481600301556004820154816004015560058201548160050155600682015481600601559050508080611aa79061354a565b9150506118e1565b5082805480611ae7577f4e487b7100000000000000000000000000000000000000000000000000000000600052603160045260246000fd5b60019003818190600052602060002090600702016000808201600090556001820160006101000a81549073ffffffffffffffffffffffffffffffffffffffff02191690556001820160146101000a81549060ff02191690556002820160009055600382016000905560048201600090556005820160009055600682016000905550509055611b7f600183612cf290919063ffffffff16565b9150611830565b5050505050505050565b60006020528060005260406000206000915090508060000154908060010160009054906101000a900473ffffffffffffffffffffffffffffffffffffffff16905082565b60055481565b80600073ffffffffffffffffffffffffffffffffffffffff1660008083815260200190815260200160002060010160009054906101000a900473ffffffffffffffffffffffffffffffffffffffff1673ffffffffffffffffffffffffffffffffffffffff161415611c80576040517f08c379a0000000000000000000000000000000000000000000000000000000008152600401611c7790613232565b60405180910390fd5b82600360003373ffffffffffffffffffffffffffffffffffffffff1673ffffffffffffffffffffffffffffffffffffffff1681526020019081526020016000206000848152602001908152602001600020541015611d13576040517f08c379a0000000000000000000000000000000000000000000000000000000008152600401611d0a90613252565b60405180910390fd5b611d7683600360003373ffffffffffffffffffffffffffffffffffffffff1673ffffffffffffffffffffffffffffffffffffffff168152602001908152602001600020600085815260200190815260200160002054612cdc90919063ffffffff16565b600360003373ffffffffffffffffffffffffffffffffffffffff1673ffffffffffffffffffffffffffffffffffffffff16815260200190815260200160002060008481526020019081526020016000208190555060008083815260200190815260200160002060010160009054906101000a900473ffffffffffffffffffffffffffffffffffffffff1673ffffffffffffffffffffffffffffffffffffffff1663a9059cbb33856040518363ffffffff1660e01b8152600401611e3a9291906131c5565b602060405180830381600087803b158015611e5457600080fd5b505af1158015611e68573d6000803e3d6000fd5b505050506040513d601f19601f82011682018060405250810190611e8c9190612dc3565b50505050565b6003602052816000526040600020602052806000526040600020600091509150505481565b83600073ffffffffffffffffffffffffffffffffffffffff1660008083815260200190815260200160002060010160009054906101000a900473ffffffffffffffffffffffffffffffffffffffff1673ffffffffffffffffffffffffffffffffffffffff161415611f5d576040517f08c379a0000000000000000000000000000000000000000000000000000000008152600401611f5490613232565b60405180910390fd5b847f4441490000000000000000000000000000000000000000000000000000000000811415611fc1576040517f08c379a0000000000000000000000000000000000000000000000000000000008152600401611fb8906132d2565b60405180910390fd5b600180811115611ffa577f4e487b7100000000000000000000000000000000000000000000000000000000600052602160045260246000fd5b836001811115612033577f4e487b7100000000000000000000000000000000000000000000000000000000600052602160045260246000fd5b14156120d15784600360003373ffffffffffffffffffffffffffffffffffffffff1673ffffffffffffffffffffffffffffffffffffffff16815260200190815260200160002060008881526020019081526020016000205410156120cc576040517f08c379a00000000000000000000000000000000000000000000000000000000081526004016120c390613252565b60405180910390fd5b612197565b6120e48486612d0890919063ffffffff16565b600360003373ffffffffffffffffffffffffffffffffffffffff1673ffffffffffffffffffffffffffffffffffffffff16815260200190815260200160002060007f44414900000000000000000000000000000000000000000000000000000000008152602001908152602001600020541015612196576040517f08c379a000000000000000000000000000000000000000000000000000000000815260040161218d90613292565b60405180910390fd5b5b60006004600088815260200190815260200160002060008560018111156121e7577f4e487b7100000000000000000000000000000000000000000000000000000000600052602160045260246000fd5b815260200190815260200160002090508060405180610100016040528060055481526020013373ffffffffffffffffffffffffffffffffffffffff168152602001866001811115612261577f4e487b7100000000000000000000000000000000000000000000000000000000600052602160045260246000fd5b8152602001898152602001888152602001600081526020018781526020014281525090806001815401808255809150506001900390600052602060002090600702016000909190919091506000820151816000015560208201518160010160006101000a81548173ffffffffffffffffffffffffffffffffffffffff021916908373ffffffffffffffffffffffffffffffffffffffff16021790555060408201518160010160146101000a81548160ff0219169083600181111561234e577f4e487b7100000000000000000000000000000000000000000000000000000000600052602160045260246000fd5b0217905550606082015181600201556080820151816003015560a0820151816004015560c0820151816005015560e08201518160060155505060008082805490501161239b5760006123ad565b600182805490506123ac919061349f565b5b90505b6000811115612a6957600060018111156123f3577f4e487b7100000000000000000000000000000000000000000000000000000000600052602160045260246000fd5b85600181111561242c577f4e487b7100000000000000000000000000000000000000000000000000000000600052602160045260246000fd5b1480156124d8575081818154811061246d577f4e487b7100000000000000000000000000000000000000000000000000000000600052603260045260246000fd5b9060005260206000209060070201600501548260018361248d919061349f565b815481106124c4577f4e487b7100000000000000000000000000000000000000000000000000000000600052603260045260246000fd5b906000526020600020906007020160050154115b156124e257612a69565b60018081111561251b577f4e487b7100000000000000000000000000000000000000000000000000000000600052602160045260246000fd5b856001811115612554577f4e487b7100000000000000000000000000000000000000000000000000000000600052602160045260246000fd5b1480156126005750818181548110612595577f4e487b7100000000000000000000000000000000000000000000000000000000600052603260045260246000fd5b906000526020600020906007020160050154826001836125b5919061349f565b815481106125ec577f4e487b7100000000000000000000000000000000000000000000000000000000600052603260045260246000fd5b906000526020600020906007020160050154105b1561260a57612a69565b60008260018361261a919061349f565b81548110612651577f4e487b7100000000000000000000000000000000000000000000000000000000600052603260045260246000fd5b906000526020600020906007020160405180610100016040529081600082015481526020016001820160009054906101000a900473ffffffffffffffffffffffffffffffffffffffff1673ffffffffffffffffffffffffffffffffffffffff1673ffffffffffffffffffffffffffffffffffffffff1681526020016001820160149054906101000a900460ff166001811115612716577f4e487b7100000000000000000000000000000000000000000000000000000000600052602160045260246000fd5b600181111561274e577f4e487b7100000000000000000000000000000000000000000000000000000000600052602160045260246000fd5b81526020016002820154815260200160038201548152602001600482015481526020016005820154815260200160068201548152505090508282815481106127bf577f4e487b7100000000000000000000000000000000000000000000000000000000600052603260045260246000fd5b9060005260206000209060070201836001846127db919061349f565b81548110612812577f4e487b7100000000000000000000000000000000000000000000000000000000600052603260045260246000fd5b9060005260206000209060070201600082015481600001556001820160009054906101000a900473ffffffffffffffffffffffffffffffffffffffff168160010160006101000a81548173ffffffffffffffffffffffffffffffffffffffff021916908373ffffffffffffffffffffffffffffffffffffffff1602179055506001820160149054906101000a900460ff168160010160146101000a81548160ff021916908360018111156128ef577f4e487b7100000000000000000000000000000000000000000000000000000000600052602160045260246000fd5b0217905550600282015481600201556003820154816003015560048201548160040155600582015481600501556006820154816006015590505080838381548110612963577f4e487b7100000000000000000000000000000000000000000000000000000000600052603260045260246000fd5b90600052602060002090600702016000820151816000015560208201518160010160006101000a81548173ffffffffffffffffffffffffffffffffffffffff021916908373ffffffffffffffffffffffffffffffffffffffff16021790555060408201518160010160146101000a81548160ff02191690836001811115612a13577f4e487b7100000000000000000000000000000000000000000000000000000000600052602160045260246000fd5b0217905550606082015181600201556080820151816003015560a0820151816004015560c0820151816005015560e08201518160060155905050612a61600183612cdc90919063ffffffff16565b9150506123b0565b612a7f6001600554612cf290919063ffffffff16565b6005819055505050505050505050565b80600073ffffffffffffffffffffffffffffffffffffffff1660008083815260200190815260200160002060010160009054906101000a900473ffffffffffffffffffffffffffffffffffffffff1673ffffffffffffffffffffffffffffffffffffffff161415612b35576040517f08c379a0000000000000000000000000000000000000000000000000000000008152600401612b2c90613232565b60405180910390fd5b60008083815260200190815260200160002060010160009054906101000a900473ffffffffffffffffffffffffffffffffffffffff1673ffffffffffffffffffffffffffffffffffffffff166323b872dd3330866040518463ffffffff1660e01b8152600401612ba79392919061318e565b602060405180830381600087803b158015612bc157600080fd5b505af1158015612bd5573d6000803e3d6000fd5b505050506040513d601f19601f82011682018060405250810190612bf99190612dc3565b50612c5d83600360003373ffffffffffffffffffffffffffffffffffffffff1673ffffffffffffffffffffffffffffffffffffffff168152602001908152602001600020600085815260200190815260200160002054612cf290919063ffffffff16565b600360003373ffffffffffffffffffffffffffffffffffffffff1673ffffffffffffffffffffffffffffffffffffffff168152602001908152602001600020600084815260200190815260200160002081905550505050565b600260009054906101000a900473ffffffffffffffffffffffffffffffffffffffff1681565b60008183612cea919061349f565b905092915050565b60008183612d0091906133ef565b905092915050565b60008183612d169190613445565b905092915050565b600081359050612d2d81613605565b92915050565b600081519050612d428161361c565b92915050565b600081359050612d5781613633565b92915050565b600081359050612d6c8161364a565b92915050565b600081359050612d818161365a565b92915050565b60008060408385031215612d9a57600080fd5b6000612da885828601612d1e565b9250506020612db985828601612d48565b9150509250929050565b600060208284031215612dd557600080fd5b6000612de384828501612d33565b91505092915050565b600060208284031215612dfe57600080fd5b6000612e0c84828501612d48565b91505092915050565b60008060408385031215612e2857600080fd5b6000612e3685828601612d48565b9250506020612e4785828601612d1e565b9150509250929050565b600080600060608486031215612e6657600080fd5b6000612e7486828701612d48565b9350506020612e8586828701612d72565b9250506040612e9686828701612d5d565b9150509250925092565b600080600060608486031215612eb557600080fd5b6000612ec386828701612d48565b9350506020612ed486828701612d72565b9250506040612ee586828701612d72565b9150509250925092565b60008060008060808587031215612f0557600080fd5b6000612f1387828801612d48565b9450506020612f2487828801612d72565b9350506040612f3587828801612d72565b9250506060612f4687828801612d5d565b91505092959194509250565b600060208284031215612f6457600080fd5b6000612f7284828501612d72565b91505092915050565b60008060408385031215612f8e57600080fd5b6000612f9c85828601612d72565b9250506020612fad85828601612d48565b9150509250929050565b612fc0816134d3565b82525050565b612fcf816134f1565b82525050565b612fde81613538565b82525050565b6000612ff16013836133de565b91507f546f6b656e20646f65736e6f74206578697374000000000000000000000000006000830152602082019050919050565b60006130316014836133de565b91507f496e73756666696369656e742042616c616e63650000000000000000000000006000830152602082019050919050565b6000613071600a836133de565b91507f4f6e6c792041646d696e000000000000000000000000000000000000000000006000830152602082019050919050565b60006130b16013836133de565b91507f4441492042616c616e636520746f6f206c6f77000000000000000000000000006000830152602082019050919050565b60006130f16017836133de565b91507f496e73756666696369656e742044414920546f6b656e730000000000000000006000830152602082019050919050565b60006131316010836133de565b91507f43616e6e6f7420747261646520444149000000000000000000000000000000006000830152602082019050919050565b61316d8161352e565b82525050565b60006020820190506131886000830184612fb7565b92915050565b60006060820190506131a36000830186612fb7565b6131b06020830185612fb7565b6131bd6040830184613164565b949350505050565b60006040820190506131da6000830185612fb7565b6131e76020830184613164565b9392505050565b60006020820190506132036000830184612fc6565b92915050565b600060408201905061321e6000830185612fc6565b61322b6020830184612fb7565b9392505050565b6000602082019050818103600083015261324b81612fe4565b9050919050565b6000602082019050818103600083015261326b81613024565b9050919050565b6000602082019050818103600083015261328b81613064565b9050919050565b600060208201905081810360008301526132ab816130a4565b9050919050565b600060208201905081810360008301526132cb816130e4565b9050919050565b600060208201905081810360008301526132eb81613124565b9050919050565b60006020820190506133076000830184613164565b92915050565b600061010082019050613323600083018b613164565b613330602083018a612fb7565b61333d6040830189612fd5565b61334a6060830188612fc6565b6133576080830187613164565b61336460a0830186613164565b61337160c0830185613164565b61337e60e0830184613164565b9998505050505050505050565b600060a0820190506133a06000830188613164565b6133ad6020830187613164565b6133ba6040830186613164565b6133c76060830185613164565b6133d46080830184613164565b9695505050505050565b600082825260208201905092915050565b60006133fa8261352e565b91506134058361352e565b9250827fffffffffffffffffffffffffffffffffffffffffffffffffffffffffffffffff0382111561343a57613439613593565b5b828201905092915050565b60006134508261352e565b915061345b8361352e565b9250817fffffffffffffffffffffffffffffffffffffffffffffffffffffffffffffffff048311821515161561349457613493613593565b5b828202905092915050565b60006134aa8261352e565b91506134b58361352e565b9250828210156134c8576134c7613593565b5b828203905092915050565b60006134de8261350e565b9050919050565b60008115159050919050565b6000819050919050565b6000819050613509826135f1565b919050565b600073ffffffffffffffffffffffffffffffffffffffff82169050919050565b6000819050919050565b6000613543826134fb565b9050919050565b60006135558261352e565b91507fffffffffffffffffffffffffffffffffffffffffffffffffffffffffffffffff82141561358857613587613593565b5b600182019050919050565b7f4e487b7100000000000000000000000000000000000000000000000000000000600052601160045260246000fd5b7f4e487b7100000000000000000000000000000000000000000000000000000000600052602160045260246000fd5b60028110613602576136016135c2565b5b50565b61360e816134d3565b811461361957600080fd5b50565b613625816134e5565b811461363057600080fd5b50565b61363c816134f1565b811461364757600080fd5b50565b6002811061365757600080fd5b50565b6136638161352e565b811461366e57600080fd5b5056fea2646970667358221220bb89eab90ed39e2b2c2fca57990b0606d95570d7a64519ee1df63f75083b585564736f6c63430008000033",
					"opcodes": "PUSH1 0x80 PUSH1 0x40 MSTORE CALLVALUE DUP1 ISZERO PUSH2 0x10 JUMPI PUSH1 0x0 DUP1 REVERT JUMPDEST POP CALLER PUSH1 0x2 PUSH1 0x0 PUSH2 0x100 EXP DUP2 SLOAD DUP2 PUSH20 0xFFFFFFFFFFFFFFFFFFFFFFFFFFFFFFFFFFFFFFFF MUL NOT AND SWAP1 DUP4 PUSH20 0xFFFFFFFFFFFFFFFFFFFFFFFFFFFFFFFFFFFFFFFF AND MUL OR SWAP1 SSTORE POP PUSH2 0x36A7 DUP1 PUSH2 0x61 PUSH1 0x0 CODECOPY PUSH1 0x0 RETURN INVALID PUSH1 0x80 PUSH1 0x40 MSTORE CALLVALUE DUP1 ISZERO PUSH2 0x10 JUMPI PUSH1 0x0 DUP1 REVERT JUMPDEST POP PUSH1 0x4 CALLDATASIZE LT PUSH2 0xB4 JUMPI PUSH1 0x0 CALLDATALOAD PUSH1 0xE0 SHR DUP1 PUSH4 0x9DD4D0C3 GT PUSH2 0x71 JUMPI DUP1 PUSH4 0x9DD4D0C3 EQ PUSH2 0x1A7 JUMPI DUP1 PUSH4 0xA8D2021A EQ PUSH2 0x1C5 JUMPI DUP1 PUSH4 0xA962846A EQ PUSH2 0x1E1 JUMPI DUP1 PUSH4 0xB3A7E99A EQ PUSH2 0x211 JUMPI DUP1 PUSH4 0xC9630CB0 EQ PUSH2 0x22D JUMPI DUP1 PUSH4 0xF851A440 EQ PUSH2 0x249 JUMPI PUSH2 0xB4 JUMP JUMPDEST DUP1 PUSH4 0xBAAACD2 EQ PUSH2 0xB9 JUMPI DUP1 PUSH4 0x1B66807D EQ PUSH2 0xF0 JUMPI DUP1 PUSH4 0x43325777 EQ PUSH2 0x10C JUMPI DUP1 PUSH4 0x538CAD00 EQ PUSH2 0x12A JUMPI DUP1 PUSH4 0x63C7D8B9 EQ PUSH2 0x15A JUMPI DUP1 PUSH4 0x904194A3 EQ PUSH2 0x176 JUMPI JUMPDEST PUSH1 0x0 DUP1 REVERT JUMPDEST PUSH2 0xD3 PUSH1 0x4 DUP1 CALLDATASIZE SUB DUP2 ADD SWAP1 PUSH2 0xCE SWAP2 SWAP1 PUSH2 0x2EA0 JUMP JUMPDEST PUSH2 0x267 JUMP JUMPDEST PUSH1 0x40 MLOAD PUSH2 0xE7 SWAP9 SWAP8 SWAP7 SWAP6 SWAP5 SWAP4 SWAP3 SWAP2 SWAP1 PUSH2 0x330D JUMP JUMPDEST PUSH1 0x40 MLOAD DUP1 SWAP2 SUB SWAP1 RETURN JUMPDEST PUSH2 0x10A PUSH1 0x4 DUP1 CALLDATASIZE SUB DUP2 ADD SWAP1 PUSH2 0x105 SWAP2 SWAP1 PUSH2 0x2E15 JUMP JUMPDEST PUSH2 0x306 JUMP JUMPDEST STOP JUMPDEST PUSH2 0x114 PUSH2 0x454 JUMP JUMPDEST PUSH1 0x40 MLOAD PUSH2 0x121 SWAP2 SWAP1 PUSH2 0x32F2 JUMP JUMPDEST PUSH1 0x40 MLOAD DUP1 SWAP2 SUB SWAP1 RETURN JUMPDEST PUSH2 0x144 PUSH1 0x4 DUP1 CALLDATASIZE SUB DUP2 ADD SWAP1 PUSH2 0x13F SWAP2 SWAP1 PUSH2 0x2F52 JUMP JUMPDEST PUSH2 0x45A JUMP JUMPDEST PUSH1 0x40 MLOAD PUSH2 0x151 SWAP2 SWAP1 PUSH2 0x31EE JUMP JUMPDEST PUSH1 0x40 MLOAD DUP1 SWAP2 SUB SWAP1 RETURN JUMPDEST PUSH2 0x174 PUSH1 0x4 DUP1 CALLDATASIZE SUB DUP2 ADD SWAP1 PUSH2 0x16F SWAP2 SWAP1 PUSH2 0x2E51 JUMP JUMPDEST PUSH2 0x47E JUMP JUMPDEST STOP JUMPDEST PUSH2 0x190 PUSH1 0x4 DUP1 CALLDATASIZE SUB DUP2 ADD SWAP1 PUSH2 0x18B SWAP2 SWAP1 PUSH2 0x2DEC JUMP JUMPDEST PUSH2 0x1B90 JUMP JUMPDEST PUSH1 0x40 MLOAD PUSH2 0x19E SWAP3 SWAP2 SWAP1 PUSH2 0x3209 JUMP JUMPDEST PUSH1 0x40 MLOAD DUP1 SWAP2 SUB SWAP1 RETURN JUMPDEST PUSH2 0x1AF PUSH2 0x1BD4 JUMP JUMPDEST PUSH1 0x40 MLOAD PUSH2 0x1BC SWAP2 SWAP1 PUSH2 0x32F2 JUMP JUMPDEST PUSH1 0x40 MLOAD DUP1 SWAP2 SUB SWAP1 RETURN JUMPDEST PUSH2 0x1DF PUSH1 0x4 DUP1 CALLDATASIZE SUB DUP2 ADD SWAP1 PUSH2 0x1DA SWAP2 SWAP1 PUSH2 0x2F7B JUMP JUMPDEST PUSH2 0x1BDA JUMP JUMPDEST STOP JUMPDEST PUSH2 0x1FB PUSH1 0x4 DUP1 CALLDATASIZE SUB DUP2 ADD SWAP1 PUSH2 0x1F6 SWAP2 SWAP1 PUSH2 0x2D87 JUMP JUMPDEST PUSH2 0x1E92 JUMP JUMPDEST PUSH1 0x40 MLOAD PUSH2 0x208 SWAP2 SWAP1 PUSH2 0x32F2 JUMP JUMPDEST PUSH1 0x40 MLOAD DUP1 SWAP2 SUB SWAP1 RETURN JUMPDEST PUSH2 0x22B PUSH1 0x4 DUP1 CALLDATASIZE SUB DUP2 ADD SWAP1 PUSH2 0x226 SWAP2 SWAP1 PUSH2 0x2EEF JUMP JUMPDEST PUSH2 0x1EB7 JUMP JUMPDEST STOP JUMPDEST PUSH2 0x247 PUSH1 0x4 DUP1 CALLDATASIZE SUB DUP2 ADD SWAP1 PUSH2 0x242 SWAP2 SWAP1 PUSH2 0x2F7B JUMP JUMPDEST PUSH2 0x2A8F JUMP JUMPDEST STOP JUMPDEST PUSH2 0x251 PUSH2 0x2CB6 JUMP JUMPDEST PUSH1 0x40 MLOAD PUSH2 0x25E SWAP2 SWAP1 PUSH2 0x3173 JUMP JUMPDEST PUSH1 0x40 MLOAD DUP1 SWAP2 SUB SWAP1 RETURN JUMPDEST PUSH1 0x4 PUSH1 0x20 MSTORE DUP3 PUSH1 0x0 MSTORE PUSH1 0x40 PUSH1 0x0 KECCAK256 PUSH1 0x20 MSTORE DUP2 PUSH1 0x0 MSTORE PUSH1 0x40 PUSH1 0x0 KECCAK256 DUP2 DUP2 SLOAD DUP2 LT PUSH2 0x28F JUMPI PUSH1 0x0 DUP1 REVERT JUMPDEST SWAP1 PUSH1 0x0 MSTORE PUSH1 0x20 PUSH1 0x0 KECCAK256 SWAP1 PUSH1 0x7 MUL ADD PUSH1 0x0 SWAP3 POP SWAP3 POP POP POP DUP1 PUSH1 0x0 ADD SLOAD SWAP1 DUP1 PUSH1 0x1 ADD PUSH1 0x0 SWAP1 SLOAD SWAP1 PUSH2 0x100 EXP SWAP1 DIV PUSH20 0xFFFFFFFFFFFFFFFFFFFFFFFFFFFFFFFFFFFFFFFF AND SWAP1 DUP1 PUSH1 0x1 ADD PUSH1 0x14 SWAP1 SLOAD SWAP1 PUSH2 0x100 EXP SWAP1 DIV PUSH1 0xFF AND SWAP1 DUP1 PUSH1 0x2 ADD SLOAD SWAP1 DUP1 PUSH1 0x3 ADD SLOAD SWAP1 DUP1 PUSH1 0x4 ADD SLOAD SWAP1 DUP1 PUSH1 0x5 ADD SLOAD SWAP1 DUP1 PUSH1 0x6 ADD SLOAD SWAP1 POP DUP9 JUMP JUMPDEST PUSH1 0x2 PUSH1 0x0 SWAP1 SLOAD SWAP1 PUSH2 0x100 EXP SWAP1 DIV PUSH20 0xFFFFFFFFFFFFFFFFFFFFFFFFFFFFFFFFFFFFFFFF AND PUSH20 0xFFFFFFFFFFFFFFFFFFFFFFFFFFFFFFFFFFFFFFFF AND CALLER PUSH20 0xFFFFFFFFFFFFFFFFFFFFFFFFFFFFFFFFFFFFFFFF AND EQ PUSH2 0x396 JUMPI PUSH1 0x40 MLOAD PUSH32 0x8C379A000000000000000000000000000000000000000000000000000000000 DUP2 MSTORE PUSH1 0x4 ADD PUSH2 0x38D SWAP1 PUSH2 0x3272 JUMP JUMPDEST PUSH1 0x40 MLOAD DUP1 SWAP2 SUB SWAP1 REVERT JUMPDEST PUSH1 0x40 MLOAD DUP1 PUSH1 0x40 ADD PUSH1 0x40 MSTORE DUP1 DUP4 DUP2 MSTORE PUSH1 0x20 ADD DUP3 PUSH20 0xFFFFFFFFFFFFFFFFFFFFFFFFFFFFFFFFFFFFFFFF AND DUP2 MSTORE POP PUSH1 0x0 DUP1 DUP5 DUP2 MSTORE PUSH1 0x20 ADD SWAP1 DUP2 MSTORE PUSH1 0x20 ADD PUSH1 0x0 KECCAK256 PUSH1 0x0 DUP3 ADD MLOAD DUP2 PUSH1 0x0 ADD SSTORE PUSH1 0x20 DUP3 ADD MLOAD DUP2 PUSH1 0x1 ADD PUSH1 0x0 PUSH2 0x100 EXP DUP2 SLOAD DUP2 PUSH20 0xFFFFFFFFFFFFFFFFFFFFFFFFFFFFFFFFFFFFFFFF MUL NOT AND SWAP1 DUP4 PUSH20 0xFFFFFFFFFFFFFFFFFFFFFFFFFFFFFFFFFFFFFFFF AND MUL OR SWAP1 SSTORE POP SWAP1 POP POP PUSH1 0x1 DUP3 SWAP1 DUP1 PUSH1 0x1 DUP2 SLOAD ADD DUP1 DUP3 SSTORE DUP1 SWAP2 POP POP PUSH1 0x1 SWAP1 SUB SWAP1 PUSH1 0x0 MSTORE PUSH1 0x20 PUSH1 0x0 KECCAK256 ADD PUSH1 0x0 SWAP1 SWAP2 SWAP1 SWAP2 SWAP1 SWAP2 POP SSTORE POP POP JUMP JUMPDEST PUSH1 0x6 SLOAD DUP2 JUMP JUMPDEST PUSH1 0x1 DUP2 DUP2 SLOAD DUP2 LT PUSH2 0x46A JUMPI PUSH1 0x0 DUP1 REVERT JUMPDEST SWAP1 PUSH1 0x0 MSTORE PUSH1 0x20 PUSH1 0x0 KECCAK256 ADD PUSH1 0x0 SWAP2 POP SWAP1 POP SLOAD DUP2 JUMP JUMPDEST DUP3 PUSH1 0x0 PUSH20 0xFFFFFFFFFFFFFFFFFFFFFFFFFFFFFFFFFFFFFFFF AND PUSH1 0x0 DUP1 DUP4 DUP2 MSTORE PUSH1 0x20 ADD SWAP1 DUP2 MSTORE PUSH1 0x20 ADD PUSH1 0x0 KECCAK256 PUSH1 0x1 ADD PUSH1 0x0 SWAP1 SLOAD SWAP1 PUSH2 0x100 EXP SWAP1 DIV PUSH20 0xFFFFFFFFFFFFFFFFFFFFFFFFFFFFFFFFFFFFFFFF AND PUSH20 0xFFFFFFFFFFFFFFFFFFFFFFFFFFFFFFFFFFFFFFFF AND EQ ISZERO PUSH2 0x524 JUMPI PUSH1 0x40 MLOAD PUSH32 0x8C379A000000000000000000000000000000000000000000000000000000000 DUP2 MSTORE PUSH1 0x4 ADD PUSH2 0x51B SWAP1 PUSH2 0x3232 JUMP JUMPDEST PUSH1 0x40 MLOAD DUP1 SWAP2 SUB SWAP1 REVERT JUMPDEST DUP4 PUSH32 0x4441490000000000000000000000000000000000000000000000000000000000 DUP2 EQ ISZERO PUSH2 0x588 JUMPI PUSH1 0x40 MLOAD PUSH32 0x8C379A000000000000000000000000000000000000000000000000000000000 DUP2 MSTORE PUSH1 0x4 ADD PUSH2 0x57F SWAP1 PUSH2 0x32D2 JUMP JUMPDEST PUSH1 0x40 MLOAD DUP1 SWAP2 SUB SWAP1 REVERT JUMPDEST PUSH1 0x1 DUP1 DUP2 GT ISZERO PUSH2 0x5C1 JUMPI PUSH32 0x4E487B7100000000000000000000000000000000000000000000000000000000 PUSH1 0x0 MSTORE PUSH1 0x21 PUSH1 0x4 MSTORE PUSH1 0x24 PUSH1 0x0 REVERT JUMPDEST DUP4 PUSH1 0x1 DUP2 GT ISZERO PUSH2 0x5FA JUMPI PUSH32 0x4E487B7100000000000000000000000000000000000000000000000000000000 PUSH1 0x0 MSTORE PUSH1 0x21 PUSH1 0x4 MSTORE PUSH1 0x24 PUSH1 0x0 REVERT JUMPDEST EQ ISZERO PUSH2 0x694 JUMPI DUP4 PUSH1 0x3 PUSH1 0x0 CALLER PUSH20 0xFFFFFFFFFFFFFFFFFFFFFFFFFFFFFFFFFFFFFFFF AND PUSH20 0xFFFFFFFFFFFFFFFFFFFFFFFFFFFFFFFFFFFFFFFF AND DUP2 MSTORE PUSH1 0x20 ADD SWAP1 DUP2 MSTORE PUSH1 0x20 ADD PUSH1 0x0 KECCAK256 PUSH1 0x0 DUP8 DUP2 MSTORE PUSH1 0x20 ADD SWAP1 DUP2 MSTORE PUSH1 0x20 ADD PUSH1 0x0 KECCAK256 SLOAD LT ISZERO PUSH2 0x693 JUMPI PUSH1 0x40 MLOAD PUSH32 0x8C379A000000000000000000000000000000000000000000000000000000000 DUP2 MSTORE PUSH1 0x4 ADD PUSH2 0x68A SWAP1 PUSH2 0x3252 JUMP JUMPDEST PUSH1 0x40 MLOAD DUP1 SWAP2 SUB SWAP1 REVERT JUMPDEST JUMPDEST PUSH1 0x0 PUSH1 0x4 PUSH1 0x0 DUP8 DUP2 MSTORE PUSH1 0x20 ADD SWAP1 DUP2 MSTORE PUSH1 0x20 ADD PUSH1 0x0 KECCAK256 PUSH1 0x0 DUP1 PUSH1 0x1 DUP2 GT ISZERO PUSH2 0x6E4 JUMPI PUSH32 0x4E487B7100000000000000000000000000000000000000000000000000000000 PUSH1 0x0 MSTORE PUSH1 0x21 PUSH1 0x4 MSTORE PUSH1 0x24 PUSH1 0x0 REVERT JUMPDEST DUP7 PUSH1 0x1 DUP2 GT ISZERO PUSH2 0x71D JUMPI PUSH32 0x4E487B7100000000000000000000000000000000000000000000000000000000 PUSH1 0x0 MSTORE PUSH1 0x21 PUSH1 0x4 MSTORE PUSH1 0x24 PUSH1 0x0 REVERT JUMPDEST EQ PUSH2 0x729 JUMPI PUSH1 0x0 PUSH2 0x72C JUMP JUMPDEST PUSH1 0x1 JUMPDEST PUSH1 0x1 DUP2 GT ISZERO PUSH2 0x764 JUMPI PUSH32 0x4E487B7100000000000000000000000000000000000000000000000000000000 PUSH1 0x0 MSTORE PUSH1 0x21 PUSH1 0x4 MSTORE PUSH1 0x24 PUSH1 0x0 REVERT JUMPDEST DUP2 MSTORE PUSH1 0x20 ADD SWAP1 DUP2 MSTORE PUSH1 0x20 ADD PUSH1 0x0 KECCAK256 SWAP1 POP PUSH1 0x0 DUP1 DUP7 SWAP1 POP JUMPDEST DUP3 DUP1 SLOAD SWAP1 POP DUP3 LT DUP1 ISZERO PUSH2 0x78E JUMPI POP PUSH1 0x0 DUP2 GT JUMPDEST ISZERO PUSH2 0x182B JUMPI PUSH1 0x0 PUSH2 0x83C DUP5 DUP5 DUP2 SLOAD DUP2 LT PUSH2 0x7D1 JUMPI PUSH32 0x4E487B7100000000000000000000000000000000000000000000000000000000 PUSH1 0x0 MSTORE PUSH1 0x32 PUSH1 0x4 MSTORE PUSH1 0x24 PUSH1 0x0 REVERT JUMPDEST SWAP1 PUSH1 0x0 MSTORE PUSH1 0x20 PUSH1 0x0 KECCAK256 SWAP1 PUSH1 0x7 MUL ADD PUSH1 0x4 ADD SLOAD DUP6 DUP6 DUP2 SLOAD DUP2 LT PUSH2 0x81C JUMPI PUSH32 0x4E487B7100000000000000000000000000000000000000000000000000000000 PUSH1 0x0 MSTORE PUSH1 0x32 PUSH1 0x4 MSTORE PUSH1 0x24 PUSH1 0x0 REVERT JUMPDEST SWAP1 PUSH1 0x0 MSTORE PUSH1 0x20 PUSH1 0x0 KECCAK256 SWAP1 PUSH1 0x7 MUL ADD PUSH1 0x3 ADD SLOAD PUSH2 0x2CDC SWAP1 SWAP2 SWAP1 PUSH4 0xFFFFFFFF AND JUMP JUMPDEST SWAP1 POP PUSH1 0x0 DUP2 DUP4 GT PUSH2 0x84D JUMPI DUP3 PUSH2 0x84F JUMP JUMPDEST DUP2 JUMPDEST SWAP1 POP PUSH2 0x864 DUP2 DUP5 PUSH2 0x2CDC SWAP1 SWAP2 SWAP1 PUSH4 0xFFFFFFFF AND JUMP JUMPDEST SWAP3 POP PUSH2 0x8C3 DUP2 DUP7 DUP7 DUP2 SLOAD DUP2 LT PUSH2 0x8A3 JUMPI PUSH32 0x4E487B7100000000000000000000000000000000000000000000000000000000 PUSH1 0x0 MSTORE PUSH1 0x32 PUSH1 0x4 MSTORE PUSH1 0x24 PUSH1 0x0 REVERT JUMPDEST SWAP1 PUSH1 0x0 MSTORE PUSH1 0x20 PUSH1 0x0 KECCAK256 SWAP1 PUSH1 0x7 MUL ADD PUSH1 0x4 ADD SLOAD PUSH2 0x2CF2 SWAP1 SWAP2 SWAP1 PUSH4 0xFFFFFFFF AND JUMP JUMPDEST DUP6 DUP6 DUP2 SLOAD DUP2 LT PUSH2 0x8FC JUMPI PUSH32 0x4E487B7100000000000000000000000000000000000000000000000000000000 PUSH1 0x0 MSTORE PUSH1 0x32 PUSH1 0x4 MSTORE PUSH1 0x24 PUSH1 0x0 REVERT JUMPDEST SWAP1 PUSH1 0x0 MSTORE PUSH1 0x20 PUSH1 0x0 KECCAK256 SWAP1 PUSH1 0x7 MUL ADD PUSH1 0x4 ADD DUP2 SWAP1 SSTORE POP CALLER PUSH20 0xFFFFFFFFFFFFFFFFFFFFFFFFFFFFFFFFFFFFFFFF AND DUP6 DUP6 DUP2 SLOAD DUP2 LT PUSH2 0x961 JUMPI PUSH32 0x4E487B7100000000000000000000000000000000000000000000000000000000 PUSH1 0x0 MSTORE PUSH1 0x32 PUSH1 0x4 MSTORE PUSH1 0x24 PUSH1 0x0 REVERT JUMPDEST SWAP1 PUSH1 0x0 MSTORE PUSH1 0x20 PUSH1 0x0 KECCAK256 SWAP1 PUSH1 0x7 MUL ADD PUSH1 0x1 ADD PUSH1 0x0 SWAP1 SLOAD SWAP1 PUSH2 0x100 EXP SWAP1 DIV PUSH20 0xFFFFFFFFFFFFFFFFFFFFFFFFFFFFFFFFFFFFFFFF AND PUSH20 0xFFFFFFFFFFFFFFFFFFFFFFFFFFFFFFFFFFFFFFFF AND DUP12 PUSH32 0x39B691695D8FD269061C85732E747F77E54B8A2CA27230E8D8B17141EF069E5 PUSH1 0x6 SLOAD DUP10 DUP10 DUP2 SLOAD DUP2 LT PUSH2 0xA07 JUMPI PUSH32 0x4E487B7100000000000000000000000000000000000000000000000000000000 PUSH1 0x0 MSTORE PUSH1 0x32 PUSH1 0x4 MSTORE PUSH1 0x24 PUSH1 0x0 REVERT JUMPDEST SWAP1 PUSH1 0x0 MSTORE PUSH1 0x20 PUSH1 0x0 KECCAK256 SWAP1 PUSH1 0x7 MUL ADD PUSH1 0x0 ADD SLOAD DUP7 DUP12 DUP12 DUP2 SLOAD DUP2 LT PUSH2 0xA53 JUMPI PUSH32 0x4E487B7100000000000000000000000000000000000000000000000000000000 PUSH1 0x0 MSTORE PUSH1 0x32 PUSH1 0x4 MSTORE PUSH1 0x24 PUSH1 0x0 REVERT JUMPDEST SWAP1 PUSH1 0x0 MSTORE PUSH1 0x20 PUSH1 0x0 KECCAK256 SWAP1 PUSH1 0x7 MUL ADD PUSH1 0x5 ADD SLOAD TIMESTAMP PUSH1 0x40 MLOAD PUSH2 0xA77 SWAP6 SWAP5 SWAP4 SWAP3 SWAP2 SWAP1 PUSH2 0x338B JUMP JUMPDEST PUSH1 0x40 MLOAD DUP1 SWAP2 SUB SWAP1 LOG4 PUSH1 0x1 DUP1 DUP2 GT ISZERO PUSH2 0xAB8 JUMPI PUSH32 0x4E487B7100000000000000000000000000000000000000000000000000000000 PUSH1 0x0 MSTORE PUSH1 0x21 PUSH1 0x4 MSTORE PUSH1 0x24 PUSH1 0x0 REVERT JUMPDEST DUP9 PUSH1 0x1 DUP2 GT ISZERO PUSH2 0xAF1 JUMPI PUSH32 0x4E487B7100000000000000000000000000000000000000000000000000000000 PUSH1 0x0 MSTORE PUSH1 0x21 PUSH1 0x4 MSTORE PUSH1 0x24 PUSH1 0x0 REVERT JUMPDEST EQ ISZERO PUSH2 0x10B4 JUMPI PUSH2 0xB5A DUP2 PUSH1 0x3 PUSH1 0x0 CALLER PUSH20 0xFFFFFFFFFFFFFFFFFFFFFFFFFFFFFFFFFFFFFFFF AND PUSH20 0xFFFFFFFFFFFFFFFFFFFFFFFFFFFFFFFFFFFFFFFF AND DUP2 MSTORE PUSH1 0x20 ADD SWAP1 DUP2 MSTORE PUSH1 0x20 ADD PUSH1 0x0 KECCAK256 PUSH1 0x0 DUP14 DUP2 MSTORE PUSH1 0x20 ADD SWAP1 DUP2 MSTORE PUSH1 0x20 ADD PUSH1 0x0 KECCAK256 SLOAD PUSH2 0x2CDC SWAP1 SWAP2 SWAP1 PUSH4 0xFFFFFFFF AND JUMP JUMPDEST PUSH1 0x3 PUSH1 0x0 CALLER PUSH20 0xFFFFFFFFFFFFFFFFFFFFFFFFFFFFFFFFFFFFFFFF AND PUSH20 0xFFFFFFFFFFFFFFFFFFFFFFFFFFFFFFFFFFFFFFFF AND DUP2 MSTORE PUSH1 0x20 ADD SWAP1 DUP2 MSTORE PUSH1 0x20 ADD PUSH1 0x0 KECCAK256 PUSH1 0x0 DUP13 DUP2 MSTORE PUSH1 0x20 ADD SWAP1 DUP2 MSTORE PUSH1 0x20 ADD PUSH1 0x0 KECCAK256 DUP2 SWAP1 SSTORE POP PUSH2 0xC8D PUSH2 0xC0E DUP7 DUP7 DUP2 SLOAD DUP2 LT PUSH2 0xBED JUMPI PUSH32 0x4E487B7100000000000000000000000000000000000000000000000000000000 PUSH1 0x0 MSTORE PUSH1 0x32 PUSH1 0x4 MSTORE PUSH1 0x24 PUSH1 0x0 REVERT JUMPDEST SWAP1 PUSH1 0x0 MSTORE PUSH1 0x20 PUSH1 0x0 KECCAK256 SWAP1 PUSH1 0x7 MUL ADD PUSH1 0x5 ADD SLOAD DUP4 PUSH2 0x2D08 SWAP1 SWAP2 SWAP1 PUSH4 0xFFFFFFFF AND JUMP JUMPDEST PUSH1 0x3 PUSH1 0x0 CALLER PUSH20 0xFFFFFFFFFFFFFFFFFFFFFFFFFFFFFFFFFFFFFFFF AND PUSH20 0xFFFFFFFFFFFFFFFFFFFFFFFFFFFFFFFFFFFFFFFF AND DUP2 MSTORE PUSH1 0x20 ADD SWAP1 DUP2 MSTORE PUSH1 0x20 ADD PUSH1 0x0 KECCAK256 PUSH1 0x0 PUSH32 0x4441490000000000000000000000000000000000000000000000000000000000 DUP2 MSTORE PUSH1 0x20 ADD SWAP1 DUP2 MSTORE PUSH1 0x20 ADD PUSH1 0x0 KECCAK256 SLOAD PUSH2 0x2CF2 SWAP1 SWAP2 SWAP1 PUSH4 0xFFFFFFFF AND JUMP JUMPDEST PUSH1 0x3 PUSH1 0x0 CALLER PUSH20 0xFFFFFFFFFFFFFFFFFFFFFFFFFFFFFFFFFFFFFFFF AND PUSH20 0xFFFFFFFFFFFFFFFFFFFFFFFFFFFFFFFFFFFFFFFF AND DUP2 MSTORE PUSH1 0x20 ADD SWAP1 DUP2 MSTORE PUSH1 0x20 ADD PUSH1 0x0 KECCAK256 PUSH1 0x0 PUSH32 0x4441490000000000000000000000000000000000000000000000000000000000 DUP2 MSTORE PUSH1 0x20 ADD SWAP1 DUP2 MSTORE PUSH1 0x20 ADD PUSH1 0x0 KECCAK256 DUP2 SWAP1 SSTORE POP PUSH2 0xDCE DUP2 PUSH1 0x3 PUSH1 0x0 DUP9 DUP9 DUP2 SLOAD DUP2 LT PUSH2 0xD42 JUMPI PUSH32 0x4E487B7100000000000000000000000000000000000000000000000000000000 PUSH1 0x0 MSTORE PUSH1 0x32 PUSH1 0x4 MSTORE PUSH1 0x24 PUSH1 0x0 REVERT JUMPDEST SWAP1 PUSH1 0x0 MSTORE PUSH1 0x20 PUSH1 0x0 KECCAK256 SWAP1 PUSH1 0x7 MUL ADD PUSH1 0x1 ADD PUSH1 0x0 SWAP1 SLOAD SWAP1 PUSH2 0x100 EXP SWAP1 DIV PUSH20 0xFFFFFFFFFFFFFFFFFFFFFFFFFFFFFFFFFFFFFFFF AND PUSH20 0xFFFFFFFFFFFFFFFFFFFFFFFFFFFFFFFFFFFFFFFF AND PUSH20 0xFFFFFFFFFFFFFFFFFFFFFFFFFFFFFFFFFFFFFFFF AND DUP2 MSTORE PUSH1 0x20 ADD SWAP1 DUP2 MSTORE PUSH1 0x20 ADD PUSH1 0x0 KECCAK256 PUSH1 0x0 DUP14 DUP2 MSTORE PUSH1 0x20 ADD SWAP1 DUP2 MSTORE PUSH1 0x20 ADD PUSH1 0x0 KECCAK256 SLOAD PUSH2 0x2CF2 SWAP1 SWAP2 SWAP1 PUSH4 0xFFFFFFFF AND JUMP JUMPDEST PUSH1 0x3 PUSH1 0x0 DUP8 DUP8 DUP2 SLOAD DUP2 LT PUSH2 0xE0B JUMPI PUSH32 0x4E487B7100000000000000000000000000000000000000000000000000000000 PUSH1 0x0 MSTORE PUSH1 0x32 PUSH1 0x4 MSTORE PUSH1 0x24 PUSH1 0x0 REVERT JUMPDEST SWAP1 PUSH1 0x0 MSTORE PUSH1 0x20 PUSH1 0x0 KECCAK256 SWAP1 PUSH1 0x7 MUL ADD PUSH1 0x1 ADD PUSH1 0x0 SWAP1 SLOAD SWAP1 PUSH2 0x100 EXP SWAP1 DIV PUSH20 0xFFFFFFFFFFFFFFFFFFFFFFFFFFFFFFFFFFFFFFFF AND PUSH20 0xFFFFFFFFFFFFFFFFFFFFFFFFFFFFFFFFFFFFFFFF AND PUSH20 0xFFFFFFFFFFFFFFFFFFFFFFFFFFFFFFFFFFFFFFFF AND DUP2 MSTORE PUSH1 0x20 ADD SWAP1 DUP2 MSTORE PUSH1 0x20 ADD PUSH1 0x0 KECCAK256 PUSH1 0x0 DUP13 DUP2 MSTORE PUSH1 0x20 ADD SWAP1 DUP2 MSTORE PUSH1 0x20 ADD PUSH1 0x0 KECCAK256 DUP2 SWAP1 SSTORE POP PUSH2 0xFD5 PUSH2 0xEEC DUP7 DUP7 DUP2 SLOAD DUP2 LT PUSH2 0xECB JUMPI PUSH32 0x4E487B7100000000000000000000000000000000000000000000000000000000 PUSH1 0x0 MSTORE PUSH1 0x32 PUSH1 0x4 MSTORE PUSH1 0x24 PUSH1 0x0 REVERT JUMPDEST SWAP1 PUSH1 0x0 MSTORE PUSH1 0x20 PUSH1 0x0 KECCAK256 SWAP1 PUSH1 0x7 MUL ADD PUSH1 0x5 ADD SLOAD DUP4 PUSH2 0x2D08 SWAP1 SWAP2 SWAP1 PUSH4 0xFFFFFFFF AND JUMP JUMPDEST PUSH1 0x3 PUSH1 0x0 DUP9 DUP9 DUP2 SLOAD DUP2 LT PUSH2 0xF29 JUMPI PUSH32 0x4E487B7100000000000000000000000000000000000000000000000000000000 PUSH1 0x0 MSTORE PUSH1 0x32 PUSH1 0x4 MSTORE PUSH1 0x24 PUSH1 0x0 REVERT JUMPDEST SWAP1 PUSH1 0x0 MSTORE PUSH1 0x20 PUSH1 0x0 KECCAK256 SWAP1 PUSH1 0x7 MUL ADD PUSH1 0x1 ADD PUSH1 0x0 SWAP1 SLOAD SWAP1 PUSH2 0x100 EXP SWAP1 DIV PUSH20 0xFFFFFFFFFFFFFFFFFFFFFFFFFFFFFFFFFFFFFFFF AND PUSH20 0xFFFFFFFFFFFFFFFFFFFFFFFFFFFFFFFFFFFFFFFF AND PUSH20 0xFFFFFFFFFFFFFFFFFFFFFFFFFFFFFFFFFFFFFFFF AND DUP2 MSTORE PUSH1 0x20 ADD SWAP1 DUP2 MSTORE PUSH1 0x20 ADD PUSH1 0x0 KECCAK256 PUSH1 0x0 PUSH32 0x4441490000000000000000000000000000000000000000000000000000000000 DUP2 MSTORE PUSH1 0x20 ADD SWAP1 DUP2 MSTORE PUSH1 0x20 ADD PUSH1 0x0 KECCAK256 SLOAD PUSH2 0x2CDC SWAP1 SWAP2 SWAP1 PUSH4 0xFFFFFFFF AND JUMP JUMPDEST PUSH1 0x3 PUSH1 0x0 DUP8 DUP8 DUP2 SLOAD DUP2 LT PUSH2 0x1012 JUMPI PUSH32 0x4E487B7100000000000000000000000000000000000000000000000000000000 PUSH1 0x0 MSTORE PUSH1 0x32 PUSH1 0x4 MSTORE PUSH1 0x24 PUSH1 0x0 REVERT JUMPDEST SWAP1 PUSH1 0x0 MSTORE PUSH1 0x20 PUSH1 0x0 KECCAK256 SWAP1 PUSH1 0x7 MUL ADD PUSH1 0x1 ADD PUSH1 0x0 SWAP1 SLOAD SWAP1 PUSH2 0x100 EXP SWAP1 DIV PUSH20 0xFFFFFFFFFFFFFFFFFFFFFFFFFFFFFFFFFFFFFFFF AND PUSH20 0xFFFFFFFFFFFFFFFFFFFFFFFFFFFFFFFFFFFFFFFF AND PUSH20 0xFFFFFFFFFFFFFFFFFFFFFFFFFFFFFFFFFFFFFFFF AND DUP2 MSTORE PUSH1 0x20 ADD SWAP1 DUP2 MSTORE PUSH1 0x20 ADD PUSH1 0x0 KECCAK256 PUSH1 0x0 PUSH32 0x4441490000000000000000000000000000000000000000000000000000000000 DUP2 MSTORE PUSH1 0x20 ADD SWAP1 DUP2 MSTORE PUSH1 0x20 ADD PUSH1 0x0 KECCAK256 DUP2 SWAP1 SSTORE POP JUMPDEST PUSH1 0x0 PUSH1 0x1 DUP2 GT ISZERO PUSH2 0x10EE JUMPI PUSH32 0x4E487B7100000000000000000000000000000000000000000000000000000000 PUSH1 0x0 MSTORE PUSH1 0x21 PUSH1 0x4 MSTORE PUSH1 0x24 PUSH1 0x0 REVERT JUMPDEST DUP9 PUSH1 0x1 DUP2 GT ISZERO PUSH2 0x1127 JUMPI PUSH32 0x4E487B7100000000000000000000000000000000000000000000000000000000 PUSH1 0x0 MSTORE PUSH1 0x21 PUSH1 0x4 MSTORE PUSH1 0x24 PUSH1 0x0 REVERT JUMPDEST EQ ISZERO PUSH2 0x17F2 JUMPI DUP5 DUP5 DUP2 SLOAD DUP2 LT PUSH2 0x1166 JUMPI PUSH32 0x4E487B7100000000000000000000000000000000000000000000000000000000 PUSH1 0x0 MSTORE PUSH1 0x32 PUSH1 0x4 MSTORE PUSH1 0x24 PUSH1 0x0 REVERT JUMPDEST SWAP1 PUSH1 0x0 MSTORE PUSH1 0x20 PUSH1 0x0 KECCAK256 SWAP1 PUSH1 0x7 MUL ADD PUSH1 0x5 ADD SLOAD DUP2 PUSH2 0x1183 SWAP2 SWAP1 PUSH2 0x3445 JUMP JUMPDEST PUSH1 0x3 PUSH1 0x0 CALLER PUSH20 0xFFFFFFFFFFFFFFFFFFFFFFFFFFFFFFFFFFFFFFFF AND PUSH20 0xFFFFFFFFFFFFFFFFFFFFFFFFFFFFFFFFFFFFFFFF AND DUP2 MSTORE PUSH1 0x20 ADD SWAP1 DUP2 MSTORE PUSH1 0x20 ADD PUSH1 0x0 KECCAK256 PUSH1 0x0 PUSH32 0x4441490000000000000000000000000000000000000000000000000000000000 DUP2 MSTORE PUSH1 0x20 ADD SWAP1 DUP2 MSTORE PUSH1 0x20 ADD PUSH1 0x0 KECCAK256 SLOAD LT ISZERO PUSH2 0x1235 JUMPI PUSH1 0x40 MLOAD PUSH32 0x8C379A000000000000000000000000000000000000000000000000000000000 DUP2 MSTORE PUSH1 0x4 ADD PUSH2 0x122C SWAP1 PUSH2 0x32B2 JUMP JUMPDEST PUSH1 0x40 MLOAD DUP1 SWAP2 SUB SWAP1 REVERT JUMPDEST PUSH2 0x1298 DUP2 PUSH1 0x3 PUSH1 0x0 CALLER PUSH20 0xFFFFFFFFFFFFFFFFFFFFFFFFFFFFFFFFFFFFFFFF AND PUSH20 0xFFFFFFFFFFFFFFFFFFFFFFFFFFFFFFFFFFFFFFFF AND DUP2 MSTORE PUSH1 0x20 ADD SWAP1 DUP2 MSTORE PUSH1 0x20 ADD PUSH1 0x0 KECCAK256 PUSH1 0x0 DUP14 DUP2 MSTORE PUSH1 0x20 ADD SWAP1 DUP2 MSTORE PUSH1 0x20 ADD PUSH1 0x0 KECCAK256 SLOAD PUSH2 0x2CF2 SWAP1 SWAP2 SWAP1 PUSH4 0xFFFFFFFF AND JUMP JUMPDEST PUSH1 0x3 PUSH1 0x0 CALLER PUSH20 0xFFFFFFFFFFFFFFFFFFFFFFFFFFFFFFFFFFFFFFFF AND PUSH20 0xFFFFFFFFFFFFFFFFFFFFFFFFFFFFFFFFFFFFFFFF AND DUP2 MSTORE PUSH1 0x20 ADD SWAP1 DUP2 MSTORE PUSH1 0x20 ADD PUSH1 0x0 KECCAK256 PUSH1 0x0 DUP13 DUP2 MSTORE PUSH1 0x20 ADD SWAP1 DUP2 MSTORE PUSH1 0x20 ADD PUSH1 0x0 KECCAK256 DUP2 SWAP1 SSTORE POP PUSH2 0x13CB PUSH2 0x134C DUP7 DUP7 DUP2 SLOAD DUP2 LT PUSH2 0x132B JUMPI PUSH32 0x4E487B7100000000000000000000000000000000000000000000000000000000 PUSH1 0x0 MSTORE PUSH1 0x32 PUSH1 0x4 MSTORE PUSH1 0x24 PUSH1 0x0 REVERT JUMPDEST SWAP1 PUSH1 0x0 MSTORE PUSH1 0x20 PUSH1 0x0 KECCAK256 SWAP1 PUSH1 0x7 MUL ADD PUSH1 0x5 ADD SLOAD DUP4 PUSH2 0x2D08 SWAP1 SWAP2 SWAP1 PUSH4 0xFFFFFFFF AND JUMP JUMPDEST PUSH1 0x3 PUSH1 0x0 CALLER PUSH20 0xFFFFFFFFFFFFFFFFFFFFFFFFFFFFFFFFFFFFFFFF AND PUSH20 0xFFFFFFFFFFFFFFFFFFFFFFFFFFFFFFFFFFFFFFFF AND DUP2 MSTORE PUSH1 0x20 ADD SWAP1 DUP2 MSTORE PUSH1 0x20 ADD PUSH1 0x0 KECCAK256 PUSH1 0x0 PUSH32 0x4441490000000000000000000000000000000000000000000000000000000000 DUP2 MSTORE PUSH1 0x20 ADD SWAP1 DUP2 MSTORE PUSH1 0x20 ADD PUSH1 0x0 KECCAK256 SLOAD PUSH2 0x2CDC SWAP1 SWAP2 SWAP1 PUSH4 0xFFFFFFFF AND JUMP JUMPDEST PUSH1 0x3 PUSH1 0x0 CALLER PUSH20 0xFFFFFFFFFFFFFFFFFFFFFFFFFFFFFFFFFFFFFFFF AND PUSH20 0xFFFFFFFFFFFFFFFFFFFFFFFFFFFFFFFFFFFFFFFF AND DUP2 MSTORE PUSH1 0x20 ADD SWAP1 DUP2 MSTORE PUSH1 0x20 ADD PUSH1 0x0 KECCAK256 PUSH1 0x0 PUSH32 0x4441490000000000000000000000000000000000000000000000000000000000 DUP2 MSTORE PUSH1 0x20 ADD SWAP1 DUP2 MSTORE PUSH1 0x20 ADD PUSH1 0x0 KECCAK256 DUP2 SWAP1 SSTORE POP PUSH2 0x150C DUP2 PUSH1 0x3 PUSH1 0x0 DUP9 DUP9 DUP2 SLOAD DUP2 LT PUSH2 0x1480 JUMPI PUSH32 0x4E487B7100000000000000000000000000000000000000000000000000000000 PUSH1 0x0 MSTORE PUSH1 0x32 PUSH1 0x4 MSTORE PUSH1 0x24 PUSH1 0x0 REVERT JUMPDEST SWAP1 PUSH1 0x0 MSTORE PUSH1 0x20 PUSH1 0x0 KECCAK256 SWAP1 PUSH1 0x7 MUL ADD PUSH1 0x1 ADD PUSH1 0x0 SWAP1 SLOAD SWAP1 PUSH2 0x100 EXP SWAP1 DIV PUSH20 0xFFFFFFFFFFFFFFFFFFFFFFFFFFFFFFFFFFFFFFFF AND PUSH20 0xFFFFFFFFFFFFFFFFFFFFFFFFFFFFFFFFFFFFFFFF AND PUSH20 0xFFFFFFFFFFFFFFFFFFFFFFFFFFFFFFFFFFFFFFFF AND DUP2 MSTORE PUSH1 0x20 ADD SWAP1 DUP2 MSTORE PUSH1 0x20 ADD PUSH1 0x0 KECCAK256 PUSH1 0x0 DUP14 DUP2 MSTORE PUSH1 0x20 ADD SWAP1 DUP2 MSTORE PUSH1 0x20 ADD PUSH1 0x0 KECCAK256 SLOAD PUSH2 0x2CDC SWAP1 SWAP2 SWAP1 PUSH4 0xFFFFFFFF AND JUMP JUMPDEST PUSH1 0x3 PUSH1 0x0 DUP8 DUP8 DUP2 SLOAD DUP2 LT PUSH2 0x1549 JUMPI PUSH32 0x4E487B7100000000000000000000000000000000000000000000000000000000 PUSH1 0x0 MSTORE PUSH1 0x32 PUSH1 0x4 MSTORE PUSH1 0x24 PUSH1 0x0 REVERT JUMPDEST SWAP1 PUSH1 0x0 MSTORE PUSH1 0x20 PUSH1 0x0 KECCAK256 SWAP1 PUSH1 0x7 MUL ADD PUSH1 0x1 ADD PUSH1 0x0 SWAP1 SLOAD SWAP1 PUSH2 0x100 EXP SWAP1 DIV PUSH20 0xFFFFFFFFFFFFFFFFFFFFFFFFFFFFFFFFFFFFFFFF AND PUSH20 0xFFFFFFFFFFFFFFFFFFFFFFFFFFFFFFFFFFFFFFFF AND PUSH20 0xFFFFFFFFFFFFFFFFFFFFFFFFFFFFFFFFFFFFFFFF AND DUP2 MSTORE PUSH1 0x20 ADD SWAP1 DUP2 MSTORE PUSH1 0x20 ADD PUSH1 0x0 KECCAK256 PUSH1 0x0 DUP13 DUP2 MSTORE PUSH1 0x20 ADD SWAP1 DUP2 MSTORE PUSH1 0x20 ADD PUSH1 0x0 KECCAK256 DUP2 SWAP1 SSTORE POP PUSH2 0x1713 PUSH2 0x162A DUP7 DUP7 DUP2 SLOAD DUP2 LT PUSH2 0x1609 JUMPI PUSH32 0x4E487B7100000000000000000000000000000000000000000000000000000000 PUSH1 0x0 MSTORE PUSH1 0x32 PUSH1 0x4 MSTORE PUSH1 0x24 PUSH1 0x0 REVERT JUMPDEST SWAP1 PUSH1 0x0 MSTORE PUSH1 0x20 PUSH1 0x0 KECCAK256 SWAP1 PUSH1 0x7 MUL ADD PUSH1 0x5 ADD SLOAD DUP4 PUSH2 0x2D08 SWAP1 SWAP2 SWAP1 PUSH4 0xFFFFFFFF AND JUMP JUMPDEST PUSH1 0x3 PUSH1 0x0 DUP9 DUP9 DUP2 SLOAD DUP2 LT PUSH2 0x1667 JUMPI PUSH32 0x4E487B7100000000000000000000000000000000000000000000000000000000 PUSH1 0x0 MSTORE PUSH1 0x32 PUSH1 0x4 MSTORE PUSH1 0x24 PUSH1 0x0 REVERT JUMPDEST SWAP1 PUSH1 0x0 MSTORE PUSH1 0x20 PUSH1 0x0 KECCAK256 SWAP1 PUSH1 0x7 MUL ADD PUSH1 0x1 ADD PUSH1 0x0 SWAP1 SLOAD SWAP1 PUSH2 0x100 EXP SWAP1 DIV PUSH20 0xFFFFFFFFFFFFFFFFFFFFFFFFFFFFFFFFFFFFFFFF AND PUSH20 0xFFFFFFFFFFFFFFFFFFFFFFFFFFFFFFFFFFFFFFFF AND PUSH20 0xFFFFFFFFFFFFFFFFFFFFFFFFFFFFFFFFFFFFFFFF AND DUP2 MSTORE PUSH1 0x20 ADD SWAP1 DUP2 MSTORE PUSH1 0x20 ADD PUSH1 0x0 KECCAK256 PUSH1 0x0 PUSH32 0x4441490000000000000000000000000000000000000000000000000000000000 DUP2 MSTORE PUSH1 0x20 ADD SWAP1 DUP2 MSTORE PUSH1 0x20 ADD PUSH1 0x0 KECCAK256 SLOAD PUSH2 0x2CF2 SWAP1 SWAP2 SWAP1 PUSH4 0xFFFFFFFF AND JUMP JUMPDEST PUSH1 0x3 PUSH1 0x0 DUP8 DUP8 DUP2 SLOAD DUP2 LT PUSH2 0x1750 JUMPI PUSH32 0x4E487B7100000000000000000000000000000000000000000000000000000000 PUSH1 0x0 MSTORE PUSH1 0x32 PUSH1 0x4 MSTORE PUSH1 0x24 PUSH1 0x0 REVERT JUMPDEST SWAP1 PUSH1 0x0 MSTORE PUSH1 0x20 PUSH1 0x0 KECCAK256 SWAP1 PUSH1 0x7 MUL ADD PUSH1 0x1 ADD PUSH1 0x0 SWAP1 SLOAD SWAP1 PUSH2 0x100 EXP SWAP1 DIV PUSH20 0xFFFFFFFFFFFFFFFFFFFFFFFFFFFFFFFFFFFFFFFF AND PUSH20 0xFFFFFFFFFFFFFFFFFFFFFFFFFFFFFFFFFFFFFFFF AND PUSH20 0xFFFFFFFFFFFFFFFFFFFFFFFFFFFFFFFFFFFFFFFF AND DUP2 MSTORE PUSH1 0x20 ADD SWAP1 DUP2 MSTORE PUSH1 0x20 ADD PUSH1 0x0 KECCAK256 PUSH1 0x0 PUSH32 0x4441490000000000000000000000000000000000000000000000000000000000 DUP2 MSTORE PUSH1 0x20 ADD SWAP1 DUP2 MSTORE PUSH1 0x20 ADD PUSH1 0x0 KECCAK256 DUP2 SWAP1 SSTORE POP JUMPDEST PUSH2 0x1808 PUSH1 0x1 PUSH1 0x6 SLOAD PUSH2 0x2CF2 SWAP1 SWAP2 SWAP1 PUSH4 0xFFFFFFFF AND JUMP JUMPDEST PUSH1 0x6 DUP2 SWAP1 SSTORE POP PUSH2 0x1822 PUSH1 0x1 DUP6 PUSH2 0x2CF2 SWAP1 SWAP2 SWAP1 PUSH4 0xFFFFFFFF AND JUMP JUMPDEST SWAP4 POP POP POP PUSH2 0x77B JUMP JUMPDEST PUSH1 0x0 SWAP2 POP JUMPDEST DUP3 DUP1 SLOAD SWAP1 POP DUP3 LT DUP1 ISZERO PUSH2 0x18D6 JUMPI POP DUP3 DUP3 DUP2 SLOAD DUP2 LT PUSH2 0x1877 JUMPI PUSH32 0x4E487B7100000000000000000000000000000000000000000000000000000000 PUSH1 0x0 MSTORE PUSH1 0x32 PUSH1 0x4 MSTORE PUSH1 0x24 PUSH1 0x0 REVERT JUMPDEST SWAP1 PUSH1 0x0 MSTORE PUSH1 0x20 PUSH1 0x0 KECCAK256 SWAP1 PUSH1 0x7 MUL ADD PUSH1 0x3 ADD SLOAD DUP4 DUP4 DUP2 SLOAD DUP2 LT PUSH2 0x18C2 JUMPI PUSH32 0x4E487B7100000000000000000000000000000000000000000000000000000000 PUSH1 0x0 MSTORE PUSH1 0x32 PUSH1 0x4 MSTORE PUSH1 0x24 PUSH1 0x0 REVERT JUMPDEST SWAP1 PUSH1 0x0 MSTORE PUSH1 0x20 PUSH1 0x0 KECCAK256 SWAP1 PUSH1 0x7 MUL ADD PUSH1 0x4 ADD SLOAD EQ JUMPDEST ISZERO PUSH2 0x1B86 JUMPI PUSH1 0x0 DUP3 SWAP1 POP JUMPDEST PUSH1 0x1 DUP5 DUP1 SLOAD SWAP1 POP PUSH2 0x18F2 SWAP2 SWAP1 PUSH2 0x349F JUMP JUMPDEST DUP2 LT ISZERO PUSH2 0x1AAF JUMPI DUP4 PUSH1 0x1 DUP3 PUSH2 0x1907 SWAP2 SWAP1 PUSH2 0x33EF JUMP JUMPDEST DUP2 SLOAD DUP2 LT PUSH2 0x193E JUMPI PUSH32 0x4E487B7100000000000000000000000000000000000000000000000000000000 PUSH1 0x0 MSTORE PUSH1 0x32 PUSH1 0x4 MSTORE PUSH1 0x24 PUSH1 0x0 REVERT JUMPDEST SWAP1 PUSH1 0x0 MSTORE PUSH1 0x20 PUSH1 0x0 KECCAK256 SWAP1 PUSH1 0x7 MUL ADD DUP5 DUP3 DUP2 SLOAD DUP2 LT PUSH2 0x1985 JUMPI PUSH32 0x4E487B7100000000000000000000000000000000000000000000000000000000 PUSH1 0x0 MSTORE PUSH1 0x32 PUSH1 0x4 MSTORE PUSH1 0x24 PUSH1 0x0 REVERT JUMPDEST SWAP1 PUSH1 0x0 MSTORE PUSH1 0x20 PUSH1 0x0 KECCAK256 SWAP1 PUSH1 0x7 MUL ADD PUSH1 0x0 DUP3 ADD SLOAD DUP2 PUSH1 0x0 ADD SSTORE PUSH1 0x1 DUP3 ADD PUSH1 0x0 SWAP1 SLOAD SWAP1 PUSH2 0x100 EXP SWAP1 DIV PUSH20 0xFFFFFFFFFFFFFFFFFFFFFFFFFFFFFFFFFFFFFFFF AND DUP2 PUSH1 0x1 ADD PUSH1 0x0 PUSH2 0x100 EXP DUP2 SLOAD DUP2 PUSH20 0xFFFFFFFFFFFFFFFFFFFFFFFFFFFFFFFFFFFFFFFF MUL NOT AND SWAP1 DUP4 PUSH20 0xFFFFFFFFFFFFFFFFFFFFFFFFFFFFFFFFFFFFFFFF AND MUL OR SWAP1 SSTORE POP PUSH1 0x1 DUP3 ADD PUSH1 0x14 SWAP1 SLOAD SWAP1 PUSH2 0x100 EXP SWAP1 DIV PUSH1 0xFF AND DUP2 PUSH1 0x1 ADD PUSH1 0x14 PUSH2 0x100 EXP DUP2 SLOAD DUP2 PUSH1 0xFF MUL NOT AND SWAP1 DUP4 PUSH1 0x1 DUP2 GT ISZERO PUSH2 0x1A62 JUMPI PUSH32 0x4E487B7100000000000000000000000000000000000000000000000000000000 PUSH1 0x0 MSTORE PUSH1 0x21 PUSH1 0x4 MSTORE PUSH1 0x24 PUSH1 0x0 REVERT JUMPDEST MUL OR SWAP1 SSTORE POP PUSH1 0x2 DUP3 ADD SLOAD DUP2 PUSH1 0x2 ADD SSTORE PUSH1 0x3 DUP3 ADD SLOAD DUP2 PUSH1 0x3 ADD SSTORE PUSH1 0x4 DUP3 ADD SLOAD DUP2 PUSH1 0x4 ADD SSTORE PUSH1 0x5 DUP3 ADD SLOAD DUP2 PUSH1 0x5 ADD SSTORE PUSH1 0x6 DUP3 ADD SLOAD DUP2 PUSH1 0x6 ADD SSTORE SWAP1 POP POP DUP1 DUP1 PUSH2 0x1AA7 SWAP1 PUSH2 0x354A JUMP JUMPDEST SWAP2 POP POP PUSH2 0x18E1 JUMP JUMPDEST POP DUP3 DUP1 SLOAD DUP1 PUSH2 0x1AE7 JUMPI PUSH32 0x4E487B7100000000000000000000000000000000000000000000000000000000 PUSH1 0x0 MSTORE PUSH1 0x31 PUSH1 0x4 MSTORE PUSH1 0x24 PUSH1 0x0 REVERT JUMPDEST PUSH1 0x1 SWAP1 SUB DUP2 DUP2 SWAP1 PUSH1 0x0 MSTORE PUSH1 0x20 PUSH1 0x0 KECCAK256 SWAP1 PUSH1 0x7 MUL ADD PUSH1 0x0 DUP1 DUP3 ADD PUSH1 0x0 SWAP1 SSTORE PUSH1 0x1 DUP3 ADD PUSH1 0x0 PUSH2 0x100 EXP DUP2 SLOAD SWAP1 PUSH20 0xFFFFFFFFFFFFFFFFFFFFFFFFFFFFFFFFFFFFFFFF MUL NOT AND SWAP1 SSTORE PUSH1 0x1 DUP3 ADD PUSH1 0x14 PUSH2 0x100 EXP DUP2 SLOAD SWAP1 PUSH1 0xFF MUL NOT AND SWAP1 SSTORE PUSH1 0x2 DUP3 ADD PUSH1 0x0 SWAP1 SSTORE PUSH1 0x3 DUP3 ADD PUSH1 0x0 SWAP1 SSTORE PUSH1 0x4 DUP3 ADD PUSH1 0x0 SWAP1 SSTORE PUSH1 0x5 DUP3 ADD PUSH1 0x0 SWAP1 SSTORE PUSH1 0x6 DUP3 ADD PUSH1 0x0 SWAP1 SSTORE POP POP SWAP1 SSTORE PUSH2 0x1B7F PUSH1 0x1 DUP4 PUSH2 0x2CF2 SWAP1 SWAP2 SWAP1 PUSH4 0xFFFFFFFF AND JUMP JUMPDEST SWAP2 POP PUSH2 0x1830 JUMP JUMPDEST POP POP POP POP POP POP POP POP JUMP JUMPDEST PUSH1 0x0 PUSH1 0x20 MSTORE DUP1 PUSH1 0x0 MSTORE PUSH1 0x40 PUSH1 0x0 KECCAK256 PUSH1 0x0 SWAP2 POP SWAP1 POP DUP1 PUSH1 0x0 ADD SLOAD SWAP1 DUP1 PUSH1 0x1 ADD PUSH1 0x0 SWAP1 SLOAD SWAP1 PUSH2 0x100 EXP SWAP1 DIV PUSH20 0xFFFFFFFFFFFFFFFFFFFFFFFFFFFFFFFFFFFFFFFF AND SWAP1 POP DUP3 JUMP JUMPDEST PUSH1 0x5 SLOAD DUP2 JUMP JUMPDEST DUP1 PUSH1 0x0 PUSH20 0xFFFFFFFFFFFFFFFFFFFFFFFFFFFFFFFFFFFFFFFF AND PUSH1 0x0 DUP1 DUP4 DUP2 MSTORE PUSH1 0x20 ADD SWAP1 DUP2 MSTORE PUSH1 0x20 ADD PUSH1 0x0 KECCAK256 PUSH1 0x1 ADD PUSH1 0x0 SWAP1 SLOAD SWAP1 PUSH2 0x100 EXP SWAP1 DIV PUSH20 0xFFFFFFFFFFFFFFFFFFFFFFFFFFFFFFFFFFFFFFFF AND PUSH20 0xFFFFFFFFFFFFFFFFFFFFFFFFFFFFFFFFFFFFFFFF AND EQ ISZERO PUSH2 0x1C80 JUMPI PUSH1 0x40 MLOAD PUSH32 0x8C379A000000000000000000000000000000000000000000000000000000000 DUP2 MSTORE PUSH1 0x4 ADD PUSH2 0x1C77 SWAP1 PUSH2 0x3232 JUMP JUMPDEST PUSH1 0x40 MLOAD DUP1 SWAP2 SUB SWAP1 REVERT JUMPDEST DUP3 PUSH1 0x3 PUSH1 0x0 CALLER PUSH20 0xFFFFFFFFFFFFFFFFFFFFFFFFFFFFFFFFFFFFFFFF AND PUSH20 0xFFFFFFFFFFFFFFFFFFFFFFFFFFFFFFFFFFFFFFFF AND DUP2 MSTORE PUSH1 0x20 ADD SWAP1 DUP2 MSTORE PUSH1 0x20 ADD PUSH1 0x0 KECCAK256 PUSH1 0x0 DUP5 DUP2 MSTORE PUSH1 0x20 ADD SWAP1 DUP2 MSTORE PUSH1 0x20 ADD PUSH1 0x0 KECCAK256 SLOAD LT ISZERO PUSH2 0x1D13 JUMPI PUSH1 0x40 MLOAD PUSH32 0x8C379A000000000000000000000000000000000000000000000000000000000 DUP2 MSTORE PUSH1 0x4 ADD PUSH2 0x1D0A SWAP1 PUSH2 0x3252 JUMP JUMPDEST PUSH1 0x40 MLOAD DUP1 SWAP2 SUB SWAP1 REVERT JUMPDEST PUSH2 0x1D76 DUP4 PUSH1 0x3 PUSH1 0x0 CALLER PUSH20 0xFFFFFFFFFFFFFFFFFFFFFFFFFFFFFFFFFFFFFFFF AND PUSH20 0xFFFFFFFFFFFFFFFFFFFFFFFFFFFFFFFFFFFFFFFF AND DUP2 MSTORE PUSH1 0x20 ADD SWAP1 DUP2 MSTORE PUSH1 0x20 ADD PUSH1 0x0 KECCAK256 PUSH1 0x0 DUP6 DUP2 MSTORE PUSH1 0x20 ADD SWAP1 DUP2 MSTORE PUSH1 0x20 ADD PUSH1 0x0 KECCAK256 SLOAD PUSH2 0x2CDC SWAP1 SWAP2 SWAP1 PUSH4 0xFFFFFFFF AND JUMP JUMPDEST PUSH1 0x3 PUSH1 0x0 CALLER PUSH20 0xFFFFFFFFFFFFFFFFFFFFFFFFFFFFFFFFFFFFFFFF AND PUSH20 0xFFFFFFFFFFFFFFFFFFFFFFFFFFFFFFFFFFFFFFFF AND DUP2 MSTORE PUSH1 0x20 ADD SWAP1 DUP2 MSTORE PUSH1 0x20 ADD PUSH1 0x0 KECCAK256 PUSH1 0x0 DUP5 DUP2 MSTORE PUSH1 0x20 ADD SWAP1 DUP2 MSTORE PUSH1 0x20 ADD PUSH1 0x0 KECCAK256 DUP2 SWAP1 SSTORE POP PUSH1 0x0 DUP1 DUP4 DUP2 MSTORE PUSH1 0x20 ADD SWAP1 DUP2 MSTORE PUSH1 0x20 ADD PUSH1 0x0 KECCAK256 PUSH1 0x1 ADD PUSH1 0x0 SWAP1 SLOAD SWAP1 PUSH2 0x100 EXP SWAP1 DIV PUSH20 0xFFFFFFFFFFFFFFFFFFFFFFFFFFFFFFFFFFFFFFFF AND PUSH20 0xFFFFFFFFFFFFFFFFFFFFFFFFFFFFFFFFFFFFFFFF AND PUSH4 0xA9059CBB CALLER DUP6 PUSH1 0x40 MLOAD DUP4 PUSH4 0xFFFFFFFF AND PUSH1 0xE0 SHL DUP2 MSTORE PUSH1 0x4 ADD PUSH2 0x1E3A SWAP3 SWAP2 SWAP1 PUSH2 0x31C5 JUMP JUMPDEST PUSH1 0x20 PUSH1 0x40 MLOAD DUP1 DUP4 SUB DUP2 PUSH1 0x0 DUP8 DUP1 EXTCODESIZE ISZERO DUP1 ISZERO PUSH2 0x1E54 JUMPI PUSH1 0x0 DUP1 REVERT JUMPDEST POP GAS CALL ISZERO DUP1 ISZERO PUSH2 0x1E68 JUMPI RETURNDATASIZE PUSH1 0x0 DUP1 RETURNDATACOPY RETURNDATASIZE PUSH1 0x0 REVERT JUMPDEST POP POP POP POP PUSH1 0x40 MLOAD RETURNDATASIZE PUSH1 0x1F NOT PUSH1 0x1F DUP3 ADD AND DUP3 ADD DUP1 PUSH1 0x40 MSTORE POP DUP2 ADD SWAP1 PUSH2 0x1E8C SWAP2 SWAP1 PUSH2 0x2DC3 JUMP JUMPDEST POP POP POP POP JUMP JUMPDEST PUSH1 0x3 PUSH1 0x20 MSTORE DUP2 PUSH1 0x0 MSTORE PUSH1 0x40 PUSH1 0x0 KECCAK256 PUSH1 0x20 MSTORE DUP1 PUSH1 0x0 MSTORE PUSH1 0x40 PUSH1 0x0 KECCAK256 PUSH1 0x0 SWAP2 POP SWAP2 POP POP SLOAD DUP2 JUMP JUMPDEST DUP4 PUSH1 0x0 PUSH20 0xFFFFFFFFFFFFFFFFFFFFFFFFFFFFFFFFFFFFFFFF AND PUSH1 0x0 DUP1 DUP4 DUP2 MSTORE PUSH1 0x20 ADD SWAP1 DUP2 MSTORE PUSH1 0x20 ADD PUSH1 0x0 KECCAK256 PUSH1 0x1 ADD PUSH1 0x0 SWAP1 SLOAD SWAP1 PUSH2 0x100 EXP SWAP1 DIV PUSH20 0xFFFFFFFFFFFFFFFFFFFFFFFFFFFFFFFFFFFFFFFF AND PUSH20 0xFFFFFFFFFFFFFFFFFFFFFFFFFFFFFFFFFFFFFFFF AND EQ ISZERO PUSH2 0x1F5D JUMPI PUSH1 0x40 MLOAD PUSH32 0x8C379A000000000000000000000000000000000000000000000000000000000 DUP2 MSTORE PUSH1 0x4 ADD PUSH2 0x1F54 SWAP1 PUSH2 0x3232 JUMP JUMPDEST PUSH1 0x40 MLOAD DUP1 SWAP2 SUB SWAP1 REVERT JUMPDEST DUP5 PUSH32 0x4441490000000000000000000000000000000000000000000000000000000000 DUP2 EQ ISZERO PUSH2 0x1FC1 JUMPI PUSH1 0x40 MLOAD PUSH32 0x8C379A000000000000000000000000000000000000000000000000000000000 DUP2 MSTORE PUSH1 0x4 ADD PUSH2 0x1FB8 SWAP1 PUSH2 0x32D2 JUMP JUMPDEST PUSH1 0x40 MLOAD DUP1 SWAP2 SUB SWAP1 REVERT JUMPDEST PUSH1 0x1 DUP1 DUP2 GT ISZERO PUSH2 0x1FFA JUMPI PUSH32 0x4E487B7100000000000000000000000000000000000000000000000000000000 PUSH1 0x0 MSTORE PUSH1 0x21 PUSH1 0x4 MSTORE PUSH1 0x24 PUSH1 0x0 REVERT JUMPDEST DUP4 PUSH1 0x1 DUP2 GT ISZERO PUSH2 0x2033 JUMPI PUSH32 0x4E487B7100000000000000000000000000000000000000000000000000000000 PUSH1 0x0 MSTORE PUSH1 0x21 PUSH1 0x4 MSTORE PUSH1 0x24 PUSH1 0x0 REVERT JUMPDEST EQ ISZERO PUSH2 0x20D1 JUMPI DUP5 PUSH1 0x3 PUSH1 0x0 CALLER PUSH20 0xFFFFFFFFFFFFFFFFFFFFFFFFFFFFFFFFFFFFFFFF AND PUSH20 0xFFFFFFFFFFFFFFFFFFFFFFFFFFFFFFFFFFFFFFFF AND DUP2 MSTORE PUSH1 0x20 ADD SWAP1 DUP2 MSTORE PUSH1 0x20 ADD PUSH1 0x0 KECCAK256 PUSH1 0x0 DUP9 DUP2 MSTORE PUSH1 0x20 ADD SWAP1 DUP2 MSTORE PUSH1 0x20 ADD PUSH1 0x0 KECCAK256 SLOAD LT ISZERO PUSH2 0x20CC JUMPI PUSH1 0x40 MLOAD PUSH32 0x8C379A000000000000000000000000000000000000000000000000000000000 DUP2 MSTORE PUSH1 0x4 ADD PUSH2 0x20C3 SWAP1 PUSH2 0x3252 JUMP JUMPDEST PUSH1 0x40 MLOAD DUP1 SWAP2 SUB SWAP1 REVERT JUMPDEST PUSH2 0x2197 JUMP JUMPDEST PUSH2 0x20E4 DUP5 DUP7 PUSH2 0x2D08 SWAP1 SWAP2 SWAP1 PUSH4 0xFFFFFFFF AND JUMP JUMPDEST PUSH1 0x3 PUSH1 0x0 CALLER PUSH20 0xFFFFFFFFFFFFFFFFFFFFFFFFFFFFFFFFFFFFFFFF AND PUSH20 0xFFFFFFFFFFFFFFFFFFFFFFFFFFFFFFFFFFFFFFFF AND DUP2 MSTORE PUSH1 0x20 ADD SWAP1 DUP2 MSTORE PUSH1 0x20 ADD PUSH1 0x0 KECCAK256 PUSH1 0x0 PUSH32 0x4441490000000000000000000000000000000000000000000000000000000000 DUP2 MSTORE PUSH1 0x20 ADD SWAP1 DUP2 MSTORE PUSH1 0x20 ADD PUSH1 0x0 KECCAK256 SLOAD LT ISZERO PUSH2 0x2196 JUMPI PUSH1 0x40 MLOAD PUSH32 0x8C379A000000000000000000000000000000000000000000000000000000000 DUP2 MSTORE PUSH1 0x4 ADD PUSH2 0x218D SWAP1 PUSH2 0x3292 JUMP JUMPDEST PUSH1 0x40 MLOAD DUP1 SWAP2 SUB SWAP1 REVERT JUMPDEST JUMPDEST PUSH1 0x0 PUSH1 0x4 PUSH1 0x0 DUP9 DUP2 MSTORE PUSH1 0x20 ADD SWAP1 DUP2 MSTORE PUSH1 0x20 ADD PUSH1 0x0 KECCAK256 PUSH1 0x0 DUP6 PUSH1 0x1 DUP2 GT ISZERO PUSH2 0x21E7 JUMPI PUSH32 0x4E487B7100000000000000000000000000000000000000000000000000000000 PUSH1 0x0 MSTORE PUSH1 0x21 PUSH1 0x4 MSTORE PUSH1 0x24 PUSH1 0x0 REVERT JUMPDEST DUP2 MSTORE PUSH1 0x20 ADD SWAP1 DUP2 MSTORE PUSH1 0x20 ADD PUSH1 0x0 KECCAK256 SWAP1 POP DUP1 PUSH1 0x40 MLOAD DUP1 PUSH2 0x100 ADD PUSH1 0x40 MSTORE DUP1 PUSH1 0x5 SLOAD DUP2 MSTORE PUSH1 0x20 ADD CALLER PUSH20 0xFFFFFFFFFFFFFFFFFFFFFFFFFFFFFFFFFFFFFFFF AND DUP2 MSTORE PUSH1 0x20 ADD DUP7 PUSH1 0x1 DUP2 GT ISZERO PUSH2 0x2261 JUMPI PUSH32 0x4E487B7100000000000000000000000000000000000000000000000000000000 PUSH1 0x0 MSTORE PUSH1 0x21 PUSH1 0x4 MSTORE PUSH1 0x24 PUSH1 0x0 REVERT JUMPDEST DUP2 MSTORE PUSH1 0x20 ADD DUP10 DUP2 MSTORE PUSH1 0x20 ADD DUP9 DUP2 MSTORE PUSH1 0x20 ADD PUSH1 0x0 DUP2 MSTORE PUSH1 0x20 ADD DUP8 DUP2 MSTORE PUSH1 0x20 ADD TIMESTAMP DUP2 MSTORE POP SWAP1 DUP1 PUSH1 0x1 DUP2 SLOAD ADD DUP1 DUP3 SSTORE DUP1 SWAP2 POP POP PUSH1 0x1 SWAP1 SUB SWAP1 PUSH1 0x0 MSTORE PUSH1 0x20 PUSH1 0x0 KECCAK256 SWAP1 PUSH1 0x7 MUL ADD PUSH1 0x0 SWAP1 SWAP2 SWAP1 SWAP2 SWAP1 SWAP2 POP PUSH1 0x0 DUP3 ADD MLOAD DUP2 PUSH1 0x0 ADD SSTORE PUSH1 0x20 DUP3 ADD MLOAD DUP2 PUSH1 0x1 ADD PUSH1 0x0 PUSH2 0x100 EXP DUP2 SLOAD DUP2 PUSH20 0xFFFFFFFFFFFFFFFFFFFFFFFFFFFFFFFFFFFFFFFF MUL NOT AND SWAP1 DUP4 PUSH20 0xFFFFFFFFFFFFFFFFFFFFFFFFFFFFFFFFFFFFFFFF AND MUL OR SWAP1 SSTORE POP PUSH1 0x40 DUP3 ADD MLOAD DUP2 PUSH1 0x1 ADD PUSH1 0x14 PUSH2 0x100 EXP DUP2 SLOAD DUP2 PUSH1 0xFF MUL NOT AND SWAP1 DUP4 PUSH1 0x1 DUP2 GT ISZERO PUSH2 0x234E JUMPI PUSH32 0x4E487B7100000000000000000000000000000000000000000000000000000000 PUSH1 0x0 MSTORE PUSH1 0x21 PUSH1 0x4 MSTORE PUSH1 0x24 PUSH1 0x0 REVERT JUMPDEST MUL OR SWAP1 SSTORE POP PUSH1 0x60 DUP3 ADD MLOAD DUP2 PUSH1 0x2 ADD SSTORE PUSH1 0x80 DUP3 ADD MLOAD DUP2 PUSH1 0x3 ADD SSTORE PUSH1 0xA0 DUP3 ADD MLOAD DUP2 PUSH1 0x4 ADD SSTORE PUSH1 0xC0 DUP3 ADD MLOAD DUP2 PUSH1 0x5 ADD SSTORE PUSH1 0xE0 DUP3 ADD MLOAD DUP2 PUSH1 0x6 ADD SSTORE POP POP PUSH1 0x0 DUP1 DUP3 DUP1 SLOAD SWAP1 POP GT PUSH2 0x239B JUMPI PUSH1 0x0 PUSH2 0x23AD JUMP JUMPDEST PUSH1 0x1 DUP3 DUP1 SLOAD SWAP1 POP PUSH2 0x23AC SWAP2 SWAP1 PUSH2 0x349F JUMP JUMPDEST JUMPDEST SWAP1 POP JUMPDEST PUSH1 0x0 DUP2 GT ISZERO PUSH2 0x2A69 JUMPI PUSH1 0x0 PUSH1 0x1 DUP2 GT ISZERO PUSH2 0x23F3 JUMPI PUSH32 0x4E487B7100000000000000000000000000000000000000000000000000000000 PUSH1 0x0 MSTORE PUSH1 0x21 PUSH1 0x4 MSTORE PUSH1 0x24 PUSH1 0x0 REVERT JUMPDEST DUP6 PUSH1 0x1 DUP2 GT ISZERO PUSH2 0x242C JUMPI PUSH32 0x4E487B7100000000000000000000000000000000000000000000000000000000 PUSH1 0x0 MSTORE PUSH1 0x21 PUSH1 0x4 MSTORE PUSH1 0x24 PUSH1 0x0 REVERT JUMPDEST EQ DUP1 ISZERO PUSH2 0x24D8 JUMPI POP DUP2 DUP2 DUP2 SLOAD DUP2 LT PUSH2 0x246D JUMPI PUSH32 0x4E487B7100000000000000000000000000000000000000000000000000000000 PUSH1 0x0 MSTORE PUSH1 0x32 PUSH1 0x4 MSTORE PUSH1 0x24 PUSH1 0x0 REVERT JUMPDEST SWAP1 PUSH1 0x0 MSTORE PUSH1 0x20 PUSH1 0x0 KECCAK256 SWAP1 PUSH1 0x7 MUL ADD PUSH1 0x5 ADD SLOAD DUP3 PUSH1 0x1 DUP4 PUSH2 0x248D SWAP2 SWAP1 PUSH2 0x349F JUMP JUMPDEST DUP2 SLOAD DUP2 LT PUSH2 0x24C4 JUMPI PUSH32 0x4E487B7100000000000000000000000000000000000000000000000000000000 PUSH1 0x0 MSTORE PUSH1 0x32 PUSH1 0x4 MSTORE PUSH1 0x24 PUSH1 0x0 REVERT JUMPDEST SWAP1 PUSH1 0x0 MSTORE PUSH1 0x20 PUSH1 0x0 KECCAK256 SWAP1 PUSH1 0x7 MUL ADD PUSH1 0x5 ADD SLOAD GT JUMPDEST ISZERO PUSH2 0x24E2 JUMPI PUSH2 0x2A69 JUMP JUMPDEST PUSH1 0x1 DUP1 DUP2 GT ISZERO PUSH2 0x251B JUMPI PUSH32 0x4E487B7100000000000000000000000000000000000000000000000000000000 PUSH1 0x0 MSTORE PUSH1 0x21 PUSH1 0x4 MSTORE PUSH1 0x24 PUSH1 0x0 REVERT JUMPDEST DUP6 PUSH1 0x1 DUP2 GT ISZERO PUSH2 0x2554 JUMPI PUSH32 0x4E487B7100000000000000000000000000000000000000000000000000000000 PUSH1 0x0 MSTORE PUSH1 0x21 PUSH1 0x4 MSTORE PUSH1 0x24 PUSH1 0x0 REVERT JUMPDEST EQ DUP1 ISZERO PUSH2 0x2600 JUMPI POP DUP2 DUP2 DUP2 SLOAD DUP2 LT PUSH2 0x2595 JUMPI PUSH32 0x4E487B7100000000000000000000000000000000000000000000000000000000 PUSH1 0x0 MSTORE PUSH1 0x32 PUSH1 0x4 MSTORE PUSH1 0x24 PUSH1 0x0 REVERT JUMPDEST SWAP1 PUSH1 0x0 MSTORE PUSH1 0x20 PUSH1 0x0 KECCAK256 SWAP1 PUSH1 0x7 MUL ADD PUSH1 0x5 ADD SLOAD DUP3 PUSH1 0x1 DUP4 PUSH2 0x25B5 SWAP2 SWAP1 PUSH2 0x349F JUMP JUMPDEST DUP2 SLOAD DUP2 LT PUSH2 0x25EC JUMPI PUSH32 0x4E487B7100000000000000000000000000000000000000000000000000000000 PUSH1 0x0 MSTORE PUSH1 0x32 PUSH1 0x4 MSTORE PUSH1 0x24 PUSH1 0x0 REVERT JUMPDEST SWAP1 PUSH1 0x0 MSTORE PUSH1 0x20 PUSH1 0x0 KECCAK256 SWAP1 PUSH1 0x7 MUL ADD PUSH1 0x5 ADD SLOAD LT JUMPDEST ISZERO PUSH2 0x260A JUMPI PUSH2 0x2A69 JUMP JUMPDEST PUSH1 0x0 DUP3 PUSH1 0x1 DUP4 PUSH2 0x261A SWAP2 SWAP1 PUSH2 0x349F JUMP JUMPDEST DUP2 SLOAD DUP2 LT PUSH2 0x2651 JUMPI PUSH32 0x4E487B7100000000000000000000000000000000000000000000000000000000 PUSH1 0x0 MSTORE PUSH1 0x32 PUSH1 0x4 MSTORE PUSH1 0x24 PUSH1 0x0 REVERT JUMPDEST SWAP1 PUSH1 0x0 MSTORE PUSH1 0x20 PUSH1 0x0 KECCAK256 SWAP1 PUSH1 0x7 MUL ADD PUSH1 0x40 MLOAD DUP1 PUSH2 0x100 ADD PUSH1 0x40 MSTORE SWAP1 DUP2 PUSH1 0x0 DUP3 ADD SLOAD DUP2 MSTORE PUSH1 0x20 ADD PUSH1 0x1 DUP3 ADD PUSH1 0x0 SWAP1 SLOAD SWAP1 PUSH2 0x100 EXP SWAP1 DIV PUSH20 0xFFFFFFFFFFFFFFFFFFFFFFFFFFFFFFFFFFFFFFFF AND PUSH20 0xFFFFFFFFFFFFFFFFFFFFFFFFFFFFFFFFFFFFFFFF AND PUSH20 0xFFFFFFFFFFFFFFFFFFFFFFFFFFFFFFFFFFFFFFFF AND DUP2 MSTORE PUSH1 0x20 ADD PUSH1 0x1 DUP3 ADD PUSH1 0x14 SWAP1 SLOAD SWAP1 PUSH2 0x100 EXP SWAP1 DIV PUSH1 0xFF AND PUSH1 0x1 DUP2 GT ISZERO PUSH2 0x2716 JUMPI PUSH32 0x4E487B7100000000000000000000000000000000000000000000000000000000 PUSH1 0x0 MSTORE PUSH1 0x21 PUSH1 0x4 MSTORE PUSH1 0x24 PUSH1 0x0 REVERT JUMPDEST PUSH1 0x1 DUP2 GT ISZERO PUSH2 0x274E JUMPI PUSH32 0x4E487B7100000000000000000000000000000000000000000000000000000000 PUSH1 0x0 MSTORE PUSH1 0x21 PUSH1 0x4 MSTORE PUSH1 0x24 PUSH1 0x0 REVERT JUMPDEST DUP2 MSTORE PUSH1 0x20 ADD PUSH1 0x2 DUP3 ADD SLOAD DUP2 MSTORE PUSH1 0x20 ADD PUSH1 0x3 DUP3 ADD SLOAD DUP2 MSTORE PUSH1 0x20 ADD PUSH1 0x4 DUP3 ADD SLOAD DUP2 MSTORE PUSH1 0x20 ADD PUSH1 0x5 DUP3 ADD SLOAD DUP2 MSTORE PUSH1 0x20 ADD PUSH1 0x6 DUP3 ADD SLOAD DUP2 MSTORE POP POP SWAP1 POP DUP3 DUP3 DUP2 SLOAD DUP2 LT PUSH2 0x27BF JUMPI PUSH32 0x4E487B7100000000000000000000000000000000000000000000000000000000 PUSH1 0x0 MSTORE PUSH1 0x32 PUSH1 0x4 MSTORE PUSH1 0x24 PUSH1 0x0 REVERT JUMPDEST SWAP1 PUSH1 0x0 MSTORE PUSH1 0x20 PUSH1 0x0 KECCAK256 SWAP1 PUSH1 0x7 MUL ADD DUP4 PUSH1 0x1 DUP5 PUSH2 0x27DB SWAP2 SWAP1 PUSH2 0x349F JUMP JUMPDEST DUP2 SLOAD DUP2 LT PUSH2 0x2812 JUMPI PUSH32 0x4E487B7100000000000000000000000000000000000000000000000000000000 PUSH1 0x0 MSTORE PUSH1 0x32 PUSH1 0x4 MSTORE PUSH1 0x24 PUSH1 0x0 REVERT JUMPDEST SWAP1 PUSH1 0x0 MSTORE PUSH1 0x20 PUSH1 0x0 KECCAK256 SWAP1 PUSH1 0x7 MUL ADD PUSH1 0x0 DUP3 ADD SLOAD DUP2 PUSH1 0x0 ADD SSTORE PUSH1 0x1 DUP3 ADD PUSH1 0x0 SWAP1 SLOAD SWAP1 PUSH2 0x100 EXP SWAP1 DIV PUSH20 0xFFFFFFFFFFFFFFFFFFFFFFFFFFFFFFFFFFFFFFFF AND DUP2 PUSH1 0x1 ADD PUSH1 0x0 PUSH2 0x100 EXP DUP2 SLOAD DUP2 PUSH20 0xFFFFFFFFFFFFFFFFFFFFFFFFFFFFFFFFFFFFFFFF MUL NOT AND SWAP1 DUP4 PUSH20 0xFFFFFFFFFFFFFFFFFFFFFFFFFFFFFFFFFFFFFFFF AND MUL OR SWAP1 SSTORE POP PUSH1 0x1 DUP3 ADD PUSH1 0x14 SWAP1 SLOAD SWAP1 PUSH2 0x100 EXP SWAP1 DIV PUSH1 0xFF AND DUP2 PUSH1 0x1 ADD PUSH1 0x14 PUSH2 0x100 EXP DUP2 SLOAD DUP2 PUSH1 0xFF MUL NOT AND SWAP1 DUP4 PUSH1 0x1 DUP2 GT ISZERO PUSH2 0x28EF JUMPI PUSH32 0x4E487B7100000000000000000000000000000000000000000000000000000000 PUSH1 0x0 MSTORE PUSH1 0x21 PUSH1 0x4 MSTORE PUSH1 0x24 PUSH1 0x0 REVERT JUMPDEST MUL OR SWAP1 SSTORE POP PUSH1 0x2 DUP3 ADD SLOAD DUP2 PUSH1 0x2 ADD SSTORE PUSH1 0x3 DUP3 ADD SLOAD DUP2 PUSH1 0x3 ADD SSTORE PUSH1 0x4 DUP3 ADD SLOAD DUP2 PUSH1 0x4 ADD SSTORE PUSH1 0x5 DUP3 ADD SLOAD DUP2 PUSH1 0x5 ADD SSTORE PUSH1 0x6 DUP3 ADD SLOAD DUP2 PUSH1 0x6 ADD SSTORE SWAP1 POP POP DUP1 DUP4 DUP4 DUP2 SLOAD DUP2 LT PUSH2 0x2963 JUMPI PUSH32 0x4E487B7100000000000000000000000000000000000000000000000000000000 PUSH1 0x0 MSTORE PUSH1 0x32 PUSH1 0x4 MSTORE PUSH1 0x24 PUSH1 0x0 REVERT JUMPDEST SWAP1 PUSH1 0x0 MSTORE PUSH1 0x20 PUSH1 0x0 KECCAK256 SWAP1 PUSH1 0x7 MUL ADD PUSH1 0x0 DUP3 ADD MLOAD DUP2 PUSH1 0x0 ADD SSTORE PUSH1 0x20 DUP3 ADD MLOAD DUP2 PUSH1 0x1 ADD PUSH1 0x0 PUSH2 0x100 EXP DUP2 SLOAD DUP2 PUSH20 0xFFFFFFFFFFFFFFFFFFFFFFFFFFFFFFFFFFFFFFFF MUL NOT AND SWAP1 DUP4 PUSH20 0xFFFFFFFFFFFFFFFFFFFFFFFFFFFFFFFFFFFFFFFF AND MUL OR SWAP1 SSTORE POP PUSH1 0x40 DUP3 ADD MLOAD DUP2 PUSH1 0x1 ADD PUSH1 0x14 PUSH2 0x100 EXP DUP2 SLOAD DUP2 PUSH1 0xFF MUL NOT AND SWAP1 DUP4 PUSH1 0x1 DUP2 GT ISZERO PUSH2 0x2A13 JUMPI PUSH32 0x4E487B7100000000000000000000000000000000000000000000000000000000 PUSH1 0x0 MSTORE PUSH1 0x21 PUSH1 0x4 MSTORE PUSH1 0x24 PUSH1 0x0 REVERT JUMPDEST MUL OR SWAP1 SSTORE POP PUSH1 0x60 DUP3 ADD MLOAD DUP2 PUSH1 0x2 ADD SSTORE PUSH1 0x80 DUP3 ADD MLOAD DUP2 PUSH1 0x3 ADD SSTORE PUSH1 0xA0 DUP3 ADD MLOAD DUP2 PUSH1 0x4 ADD SSTORE PUSH1 0xC0 DUP3 ADD MLOAD DUP2 PUSH1 0x5 ADD SSTORE PUSH1 0xE0 DUP3 ADD MLOAD DUP2 PUSH1 0x6 ADD SSTORE SWAP1 POP POP PUSH2 0x2A61 PUSH1 0x1 DUP4 PUSH2 0x2CDC SWAP1 SWAP2 SWAP1 PUSH4 0xFFFFFFFF AND JUMP JUMPDEST SWAP2 POP POP PUSH2 0x23B0 JUMP JUMPDEST PUSH2 0x2A7F PUSH1 0x1 PUSH1 0x5 SLOAD PUSH2 0x2CF2 SWAP1 SWAP2 SWAP1 PUSH4 0xFFFFFFFF AND JUMP JUMPDEST PUSH1 0x5 DUP2 SWAP1 SSTORE POP POP POP POP POP POP POP POP POP JUMP JUMPDEST DUP1 PUSH1 0x0 PUSH20 0xFFFFFFFFFFFFFFFFFFFFFFFFFFFFFFFFFFFFFFFF AND PUSH1 0x0 DUP1 DUP4 DUP2 MSTORE PUSH1 0x20 ADD SWAP1 DUP2 MSTORE PUSH1 0x20 ADD PUSH1 0x0 KECCAK256 PUSH1 0x1 ADD PUSH1 0x0 SWAP1 SLOAD SWAP1 PUSH2 0x100 EXP SWAP1 DIV PUSH20 0xFFFFFFFFFFFFFFFFFFFFFFFFFFFFFFFFFFFFFFFF AND PUSH20 0xFFFFFFFFFFFFFFFFFFFFFFFFFFFFFFFFFFFFFFFF AND EQ ISZERO PUSH2 0x2B35 JUMPI PUSH1 0x40 MLOAD PUSH32 0x8C379A000000000000000000000000000000000000000000000000000000000 DUP2 MSTORE PUSH1 0x4 ADD PUSH2 0x2B2C SWAP1 PUSH2 0x3232 JUMP JUMPDEST PUSH1 0x40 MLOAD DUP1 SWAP2 SUB SWAP1 REVERT JUMPDEST PUSH1 0x0 DUP1 DUP4 DUP2 MSTORE PUSH1 0x20 ADD SWAP1 DUP2 MSTORE PUSH1 0x20 ADD PUSH1 0x0 KECCAK256 PUSH1 0x1 ADD PUSH1 0x0 SWAP1 SLOAD SWAP1 PUSH2 0x100 EXP SWAP1 DIV PUSH20 0xFFFFFFFFFFFFFFFFFFFFFFFFFFFFFFFFFFFFFFFF AND PUSH20 0xFFFFFFFFFFFFFFFFFFFFFFFFFFFFFFFFFFFFFFFF AND PUSH4 0x23B872DD CALLER ADDRESS DUP7 PUSH1 0x40 MLOAD DUP5 PUSH4 0xFFFFFFFF AND PUSH1 0xE0 SHL DUP2 MSTORE PUSH1 0x4 ADD PUSH2 0x2BA7 SWAP4 SWAP3 SWAP2 SWAP1 PUSH2 0x318E JUMP JUMPDEST PUSH1 0x20 PUSH1 0x40 MLOAD DUP1 DUP4 SUB DUP2 PUSH1 0x0 DUP8 DUP1 EXTCODESIZE ISZERO DUP1 ISZERO PUSH2 0x2BC1 JUMPI PUSH1 0x0 DUP1 REVERT JUMPDEST POP GAS CALL ISZERO DUP1 ISZERO PUSH2 0x2BD5 JUMPI RETURNDATASIZE PUSH1 0x0 DUP1 RETURNDATACOPY RETURNDATASIZE PUSH1 0x0 REVERT JUMPDEST POP POP POP POP PUSH1 0x40 MLOAD RETURNDATASIZE PUSH1 0x1F NOT PUSH1 0x1F DUP3 ADD AND DUP3 ADD DUP1 PUSH1 0x40 MSTORE POP DUP2 ADD SWAP1 PUSH2 0x2BF9 SWAP2 SWAP1 PUSH2 0x2DC3 JUMP JUMPDEST POP PUSH2 0x2C5D DUP4 PUSH1 0x3 PUSH1 0x0 CALLER PUSH20 0xFFFFFFFFFFFFFFFFFFFFFFFFFFFFFFFFFFFFFFFF AND PUSH20 0xFFFFFFFFFFFFFFFFFFFFFFFFFFFFFFFFFFFFFFFF AND DUP2 MSTORE PUSH1 0x20 ADD SWAP1 DUP2 MSTORE PUSH1 0x20 ADD PUSH1 0x0 KECCAK256 PUSH1 0x0 DUP6 DUP2 MSTORE PUSH1 0x20 ADD SWAP1 DUP2 MSTORE PUSH1 0x20 ADD PUSH1 0x0 KECCAK256 SLOAD PUSH2 0x2CF2 SWAP1 SWAP2 SWAP1 PUSH4 0xFFFFFFFF AND JUMP JUMPDEST PUSH1 0x3 PUSH1 0x0 CALLER PUSH20 0xFFFFFFFFFFFFFFFFFFFFFFFFFFFFFFFFFFFFFFFF AND PUSH20 0xFFFFFFFFFFFFFFFFFFFFFFFFFFFFFFFFFFFFFFFF AND DUP2 MSTORE PUSH1 0x20 ADD SWAP1 DUP2 MSTORE PUSH1 0x20 ADD PUSH1 0x0 KECCAK256 PUSH1 0x0 DUP5 DUP2 MSTORE PUSH1 0x20 ADD SWAP1 DUP2 MSTORE PUSH1 0x20 ADD PUSH1 0x0 KECCAK256 DUP2 SWAP1 SSTORE POP POP POP POP JUMP JUMPDEST PUSH1 0x2 PUSH1 0x0 SWAP1 SLOAD SWAP1 PUSH2 0x100 EXP SWAP1 DIV PUSH20 0xFFFFFFFFFFFFFFFFFFFFFFFFFFFFFFFFFFFFFFFF AND DUP2 JUMP JUMPDEST PUSH1 0x0 DUP2 DUP4 PUSH2 0x2CEA SWAP2 SWAP1 PUSH2 0x349F JUMP JUMPDEST SWAP1 POP SWAP3 SWAP2 POP POP JUMP JUMPDEST PUSH1 0x0 DUP2 DUP4 PUSH2 0x2D00 SWAP2 SWAP1 PUSH2 0x33EF JUMP JUMPDEST SWAP1 POP SWAP3 SWAP2 POP POP JUMP JUMPDEST PUSH1 0x0 DUP2 DUP4 PUSH2 0x2D16 SWAP2 SWAP1 PUSH2 0x3445 JUMP JUMPDEST SWAP1 POP SWAP3 SWAP2 POP POP JUMP JUMPDEST PUSH1 0x0 DUP2 CALLDATALOAD SWAP1 POP PUSH2 0x2D2D DUP2 PUSH2 0x3605 JUMP JUMPDEST SWAP3 SWAP2 POP POP JUMP JUMPDEST PUSH1 0x0 DUP2 MLOAD SWAP1 POP PUSH2 0x2D42 DUP2 PUSH2 0x361C JUMP JUMPDEST SWAP3 SWAP2 POP POP JUMP JUMPDEST PUSH1 0x0 DUP2 CALLDATALOAD SWAP1 POP PUSH2 0x2D57 DUP2 PUSH2 0x3633 JUMP JUMPDEST SWAP3 SWAP2 POP POP JUMP JUMPDEST PUSH1 0x0 DUP2 CALLDATALOAD SWAP1 POP PUSH2 0x2D6C DUP2 PUSH2 0x364A JUMP JUMPDEST SWAP3 SWAP2 POP POP JUMP JUMPDEST PUSH1 0x0 DUP2 CALLDATALOAD SWAP1 POP PUSH2 0x2D81 DUP2 PUSH2 0x365A JUMP JUMPDEST SWAP3 SWAP2 POP POP JUMP JUMPDEST PUSH1 0x0 DUP1 PUSH1 0x40 DUP4 DUP6 SUB SLT ISZERO PUSH2 0x2D9A JUMPI PUSH1 0x0 DUP1 REVERT JUMPDEST PUSH1 0x0 PUSH2 0x2DA8 DUP6 DUP3 DUP7 ADD PUSH2 0x2D1E JUMP JUMPDEST SWAP3 POP POP PUSH1 0x20 PUSH2 0x2DB9 DUP6 DUP3 DUP7 ADD PUSH2 0x2D48 JUMP JUMPDEST SWAP2 POP POP SWAP3 POP SWAP3 SWAP1 POP JUMP JUMPDEST PUSH1 0x0 PUSH1 0x20 DUP3 DUP5 SUB SLT ISZERO PUSH2 0x2DD5 JUMPI PUSH1 0x0 DUP1 REVERT JUMPDEST PUSH1 0x0 PUSH2 0x2DE3 DUP5 DUP3 DUP6 ADD PUSH2 0x2D33 JUMP JUMPDEST SWAP2 POP POP SWAP3 SWAP2 POP POP JUMP JUMPDEST PUSH1 0x0 PUSH1 0x20 DUP3 DUP5 SUB SLT ISZERO PUSH2 0x2DFE JUMPI PUSH1 0x0 DUP1 REVERT JUMPDEST PUSH1 0x0 PUSH2 0x2E0C DUP5 DUP3 DUP6 ADD PUSH2 0x2D48 JUMP JUMPDEST SWAP2 POP POP SWAP3 SWAP2 POP POP JUMP JUMPDEST PUSH1 0x0 DUP1 PUSH1 0x40 DUP4 DUP6 SUB SLT ISZERO PUSH2 0x2E28 JUMPI PUSH1 0x0 DUP1 REVERT JUMPDEST PUSH1 0x0 PUSH2 0x2E36 DUP6 DUP3 DUP7 ADD PUSH2 0x2D48 JUMP JUMPDEST SWAP3 POP POP PUSH1 0x20 PUSH2 0x2E47 DUP6 DUP3 DUP7 ADD PUSH2 0x2D1E JUMP JUMPDEST SWAP2 POP POP SWAP3 POP SWAP3 SWAP1 POP JUMP JUMPDEST PUSH1 0x0 DUP1 PUSH1 0x0 PUSH1 0x60 DUP5 DUP7 SUB SLT ISZERO PUSH2 0x2E66 JUMPI PUSH1 0x0 DUP1 REVERT JUMPDEST PUSH1 0x0 PUSH2 0x2E74 DUP7 DUP3 DUP8 ADD PUSH2 0x2D48 JUMP JUMPDEST SWAP4 POP POP PUSH1 0x20 PUSH2 0x2E85 DUP7 DUP3 DUP8 ADD PUSH2 0x2D72 JUMP JUMPDEST SWAP3 POP POP PUSH1 0x40 PUSH2 0x2E96 DUP7 DUP3 DUP8 ADD PUSH2 0x2D5D JUMP JUMPDEST SWAP2 POP POP SWAP3 POP SWAP3 POP SWAP3 JUMP JUMPDEST PUSH1 0x0 DUP1 PUSH1 0x0 PUSH1 0x60 DUP5 DUP7 SUB SLT ISZERO PUSH2 0x2EB5 JUMPI PUSH1 0x0 DUP1 REVERT JUMPDEST PUSH1 0x0 PUSH2 0x2EC3 DUP7 DUP3 DUP8 ADD PUSH2 0x2D48 JUMP JUMPDEST SWAP4 POP POP PUSH1 0x20 PUSH2 0x2ED4 DUP7 DUP3 DUP8 ADD PUSH2 0x2D72 JUMP JUMPDEST SWAP3 POP POP PUSH1 0x40 PUSH2 0x2EE5 DUP7 DUP3 DUP8 ADD PUSH2 0x2D72 JUMP JUMPDEST SWAP2 POP POP SWAP3 POP SWAP3 POP SWAP3 JUMP JUMPDEST PUSH1 0x0 DUP1 PUSH1 0x0 DUP1 PUSH1 0x80 DUP6 DUP8 SUB SLT ISZERO PUSH2 0x2F05 JUMPI PUSH1 0x0 DUP1 REVERT JUMPDEST PUSH1 0x0 PUSH2 0x2F13 DUP8 DUP3 DUP9 ADD PUSH2 0x2D48 JUMP JUMPDEST SWAP5 POP POP PUSH1 0x20 PUSH2 0x2F24 DUP8 DUP3 DUP9 ADD PUSH2 0x2D72 JUMP JUMPDEST SWAP4 POP POP PUSH1 0x40 PUSH2 0x2F35 DUP8 DUP3 DUP9 ADD PUSH2 0x2D72 JUMP JUMPDEST SWAP3 POP POP PUSH1 0x60 PUSH2 0x2F46 DUP8 DUP3 DUP9 ADD PUSH2 0x2D5D JUMP JUMPDEST SWAP2 POP POP SWAP3 SWAP6 SWAP2 SWAP5 POP SWAP3 POP JUMP JUMPDEST PUSH1 0x0 PUSH1 0x20 DUP3 DUP5 SUB SLT ISZERO PUSH2 0x2F64 JUMPI PUSH1 0x0 DUP1 REVERT JUMPDEST PUSH1 0x0 PUSH2 0x2F72 DUP5 DUP3 DUP6 ADD PUSH2 0x2D72 JUMP JUMPDEST SWAP2 POP POP SWAP3 SWAP2 POP POP JUMP JUMPDEST PUSH1 0x0 DUP1 PUSH1 0x40 DUP4 DUP6 SUB SLT ISZERO PUSH2 0x2F8E JUMPI PUSH1 0x0 DUP1 REVERT JUMPDEST PUSH1 0x0 PUSH2 0x2F9C DUP6 DUP3 DUP7 ADD PUSH2 0x2D72 JUMP JUMPDEST SWAP3 POP POP PUSH1 0x20 PUSH2 0x2FAD DUP6 DUP3 DUP7 ADD PUSH2 0x2D48 JUMP JUMPDEST SWAP2 POP POP SWAP3 POP SWAP3 SWAP1 POP JUMP JUMPDEST PUSH2 0x2FC0 DUP2 PUSH2 0x34D3 JUMP JUMPDEST DUP3 MSTORE POP POP JUMP JUMPDEST PUSH2 0x2FCF DUP2 PUSH2 0x34F1 JUMP JUMPDEST DUP3 MSTORE POP POP JUMP JUMPDEST PUSH2 0x2FDE DUP2 PUSH2 0x3538 JUMP JUMPDEST DUP3 MSTORE POP POP JUMP JUMPDEST PUSH1 0x0 PUSH2 0x2FF1 PUSH1 0x13 DUP4 PUSH2 0x33DE JUMP JUMPDEST SWAP2 POP PUSH32 0x546F6B656E20646F65736E6F7420657869737400000000000000000000000000 PUSH1 0x0 DUP4 ADD MSTORE PUSH1 0x20 DUP3 ADD SWAP1 POP SWAP2 SWAP1 POP JUMP JUMPDEST PUSH1 0x0 PUSH2 0x3031 PUSH1 0x14 DUP4 PUSH2 0x33DE JUMP JUMPDEST SWAP2 POP PUSH32 0x496E73756666696369656E742042616C616E6365000000000000000000000000 PUSH1 0x0 DUP4 ADD MSTORE PUSH1 0x20 DUP3 ADD SWAP1 POP SWAP2 SWAP1 POP JUMP JUMPDEST PUSH1 0x0 PUSH2 0x3071 PUSH1 0xA DUP4 PUSH2 0x33DE JUMP JUMPDEST SWAP2 POP PUSH32 0x4F6E6C792041646D696E00000000000000000000000000000000000000000000 PUSH1 0x0 DUP4 ADD MSTORE PUSH1 0x20 DUP3 ADD SWAP1 POP SWAP2 SWAP1 POP JUMP JUMPDEST PUSH1 0x0 PUSH2 0x30B1 PUSH1 0x13 DUP4 PUSH2 0x33DE JUMP JUMPDEST SWAP2 POP PUSH32 0x4441492042616C616E636520746F6F206C6F7700000000000000000000000000 PUSH1 0x0 DUP4 ADD MSTORE PUSH1 0x20 DUP3 ADD SWAP1 POP SWAP2 SWAP1 POP JUMP JUMPDEST PUSH1 0x0 PUSH2 0x30F1 PUSH1 0x17 DUP4 PUSH2 0x33DE JUMP JUMPDEST SWAP2 POP PUSH32 0x496E73756666696369656E742044414920546F6B656E73000000000000000000 PUSH1 0x0 DUP4 ADD MSTORE PUSH1 0x20 DUP3 ADD SWAP1 POP SWAP2 SWAP1 POP JUMP JUMPDEST PUSH1 0x0 PUSH2 0x3131 PUSH1 0x10 DUP4 PUSH2 0x33DE JUMP JUMPDEST SWAP2 POP PUSH32 0x43616E6E6F742074726164652044414900000000000000000000000000000000 PUSH1 0x0 DUP4 ADD MSTORE PUSH1 0x20 DUP3 ADD SWAP1 POP SWAP2 SWAP1 POP JUMP JUMPDEST PUSH2 0x316D DUP2 PUSH2 0x352E JUMP JUMPDEST DUP3 MSTORE POP POP JUMP JUMPDEST PUSH1 0x0 PUSH1 0x20 DUP3 ADD SWAP1 POP PUSH2 0x3188 PUSH1 0x0 DUP4 ADD DUP5 PUSH2 0x2FB7 JUMP JUMPDEST SWAP3 SWAP2 POP POP JUMP JUMPDEST PUSH1 0x0 PUSH1 0x60 DUP3 ADD SWAP1 POP PUSH2 0x31A3 PUSH1 0x0 DUP4 ADD DUP7 PUSH2 0x2FB7 JUMP JUMPDEST PUSH2 0x31B0 PUSH1 0x20 DUP4 ADD DUP6 PUSH2 0x2FB7 JUMP JUMPDEST PUSH2 0x31BD PUSH1 0x40 DUP4 ADD DUP5 PUSH2 0x3164 JUMP JUMPDEST SWAP5 SWAP4 POP POP POP POP JUMP JUMPDEST PUSH1 0x0 PUSH1 0x40 DUP3 ADD SWAP1 POP PUSH2 0x31DA PUSH1 0x0 DUP4 ADD DUP6 PUSH2 0x2FB7 JUMP JUMPDEST PUSH2 0x31E7 PUSH1 0x20 DUP4 ADD DUP5 PUSH2 0x3164 JUMP JUMPDEST SWAP4 SWAP3 POP POP POP JUMP JUMPDEST PUSH1 0x0 PUSH1 0x20 DUP3 ADD SWAP1 POP PUSH2 0x3203 PUSH1 0x0 DUP4 ADD DUP5 PUSH2 0x2FC6 JUMP JUMPDEST SWAP3 SWAP2 POP POP JUMP JUMPDEST PUSH1 0x0 PUSH1 0x40 DUP3 ADD SWAP1 POP PUSH2 0x321E PUSH1 0x0 DUP4 ADD DUP6 PUSH2 0x2FC6 JUMP JUMPDEST PUSH2 0x322B PUSH1 0x20 DUP4 ADD DUP5 PUSH2 0x2FB7 JUMP JUMPDEST SWAP4 SWAP3 POP POP POP JUMP JUMPDEST PUSH1 0x0 PUSH1 0x20 DUP3 ADD SWAP1 POP DUP2 DUP2 SUB PUSH1 0x0 DUP4 ADD MSTORE PUSH2 0x324B DUP2 PUSH2 0x2FE4 JUMP JUMPDEST SWAP1 POP SWAP2 SWAP1 POP JUMP JUMPDEST PUSH1 0x0 PUSH1 0x20 DUP3 ADD SWAP1 POP DUP2 DUP2 SUB PUSH1 0x0 DUP4 ADD MSTORE PUSH2 0x326B DUP2 PUSH2 0x3024 JUMP JUMPDEST SWAP1 POP SWAP2 SWAP1 POP JUMP JUMPDEST PUSH1 0x0 PUSH1 0x20 DUP3 ADD SWAP1 POP DUP2 DUP2 SUB PUSH1 0x0 DUP4 ADD MSTORE PUSH2 0x328B DUP2 PUSH2 0x3064 JUMP JUMPDEST SWAP1 POP SWAP2 SWAP1 POP JUMP JUMPDEST PUSH1 0x0 PUSH1 0x20 DUP3 ADD SWAP1 POP DUP2 DUP2 SUB PUSH1 0x0 DUP4 ADD MSTORE PUSH2 0x32AB DUP2 PUSH2 0x30A4 JUMP JUMPDEST SWAP1 POP SWAP2 SWAP1 POP JUMP JUMPDEST PUSH1 0x0 PUSH1 0x20 DUP3 ADD SWAP1 POP DUP2 DUP2 SUB PUSH1 0x0 DUP4 ADD MSTORE PUSH2 0x32CB DUP2 PUSH2 0x30E4 JUMP JUMPDEST SWAP1 POP SWAP2 SWAP1 POP JUMP JUMPDEST PUSH1 0x0 PUSH1 0x20 DUP3 ADD SWAP1 POP DUP2 DUP2 SUB PUSH1 0x0 DUP4 ADD MSTORE PUSH2 0x32EB DUP2 PUSH2 0x3124 JUMP JUMPDEST SWAP1 POP SWAP2 SWAP1 POP JUMP JUMPDEST PUSH1 0x0 PUSH1 0x20 DUP3 ADD SWAP1 POP PUSH2 0x3307 PUSH1 0x0 DUP4 ADD DUP5 PUSH2 0x3164 JUMP JUMPDEST SWAP3 SWAP2 POP POP JUMP JUMPDEST PUSH1 0x0 PUSH2 0x100 DUP3 ADD SWAP1 POP PUSH2 0x3323 PUSH1 0x0 DUP4 ADD DUP12 PUSH2 0x3164 JUMP JUMPDEST PUSH2 0x3330 PUSH1 0x20 DUP4 ADD DUP11 PUSH2 0x2FB7 JUMP JUMPDEST PUSH2 0x333D PUSH1 0x40 DUP4 ADD DUP10 PUSH2 0x2FD5 JUMP JUMPDEST PUSH2 0x334A PUSH1 0x60 DUP4 ADD DUP9 PUSH2 0x2FC6 JUMP JUMPDEST PUSH2 0x3357 PUSH1 0x80 DUP4 ADD DUP8 PUSH2 0x3164 JUMP JUMPDEST PUSH2 0x3364 PUSH1 0xA0 DUP4 ADD DUP7 PUSH2 0x3164 JUMP JUMPDEST PUSH2 0x3371 PUSH1 0xC0 DUP4 ADD DUP6 PUSH2 0x3164 JUMP JUMPDEST PUSH2 0x337E PUSH1 0xE0 DUP4 ADD DUP5 PUSH2 0x3164 JUMP JUMPDEST SWAP10 SWAP9 POP POP POP POP POP POP POP POP POP JUMP JUMPDEST PUSH1 0x0 PUSH1 0xA0 DUP3 ADD SWAP1 POP PUSH2 0x33A0 PUSH1 0x0 DUP4 ADD DUP9 PUSH2 0x3164 JUMP JUMPDEST PUSH2 0x33AD PUSH1 0x20 DUP4 ADD DUP8 PUSH2 0x3164 JUMP JUMPDEST PUSH2 0x33BA PUSH1 0x40 DUP4 ADD DUP7 PUSH2 0x3164 JUMP JUMPDEST PUSH2 0x33C7 PUSH1 0x60 DUP4 ADD DUP6 PUSH2 0x3164 JUMP JUMPDEST PUSH2 0x33D4 PUSH1 0x80 DUP4 ADD DUP5 PUSH2 0x3164 JUMP JUMPDEST SWAP7 SWAP6 POP POP POP POP POP POP JUMP JUMPDEST PUSH1 0x0 DUP3 DUP3 MSTORE PUSH1 0x20 DUP3 ADD SWAP1 POP SWAP3 SWAP2 POP POP JUMP JUMPDEST PUSH1 0x0 PUSH2 0x33FA DUP3 PUSH2 0x352E JUMP JUMPDEST SWAP2 POP PUSH2 0x3405 DUP4 PUSH2 0x352E JUMP JUMPDEST SWAP3 POP DUP3 PUSH32 0xFFFFFFFFFFFFFFFFFFFFFFFFFFFFFFFFFFFFFFFFFFFFFFFFFFFFFFFFFFFFFFFF SUB DUP3 GT ISZERO PUSH2 0x343A JUMPI PUSH2 0x3439 PUSH2 0x3593 JUMP JUMPDEST JUMPDEST DUP3 DUP3 ADD SWAP1 POP SWAP3 SWAP2 POP POP JUMP JUMPDEST PUSH1 0x0 PUSH2 0x3450 DUP3 PUSH2 0x352E JUMP JUMPDEST SWAP2 POP PUSH2 0x345B DUP4 PUSH2 0x352E JUMP JUMPDEST SWAP3 POP DUP2 PUSH32 0xFFFFFFFFFFFFFFFFFFFFFFFFFFFFFFFFFFFFFFFFFFFFFFFFFFFFFFFFFFFFFFFF DIV DUP4 GT DUP3 ISZERO ISZERO AND ISZERO PUSH2 0x3494 JUMPI PUSH2 0x3493 PUSH2 0x3593 JUMP JUMPDEST JUMPDEST DUP3 DUP3 MUL SWAP1 POP SWAP3 SWAP2 POP POP JUMP JUMPDEST PUSH1 0x0 PUSH2 0x34AA DUP3 PUSH2 0x352E JUMP JUMPDEST SWAP2 POP PUSH2 0x34B5 DUP4 PUSH2 0x352E JUMP JUMPDEST SWAP3 POP DUP3 DUP3 LT ISZERO PUSH2 0x34C8 JUMPI PUSH2 0x34C7 PUSH2 0x3593 JUMP JUMPDEST JUMPDEST DUP3 DUP3 SUB SWAP1 POP SWAP3 SWAP2 POP POP JUMP JUMPDEST PUSH1 0x0 PUSH2 0x34DE DUP3 PUSH2 0x350E JUMP JUMPDEST SWAP1 POP SWAP2 SWAP1 POP JUMP JUMPDEST PUSH1 0x0 DUP2 ISZERO ISZERO SWAP1 POP SWAP2 SWAP1 POP JUMP JUMPDEST PUSH1 0x0 DUP2 SWAP1 POP SWAP2 SWAP1 POP JUMP JUMPDEST PUSH1 0x0 DUP2 SWAP1 POP PUSH2 0x3509 DUP3 PUSH2 0x35F1 JUMP JUMPDEST SWAP2 SWAP1 POP JUMP JUMPDEST PUSH1 0x0 PUSH20 0xFFFFFFFFFFFFFFFFFFFFFFFFFFFFFFFFFFFFFFFF DUP3 AND SWAP1 POP SWAP2 SWAP1 POP JUMP JUMPDEST PUSH1 0x0 DUP2 SWAP1 POP SWAP2 SWAP1 POP JUMP JUMPDEST PUSH1 0x0 PUSH2 0x3543 DUP3 PUSH2 0x34FB JUMP JUMPDEST SWAP1 POP SWAP2 SWAP1 POP JUMP JUMPDEST PUSH1 0x0 PUSH2 0x3555 DUP3 PUSH2 0x352E JUMP JUMPDEST SWAP2 POP PUSH32 0xFFFFFFFFFFFFFFFFFFFFFFFFFFFFFFFFFFFFFFFFFFFFFFFFFFFFFFFFFFFFFFFF DUP3 EQ ISZERO PUSH2 0x3588 JUMPI PUSH2 0x3587 PUSH2 0x3593 JUMP JUMPDEST JUMPDEST PUSH1 0x1 DUP3 ADD SWAP1 POP SWAP2 SWAP1 POP JUMP JUMPDEST PUSH32 0x4E487B7100000000000000000000000000000000000000000000000000000000 PUSH1 0x0 MSTORE PUSH1 0x11 PUSH1 0x4 MSTORE PUSH1 0x24 PUSH1 0x0 REVERT JUMPDEST PUSH32 0x4E487B7100000000000000000000000000000000000000000000000000000000 PUSH1 0x0 MSTORE PUSH1 0x21 PUSH1 0x4 MSTORE PUSH1 0x24 PUSH1 0x0 REVERT JUMPDEST PUSH1 0x2 DUP2 LT PUSH2 0x3602 JUMPI PUSH2 0x3601 PUSH2 0x35C2 JUMP JUMPDEST JUMPDEST POP JUMP JUMPDEST PUSH2 0x360E DUP2 PUSH2 0x34D3 JUMP JUMPDEST DUP2 EQ PUSH2 0x3619 JUMPI PUSH1 0x0 DUP1 REVERT JUMPDEST POP JUMP JUMPDEST PUSH2 0x3625 DUP2 PUSH2 0x34E5 JUMP JUMPDEST DUP2 EQ PUSH2 0x3630 JUMPI PUSH1 0x0 DUP1 REVERT JUMPDEST POP JUMP JUMPDEST PUSH2 0x363C DUP2 PUSH2 0x34F1 JUMP JUMPDEST DUP2 EQ PUSH2 0x3647 JUMPI PUSH1 0x0 DUP1 REVERT JUMPDEST POP JUMP JUMPDEST PUSH1 0x2 DUP2 LT PUSH2 0x3657 JUMPI PUSH1 0x0 DUP1 REVERT JUMPDEST POP JUMP JUMPDEST PUSH2 0x3663 DUP2 PUSH2 0x352E JUMP JUMPDEST DUP2 EQ PUSH2 0x366E JUMPI PUSH1 0x0 DUP1 REVERT JUMPDEST POP JUMP INVALID LOG2 PUSH5 0x6970667358 0x22 SLT KECCAK256 0xBB DUP10 0xEA 0xB9 0xE 0xD3 SWAP15 0x2B 0x2C 0x2F 0xCA JUMPI SWAP10 SIGNEXTEND MOD MOD 0xD9 SSTORE PUSH17 0xD7A64519EE1DF63F75083B585564736F6C PUSH4 0x43000800 STOP CALLER "
				},
				"gasEstimates": {
					"creation": {
						"codeDepositCost": "2798200",
						"executionCost": "23919",
						"totalCost": "2822119"
					},
					"external": {
						"add_token(bytes32,address)": "83500",
						"admin()": "1324",
						"create_limit_order(bytes32,uint256,uint256,uint8)": "infinite",
						"create_market_order(bytes32,uint256,uint8)": "infinite",
						"deposit(uint256,bytes32)": "infinite",
						"next_order_id()": "1129",
						"next_trade_id()": "1174",
						"order_book(bytes32,uint256,uint256)": "infinite",
						"token_list(uint256)": "2349",
						"tokens(bytes32)": "infinite",
						"trader_balances(address,bytes32)": "1794",
						"withdraw(uint256,bytes32)": "infinite"
					}
				},
				"methodIdentifiers": {
					"add_token(bytes32,address)": "1b66807d",
					"admin()": "f851a440",
					"create_limit_order(bytes32,uint256,uint256,uint8)": "b3a7e99a",
					"create_market_order(bytes32,uint256,uint8)": "63c7d8b9",
					"deposit(uint256,bytes32)": "c9630cb0",
					"next_order_id()": "9dd4d0c3",
					"next_trade_id()": "43325777",
					"order_book(bytes32,uint256,uint256)": "0baaacd2",
					"token_list(uint256)": "538cad00",
					"tokens(bytes32)": "904194a3",
					"trader_balances(address,bytes32)": "a962846a",
					"withdraw(uint256,bytes32)": "a8d2021a"
				}
			},
			"storageLayout": {
				"storage": [
					{
						"astId": 427,
						"contract": "contracts/Dex.sol:Dex",
						"label": "tokens",
						"offset": 0,
						"slot": "0",
						"type": "t_mapping(t_bytes32,t_struct(Token)404_storage)"
					},
					{
						"astId": 430,
						"contract": "contracts/Dex.sol:Dex",
						"label": "token_list",
						"offset": 0,
						"slot": "1",
						"type": "t_array(t_bytes32)dyn_storage"
					},
					{
						"astId": 432,
						"contract": "contracts/Dex.sol:Dex",
						"label": "admin",
						"offset": 0,
						"slot": "2",
						"type": "t_address"
					},
					{
						"astId": 438,
						"contract": "contracts/Dex.sol:Dex",
						"label": "trader_balances",
						"offset": 0,
						"slot": "3",
						"type": "t_mapping(t_address,t_mapping(t_bytes32,t_uint256))"
					},
					{
						"astId": 446,
						"contract": "contracts/Dex.sol:Dex",
						"label": "order_book",
						"offset": 0,
						"slot": "4",
						"type": "t_mapping(t_bytes32,t_mapping(t_uint256,t_array(t_struct(Order)422_storage)dyn_storage))"
					},
					{
						"astId": 448,
						"contract": "contracts/Dex.sol:Dex",
						"label": "next_order_id",
						"offset": 0,
						"slot": "5",
						"type": "t_uint256"
					},
					{
						"astId": 450,
						"contract": "contracts/Dex.sol:Dex",
						"label": "next_trade_id",
						"offset": 0,
						"slot": "6",
						"type": "t_uint256"
					}
				],
				"types": {
					"t_address": {
						"encoding": "inplace",
						"label": "address",
						"numberOfBytes": "20"
					},
					"t_array(t_bytes32)dyn_storage": {
						"base": "t_bytes32",
						"encoding": "dynamic_array",
						"label": "bytes32[]",
						"numberOfBytes": "32"
					},
					"t_array(t_struct(Order)422_storage)dyn_storage": {
						"base": "t_struct(Order)422_storage",
						"encoding": "dynamic_array",
						"label": "struct Dex.Order[]",
						"numberOfBytes": "32"
					},
					"t_bytes32": {
						"encoding": "inplace",
						"label": "bytes32",
						"numberOfBytes": "32"
					},
					"t_enum(Side)399": {
						"encoding": "inplace",
						"label": "enum Dex.Side",
						"numberOfBytes": "1"
					},
					"t_mapping(t_address,t_mapping(t_bytes32,t_uint256))": {
						"encoding": "mapping",
						"key": "t_address",
						"label": "mapping(address => mapping(bytes32 => uint256))",
						"numberOfBytes": "32",
						"value": "t_mapping(t_bytes32,t_uint256)"
					},
					"t_mapping(t_bytes32,t_mapping(t_uint256,t_array(t_struct(Order)422_storage)dyn_storage))": {
						"encoding": "mapping",
						"key": "t_bytes32",
						"label": "mapping(bytes32 => mapping(uint256 => struct Dex.Order[]))",
						"numberOfBytes": "32",
						"value": "t_mapping(t_uint256,t_array(t_struct(Order)422_storage)dyn_storage)"
					},
					"t_mapping(t_bytes32,t_struct(Token)404_storage)": {
						"encoding": "mapping",
						"key": "t_bytes32",
						"label": "mapping(bytes32 => struct Dex.Token)",
						"numberOfBytes": "32",
						"value": "t_struct(Token)404_storage"
					},
					"t_mapping(t_bytes32,t_uint256)": {
						"encoding": "mapping",
						"key": "t_bytes32",
						"label": "mapping(bytes32 => uint256)",
						"numberOfBytes": "32",
						"value": "t_uint256"
					},
					"t_mapping(t_uint256,t_array(t_struct(Order)422_storage)dyn_storage)": {
						"encoding": "mapping",
						"key": "t_uint256",
						"label": "mapping(uint256 => struct Dex.Order[])",
						"numberOfBytes": "32",
						"value": "t_array(t_struct(Order)422_storage)dyn_storage"
					},
					"t_struct(Order)422_storage": {
						"encoding": "inplace",
						"label": "struct Dex.Order",
						"members": [
							{
								"astId": 406,
								"contract": "contracts/Dex.sol:Dex",
								"label": "id",
								"offset": 0,
								"slot": "0",
								"type": "t_uint256"
							},
							{
								"astId": 408,
								"contract": "contracts/Dex.sol:Dex",
								"label": "trader",
								"offset": 0,
								"slot": "1",
								"type": "t_address"
							},
							{
								"astId": 411,
								"contract": "contracts/Dex.sol:Dex",
								"label": "side",
								"offset": 20,
								"slot": "1",
								"type": "t_enum(Side)399"
							},
							{
								"astId": 413,
								"contract": "contracts/Dex.sol:Dex",
								"label": "ticker",
								"offset": 0,
								"slot": "2",
								"type": "t_bytes32"
							},
							{
								"astId": 415,
								"contract": "contracts/Dex.sol:Dex",
								"label": "amount",
								"offset": 0,
								"slot": "3",
								"type": "t_uint256"
							},
							{
								"astId": 417,
								"contract": "contracts/Dex.sol:Dex",
								"label": "filled",
								"offset": 0,
								"slot": "4",
								"type": "t_uint256"
							},
							{
								"astId": 419,
								"contract": "contracts/Dex.sol:Dex",
								"label": "price",
								"offset": 0,
								"slot": "5",
								"type": "t_uint256"
							},
							{
								"astId": 421,
								"contract": "contracts/Dex.sol:Dex",
								"label": "date",
								"offset": 0,
								"slot": "6",
								"type": "t_uint256"
							}
						],
						"numberOfBytes": "224"
					},
					"t_struct(Token)404_storage": {
						"encoding": "inplace",
						"label": "struct Dex.Token",
						"members": [
							{
								"astId": 401,
								"contract": "contracts/Dex.sol:Dex",
								"label": "ticker",
								"offset": 0,
								"slot": "0",
								"type": "t_bytes32"
							},
							{
								"astId": 403,
								"contract": "contracts/Dex.sol:Dex",
								"label": "token_address",
								"offset": 0,
								"slot": "1",
								"type": "t_address"
							}
						],
						"numberOfBytes": "64"
					},
					"t_uint256": {
						"encoding": "inplace",
						"label": "uint256",
						"numberOfBytes": "32"
					}
				}
			},
			"userdoc": {
				"kind": "user",
				"methods": {},
				"version": 1
			}
		}
	}
}