{
  "contractName": "Dex",
  "abi": [
    {
      "inputs": [],
      "stateMutability": "nonpayable",
      "type": "constructor"
    },
    {
      "anonymous": false,
      "inputs": [
        {
          "indexed": false,
          "internalType": "uint256",
          "name": "trade_id",
          "type": "uint256"
        },
        {
          "indexed": false,
          "internalType": "uint256",
          "name": "order_id",
          "type": "uint256"
        },
        {
          "indexed": true,
          "internalType": "bytes32",
          "name": "ticker",
          "type": "bytes32"
        },
        {
          "indexed": true,
          "internalType": "address",
          "name": "trader_1",
          "type": "address"
        },
        {
          "indexed": true,
          "internalType": "address",
          "name": "trader_2",
          "type": "address"
        },
        {
          "indexed": false,
          "internalType": "uint256",
          "name": "amount",
          "type": "uint256"
        },
        {
          "indexed": false,
          "internalType": "uint256",
          "name": "price",
          "type": "uint256"
        },
        {
          "indexed": false,
          "internalType": "uint256",
          "name": "date",
          "type": "uint256"
        }
      ],
      "name": "New_Trade",
      "type": "event"
    },
    {
      "inputs": [],
      "name": "admin",
      "outputs": [
        {
          "internalType": "address",
          "name": "",
          "type": "address"
        }
      ],
      "stateMutability": "view",
      "type": "function",
      "constant": true
    },
    {
      "inputs": [],
      "name": "next_order_id",
      "outputs": [
        {
          "internalType": "uint256",
          "name": "",
          "type": "uint256"
        }
      ],
      "stateMutability": "view",
      "type": "function",
      "constant": true
    },
    {
      "inputs": [],
      "name": "next_trade_id",
      "outputs": [
        {
          "internalType": "uint256",
          "name": "",
          "type": "uint256"
        }
      ],
      "stateMutability": "view",
      "type": "function",
      "constant": true
    },
    {
      "inputs": [
        {
          "internalType": "bytes32",
          "name": "",
          "type": "bytes32"
        },
        {
          "internalType": "uint256",
          "name": "",
          "type": "uint256"
        },
        {
          "internalType": "uint256",
          "name": "",
          "type": "uint256"
        }
      ],
      "name": "order_book",
      "outputs": [
        {
          "internalType": "uint256",
          "name": "id",
          "type": "uint256"
        },
        {
          "internalType": "address",
          "name": "trader",
          "type": "address"
        },
        {
          "internalType": "enum Dex.Side",
          "name": "side",
          "type": "uint8"
        },
        {
          "internalType": "bytes32",
          "name": "ticker",
          "type": "bytes32"
        },
        {
          "internalType": "uint256",
          "name": "amount",
          "type": "uint256"
        },
        {
          "internalType": "uint256",
          "name": "filled",
          "type": "uint256"
        },
        {
          "internalType": "uint256",
          "name": "price",
          "type": "uint256"
        },
        {
          "internalType": "uint256",
          "name": "date",
          "type": "uint256"
        }
      ],
      "stateMutability": "view",
      "type": "function",
      "constant": true
    },
    {
      "inputs": [
        {
          "internalType": "uint256",
          "name": "",
          "type": "uint256"
        }
      ],
      "name": "token_list",
      "outputs": [
        {
          "internalType": "bytes32",
          "name": "",
          "type": "bytes32"
        }
      ],
      "stateMutability": "view",
      "type": "function",
      "constant": true
    },
    {
      "inputs": [
        {
          "internalType": "bytes32",
          "name": "",
          "type": "bytes32"
        }
      ],
      "name": "tokens",
      "outputs": [
        {
          "internalType": "bytes32",
          "name": "ticker",
          "type": "bytes32"
        },
        {
          "internalType": "address",
          "name": "token_address",
          "type": "address"
        }
      ],
      "stateMutability": "view",
      "type": "function",
      "constant": true
    },
    {
      "inputs": [
        {
          "internalType": "address",
          "name": "",
          "type": "address"
        },
        {
          "internalType": "bytes32",
          "name": "",
          "type": "bytes32"
        }
      ],
      "name": "trader_balances",
      "outputs": [
        {
          "internalType": "uint256",
          "name": "",
          "type": "uint256"
        }
      ],
      "stateMutability": "view",
      "type": "function",
      "constant": true
    },
    {
      "inputs": [
        {
          "internalType": "bytes32",
          "name": "ticker",
          "type": "bytes32"
        },
        {
          "internalType": "enum Dex.Side",
          "name": "side",
          "type": "uint8"
        }
      ],
      "name": "get_orders",
      "outputs": [
        {
          "components": [
            {
              "internalType": "uint256",
              "name": "id",
              "type": "uint256"
            },
            {
              "internalType": "address",
              "name": "trader",
              "type": "address"
            },
            {
              "internalType": "enum Dex.Side",
              "name": "side",
              "type": "uint8"
            },
            {
              "internalType": "bytes32",
              "name": "ticker",
              "type": "bytes32"
            },
            {
              "internalType": "uint256",
              "name": "amount",
              "type": "uint256"
            },
            {
              "internalType": "uint256",
              "name": "filled",
              "type": "uint256"
            },
            {
              "internalType": "uint256",
              "name": "price",
              "type": "uint256"
            },
            {
              "internalType": "uint256",
              "name": "date",
              "type": "uint256"
            }
          ],
          "internalType": "struct Dex.Order[]",
          "name": "",
          "type": "tuple[]"
        }
      ],
      "stateMutability": "view",
      "type": "function",
      "constant": true
    },
    {
      "inputs": [],
      "name": "getTokens",
      "outputs": [
        {
          "components": [
            {
              "internalType": "bytes32",
              "name": "ticker",
              "type": "bytes32"
            },
            {
              "internalType": "address",
              "name": "token_address",
              "type": "address"
            }
          ],
          "internalType": "struct Dex.Token[]",
          "name": "",
          "type": "tuple[]"
        }
      ],
      "stateMutability": "view",
      "type": "function",
      "constant": true
    },
    {
      "inputs": [
        {
          "internalType": "bytes32",
          "name": "ticker",
          "type": "bytes32"
        },
        {
          "internalType": "address",
          "name": "token_address",
          "type": "address"
        }
      ],
      "name": "add_token",
      "outputs": [],
      "stateMutability": "nonpayable",
      "type": "function"
    },
    {
      "inputs": [
        {
          "internalType": "uint256",
          "name": "amount",
          "type": "uint256"
        },
        {
          "internalType": "bytes32",
          "name": "ticker",
          "type": "bytes32"
        }
      ],
      "name": "deposit",
      "outputs": [],
      "stateMutability": "nonpayable",
      "type": "function"
    },
    {
      "inputs": [
        {
          "internalType": "uint256",
          "name": "amount",
          "type": "uint256"
        },
        {
          "internalType": "bytes32",
          "name": "ticker",
          "type": "bytes32"
        }
      ],
      "name": "withdraw",
      "outputs": [],
      "stateMutability": "nonpayable",
      "type": "function"
    },
    {
      "inputs": [
        {
          "internalType": "bytes32",
          "name": "ticker",
          "type": "bytes32"
        },
        {
          "internalType": "uint256",
          "name": "amount",
          "type": "uint256"
        },
        {
          "internalType": "uint256",
          "name": "price",
          "type": "uint256"
        },
        {
          "internalType": "enum Dex.Side",
          "name": "side",
          "type": "uint8"
        }
      ],
      "name": "create_limit_order",
      "outputs": [],
      "stateMutability": "nonpayable",
      "type": "function"
    },
    {
      "inputs": [
        {
          "internalType": "bytes32",
          "name": "ticker",
          "type": "bytes32"
        },
        {
          "internalType": "uint256",
          "name": "amount",
          "type": "uint256"
        },
        {
          "internalType": "enum Dex.Side",
          "name": "side",
          "type": "uint8"
        }
      ],
      "name": "create_market_order",
      "outputs": [],
      "stateMutability": "nonpayable",
      "type": "function"
    }
  ],
  "bytecode": "0x608060405234801561001057600080fd5b5033600260006101000a81548173ffffffffffffffffffffffffffffffffffffffff021916908373ffffffffffffffffffffffffffffffffffffffff160217905550613e11806100616000396000f3fe608060405234801561001057600080fd5b50600436106100ea5760003560e01c80639dd4d0c31161008c578063aa6ca80811610066578063aa6ca80814610277578063b3a7e99a14610295578063c9630cb0146102b1578063f851a440146102cd576100ea565b80639dd4d0c31461020d578063a8d2021a1461022b578063a962846a14610247576100ea565b806343325777116100c85780634332577714610172578063538cad001461019057806363c7d8b9146101c0578063904194a3146101dc576100ea565b80630baaacd2146100ef5780631b66807d146101265780632103526114610142575b600080fd5b6101096004803603810190610104919061335a565b6102eb565b60405161011d989796959493929190613a05565b60405180910390f35b610140600480360381019061013b9190613293565b61038a565b005b61015c600480360381019061015791906132cf565b6104d8565b60405161016991906138a2565b60405180910390f35b61017a6106ae565b60405161018791906139ea565b60405180910390f35b6101aa60048036038101906101a5919061340c565b6106b4565b6040516101b791906138e6565b60405180910390f35b6101da60048036038101906101d5919061330b565b6106d8565b005b6101f660048036038101906101f1919061326a565b611dea565b604051610204929190613901565b60405180910390f35b610215611e2e565b60405161022291906139ea565b60405180910390f35b61024560048036038101906102409190613435565b611e34565b005b610261600480360381019061025c9190613205565b6120ec565b60405161026e91906139ea565b60405180910390f35b61027f612111565b60405161028c91906138c4565b60405180910390f35b6102af60048036038101906102aa91906133a9565b612302565b005b6102cb60048036038101906102c69190613435565b612eda565b005b6102d5613101565b6040516102e29190613827565b60405180910390f35b6004602052826000526040600020602052816000526040600020818154811061031357600080fd5b906000526020600020906007020160009250925050508060000154908060010160009054906101000a900473ffffffffffffffffffffffffffffffffffffffff16908060010160149054906101000a900460ff16908060020154908060030154908060040154908060050154908060060154905088565b600260009054906101000a900473ffffffffffffffffffffffffffffffffffffffff1673ffffffffffffffffffffffffffffffffffffffff163373ffffffffffffffffffffffffffffffffffffffff161461041a576040517f08c379a00000000000000000000000000000000000000000000000000000000081526004016104119061396a565b60405180910390fd5b60405180604001604052808381526020018273ffffffffffffffffffffffffffffffffffffffff168152506000808481526020019081526020016000206000820151816000015560208201518160010160006101000a81548173ffffffffffffffffffffffffffffffffffffffff021916908373ffffffffffffffffffffffffffffffffffffffff16021790555090505060018290806001815401808255809150506001900390600052602060002001600090919091909150555050565b6060600460008481526020019081526020016000206000836001811115610528577f4e487b7100000000000000000000000000000000000000000000000000000000600052602160045260246000fd5b8152602001908152602001600020805480602002602001604051908101604052809291908181526020016000905b828210156106a2578382906000526020600020906007020160405180610100016040529081600082015481526020016001820160009054906101000a900473ffffffffffffffffffffffffffffffffffffffff1673ffffffffffffffffffffffffffffffffffffffff1673ffffffffffffffffffffffffffffffffffffffff1681526020016001820160149054906101000a900460ff166001811115610625577f4e487b7100000000000000000000000000000000000000000000000000000000600052602160045260246000fd5b600181111561065d577f4e487b7100000000000000000000000000000000000000000000000000000000600052602160045260246000fd5b81526020016002820154815260200160038201548152602001600482015481526020016005820154815260200160068201548152505081526020019060010190610556565b50505050905092915050565b60065481565b600181815481106106c457600080fd5b906000526020600020016000915090505481565b82600073ffffffffffffffffffffffffffffffffffffffff1660008083815260200190815260200160002060010160009054906101000a900473ffffffffffffffffffffffffffffffffffffffff1673ffffffffffffffffffffffffffffffffffffffff16141561077e576040517f08c379a00000000000000000000000000000000000000000000000000000000081526004016107759061392a565b60405180910390fd5b837f44414900000000000000000000000000000000000000000000000000000000008114156107e2576040517f08c379a00000000000000000000000000000000000000000000000000000000081526004016107d9906139ca565b60405180910390fd5b60018081111561081b577f4e487b7100000000000000000000000000000000000000000000000000000000600052602160045260246000fd5b836001811115610854577f4e487b7100000000000000000000000000000000000000000000000000000000600052602160045260246000fd5b14156108ee5783600360003373ffffffffffffffffffffffffffffffffffffffff1673ffffffffffffffffffffffffffffffffffffffff16815260200190815260200160002060008781526020019081526020016000205410156108ed576040517f08c379a00000000000000000000000000000000000000000000000000000000081526004016108e49061394a565b60405180910390fd5b5b600060046000878152602001908152602001600020600080600181111561093e577f4e487b7100000000000000000000000000000000000000000000000000000000600052602160045260246000fd5b866001811115610977577f4e487b7100000000000000000000000000000000000000000000000000000000600052602160045260246000fd5b14610983576000610986565b60015b60018111156109be577f4e487b7100000000000000000000000000000000000000000000000000000000600052602160045260246000fd5b815260200190815260200160002090506000808690505b8280549050821080156109e85750600081115b15611a85576000610a96848481548110610a2b577f4e487b7100000000000000000000000000000000000000000000000000000000600052603260045260246000fd5b906000526020600020906007020160040154858581548110610a76577f4e487b7100000000000000000000000000000000000000000000000000000000600052603260045260246000fd5b90600052602060002090600702016003015461312790919063ffffffff16565b90506000818311610aa75782610aa9565b815b9050610abe818461312790919063ffffffff16565b9250610b1d81868681548110610afd577f4e487b7100000000000000000000000000000000000000000000000000000000600052603260045260246000fd5b90600052602060002090600702016004015461313d90919063ffffffff16565b858581548110610b56577f4e487b7100000000000000000000000000000000000000000000000000000000600052603260045260246000fd5b9060005260206000209060070201600401819055503373ffffffffffffffffffffffffffffffffffffffff16858581548110610bbb577f4e487b7100000000000000000000000000000000000000000000000000000000600052603260045260246000fd5b906000526020600020906007020160010160009054906101000a900473ffffffffffffffffffffffffffffffffffffffff1673ffffffffffffffffffffffffffffffffffffffff168b7f039b691695d8fd269061c85732e747f77e54b8a2ca27230e8d8b17141ef069e5600654898981548110610c61577f4e487b7100000000000000000000000000000000000000000000000000000000600052603260045260246000fd5b906000526020600020906007020160000154868b8b81548110610cad577f4e487b7100000000000000000000000000000000000000000000000000000000600052603260045260246000fd5b90600052602060002090600702016005015442604051610cd1959493929190613a83565b60405180910390a4600180811115610d12577f4e487b7100000000000000000000000000000000000000000000000000000000600052602160045260246000fd5b886001811115610d4b577f4e487b7100000000000000000000000000000000000000000000000000000000600052602160045260246000fd5b141561130e57610db481600360003373ffffffffffffffffffffffffffffffffffffffff1673ffffffffffffffffffffffffffffffffffffffff16815260200190815260200160002060008d81526020019081526020016000205461312790919063ffffffff16565b600360003373ffffffffffffffffffffffffffffffffffffffff1673ffffffffffffffffffffffffffffffffffffffff16815260200190815260200160002060008c815260200190815260200160002081905550610ee7610e68868681548110610e47577f4e487b7100000000000000000000000000000000000000000000000000000000600052603260045260246000fd5b9060005260206000209060070201600501548361315390919063ffffffff16565b600360003373ffffffffffffffffffffffffffffffffffffffff1673ffffffffffffffffffffffffffffffffffffffff16815260200190815260200160002060007f444149000000000000000000000000000000000000000000000000000000000081526020019081526020016000205461313d90919063ffffffff16565b600360003373ffffffffffffffffffffffffffffffffffffffff1673ffffffffffffffffffffffffffffffffffffffff16815260200190815260200160002060007f44414900000000000000000000000000000000000000000000000000000000008152602001908152602001600020819055506110288160036000888881548110610f9c577f4e487b7100000000000000000000000000000000000000000000000000000000600052603260045260246000fd5b906000526020600020906007020160010160009054906101000a900473ffffffffffffffffffffffffffffffffffffffff1673ffffffffffffffffffffffffffffffffffffffff1673ffffffffffffffffffffffffffffffffffffffff16815260200190815260200160002060008d81526020019081526020016000205461313d90919063ffffffff16565b60036000878781548110611065577f4e487b7100000000000000000000000000000000000000000000000000000000600052603260045260246000fd5b906000526020600020906007020160010160009054906101000a900473ffffffffffffffffffffffffffffffffffffffff1673ffffffffffffffffffffffffffffffffffffffff1673ffffffffffffffffffffffffffffffffffffffff16815260200190815260200160002060008c81526020019081526020016000208190555061122f611146868681548110611125577f4e487b7100000000000000000000000000000000000000000000000000000000600052603260045260246000fd5b9060005260206000209060070201600501548361315390919063ffffffff16565b60036000888881548110611183577f4e487b7100000000000000000000000000000000000000000000000000000000600052603260045260246000fd5b906000526020600020906007020160010160009054906101000a900473ffffffffffffffffffffffffffffffffffffffff1673ffffffffffffffffffffffffffffffffffffffff1673ffffffffffffffffffffffffffffffffffffffff16815260200190815260200160002060007f444149000000000000000000000000000000000000000000000000000000000081526020019081526020016000205461312790919063ffffffff16565b6003600087878154811061126c577f4e487b7100000000000000000000000000000000000000000000000000000000600052603260045260246000fd5b906000526020600020906007020160010160009054906101000a900473ffffffffffffffffffffffffffffffffffffffff1673ffffffffffffffffffffffffffffffffffffffff1673ffffffffffffffffffffffffffffffffffffffff16815260200190815260200160002060007f44414900000000000000000000000000000000000000000000000000000000008152602001908152602001600020819055505b60006001811115611348577f4e487b7100000000000000000000000000000000000000000000000000000000600052602160045260246000fd5b886001811115611381577f4e487b7100000000000000000000000000000000000000000000000000000000600052602160045260246000fd5b1415611a4c578484815481106113c0577f4e487b7100000000000000000000000000000000000000000000000000000000600052603260045260246000fd5b906000526020600020906007020160050154816113dd9190613baf565b600360003373ffffffffffffffffffffffffffffffffffffffff1673ffffffffffffffffffffffffffffffffffffffff16815260200190815260200160002060007f4441490000000000000000000000000000000000000000000000000000000000815260200190815260200160002054101561148f576040517f08c379a0000000000000000000000000000000000000000000000000000000008152600401611486906139aa565b60405180910390fd5b6114f281600360003373ffffffffffffffffffffffffffffffffffffffff1673ffffffffffffffffffffffffffffffffffffffff16815260200190815260200160002060008d81526020019081526020016000205461313d90919063ffffffff16565b600360003373ffffffffffffffffffffffffffffffffffffffff1673ffffffffffffffffffffffffffffffffffffffff16815260200190815260200160002060008c8152602001908152602001600020819055506116256115a6868681548110611585577f4e487b7100000000000000000000000000000000000000000000000000000000600052603260045260246000fd5b9060005260206000209060070201600501548361315390919063ffffffff16565b600360003373ffffffffffffffffffffffffffffffffffffffff1673ffffffffffffffffffffffffffffffffffffffff16815260200190815260200160002060007f444149000000000000000000000000000000000000000000000000000000000081526020019081526020016000205461312790919063ffffffff16565b600360003373ffffffffffffffffffffffffffffffffffffffff1673ffffffffffffffffffffffffffffffffffffffff16815260200190815260200160002060007f444149000000000000000000000000000000000000000000000000000000000081526020019081526020016000208190555061176681600360008888815481106116da577f4e487b7100000000000000000000000000000000000000000000000000000000600052603260045260246000fd5b906000526020600020906007020160010160009054906101000a900473ffffffffffffffffffffffffffffffffffffffff1673ffffffffffffffffffffffffffffffffffffffff1673ffffffffffffffffffffffffffffffffffffffff16815260200190815260200160002060008d81526020019081526020016000205461312790919063ffffffff16565b600360008787815481106117a3577f4e487b7100000000000000000000000000000000000000000000000000000000600052603260045260246000fd5b906000526020600020906007020160010160009054906101000a900473ffffffffffffffffffffffffffffffffffffffff1673ffffffffffffffffffffffffffffffffffffffff1673ffffffffffffffffffffffffffffffffffffffff16815260200190815260200160002060008c81526020019081526020016000208190555061196d611884868681548110611863577f4e487b7100000000000000000000000000000000000000000000000000000000600052603260045260246000fd5b9060005260206000209060070201600501548361315390919063ffffffff16565b600360008888815481106118c1577f4e487b7100000000000000000000000000000000000000000000000000000000600052603260045260246000fd5b906000526020600020906007020160010160009054906101000a900473ffffffffffffffffffffffffffffffffffffffff1673ffffffffffffffffffffffffffffffffffffffff1673ffffffffffffffffffffffffffffffffffffffff16815260200190815260200160002060007f444149000000000000000000000000000000000000000000000000000000000081526020019081526020016000205461313d90919063ffffffff16565b600360008787815481106119aa577f4e487b7100000000000000000000000000000000000000000000000000000000600052603260045260246000fd5b906000526020600020906007020160010160009054906101000a900473ffffffffffffffffffffffffffffffffffffffff1673ffffffffffffffffffffffffffffffffffffffff1673ffffffffffffffffffffffffffffffffffffffff16815260200190815260200160002060007f44414900000000000000000000000000000000000000000000000000000000008152602001908152602001600020819055505b611a62600160065461313d90919063ffffffff16565b600681905550611a7c60018561313d90919063ffffffff16565b935050506109d5565b600091505b828054905082108015611b305750828281548110611ad1577f4e487b7100000000000000000000000000000000000000000000000000000000600052603260045260246000fd5b906000526020600020906007020160030154838381548110611b1c577f4e487b7100000000000000000000000000000000000000000000000000000000600052603260045260246000fd5b906000526020600020906007020160040154145b15611de05760008290505b60018480549050611b4c9190613c09565b811015611d095783600182611b619190613b59565b81548110611b98577f4e487b7100000000000000000000000000000000000000000000000000000000600052603260045260246000fd5b9060005260206000209060070201848281548110611bdf577f4e487b7100000000000000000000000000000000000000000000000000000000600052603260045260246000fd5b9060005260206000209060070201600082015481600001556001820160009054906101000a900473ffffffffffffffffffffffffffffffffffffffff168160010160006101000a81548173ffffffffffffffffffffffffffffffffffffffff021916908373ffffffffffffffffffffffffffffffffffffffff1602179055506001820160149054906101000a900460ff168160010160146101000a81548160ff02191690836001811115611cbc577f4e487b7100000000000000000000000000000000000000000000000000000000600052602160045260246000fd5b021790555060028201548160020155600382015481600301556004820154816004015560058201548160050155600682015481600601559050508080611d0190613cb4565b915050611b3b565b5082805480611d41577f4e487b7100000000000000000000000000000000000000000000000000000000600052603160045260246000fd5b60019003818190600052602060002090600702016000808201600090556001820160006101000a81549073ffffffffffffffffffffffffffffffffffffffff02191690556001820160146101000a81549060ff02191690556002820160009055600382016000905560048201600090556005820160009055600682016000905550509055611dd960018361313d90919063ffffffff16565b9150611a8a565b5050505050505050565b60006020528060005260406000206000915090508060000154908060010160009054906101000a900473ffffffffffffffffffffffffffffffffffffffff16905082565b60055481565b80600073ffffffffffffffffffffffffffffffffffffffff1660008083815260200190815260200160002060010160009054906101000a900473ffffffffffffffffffffffffffffffffffffffff1673ffffffffffffffffffffffffffffffffffffffff161415611eda576040517f08c379a0000000000000000000000000000000000000000000000000000000008152600401611ed19061392a565b60405180910390fd5b82600360003373ffffffffffffffffffffffffffffffffffffffff1673ffffffffffffffffffffffffffffffffffffffff1681526020019081526020016000206000848152602001908152602001600020541015611f6d576040517f08c379a0000000000000000000000000000000000000000000000000000000008152600401611f649061394a565b60405180910390fd5b611fd083600360003373ffffffffffffffffffffffffffffffffffffffff1673ffffffffffffffffffffffffffffffffffffffff16815260200190815260200160002060008581526020019081526020016000205461312790919063ffffffff16565b600360003373ffffffffffffffffffffffffffffffffffffffff1673ffffffffffffffffffffffffffffffffffffffff16815260200190815260200160002060008481526020019081526020016000208190555060008083815260200190815260200160002060010160009054906101000a900473ffffffffffffffffffffffffffffffffffffffff1673ffffffffffffffffffffffffffffffffffffffff1663a9059cbb33856040518363ffffffff1660e01b8152600401612094929190613879565b602060405180830381600087803b1580156120ae57600080fd5b505af11580156120c2573d6000803e3d6000fd5b505050506040513d601f19601f820116820180604052508101906120e69190613241565b50505050565b6003602052816000526040600020602052806000526040600020600091509150505481565b6060600060018054905067ffffffffffffffff81111561215a577f4e487b7100000000000000000000000000000000000000000000000000000000600052604160045260246000fd5b60405190808252806020026020018201604052801561219357816020015b612180613169565b8152602001906001900390816121785790505b50905060005b6001805490508110156122fa576040518060400160405280600080600185815481106121ee577f4e487b7100000000000000000000000000000000000000000000000000000000600052603260045260246000fd5b906000526020600020015481526020019081526020016000206000015481526020016000806001858154811061224d577f4e487b7100000000000000000000000000000000000000000000000000000000600052603260045260246000fd5b9060005260206000200154815260200190815260200160002060010160009054906101000a900473ffffffffffffffffffffffffffffffffffffffff1673ffffffffffffffffffffffffffffffffffffffff168152508282815181106122dc577f4e487b7100000000000000000000000000000000000000000000000000000000600052603260045260246000fd5b602002602001018190525080806122f290613cb4565b915050612199565b508091505090565b83600073ffffffffffffffffffffffffffffffffffffffff1660008083815260200190815260200160002060010160009054906101000a900473ffffffffffffffffffffffffffffffffffffffff1673ffffffffffffffffffffffffffffffffffffffff1614156123a8576040517f08c379a000000000000000000000000000000000000000000000000000000000815260040161239f9061392a565b60405180910390fd5b847f444149000000000000000000000000000000000000000000000000000000000081141561240c576040517f08c379a0000000000000000000000000000000000000000000000000000000008152600401612403906139ca565b60405180910390fd5b600180811115612445577f4e487b7100000000000000000000000000000000000000000000000000000000600052602160045260246000fd5b83600181111561247e577f4e487b7100000000000000000000000000000000000000000000000000000000600052602160045260246000fd5b141561251c5784600360003373ffffffffffffffffffffffffffffffffffffffff1673ffffffffffffffffffffffffffffffffffffffff1681526020019081526020016000206000888152602001908152602001600020541015612517576040517f08c379a000000000000000000000000000000000000000000000000000000000815260040161250e9061394a565b60405180910390fd5b6125e2565b61252f848661315390919063ffffffff16565b600360003373ffffffffffffffffffffffffffffffffffffffff1673ffffffffffffffffffffffffffffffffffffffff16815260200190815260200160002060007f444149000000000000000000000000000000000000000000000000000000000081526020019081526020016000205410156125e1576040517f08c379a00000000000000000000000000000000000000000000000000000000081526004016125d89061398a565b60405180910390fd5b5b6000600460008881526020019081526020016000206000856001811115612632577f4e487b7100000000000000000000000000000000000000000000000000000000600052602160045260246000fd5b815260200190815260200160002090508060405180610100016040528060055481526020013373ffffffffffffffffffffffffffffffffffffffff1681526020018660018111156126ac577f4e487b7100000000000000000000000000000000000000000000000000000000600052602160045260246000fd5b8152602001898152602001888152602001600081526020018781526020014281525090806001815401808255809150506001900390600052602060002090600702016000909190919091506000820151816000015560208201518160010160006101000a81548173ffffffffffffffffffffffffffffffffffffffff021916908373ffffffffffffffffffffffffffffffffffffffff16021790555060408201518160010160146101000a81548160ff02191690836001811115612799577f4e487b7100000000000000000000000000000000000000000000000000000000600052602160045260246000fd5b0217905550606082015181600201556080820151816003015560a0820151816004015560c0820151816005015560e0820151816006015550506000808280549050116127e65760006127f8565b600182805490506127f79190613c09565b5b90505b6000811115612eb4576000600181111561283e577f4e487b7100000000000000000000000000000000000000000000000000000000600052602160045260246000fd5b856001811115612877577f4e487b7100000000000000000000000000000000000000000000000000000000600052602160045260246000fd5b14801561292357508181815481106128b8577f4e487b7100000000000000000000000000000000000000000000000000000000600052603260045260246000fd5b906000526020600020906007020160050154826001836128d89190613c09565b8154811061290f577f4e487b7100000000000000000000000000000000000000000000000000000000600052603260045260246000fd5b906000526020600020906007020160050154115b1561292d57612eb4565b600180811115612966577f4e487b7100000000000000000000000000000000000000000000000000000000600052602160045260246000fd5b85600181111561299f577f4e487b7100000000000000000000000000000000000000000000000000000000600052602160045260246000fd5b148015612a4b57508181815481106129e0577f4e487b7100000000000000000000000000000000000000000000000000000000600052603260045260246000fd5b90600052602060002090600702016005015482600183612a009190613c09565b81548110612a37577f4e487b7100000000000000000000000000000000000000000000000000000000600052603260045260246000fd5b906000526020600020906007020160050154105b15612a5557612eb4565b600082600183612a659190613c09565b81548110612a9c577f4e487b7100000000000000000000000000000000000000000000000000000000600052603260045260246000fd5b906000526020600020906007020160405180610100016040529081600082015481526020016001820160009054906101000a900473ffffffffffffffffffffffffffffffffffffffff1673ffffffffffffffffffffffffffffffffffffffff1673ffffffffffffffffffffffffffffffffffffffff1681526020016001820160149054906101000a900460ff166001811115612b61577f4e487b7100000000000000000000000000000000000000000000000000000000600052602160045260246000fd5b6001811115612b99577f4e487b7100000000000000000000000000000000000000000000000000000000600052602160045260246000fd5b8152602001600282015481526020016003820154815260200160048201548152602001600582015481526020016006820154815250509050828281548110612c0a577f4e487b7100000000000000000000000000000000000000000000000000000000600052603260045260246000fd5b906000526020600020906007020183600184612c269190613c09565b81548110612c5d577f4e487b7100000000000000000000000000000000000000000000000000000000600052603260045260246000fd5b9060005260206000209060070201600082015481600001556001820160009054906101000a900473ffffffffffffffffffffffffffffffffffffffff168160010160006101000a81548173ffffffffffffffffffffffffffffffffffffffff021916908373ffffffffffffffffffffffffffffffffffffffff1602179055506001820160149054906101000a900460ff168160010160146101000a81548160ff02191690836001811115612d3a577f4e487b7100000000000000000000000000000000000000000000000000000000600052602160045260246000fd5b0217905550600282015481600201556003820154816003015560048201548160040155600582015481600501556006820154816006015590505080838381548110612dae577f4e487b7100000000000000000000000000000000000000000000000000000000600052603260045260246000fd5b90600052602060002090600702016000820151816000015560208201518160010160006101000a81548173ffffffffffffffffffffffffffffffffffffffff021916908373ffffffffffffffffffffffffffffffffffffffff16021790555060408201518160010160146101000a81548160ff02191690836001811115612e5e577f4e487b7100000000000000000000000000000000000000000000000000000000600052602160045260246000fd5b0217905550606082015181600201556080820151816003015560a0820151816004015560c0820151816005015560e08201518160060155905050612eac60018361312790919063ffffffff16565b9150506127fb565b612eca600160055461313d90919063ffffffff16565b6005819055505050505050505050565b80600073ffffffffffffffffffffffffffffffffffffffff1660008083815260200190815260200160002060010160009054906101000a900473ffffffffffffffffffffffffffffffffffffffff1673ffffffffffffffffffffffffffffffffffffffff161415612f80576040517f08c379a0000000000000000000000000000000000000000000000000000000008152600401612f779061392a565b60405180910390fd5b60008083815260200190815260200160002060010160009054906101000a900473ffffffffffffffffffffffffffffffffffffffff1673ffffffffffffffffffffffffffffffffffffffff166323b872dd3330866040518463ffffffff1660e01b8152600401612ff293929190613842565b602060405180830381600087803b15801561300c57600080fd5b505af1158015613020573d6000803e3d6000fd5b505050506040513d601f19601f820116820180604052508101906130449190613241565b506130a883600360003373ffffffffffffffffffffffffffffffffffffffff1673ffffffffffffffffffffffffffffffffffffffff16815260200190815260200160002060008581526020019081526020016000205461313d90919063ffffffff16565b600360003373ffffffffffffffffffffffffffffffffffffffff1673ffffffffffffffffffffffffffffffffffffffff168152602001908152602001600020600084815260200190815260200160002081905550505050565b600260009054906101000a900473ffffffffffffffffffffffffffffffffffffffff1681565b600081836131359190613c09565b905092915050565b6000818361314b9190613b59565b905092915050565b600081836131619190613baf565b905092915050565b604051806040016040528060008019168152602001600073ffffffffffffffffffffffffffffffffffffffff1681525090565b6000813590506131ab81613d6f565b92915050565b6000815190506131c081613d86565b92915050565b6000813590506131d581613d9d565b92915050565b6000813590506131ea81613db4565b92915050565b6000813590506131ff81613dc4565b92915050565b6000806040838503121561321857600080fd5b60006132268582860161319c565b9250506020613237858286016131c6565b9150509250929050565b60006020828403121561325357600080fd5b6000613261848285016131b1565b91505092915050565b60006020828403121561327c57600080fd5b600061328a848285016131c6565b91505092915050565b600080604083850312156132a657600080fd5b60006132b4858286016131c6565b92505060206132c58582860161319c565b9150509250929050565b600080604083850312156132e257600080fd5b60006132f0858286016131c6565b9250506020613301858286016131db565b9150509250929050565b60008060006060848603121561332057600080fd5b600061332e868287016131c6565b935050602061333f868287016131f0565b9250506040613350868287016131db565b9150509250925092565b60008060006060848603121561336f57600080fd5b600061337d868287016131c6565b935050602061338e868287016131f0565b925050604061339f868287016131f0565b9150509250925092565b600080600080608085870312156133bf57600080fd5b60006133cd878288016131c6565b94505060206133de878288016131f0565b93505060406133ef878288016131f0565b9250506060613400878288016131db565b91505092959194509250565b60006020828403121561341e57600080fd5b600061342c848285016131f0565b91505092915050565b6000806040838503121561344857600080fd5b6000613456858286016131f0565b9250506020613467858286016131c6565b9150509250929050565b600061347d8383613738565b6101008301905092915050565b600061349683836137da565b60408301905092915050565b6134ab81613c3d565b82525050565b6134ba81613c3d565b82525050565b60006134cb82613af6565b6134d58185613b26565b93506134e083613ad6565b8060005b838110156135115781516134f88882613471565b975061350383613b0c565b9250506001810190506134e4565b5085935050505092915050565b600061352982613b01565b6135338185613b37565b935061353e83613ae6565b8060005b8381101561356f578151613556888261348a565b975061356183613b19565b925050600181019050613542565b5085935050505092915050565b61358581613c5b565b82525050565b61359481613c5b565b82525050565b6135a381613ca2565b82525050565b6135b281613ca2565b82525050565b60006135c5601383613b48565b91507f546f6b656e20646f65736e6f74206578697374000000000000000000000000006000830152602082019050919050565b6000613605601483613b48565b91507f496e73756666696369656e742042616c616e63650000000000000000000000006000830152602082019050919050565b6000613645600a83613b48565b91507f4f6e6c792041646d696e000000000000000000000000000000000000000000006000830152602082019050919050565b6000613685601383613b48565b91507f4441492042616c616e636520746f6f206c6f77000000000000000000000000006000830152602082019050919050565b60006136c5601783613b48565b91507f496e73756666696369656e742044414920546f6b656e730000000000000000006000830152602082019050919050565b6000613705601083613b48565b91507f43616e6e6f7420747261646520444149000000000000000000000000000000006000830152602082019050919050565b6101008201600082015161374f6000850182613809565b50602082015161376260208501826134a2565b506040820151613775604085018261359a565b506060820151613788606085018261357c565b50608082015161379b6080850182613809565b5060a08201516137ae60a0850182613809565b5060c08201516137c160c0850182613809565b5060e08201516137d460e0850182613809565b50505050565b6040820160008201516137f0600085018261357c565b50602082015161380360208501826134a2565b50505050565b61381281613c98565b82525050565b61382181613c98565b82525050565b600060208201905061383c60008301846134b1565b92915050565b600060608201905061385760008301866134b1565b61386460208301856134b1565b6138716040830184613818565b949350505050565b600060408201905061388e60008301856134b1565b61389b6020830184613818565b9392505050565b600060208201905081810360008301526138bc81846134c0565b905092915050565b600060208201905081810360008301526138de818461351e565b905092915050565b60006020820190506138fb600083018461358b565b92915050565b6000604082019050613916600083018561358b565b61392360208301846134b1565b9392505050565b60006020820190508181036000830152613943816135b8565b9050919050565b60006020820190508181036000830152613963816135f8565b9050919050565b6000602082019050818103600083015261398381613638565b9050919050565b600060208201905081810360008301526139a381613678565b9050919050565b600060208201905081810360008301526139c3816136b8565b9050919050565b600060208201905081810360008301526139e3816136f8565b9050919050565b60006020820190506139ff6000830184613818565b92915050565b600061010082019050613a1b600083018b613818565b613a28602083018a6134b1565b613a3560408301896135a9565b613a42606083018861358b565b613a4f6080830187613818565b613a5c60a0830186613818565b613a6960c0830185613818565b613a7660e0830184613818565b9998505050505050505050565b600060a082019050613a986000830188613818565b613aa56020830187613818565b613ab26040830186613818565b613abf6060830185613818565b613acc6080830184613818565b9695505050505050565b6000819050602082019050919050565b6000819050602082019050919050565b600081519050919050565b600081519050919050565b6000602082019050919050565b6000602082019050919050565b600082825260208201905092915050565b600082825260208201905092915050565b600082825260208201905092915050565b6000613b6482613c98565b9150613b6f83613c98565b9250827fffffffffffffffffffffffffffffffffffffffffffffffffffffffffffffffff03821115613ba457613ba3613cfd565b5b828201905092915050565b6000613bba82613c98565b9150613bc583613c98565b9250817fffffffffffffffffffffffffffffffffffffffffffffffffffffffffffffffff0483118215151615613bfe57613bfd613cfd565b5b828202905092915050565b6000613c1482613c98565b9150613c1f83613c98565b925082821015613c3257613c31613cfd565b5b828203905092915050565b6000613c4882613c78565b9050919050565b60008115159050919050565b6000819050919050565b6000819050613c7382613d5b565b919050565b600073ffffffffffffffffffffffffffffffffffffffff82169050919050565b6000819050919050565b6000613cad82613c65565b9050919050565b6000613cbf82613c98565b91507fffffffffffffffffffffffffffffffffffffffffffffffffffffffffffffffff821415613cf257613cf1613cfd565b5b600182019050919050565b7f4e487b7100000000000000000000000000000000000000000000000000000000600052601160045260246000fd5b7f4e487b7100000000000000000000000000000000000000000000000000000000600052602160045260246000fd5b60028110613d6c57613d6b613d2c565b5b50565b613d7881613c3d565b8114613d8357600080fd5b50565b613d8f81613c4f565b8114613d9a57600080fd5b50565b613da681613c5b565b8114613db157600080fd5b50565b60028110613dc157600080fd5b50565b613dcd81613c98565b8114613dd857600080fd5b5056fea264697066735822122072af85676b55f10506696f5147e9674bdf44dc1209633f73329c7aca0c79377a64736f6c63430008000033",
  "immutableReferences": {},
  "source": "// SPDX-License-Identifier: MIT\npragma solidity ^0.8.0;\n\nimport \"@openzeppelin/contracts/utils/math/SafeMath.sol\";\nimport \"@openzeppelin/contracts/token/ERC20/IERC20.sol\";\n\ncontract Dex {\n    using SafeMath for uint256;\n    //Type of limit order\n    enum Side {\n        BUY,\n        SELL\n    }\n\n    //Describe the Token\n    struct Token {\n        bytes32 ticker; //The Symbol of the Token\n        address token_address;\n    }\n\n    //Describe the order\n    struct Order {\n        uint256 id;\n        address trader;\n        Side side;\n        bytes32 ticker;\n        uint256 amount;\n        uint256 filled; // how much of the amount is fulfilled already\n        uint256 price;\n        uint256 date;\n    }\n\n    //Collection of tokens\n    mapping(bytes32 => Token) public tokens;\n    //List of all the Tickers\n    bytes32[] public token_list;\n    //Special address having admin rights\n    address public admin;\n    mapping(address => mapping(bytes32 => uint256)) public trader_balances;\n\n    //Order book\n    // here uint is 0 it will be buy and vice versa\n    // The Order[] will be sorted by price time priority\n    //like buy orders: [50, 45, 44, 30]\n    //sell orders: [60, 67, 70, 72]\n    mapping(bytes32 => mapping(uint256 => Order[])) public order_book;\n    uint256 public next_order_id;\n    uint256 public next_trade_id;\n    bytes32 constant DAI = bytes32(\"DAI\");\n\n    //Describe a trade event, since output of a market match is a trade event\n    event New_Trade(\n        uint256 trade_id,\n        uint256 order_id,\n        bytes32 indexed ticker,\n        address indexed trader_1,\n        address indexed trader_2,\n        uint256 amount,\n        uint256 price,\n        uint256 date\n    );\n\n    constructor() public {\n        //Creator of the token\n        admin = msg.sender;\n    }\n\n    //function to get the orders\n    function get_orders(bytes32 ticker, Side side)\n        external\n        view\n        returns (Order[] memory)\n    {\n        return order_book[ticker][uint256(side)];\n    }\n\n    function getTokens() external view returns (Token[] memory) {\n        Token[] memory _tokens = new Token[](token_list.length);\n        for (uint256 i = 0; i < token_list.length; i++) {\n            _tokens[i] = Token(\n                tokens[token_list[i]].ticker,\n                tokens[token_list[i]].token_address\n            );\n        }\n        return _tokens;\n    }\n\n    //Function to add token to the exchange\n    // this is kind of a liquidity pool\n    function add_token(bytes32 ticker, address token_address)\n        external\n        onlyAdmin\n    {\n        tokens[ticker] = Token(ticker, token_address);\n        token_list.push(ticker);\n    }\n\n    //Function to send tokens or deposit\n    function deposit(uint256 amount, bytes32 ticker)\n        external\n        tokenExist(ticker)\n    {\n        //This transfers the tokens from the sender to this smart contract first\n        IERC20(tokens[ticker].token_address).transferFrom(\n            msg.sender,\n            address(this),\n            amount\n        );\n        //Increment the balance of the trader in the smart contract\n        trader_balances[msg.sender][ticker] = trader_balances[msg.sender][\n            ticker\n        ].add(amount);\n    }\n\n    // Function to withdraw the tokens\n    function withdraw(uint256 amount, bytes32 ticker)\n        external\n        tokenExist(ticker)\n    {\n        // make sure trader has enough tokens\n        require(\n            trader_balances[msg.sender][ticker] >= amount,\n            \"Insufficient Balance\"\n        );\n        // If theere is sufficient balance, decrement the amount from this Smart contract for a particular trader\n        trader_balances[msg.sender][ticker] = trader_balances[msg.sender][\n            ticker\n        ].sub(amount);\n        // Actually transfer the amount to particular address, in this case the sender itself\n        // because this is a withdrawal!\n        IERC20(tokens[ticker].token_address).transfer(msg.sender, amount);\n    }\n\n    //Fuction to create limit order\n    // Alows a trader to buy or sell tokens in this smart contract\n    function create_limit_order(\n        bytes32 ticker,\n        uint256 amount,\n        uint256 price,\n        Side side\n    ) external tokenExist(ticker) tokenIsNotDai(ticker) {\n        //Check if trader has enough balance\n        if (side == Side.SELL) {\n            require(\n                trader_balances[msg.sender][ticker] >= amount,\n                \"Insufficient Balance\"\n            );\n        } else {\n            //If this is a BUY ordr, make sure that trader has enough DAi\n            require(\n                trader_balances[msg.sender][DAI] >= amount.mul(price),\n                \"DAI Balance too low\"\n            );\n        }\n        Order[] storage orders = order_book[ticker][uint256(side)];\n        orders.push(\n            Order(\n                next_order_id,\n                msg.sender,\n                side,\n                ticker,\n                amount,\n                0,\n                price,\n                block.timestamp\n            )\n        );\n\n        uint256 i = orders.length > 0 ? orders.length - 1 : 0;\n        // Implementing Bubble sort to sort the orders here\n        while (i > 0) {\n            if (side == Side.BUY && orders[i - 1].price > orders[i].price) {\n                break;\n            }\n            if (side == Side.SELL && orders[i - 1].price < orders[i].price) {\n                break;\n            }\n            Order memory order = orders[i - 1];\n            orders[i - 1] = orders[i];\n            orders[i] = order;\n            i = i.sub(1);\n        }\n        next_order_id = next_order_id.add(1);\n    }\n\n    // Function to create a BUY or SELL market order\n    // A market order is an order to buy or sell a token at the best available price within the market\n    function create_market_order(\n        bytes32 ticker,\n        uint256 amount,\n        Side side\n    ) external tokenExist(ticker) tokenIsNotDai(ticker) {\n        //Check if trader has enough balance\n        if (side == Side.SELL) {\n            require(\n                trader_balances[msg.sender][ticker] >= amount,\n                \"Insufficient Balance\"\n            );\n        }\n        // Extracting the list of BUY order if its a SELL order, vice versa\n        Order[] storage orders = order_book[ticker][\n            uint256(side == Side.BUY ? Side.SELL : Side.BUY)\n        ];\n        uint256 i;\n        uint256 remaining = amount; //initially the remaining amount will be the the whole amount filled by the marketsince the matching process has not started yet\n\n        while (i < orders.length && remaining > 0) {\n            // Finding the available liquidity of each order of the order book\n            uint256 available = orders[i].amount.sub(orders[i].filled);\n\n            // If remianing is greter than whats available for current iterated order\n            // then take all the liquidity of this order, then what will be matched will the whats available\n            // else the limit order is bigger than market order so market order will be matched totally\n            uint256 matched = (remaining > available) ? available : remaining;\n            remaining = remaining.sub(matched);\n            orders[i].filled = orders[i].filled.add(matched);\n            emit New_Trade(\n                next_trade_id,\n                orders[i].id,\n                ticker,\n                orders[i].trader,\n                msg.sender,\n                matched,\n                orders[i].price,\n                block.timestamp\n            );\n            if (side == Side.SELL) {\n                // Since trader sellls his tokens, so decrementing his tokens\n                trader_balances[msg.sender][ticker] = trader_balances[\n                    msg.sender\n                ][ticker].sub(matched);\n                //Also amount of DAI will be increased\n                trader_balances[msg.sender][DAI] = trader_balances[msg.sender][\n                    DAI\n                ].add(matched.mul(orders[i].price));\n\n                // For trader on the other side of the trade, gonna recieve the tokens\n                trader_balances[orders[i].trader][ticker] = trader_balances[\n                    orders[i].trader\n                ][ticker].add(matched);\n                trader_balances[orders[i].trader][DAI] = trader_balances[\n                    orders[i].trader\n                ][DAI].sub(matched.mul(orders[i].price));\n            }\n\n            if (side == Side.BUY) {\n                require(\n                    trader_balances[msg.sender][DAI] >=\n                        matched * orders[i].price,\n                    \"Insufficient DAI Tokens\"\n                );\n                trader_balances[msg.sender][ticker] = trader_balances[\n                    msg.sender\n                ][ticker].add(matched);\n                trader_balances[msg.sender][DAI] = trader_balances[msg.sender][\n                    DAI\n                ].sub(matched.mul(orders[i].price));\n                trader_balances[orders[i].trader][ticker] = trader_balances[\n                    orders[i].trader\n                ][ticker].sub(matched);\n                trader_balances[orders[i].trader][DAI] = trader_balances[\n                    orders[i].trader\n                ][DAI].add(matched.mul(orders[i].price));\n            }\n            next_trade_id = next_trade_id.add(1);\n            i = i.add(1);\n        }\n        i = 0;\n        // Loop over the order book, if find an filled order, remove it\n        while (i < orders.length && orders[i].filled == orders[i].amount) {\n            for (uint256 j = i; j < orders.length - 1; j++) {\n                orders[j] = orders[j + 1];\n            }\n            orders.pop();\n            i = i.add(1);\n        }\n    }\n\n    modifier tokenIsNotDai(bytes32 ticker) {\n        require(ticker != DAI, \"Cannot trade DAI\");\n        _;\n    }\n\n    modifier tokenExist(bytes32 ticker) {\n        require(\n            tokens[ticker].token_address != address(0),\n            \"Token doesnot exist\"\n        );\n        _;\n    }\n\n    modifier onlyAdmin() {\n        require(msg.sender == admin, \"Only Admin\");\n        _;\n    }\n}\n",
  "sourcePath": "/Users/priyankuhazarika/Desktop/aps_lab/Mini_Project/Mini_project_smart_contracts/contracts/Dex.sol",
  "compiler": {
    "name": "solc",
    "version": "0.8.0+commit.c7dfd78e.Emscripten.clang"
  },
  "schemaVersion": "3.4.7",
  "updatedAt": "2022-06-18T20:27:58.170Z",
  "networkType": "ethereum",
  "devdoc": {
    "kind": "dev",
    "methods": {},
    "version": 1
  },
  "userdoc": {
    "kind": "user",
    "methods": {},
    "version": 1
  }
}